{
  "_format": "hh-sol-artifact-1",
  "contractName": "DummyUSDT",
  "sourceName": "contracts/DummyUSDT.sol",
  "abi": [
    {
      "inputs": [
        {
          "internalType": "uint256",
          "name": "initialSupply",
          "type": "uint256"
        }
      ],
      "stateMutability": "nonpayable",
      "type": "constructor"
    },
    {
      "inputs": [
        {
          "internalType": "address",
          "name": "spender",
          "type": "address"
        },
        {
          "internalType": "uint256",
          "name": "allowance",
          "type": "uint256"
        },
        {
          "internalType": "uint256",
          "name": "needed",
          "type": "uint256"
        }
      ],
      "name": "ERC20InsufficientAllowance",
      "type": "error"
    },
    {
      "inputs": [
        {
          "internalType": "address",
          "name": "sender",
          "type": "address"
        },
        {
          "internalType": "uint256",
          "name": "balance",
          "type": "uint256"
        },
        {
          "internalType": "uint256",
          "name": "needed",
          "type": "uint256"
        }
      ],
      "name": "ERC20InsufficientBalance",
      "type": "error"
    },
    {
      "inputs": [
        {
          "internalType": "address",
          "name": "approver",
          "type": "address"
        }
      ],
      "name": "ERC20InvalidApprover",
      "type": "error"
    },
    {
      "inputs": [
        {
          "internalType": "address",
          "name": "receiver",
          "type": "address"
        }
      ],
      "name": "ERC20InvalidReceiver",
      "type": "error"
    },
    {
      "inputs": [
        {
          "internalType": "address",
          "name": "sender",
          "type": "address"
        }
      ],
      "name": "ERC20InvalidSender",
      "type": "error"
    },
    {
      "inputs": [
        {
          "internalType": "address",
          "name": "spender",
          "type": "address"
        }
      ],
      "name": "ERC20InvalidSpender",
      "type": "error"
    },
    {
      "inputs": [],
      "name": "FaucetCooldown",
      "type": "error"
    },
    {
      "inputs": [],
      "name": "FaucetEmpty",
      "type": "error"
    },
    {
      "inputs": [
        {
          "internalType": "address",
          "name": "owner",
          "type": "address"
        }
      ],
      "name": "OwnableInvalidOwner",
      "type": "error"
    },
    {
      "inputs": [
        {
          "internalType": "address",
          "name": "account",
          "type": "address"
        }
      ],
      "name": "OwnableUnauthorizedAccount",
      "type": "error"
    },
    {
      "anonymous": false,
      "inputs": [
        {
          "indexed": true,
          "internalType": "address",
          "name": "owner",
          "type": "address"
        },
        {
          "indexed": true,
          "internalType": "address",
          "name": "spender",
          "type": "address"
        },
        {
          "indexed": false,
          "internalType": "uint256",
          "name": "value",
          "type": "uint256"
        }
      ],
      "name": "Approval",
      "type": "event"
    },
    {
      "anonymous": false,
      "inputs": [
        {
          "indexed": true,
          "internalType": "address",
          "name": "user",
          "type": "address"
        },
        {
          "indexed": false,
          "internalType": "uint256",
          "name": "amount",
          "type": "uint256"
        }
      ],
      "name": "FaucetClaimed",
      "type": "event"
    },
    {
      "anonymous": false,
      "inputs": [
        {
          "indexed": false,
          "internalType": "uint256",
          "name": "amount",
          "type": "uint256"
        }
      ],
      "name": "FaucetFunded",
      "type": "event"
    },
    {
      "anonymous": false,
      "inputs": [
        {
          "indexed": true,
          "internalType": "address",
          "name": "previousOwner",
          "type": "address"
        },
        {
          "indexed": true,
          "internalType": "address",
          "name": "newOwner",
          "type": "address"
        }
      ],
      "name": "OwnershipTransferred",
      "type": "event"
    },
    {
      "anonymous": false,
      "inputs": [
        {
          "indexed": true,
          "internalType": "address",
          "name": "from",
          "type": "address"
        },
        {
          "indexed": true,
          "internalType": "address",
          "name": "to",
          "type": "address"
        },
        {
          "indexed": false,
          "internalType": "uint256",
          "name": "value",
          "type": "uint256"
        }
      ],
      "name": "Transfer",
      "type": "event"
    },
    {
      "inputs": [],
      "name": "FAUCET_AMOUNT",
      "outputs": [
        {
          "internalType": "uint256",
          "name": "",
          "type": "uint256"
        }
      ],
      "stateMutability": "view",
      "type": "function"
    },
    {
      "inputs": [],
      "name": "FAUCET_COOLDOWN",
      "outputs": [
        {
          "internalType": "uint256",
          "name": "",
          "type": "uint256"
        }
      ],
      "stateMutability": "view",
      "type": "function"
    },
    {
      "inputs": [
        {
          "internalType": "address",
          "name": "owner",
          "type": "address"
        },
        {
          "internalType": "address",
          "name": "spender",
          "type": "address"
        }
      ],
      "name": "allowance",
      "outputs": [
        {
          "internalType": "uint256",
          "name": "",
          "type": "uint256"
        }
      ],
      "stateMutability": "view",
      "type": "function"
    },
    {
      "inputs": [
        {
          "internalType": "address",
          "name": "spender",
          "type": "address"
        },
        {
          "internalType": "uint256",
          "name": "value",
          "type": "uint256"
        }
      ],
      "name": "approve",
      "outputs": [
        {
          "internalType": "bool",
          "name": "",
          "type": "bool"
        }
      ],
      "stateMutability": "nonpayable",
      "type": "function"
    },
    {
      "inputs": [
        {
          "internalType": "address",
          "name": "account",
          "type": "address"
        }
      ],
      "name": "balanceOf",
      "outputs": [
        {
          "internalType": "uint256",
          "name": "",
          "type": "uint256"
        }
      ],
      "stateMutability": "view",
      "type": "function"
    },
    {
      "inputs": [
        {
          "internalType": "address",
          "name": "user",
          "type": "address"
        }
      ],
      "name": "canClaimFaucet",
      "outputs": [
        {
          "internalType": "bool",
          "name": "",
          "type": "bool"
        }
      ],
      "stateMutability": "view",
      "type": "function"
    },
    {
      "inputs": [],
      "name": "decimals",
      "outputs": [
        {
          "internalType": "uint8",
          "name": "",
          "type": "uint8"
        }
      ],
      "stateMutability": "view",
      "type": "function"
    },
    {
      "inputs": [],
      "name": "faucet",
      "outputs": [],
      "stateMutability": "nonpayable",
      "type": "function"
    },
    {
      "inputs": [
        {
          "internalType": "uint256",
          "name": "amount",
          "type": "uint256"
        }
      ],
      "name": "fundFaucet",
      "outputs": [],
      "stateMutability": "nonpayable",
      "type": "function"
    },
    {
      "inputs": [],
      "name": "getFaucetBalance",
      "outputs": [
        {
          "internalType": "uint256",
          "name": "",
          "type": "uint256"
        }
      ],
      "stateMutability": "view",
      "type": "function"
    },
    {
      "inputs": [
        {
          "internalType": "address",
          "name": "user",
          "type": "address"
        }
      ],
      "name": "getTimeUntilNextClaim",
      "outputs": [
        {
          "internalType": "uint256",
          "name": "",
          "type": "uint256"
        }
      ],
      "stateMutability": "view",
      "type": "function"
    },
    {
      "inputs": [
        {
          "internalType": "address",
          "name": "",
          "type": "address"
        }
      ],
      "name": "lastFaucetClaim",
      "outputs": [
        {
          "internalType": "uint256",
          "name": "",
          "type": "uint256"
        }
      ],
      "stateMutability": "view",
      "type": "function"
    },
    {
      "inputs": [
        {
          "internalType": "address",
          "name": "to",
          "type": "address"
        },
        {
          "internalType": "uint256",
          "name": "amount",
          "type": "uint256"
        }
      ],
      "name": "mint",
      "outputs": [],
      "stateMutability": "nonpayable",
      "type": "function"
    },
    {
      "inputs": [],
      "name": "name",
      "outputs": [
        {
          "internalType": "string",
          "name": "",
          "type": "string"
        }
      ],
      "stateMutability": "view",
      "type": "function"
    },
    {
      "inputs": [],
      "name": "owner",
      "outputs": [
        {
          "internalType": "address",
          "name": "",
          "type": "address"
        }
      ],
      "stateMutability": "view",
      "type": "function"
    },
    {
      "inputs": [],
      "name": "renounceOwnership",
      "outputs": [],
      "stateMutability": "nonpayable",
      "type": "function"
    },
    {
      "inputs": [],
      "name": "symbol",
      "outputs": [
        {
          "internalType": "string",
          "name": "",
          "type": "string"
        }
      ],
      "stateMutability": "view",
      "type": "function"
    },
    {
      "inputs": [],
      "name": "totalSupply",
      "outputs": [
        {
          "internalType": "uint256",
          "name": "",
          "type": "uint256"
        }
      ],
      "stateMutability": "view",
      "type": "function"
    },
    {
      "inputs": [
        {
          "internalType": "address",
          "name": "to",
          "type": "address"
        },
        {
          "internalType": "uint256",
          "name": "value",
          "type": "uint256"
        }
      ],
      "name": "transfer",
      "outputs": [
        {
          "internalType": "bool",
          "name": "",
          "type": "bool"
        }
      ],
      "stateMutability": "nonpayable",
      "type": "function"
    },
    {
      "inputs": [
        {
          "internalType": "address",
          "name": "from",
          "type": "address"
        },
        {
          "internalType": "address",
          "name": "to",
          "type": "address"
        },
        {
          "internalType": "uint256",
          "name": "value",
          "type": "uint256"
        }
      ],
      "name": "transferFrom",
      "outputs": [
        {
          "internalType": "bool",
          "name": "",
          "type": "bool"
        }
      ],
      "stateMutability": "nonpayable",
      "type": "function"
    },
    {
      "inputs": [
        {
          "internalType": "address",
          "name": "newOwner",
          "type": "address"
        }
      ],
      "name": "transferOwnership",
      "outputs": [],
      "stateMutability": "nonpayable",
      "type": "function"
    },
    {
      "inputs": [],
      "name": "withdrawFaucetFunds",
      "outputs": [],
      "stateMutability": "nonpayable",
      "type": "function"
    }
  ],
  "bytecode": "0x6080604052346103ee576110ef6020813803918261001c816103f3565b9384928339810103126103ee575161003460406103f3565b90600a825269111d5b5b5e481554d11560b21b602083015261005660406103f3565b6005815264111554d11560da1b602082015282519091906001600160401b0381116102f757600354600181811c911680156103e4575b60208210146102d757601f811161037f575b506020601f8211600114610318578192939460009261030d575b50508160011b916000199060031b1c1916176003555b81516001600160401b0381116102f757600454600181811c911680156102ed575b60208210146102d757601f8111610272575b50602092601f821160011461020d5792819293600092610202575b50508160011b916000199060031b1c1916176004555b33156101ec5760058054336001600160a01b0319821681179092557f1d2d38bd8a2bbf569e5c5ab629156e01d52761e35f52df2cba12da70e27bf8c992602092600a926101cb9291906001600160a01b03167f8be0079c531659141344cd1fd0a4f28419497f9722a3daafe3b4186f6b6457e0600080a3670de0b6b3a7640000906101c66101c08383610418565b33610441565b610418565b046101d68130610441565b604051908152a1604051610c3890816104b78239f35b631e4fbdf760e01b600052600060045260246000fd5b01519050388061011c565b601f198216936004600052806000209160005b86811061025a5750836001959610610241575b505050811b01600455610132565b015160001960f88460031b161c19169055388080610233565b91926020600181928685015181550194019201610220565b60046000527f8a35acfbc15ff81a39ae7d344fd709f28e8600b4aa8c65c6b64bfe7fe36bd19b601f830160051c810191602084106102cd575b601f0160051c01905b8181106102c15750610101565b600081556001016102b4565b90915081906102ab565b634e487b7160e01b600052602260045260246000fd5b90607f16906100ef565b634e487b7160e01b600052604160045260246000fd5b0151905038806100b8565b601f198216906003600052806000209160005b8181106103675750958360019596971061034e575b505050811b016003556100ce565b015160001960f88460031b161c19169055388080610340565b9192602060018192868b01518155019401920161032b565b60036000527fc2575a0e9e593c00f959f8c92f12db2869c3395a3b0502d05e2516446f71f85b601f830160051c810191602084106103da575b601f0160051c01905b8181106103ce575061009e565b600081556001016103c1565b90915081906103b8565b90607f169061008c565b600080fd5b6040519190601f01601f191682016001600160401b038111838210176102f757604052565b8181029291811591840414171561042b57565b634e487b7160e01b600052601160045260246000fd5b6001600160a01b03169081156104a05760025481810180911161042b576002557fddf252ad1be2c89b69c2b068fc378daa952ba7f163c4a11628f55a4df523b3ef602060009284845283825260408420818154019055604051908152a3565b63ec442f0560e01b600052600060045260246000fdfe608080604052600436101561001357600080fd5b60003560e01c90816301d8a2961461098c5750806306fdde03146108b657806308828c981461086e578063095ea7b3146107e857806318160ddd146107ca57806323b872dd146106dd578063313ce567146106c157806340c10f191461063b5780636d07b7e51461061857806370a08231146105df578063715018a614610582578063766976401461055e5780637d1d5d19146105405780638a877205146105065780638da5cb5b146104dd57806395d89b41146103bc578063a9059cbb1461038b578063ae0140b414610338578063dd62ed3e146102e7578063de5f72fd146101cb578063f1f959a6146101a05763f2fde38b1461011157600080fd5b3461019b57602036600319011261019b5761012a6109fc565b610132610ac5565b6001600160a01b0316801561018557600580546001600160a01b0319811683179091556001600160a01b03167f8be0079c531659141344cd1fd0a4f28419497f9722a3daafe3b4186f6b6457e0600080a3005b631e4fbdf760e01b600052600060045260246000fd5b600080fd5b3461019b57600036600319011261019b5730600090815260208181526040909120545b604051908152f35b3461019b57600036600319011261019b573360005260066020526040600020546201518081018091116102d15742106102c057306000526000602052683635c9adc5dea00000604060002054106102af573360005260066020524260406000205530156102995733156102835761024c683635c9adc5dea000003330610b19565b604051683635c9adc5dea0000081527f5d4f415c63cd8a5874d9d291cdd64cec37e5dc236d90d659c958d109d78074b360203392a2005b63ec442f0560e01b600052600060045260246000fd5b634b637e8f60e11b600052600060045260246000fd5b63c1336f8560e01b60005260046000fd5b63313b880360e11b60005260046000fd5b634e487b7160e01b600052601160045260246000fd5b3461019b57604036600319011261019b576103006109fc565b610308610a12565b6001600160a01b039182166000908152600160209081526040808320949093168252928352819020549051908152f35b3461019b57602036600319011261019b577f1d2d38bd8a2bbf569e5c5ab629156e01d52761e35f52df2cba12da70e27bf8c96020600435610377610ac5565b610382813033610aee565b604051908152a1005b3461019b57604036600319011261019b576103b16103a76109fc565b6024359033610aee565b602060405160018152f35b3461019b57600036600319011261019b5760405160006004548060011c906001811680156104d3575b6020831081146104bf578285529081156104a3575060011461044c575b50819003601f01601f191681019067ffffffffffffffff8211818310176104365761043282918260405282610a28565b0390f35b634e487b7160e01b600052604160045260246000fd5b905060046000527f8a35acfbc15ff81a39ae7d344fd709f28e8600b4aa8c65c6b64bfe7fe36bd19b6000905b82821061048d57506020915082010182610402565b6001816020925483858801015201910190610478565b90506020925060ff191682840152151560051b82010182610402565b634e487b7160e01b84526022600452602484fd5b91607f16916103e5565b3461019b57600036600319011261019b576005546040516001600160a01b039091168152602090f35b3461019b57602036600319011261019b576001600160a01b036105276109fc565b1660005260066020526020604060002054604051908152f35b3461019b57600036600319011261019b576020604051620151808152f35b3461019b57600036600319011261019b576020604051683635c9adc5dea000008152f35b3461019b57600036600319011261019b5761059b610ac5565b600580546001600160a01b031981169091556000906001600160a01b03167f8be0079c531659141344cd1fd0a4f28419497f9722a3daafe3b4186f6b6457e08280a3005b3461019b57602036600319011261019b5760206101c36105fd6109fc565b6001600160a01b031660009081526020819052604090205490565b3461019b57602036600319011261019b5760206101c36106366109fc565b610a7e565b3461019b57604036600319011261019b576106546109fc565b60243590610660610ac5565b6001600160a01b03168015610283578161067e602093600254610a71565b6002557fddf252ad1be2c89b69c2b068fc378daa952ba7f163c4a11628f55a4df523b3ef600093849284845283825260408420818154019055604051908152a380f35b3461019b57600036600319011261019b57602060405160128152f35b3461019b57606036600319011261019b576106f66109fc565b6106fe610a12565b6001600160a01b038216600081815260016020908152604080832033845290915290205490926044359291600019811061073e575b506103b19350610aee565b8381106107ad578415610797573315610781576103b1946000526001602052604060002060018060a01b0333166000526020528360406000209103905584610733565b634a1406b160e11b600052600060045260246000fd5b63e602df0560e01b600052600060045260246000fd5b8390637dc7a0d960e11b6000523360045260245260445260646000fd5b3461019b57600036600319011261019b576020600254604051908152f35b3461019b57604036600319011261019b576108016109fc565b602435903315610797576001600160a01b031690811561078157336000526001602052604060002082600052602052806040600020556040519081527f8c5be1e5ebec7d5bd14f71427d1e84f3dd0314c0f7b2291e5b200ac8c7c3b92560203392a3602060405160018152f35b3461019b57600036600319011261019b57610887610ac5565b3060005260006020526040600020548061089d57005b6005546108b491906001600160a01b031630610aee565b005b3461019b57600036600319011261019b5760405160006003548060011c90600181168015610982575b6020831081146104bf578285529081156104a3575060011461092b5750819003601f01601f191681019067ffffffffffffffff8211818310176104365761043282918260405282610a28565b905060036000527fc2575a0e9e593c00f959f8c92f12db2869c3395a3b0502d05e2516446f71f85b6000905b82821061096c57506020915082010182610402565b6001816020925483858801015201910190610957565b91607f16916108df565b3461019b57602036600319011261019b576001600160a01b036109ad6109fc565b166000526006602052604060002054906201518082018092116102d157602091421015806109dc575b15158152f35b503060005260008252683635c9adc5dea0000060406000205410156109d6565b600435906001600160a01b038216820361019b57565b602435906001600160a01b038216820361019b57565b91909160208152825180602083015260005b818110610a5b575060409293506000838284010152601f8019910116010190565b8060208092870101516040828601015201610a3a565b919082018092116102d157565b6001600160a01b0316600090815260066020526040902054620151808101908181116102d15781421015610abe5742900362015180019081116102d15790565b5050600090565b6005546001600160a01b03163303610ad957565b63118cdaa760e01b6000523360045260246000fd5b91906001600160a01b03831615610299576001600160a01b0381161561028357610b1792610b19565b565b6001600160a01b03169081610b955760207fddf252ad1be2c89b69c2b068fc378daa952ba7f163c4a11628f55a4df523b3ef91610b5885600254610a71565b6002555b6001600160a01b03169384610b7d5780600254036002555b604051908152a3565b84600052600082526040600020818154019055610b74565b816000526000602052604060002054838110610be5577fddf252ad1be2c89b69c2b068fc378daa952ba7f163c4a11628f55a4df523b3ef9184602092856000526000845203604060002055610b5c565b91905063391434e360e21b60005260045260245260445260646000fdfea2646970667358221220df9df5f617c9d0c450f745a21d2f3e25fa903e929539817947e8f00ae6ece83c64736f6c634300081c0033",
  "linkReferences": {},
  "deployedLinkReferences": {}
}