{
  "_format": "hh-sol-artifact-1",
  "contractName": "MockFeedRouter",
  "sourceName": "contracts/MockFeedRouter.sol",
  "abi": [
    {
      "inputs": [],
      "stateMutability": "nonpayable",
      "type": "constructor"
    },
    {
      "inputs": [
        {
          "internalType": "string",
          "name": "feedName",
          "type": "string"
        },
        {
          "internalType": "int256",
          "name": "price",
          "type": "int256"
        },
        {
          "internalType": "uint8",
          "name": "decimalsCount",
          "type": "uint8"
        }
      ],
      "name": "addFeed",
      "outputs": [],
      "stateMutability": "nonpayable",
      "type": "function"
    },
    {
      "inputs": [
        {
          "internalType": "string",
          "name": "feedName",
          "type": "string"
        }
      ],
      "name": "decimals",
      "outputs": [
        {
          "internalType": "uint8",
          "name": "",
          "type": "uint8"
        }
      ],
      "stateMutability": "view",
      "type": "function"
    },
    {
      "inputs": [
        {
          "internalType": "string",
          "name": "",
          "type": "string"
        }
      ],
      "name": "feedDecimals",
      "outputs": [
        {
          "internalType": "uint8",
          "name": "",
          "type": "uint8"
        }
      ],
      "stateMutability": "view",
      "type": "function"
    },
    {
      "inputs": [],
      "name": "getFeedNames",
      "outputs": [
        {
          "internalType": "string[]",
          "name": "",
          "type": "string[]"
        }
      ],
      "stateMutability": "view",
      "type": "function"
    },
    {
      "inputs": [
        {
          "internalType": "string",
          "name": "",
          "type": "string"
        }
      ],
      "name": "lastUpdated",
      "outputs": [
        {
          "internalType": "uint256",
          "name": "",
          "type": "uint256"
        }
      ],
      "stateMutability": "view",
      "type": "function"
    },
    {
      "inputs": [
        {
          "internalType": "string",
          "name": "feedName",
          "type": "string"
        }
      ],
      "name": "latestRoundData",
      "outputs": [
        {
          "internalType": "uint64",
          "name": "id",
          "type": "uint64"
        },
        {
          "internalType": "int256",
          "name": "answer",
          "type": "int256"
        },
        {
          "internalType": "uint256",
          "name": "updatedAt",
          "type": "uint256"
        }
      ],
      "stateMutability": "view",
      "type": "function"
    },
    {
      "inputs": [],
      "name": "owner",
      "outputs": [
        {
          "internalType": "address",
          "name": "",
          "type": "address"
        }
      ],
      "stateMutability": "view",
      "type": "function"
    },
    {
      "inputs": [
        {
          "internalType": "string",
          "name": "",
          "type": "string"
        }
      ],
      "name": "prices",
      "outputs": [
        {
          "internalType": "int256",
          "name": "",
          "type": "int256"
        }
      ],
      "stateMutability": "view",
      "type": "function"
    },
    {
      "inputs": [
        {
          "internalType": "uint256",
          "name": "",
          "type": "uint256"
        }
      ],
      "name": "supportedFeeds",
      "outputs": [
        {
          "internalType": "string",
          "name": "",
          "type": "string"
        }
      ],
      "stateMutability": "view",
      "type": "function"
    },
    {
      "inputs": [
        {
          "internalType": "string",
          "name": "feedName",
          "type": "string"
        },
        {
          "internalType": "int256",
          "name": "newPrice",
          "type": "int256"
        }
      ],
      "name": "updatePrice",
      "outputs": [],
      "stateMutability": "nonpayable",
      "type": "function"
    }
  ],
  "bytecode": "0x60806040523461022957600480546001600160a01b03191633179055600354680100000000000000008110156101e65780600161003f920160035561022e565b6101d05761004d815461025f565b601f81116101fc575b507f4b4c41592d5553445400000000000000000000000000000000000000000000129055600354680100000000000000008110156101e65780600161009e920160035561022e565b6101d0576100ac815461025f565b601f81116101a3575b506010671554d1150b5554d160c21b0190556301312d0060296040516812d310564b5554d11560ba1b81526000600982015220556305f5e1006028604051671554d1150b5554d160c21b815260006008820152205560296040516812d310564b5554d11560ba1b81526001600982015220600860ff198254161790556028604051671554d1150b5554d160c21b81526001600882015220600860ff198254161790556040516812d310564b5554d11560ba1b815260026009820152602942912055604051671554d1150b5554d160c21b815260026008820152602842912055604051610918908161029a8239f35b81600052601f6020600020910160051c8101905b8181106101c457506100b5565b600081556001016101b7565b634e487b7160e01b600052600060045260246000fd5b634e487b7160e01b600052604160045260246000fd5b81600052601f6020600020910160051c8101905b81811061021d5750610056565b60008155600101610210565b600080fd5b60035481101561024957600360005260206000200190600090565b634e487b7160e01b600052603260045260246000fd5b90600182811c9216801561028f575b602083101461027957565b634e487b7160e01b600052602260045260246000fd5b91607f169161026e56fe6080604052600436101561001257600080fd5b60003560e01c8063233af1b01461063f5780632a632795146105a757806333f98c77146105005780633b2b3204146104ce578063597095ed146104815780638da5cb5b14610458578063c3825f4b146103fb578063c69f51a8146101ff578063c8a84d941461019a5763fad56f3f1461008a57600080fd5b346101955760003660031901126101955760035467ffffffffffffffff811161017f57604051906100c160208260051b0183610689565b80825260208201908160036000527fc2575a0e9e593c00f959f8c92f12db2869c3395a3b0502d05e2516446f71f85b6000915b83831061016257848660405191829160208301906020845251809152604083019060408160051b85010192916000905b82821061013357505050500390f35b919360019193955060206101528192603f198a82030186528851610885565b9601920192018594939192610124565b600160208192610171856107e1565b8152019201920191906100f4565b634e487b7160e01b600052604160045260246000fd5b600080fd5b3461019557602036600319011261019557600435600354811015610195576101c190610776565b6101e9576101d16101e5916107e1565b604051918291602083526020830190610885565b0390f35b634e487b7160e01b600052600060045260246000fd5b346101955760603660031901126101955760043567ffffffffffffffff8111610195576102309036906004016106ab565b60443560ff8116809103610195576102b89061025760018060a01b036004541633146108aa565b60405190835191602085019261026e818386610702565b810190600082526020816024359303019020556040516020818651610294818388610702565b810160018152030190209060ff198254161790556040519182918451928391610702565b81019060028252602081429303019020556003546801000000000000000081101561017f578060016102ed9201600355610776565b6101e957815167ffffffffffffffff811161017f5761030c82546107a7565b601f81116103b3575b50602092601f82116001146103535792819293600092610348575b5050600019600383901b1c191660019190911b179055005b015190508380610330565b601f1982169383600052806000209160005b86811061039b5750836001959610610382575b505050811b019055005b015160001960f88460031b161c19169055838080610378565b91926020600181928685015181550194019201610365565b826000526020600020601f830160051c810191602084106103f1575b601f0160051c01905b8181106103e55750610315565b600081556001016103d8565b90915081906103cf565b346101955760203660031901126101955760043567ffffffffffffffff8111610195576104456020610432819336906004016106ab565b8160405193828580945193849201610702565b8101600081520301902054604051908152f35b34610195576000366003190112610195576004546040516001600160a01b039091168152602090f35b346101955760203660031901126101955760043567ffffffffffffffff81116101955760ff6104ba6020610432819436906004016106ab565b810160018152030190205416604051908152f35b3461019557602060ff816104e136610725565b9190826040519384928337810160018152030190205416604051908152f35b346101955761050e36610725565b90604051828282376020818481016000815203019020541561056d576060916020604051828482378181848101600081520301902054928260405193849283378101600281520301902054604051916001835260208301526040820152f35b60405162461bcd60e51b815260206004820152601260248201527146656564206e6f7420617661696c61626c6560701b6044820152606490fd5b346101955760403660031901126101955760043567ffffffffffffffff8111610195576105d89036906004016106ab565b6105ed60018060a01b036004541633146108aa565b604051908051916020820192610604818386610702565b8101906000825260208160243593030190205561062960405192839251928391610702565b8101906002825260208142930301902055600080f35b346101955760203660031901126101955760043567ffffffffffffffff8111610195576106766020610432819336906004016106ab565b8101600281520301902054604051908152f35b90601f8019910116810190811067ffffffffffffffff82111761017f57604052565b81601f820112156101955780359067ffffffffffffffff821161017f57604051926106e0601f8401601f191660200185610689565b8284526020838301011161019557816000926020809301838601378301015290565b60005b8381106107155750506000910152565b8181015183820152602001610705565b9060206003198301126101955760043567ffffffffffffffff811161019557826023820112156101955780600401359267ffffffffffffffff84116101955760248483010111610195576024019190565b60035481101561079157600360005260206000200190600090565b634e487b7160e01b600052603260045260246000fd5b90600182811c921680156107d7575b60208310146107c157565b634e487b7160e01b600052602260045260246000fd5b91607f16916107b6565b90604051918260008254926107f5846107a7565b8084529360018116908115610863575060011461081c575b5061081a92500383610689565b565b90506000929192526020600020906000915b81831061084757505090602061081a928201013861080d565b602091935080600191548385890101520191019091849261082e565b90506020925061081a94915060ff191682840152151560051b8201013861080d565b9060209161089e81518092818552858086019101610702565b601f01601f1916010190565b156108b157565b60405162461bcd60e51b81526020600482015260096024820152682737ba1037bbb732b960b91b6044820152606490fdfea26469706673582212208ab84c50b6f4733c65cdd5fcb55532eb785361f196a7803259f24b08f49dff8264736f6c634300081c0033",
  "linkReferences": {},
  "deployedLinkReferences": {}
}