{
  "_format": "hh-sol-artifact-1",
  "contractName": "LendingProtocol",
  "sourceName": "contracts/lendborrow.sol",
  "abi": [
    {
      "inputs": [
        {
          "internalType": "address",
          "name": "_kaia",
          "type": "address"
        },
        {
          "internalType": "address",
          "name": "_usdt",
          "type": "address"
        },
        {
          "internalType": "address",
          "name": "_usdy",
          "type": "address"
        },
        {
          "internalType": "address",
          "name": "_kkaia",
          "type": "address"
        },
        {
          "internalType": "address",
          "name": "_kusdt",
          "type": "address"
        },
        {
          "internalType": "address",
          "name": "_feedRouter",
          "type": "address"
        },
        {
          "internalType": "address",
          "name": "_initialOwner",
          "type": "address"
        }
      ],
      "stateMutability": "nonpayable",
      "type": "constructor"
    },
    {
      "inputs": [],
      "name": "InvalidPriceData",
      "type": "error"
    },
    {
      "inputs": [],
      "name": "OraclePriceFeedError",
      "type": "error"
    },
    {
      "inputs": [
        {
          "internalType": "address",
          "name": "owner",
          "type": "address"
        }
      ],
      "name": "OwnableInvalidOwner",
      "type": "error"
    },
    {
      "inputs": [
        {
          "internalType": "address",
          "name": "account",
          "type": "address"
        }
      ],
      "name": "OwnableUnauthorizedAccount",
      "type": "error"
    },
    {
      "inputs": [],
      "name": "ReentrancyGuardReentrantCall",
      "type": "error"
    },
    {
      "inputs": [],
      "name": "StalePriceData",
      "type": "error"
    },
    {
      "anonymous": false,
      "inputs": [
        {
          "indexed": true,
          "internalType": "address",
          "name": "user",
          "type": "address"
        },
        {
          "indexed": true,
          "internalType": "address",
          "name": "token",
          "type": "address"
        },
        {
          "indexed": false,
          "internalType": "uint256",
          "name": "amount",
          "type": "uint256"
        }
      ],
      "name": "Borrow",
      "type": "event"
    },
    {
      "anonymous": false,
      "inputs": [
        {
          "indexed": true,
          "internalType": "address",
          "name": "user",
          "type": "address"
        },
        {
          "indexed": false,
          "internalType": "uint256",
          "name": "amount",
          "type": "uint256"
        }
      ],
      "name": "CollateralDeposited",
      "type": "event"
    },
    {
      "anonymous": false,
      "inputs": [
        {
          "indexed": true,
          "internalType": "address",
          "name": "user",
          "type": "address"
        },
        {
          "indexed": false,
          "internalType": "uint256",
          "name": "amount",
          "type": "uint256"
        }
      ],
      "name": "CollateralWithdrawn",
      "type": "event"
    },
    {
      "anonymous": false,
      "inputs": [
        {
          "indexed": true,
          "internalType": "address",
          "name": "user",
          "type": "address"
        },
        {
          "indexed": true,
          "internalType": "address",
          "name": "token",
          "type": "address"
        },
        {
          "indexed": false,
          "internalType": "uint256",
          "name": "amount",
          "type": "uint256"
        },
        {
          "indexed": false,
          "internalType": "uint256",
          "name": "lpTokens",
          "type": "uint256"
        }
      ],
      "name": "Deposit",
      "type": "event"
    },
    {
      "anonymous": false,
      "inputs": [
        {
          "indexed": true,
          "internalType": "address",
          "name": "user",
          "type": "address"
        },
        {
          "indexed": true,
          "internalType": "address",
          "name": "token",
          "type": "address"
        },
        {
          "indexed": false,
          "internalType": "uint256",
          "name": "amount",
          "type": "uint256"
        }
      ],
      "name": "InterestRepaid",
      "type": "event"
    },
    {
      "anonymous": false,
      "inputs": [
        {
          "indexed": true,
          "internalType": "address",
          "name": "liquidator",
          "type": "address"
        },
        {
          "indexed": true,
          "internalType": "address",
          "name": "borrower",
          "type": "address"
        },
        {
          "indexed": false,
          "internalType": "uint256",
          "name": "repayAmount",
          "type": "uint256"
        },
        {
          "indexed": false,
          "internalType": "uint256",
          "name": "collateralSeized",
          "type": "uint256"
        }
      ],
      "name": "Liquidate",
      "type": "event"
    },
    {
      "anonymous": false,
      "inputs": [
        {
          "indexed": true,
          "internalType": "address",
          "name": "previousOwner",
          "type": "address"
        },
        {
          "indexed": true,
          "internalType": "address",
          "name": "newOwner",
          "type": "address"
        }
      ],
      "name": "OwnershipTransferred",
      "type": "event"
    },
    {
      "anonymous": false,
      "inputs": [
        {
          "indexed": true,
          "internalType": "address",
          "name": "user",
          "type": "address"
        },
        {
          "indexed": true,
          "internalType": "address",
          "name": "token",
          "type": "address"
        },
        {
          "indexed": false,
          "internalType": "uint256",
          "name": "amount",
          "type": "uint256"
        }
      ],
      "name": "PrincipalRepaid",
      "type": "event"
    },
    {
      "anonymous": false,
      "inputs": [
        {
          "indexed": true,
          "internalType": "address",
          "name": "user",
          "type": "address"
        },
        {
          "indexed": true,
          "internalType": "address",
          "name": "lpToken",
          "type": "address"
        },
        {
          "indexed": false,
          "internalType": "uint256",
          "name": "amount",
          "type": "uint256"
        },
        {
          "indexed": false,
          "internalType": "uint256",
          "name": "underlying",
          "type": "uint256"
        }
      ],
      "name": "Redeem",
      "type": "event"
    },
    {
      "anonymous": false,
      "inputs": [
        {
          "indexed": true,
          "internalType": "address",
          "name": "user",
          "type": "address"
        },
        {
          "indexed": true,
          "internalType": "address",
          "name": "token",
          "type": "address"
        },
        {
          "indexed": false,
          "internalType": "uint256",
          "name": "amount",
          "type": "uint256"
        }
      ],
      "name": "Repay",
      "type": "event"
    },
    {
      "inputs": [],
      "name": "KAIA",
      "outputs": [
        {
          "internalType": "address",
          "name": "",
          "type": "address"
        }
      ],
      "stateMutability": "view",
      "type": "function"
    },
    {
      "inputs": [],
      "name": "KAIA_FEED_NAME",
      "outputs": [
        {
          "internalType": "string",
          "name": "",
          "type": "string"
        }
      ],
      "stateMutability": "view",
      "type": "function"
    },
    {
      "inputs": [],
      "name": "USDT",
      "outputs": [
        {
          "internalType": "address",
          "name": "",
          "type": "address"
        }
      ],
      "stateMutability": "view",
      "type": "function"
    },
    {
      "inputs": [],
      "name": "USDY",
      "outputs": [
        {
          "internalType": "address",
          "name": "",
          "type": "address"
        }
      ],
      "stateMutability": "view",
      "type": "function"
    },
    {
      "inputs": [
        {
          "internalType": "address",
          "name": "",
          "type": "address"
        },
        {
          "internalType": "address",
          "name": "",
          "type": "address"
        }
      ],
      "name": "accruedInterest",
      "outputs": [
        {
          "internalType": "uint256",
          "name": "",
          "type": "uint256"
        }
      ],
      "stateMutability": "view",
      "type": "function"
    },
    {
      "inputs": [
        {
          "internalType": "address",
          "name": "token",
          "type": "address"
        },
        {
          "internalType": "uint256",
          "name": "amount",
          "type": "uint256"
        }
      ],
      "name": "borrow",
      "outputs": [],
      "stateMutability": "nonpayable",
      "type": "function"
    },
    {
      "inputs": [
        {
          "internalType": "address",
          "name": "",
          "type": "address"
        }
      ],
      "name": "collateralBalance",
      "outputs": [
        {
          "internalType": "uint256",
          "name": "",
          "type": "uint256"
        }
      ],
      "stateMutability": "view",
      "type": "function"
    },
    {
      "inputs": [
        {
          "internalType": "address",
          "name": "",
          "type": "address"
        },
        {
          "internalType": "address",
          "name": "",
          "type": "address"
        }
      ],
      "name": "debtBalance",
      "outputs": [
        {
          "internalType": "uint256",
          "name": "",
          "type": "uint256"
        }
      ],
      "stateMutability": "view",
      "type": "function"
    },
    {
      "inputs": [
        {
          "internalType": "address",
          "name": "token",
          "type": "address"
        },
        {
          "internalType": "uint256",
          "name": "amount",
          "type": "uint256"
        }
      ],
      "name": "deposit",
      "outputs": [],
      "stateMutability": "nonpayable",
      "type": "function"
    },
    {
      "inputs": [
        {
          "internalType": "uint256",
          "name": "amount",
          "type": "uint256"
        }
      ],
      "name": "depositCollateral",
      "outputs": [],
      "stateMutability": "nonpayable",
      "type": "function"
    },
    {
      "inputs": [
        {
          "internalType": "address",
          "name": "token",
          "type": "address"
        },
        {
          "internalType": "uint256",
          "name": "amount",
          "type": "uint256"
        }
      ],
      "name": "emergencyWithdraw",
      "outputs": [],
      "stateMutability": "nonpayable",
      "type": "function"
    },
    {
      "inputs": [],
      "name": "feedRouter",
      "outputs": [
        {
          "internalType": "contract IFeedRouter",
          "name": "",
          "type": "address"
        }
      ],
      "stateMutability": "view",
      "type": "function"
    },
    {
      "inputs": [
        {
          "internalType": "address",
          "name": "borrower",
          "type": "address"
        },
        {
          "internalType": "address",
          "name": "token",
          "type": "address"
        }
      ],
      "name": "getDebtBreakdown",
      "outputs": [
        {
          "internalType": "uint256",
          "name": "principal",
          "type": "uint256"
        },
        {
          "internalType": "uint256",
          "name": "accrued",
          "type": "uint256"
        },
        {
          "internalType": "uint256",
          "name": "total",
          "type": "uint256"
        },
        {
          "internalType": "uint256",
          "name": "currentInterestRate",
          "type": "uint256"
        }
      ],
      "stateMutability": "view",
      "type": "function"
    },
    {
      "inputs": [
        {
          "internalType": "address",
          "name": "borrower",
          "type": "address"
        },
        {
          "internalType": "address",
          "name": "token",
          "type": "address"
        }
      ],
      "name": "getInterestPaymentInfo",
      "outputs": [
        {
          "internalType": "bool",
          "name": "canPayInterest",
          "type": "bool"
        },
        {
          "internalType": "uint256",
          "name": "minInterestPayment",
          "type": "uint256"
        },
        {
          "internalType": "uint256",
          "name": "totalInterestOwed",
          "type": "uint256"
        }
      ],
      "stateMutability": "view",
      "type": "function"
    },
    {
      "inputs": [],
      "name": "getKaiaPrice",
      "outputs": [
        {
          "internalType": "uint256",
          "name": "",
          "type": "uint256"
        }
      ],
      "stateMutability": "pure",
      "type": "function"
    },
    {
      "inputs": [
        {
          "internalType": "address",
          "name": "borrower",
          "type": "address"
        }
      ],
      "name": "getLTV",
      "outputs": [
        {
          "internalType": "uint256",
          "name": "",
          "type": "uint256"
        }
      ],
      "stateMutability": "view",
      "type": "function"
    },
    {
      "inputs": [
        {
          "internalType": "address",
          "name": "lpToken",
          "type": "address"
        }
      ],
      "name": "getLpPrice",
      "outputs": [
        {
          "internalType": "uint256",
          "name": "",
          "type": "uint256"
        }
      ],
      "stateMutability": "view",
      "type": "function"
    },
    {
      "inputs": [
        {
          "internalType": "address",
          "name": "token",
          "type": "address"
        }
      ],
      "name": "getTokenDecimals",
      "outputs": [
        {
          "internalType": "uint8",
          "name": "",
          "type": "uint8"
        }
      ],
      "stateMutability": "view",
      "type": "function"
    },
    {
      "inputs": [
        {
          "internalType": "address",
          "name": "token",
          "type": "address"
        }
      ],
      "name": "getTokenName",
      "outputs": [
        {
          "internalType": "string",
          "name": "",
          "type": "string"
        }
      ],
      "stateMutability": "view",
      "type": "function"
    },
    {
      "inputs": [
        {
          "internalType": "address",
          "name": "token",
          "type": "address"
        }
      ],
      "name": "getTokenSymbol",
      "outputs": [
        {
          "internalType": "string",
          "name": "",
          "type": "string"
        }
      ],
      "stateMutability": "view",
      "type": "function"
    },
    {
      "inputs": [
        {
          "internalType": "address",
          "name": "borrower",
          "type": "address"
        }
      ],
      "name": "getTotalAccruedInterest",
      "outputs": [
        {
          "internalType": "uint256",
          "name": "totalInterestUSD",
          "type": "uint256"
        }
      ],
      "stateMutability": "view",
      "type": "function"
    },
    {
      "inputs": [],
      "name": "getUsdtPrice",
      "outputs": [
        {
          "internalType": "uint256",
          "name": "",
          "type": "uint256"
        }
      ],
      "stateMutability": "pure",
      "type": "function"
    },
    {
      "inputs": [
        {
          "internalType": "address",
          "name": "borrower",
          "type": "address"
        }
      ],
      "name": "isLiquidatable",
      "outputs": [
        {
          "internalType": "bool",
          "name": "",
          "type": "bool"
        }
      ],
      "stateMutability": "view",
      "type": "function"
    },
    {
      "inputs": [],
      "name": "kKAIA",
      "outputs": [
        {
          "internalType": "address",
          "name": "",
          "type": "address"
        }
      ],
      "stateMutability": "view",
      "type": "function"
    },
    {
      "inputs": [],
      "name": "kUSDT",
      "outputs": [
        {
          "internalType": "address",
          "name": "",
          "type": "address"
        }
      ],
      "stateMutability": "view",
      "type": "function"
    },
    {
      "inputs": [
        {
          "internalType": "address",
          "name": "",
          "type": "address"
        }
      ],
      "name": "lastInterestUpdate",
      "outputs": [
        {
          "internalType": "uint256",
          "name": "",
          "type": "uint256"
        }
      ],
      "stateMutability": "view",
      "type": "function"
    },
    {
      "inputs": [
        {
          "internalType": "address",
          "name": "borrower",
          "type": "address"
        },
        {
          "internalType": "uint256",
          "name": "repayAmount",
          "type": "uint256"
        }
      ],
      "name": "liquidate",
      "outputs": [],
      "stateMutability": "nonpayable",
      "type": "function"
    },
    {
      "inputs": [],
      "name": "owner",
      "outputs": [
        {
          "internalType": "address",
          "name": "",
          "type": "address"
        }
      ],
      "stateMutability": "view",
      "type": "function"
    },
    {
      "inputs": [
        {
          "internalType": "address",
          "name": "",
          "type": "address"
        },
        {
          "internalType": "address",
          "name": "",
          "type": "address"
        }
      ],
      "name": "principalBalance",
      "outputs": [
        {
          "internalType": "uint256",
          "name": "",
          "type": "uint256"
        }
      ],
      "stateMutability": "view",
      "type": "function"
    },
    {
      "inputs": [
        {
          "internalType": "address",
          "name": "lpToken",
          "type": "address"
        },
        {
          "internalType": "uint256",
          "name": "amount",
          "type": "uint256"
        }
      ],
      "name": "redeem",
      "outputs": [],
      "stateMutability": "nonpayable",
      "type": "function"
    },
    {
      "inputs": [],
      "name": "renounceOwnership",
      "outputs": [],
      "stateMutability": "nonpayable",
      "type": "function"
    },
    {
      "inputs": [
        {
          "internalType": "address",
          "name": "token",
          "type": "address"
        },
        {
          "internalType": "uint256",
          "name": "amount",
          "type": "uint256"
        }
      ],
      "name": "repay",
      "outputs": [],
      "stateMutability": "nonpayable",
      "type": "function"
    },
    {
      "inputs": [
        {
          "internalType": "address",
          "name": "token",
          "type": "address"
        },
        {
          "internalType": "uint256",
          "name": "amount",
          "type": "uint256"
        }
      ],
      "name": "repayInterest",
      "outputs": [],
      "stateMutability": "nonpayable",
      "type": "function"
    },
    {
      "inputs": [
        {
          "internalType": "address",
          "name": "token",
          "type": "address"
        },
        {
          "internalType": "uint256",
          "name": "amount",
          "type": "uint256"
        }
      ],
      "name": "repayPrincipal",
      "outputs": [],
      "stateMutability": "nonpayable",
      "type": "function"
    },
    {
      "inputs": [
        {
          "internalType": "address",
          "name": "newOwner",
          "type": "address"
        }
      ],
      "name": "transferOwnership",
      "outputs": [],
      "stateMutability": "nonpayable",
      "type": "function"
    },
    {
      "inputs": [
        {
          "internalType": "address",
          "name": "token",
          "type": "address"
        },
        {
          "internalType": "uint256",
          "name": "newPrice",
          "type": "uint256"
        }
      ],
      "name": "updateTokenPrice",
      "outputs": [],
      "stateMutability": "nonpayable",
      "type": "function"
    },
    {
      "inputs": [
        {
          "internalType": "uint256",
          "name": "amount",
          "type": "uint256"
        }
      ],
      "name": "withdrawCollateral",
      "outputs": [],
      "stateMutability": "nonpayable",
      "type": "function"
    }
  ],
  "bytecode": "0x6101403461024657601f612dc038819003918201601f19168301916001600160401b0383118484101761024b5780849260e0946040528339810103126102465761004881610261565b9061005560208201610261565b61006160408301610261565b61006d60608401610261565b9061007a60808501610261565b9261009360c061008c60a08801610261565b9601610261565b60016000556001600160a01b031695861561023057600180546001600160a01b03198116891790915560405197906001600160a01b03167f8be0079c531659141344cd1fd0a4f28419497f9722a3daafe3b4186f6b6457e0600080a360805260a05260c05260e052610100526001600160a01b031661012052612b4a908161027682396080518181816101e8015281816107a3015281816111a7015281816112e601528181611349015281816115c5015281816118a401528181611afe01528181611e5d0152818161258101528181612811015281816129570152612a8e015260a0518181816103bc015281816105fe01528181610aa4015281816112090152818161156101528181611777015281816119d501528181611c9c0152818161201e015281816125d30152818161285a01528181612890015281816129af0152612acc015260c05181818161096a01528181610b910152818161109d0152611df9015260e05181818161043d0152818161160c0152611a7d01526101005181818161174f01528181611a1a0152611d6f01526101205181611db40152f35b631e4fbdf760e01b600052600060045260246000fd5b600080fd5b634e487b7160e01b600052604160045260246000fd5b51906001600160a01b03821682036102465756fe6080604052600436101561001257600080fd5b6000803560e01c8063042e02cf1461204d5780631831f0c714611e285780631968506714611de35780631b995c4b14611d9e5780631e9a695014611a4957806320db3fe714611a0457806322867d781461186f578063276328a7146117a657806347e7ef24146115905780634b8a3529146113155780634ed415dc146112d0578063596999b21461116e5780636112fe2e14610ff957806368c923eb14610fb45780636f0fccab14610f5c578063715018a614610eff578063785c7cf614610e6557806381a73ad514610de557806389a87ee814610dc15780638da5cb5b14610d9857806395ccea6714610cf7578063961bdfbf14610cd4578063a1bf284014610c9b578063aca25f9a14610c6f578063ad8f240e14610c1a578063bad4a01f14610b0e578063bcbaf48714610734578063c53622e01461062d578063c54e44eb146105e8578063d4ee651b146105c2578063d6c4f32c1461056d578063d9f41b6814610518578063f2fde38b1461048f578063f33705ea1461046c578063f430238414610427578063fade3496146103ee5763fc60fb5d146101b457600080fd5b346103eb5760403660031901126103eb576101cd612087565b602435906101d9612521565b6001600160a01b0390811691907f000000000000000000000000000000000000000000000000000000000000000016821480156103b9575b61021a90612163565b610225811515612210565b61022e33612543565b3383526004602052604083208260005260205260406000205490811561037c578181111561037557505b3383526004602052604083208260005260205261027a816040600020546121eb565b33845260046020526040842083600052602052604060002055338352600360205260408320826000526020526102b5816040600020546121eb565b3380855260036020908152604080872060008781529083528190209390935591516323b872dd60e01b8152600481019190915230602482015260448101839052908160648187875af1801561036a5761033d575b506040519081527f23edcbb456c071fd5472bd2ab7e6c565493add0e664dc2c619f6d53225d33d6660203392a36001815580f35b61035e9060203d602011610363575b61035681836120b3565b8101906121f8565b610309565b503d61034c565b6040513d86823e3d90fd5b9050610258565b60405162461bcd60e51b81526020600482015260156024820152744e6f207072696e636970616c20746f20726570617960581b6044820152606490fd5b507f00000000000000000000000000000000000000000000000000000000000000006001600160a01b03168214610211565b80fd5b50346103eb5760203660031901126103eb576020906040906001600160a01b03610416612087565b168152600683522054604051908152f35b50346103eb57806003193601126103eb576040517f00000000000000000000000000000000000000000000000000000000000000006001600160a01b03168152602090f35b50346103eb57806003193601126103eb576020604051670214e8348c4f00008152f35b50346103eb5760203660031901126103eb576104a9612087565b6104b1612a47565b6001600160a01b0316801561050457600180546001600160a01b0319811683179091556001600160a01b03167f8be0079c531659141344cd1fd0a4f28419497f9722a3daafe3b4186f6b6457e08380a380f35b631e4fbdf760e01b82526004829052602482fd5b50346103eb5760403660031901126103eb576040610534612087565b9161053d61209d565b9260018060a01b031681526004602052209060018060a01b03166000526020526020604060002054604051908152f35b50346103eb5760403660031901126103eb576040610589612087565b9161059261209d565b9260018060a01b031681526005602052209060018060a01b03166000526020526020604060002054604051908152f35b50346103eb5760403660031901126103eb576105dc612087565b506105e5612a47565b80f35b50346103eb57806003193601126103eb576040517f00000000000000000000000000000000000000000000000000000000000000006001600160a01b03168152602090f35b50346103eb5760403660031901126103eb57610647612087565b61064f61209d565b6001600160a01b039182168084526004602090815260408086209490931660008181529482528385205483875260058352848720918652908252938390205491855260069052908320549092908015158061072b575b6106d2575b608083856106b881836122f7565b906040519283526020830152604082015260056060820152f35b6106dc90426121eb565b906005830290838204600514841517156107175750926301e1338060646107086107109460809761213a565b0404906122f7565b91386106aa565b634e487b7160e01b81526011600452602490fd5b508215156106a5565b50346103eb5760403660031901126103eb5761074e612087565b6024359061075a612521565b6804563918244f40000061076d82612489565b1115610ac95761077e82151561219f565b61078781612543565b6001600160a01b039081168084526003602090815260408086207f0000000000000000000000000000000000000000000000000000000000000000948516600090815292529020549092919015610aa157905b82845260036020526040842060018060a01b03831660005260205260406000205490610807821515612296565b81811115610a9b575080915b61081d8382612949565b606e810290808204606e1490151715610a875783670de0b6b3a764000060646108b593040493868852600260205261085b8560408a20541015612304565b868852600560209081526040808a206001600160a01b0387166000908152925290205482818111610a155761088f916121eb565b87895260056020526040892060018060a01b0386166000526020526040600020556121eb565b84865260036020526040862060018060a01b03831660005260205260406000205583855260026020526108ec8260408720546121eb565b8486526002602090815260408088209290925590516323b872dd60e01b815233600482015230602482015260448101859052918290606490829089906001600160a01b03165af180156109ed576109f8575b5060405163a9059cbb60e01b815233600482015260248101829052602081604481886001600160a01b037f0000000000000000000000000000000000000000000000000000000000000000165af180156109ed576109d0575b5060405191825260208201527ff3fa0eaee8f258c23b013654df25d1527f98a5c7ccd5e951dd77caca400ef97260403392a36001815580f35b6109e89060203d6020116103635761035681836120b3565b610997565b6040513d87823e3d90fd5b610a109060203d6020116103635761035681836120b3565b61093e565b610a6191610a22916121eb565b888a52600560209081526040808c206001600160a01b03891660008181529184528282208e90558c8e5260048452828e209082529092529020546121eb565b87895260046020526040892060018060a01b0386166000526020526040600020556121eb565b634e487b7160e01b86526011600452602486fd5b91610813565b507f0000000000000000000000000000000000000000000000000000000000000000906107da565b60405162461bcd60e51b815260206004820152601c60248201527f506f736974696f6e206973206e6f74206c6971756964617461626c65000000006044820152606490fd5b50346103eb5760203660031901126103eb57600435610b2b612521565b610b36811515612210565b3382526002602052610b4c8160408420546122f7565b338084526002602090815260408086209390935591516323b872dd60e01b81526004810191909152306024820152604481018390529081606481866001600160a01b037f0000000000000000000000000000000000000000000000000000000000000000165af18015610c0f57610bf2575b506040519081527fd7243f6f8212d5188fd054141cf6ea89cfc0d91facb8c3afe2f88a135848014260203392a26001815580f35b610c0a9060203d6020116103635761035681836120b3565b610bbe565b6040513d85823e3d90fd5b50346103eb5760403660031901126103eb576040610c36612087565b91610c3f61209d565b9260018060a01b031681526003602052209060018060a01b03166000526020526020604060002054604051908152f35b50346103eb5760203660031901126103eb576020610c93610c8e612087565b612489565b604051908152f35b50346103eb5760203660031901126103eb576020906040906001600160a01b03610cc3612087565b168152600283522054604051908152f35b50346103eb57806003193601126103eb576020604051670de0b6b3a76400008152f35b50346103eb5760403660031901126103eb57806020610d56610d17612087565b610d1f612a47565b60015460405163a9059cbb60e01b81526001600160a01b039091166004820152602480359082015293849283919082906044820190565b03926001600160a01b03165af18015610d8d57610d71575080f35b610d899060203d6020116103635761035681836120b3565b5080f35b6040513d84823e3d90fd5b50346103eb57806003193601126103eb576001546040516001600160a01b039091168152602090f35b50346103eb5760203660031901126103eb576020610c93610de0612087565b6123e2565b50346103eb5760203660031901126103eb576004816001600160a01b03610e0a612087565b16604051928380926395d89b4160e01b82525afa908115610d8d5782610e3e9392610e42575b50506040519182918261210e565b0390f35b610e5e92503d8091833e610e5681836120b3565b810190612350565b3880610e30565b50346103eb5760203660031901126103eb57600460206001600160a01b03610e8b612087565b166040519283809263313ce56760e01b82525afa908115610d8d578291610ebb575b60208260ff60405191168152f35b90506020813d602011610ef7575b81610ed6602093836120b3565b81010312610ef3575160ff81168103610ef3576020915038610ead565b5080fd5b3d9150610ec9565b50346103eb57806003193601126103eb57610f18612a47565b600180546001600160a01b0319811690915581906001600160a01b03167f8be0079c531659141344cd1fd0a4f28419497f9722a3daafe3b4186f6b6457e08280a380f35b50346103eb5760203660031901126103eb576004816001600160a01b03610f81612087565b16604051928380926306fdde0360e01b82525afa908115610d8d5782610e3e9392610e425750506040519182918261210e565b50346103eb57806003193601126103eb5750610e3e604051610fd76040826120b3565b600981526812d310564b5554d11560ba1b60208201526040519182918261210e565b50346103eb5760203660031901126103eb57600435611016612521565b611021811515612210565b33825260026020526110398160408420541015612304565b338252600260205261104f8160408420546121eb565b6110598133612a11565b1561111b573380845260026020908152604080862093909355915163a9059cbb60e01b81526004810191909152602481018390529081604481866001600160a01b037f0000000000000000000000000000000000000000000000000000000000000000165af18015610c0f576110fe575b506040519081527fc30fcfbcaac9e0deffa719714eaa82396ff506a0d0d0eebe170830177288715d60203392a26001815580f35b6111169060203d6020116103635761035681836120b3565b6110ca565b60405162461bcd60e51b815260206004820152602560248201527f5769746864726177616c20776f756c64206d616b6520706f736974696f6e20756044820152646e7361666560d81b6064820152608490fd5b50346103eb5760203660031901126103eb57611188612087565b604051630629b11760e51b81526001600160a01b0382811660048301527f0000000000000000000000000000000000000000000000000000000000000000908116602483015290608081604481305afa801561036a5761123f9185916112ad575b50604051630629b11760e51b81526001600160a01b0394851660048201527f0000000000000000000000000000000000000000000000000000000000000000948516602482015291608090839081906044820190565b0381305afa9182156109ed5791610c939493916112709360209792611276575b5061126a9192612949565b92612949565b906122f7565b61126a925061129c9060803d6080116112a6575b61129481836120b3565b8101906122d5565b505090509161125f565b503d61128a565b6112c6915060803d6080116112a65761129481836120b3565b50509050386111e9565b50346103eb57806003193601126103eb576040517f00000000000000000000000000000000000000000000000000000000000000006001600160a01b03168152602090f35b50346103eb5760403660031901126103eb5761132f612087565b60243561133a612521565b6001600160a01b0382811692907f0000000000000000000000000000000000000000000000000000000000000000168314801561155e575b61137b90612163565b611386821515612210565b6040516370a0823160e01b8152306004820152602081602481875afa80156109ed5783908690611523575b6113bd92501015612251565b6113c633612543565b338452600360205260408420836000526020526113f36113eb836040600020546122f7565b8092336127b7565b156114de573384526003602052604084208360005260205260406000205533835260046020526040832082600052602052611433816040600020546122f7565b3380855260046020818152604080882060008881529083528190209490945582875260068152838720429055925163a9059cbb60e01b81529081019190915260248101839052908160448187875af1801561036a576114c1575b506040519081527f312a5e5e1079f5dda4e95dbbd0b908b291fd5b992ef22073643ab691572c5b5260203392a36001815580f35b6114d99060203d6020116103635761035681836120b3565b61148d565b60405162461bcd60e51b815260206004820152601d60248201527f426f72726f7720776f756c6420657863656564204c5456206c696d69740000006044820152606490fd5b50506020813d602011611556575b8161153e602093836120b3565b8101031261155157826113bd91516113b1565b600080fd5b3d9150611531565b507f00000000000000000000000000000000000000000000000000000000000000006001600160a01b03168314611372565b50346103eb5760403660031901126103eb576115aa612087565b602435906115b6612521565b6001600160a01b0390811691907f0000000000000000000000000000000000000000000000000000000000000000168214808015611774575b6115f890612163565b8115906116058215612210565b1561174d577f0000000000000000000000000000000000000000000000000000000000000000905b611636826123e2565b90670de0b6b3a7640000840290848204670de0b6b3a7640000141715610a87578591611661916123c2565b6040516323b872dd60e01b815233600482015230602482015260448101859052909290602081606481868a5af18015610c0f57611730575b506001600160a01b0316803b15610ef3576040516340c10f1960e01b8152336004820152602481018490529082908290604490829084905af18015610d8d57611717575b505060405191825260208201527fdcbc1c05240f31ff3ad067ef1ee35ce4997762752e3a095284754544f4c709d760403392a36001815580f35b81611721916120b3565b61172c5783386116dd565b8380fd5b6117489060203d6020116103635761035681836120b3565b611699565b7f00000000000000000000000000000000000000000000000000000000000000009061162d565b507f00000000000000000000000000000000000000000000000000000000000000006001600160a01b031683146115ef565b50346103eb5760403660031901126103eb576117fe9060806117c6612087565b6117ce61209d565b604051630629b11760e51b81526001600160a01b0392831660048201529116602482015292839081906044820190565b0381305afa801561186257606092829161183f575b50801580159290611837575060ff60015b6040519384521660208301526040820152f35b60ff90611824565b611858915060803d6080116112a65761129481836120b3565b5050905038611813565b50604051903d90823e3d90fd5b50346103eb5760403660031901126103eb57611889612087565b60243590611895612521565b6001600160a01b0390811691907f000000000000000000000000000000000000000000000000000000000000000016821480156119d2575b6118d690612163565b6118e1811515612210565b6118ea33612543565b338352600360205260408320826000526020526040600020549061190f821515612296565b818111156119c7575061192281806121eb565b3380855260036020908152604080872060008781529083528190209390935591516323b872dd60e01b8152600481019190915230602482015260448101839052908160648187875af1801561036a576119aa575b506040519081527f05f2eeda0e08e4b437f487c8d7d29b14537d15e3488170dc3de5dbdf8dac468460203392a36001815580f35b6119c29060203d6020116103635761035681836120b3565b611976565b6119229080926121eb565b507f00000000000000000000000000000000000000000000000000000000000000006001600160a01b031682146118cd565b50346103eb57806003193601126103eb576040517f00000000000000000000000000000000000000000000000000000000000000006001600160a01b03168152602090f35b50346103eb5760403660031901126103eb57611a63612087565b602435611a6e612521565b6001600160a01b0382811692907f0000000000000000000000000000000000000000000000000000000000000000168314808015611d6c575b15611d3457611ab7831515612210565b6040516370a0823160e01b8152336004820152602081602481885afa8015611c425784918791611cff575b5010611cc15715611c8b57670de0b6b3a7640000611b29611b237f0000000000000000000000000000000000000000000000000000000000000000936123e2565b8461213a565b6040516370a0823160e01b8152306004820152919004916001600160a01b031690602081602481855afa8015611c425783908790611c51575b611b6e92501015612251565b833b15611c4d57604051632770a7eb60e21b815233600482015260248101849052858160448183895af18015611c4257611c2e575b5060405163a9059cbb60e01b815233600482015260248101839052906020908290604490829089905af180156109ed57611c11575b5060405191825260208201527f3f693fff038bb8a046aa76d9516190ac7444f7d69cf952c4cbdc086fdef2d6fc60403392a36001815580f35b611c299060203d6020116103635761035681836120b3565b611bd8565b85611c3b919692966120b3565b9338611ba3565b6040513d88823e3d90fd5b8480fd5b50506020813d602011611c83575b81611c6c602093836120b3565b81010312611c7f5782611b6e9151611b62565b8580fd5b3d9150611c5f565b670de0b6b3a7640000611b29611b237f0000000000000000000000000000000000000000000000000000000000000000936123e2565b60405162461bcd60e51b8152602060048201526016602482015275496e73756666696369656e74204c5020746f6b656e7360501b6044820152606490fd5b9150506020813d602011611d2c575b81611d1b602093836120b3565b81010312611c7f5783905138611ae2565b3d9150611d0e565b60405162461bcd60e51b815260206004820152601060248201526f24b73b30b634b2102628103a37b5b2b760811b6044820152606490fd5b507f00000000000000000000000000000000000000000000000000000000000000006001600160a01b03168414611aa7565b50346103eb57806003193601126103eb576040517f00000000000000000000000000000000000000000000000000000000000000006001600160a01b03168152602090f35b50346103eb57806003193601126103eb576040517f00000000000000000000000000000000000000000000000000000000000000006001600160a01b03168152602090f35b50346103eb5760403660031901126103eb57611e42612087565b60243590611e4e612521565b6001600160a01b0390811691907f0000000000000000000000000000000000000000000000000000000000000000168214801561201b575b611e8f90612163565b611e9833612543565b3383526005602052604083208284526020526040832054908115611fd65780611fc157505b611ec881151561219f565b338352600560205260408320828452602052611ee88160408520546121eb565b3384526005602052604084208385526020526040842055338352600360205260408320828452602052611f1f8160408520546121eb565b3380855260036020908152604080872086885282528087209390935591516323b872dd60e01b8152600481019190915230602482015260448101839052908160648187875af1801561036a57611fa4575b506040519081527f069a90279602f248c34c0dd6b88ec53baefc5d4e74f7530ea5f814cee03dbd8760203392a36001815580f35b611fbc9060203d6020116103635761035681836120b3565b611f70565b81811115611fcf5750611ebd565b9050611ebd565b60405162461bcd60e51b815260206004820152601c60248201527f4e6f206163637275656420696e74657265737420746f207265706179000000006044820152606490fd5b507f00000000000000000000000000000000000000000000000000000000000000006001600160a01b03168214611e86565b50346103eb5760203660031901126103eb576804563918244f40000061207e602092612077612087565b9050612489565b11604051908152f35b600435906001600160a01b038216820361155157565b602435906001600160a01b038216820361155157565b90601f8019910116810190811067ffffffffffffffff8211176120d557604052565b634e487b7160e01b600052604160045260246000fd5b60005b8381106120fe5750506000910152565b81810151838201526020016120ee565b6040916020825261212e81518092816020860152602086860191016120eb565b601f01601f1916010190565b8181029291811591840414171561214d57565b634e487b7160e01b600052601160045260246000fd5b1561216a57565b60405162461bcd60e51b815260206004820152600d60248201526c24b73b30b634b2103a37b5b2b760991b6044820152606490fd5b156121a657565b60405162461bcd60e51b815260206004820152601860248201527f526570617920616d6f756e74206d757374206265203e203000000000000000006044820152606490fd5b9190820391821161214d57565b90816020910312611551575180151581036115515790565b1561221757565b60405162461bcd60e51b81526020600482015260126024820152710416d6f756e74206d757374206265203e20360741b6044820152606490fd5b1561225857565b60405162461bcd60e51b8152602060048201526016602482015275496e73756666696369656e74206c697175696469747960501b6044820152606490fd5b1561229d57565b60405162461bcd60e51b815260206004820152601060248201526f4e6f206465627420746f20726570617960801b6044820152606490fd5b9190826080910312611551578151916020810151916060604083015192015190565b9190820180921161214d57565b1561230b57565b60405162461bcd60e51b815260206004820152601760248201527f496e73756666696369656e7420636f6c6c61746572616c0000000000000000006044820152606490fd5b6020818303126115515780519067ffffffffffffffff8211611551570181601f8201121561155157805167ffffffffffffffff81116120d557604051926123a1601f8301601f1916602001856120b3565b81845260208284010111611551576123bf91602080850191016120eb565b90565b81156123cc570490565b634e487b7160e01b600052601260045260246000fd5b6040516318160ddd60e01b815290602090829060049082906001600160a01b03165afa90811561247d5760009161244b575b508064e8d4a51000029064e8d4a5100082040361214d57670de0b6b3a76400009004670de0b6b3a7640000810180911161214d5790565b906020823d602011612475575b81612465602093836120b3565b810103126103eb57505138612414565b3d9150612458565b6040513d6000823e3d90fd5b60018060a01b0381166000526002602052604060002054670de0b6b3a7640000810290808204670de0b6b3a7640000149015171561214d57670de0b6b3a7640000900490811561251a576124dc90612a70565b9060648202918083046064148115171561214d5768056bc75e2d631000000291808304670de0b6b3a7640000149015171561214d576123bf916123c2565b5050600090565b600260005414612532576002600055565b633ee5aeb560e01b60005260046000fd5b6001600160a01b031660008181526006602052604090205480156127a55761256b90426121eb565b80156127a15781600052600460205260406000207f00000000000000000000000000000000000000000000000000000000000000009060018060a01b038216600052602052604060002054801580156126e4575b5050508160005260046020526040600020907f00000000000000000000000000000000000000000000000000000000000000009160018060a01b03831660005260205260406000205480158015612626575b50505050600052600660205242604060002055565b60058202918204600514171561214d57606461264a6126b7936301e133809361213a565b0404836000526005602052604060002060018060a01b038416600052602052612678816040600020546122f7565b60008581526005602090815260408083206001600160a01b038816808552908352818420949094558783526003825280832093835292905220546122f7565b9082600052600360205260406000209060018060a01b031660005260205260406000205538808080612611565b60058202918204600514171561214d576301e133806064612708856127759461213a565b0404846000526005602052604060002060018060a01b038416600052602052612736816040600020546122f7565b60008681526005602090815260408083206001600160a01b038816808552908352818420949094558883526003825280832093835292905220546122f7565b9083600052600360205260406000209060018060a01b03166000526020526040600020553880806125bf565b5050565b50600052600660205242604060002055565b60018060a01b031690816000526002602052604060002054670de0b6b3a7640000810290808204670de0b6b3a7640000149015171561214d57670de0b6b3a76400009004926128b592611270916001600160a01b038481167f0000000000000000000000000000000000000000000000000000000000000000918216149261126a9291906000851561292657506000526003602052604060002060018060a01b037f000000000000000000000000000000000000000000000000000000000000000016600052602052604060002054935b1561292057507f000000000000000000000000000000000000000000000000000000000000000094612949565b811580612917575b61251a57801561291057606481029080820460640361214d5768056bc75e2d631000000290808204670de0b6b3a7640000149015171561214d576804563918244f4000009161290b916123c2565b111590565b5050600190565b508015156128bd565b94612949565b6040918152600360205281812060018060a01b0384168252602052205493612888565b6001600160a01b03908116907f00000000000000000000000000000000000000000000000000000000000000001681036129ad5750670214e8348c4f0000810290808204670214e8348c4f0000149015171561214d57670de0b6b3a7640000900490565b7f00000000000000000000000000000000000000000000000000000000000000006001600160a01b0316146129e25750600090565b670de0b6b3a7640000810290808204670de0b6b3a7640000149015171561214d57670de0b6b3a7640000900490565b90670de0b6b3a7640000810290808204670de0b6b3a7640000149015171561214d57670de0b6b3a76400006128b5910491612a70565b6001546001600160a01b03163303612a5b57565b63118cdaa760e01b6000523360045260246000fd5b6001600160a01b0390811660008181526003602090815260408083207f000000000000000000000000000000000000000000000000000000000000000095861684529091529020546123bf9261127091612ac991612949565b917f0000000000000000000000000000000000000000000000000000000000000000906000526003602052604060002060018060a01b0382166000526020526040600020549061294956fea2646970667358221220a8e8a9c076e2a46b93a0359ed71e9cfb8af226fbe4f236f78185af69eadaca8e64736f6c634300081c0033",
  "linkReferences": {},
  "deployedLinkReferences": {}
}