{
  "_format": "hh-sol-artifact-1",
  "contractName": "LPToken",
  "sourceName": "contracts/LPToken.sol",
  "abi": [
    {
      "inputs": [
        {
          "internalType": "string",
          "name": "name",
          "type": "string"
        },
        {
          "internalType": "string",
          "name": "symbol",
          "type": "string"
        },
        {
          "internalType": "address",
          "name": "_lendingProtocol",
          "type": "address"
        },
        {
          "internalType": "address",
          "name": "_owner",
          "type": "address"
        }
      ],
      "stateMutability": "nonpayable",
      "type": "constructor"
    },
    {
      "inputs": [
        {
          "internalType": "address",
          "name": "spender",
          "type": "address"
        },
        {
          "internalType": "uint256",
          "name": "allowance",
          "type": "uint256"
        },
        {
          "internalType": "uint256",
          "name": "needed",
          "type": "uint256"
        }
      ],
      "name": "ERC20InsufficientAllowance",
      "type": "error"
    },
    {
      "inputs": [
        {
          "internalType": "address",
          "name": "sender",
          "type": "address"
        },
        {
          "internalType": "uint256",
          "name": "balance",
          "type": "uint256"
        },
        {
          "internalType": "uint256",
          "name": "needed",
          "type": "uint256"
        }
      ],
      "name": "ERC20InsufficientBalance",
      "type": "error"
    },
    {
      "inputs": [
        {
          "internalType": "address",
          "name": "approver",
          "type": "address"
        }
      ],
      "name": "ERC20InvalidApprover",
      "type": "error"
    },
    {
      "inputs": [
        {
          "internalType": "address",
          "name": "receiver",
          "type": "address"
        }
      ],
      "name": "ERC20InvalidReceiver",
      "type": "error"
    },
    {
      "inputs": [
        {
          "internalType": "address",
          "name": "sender",
          "type": "address"
        }
      ],
      "name": "ERC20InvalidSender",
      "type": "error"
    },
    {
      "inputs": [
        {
          "internalType": "address",
          "name": "spender",
          "type": "address"
        }
      ],
      "name": "ERC20InvalidSpender",
      "type": "error"
    },
    {
      "inputs": [
        {
          "internalType": "address",
          "name": "owner",
          "type": "address"
        }
      ],
      "name": "OwnableInvalidOwner",
      "type": "error"
    },
    {
      "inputs": [
        {
          "internalType": "address",
          "name": "account",
          "type": "address"
        }
      ],
      "name": "OwnableUnauthorizedAccount",
      "type": "error"
    },
    {
      "anonymous": false,
      "inputs": [
        {
          "indexed": true,
          "internalType": "address",
          "name": "owner",
          "type": "address"
        },
        {
          "indexed": true,
          "internalType": "address",
          "name": "spender",
          "type": "address"
        },
        {
          "indexed": false,
          "internalType": "uint256",
          "name": "value",
          "type": "uint256"
        }
      ],
      "name": "Approval",
      "type": "event"
    },
    {
      "anonymous": false,
      "inputs": [
        {
          "indexed": true,
          "internalType": "address",
          "name": "from",
          "type": "address"
        },
        {
          "indexed": false,
          "internalType": "uint256",
          "name": "amount",
          "type": "uint256"
        }
      ],
      "name": "Burned",
      "type": "event"
    },
    {
      "anonymous": false,
      "inputs": [
        {
          "indexed": true,
          "internalType": "address",
          "name": "oldProtocol",
          "type": "address"
        },
        {
          "indexed": true,
          "internalType": "address",
          "name": "newProtocol",
          "type": "address"
        }
      ],
      "name": "LendingProtocolUpdated",
      "type": "event"
    },
    {
      "anonymous": false,
      "inputs": [
        {
          "indexed": true,
          "internalType": "address",
          "name": "to",
          "type": "address"
        },
        {
          "indexed": false,
          "internalType": "uint256",
          "name": "amount",
          "type": "uint256"
        }
      ],
      "name": "Minted",
      "type": "event"
    },
    {
      "anonymous": false,
      "inputs": [
        {
          "indexed": true,
          "internalType": "address",
          "name": "previousOwner",
          "type": "address"
        },
        {
          "indexed": true,
          "internalType": "address",
          "name": "newOwner",
          "type": "address"
        }
      ],
      "name": "OwnershipTransferred",
      "type": "event"
    },
    {
      "anonymous": false,
      "inputs": [
        {
          "indexed": true,
          "internalType": "address",
          "name": "from",
          "type": "address"
        },
        {
          "indexed": true,
          "internalType": "address",
          "name": "to",
          "type": "address"
        },
        {
          "indexed": false,
          "internalType": "uint256",
          "name": "value",
          "type": "uint256"
        }
      ],
      "name": "Transfer",
      "type": "event"
    },
    {
      "inputs": [
        {
          "internalType": "address",
          "name": "owner",
          "type": "address"
        },
        {
          "internalType": "address",
          "name": "spender",
          "type": "address"
        }
      ],
      "name": "allowance",
      "outputs": [
        {
          "internalType": "uint256",
          "name": "",
          "type": "uint256"
        }
      ],
      "stateMutability": "view",
      "type": "function"
    },
    {
      "inputs": [
        {
          "internalType": "address",
          "name": "spender",
          "type": "address"
        },
        {
          "internalType": "uint256",
          "name": "value",
          "type": "uint256"
        }
      ],
      "name": "approve",
      "outputs": [
        {
          "internalType": "bool",
          "name": "",
          "type": "bool"
        }
      ],
      "stateMutability": "nonpayable",
      "type": "function"
    },
    {
      "inputs": [
        {
          "internalType": "address",
          "name": "account",
          "type": "address"
        }
      ],
      "name": "balanceOf",
      "outputs": [
        {
          "internalType": "uint256",
          "name": "",
          "type": "uint256"
        }
      ],
      "stateMutability": "view",
      "type": "function"
    },
    {
      "inputs": [
        {
          "internalType": "address",
          "name": "from",
          "type": "address"
        },
        {
          "internalType": "uint256",
          "name": "amount",
          "type": "uint256"
        }
      ],
      "name": "burn",
      "outputs": [],
      "stateMutability": "nonpayable",
      "type": "function"
    },
    {
      "inputs": [],
      "name": "decimals",
      "outputs": [
        {
          "internalType": "uint8",
          "name": "",
          "type": "uint8"
        }
      ],
      "stateMutability": "view",
      "type": "function"
    },
    {
      "inputs": [],
      "name": "lendingProtocol",
      "outputs": [
        {
          "internalType": "address",
          "name": "",
          "type": "address"
        }
      ],
      "stateMutability": "view",
      "type": "function"
    },
    {
      "inputs": [
        {
          "internalType": "address",
          "name": "to",
          "type": "address"
        },
        {
          "internalType": "uint256",
          "name": "amount",
          "type": "uint256"
        }
      ],
      "name": "mint",
      "outputs": [],
      "stateMutability": "nonpayable",
      "type": "function"
    },
    {
      "inputs": [],
      "name": "name",
      "outputs": [
        {
          "internalType": "string",
          "name": "",
          "type": "string"
        }
      ],
      "stateMutability": "view",
      "type": "function"
    },
    {
      "inputs": [],
      "name": "owner",
      "outputs": [
        {
          "internalType": "address",
          "name": "",
          "type": "address"
        }
      ],
      "stateMutability": "view",
      "type": "function"
    },
    {
      "inputs": [],
      "name": "renounceOwnership",
      "outputs": [],
      "stateMutability": "nonpayable",
      "type": "function"
    },
    {
      "inputs": [],
      "name": "symbol",
      "outputs": [
        {
          "internalType": "string",
          "name": "",
          "type": "string"
        }
      ],
      "stateMutability": "view",
      "type": "function"
    },
    {
      "inputs": [],
      "name": "totalSupply",
      "outputs": [
        {
          "internalType": "uint256",
          "name": "",
          "type": "uint256"
        }
      ],
      "stateMutability": "view",
      "type": "function"
    },
    {
      "inputs": [
        {
          "internalType": "address",
          "name": "to",
          "type": "address"
        },
        {
          "internalType": "uint256",
          "name": "value",
          "type": "uint256"
        }
      ],
      "name": "transfer",
      "outputs": [
        {
          "internalType": "bool",
          "name": "",
          "type": "bool"
        }
      ],
      "stateMutability": "nonpayable",
      "type": "function"
    },
    {
      "inputs": [
        {
          "internalType": "address",
          "name": "from",
          "type": "address"
        },
        {
          "internalType": "address",
          "name": "to",
          "type": "address"
        },
        {
          "internalType": "uint256",
          "name": "value",
          "type": "uint256"
        }
      ],
      "name": "transferFrom",
      "outputs": [
        {
          "internalType": "bool",
          "name": "",
          "type": "bool"
        }
      ],
      "stateMutability": "nonpayable",
      "type": "function"
    },
    {
      "inputs": [
        {
          "internalType": "address",
          "name": "newOwner",
          "type": "address"
        }
      ],
      "name": "transferOwnership",
      "outputs": [],
      "stateMutability": "nonpayable",
      "type": "function"
    },
    {
      "inputs": [
        {
          "internalType": "address",
          "name": "_newLendingProtocol",
          "type": "address"
        }
      ],
      "name": "updateLendingProtocol",
      "outputs": [],
      "stateMutability": "nonpayable",
      "type": "function"
    }
  ],
  "bytecode": "0x6080604052346103ce57610f2380380380610019816103d3565b9283398101906080818303126103ce5780516001600160401b0381116103ce57826100459183016103f8565b602082015190926001600160401b0382116103ce576100659183016103f8565b9061007e606061007760408401610463565b9201610463565b83516001600160401b0381116102d757600354600181811c911680156103c4575b60208210146102b757601f811161035f575b50602094601f82116001146102f8579481929394956000926102ed575b50508160011b916000199060031b1c1916176003555b82516001600160401b0381116102d757600454600181811c911680156102cd575b60208210146102b757601f8111610252575b506020601f82116001146101eb57819293946000926101e0575b50508160011b916000199060031b1c1916176004555b6001600160a01b03169081156101ca57600580546001600160a01b03198116841790915560405192906001600160a01b03167f8be0079c531659141344cd1fd0a4f28419497f9722a3daafe3b4186f6b6457e0600080a3600680546001600160a01b0319166001600160a01b0392909216919091179055610aab90816104788239f35b631e4fbdf760e01b600052600060045260246000fd5b015190503880610131565b601f198216906004600052806000209160005b81811061023a57509583600195969710610221575b505050811b01600455610147565b015160001960f88460031b161c19169055388080610213565b9192602060018192868b0151815501940192016101fe565b60046000527f8a35acfbc15ff81a39ae7d344fd709f28e8600b4aa8c65c6b64bfe7fe36bd19b601f830160051c810191602084106102ad575b601f0160051c01905b8181106102a15750610117565b60008155600101610294565b909150819061028b565b634e487b7160e01b600052602260045260246000fd5b90607f1690610105565b634e487b7160e01b600052604160045260246000fd5b0151905038806100ce565b601f198216956003600052806000209160005b8881106103475750836001959697981061032e575b505050811b016003556100e4565b015160001960f88460031b161c19169055388080610320565b9192602060018192868501518155019401920161030b565b60036000527fc2575a0e9e593c00f959f8c92f12db2869c3395a3b0502d05e2516446f71f85b601f830160051c810191602084106103ba575b601f0160051c01905b8181106103ae57506100b1565b600081556001016103a1565b9091508190610398565b90607f169061009f565b600080fd5b6040519190601f01601f191682016001600160401b038111838210176102d757604052565b81601f820112156103ce578051906001600160401b0382116102d757610427601f8301601f19166020016103d3565b92828452602083830101116103ce5760005b82811061044e57505060206000918301015290565b80602080928401015182828701015201610439565b51906001600160a01b03821682036103ce5756fe608080604052600436101561001357600080fd5b60003560e01c90816306fdde031461081f57508063095ea7b31461079957806318160ddd1461077b57806323b872dd1461068e578063313ce5671461067257806340c10f191461058a57806370a0823114610550578063715018a6146104f357806384436d3e146104ca5780638da5cb5b146104a157806395d89b41146103805780639dc29fac1461028b578063a9059cbb1461025a578063cb737251146101af578063dd62ed3e1461015e5763f2fde38b146100cf57600080fd5b34610159576020366003190112610159576100e861093b565b6100f0610a4c565b6001600160a01b0316801561014357600580546001600160a01b0319811683179091556001600160a01b03167f8be0079c531659141344cd1fd0a4f28419497f9722a3daafe3b4186f6b6457e0600080a3005b631e4fbdf760e01b600052600060045260246000fd5b600080fd5b346101595760403660031901126101595761017761093b565b61017f610951565b6001600160a01b039182166000908152600160209081526040808320949093168252928352819020549051908152f35b34610159576020366003190112610159576101c861093b565b6101d0610a4c565b6001600160a01b0316801561022357600680546001600160a01b0319811683179091556001600160a01b03167f254f484c794cb4c81fc716c685b552fb5b4f5ae2c912bc06d55a74356e1a9e93600080a3005b60405162461bcd60e51b815260206004820152600f60248201526e496e76616c6964206164647265737360881b6044820152606490fd5b346101595760403660031901126101595761028061027661093b565b60243590336109b3565b602060405160018152f35b34610159576040366003190112610159576102a461093b565b602435906102bd60018060a01b03600654163314610967565b6001600160a01b0316801561036a5760009181835282602052604083205481811061035157817f696de425f79f4a40bc6d2122ca50507f0efbeabbff86a84871b7196ab8ea8df792602092858752868452036040862055806002540360025584847fddf252ad1be2c89b69c2b068fc378daa952ba7f163c4a11628f55a4df523b3ef84604051858152a3604051908152a280f35b6064939263391434e360e21b8452600452602452604452fd5b634b637e8f60e11b600052600060045260246000fd5b346101595760003660031901126101595760405160006004548060011c90600181168015610497575b602083108114610483578285529081156104675750600114610410575b50819003601f01601f191681019067ffffffffffffffff8211818310176103fa576103f6829182604052826108f2565b0390f35b634e487b7160e01b600052604160045260246000fd5b905060046000527f8a35acfbc15ff81a39ae7d344fd709f28e8600b4aa8c65c6b64bfe7fe36bd19b6000905b828210610451575060209150820101826103c6565b600181602092548385880101520191019061043c565b90506020925060ff191682840152151560051b820101826103c6565b634e487b7160e01b84526022600452602484fd5b91607f16916103a9565b34610159576000366003190112610159576005546040516001600160a01b039091168152602090f35b34610159576000366003190112610159576006546040516001600160a01b039091168152602090f35b346101595760003660031901126101595761050c610a4c565b600580546001600160a01b031981169091556000906001600160a01b03167f8be0079c531659141344cd1fd0a4f28419497f9722a3daafe3b4186f6b6457e08280a3005b34610159576020366003190112610159576001600160a01b0361057161093b565b1660005260006020526020604060002054604051908152f35b34610159576040366003190112610159576105a361093b565b602435906105bc60018060a01b03600654163314610967565b6001600160a01b0316801561065c57600254828101809111610646576002557f30385c845b448a36257a6a1716e6ad2e1bc2cbe333cde1e69fe849ad6511adfe60206000938385528482526040852081815401905583857fddf252ad1be2c89b69c2b068fc378daa952ba7f163c4a11628f55a4df523b3ef84604051858152a3604051908152a280f35b634e487b7160e01b600052601160045260246000fd5b63ec442f0560e01b600052600060045260246000fd5b3461015957600036600319011261015957602060405160128152f35b34610159576060366003190112610159576106a761093b565b6106af610951565b6001600160a01b03821660008181526001602090815260408083203384529091529020549092604435929160001981106106ef575b5061028093506109b3565b83811061075e57841561074857331561073257610280946000526001602052604060002060018060a01b03331660005260205283604060002091039055846106e4565b634a1406b160e11b600052600060045260246000fd5b63e602df0560e01b600052600060045260246000fd5b8390637dc7a0d960e11b6000523360045260245260445260646000fd5b34610159576000366003190112610159576020600254604051908152f35b34610159576040366003190112610159576107b261093b565b602435903315610748576001600160a01b031690811561073257336000526001602052604060002082600052602052806040600020556040519081527f8c5be1e5ebec7d5bd14f71427d1e84f3dd0314c0f7b2291e5b200ac8c7c3b92560203392a3602060405160018152f35b346101595760003660031901126101595760006003548060011c906001811680156108e8575b6020831081146104835782855290811561046757506001146108915750819003601f01601f191681019067ffffffffffffffff8211818310176103fa576103f6829182604052826108f2565b905060036000527fc2575a0e9e593c00f959f8c92f12db2869c3395a3b0502d05e2516446f71f85b6000905b8282106108d2575060209150820101826103c6565b60018160209254838588010152019101906108bd565b91607f1691610845565b91909160208152825180602083015260005b818110610925575060409293506000838284010152601f8019910116010190565b8060208092870101516040828601015201610904565b600435906001600160a01b038216820361015957565b602435906001600160a01b038216820361015957565b1561096e57565b60405162461bcd60e51b815260206004820152601e60248201527f4f6e6c79206c656e64696e672070726f746f636f6c2063616e2063616c6c00006044820152606490fd5b6001600160a01b031690811561036a576001600160a01b031691821561065c576000828152806020526040812054828110610a325791604082827fddf252ad1be2c89b69c2b068fc378daa952ba7f163c4a11628f55a4df523b3ef958760209652828652038282205586815280845220818154019055604051908152a3565b916064928463391434e360e21b8452600452602452604452fd5b6005546001600160a01b03163303610a6057565b63118cdaa760e01b6000523360045260246000fdfea26469706673582212201ef530fba67a974acdd1867dfdd14d75f23300679ab26febced3638064ef2d5364736f6c634300081c0033",
  "linkReferences": {},
  "deployedLinkReferences": {}
}