{"contracts/MockFeedRouter.sol":{"MockFeedRouter":{"abi":[{"inputs":[],"stateMutability":"nonpayable","type":"constructor"},{"inputs":[{"internalType":"string","name":"feedName","type":"string"},{"internalType":"int256","name":"price","type":"int256"},{"internalType":"uint8","name":"decimalsCount","type":"uint8"}],"name":"addFeed","outputs":[],"stateMutability":"nonpayable","type":"function"},{"inputs":[{"internalType":"string","name":"feedName","type":"string"}],"name":"decimals","outputs":[{"internalType":"uint8","name":"","type":"uint8"}],"stateMutability":"view","type":"function"},{"inputs":[{"internalType":"string","name":"","type":"string"}],"name":"feedDecimals","outputs":[{"internalType":"uint8","name":"","type":"uint8"}],"stateMutability":"view","type":"function"},{"inputs":[],"name":"getFeedNames","outputs":[{"internalType":"string[]","name":"","type":"string[]"}],"stateMutability":"view","type":"function"},{"inputs":[{"internalType":"string","name":"","type":"string"}],"name":"lastUpdated","outputs":[{"internalType":"uint256","name":"","type":"uint256"}],"stateMutability":"view","type":"function"},{"inputs":[{"internalType":"string","name":"feedName","type":"string"}],"name":"latestRoundData","outputs":[{"internalType":"uint64","name":"id","type":"uint64"},{"internalType":"int256","name":"answer","type":"int256"},{"internalType":"uint256","name":"updatedAt","type":"uint256"}],"stateMutability":"view","type":"function"},{"inputs":[],"name":"owner","outputs":[{"internalType":"address","name":"","type":"address"}],"stateMutability":"view","type":"function"},{"inputs":[{"internalType":"string","name":"","type":"string"}],"name":"prices","outputs":[{"internalType":"int256","name":"","type":"int256"}],"stateMutability":"view","type":"function"},{"inputs":[{"internalType":"uint256","name":"","type":"uint256"}],"name":"supportedFeeds","outputs":[{"internalType":"string","name":"","type":"string"}],"stateMutability":"view","type":"function"},{"inputs":[{"internalType":"string","name":"feedName","type":"string"},{"internalType":"int256","name":"newPrice","type":"int256"}],"name":"updatePrice","outputs":[],"stateMutability":"nonpayable","type":"function"}],"evm":{"bytecode":{"linkReferences":{},"object":"60806040523461022957600480546001600160a01b03191633179055600354680100000000000000008110156101e65780600161003f920160035561022e565b6101d05761004d815461025f565b601f81116101fc575b507f4b4c41592d5553445400000000000000000000000000000000000000000000129055600354680100000000000000008110156101e65780600161009e920160035561022e565b6101d0576100ac815461025f565b601f81116101a3575b506010671554d1150b5554d160c21b0190556301312d0060296040516812d310564b5554d11560ba1b81526000600982015220556305f5e1006028604051671554d1150b5554d160c21b815260006008820152205560296040516812d310564b5554d11560ba1b81526001600982015220600860ff198254161790556028604051671554d1150b5554d160c21b81526001600882015220600860ff198254161790556040516812d310564b5554d11560ba1b815260026009820152602942912055604051671554d1150b5554d160c21b815260026008820152602842912055604051610918908161029a8239f35b81600052601f6020600020910160051c8101905b8181106101c457506100b5565b600081556001016101b7565b634e487b7160e01b600052600060045260246000fd5b634e487b7160e01b600052604160045260246000fd5b81600052601f6020600020910160051c8101905b81811061021d5750610056565b60008155600101610210565b600080fd5b60035481101561024957600360005260206000200190600090565b634e487b7160e01b600052603260045260246000fd5b90600182811c9216801561028f575b602083101461027957565b634e487b7160e01b600052602260045260246000fd5b91607f169161026e56fe6080604052600436101561001257600080fd5b60003560e01c8063233af1b01461063f5780632a632795146105a757806333f98c77146105005780633b2b3204146104ce578063597095ed146104815780638da5cb5b14610458578063c3825f4b146103fb578063c69f51a8146101ff578063c8a84d941461019a5763fad56f3f1461008a57600080fd5b346101955760003660031901126101955760035467ffffffffffffffff811161017f57604051906100c160208260051b0183610689565b80825260208201908160036000527fc2575a0e9e593c00f959f8c92f12db2869c3395a3b0502d05e2516446f71f85b6000915b83831061016257848660405191829160208301906020845251809152604083019060408160051b85010192916000905b82821061013357505050500390f35b919360019193955060206101528192603f198a82030186528851610885565b9601920192018594939192610124565b600160208192610171856107e1565b8152019201920191906100f4565b634e487b7160e01b600052604160045260246000fd5b600080fd5b3461019557602036600319011261019557600435600354811015610195576101c190610776565b6101e9576101d16101e5916107e1565b604051918291602083526020830190610885565b0390f35b634e487b7160e01b600052600060045260246000fd5b346101955760603660031901126101955760043567ffffffffffffffff8111610195576102309036906004016106ab565b60443560ff8116809103610195576102b89061025760018060a01b036004541633146108aa565b60405190835191602085019261026e818386610702565b810190600082526020816024359303019020556040516020818651610294818388610702565b810160018152030190209060ff198254161790556040519182918451928391610702565b81019060028252602081429303019020556003546801000000000000000081101561017f578060016102ed9201600355610776565b6101e957815167ffffffffffffffff811161017f5761030c82546107a7565b601f81116103b3575b50602092601f82116001146103535792819293600092610348575b5050600019600383901b1c191660019190911b179055005b015190508380610330565b601f1982169383600052806000209160005b86811061039b5750836001959610610382575b505050811b019055005b015160001960f88460031b161c19169055838080610378565b91926020600181928685015181550194019201610365565b826000526020600020601f830160051c810191602084106103f1575b601f0160051c01905b8181106103e55750610315565b600081556001016103d8565b90915081906103cf565b346101955760203660031901126101955760043567ffffffffffffffff8111610195576104456020610432819336906004016106ab565b8160405193828580945193849201610702565b8101600081520301902054604051908152f35b34610195576000366003190112610195576004546040516001600160a01b039091168152602090f35b346101955760203660031901126101955760043567ffffffffffffffff81116101955760ff6104ba6020610432819436906004016106ab565b810160018152030190205416604051908152f35b3461019557602060ff816104e136610725565b9190826040519384928337810160018152030190205416604051908152f35b346101955761050e36610725565b90604051828282376020818481016000815203019020541561056d576060916020604051828482378181848101600081520301902054928260405193849283378101600281520301902054604051916001835260208301526040820152f35b60405162461bcd60e51b815260206004820152601260248201527146656564206e6f7420617661696c61626c6560701b6044820152606490fd5b346101955760403660031901126101955760043567ffffffffffffffff8111610195576105d89036906004016106ab565b6105ed60018060a01b036004541633146108aa565b604051908051916020820192610604818386610702565b8101906000825260208160243593030190205561062960405192839251928391610702565b8101906002825260208142930301902055600080f35b346101955760203660031901126101955760043567ffffffffffffffff8111610195576106766020610432819336906004016106ab565b8101600281520301902054604051908152f35b90601f8019910116810190811067ffffffffffffffff82111761017f57604052565b81601f820112156101955780359067ffffffffffffffff821161017f57604051926106e0601f8401601f191660200185610689565b8284526020838301011161019557816000926020809301838601378301015290565b60005b8381106107155750506000910152565b8181015183820152602001610705565b9060206003198301126101955760043567ffffffffffffffff811161019557826023820112156101955780600401359267ffffffffffffffff84116101955760248483010111610195576024019190565b60035481101561079157600360005260206000200190600090565b634e487b7160e01b600052603260045260246000fd5b90600182811c921680156107d7575b60208310146107c157565b634e487b7160e01b600052602260045260246000fd5b91607f16916107b6565b90604051918260008254926107f5846107a7565b8084529360018116908115610863575060011461081c575b5061081a92500383610689565b565b90506000929192526020600020906000915b81831061084757505090602061081a928201013861080d565b602091935080600191548385890101520191019091849261082e565b90506020925061081a94915060ff191682840152151560051b8201013861080d565b9060209161089e81518092818552858086019101610702565b601f01601f1916010190565b156108b157565b60405162461bcd60e51b81526020600482015260096024820152682737ba1037bbb732b960b91b6044820152606490fdfea26469706673582212208ab84c50b6f4733c65cdd5fcb55532eb785361f196a7803259f24b08f49dff8264736f6c634300081c0033","opcodes":"PUSH1 0x80 PUSH1 0x40 MSTORE CALLVALUE PUSH2 0x229 JUMPI PUSH1 0x4 DUP1 SLOAD PUSH1 0x1 PUSH1 0x1 PUSH1 0xA0 SHL SUB NOT AND CALLER OR SWAP1 SSTORE PUSH1 0x3 SLOAD PUSH9 0x10000000000000000 DUP2 LT ISZERO PUSH2 0x1E6 JUMPI DUP1 PUSH1 0x1 PUSH2 0x3F SWAP3 ADD PUSH1 0x3 SSTORE PUSH2 0x22E JUMP JUMPDEST PUSH2 0x1D0 JUMPI PUSH2 0x4D DUP2 SLOAD PUSH2 0x25F JUMP JUMPDEST PUSH1 0x1F DUP2 GT PUSH2 0x1FC JUMPI JUMPDEST POP PUSH32 0x4B4C41592D555344540000000000000000000000000000000000000000000012 SWAP1 SSTORE PUSH1 0x3 SLOAD PUSH9 0x10000000000000000 DUP2 LT ISZERO PUSH2 0x1E6 JUMPI DUP1 PUSH1 0x1 PUSH2 0x9E SWAP3 ADD PUSH1 0x3 SSTORE PUSH2 0x22E JUMP JUMPDEST PUSH2 0x1D0 JUMPI PUSH2 0xAC DUP2 SLOAD PUSH2 0x25F JUMP JUMPDEST PUSH1 0x1F DUP2 GT PUSH2 0x1A3 JUMPI JUMPDEST POP PUSH1 0x10 PUSH8 0x1554D1150B5554D1 PUSH1 0xC2 SHL ADD SWAP1 SSTORE PUSH4 0x1312D00 PUSH1 0x29 PUSH1 0x40 MLOAD PUSH9 0x12D310564B5554D115 PUSH1 0xBA SHL DUP2 MSTORE PUSH1 0x0 PUSH1 0x9 DUP3 ADD MSTORE KECCAK256 SSTORE PUSH4 0x5F5E100 PUSH1 0x28 PUSH1 0x40 MLOAD PUSH8 0x1554D1150B5554D1 PUSH1 0xC2 SHL DUP2 MSTORE PUSH1 0x0 PUSH1 0x8 DUP3 ADD MSTORE KECCAK256 SSTORE PUSH1 0x29 PUSH1 0x40 MLOAD PUSH9 0x12D310564B5554D115 PUSH1 0xBA SHL DUP2 MSTORE PUSH1 0x1 PUSH1 0x9 DUP3 ADD MSTORE KECCAK256 PUSH1 0x8 PUSH1 0xFF NOT DUP3 SLOAD AND OR SWAP1 SSTORE PUSH1 0x28 PUSH1 0x40 MLOAD PUSH8 0x1554D1150B5554D1 PUSH1 0xC2 SHL DUP2 MSTORE PUSH1 0x1 PUSH1 0x8 DUP3 ADD MSTORE KECCAK256 PUSH1 0x8 PUSH1 0xFF NOT DUP3 SLOAD AND OR SWAP1 SSTORE PUSH1 0x40 MLOAD PUSH9 0x12D310564B5554D115 PUSH1 0xBA SHL DUP2 MSTORE PUSH1 0x2 PUSH1 0x9 DUP3 ADD MSTORE PUSH1 0x29 TIMESTAMP SWAP2 KECCAK256 SSTORE PUSH1 0x40 MLOAD PUSH8 0x1554D1150B5554D1 PUSH1 0xC2 SHL DUP2 MSTORE PUSH1 0x2 PUSH1 0x8 DUP3 ADD MSTORE PUSH1 0x28 TIMESTAMP SWAP2 KECCAK256 SSTORE PUSH1 0x40 MLOAD PUSH2 0x918 SWAP1 DUP2 PUSH2 0x29A DUP3 CODECOPY RETURN JUMPDEST DUP2 PUSH1 0x0 MSTORE PUSH1 0x1F PUSH1 0x20 PUSH1 0x0 KECCAK256 SWAP2 ADD PUSH1 0x5 SHR DUP2 ADD SWAP1 JUMPDEST DUP2 DUP2 LT PUSH2 0x1C4 JUMPI POP PUSH2 0xB5 JUMP JUMPDEST PUSH1 0x0 DUP2 SSTORE PUSH1 0x1 ADD PUSH2 0x1B7 JUMP JUMPDEST PUSH4 0x4E487B71 PUSH1 0xE0 SHL PUSH1 0x0 MSTORE PUSH1 0x0 PUSH1 0x4 MSTORE PUSH1 0x24 PUSH1 0x0 REVERT JUMPDEST PUSH4 0x4E487B71 PUSH1 0xE0 SHL PUSH1 0x0 MSTORE PUSH1 0x41 PUSH1 0x4 MSTORE PUSH1 0x24 PUSH1 0x0 REVERT JUMPDEST DUP2 PUSH1 0x0 MSTORE PUSH1 0x1F PUSH1 0x20 PUSH1 0x0 KECCAK256 SWAP2 ADD PUSH1 0x5 SHR DUP2 ADD SWAP1 JUMPDEST DUP2 DUP2 LT PUSH2 0x21D JUMPI POP PUSH2 0x56 JUMP JUMPDEST PUSH1 0x0 DUP2 SSTORE PUSH1 0x1 ADD PUSH2 0x210 JUMP JUMPDEST PUSH1 0x0 DUP1 REVERT JUMPDEST PUSH1 0x3 SLOAD DUP2 LT ISZERO PUSH2 0x249 JUMPI PUSH1 0x3 PUSH1 0x0 MSTORE PUSH1 0x20 PUSH1 0x0 KECCAK256 ADD SWAP1 PUSH1 0x0 SWAP1 JUMP JUMPDEST PUSH4 0x4E487B71 PUSH1 0xE0 SHL PUSH1 0x0 MSTORE PUSH1 0x32 PUSH1 0x4 MSTORE PUSH1 0x24 PUSH1 0x0 REVERT JUMPDEST SWAP1 PUSH1 0x1 DUP3 DUP2 SHR SWAP3 AND DUP1 ISZERO PUSH2 0x28F JUMPI JUMPDEST PUSH1 0x20 DUP4 LT EQ PUSH2 0x279 JUMPI JUMP JUMPDEST PUSH4 0x4E487B71 PUSH1 0xE0 SHL PUSH1 0x0 MSTORE PUSH1 0x22 PUSH1 0x4 MSTORE PUSH1 0x24 PUSH1 0x0 REVERT JUMPDEST SWAP2 PUSH1 0x7F AND SWAP2 PUSH2 0x26E JUMP INVALID PUSH1 0x80 PUSH1 0x40 MSTORE PUSH1 0x4 CALLDATASIZE LT ISZERO PUSH2 0x12 JUMPI PUSH1 0x0 DUP1 REVERT JUMPDEST PUSH1 0x0 CALLDATALOAD PUSH1 0xE0 SHR DUP1 PUSH4 0x233AF1B0 EQ PUSH2 0x63F JUMPI DUP1 PUSH4 0x2A632795 EQ PUSH2 0x5A7 JUMPI DUP1 PUSH4 0x33F98C77 EQ PUSH2 0x500 JUMPI DUP1 PUSH4 0x3B2B3204 EQ PUSH2 0x4CE JUMPI DUP1 PUSH4 0x597095ED EQ PUSH2 0x481 JUMPI DUP1 PUSH4 0x8DA5CB5B EQ PUSH2 0x458 JUMPI DUP1 PUSH4 0xC3825F4B EQ PUSH2 0x3FB JUMPI DUP1 PUSH4 0xC69F51A8 EQ PUSH2 0x1FF JUMPI DUP1 PUSH4 0xC8A84D94 EQ PUSH2 0x19A JUMPI PUSH4 0xFAD56F3F EQ PUSH2 0x8A JUMPI PUSH1 0x0 DUP1 REVERT JUMPDEST CALLVALUE PUSH2 0x195 JUMPI PUSH1 0x0 CALLDATASIZE PUSH1 0x3 NOT ADD SLT PUSH2 0x195 JUMPI PUSH1 0x3 SLOAD PUSH8 0xFFFFFFFFFFFFFFFF DUP2 GT PUSH2 0x17F JUMPI PUSH1 0x40 MLOAD SWAP1 PUSH2 0xC1 PUSH1 0x20 DUP3 PUSH1 0x5 SHL ADD DUP4 PUSH2 0x689 JUMP JUMPDEST DUP1 DUP3 MSTORE PUSH1 0x20 DUP3 ADD SWAP1 DUP2 PUSH1 0x3 PUSH1 0x0 MSTORE PUSH32 0xC2575A0E9E593C00F959F8C92F12DB2869C3395A3B0502D05E2516446F71F85B PUSH1 0x0 SWAP2 JUMPDEST DUP4 DUP4 LT PUSH2 0x162 JUMPI DUP5 DUP7 PUSH1 0x40 MLOAD SWAP2 DUP3 SWAP2 PUSH1 0x20 DUP4 ADD SWAP1 PUSH1 0x20 DUP5 MSTORE MLOAD DUP1 SWAP2 MSTORE PUSH1 0x40 DUP4 ADD SWAP1 PUSH1 0x40 DUP2 PUSH1 0x5 SHL DUP6 ADD ADD SWAP3 SWAP2 PUSH1 0x0 SWAP1 JUMPDEST DUP3 DUP3 LT PUSH2 0x133 JUMPI POP POP POP POP SUB SWAP1 RETURN JUMPDEST SWAP2 SWAP4 PUSH1 0x1 SWAP2 SWAP4 SWAP6 POP PUSH1 0x20 PUSH2 0x152 DUP2 SWAP3 PUSH1 0x3F NOT DUP11 DUP3 SUB ADD DUP7 MSTORE DUP9 MLOAD PUSH2 0x885 JUMP JUMPDEST SWAP7 ADD SWAP3 ADD SWAP3 ADD DUP6 SWAP5 SWAP4 SWAP2 SWAP3 PUSH2 0x124 JUMP JUMPDEST PUSH1 0x1 PUSH1 0x20 DUP2 SWAP3 PUSH2 0x171 DUP6 PUSH2 0x7E1 JUMP JUMPDEST DUP2 MSTORE ADD SWAP3 ADD SWAP3 ADD SWAP2 SWAP1 PUSH2 0xF4 JUMP JUMPDEST PUSH4 0x4E487B71 PUSH1 0xE0 SHL PUSH1 0x0 MSTORE PUSH1 0x41 PUSH1 0x4 MSTORE PUSH1 0x24 PUSH1 0x0 REVERT JUMPDEST PUSH1 0x0 DUP1 REVERT JUMPDEST CALLVALUE PUSH2 0x195 JUMPI PUSH1 0x20 CALLDATASIZE PUSH1 0x3 NOT ADD SLT PUSH2 0x195 JUMPI PUSH1 0x4 CALLDATALOAD PUSH1 0x3 SLOAD DUP2 LT ISZERO PUSH2 0x195 JUMPI PUSH2 0x1C1 SWAP1 PUSH2 0x776 JUMP JUMPDEST PUSH2 0x1E9 JUMPI PUSH2 0x1D1 PUSH2 0x1E5 SWAP2 PUSH2 0x7E1 JUMP JUMPDEST PUSH1 0x40 MLOAD SWAP2 DUP3 SWAP2 PUSH1 0x20 DUP4 MSTORE PUSH1 0x20 DUP4 ADD SWAP1 PUSH2 0x885 JUMP JUMPDEST SUB SWAP1 RETURN JUMPDEST PUSH4 0x4E487B71 PUSH1 0xE0 SHL PUSH1 0x0 MSTORE PUSH1 0x0 PUSH1 0x4 MSTORE PUSH1 0x24 PUSH1 0x0 REVERT JUMPDEST CALLVALUE PUSH2 0x195 JUMPI PUSH1 0x60 CALLDATASIZE PUSH1 0x3 NOT ADD SLT PUSH2 0x195 JUMPI PUSH1 0x4 CALLDATALOAD PUSH8 0xFFFFFFFFFFFFFFFF DUP2 GT PUSH2 0x195 JUMPI PUSH2 0x230 SWAP1 CALLDATASIZE SWAP1 PUSH1 0x4 ADD PUSH2 0x6AB JUMP JUMPDEST PUSH1 0x44 CALLDATALOAD PUSH1 0xFF DUP2 AND DUP1 SWAP2 SUB PUSH2 0x195 JUMPI PUSH2 0x2B8 SWAP1 PUSH2 0x257 PUSH1 0x1 DUP1 PUSH1 0xA0 SHL SUB PUSH1 0x4 SLOAD AND CALLER EQ PUSH2 0x8AA JUMP JUMPDEST PUSH1 0x40 MLOAD SWAP1 DUP4 MLOAD SWAP2 PUSH1 0x20 DUP6 ADD SWAP3 PUSH2 0x26E DUP2 DUP4 DUP7 PUSH2 0x702 JUMP JUMPDEST DUP2 ADD SWAP1 PUSH1 0x0 DUP3 MSTORE PUSH1 0x20 DUP2 PUSH1 0x24 CALLDATALOAD SWAP4 SUB ADD SWAP1 KECCAK256 SSTORE PUSH1 0x40 MLOAD PUSH1 0x20 DUP2 DUP7 MLOAD PUSH2 0x294 DUP2 DUP4 DUP9 PUSH2 0x702 JUMP JUMPDEST DUP2 ADD PUSH1 0x1 DUP2 MSTORE SUB ADD SWAP1 KECCAK256 SWAP1 PUSH1 0xFF NOT DUP3 SLOAD AND OR SWAP1 SSTORE PUSH1 0x40 MLOAD SWAP2 DUP3 SWAP2 DUP5 MLOAD SWAP3 DUP4 SWAP2 PUSH2 0x702 JUMP JUMPDEST DUP2 ADD SWAP1 PUSH1 0x2 DUP3 MSTORE PUSH1 0x20 DUP2 TIMESTAMP SWAP4 SUB ADD SWAP1 KECCAK256 SSTORE PUSH1 0x3 SLOAD PUSH9 0x10000000000000000 DUP2 LT ISZERO PUSH2 0x17F JUMPI DUP1 PUSH1 0x1 PUSH2 0x2ED SWAP3 ADD PUSH1 0x3 SSTORE PUSH2 0x776 JUMP JUMPDEST PUSH2 0x1E9 JUMPI DUP2 MLOAD PUSH8 0xFFFFFFFFFFFFFFFF DUP2 GT PUSH2 0x17F JUMPI PUSH2 0x30C DUP3 SLOAD PUSH2 0x7A7 JUMP JUMPDEST PUSH1 0x1F DUP2 GT PUSH2 0x3B3 JUMPI JUMPDEST POP PUSH1 0x20 SWAP3 PUSH1 0x1F DUP3 GT PUSH1 0x1 EQ PUSH2 0x353 JUMPI SWAP3 DUP2 SWAP3 SWAP4 PUSH1 0x0 SWAP3 PUSH2 0x348 JUMPI JUMPDEST POP POP PUSH1 0x0 NOT PUSH1 0x3 DUP4 SWAP1 SHL SHR NOT AND PUSH1 0x1 SWAP2 SWAP1 SWAP2 SHL OR SWAP1 SSTORE STOP JUMPDEST ADD MLOAD SWAP1 POP DUP4 DUP1 PUSH2 0x330 JUMP JUMPDEST PUSH1 0x1F NOT DUP3 AND SWAP4 DUP4 PUSH1 0x0 MSTORE DUP1 PUSH1 0x0 KECCAK256 SWAP2 PUSH1 0x0 JUMPDEST DUP7 DUP2 LT PUSH2 0x39B JUMPI POP DUP4 PUSH1 0x1 SWAP6 SWAP7 LT PUSH2 0x382 JUMPI JUMPDEST POP POP POP DUP2 SHL ADD SWAP1 SSTORE STOP JUMPDEST ADD MLOAD PUSH1 0x0 NOT PUSH1 0xF8 DUP5 PUSH1 0x3 SHL AND SHR NOT AND SWAP1 SSTORE DUP4 DUP1 DUP1 PUSH2 0x378 JUMP JUMPDEST SWAP2 SWAP3 PUSH1 0x20 PUSH1 0x1 DUP2 SWAP3 DUP7 DUP6 ADD MLOAD DUP2 SSTORE ADD SWAP5 ADD SWAP3 ADD PUSH2 0x365 JUMP JUMPDEST DUP3 PUSH1 0x0 MSTORE PUSH1 0x20 PUSH1 0x0 KECCAK256 PUSH1 0x1F DUP4 ADD PUSH1 0x5 SHR DUP2 ADD SWAP2 PUSH1 0x20 DUP5 LT PUSH2 0x3F1 JUMPI JUMPDEST PUSH1 0x1F ADD PUSH1 0x5 SHR ADD SWAP1 JUMPDEST DUP2 DUP2 LT PUSH2 0x3E5 JUMPI POP PUSH2 0x315 JUMP JUMPDEST PUSH1 0x0 DUP2 SSTORE PUSH1 0x1 ADD PUSH2 0x3D8 JUMP JUMPDEST SWAP1 SWAP2 POP DUP2 SWAP1 PUSH2 0x3CF JUMP JUMPDEST CALLVALUE PUSH2 0x195 JUMPI PUSH1 0x20 CALLDATASIZE PUSH1 0x3 NOT ADD SLT PUSH2 0x195 JUMPI PUSH1 0x4 CALLDATALOAD PUSH8 0xFFFFFFFFFFFFFFFF DUP2 GT PUSH2 0x195 JUMPI PUSH2 0x445 PUSH1 0x20 PUSH2 0x432 DUP2 SWAP4 CALLDATASIZE SWAP1 PUSH1 0x4 ADD PUSH2 0x6AB JUMP JUMPDEST DUP2 PUSH1 0x40 MLOAD SWAP4 DUP3 DUP6 DUP1 SWAP5 MLOAD SWAP4 DUP5 SWAP3 ADD PUSH2 0x702 JUMP JUMPDEST DUP2 ADD PUSH1 0x0 DUP2 MSTORE SUB ADD SWAP1 KECCAK256 SLOAD PUSH1 0x40 MLOAD SWAP1 DUP2 MSTORE RETURN JUMPDEST CALLVALUE PUSH2 0x195 JUMPI PUSH1 0x0 CALLDATASIZE PUSH1 0x3 NOT ADD SLT PUSH2 0x195 JUMPI PUSH1 0x4 SLOAD PUSH1 0x40 MLOAD PUSH1 0x1 PUSH1 0x1 PUSH1 0xA0 SHL SUB SWAP1 SWAP2 AND DUP2 MSTORE PUSH1 0x20 SWAP1 RETURN JUMPDEST CALLVALUE PUSH2 0x195 JUMPI PUSH1 0x20 CALLDATASIZE PUSH1 0x3 NOT ADD SLT PUSH2 0x195 JUMPI PUSH1 0x4 CALLDATALOAD PUSH8 0xFFFFFFFFFFFFFFFF DUP2 GT PUSH2 0x195 JUMPI PUSH1 0xFF PUSH2 0x4BA PUSH1 0x20 PUSH2 0x432 DUP2 SWAP5 CALLDATASIZE SWAP1 PUSH1 0x4 ADD PUSH2 0x6AB JUMP JUMPDEST DUP2 ADD PUSH1 0x1 DUP2 MSTORE SUB ADD SWAP1 KECCAK256 SLOAD AND PUSH1 0x40 MLOAD SWAP1 DUP2 MSTORE RETURN JUMPDEST CALLVALUE PUSH2 0x195 JUMPI PUSH1 0x20 PUSH1 0xFF DUP2 PUSH2 0x4E1 CALLDATASIZE PUSH2 0x725 JUMP JUMPDEST SWAP2 SWAP1 DUP3 PUSH1 0x40 MLOAD SWAP4 DUP5 SWAP3 DUP4 CALLDATACOPY DUP2 ADD PUSH1 0x1 DUP2 MSTORE SUB ADD SWAP1 KECCAK256 SLOAD AND PUSH1 0x40 MLOAD SWAP1 DUP2 MSTORE RETURN JUMPDEST CALLVALUE PUSH2 0x195 JUMPI PUSH2 0x50E CALLDATASIZE PUSH2 0x725 JUMP JUMPDEST SWAP1 PUSH1 0x40 MLOAD DUP3 DUP3 DUP3 CALLDATACOPY PUSH1 0x20 DUP2 DUP5 DUP2 ADD PUSH1 0x0 DUP2 MSTORE SUB ADD SWAP1 KECCAK256 SLOAD ISZERO PUSH2 0x56D JUMPI PUSH1 0x60 SWAP2 PUSH1 0x20 PUSH1 0x40 MLOAD DUP3 DUP5 DUP3 CALLDATACOPY DUP2 DUP2 DUP5 DUP2 ADD PUSH1 0x0 DUP2 MSTORE SUB ADD SWAP1 KECCAK256 SLOAD SWAP3 DUP3 PUSH1 0x40 MLOAD SWAP4 DUP5 SWAP3 DUP4 CALLDATACOPY DUP2 ADD PUSH1 0x2 DUP2 MSTORE SUB ADD SWAP1 KECCAK256 SLOAD PUSH1 0x40 MLOAD SWAP2 PUSH1 0x1 DUP4 MSTORE PUSH1 0x20 DUP4 ADD MSTORE PUSH1 0x40 DUP3 ADD MSTORE RETURN JUMPDEST PUSH1 0x40 MLOAD PUSH3 0x461BCD PUSH1 0xE5 SHL DUP2 MSTORE PUSH1 0x20 PUSH1 0x4 DUP3 ADD MSTORE PUSH1 0x12 PUSH1 0x24 DUP3 ADD MSTORE PUSH18 0x46656564206E6F7420617661696C61626C65 PUSH1 0x70 SHL PUSH1 0x44 DUP3 ADD MSTORE PUSH1 0x64 SWAP1 REVERT JUMPDEST CALLVALUE PUSH2 0x195 JUMPI PUSH1 0x40 CALLDATASIZE PUSH1 0x3 NOT ADD SLT PUSH2 0x195 JUMPI PUSH1 0x4 CALLDATALOAD PUSH8 0xFFFFFFFFFFFFFFFF DUP2 GT PUSH2 0x195 JUMPI PUSH2 0x5D8 SWAP1 CALLDATASIZE SWAP1 PUSH1 0x4 ADD PUSH2 0x6AB JUMP JUMPDEST PUSH2 0x5ED PUSH1 0x1 DUP1 PUSH1 0xA0 SHL SUB PUSH1 0x4 SLOAD AND CALLER EQ PUSH2 0x8AA JUMP JUMPDEST PUSH1 0x40 MLOAD SWAP1 DUP1 MLOAD SWAP2 PUSH1 0x20 DUP3 ADD SWAP3 PUSH2 0x604 DUP2 DUP4 DUP7 PUSH2 0x702 JUMP JUMPDEST DUP2 ADD SWAP1 PUSH1 0x0 DUP3 MSTORE PUSH1 0x20 DUP2 PUSH1 0x24 CALLDATALOAD SWAP4 SUB ADD SWAP1 KECCAK256 SSTORE PUSH2 0x629 PUSH1 0x40 MLOAD SWAP3 DUP4 SWAP3 MLOAD SWAP3 DUP4 SWAP2 PUSH2 0x702 JUMP JUMPDEST DUP2 ADD SWAP1 PUSH1 0x2 DUP3 MSTORE PUSH1 0x20 DUP2 TIMESTAMP SWAP4 SUB ADD SWAP1 KECCAK256 SSTORE PUSH1 0x0 DUP1 RETURN JUMPDEST CALLVALUE PUSH2 0x195 JUMPI PUSH1 0x20 CALLDATASIZE PUSH1 0x3 NOT ADD SLT PUSH2 0x195 JUMPI PUSH1 0x4 CALLDATALOAD PUSH8 0xFFFFFFFFFFFFFFFF DUP2 GT PUSH2 0x195 JUMPI PUSH2 0x676 PUSH1 0x20 PUSH2 0x432 DUP2 SWAP4 CALLDATASIZE SWAP1 PUSH1 0x4 ADD PUSH2 0x6AB JUMP JUMPDEST DUP2 ADD PUSH1 0x2 DUP2 MSTORE SUB ADD SWAP1 KECCAK256 SLOAD PUSH1 0x40 MLOAD SWAP1 DUP2 MSTORE RETURN JUMPDEST SWAP1 PUSH1 0x1F DUP1 NOT SWAP2 ADD AND DUP2 ADD SWAP1 DUP2 LT PUSH8 0xFFFFFFFFFFFFFFFF DUP3 GT OR PUSH2 0x17F JUMPI PUSH1 0x40 MSTORE JUMP JUMPDEST DUP2 PUSH1 0x1F DUP3 ADD SLT ISZERO PUSH2 0x195 JUMPI DUP1 CALLDATALOAD SWAP1 PUSH8 0xFFFFFFFFFFFFFFFF DUP3 GT PUSH2 0x17F JUMPI PUSH1 0x40 MLOAD SWAP3 PUSH2 0x6E0 PUSH1 0x1F DUP5 ADD PUSH1 0x1F NOT AND PUSH1 0x20 ADD DUP6 PUSH2 0x689 JUMP JUMPDEST DUP3 DUP5 MSTORE PUSH1 0x20 DUP4 DUP4 ADD ADD GT PUSH2 0x195 JUMPI DUP2 PUSH1 0x0 SWAP3 PUSH1 0x20 DUP1 SWAP4 ADD DUP4 DUP7 ADD CALLDATACOPY DUP4 ADD ADD MSTORE SWAP1 JUMP JUMPDEST PUSH1 0x0 JUMPDEST DUP4 DUP2 LT PUSH2 0x715 JUMPI POP POP PUSH1 0x0 SWAP2 ADD MSTORE JUMP JUMPDEST DUP2 DUP2 ADD MLOAD DUP4 DUP3 ADD MSTORE PUSH1 0x20 ADD PUSH2 0x705 JUMP JUMPDEST SWAP1 PUSH1 0x20 PUSH1 0x3 NOT DUP4 ADD SLT PUSH2 0x195 JUMPI PUSH1 0x4 CALLDATALOAD PUSH8 0xFFFFFFFFFFFFFFFF DUP2 GT PUSH2 0x195 JUMPI DUP3 PUSH1 0x23 DUP3 ADD SLT ISZERO PUSH2 0x195 JUMPI DUP1 PUSH1 0x4 ADD CALLDATALOAD SWAP3 PUSH8 0xFFFFFFFFFFFFFFFF DUP5 GT PUSH2 0x195 JUMPI PUSH1 0x24 DUP5 DUP4 ADD ADD GT PUSH2 0x195 JUMPI PUSH1 0x24 ADD SWAP2 SWAP1 JUMP JUMPDEST PUSH1 0x3 SLOAD DUP2 LT ISZERO PUSH2 0x791 JUMPI PUSH1 0x3 PUSH1 0x0 MSTORE PUSH1 0x20 PUSH1 0x0 KECCAK256 ADD SWAP1 PUSH1 0x0 SWAP1 JUMP JUMPDEST PUSH4 0x4E487B71 PUSH1 0xE0 SHL PUSH1 0x0 MSTORE PUSH1 0x32 PUSH1 0x4 MSTORE PUSH1 0x24 PUSH1 0x0 REVERT JUMPDEST SWAP1 PUSH1 0x1 DUP3 DUP2 SHR SWAP3 AND DUP1 ISZERO PUSH2 0x7D7 JUMPI JUMPDEST PUSH1 0x20 DUP4 LT EQ PUSH2 0x7C1 JUMPI JUMP JUMPDEST PUSH4 0x4E487B71 PUSH1 0xE0 SHL PUSH1 0x0 MSTORE PUSH1 0x22 PUSH1 0x4 MSTORE PUSH1 0x24 PUSH1 0x0 REVERT JUMPDEST SWAP2 PUSH1 0x7F AND SWAP2 PUSH2 0x7B6 JUMP JUMPDEST SWAP1 PUSH1 0x40 MLOAD SWAP2 DUP3 PUSH1 0x0 DUP3 SLOAD SWAP3 PUSH2 0x7F5 DUP5 PUSH2 0x7A7 JUMP JUMPDEST DUP1 DUP5 MSTORE SWAP4 PUSH1 0x1 DUP2 AND SWAP1 DUP2 ISZERO PUSH2 0x863 JUMPI POP PUSH1 0x1 EQ PUSH2 0x81C JUMPI JUMPDEST POP PUSH2 0x81A SWAP3 POP SUB DUP4 PUSH2 0x689 JUMP JUMPDEST JUMP JUMPDEST SWAP1 POP PUSH1 0x0 SWAP3 SWAP2 SWAP3 MSTORE PUSH1 0x20 PUSH1 0x0 KECCAK256 SWAP1 PUSH1 0x0 SWAP2 JUMPDEST DUP2 DUP4 LT PUSH2 0x847 JUMPI POP POP SWAP1 PUSH1 0x20 PUSH2 0x81A SWAP3 DUP3 ADD ADD CODESIZE PUSH2 0x80D JUMP JUMPDEST PUSH1 0x20 SWAP2 SWAP4 POP DUP1 PUSH1 0x1 SWAP2 SLOAD DUP4 DUP6 DUP10 ADD ADD MSTORE ADD SWAP2 ADD SWAP1 SWAP2 DUP5 SWAP3 PUSH2 0x82E JUMP JUMPDEST SWAP1 POP PUSH1 0x20 SWAP3 POP PUSH2 0x81A SWAP5 SWAP2 POP PUSH1 0xFF NOT AND DUP3 DUP5 ADD MSTORE ISZERO ISZERO PUSH1 0x5 SHL DUP3 ADD ADD CODESIZE PUSH2 0x80D JUMP JUMPDEST SWAP1 PUSH1 0x20 SWAP2 PUSH2 0x89E DUP2 MLOAD DUP1 SWAP3 DUP2 DUP6 MSTORE DUP6 DUP1 DUP7 ADD SWAP2 ADD PUSH2 0x702 JUMP JUMPDEST PUSH1 0x1F ADD PUSH1 0x1F NOT AND ADD ADD SWAP1 JUMP JUMPDEST ISZERO PUSH2 0x8B1 JUMPI JUMP JUMPDEST PUSH1 0x40 MLOAD PUSH3 0x461BCD PUSH1 0xE5 SHL DUP2 MSTORE PUSH1 0x20 PUSH1 0x4 DUP3 ADD MSTORE PUSH1 0x9 PUSH1 0x24 DUP3 ADD MSTORE PUSH9 0x2737BA1037BBB732B9 PUSH1 0xB9 SHL PUSH1 0x44 DUP3 ADD MSTORE PUSH1 0x64 SWAP1 REVERT INVALID LOG2 PUSH5 0x6970667358 0x22 SLT KECCAK256 DUP11 0xB8 0x4C POP 0xB6 DELEGATECALL PUSH20 0x3C65CDD5FCB55532EB785361F196A7803259F24B ADDMOD DELEGATECALL SWAP14 SELFDESTRUCT DUP3 PUSH5 0x736F6C6343 STOP ADDMOD SHR STOP CALLER "},"methodIdentifiers":{"addFeed(string,int256,uint8)":"c69f51a8","decimals(string)":"3b2b3204","feedDecimals(string)":"597095ed","getFeedNames()":"fad56f3f","lastUpdated(string)":"233af1b0","latestRoundData(string)":"33f98c77","owner()":"8da5cb5b","prices(string)":"c3825f4b","supportedFeeds(uint256)":"c8a84d94","updatePrice(string,int256)":"2a632795"}}}}}