{"contracts/LPToken.sol":{"LPToken":{"abi":[{"inputs":[{"internalType":"string","name":"name","type":"string"},{"internalType":"string","name":"symbol","type":"string"},{"internalType":"address","name":"_lendingProtocol","type":"address"},{"internalType":"address","name":"_owner","type":"address"}],"stateMutability":"nonpayable","type":"constructor"},{"inputs":[{"internalType":"address","name":"spender","type":"address"},{"internalType":"uint256","name":"allowance","type":"uint256"},{"internalType":"uint256","name":"needed","type":"uint256"}],"name":"ERC20InsufficientAllowance","type":"error"},{"inputs":[{"internalType":"address","name":"sender","type":"address"},{"internalType":"uint256","name":"balance","type":"uint256"},{"internalType":"uint256","name":"needed","type":"uint256"}],"name":"ERC20InsufficientBalance","type":"error"},{"inputs":[{"internalType":"address","name":"approver","type":"address"}],"name":"ERC20InvalidApprover","type":"error"},{"inputs":[{"internalType":"address","name":"receiver","type":"address"}],"name":"ERC20InvalidReceiver","type":"error"},{"inputs":[{"internalType":"address","name":"sender","type":"address"}],"name":"ERC20InvalidSender","type":"error"},{"inputs":[{"internalType":"address","name":"spender","type":"address"}],"name":"ERC20InvalidSpender","type":"error"},{"inputs":[{"internalType":"address","name":"owner","type":"address"}],"name":"OwnableInvalidOwner","type":"error"},{"inputs":[{"internalType":"address","name":"account","type":"address"}],"name":"OwnableUnauthorizedAccount","type":"error"},{"anonymous":false,"inputs":[{"indexed":true,"internalType":"address","name":"owner","type":"address"},{"indexed":true,"internalType":"address","name":"spender","type":"address"},{"indexed":false,"internalType":"uint256","name":"value","type":"uint256"}],"name":"Approval","type":"event"},{"anonymous":false,"inputs":[{"indexed":true,"internalType":"address","name":"from","type":"address"},{"indexed":false,"internalType":"uint256","name":"amount","type":"uint256"}],"name":"Burned","type":"event"},{"anonymous":false,"inputs":[{"indexed":true,"internalType":"address","name":"oldProtocol","type":"address"},{"indexed":true,"internalType":"address","name":"newProtocol","type":"address"}],"name":"LendingProtocolUpdated","type":"event"},{"anonymous":false,"inputs":[{"indexed":true,"internalType":"address","name":"to","type":"address"},{"indexed":false,"internalType":"uint256","name":"amount","type":"uint256"}],"name":"Minted","type":"event"},{"anonymous":false,"inputs":[{"indexed":true,"internalType":"address","name":"previousOwner","type":"address"},{"indexed":true,"internalType":"address","name":"newOwner","type":"address"}],"name":"OwnershipTransferred","type":"event"},{"anonymous":false,"inputs":[{"indexed":true,"internalType":"address","name":"from","type":"address"},{"indexed":true,"internalType":"address","name":"to","type":"address"},{"indexed":false,"internalType":"uint256","name":"value","type":"uint256"}],"name":"Transfer","type":"event"},{"inputs":[{"internalType":"address","name":"owner","type":"address"},{"internalType":"address","name":"spender","type":"address"}],"name":"allowance","outputs":[{"internalType":"uint256","name":"","type":"uint256"}],"stateMutability":"view","type":"function"},{"inputs":[{"internalType":"address","name":"spender","type":"address"},{"internalType":"uint256","name":"value","type":"uint256"}],"name":"approve","outputs":[{"internalType":"bool","name":"","type":"bool"}],"stateMutability":"nonpayable","type":"function"},{"inputs":[{"internalType":"address","name":"account","type":"address"}],"name":"balanceOf","outputs":[{"internalType":"uint256","name":"","type":"uint256"}],"stateMutability":"view","type":"function"},{"inputs":[{"internalType":"address","name":"from","type":"address"},{"internalType":"uint256","name":"amount","type":"uint256"}],"name":"burn","outputs":[],"stateMutability":"nonpayable","type":"function"},{"inputs":[],"name":"decimals","outputs":[{"internalType":"uint8","name":"","type":"uint8"}],"stateMutability":"view","type":"function"},{"inputs":[],"name":"lendingProtocol","outputs":[{"internalType":"address","name":"","type":"address"}],"stateMutability":"view","type":"function"},{"inputs":[{"internalType":"address","name":"to","type":"address"},{"internalType":"uint256","name":"amount","type":"uint256"}],"name":"mint","outputs":[],"stateMutability":"nonpayable","type":"function"},{"inputs":[],"name":"name","outputs":[{"internalType":"string","name":"","type":"string"}],"stateMutability":"view","type":"function"},{"inputs":[],"name":"owner","outputs":[{"internalType":"address","name":"","type":"address"}],"stateMutability":"view","type":"function"},{"inputs":[],"name":"renounceOwnership","outputs":[],"stateMutability":"nonpayable","type":"function"},{"inputs":[],"name":"symbol","outputs":[{"internalType":"string","name":"","type":"string"}],"stateMutability":"view","type":"function"},{"inputs":[],"name":"totalSupply","outputs":[{"internalType":"uint256","name":"","type":"uint256"}],"stateMutability":"view","type":"function"},{"inputs":[{"internalType":"address","name":"to","type":"address"},{"internalType":"uint256","name":"value","type":"uint256"}],"name":"transfer","outputs":[{"internalType":"bool","name":"","type":"bool"}],"stateMutability":"nonpayable","type":"function"},{"inputs":[{"internalType":"address","name":"from","type":"address"},{"internalType":"address","name":"to","type":"address"},{"internalType":"uint256","name":"value","type":"uint256"}],"name":"transferFrom","outputs":[{"internalType":"bool","name":"","type":"bool"}],"stateMutability":"nonpayable","type":"function"},{"inputs":[{"internalType":"address","name":"newOwner","type":"address"}],"name":"transferOwnership","outputs":[],"stateMutability":"nonpayable","type":"function"},{"inputs":[{"internalType":"address","name":"_newLendingProtocol","type":"address"}],"name":"updateLendingProtocol","outputs":[],"stateMutability":"nonpayable","type":"function"}],"evm":{"bytecode":{"linkReferences":{},"object":"6080604052346103ce57610f2380380380610019816103d3565b9283398101906080818303126103ce5780516001600160401b0381116103ce57826100459183016103f8565b602082015190926001600160401b0382116103ce576100659183016103f8565b9061007e606061007760408401610463565b9201610463565b83516001600160401b0381116102d757600354600181811c911680156103c4575b60208210146102b757601f811161035f575b50602094601f82116001146102f8579481929394956000926102ed575b50508160011b916000199060031b1c1916176003555b82516001600160401b0381116102d757600454600181811c911680156102cd575b60208210146102b757601f8111610252575b506020601f82116001146101eb57819293946000926101e0575b50508160011b916000199060031b1c1916176004555b6001600160a01b03169081156101ca57600580546001600160a01b03198116841790915560405192906001600160a01b03167f8be0079c531659141344cd1fd0a4f28419497f9722a3daafe3b4186f6b6457e0600080a3600680546001600160a01b0319166001600160a01b0392909216919091179055610aab90816104788239f35b631e4fbdf760e01b600052600060045260246000fd5b015190503880610131565b601f198216906004600052806000209160005b81811061023a57509583600195969710610221575b505050811b01600455610147565b015160001960f88460031b161c19169055388080610213565b9192602060018192868b0151815501940192016101fe565b60046000527f8a35acfbc15ff81a39ae7d344fd709f28e8600b4aa8c65c6b64bfe7fe36bd19b601f830160051c810191602084106102ad575b601f0160051c01905b8181106102a15750610117565b60008155600101610294565b909150819061028b565b634e487b7160e01b600052602260045260246000fd5b90607f1690610105565b634e487b7160e01b600052604160045260246000fd5b0151905038806100ce565b601f198216956003600052806000209160005b8881106103475750836001959697981061032e575b505050811b016003556100e4565b015160001960f88460031b161c19169055388080610320565b9192602060018192868501518155019401920161030b565b60036000527fc2575a0e9e593c00f959f8c92f12db2869c3395a3b0502d05e2516446f71f85b601f830160051c810191602084106103ba575b601f0160051c01905b8181106103ae57506100b1565b600081556001016103a1565b9091508190610398565b90607f169061009f565b600080fd5b6040519190601f01601f191682016001600160401b038111838210176102d757604052565b81601f820112156103ce578051906001600160401b0382116102d757610427601f8301601f19166020016103d3565b92828452602083830101116103ce5760005b82811061044e57505060206000918301015290565b80602080928401015182828701015201610439565b51906001600160a01b03821682036103ce5756fe608080604052600436101561001357600080fd5b60003560e01c90816306fdde031461081f57508063095ea7b31461079957806318160ddd1461077b57806323b872dd1461068e578063313ce5671461067257806340c10f191461058a57806370a0823114610550578063715018a6146104f357806384436d3e146104ca5780638da5cb5b146104a157806395d89b41146103805780639dc29fac1461028b578063a9059cbb1461025a578063cb737251146101af578063dd62ed3e1461015e5763f2fde38b146100cf57600080fd5b34610159576020366003190112610159576100e861093b565b6100f0610a4c565b6001600160a01b0316801561014357600580546001600160a01b0319811683179091556001600160a01b03167f8be0079c531659141344cd1fd0a4f28419497f9722a3daafe3b4186f6b6457e0600080a3005b631e4fbdf760e01b600052600060045260246000fd5b600080fd5b346101595760403660031901126101595761017761093b565b61017f610951565b6001600160a01b039182166000908152600160209081526040808320949093168252928352819020549051908152f35b34610159576020366003190112610159576101c861093b565b6101d0610a4c565b6001600160a01b0316801561022357600680546001600160a01b0319811683179091556001600160a01b03167f254f484c794cb4c81fc716c685b552fb5b4f5ae2c912bc06d55a74356e1a9e93600080a3005b60405162461bcd60e51b815260206004820152600f60248201526e496e76616c6964206164647265737360881b6044820152606490fd5b346101595760403660031901126101595761028061027661093b565b60243590336109b3565b602060405160018152f35b34610159576040366003190112610159576102a461093b565b602435906102bd60018060a01b03600654163314610967565b6001600160a01b0316801561036a5760009181835282602052604083205481811061035157817f696de425f79f4a40bc6d2122ca50507f0efbeabbff86a84871b7196ab8ea8df792602092858752868452036040862055806002540360025584847fddf252ad1be2c89b69c2b068fc378daa952ba7f163c4a11628f55a4df523b3ef84604051858152a3604051908152a280f35b6064939263391434e360e21b8452600452602452604452fd5b634b637e8f60e11b600052600060045260246000fd5b346101595760003660031901126101595760405160006004548060011c90600181168015610497575b602083108114610483578285529081156104675750600114610410575b50819003601f01601f191681019067ffffffffffffffff8211818310176103fa576103f6829182604052826108f2565b0390f35b634e487b7160e01b600052604160045260246000fd5b905060046000527f8a35acfbc15ff81a39ae7d344fd709f28e8600b4aa8c65c6b64bfe7fe36bd19b6000905b828210610451575060209150820101826103c6565b600181602092548385880101520191019061043c565b90506020925060ff191682840152151560051b820101826103c6565b634e487b7160e01b84526022600452602484fd5b91607f16916103a9565b34610159576000366003190112610159576005546040516001600160a01b039091168152602090f35b34610159576000366003190112610159576006546040516001600160a01b039091168152602090f35b346101595760003660031901126101595761050c610a4c565b600580546001600160a01b031981169091556000906001600160a01b03167f8be0079c531659141344cd1fd0a4f28419497f9722a3daafe3b4186f6b6457e08280a3005b34610159576020366003190112610159576001600160a01b0361057161093b565b1660005260006020526020604060002054604051908152f35b34610159576040366003190112610159576105a361093b565b602435906105bc60018060a01b03600654163314610967565b6001600160a01b0316801561065c57600254828101809111610646576002557f30385c845b448a36257a6a1716e6ad2e1bc2cbe333cde1e69fe849ad6511adfe60206000938385528482526040852081815401905583857fddf252ad1be2c89b69c2b068fc378daa952ba7f163c4a11628f55a4df523b3ef84604051858152a3604051908152a280f35b634e487b7160e01b600052601160045260246000fd5b63ec442f0560e01b600052600060045260246000fd5b3461015957600036600319011261015957602060405160128152f35b34610159576060366003190112610159576106a761093b565b6106af610951565b6001600160a01b03821660008181526001602090815260408083203384529091529020549092604435929160001981106106ef575b5061028093506109b3565b83811061075e57841561074857331561073257610280946000526001602052604060002060018060a01b03331660005260205283604060002091039055846106e4565b634a1406b160e11b600052600060045260246000fd5b63e602df0560e01b600052600060045260246000fd5b8390637dc7a0d960e11b6000523360045260245260445260646000fd5b34610159576000366003190112610159576020600254604051908152f35b34610159576040366003190112610159576107b261093b565b602435903315610748576001600160a01b031690811561073257336000526001602052604060002082600052602052806040600020556040519081527f8c5be1e5ebec7d5bd14f71427d1e84f3dd0314c0f7b2291e5b200ac8c7c3b92560203392a3602060405160018152f35b346101595760003660031901126101595760006003548060011c906001811680156108e8575b6020831081146104835782855290811561046757506001146108915750819003601f01601f191681019067ffffffffffffffff8211818310176103fa576103f6829182604052826108f2565b905060036000527fc2575a0e9e593c00f959f8c92f12db2869c3395a3b0502d05e2516446f71f85b6000905b8282106108d2575060209150820101826103c6565b60018160209254838588010152019101906108bd565b91607f1691610845565b91909160208152825180602083015260005b818110610925575060409293506000838284010152601f8019910116010190565b8060208092870101516040828601015201610904565b600435906001600160a01b038216820361015957565b602435906001600160a01b038216820361015957565b1561096e57565b60405162461bcd60e51b815260206004820152601e60248201527f4f6e6c79206c656e64696e672070726f746f636f6c2063616e2063616c6c00006044820152606490fd5b6001600160a01b031690811561036a576001600160a01b031691821561065c576000828152806020526040812054828110610a325791604082827fddf252ad1be2c89b69c2b068fc378daa952ba7f163c4a11628f55a4df523b3ef958760209652828652038282205586815280845220818154019055604051908152a3565b916064928463391434e360e21b8452600452602452604452fd5b6005546001600160a01b03163303610a6057565b63118cdaa760e01b6000523360045260246000fdfea26469706673582212201ef530fba67a974acdd1867dfdd14d75f23300679ab26febced3638064ef2d5364736f6c634300081c0033","opcodes":"PUSH1 0x80 PUSH1 0x40 MSTORE CALLVALUE PUSH2 0x3CE JUMPI PUSH2 0xF23 DUP1 CODESIZE SUB DUP1 PUSH2 0x19 DUP2 PUSH2 0x3D3 JUMP JUMPDEST SWAP3 DUP4 CODECOPY DUP2 ADD SWAP1 PUSH1 0x80 DUP2 DUP4 SUB SLT PUSH2 0x3CE JUMPI DUP1 MLOAD PUSH1 0x1 PUSH1 0x1 PUSH1 0x40 SHL SUB DUP2 GT PUSH2 0x3CE JUMPI DUP3 PUSH2 0x45 SWAP2 DUP4 ADD PUSH2 0x3F8 JUMP JUMPDEST PUSH1 0x20 DUP3 ADD MLOAD SWAP1 SWAP3 PUSH1 0x1 PUSH1 0x1 PUSH1 0x40 SHL SUB DUP3 GT PUSH2 0x3CE JUMPI PUSH2 0x65 SWAP2 DUP4 ADD PUSH2 0x3F8 JUMP JUMPDEST SWAP1 PUSH2 0x7E PUSH1 0x60 PUSH2 0x77 PUSH1 0x40 DUP5 ADD PUSH2 0x463 JUMP JUMPDEST SWAP3 ADD PUSH2 0x463 JUMP JUMPDEST DUP4 MLOAD PUSH1 0x1 PUSH1 0x1 PUSH1 0x40 SHL SUB DUP2 GT PUSH2 0x2D7 JUMPI PUSH1 0x3 SLOAD PUSH1 0x1 DUP2 DUP2 SHR SWAP2 AND DUP1 ISZERO PUSH2 0x3C4 JUMPI JUMPDEST PUSH1 0x20 DUP3 LT EQ PUSH2 0x2B7 JUMPI PUSH1 0x1F DUP2 GT PUSH2 0x35F JUMPI JUMPDEST POP PUSH1 0x20 SWAP5 PUSH1 0x1F DUP3 GT PUSH1 0x1 EQ PUSH2 0x2F8 JUMPI SWAP5 DUP2 SWAP3 SWAP4 SWAP5 SWAP6 PUSH1 0x0 SWAP3 PUSH2 0x2ED JUMPI JUMPDEST POP POP DUP2 PUSH1 0x1 SHL SWAP2 PUSH1 0x0 NOT SWAP1 PUSH1 0x3 SHL SHR NOT AND OR PUSH1 0x3 SSTORE JUMPDEST DUP3 MLOAD PUSH1 0x1 PUSH1 0x1 PUSH1 0x40 SHL SUB DUP2 GT PUSH2 0x2D7 JUMPI PUSH1 0x4 SLOAD PUSH1 0x1 DUP2 DUP2 SHR SWAP2 AND DUP1 ISZERO PUSH2 0x2CD JUMPI JUMPDEST PUSH1 0x20 DUP3 LT EQ PUSH2 0x2B7 JUMPI PUSH1 0x1F DUP2 GT PUSH2 0x252 JUMPI JUMPDEST POP PUSH1 0x20 PUSH1 0x1F DUP3 GT PUSH1 0x1 EQ PUSH2 0x1EB JUMPI DUP2 SWAP3 SWAP4 SWAP5 PUSH1 0x0 SWAP3 PUSH2 0x1E0 JUMPI JUMPDEST POP POP DUP2 PUSH1 0x1 SHL SWAP2 PUSH1 0x0 NOT SWAP1 PUSH1 0x3 SHL SHR NOT AND OR PUSH1 0x4 SSTORE JUMPDEST PUSH1 0x1 PUSH1 0x1 PUSH1 0xA0 SHL SUB AND SWAP1 DUP2 ISZERO PUSH2 0x1CA JUMPI PUSH1 0x5 DUP1 SLOAD PUSH1 0x1 PUSH1 0x1 PUSH1 0xA0 SHL SUB NOT DUP2 AND DUP5 OR SWAP1 SWAP2 SSTORE PUSH1 0x40 MLOAD SWAP3 SWAP1 PUSH1 0x1 PUSH1 0x1 PUSH1 0xA0 SHL SUB AND PUSH32 0x8BE0079C531659141344CD1FD0A4F28419497F9722A3DAAFE3B4186F6B6457E0 PUSH1 0x0 DUP1 LOG3 PUSH1 0x6 DUP1 SLOAD PUSH1 0x1 PUSH1 0x1 PUSH1 0xA0 SHL SUB NOT AND PUSH1 0x1 PUSH1 0x1 PUSH1 0xA0 SHL SUB SWAP3 SWAP1 SWAP3 AND SWAP2 SWAP1 SWAP2 OR SWAP1 SSTORE PUSH2 0xAAB SWAP1 DUP2 PUSH2 0x478 DUP3 CODECOPY RETURN JUMPDEST PUSH4 0x1E4FBDF7 PUSH1 0xE0 SHL PUSH1 0x0 MSTORE PUSH1 0x0 PUSH1 0x4 MSTORE PUSH1 0x24 PUSH1 0x0 REVERT JUMPDEST ADD MLOAD SWAP1 POP CODESIZE DUP1 PUSH2 0x131 JUMP JUMPDEST PUSH1 0x1F NOT DUP3 AND SWAP1 PUSH1 0x4 PUSH1 0x0 MSTORE DUP1 PUSH1 0x0 KECCAK256 SWAP2 PUSH1 0x0 JUMPDEST DUP2 DUP2 LT PUSH2 0x23A JUMPI POP SWAP6 DUP4 PUSH1 0x1 SWAP6 SWAP7 SWAP8 LT PUSH2 0x221 JUMPI JUMPDEST POP POP POP DUP2 SHL ADD PUSH1 0x4 SSTORE PUSH2 0x147 JUMP JUMPDEST ADD MLOAD PUSH1 0x0 NOT PUSH1 0xF8 DUP5 PUSH1 0x3 SHL AND SHR NOT AND SWAP1 SSTORE CODESIZE DUP1 DUP1 PUSH2 0x213 JUMP JUMPDEST SWAP2 SWAP3 PUSH1 0x20 PUSH1 0x1 DUP2 SWAP3 DUP7 DUP12 ADD MLOAD DUP2 SSTORE ADD SWAP5 ADD SWAP3 ADD PUSH2 0x1FE JUMP JUMPDEST PUSH1 0x4 PUSH1 0x0 MSTORE PUSH32 0x8A35ACFBC15FF81A39AE7D344FD709F28E8600B4AA8C65C6B64BFE7FE36BD19B PUSH1 0x1F DUP4 ADD PUSH1 0x5 SHR DUP2 ADD SWAP2 PUSH1 0x20 DUP5 LT PUSH2 0x2AD JUMPI JUMPDEST PUSH1 0x1F ADD PUSH1 0x5 SHR ADD SWAP1 JUMPDEST DUP2 DUP2 LT PUSH2 0x2A1 JUMPI POP PUSH2 0x117 JUMP JUMPDEST PUSH1 0x0 DUP2 SSTORE PUSH1 0x1 ADD PUSH2 0x294 JUMP JUMPDEST SWAP1 SWAP2 POP DUP2 SWAP1 PUSH2 0x28B JUMP JUMPDEST PUSH4 0x4E487B71 PUSH1 0xE0 SHL PUSH1 0x0 MSTORE PUSH1 0x22 PUSH1 0x4 MSTORE PUSH1 0x24 PUSH1 0x0 REVERT JUMPDEST SWAP1 PUSH1 0x7F AND SWAP1 PUSH2 0x105 JUMP JUMPDEST PUSH4 0x4E487B71 PUSH1 0xE0 SHL PUSH1 0x0 MSTORE PUSH1 0x41 PUSH1 0x4 MSTORE PUSH1 0x24 PUSH1 0x0 REVERT JUMPDEST ADD MLOAD SWAP1 POP CODESIZE DUP1 PUSH2 0xCE JUMP JUMPDEST PUSH1 0x1F NOT DUP3 AND SWAP6 PUSH1 0x3 PUSH1 0x0 MSTORE DUP1 PUSH1 0x0 KECCAK256 SWAP2 PUSH1 0x0 JUMPDEST DUP9 DUP2 LT PUSH2 0x347 JUMPI POP DUP4 PUSH1 0x1 SWAP6 SWAP7 SWAP8 SWAP9 LT PUSH2 0x32E JUMPI JUMPDEST POP POP POP DUP2 SHL ADD PUSH1 0x3 SSTORE PUSH2 0xE4 JUMP JUMPDEST ADD MLOAD PUSH1 0x0 NOT PUSH1 0xF8 DUP5 PUSH1 0x3 SHL AND SHR NOT AND SWAP1 SSTORE CODESIZE DUP1 DUP1 PUSH2 0x320 JUMP JUMPDEST SWAP2 SWAP3 PUSH1 0x20 PUSH1 0x1 DUP2 SWAP3 DUP7 DUP6 ADD MLOAD DUP2 SSTORE ADD SWAP5 ADD SWAP3 ADD PUSH2 0x30B JUMP JUMPDEST PUSH1 0x3 PUSH1 0x0 MSTORE PUSH32 0xC2575A0E9E593C00F959F8C92F12DB2869C3395A3B0502D05E2516446F71F85B PUSH1 0x1F DUP4 ADD PUSH1 0x5 SHR DUP2 ADD SWAP2 PUSH1 0x20 DUP5 LT PUSH2 0x3BA JUMPI JUMPDEST PUSH1 0x1F ADD PUSH1 0x5 SHR ADD SWAP1 JUMPDEST DUP2 DUP2 LT PUSH2 0x3AE JUMPI POP PUSH2 0xB1 JUMP JUMPDEST PUSH1 0x0 DUP2 SSTORE PUSH1 0x1 ADD PUSH2 0x3A1 JUMP JUMPDEST SWAP1 SWAP2 POP DUP2 SWAP1 PUSH2 0x398 JUMP JUMPDEST SWAP1 PUSH1 0x7F AND SWAP1 PUSH2 0x9F JUMP JUMPDEST PUSH1 0x0 DUP1 REVERT JUMPDEST PUSH1 0x40 MLOAD SWAP2 SWAP1 PUSH1 0x1F ADD PUSH1 0x1F NOT AND DUP3 ADD PUSH1 0x1 PUSH1 0x1 PUSH1 0x40 SHL SUB DUP2 GT DUP4 DUP3 LT OR PUSH2 0x2D7 JUMPI PUSH1 0x40 MSTORE JUMP JUMPDEST DUP2 PUSH1 0x1F DUP3 ADD SLT ISZERO PUSH2 0x3CE JUMPI DUP1 MLOAD SWAP1 PUSH1 0x1 PUSH1 0x1 PUSH1 0x40 SHL SUB DUP3 GT PUSH2 0x2D7 JUMPI PUSH2 0x427 PUSH1 0x1F DUP4 ADD PUSH1 0x1F NOT AND PUSH1 0x20 ADD PUSH2 0x3D3 JUMP JUMPDEST SWAP3 DUP3 DUP5 MSTORE PUSH1 0x20 DUP4 DUP4 ADD ADD GT PUSH2 0x3CE JUMPI PUSH1 0x0 JUMPDEST DUP3 DUP2 LT PUSH2 0x44E JUMPI POP POP PUSH1 0x20 PUSH1 0x0 SWAP2 DUP4 ADD ADD MSTORE SWAP1 JUMP JUMPDEST DUP1 PUSH1 0x20 DUP1 SWAP3 DUP5 ADD ADD MLOAD DUP3 DUP3 DUP8 ADD ADD MSTORE ADD PUSH2 0x439 JUMP JUMPDEST MLOAD SWAP1 PUSH1 0x1 PUSH1 0x1 PUSH1 0xA0 SHL SUB DUP3 AND DUP3 SUB PUSH2 0x3CE JUMPI JUMP INVALID PUSH1 0x80 DUP1 PUSH1 0x40 MSTORE PUSH1 0x4 CALLDATASIZE LT ISZERO PUSH2 0x13 JUMPI PUSH1 0x0 DUP1 REVERT JUMPDEST PUSH1 0x0 CALLDATALOAD PUSH1 0xE0 SHR SWAP1 DUP2 PUSH4 0x6FDDE03 EQ PUSH2 0x81F JUMPI POP DUP1 PUSH4 0x95EA7B3 EQ PUSH2 0x799 JUMPI DUP1 PUSH4 0x18160DDD EQ PUSH2 0x77B JUMPI DUP1 PUSH4 0x23B872DD EQ PUSH2 0x68E JUMPI DUP1 PUSH4 0x313CE567 EQ PUSH2 0x672 JUMPI DUP1 PUSH4 0x40C10F19 EQ PUSH2 0x58A JUMPI DUP1 PUSH4 0x70A08231 EQ PUSH2 0x550 JUMPI DUP1 PUSH4 0x715018A6 EQ PUSH2 0x4F3 JUMPI DUP1 PUSH4 0x84436D3E EQ PUSH2 0x4CA JUMPI DUP1 PUSH4 0x8DA5CB5B EQ PUSH2 0x4A1 JUMPI DUP1 PUSH4 0x95D89B41 EQ PUSH2 0x380 JUMPI DUP1 PUSH4 0x9DC29FAC EQ PUSH2 0x28B JUMPI DUP1 PUSH4 0xA9059CBB EQ PUSH2 0x25A JUMPI DUP1 PUSH4 0xCB737251 EQ PUSH2 0x1AF JUMPI DUP1 PUSH4 0xDD62ED3E EQ PUSH2 0x15E JUMPI PUSH4 0xF2FDE38B EQ PUSH2 0xCF JUMPI PUSH1 0x0 DUP1 REVERT JUMPDEST CALLVALUE PUSH2 0x159 JUMPI PUSH1 0x20 CALLDATASIZE PUSH1 0x3 NOT ADD SLT PUSH2 0x159 JUMPI PUSH2 0xE8 PUSH2 0x93B JUMP JUMPDEST PUSH2 0xF0 PUSH2 0xA4C JUMP JUMPDEST PUSH1 0x1 PUSH1 0x1 PUSH1 0xA0 SHL SUB AND DUP1 ISZERO PUSH2 0x143 JUMPI PUSH1 0x5 DUP1 SLOAD PUSH1 0x1 PUSH1 0x1 PUSH1 0xA0 SHL SUB NOT DUP2 AND DUP4 OR SWAP1 SWAP2 SSTORE PUSH1 0x1 PUSH1 0x1 PUSH1 0xA0 SHL SUB AND PUSH32 0x8BE0079C531659141344CD1FD0A4F28419497F9722A3DAAFE3B4186F6B6457E0 PUSH1 0x0 DUP1 LOG3 STOP JUMPDEST PUSH4 0x1E4FBDF7 PUSH1 0xE0 SHL PUSH1 0x0 MSTORE PUSH1 0x0 PUSH1 0x4 MSTORE PUSH1 0x24 PUSH1 0x0 REVERT JUMPDEST PUSH1 0x0 DUP1 REVERT JUMPDEST CALLVALUE PUSH2 0x159 JUMPI PUSH1 0x40 CALLDATASIZE PUSH1 0x3 NOT ADD SLT PUSH2 0x159 JUMPI PUSH2 0x177 PUSH2 0x93B JUMP JUMPDEST PUSH2 0x17F PUSH2 0x951 JUMP JUMPDEST PUSH1 0x1 PUSH1 0x1 PUSH1 0xA0 SHL SUB SWAP2 DUP3 AND PUSH1 0x0 SWAP1 DUP2 MSTORE PUSH1 0x1 PUSH1 0x20 SWAP1 DUP2 MSTORE PUSH1 0x40 DUP1 DUP4 KECCAK256 SWAP5 SWAP1 SWAP4 AND DUP3 MSTORE SWAP3 DUP4 MSTORE DUP2 SWAP1 KECCAK256 SLOAD SWAP1 MLOAD SWAP1 DUP2 MSTORE RETURN JUMPDEST CALLVALUE PUSH2 0x159 JUMPI PUSH1 0x20 CALLDATASIZE PUSH1 0x3 NOT ADD SLT PUSH2 0x159 JUMPI PUSH2 0x1C8 PUSH2 0x93B JUMP JUMPDEST PUSH2 0x1D0 PUSH2 0xA4C JUMP JUMPDEST PUSH1 0x1 PUSH1 0x1 PUSH1 0xA0 SHL SUB AND DUP1 ISZERO PUSH2 0x223 JUMPI PUSH1 0x6 DUP1 SLOAD PUSH1 0x1 PUSH1 0x1 PUSH1 0xA0 SHL SUB NOT DUP2 AND DUP4 OR SWAP1 SWAP2 SSTORE PUSH1 0x1 PUSH1 0x1 PUSH1 0xA0 SHL SUB AND PUSH32 0x254F484C794CB4C81FC716C685B552FB5B4F5AE2C912BC06D55A74356E1A9E93 PUSH1 0x0 DUP1 LOG3 STOP JUMPDEST PUSH1 0x40 MLOAD PUSH3 0x461BCD PUSH1 0xE5 SHL DUP2 MSTORE PUSH1 0x20 PUSH1 0x4 DUP3 ADD MSTORE PUSH1 0xF PUSH1 0x24 DUP3 ADD MSTORE PUSH15 0x496E76616C69642061646472657373 PUSH1 0x88 SHL PUSH1 0x44 DUP3 ADD MSTORE PUSH1 0x64 SWAP1 REVERT JUMPDEST CALLVALUE PUSH2 0x159 JUMPI PUSH1 0x40 CALLDATASIZE PUSH1 0x3 NOT ADD SLT PUSH2 0x159 JUMPI PUSH2 0x280 PUSH2 0x276 PUSH2 0x93B JUMP JUMPDEST PUSH1 0x24 CALLDATALOAD SWAP1 CALLER PUSH2 0x9B3 JUMP JUMPDEST PUSH1 0x20 PUSH1 0x40 MLOAD PUSH1 0x1 DUP2 MSTORE RETURN JUMPDEST CALLVALUE PUSH2 0x159 JUMPI PUSH1 0x40 CALLDATASIZE PUSH1 0x3 NOT ADD SLT PUSH2 0x159 JUMPI PUSH2 0x2A4 PUSH2 0x93B JUMP JUMPDEST PUSH1 0x24 CALLDATALOAD SWAP1 PUSH2 0x2BD PUSH1 0x1 DUP1 PUSH1 0xA0 SHL SUB PUSH1 0x6 SLOAD AND CALLER EQ PUSH2 0x967 JUMP JUMPDEST PUSH1 0x1 PUSH1 0x1 PUSH1 0xA0 SHL SUB AND DUP1 ISZERO PUSH2 0x36A JUMPI PUSH1 0x0 SWAP2 DUP2 DUP4 MSTORE DUP3 PUSH1 0x20 MSTORE PUSH1 0x40 DUP4 KECCAK256 SLOAD DUP2 DUP2 LT PUSH2 0x351 JUMPI DUP2 PUSH32 0x696DE425F79F4A40BC6D2122CA50507F0EFBEABBFF86A84871B7196AB8EA8DF7 SWAP3 PUSH1 0x20 SWAP3 DUP6 DUP8 MSTORE DUP7 DUP5 MSTORE SUB PUSH1 0x40 DUP7 KECCAK256 SSTORE DUP1 PUSH1 0x2 SLOAD SUB PUSH1 0x2 SSTORE DUP5 DUP5 PUSH32 0xDDF252AD1BE2C89B69C2B068FC378DAA952BA7F163C4A11628F55A4DF523B3EF DUP5 PUSH1 0x40 MLOAD DUP6 DUP2 MSTORE LOG3 PUSH1 0x40 MLOAD SWAP1 DUP2 MSTORE LOG2 DUP1 RETURN JUMPDEST PUSH1 0x64 SWAP4 SWAP3 PUSH4 0x391434E3 PUSH1 0xE2 SHL DUP5 MSTORE PUSH1 0x4 MSTORE PUSH1 0x24 MSTORE PUSH1 0x44 MSTORE REVERT JUMPDEST PUSH4 0x4B637E8F PUSH1 0xE1 SHL PUSH1 0x0 MSTORE PUSH1 0x0 PUSH1 0x4 MSTORE PUSH1 0x24 PUSH1 0x0 REVERT JUMPDEST CALLVALUE PUSH2 0x159 JUMPI PUSH1 0x0 CALLDATASIZE PUSH1 0x3 NOT ADD SLT PUSH2 0x159 JUMPI PUSH1 0x40 MLOAD PUSH1 0x0 PUSH1 0x4 SLOAD DUP1 PUSH1 0x1 SHR SWAP1 PUSH1 0x1 DUP2 AND DUP1 ISZERO PUSH2 0x497 JUMPI JUMPDEST PUSH1 0x20 DUP4 LT DUP2 EQ PUSH2 0x483 JUMPI DUP3 DUP6 MSTORE SWAP1 DUP2 ISZERO PUSH2 0x467 JUMPI POP PUSH1 0x1 EQ PUSH2 0x410 JUMPI JUMPDEST POP DUP2 SWAP1 SUB PUSH1 0x1F ADD PUSH1 0x1F NOT AND DUP2 ADD SWAP1 PUSH8 0xFFFFFFFFFFFFFFFF DUP3 GT DUP2 DUP4 LT OR PUSH2 0x3FA JUMPI PUSH2 0x3F6 DUP3 SWAP2 DUP3 PUSH1 0x40 MSTORE DUP3 PUSH2 0x8F2 JUMP JUMPDEST SUB SWAP1 RETURN JUMPDEST PUSH4 0x4E487B71 PUSH1 0xE0 SHL PUSH1 0x0 MSTORE PUSH1 0x41 PUSH1 0x4 MSTORE PUSH1 0x24 PUSH1 0x0 REVERT JUMPDEST SWAP1 POP PUSH1 0x4 PUSH1 0x0 MSTORE PUSH32 0x8A35ACFBC15FF81A39AE7D344FD709F28E8600B4AA8C65C6B64BFE7FE36BD19B PUSH1 0x0 SWAP1 JUMPDEST DUP3 DUP3 LT PUSH2 0x451 JUMPI POP PUSH1 0x20 SWAP2 POP DUP3 ADD ADD DUP3 PUSH2 0x3C6 JUMP JUMPDEST PUSH1 0x1 DUP2 PUSH1 0x20 SWAP3 SLOAD DUP4 DUP6 DUP9 ADD ADD MSTORE ADD SWAP2 ADD SWAP1 PUSH2 0x43C JUMP JUMPDEST SWAP1 POP PUSH1 0x20 SWAP3 POP PUSH1 0xFF NOT AND DUP3 DUP5 ADD MSTORE ISZERO ISZERO PUSH1 0x5 SHL DUP3 ADD ADD DUP3 PUSH2 0x3C6 JUMP JUMPDEST PUSH4 0x4E487B71 PUSH1 0xE0 SHL DUP5 MSTORE PUSH1 0x22 PUSH1 0x4 MSTORE PUSH1 0x24 DUP5 REVERT JUMPDEST SWAP2 PUSH1 0x7F AND SWAP2 PUSH2 0x3A9 JUMP JUMPDEST CALLVALUE PUSH2 0x159 JUMPI PUSH1 0x0 CALLDATASIZE PUSH1 0x3 NOT ADD SLT PUSH2 0x159 JUMPI PUSH1 0x5 SLOAD PUSH1 0x40 MLOAD PUSH1 0x1 PUSH1 0x1 PUSH1 0xA0 SHL SUB SWAP1 SWAP2 AND DUP2 MSTORE PUSH1 0x20 SWAP1 RETURN JUMPDEST CALLVALUE PUSH2 0x159 JUMPI PUSH1 0x0 CALLDATASIZE PUSH1 0x3 NOT ADD SLT PUSH2 0x159 JUMPI PUSH1 0x6 SLOAD PUSH1 0x40 MLOAD PUSH1 0x1 PUSH1 0x1 PUSH1 0xA0 SHL SUB SWAP1 SWAP2 AND DUP2 MSTORE PUSH1 0x20 SWAP1 RETURN JUMPDEST CALLVALUE PUSH2 0x159 JUMPI PUSH1 0x0 CALLDATASIZE PUSH1 0x3 NOT ADD SLT PUSH2 0x159 JUMPI PUSH2 0x50C PUSH2 0xA4C JUMP JUMPDEST PUSH1 0x5 DUP1 SLOAD PUSH1 0x1 PUSH1 0x1 PUSH1 0xA0 SHL SUB NOT DUP2 AND SWAP1 SWAP2 SSTORE PUSH1 0x0 SWAP1 PUSH1 0x1 PUSH1 0x1 PUSH1 0xA0 SHL SUB AND PUSH32 0x8BE0079C531659141344CD1FD0A4F28419497F9722A3DAAFE3B4186F6B6457E0 DUP3 DUP1 LOG3 STOP JUMPDEST CALLVALUE PUSH2 0x159 JUMPI PUSH1 0x20 CALLDATASIZE PUSH1 0x3 NOT ADD SLT PUSH2 0x159 JUMPI PUSH1 0x1 PUSH1 0x1 PUSH1 0xA0 SHL SUB PUSH2 0x571 PUSH2 0x93B JUMP JUMPDEST AND PUSH1 0x0 MSTORE PUSH1 0x0 PUSH1 0x20 MSTORE PUSH1 0x20 PUSH1 0x40 PUSH1 0x0 KECCAK256 SLOAD PUSH1 0x40 MLOAD SWAP1 DUP2 MSTORE RETURN JUMPDEST CALLVALUE PUSH2 0x159 JUMPI PUSH1 0x40 CALLDATASIZE PUSH1 0x3 NOT ADD SLT PUSH2 0x159 JUMPI PUSH2 0x5A3 PUSH2 0x93B JUMP JUMPDEST PUSH1 0x24 CALLDATALOAD SWAP1 PUSH2 0x5BC PUSH1 0x1 DUP1 PUSH1 0xA0 SHL SUB PUSH1 0x6 SLOAD AND CALLER EQ PUSH2 0x967 JUMP JUMPDEST PUSH1 0x1 PUSH1 0x1 PUSH1 0xA0 SHL SUB AND DUP1 ISZERO PUSH2 0x65C JUMPI PUSH1 0x2 SLOAD DUP3 DUP2 ADD DUP1 SWAP2 GT PUSH2 0x646 JUMPI PUSH1 0x2 SSTORE PUSH32 0x30385C845B448A36257A6A1716E6AD2E1BC2CBE333CDE1E69FE849AD6511ADFE PUSH1 0x20 PUSH1 0x0 SWAP4 DUP4 DUP6 MSTORE DUP5 DUP3 MSTORE PUSH1 0x40 DUP6 KECCAK256 DUP2 DUP2 SLOAD ADD SWAP1 SSTORE DUP4 DUP6 PUSH32 0xDDF252AD1BE2C89B69C2B068FC378DAA952BA7F163C4A11628F55A4DF523B3EF DUP5 PUSH1 0x40 MLOAD DUP6 DUP2 MSTORE LOG3 PUSH1 0x40 MLOAD SWAP1 DUP2 MSTORE LOG2 DUP1 RETURN JUMPDEST PUSH4 0x4E487B71 PUSH1 0xE0 SHL PUSH1 0x0 MSTORE PUSH1 0x11 PUSH1 0x4 MSTORE PUSH1 0x24 PUSH1 0x0 REVERT JUMPDEST PUSH4 0xEC442F05 PUSH1 0xE0 SHL PUSH1 0x0 MSTORE PUSH1 0x0 PUSH1 0x4 MSTORE PUSH1 0x24 PUSH1 0x0 REVERT JUMPDEST CALLVALUE PUSH2 0x159 JUMPI PUSH1 0x0 CALLDATASIZE PUSH1 0x3 NOT ADD SLT PUSH2 0x159 JUMPI PUSH1 0x20 PUSH1 0x40 MLOAD PUSH1 0x12 DUP2 MSTORE RETURN JUMPDEST CALLVALUE PUSH2 0x159 JUMPI PUSH1 0x60 CALLDATASIZE PUSH1 0x3 NOT ADD SLT PUSH2 0x159 JUMPI PUSH2 0x6A7 PUSH2 0x93B JUMP JUMPDEST PUSH2 0x6AF PUSH2 0x951 JUMP JUMPDEST PUSH1 0x1 PUSH1 0x1 PUSH1 0xA0 SHL SUB DUP3 AND PUSH1 0x0 DUP2 DUP2 MSTORE PUSH1 0x1 PUSH1 0x20 SWAP1 DUP2 MSTORE PUSH1 0x40 DUP1 DUP4 KECCAK256 CALLER DUP5 MSTORE SWAP1 SWAP2 MSTORE SWAP1 KECCAK256 SLOAD SWAP1 SWAP3 PUSH1 0x44 CALLDATALOAD SWAP3 SWAP2 PUSH1 0x0 NOT DUP2 LT PUSH2 0x6EF JUMPI JUMPDEST POP PUSH2 0x280 SWAP4 POP PUSH2 0x9B3 JUMP JUMPDEST DUP4 DUP2 LT PUSH2 0x75E JUMPI DUP5 ISZERO PUSH2 0x748 JUMPI CALLER ISZERO PUSH2 0x732 JUMPI PUSH2 0x280 SWAP5 PUSH1 0x0 MSTORE PUSH1 0x1 PUSH1 0x20 MSTORE PUSH1 0x40 PUSH1 0x0 KECCAK256 PUSH1 0x1 DUP1 PUSH1 0xA0 SHL SUB CALLER AND PUSH1 0x0 MSTORE PUSH1 0x20 MSTORE DUP4 PUSH1 0x40 PUSH1 0x0 KECCAK256 SWAP2 SUB SWAP1 SSTORE DUP5 PUSH2 0x6E4 JUMP JUMPDEST PUSH4 0x4A1406B1 PUSH1 0xE1 SHL PUSH1 0x0 MSTORE PUSH1 0x0 PUSH1 0x4 MSTORE PUSH1 0x24 PUSH1 0x0 REVERT JUMPDEST PUSH4 0xE602DF05 PUSH1 0xE0 SHL PUSH1 0x0 MSTORE PUSH1 0x0 PUSH1 0x4 MSTORE PUSH1 0x24 PUSH1 0x0 REVERT JUMPDEST DUP4 SWAP1 PUSH4 0x7DC7A0D9 PUSH1 0xE1 SHL PUSH1 0x0 MSTORE CALLER PUSH1 0x4 MSTORE PUSH1 0x24 MSTORE PUSH1 0x44 MSTORE PUSH1 0x64 PUSH1 0x0 REVERT JUMPDEST CALLVALUE PUSH2 0x159 JUMPI PUSH1 0x0 CALLDATASIZE PUSH1 0x3 NOT ADD SLT PUSH2 0x159 JUMPI PUSH1 0x20 PUSH1 0x2 SLOAD PUSH1 0x40 MLOAD SWAP1 DUP2 MSTORE RETURN JUMPDEST CALLVALUE PUSH2 0x159 JUMPI PUSH1 0x40 CALLDATASIZE PUSH1 0x3 NOT ADD SLT PUSH2 0x159 JUMPI PUSH2 0x7B2 PUSH2 0x93B JUMP JUMPDEST PUSH1 0x24 CALLDATALOAD SWAP1 CALLER ISZERO PUSH2 0x748 JUMPI PUSH1 0x1 PUSH1 0x1 PUSH1 0xA0 SHL SUB AND SWAP1 DUP2 ISZERO PUSH2 0x732 JUMPI CALLER PUSH1 0x0 MSTORE PUSH1 0x1 PUSH1 0x20 MSTORE PUSH1 0x40 PUSH1 0x0 KECCAK256 DUP3 PUSH1 0x0 MSTORE PUSH1 0x20 MSTORE DUP1 PUSH1 0x40 PUSH1 0x0 KECCAK256 SSTORE PUSH1 0x40 MLOAD SWAP1 DUP2 MSTORE PUSH32 0x8C5BE1E5EBEC7D5BD14F71427D1E84F3DD0314C0F7B2291E5B200AC8C7C3B925 PUSH1 0x20 CALLER SWAP3 LOG3 PUSH1 0x20 PUSH1 0x40 MLOAD PUSH1 0x1 DUP2 MSTORE RETURN JUMPDEST CALLVALUE PUSH2 0x159 JUMPI PUSH1 0x0 CALLDATASIZE PUSH1 0x3 NOT ADD SLT PUSH2 0x159 JUMPI PUSH1 0x0 PUSH1 0x3 SLOAD DUP1 PUSH1 0x1 SHR SWAP1 PUSH1 0x1 DUP2 AND DUP1 ISZERO PUSH2 0x8E8 JUMPI JUMPDEST PUSH1 0x20 DUP4 LT DUP2 EQ PUSH2 0x483 JUMPI DUP3 DUP6 MSTORE SWAP1 DUP2 ISZERO PUSH2 0x467 JUMPI POP PUSH1 0x1 EQ PUSH2 0x891 JUMPI POP DUP2 SWAP1 SUB PUSH1 0x1F ADD PUSH1 0x1F NOT AND DUP2 ADD SWAP1 PUSH8 0xFFFFFFFFFFFFFFFF DUP3 GT DUP2 DUP4 LT OR PUSH2 0x3FA JUMPI PUSH2 0x3F6 DUP3 SWAP2 DUP3 PUSH1 0x40 MSTORE DUP3 PUSH2 0x8F2 JUMP JUMPDEST SWAP1 POP PUSH1 0x3 PUSH1 0x0 MSTORE PUSH32 0xC2575A0E9E593C00F959F8C92F12DB2869C3395A3B0502D05E2516446F71F85B PUSH1 0x0 SWAP1 JUMPDEST DUP3 DUP3 LT PUSH2 0x8D2 JUMPI POP PUSH1 0x20 SWAP2 POP DUP3 ADD ADD DUP3 PUSH2 0x3C6 JUMP JUMPDEST PUSH1 0x1 DUP2 PUSH1 0x20 SWAP3 SLOAD DUP4 DUP6 DUP9 ADD ADD MSTORE ADD SWAP2 ADD SWAP1 PUSH2 0x8BD JUMP JUMPDEST SWAP2 PUSH1 0x7F AND SWAP2 PUSH2 0x845 JUMP JUMPDEST SWAP2 SWAP1 SWAP2 PUSH1 0x20 DUP2 MSTORE DUP3 MLOAD DUP1 PUSH1 0x20 DUP4 ADD MSTORE PUSH1 0x0 JUMPDEST DUP2 DUP2 LT PUSH2 0x925 JUMPI POP PUSH1 0x40 SWAP3 SWAP4 POP PUSH1 0x0 DUP4 DUP3 DUP5 ADD ADD MSTORE PUSH1 0x1F DUP1 NOT SWAP2 ADD AND ADD ADD SWAP1 JUMP JUMPDEST DUP1 PUSH1 0x20 DUP1 SWAP3 DUP8 ADD ADD MLOAD PUSH1 0x40 DUP3 DUP7 ADD ADD MSTORE ADD PUSH2 0x904 JUMP JUMPDEST PUSH1 0x4 CALLDATALOAD SWAP1 PUSH1 0x1 PUSH1 0x1 PUSH1 0xA0 SHL SUB DUP3 AND DUP3 SUB PUSH2 0x159 JUMPI JUMP JUMPDEST PUSH1 0x24 CALLDATALOAD SWAP1 PUSH1 0x1 PUSH1 0x1 PUSH1 0xA0 SHL SUB DUP3 AND DUP3 SUB PUSH2 0x159 JUMPI JUMP JUMPDEST ISZERO PUSH2 0x96E JUMPI JUMP JUMPDEST PUSH1 0x40 MLOAD PUSH3 0x461BCD PUSH1 0xE5 SHL DUP2 MSTORE PUSH1 0x20 PUSH1 0x4 DUP3 ADD MSTORE PUSH1 0x1E PUSH1 0x24 DUP3 ADD MSTORE PUSH32 0x4F6E6C79206C656E64696E672070726F746F636F6C2063616E2063616C6C0000 PUSH1 0x44 DUP3 ADD MSTORE PUSH1 0x64 SWAP1 REVERT JUMPDEST PUSH1 0x1 PUSH1 0x1 PUSH1 0xA0 SHL SUB AND SWAP1 DUP2 ISZERO PUSH2 0x36A JUMPI PUSH1 0x1 PUSH1 0x1 PUSH1 0xA0 SHL SUB AND SWAP2 DUP3 ISZERO PUSH2 0x65C JUMPI PUSH1 0x0 DUP3 DUP2 MSTORE DUP1 PUSH1 0x20 MSTORE PUSH1 0x40 DUP2 KECCAK256 SLOAD DUP3 DUP2 LT PUSH2 0xA32 JUMPI SWAP2 PUSH1 0x40 DUP3 DUP3 PUSH32 0xDDF252AD1BE2C89B69C2B068FC378DAA952BA7F163C4A11628F55A4DF523B3EF SWAP6 DUP8 PUSH1 0x20 SWAP7 MSTORE DUP3 DUP7 MSTORE SUB DUP3 DUP3 KECCAK256 SSTORE DUP7 DUP2 MSTORE DUP1 DUP5 MSTORE KECCAK256 DUP2 DUP2 SLOAD ADD SWAP1 SSTORE PUSH1 0x40 MLOAD SWAP1 DUP2 MSTORE LOG3 JUMP JUMPDEST SWAP2 PUSH1 0x64 SWAP3 DUP5 PUSH4 0x391434E3 PUSH1 0xE2 SHL DUP5 MSTORE PUSH1 0x4 MSTORE PUSH1 0x24 MSTORE PUSH1 0x44 MSTORE REVERT JUMPDEST PUSH1 0x5 SLOAD PUSH1 0x1 PUSH1 0x1 PUSH1 0xA0 SHL SUB AND CALLER SUB PUSH2 0xA60 JUMPI JUMP JUMPDEST PUSH4 0x118CDAA7 PUSH1 0xE0 SHL PUSH1 0x0 MSTORE CALLER PUSH1 0x4 MSTORE PUSH1 0x24 PUSH1 0x0 REVERT INVALID LOG2 PUSH5 0x6970667358 0x22 SLT KECCAK256 0x1E CREATE2 ADDRESS 0xFB 0xA6 PUSH27 0x974ACDD1867DFDD14D75F23300679AB26FEBCED3638064EF2D5364 PUSH20 0x6F6C634300081C00330000000000000000000000 "},"methodIdentifiers":{"allowance(address,address)":"dd62ed3e","approve(address,uint256)":"095ea7b3","balanceOf(address)":"70a08231","burn(address,uint256)":"9dc29fac","decimals()":"313ce567","lendingProtocol()":"84436d3e","mint(address,uint256)":"40c10f19","name()":"06fdde03","owner()":"8da5cb5b","renounceOwnership()":"715018a6","symbol()":"95d89b41","totalSupply()":"18160ddd","transfer(address,uint256)":"a9059cbb","transferFrom(address,address,uint256)":"23b872dd","transferOwnership(address)":"f2fde38b","updateLendingProtocol(address)":"cb737251"}}}}}