{"contracts/DummyUSDT.sol":{"DummyUSDT":{"abi":[{"inputs":[{"internalType":"uint256","name":"initialSupply","type":"uint256"}],"stateMutability":"nonpayable","type":"constructor"},{"inputs":[{"internalType":"address","name":"spender","type":"address"},{"internalType":"uint256","name":"allowance","type":"uint256"},{"internalType":"uint256","name":"needed","type":"uint256"}],"name":"ERC20InsufficientAllowance","type":"error"},{"inputs":[{"internalType":"address","name":"sender","type":"address"},{"internalType":"uint256","name":"balance","type":"uint256"},{"internalType":"uint256","name":"needed","type":"uint256"}],"name":"ERC20InsufficientBalance","type":"error"},{"inputs":[{"internalType":"address","name":"approver","type":"address"}],"name":"ERC20InvalidApprover","type":"error"},{"inputs":[{"internalType":"address","name":"receiver","type":"address"}],"name":"ERC20InvalidReceiver","type":"error"},{"inputs":[{"internalType":"address","name":"sender","type":"address"}],"name":"ERC20InvalidSender","type":"error"},{"inputs":[{"internalType":"address","name":"spender","type":"address"}],"name":"ERC20InvalidSpender","type":"error"},{"inputs":[],"name":"FaucetCooldown","type":"error"},{"inputs":[],"name":"FaucetEmpty","type":"error"},{"inputs":[{"internalType":"address","name":"owner","type":"address"}],"name":"OwnableInvalidOwner","type":"error"},{"inputs":[{"internalType":"address","name":"account","type":"address"}],"name":"OwnableUnauthorizedAccount","type":"error"},{"anonymous":false,"inputs":[{"indexed":true,"internalType":"address","name":"owner","type":"address"},{"indexed":true,"internalType":"address","name":"spender","type":"address"},{"indexed":false,"internalType":"uint256","name":"value","type":"uint256"}],"name":"Approval","type":"event"},{"anonymous":false,"inputs":[{"indexed":true,"internalType":"address","name":"user","type":"address"},{"indexed":false,"internalType":"uint256","name":"amount","type":"uint256"}],"name":"FaucetClaimed","type":"event"},{"anonymous":false,"inputs":[{"indexed":false,"internalType":"uint256","name":"amount","type":"uint256"}],"name":"FaucetFunded","type":"event"},{"anonymous":false,"inputs":[{"indexed":true,"internalType":"address","name":"previousOwner","type":"address"},{"indexed":true,"internalType":"address","name":"newOwner","type":"address"}],"name":"OwnershipTransferred","type":"event"},{"anonymous":false,"inputs":[{"indexed":true,"internalType":"address","name":"from","type":"address"},{"indexed":true,"internalType":"address","name":"to","type":"address"},{"indexed":false,"internalType":"uint256","name":"value","type":"uint256"}],"name":"Transfer","type":"event"},{"inputs":[],"name":"FAUCET_AMOUNT","outputs":[{"internalType":"uint256","name":"","type":"uint256"}],"stateMutability":"view","type":"function"},{"inputs":[],"name":"FAUCET_COOLDOWN","outputs":[{"internalType":"uint256","name":"","type":"uint256"}],"stateMutability":"view","type":"function"},{"inputs":[{"internalType":"address","name":"owner","type":"address"},{"internalType":"address","name":"spender","type":"address"}],"name":"allowance","outputs":[{"internalType":"uint256","name":"","type":"uint256"}],"stateMutability":"view","type":"function"},{"inputs":[{"internalType":"address","name":"spender","type":"address"},{"internalType":"uint256","name":"value","type":"uint256"}],"name":"approve","outputs":[{"internalType":"bool","name":"","type":"bool"}],"stateMutability":"nonpayable","type":"function"},{"inputs":[{"internalType":"address","name":"account","type":"address"}],"name":"balanceOf","outputs":[{"internalType":"uint256","name":"","type":"uint256"}],"stateMutability":"view","type":"function"},{"inputs":[{"internalType":"address","name":"user","type":"address"}],"name":"canClaimFaucet","outputs":[{"internalType":"bool","name":"","type":"bool"}],"stateMutability":"view","type":"function"},{"inputs":[],"name":"decimals","outputs":[{"internalType":"uint8","name":"","type":"uint8"}],"stateMutability":"view","type":"function"},{"inputs":[],"name":"faucet","outputs":[],"stateMutability":"nonpayable","type":"function"},{"inputs":[{"internalType":"uint256","name":"amount","type":"uint256"}],"name":"fundFaucet","outputs":[],"stateMutability":"nonpayable","type":"function"},{"inputs":[],"name":"getFaucetBalance","outputs":[{"internalType":"uint256","name":"","type":"uint256"}],"stateMutability":"view","type":"function"},{"inputs":[{"internalType":"address","name":"user","type":"address"}],"name":"getTimeUntilNextClaim","outputs":[{"internalType":"uint256","name":"","type":"uint256"}],"stateMutability":"view","type":"function"},{"inputs":[{"internalType":"address","name":"","type":"address"}],"name":"lastFaucetClaim","outputs":[{"internalType":"uint256","name":"","type":"uint256"}],"stateMutability":"view","type":"function"},{"inputs":[{"internalType":"address","name":"to","type":"address"},{"internalType":"uint256","name":"amount","type":"uint256"}],"name":"mint","outputs":[],"stateMutability":"nonpayable","type":"function"},{"inputs":[],"name":"name","outputs":[{"internalType":"string","name":"","type":"string"}],"stateMutability":"view","type":"function"},{"inputs":[],"name":"owner","outputs":[{"internalType":"address","name":"","type":"address"}],"stateMutability":"view","type":"function"},{"inputs":[],"name":"renounceOwnership","outputs":[],"stateMutability":"nonpayable","type":"function"},{"inputs":[],"name":"symbol","outputs":[{"internalType":"string","name":"","type":"string"}],"stateMutability":"view","type":"function"},{"inputs":[],"name":"totalSupply","outputs":[{"internalType":"uint256","name":"","type":"uint256"}],"stateMutability":"view","type":"function"},{"inputs":[{"internalType":"address","name":"to","type":"address"},{"internalType":"uint256","name":"value","type":"uint256"}],"name":"transfer","outputs":[{"internalType":"bool","name":"","type":"bool"}],"stateMutability":"nonpayable","type":"function"},{"inputs":[{"internalType":"address","name":"from","type":"address"},{"internalType":"address","name":"to","type":"address"},{"internalType":"uint256","name":"value","type":"uint256"}],"name":"transferFrom","outputs":[{"internalType":"bool","name":"","type":"bool"}],"stateMutability":"nonpayable","type":"function"},{"inputs":[{"internalType":"address","name":"newOwner","type":"address"}],"name":"transferOwnership","outputs":[],"stateMutability":"nonpayable","type":"function"},{"inputs":[],"name":"withdrawFaucetFunds","outputs":[],"stateMutability":"nonpayable","type":"function"}],"evm":{"bytecode":{"linkReferences":{},"object":"6080604052346103ee576110ef6020813803918261001c816103f3565b9384928339810103126103ee575161003460406103f3565b90600a825269111d5b5b5e481554d11560b21b602083015261005660406103f3565b6005815264111554d11560da1b602082015282519091906001600160401b0381116102f757600354600181811c911680156103e4575b60208210146102d757601f811161037f575b506020601f8211600114610318578192939460009261030d575b50508160011b916000199060031b1c1916176003555b81516001600160401b0381116102f757600454600181811c911680156102ed575b60208210146102d757601f8111610272575b50602092601f821160011461020d5792819293600092610202575b50508160011b916000199060031b1c1916176004555b33156101ec5760058054336001600160a01b0319821681179092557f1d2d38bd8a2bbf569e5c5ab629156e01d52761e35f52df2cba12da70e27bf8c992602092600a926101cb9291906001600160a01b03167f8be0079c531659141344cd1fd0a4f28419497f9722a3daafe3b4186f6b6457e0600080a3670de0b6b3a7640000906101c66101c08383610418565b33610441565b610418565b046101d68130610441565b604051908152a1604051610c3890816104b78239f35b631e4fbdf760e01b600052600060045260246000fd5b01519050388061011c565b601f198216936004600052806000209160005b86811061025a5750836001959610610241575b505050811b01600455610132565b015160001960f88460031b161c19169055388080610233565b91926020600181928685015181550194019201610220565b60046000527f8a35acfbc15ff81a39ae7d344fd709f28e8600b4aa8c65c6b64bfe7fe36bd19b601f830160051c810191602084106102cd575b601f0160051c01905b8181106102c15750610101565b600081556001016102b4565b90915081906102ab565b634e487b7160e01b600052602260045260246000fd5b90607f16906100ef565b634e487b7160e01b600052604160045260246000fd5b0151905038806100b8565b601f198216906003600052806000209160005b8181106103675750958360019596971061034e575b505050811b016003556100ce565b015160001960f88460031b161c19169055388080610340565b9192602060018192868b01518155019401920161032b565b60036000527fc2575a0e9e593c00f959f8c92f12db2869c3395a3b0502d05e2516446f71f85b601f830160051c810191602084106103da575b601f0160051c01905b8181106103ce575061009e565b600081556001016103c1565b90915081906103b8565b90607f169061008c565b600080fd5b6040519190601f01601f191682016001600160401b038111838210176102f757604052565b8181029291811591840414171561042b57565b634e487b7160e01b600052601160045260246000fd5b6001600160a01b03169081156104a05760025481810180911161042b576002557fddf252ad1be2c89b69c2b068fc378daa952ba7f163c4a11628f55a4df523b3ef602060009284845283825260408420818154019055604051908152a3565b63ec442f0560e01b600052600060045260246000fdfe608080604052600436101561001357600080fd5b60003560e01c90816301d8a2961461098c5750806306fdde03146108b657806308828c981461086e578063095ea7b3146107e857806318160ddd146107ca57806323b872dd146106dd578063313ce567146106c157806340c10f191461063b5780636d07b7e51461061857806370a08231146105df578063715018a614610582578063766976401461055e5780637d1d5d19146105405780638a877205146105065780638da5cb5b146104dd57806395d89b41146103bc578063a9059cbb1461038b578063ae0140b414610338578063dd62ed3e146102e7578063de5f72fd146101cb578063f1f959a6146101a05763f2fde38b1461011157600080fd5b3461019b57602036600319011261019b5761012a6109fc565b610132610ac5565b6001600160a01b0316801561018557600580546001600160a01b0319811683179091556001600160a01b03167f8be0079c531659141344cd1fd0a4f28419497f9722a3daafe3b4186f6b6457e0600080a3005b631e4fbdf760e01b600052600060045260246000fd5b600080fd5b3461019b57600036600319011261019b5730600090815260208181526040909120545b604051908152f35b3461019b57600036600319011261019b573360005260066020526040600020546201518081018091116102d15742106102c057306000526000602052683635c9adc5dea00000604060002054106102af573360005260066020524260406000205530156102995733156102835761024c683635c9adc5dea000003330610b19565b604051683635c9adc5dea0000081527f5d4f415c63cd8a5874d9d291cdd64cec37e5dc236d90d659c958d109d78074b360203392a2005b63ec442f0560e01b600052600060045260246000fd5b634b637e8f60e11b600052600060045260246000fd5b63c1336f8560e01b60005260046000fd5b63313b880360e11b60005260046000fd5b634e487b7160e01b600052601160045260246000fd5b3461019b57604036600319011261019b576103006109fc565b610308610a12565b6001600160a01b039182166000908152600160209081526040808320949093168252928352819020549051908152f35b3461019b57602036600319011261019b577f1d2d38bd8a2bbf569e5c5ab629156e01d52761e35f52df2cba12da70e27bf8c96020600435610377610ac5565b610382813033610aee565b604051908152a1005b3461019b57604036600319011261019b576103b16103a76109fc565b6024359033610aee565b602060405160018152f35b3461019b57600036600319011261019b5760405160006004548060011c906001811680156104d3575b6020831081146104bf578285529081156104a3575060011461044c575b50819003601f01601f191681019067ffffffffffffffff8211818310176104365761043282918260405282610a28565b0390f35b634e487b7160e01b600052604160045260246000fd5b905060046000527f8a35acfbc15ff81a39ae7d344fd709f28e8600b4aa8c65c6b64bfe7fe36bd19b6000905b82821061048d57506020915082010182610402565b6001816020925483858801015201910190610478565b90506020925060ff191682840152151560051b82010182610402565b634e487b7160e01b84526022600452602484fd5b91607f16916103e5565b3461019b57600036600319011261019b576005546040516001600160a01b039091168152602090f35b3461019b57602036600319011261019b576001600160a01b036105276109fc565b1660005260066020526020604060002054604051908152f35b3461019b57600036600319011261019b576020604051620151808152f35b3461019b57600036600319011261019b576020604051683635c9adc5dea000008152f35b3461019b57600036600319011261019b5761059b610ac5565b600580546001600160a01b031981169091556000906001600160a01b03167f8be0079c531659141344cd1fd0a4f28419497f9722a3daafe3b4186f6b6457e08280a3005b3461019b57602036600319011261019b5760206101c36105fd6109fc565b6001600160a01b031660009081526020819052604090205490565b3461019b57602036600319011261019b5760206101c36106366109fc565b610a7e565b3461019b57604036600319011261019b576106546109fc565b60243590610660610ac5565b6001600160a01b03168015610283578161067e602093600254610a71565b6002557fddf252ad1be2c89b69c2b068fc378daa952ba7f163c4a11628f55a4df523b3ef600093849284845283825260408420818154019055604051908152a380f35b3461019b57600036600319011261019b57602060405160128152f35b3461019b57606036600319011261019b576106f66109fc565b6106fe610a12565b6001600160a01b038216600081815260016020908152604080832033845290915290205490926044359291600019811061073e575b506103b19350610aee565b8381106107ad578415610797573315610781576103b1946000526001602052604060002060018060a01b0333166000526020528360406000209103905584610733565b634a1406b160e11b600052600060045260246000fd5b63e602df0560e01b600052600060045260246000fd5b8390637dc7a0d960e11b6000523360045260245260445260646000fd5b3461019b57600036600319011261019b576020600254604051908152f35b3461019b57604036600319011261019b576108016109fc565b602435903315610797576001600160a01b031690811561078157336000526001602052604060002082600052602052806040600020556040519081527f8c5be1e5ebec7d5bd14f71427d1e84f3dd0314c0f7b2291e5b200ac8c7c3b92560203392a3602060405160018152f35b3461019b57600036600319011261019b57610887610ac5565b3060005260006020526040600020548061089d57005b6005546108b491906001600160a01b031630610aee565b005b3461019b57600036600319011261019b5760405160006003548060011c90600181168015610982575b6020831081146104bf578285529081156104a3575060011461092b5750819003601f01601f191681019067ffffffffffffffff8211818310176104365761043282918260405282610a28565b905060036000527fc2575a0e9e593c00f959f8c92f12db2869c3395a3b0502d05e2516446f71f85b6000905b82821061096c57506020915082010182610402565b6001816020925483858801015201910190610957565b91607f16916108df565b3461019b57602036600319011261019b576001600160a01b036109ad6109fc565b166000526006602052604060002054906201518082018092116102d157602091421015806109dc575b15158152f35b503060005260008252683635c9adc5dea0000060406000205410156109d6565b600435906001600160a01b038216820361019b57565b602435906001600160a01b038216820361019b57565b91909160208152825180602083015260005b818110610a5b575060409293506000838284010152601f8019910116010190565b8060208092870101516040828601015201610a3a565b919082018092116102d157565b6001600160a01b0316600090815260066020526040902054620151808101908181116102d15781421015610abe5742900362015180019081116102d15790565b5050600090565b6005546001600160a01b03163303610ad957565b63118cdaa760e01b6000523360045260246000fd5b91906001600160a01b03831615610299576001600160a01b0381161561028357610b1792610b19565b565b6001600160a01b03169081610b955760207fddf252ad1be2c89b69c2b068fc378daa952ba7f163c4a11628f55a4df523b3ef91610b5885600254610a71565b6002555b6001600160a01b03169384610b7d5780600254036002555b604051908152a3565b84600052600082526040600020818154019055610b74565b816000526000602052604060002054838110610be5577fddf252ad1be2c89b69c2b068fc378daa952ba7f163c4a11628f55a4df523b3ef9184602092856000526000845203604060002055610b5c565b91905063391434e360e21b60005260045260245260445260646000fdfea2646970667358221220df9df5f617c9d0c450f745a21d2f3e25fa903e929539817947e8f00ae6ece83c64736f6c634300081c0033","opcodes":"PUSH1 0x80 PUSH1 0x40 MSTORE CALLVALUE PUSH2 0x3EE JUMPI PUSH2 0x10EF PUSH1 0x20 DUP2 CODESIZE SUB SWAP2 DUP3 PUSH2 0x1C DUP2 PUSH2 0x3F3 JUMP JUMPDEST SWAP4 DUP5 SWAP3 DUP4 CODECOPY DUP2 ADD SUB SLT PUSH2 0x3EE JUMPI MLOAD PUSH2 0x34 PUSH1 0x40 PUSH2 0x3F3 JUMP JUMPDEST SWAP1 PUSH1 0xA DUP3 MSTORE PUSH10 0x111D5B5B5E481554D115 PUSH1 0xB2 SHL PUSH1 0x20 DUP4 ADD MSTORE PUSH2 0x56 PUSH1 0x40 PUSH2 0x3F3 JUMP JUMPDEST PUSH1 0x5 DUP2 MSTORE PUSH5 0x111554D115 PUSH1 0xDA SHL PUSH1 0x20 DUP3 ADD MSTORE DUP3 MLOAD SWAP1 SWAP2 SWAP1 PUSH1 0x1 PUSH1 0x1 PUSH1 0x40 SHL SUB DUP2 GT PUSH2 0x2F7 JUMPI PUSH1 0x3 SLOAD PUSH1 0x1 DUP2 DUP2 SHR SWAP2 AND DUP1 ISZERO PUSH2 0x3E4 JUMPI JUMPDEST PUSH1 0x20 DUP3 LT EQ PUSH2 0x2D7 JUMPI PUSH1 0x1F DUP2 GT PUSH2 0x37F JUMPI JUMPDEST POP PUSH1 0x20 PUSH1 0x1F DUP3 GT PUSH1 0x1 EQ PUSH2 0x318 JUMPI DUP2 SWAP3 SWAP4 SWAP5 PUSH1 0x0 SWAP3 PUSH2 0x30D JUMPI JUMPDEST POP POP DUP2 PUSH1 0x1 SHL SWAP2 PUSH1 0x0 NOT SWAP1 PUSH1 0x3 SHL SHR NOT AND OR PUSH1 0x3 SSTORE JUMPDEST DUP2 MLOAD PUSH1 0x1 PUSH1 0x1 PUSH1 0x40 SHL SUB DUP2 GT PUSH2 0x2F7 JUMPI PUSH1 0x4 SLOAD PUSH1 0x1 DUP2 DUP2 SHR SWAP2 AND DUP1 ISZERO PUSH2 0x2ED JUMPI JUMPDEST PUSH1 0x20 DUP3 LT EQ PUSH2 0x2D7 JUMPI PUSH1 0x1F DUP2 GT PUSH2 0x272 JUMPI JUMPDEST POP PUSH1 0x20 SWAP3 PUSH1 0x1F DUP3 GT PUSH1 0x1 EQ PUSH2 0x20D JUMPI SWAP3 DUP2 SWAP3 SWAP4 PUSH1 0x0 SWAP3 PUSH2 0x202 JUMPI JUMPDEST POP POP DUP2 PUSH1 0x1 SHL SWAP2 PUSH1 0x0 NOT SWAP1 PUSH1 0x3 SHL SHR NOT AND OR PUSH1 0x4 SSTORE JUMPDEST CALLER ISZERO PUSH2 0x1EC JUMPI PUSH1 0x5 DUP1 SLOAD CALLER PUSH1 0x1 PUSH1 0x1 PUSH1 0xA0 SHL SUB NOT DUP3 AND DUP2 OR SWAP1 SWAP3 SSTORE PUSH32 0x1D2D38BD8A2BBF569E5C5AB629156E01D52761E35F52DF2CBA12DA70E27BF8C9 SWAP3 PUSH1 0x20 SWAP3 PUSH1 0xA SWAP3 PUSH2 0x1CB SWAP3 SWAP2 SWAP1 PUSH1 0x1 PUSH1 0x1 PUSH1 0xA0 SHL SUB AND PUSH32 0x8BE0079C531659141344CD1FD0A4F28419497F9722A3DAAFE3B4186F6B6457E0 PUSH1 0x0 DUP1 LOG3 PUSH8 0xDE0B6B3A7640000 SWAP1 PUSH2 0x1C6 PUSH2 0x1C0 DUP4 DUP4 PUSH2 0x418 JUMP JUMPDEST CALLER PUSH2 0x441 JUMP JUMPDEST PUSH2 0x418 JUMP JUMPDEST DIV PUSH2 0x1D6 DUP2 ADDRESS PUSH2 0x441 JUMP JUMPDEST PUSH1 0x40 MLOAD SWAP1 DUP2 MSTORE LOG1 PUSH1 0x40 MLOAD PUSH2 0xC38 SWAP1 DUP2 PUSH2 0x4B7 DUP3 CODECOPY RETURN JUMPDEST PUSH4 0x1E4FBDF7 PUSH1 0xE0 SHL PUSH1 0x0 MSTORE PUSH1 0x0 PUSH1 0x4 MSTORE PUSH1 0x24 PUSH1 0x0 REVERT JUMPDEST ADD MLOAD SWAP1 POP CODESIZE DUP1 PUSH2 0x11C JUMP JUMPDEST PUSH1 0x1F NOT DUP3 AND SWAP4 PUSH1 0x4 PUSH1 0x0 MSTORE DUP1 PUSH1 0x0 KECCAK256 SWAP2 PUSH1 0x0 JUMPDEST DUP7 DUP2 LT PUSH2 0x25A JUMPI POP DUP4 PUSH1 0x1 SWAP6 SWAP7 LT PUSH2 0x241 JUMPI JUMPDEST POP POP POP DUP2 SHL ADD PUSH1 0x4 SSTORE PUSH2 0x132 JUMP JUMPDEST ADD MLOAD PUSH1 0x0 NOT PUSH1 0xF8 DUP5 PUSH1 0x3 SHL AND SHR NOT AND SWAP1 SSTORE CODESIZE DUP1 DUP1 PUSH2 0x233 JUMP JUMPDEST SWAP2 SWAP3 PUSH1 0x20 PUSH1 0x1 DUP2 SWAP3 DUP7 DUP6 ADD MLOAD DUP2 SSTORE ADD SWAP5 ADD SWAP3 ADD PUSH2 0x220 JUMP JUMPDEST PUSH1 0x4 PUSH1 0x0 MSTORE PUSH32 0x8A35ACFBC15FF81A39AE7D344FD709F28E8600B4AA8C65C6B64BFE7FE36BD19B PUSH1 0x1F DUP4 ADD PUSH1 0x5 SHR DUP2 ADD SWAP2 PUSH1 0x20 DUP5 LT PUSH2 0x2CD JUMPI JUMPDEST PUSH1 0x1F ADD PUSH1 0x5 SHR ADD SWAP1 JUMPDEST DUP2 DUP2 LT PUSH2 0x2C1 JUMPI POP PUSH2 0x101 JUMP JUMPDEST PUSH1 0x0 DUP2 SSTORE PUSH1 0x1 ADD PUSH2 0x2B4 JUMP JUMPDEST SWAP1 SWAP2 POP DUP2 SWAP1 PUSH2 0x2AB JUMP JUMPDEST PUSH4 0x4E487B71 PUSH1 0xE0 SHL PUSH1 0x0 MSTORE PUSH1 0x22 PUSH1 0x4 MSTORE PUSH1 0x24 PUSH1 0x0 REVERT JUMPDEST SWAP1 PUSH1 0x7F AND SWAP1 PUSH2 0xEF JUMP JUMPDEST PUSH4 0x4E487B71 PUSH1 0xE0 SHL PUSH1 0x0 MSTORE PUSH1 0x41 PUSH1 0x4 MSTORE PUSH1 0x24 PUSH1 0x0 REVERT JUMPDEST ADD MLOAD SWAP1 POP CODESIZE DUP1 PUSH2 0xB8 JUMP JUMPDEST PUSH1 0x1F NOT DUP3 AND SWAP1 PUSH1 0x3 PUSH1 0x0 MSTORE DUP1 PUSH1 0x0 KECCAK256 SWAP2 PUSH1 0x0 JUMPDEST DUP2 DUP2 LT PUSH2 0x367 JUMPI POP SWAP6 DUP4 PUSH1 0x1 SWAP6 SWAP7 SWAP8 LT PUSH2 0x34E JUMPI JUMPDEST POP POP POP DUP2 SHL ADD PUSH1 0x3 SSTORE PUSH2 0xCE JUMP JUMPDEST ADD MLOAD PUSH1 0x0 NOT PUSH1 0xF8 DUP5 PUSH1 0x3 SHL AND SHR NOT AND SWAP1 SSTORE CODESIZE DUP1 DUP1 PUSH2 0x340 JUMP JUMPDEST SWAP2 SWAP3 PUSH1 0x20 PUSH1 0x1 DUP2 SWAP3 DUP7 DUP12 ADD MLOAD DUP2 SSTORE ADD SWAP5 ADD SWAP3 ADD PUSH2 0x32B JUMP JUMPDEST PUSH1 0x3 PUSH1 0x0 MSTORE PUSH32 0xC2575A0E9E593C00F959F8C92F12DB2869C3395A3B0502D05E2516446F71F85B PUSH1 0x1F DUP4 ADD PUSH1 0x5 SHR DUP2 ADD SWAP2 PUSH1 0x20 DUP5 LT PUSH2 0x3DA JUMPI JUMPDEST PUSH1 0x1F ADD PUSH1 0x5 SHR ADD SWAP1 JUMPDEST DUP2 DUP2 LT PUSH2 0x3CE JUMPI POP PUSH2 0x9E JUMP JUMPDEST PUSH1 0x0 DUP2 SSTORE PUSH1 0x1 ADD PUSH2 0x3C1 JUMP JUMPDEST SWAP1 SWAP2 POP DUP2 SWAP1 PUSH2 0x3B8 JUMP JUMPDEST SWAP1 PUSH1 0x7F AND SWAP1 PUSH2 0x8C JUMP JUMPDEST PUSH1 0x0 DUP1 REVERT JUMPDEST PUSH1 0x40 MLOAD SWAP2 SWAP1 PUSH1 0x1F ADD PUSH1 0x1F NOT AND DUP3 ADD PUSH1 0x1 PUSH1 0x1 PUSH1 0x40 SHL SUB DUP2 GT DUP4 DUP3 LT OR PUSH2 0x2F7 JUMPI PUSH1 0x40 MSTORE JUMP JUMPDEST DUP2 DUP2 MUL SWAP3 SWAP2 DUP2 ISZERO SWAP2 DUP5 DIV EQ OR ISZERO PUSH2 0x42B JUMPI JUMP JUMPDEST PUSH4 0x4E487B71 PUSH1 0xE0 SHL PUSH1 0x0 MSTORE PUSH1 0x11 PUSH1 0x4 MSTORE PUSH1 0x24 PUSH1 0x0 REVERT JUMPDEST PUSH1 0x1 PUSH1 0x1 PUSH1 0xA0 SHL SUB AND SWAP1 DUP2 ISZERO PUSH2 0x4A0 JUMPI PUSH1 0x2 SLOAD DUP2 DUP2 ADD DUP1 SWAP2 GT PUSH2 0x42B JUMPI PUSH1 0x2 SSTORE PUSH32 0xDDF252AD1BE2C89B69C2B068FC378DAA952BA7F163C4A11628F55A4DF523B3EF PUSH1 0x20 PUSH1 0x0 SWAP3 DUP5 DUP5 MSTORE DUP4 DUP3 MSTORE PUSH1 0x40 DUP5 KECCAK256 DUP2 DUP2 SLOAD ADD SWAP1 SSTORE PUSH1 0x40 MLOAD SWAP1 DUP2 MSTORE LOG3 JUMP JUMPDEST PUSH4 0xEC442F05 PUSH1 0xE0 SHL PUSH1 0x0 MSTORE PUSH1 0x0 PUSH1 0x4 MSTORE PUSH1 0x24 PUSH1 0x0 REVERT INVALID PUSH1 0x80 DUP1 PUSH1 0x40 MSTORE PUSH1 0x4 CALLDATASIZE LT ISZERO PUSH2 0x13 JUMPI PUSH1 0x0 DUP1 REVERT JUMPDEST PUSH1 0x0 CALLDATALOAD PUSH1 0xE0 SHR SWAP1 DUP2 PUSH4 0x1D8A296 EQ PUSH2 0x98C JUMPI POP DUP1 PUSH4 0x6FDDE03 EQ PUSH2 0x8B6 JUMPI DUP1 PUSH4 0x8828C98 EQ PUSH2 0x86E JUMPI DUP1 PUSH4 0x95EA7B3 EQ PUSH2 0x7E8 JUMPI DUP1 PUSH4 0x18160DDD EQ PUSH2 0x7CA JUMPI DUP1 PUSH4 0x23B872DD EQ PUSH2 0x6DD JUMPI DUP1 PUSH4 0x313CE567 EQ PUSH2 0x6C1 JUMPI DUP1 PUSH4 0x40C10F19 EQ PUSH2 0x63B JUMPI DUP1 PUSH4 0x6D07B7E5 EQ PUSH2 0x618 JUMPI DUP1 PUSH4 0x70A08231 EQ PUSH2 0x5DF JUMPI DUP1 PUSH4 0x715018A6 EQ PUSH2 0x582 JUMPI DUP1 PUSH4 0x76697640 EQ PUSH2 0x55E JUMPI DUP1 PUSH4 0x7D1D5D19 EQ PUSH2 0x540 JUMPI DUP1 PUSH4 0x8A877205 EQ PUSH2 0x506 JUMPI DUP1 PUSH4 0x8DA5CB5B EQ PUSH2 0x4DD JUMPI DUP1 PUSH4 0x95D89B41 EQ PUSH2 0x3BC JUMPI DUP1 PUSH4 0xA9059CBB EQ PUSH2 0x38B JUMPI DUP1 PUSH4 0xAE0140B4 EQ PUSH2 0x338 JUMPI DUP1 PUSH4 0xDD62ED3E EQ PUSH2 0x2E7 JUMPI DUP1 PUSH4 0xDE5F72FD EQ PUSH2 0x1CB JUMPI DUP1 PUSH4 0xF1F959A6 EQ PUSH2 0x1A0 JUMPI PUSH4 0xF2FDE38B EQ PUSH2 0x111 JUMPI PUSH1 0x0 DUP1 REVERT JUMPDEST CALLVALUE PUSH2 0x19B JUMPI PUSH1 0x20 CALLDATASIZE PUSH1 0x3 NOT ADD SLT PUSH2 0x19B JUMPI PUSH2 0x12A PUSH2 0x9FC JUMP JUMPDEST PUSH2 0x132 PUSH2 0xAC5 JUMP JUMPDEST PUSH1 0x1 PUSH1 0x1 PUSH1 0xA0 SHL SUB AND DUP1 ISZERO PUSH2 0x185 JUMPI PUSH1 0x5 DUP1 SLOAD PUSH1 0x1 PUSH1 0x1 PUSH1 0xA0 SHL SUB NOT DUP2 AND DUP4 OR SWAP1 SWAP2 SSTORE PUSH1 0x1 PUSH1 0x1 PUSH1 0xA0 SHL SUB AND PUSH32 0x8BE0079C531659141344CD1FD0A4F28419497F9722A3DAAFE3B4186F6B6457E0 PUSH1 0x0 DUP1 LOG3 STOP JUMPDEST PUSH4 0x1E4FBDF7 PUSH1 0xE0 SHL PUSH1 0x0 MSTORE PUSH1 0x0 PUSH1 0x4 MSTORE PUSH1 0x24 PUSH1 0x0 REVERT JUMPDEST PUSH1 0x0 DUP1 REVERT JUMPDEST CALLVALUE PUSH2 0x19B JUMPI PUSH1 0x0 CALLDATASIZE PUSH1 0x3 NOT ADD SLT PUSH2 0x19B JUMPI ADDRESS PUSH1 0x0 SWAP1 DUP2 MSTORE PUSH1 0x20 DUP2 DUP2 MSTORE PUSH1 0x40 SWAP1 SWAP2 KECCAK256 SLOAD JUMPDEST PUSH1 0x40 MLOAD SWAP1 DUP2 MSTORE RETURN JUMPDEST CALLVALUE PUSH2 0x19B JUMPI PUSH1 0x0 CALLDATASIZE PUSH1 0x3 NOT ADD SLT PUSH2 0x19B JUMPI CALLER PUSH1 0x0 MSTORE PUSH1 0x6 PUSH1 0x20 MSTORE PUSH1 0x40 PUSH1 0x0 KECCAK256 SLOAD PUSH3 0x15180 DUP2 ADD DUP1 SWAP2 GT PUSH2 0x2D1 JUMPI TIMESTAMP LT PUSH2 0x2C0 JUMPI ADDRESS PUSH1 0x0 MSTORE PUSH1 0x0 PUSH1 0x20 MSTORE PUSH9 0x3635C9ADC5DEA00000 PUSH1 0x40 PUSH1 0x0 KECCAK256 SLOAD LT PUSH2 0x2AF JUMPI CALLER PUSH1 0x0 MSTORE PUSH1 0x6 PUSH1 0x20 MSTORE TIMESTAMP PUSH1 0x40 PUSH1 0x0 KECCAK256 SSTORE ADDRESS ISZERO PUSH2 0x299 JUMPI CALLER ISZERO PUSH2 0x283 JUMPI PUSH2 0x24C PUSH9 0x3635C9ADC5DEA00000 CALLER ADDRESS PUSH2 0xB19 JUMP JUMPDEST PUSH1 0x40 MLOAD PUSH9 0x3635C9ADC5DEA00000 DUP2 MSTORE PUSH32 0x5D4F415C63CD8A5874D9D291CDD64CEC37E5DC236D90D659C958D109D78074B3 PUSH1 0x20 CALLER SWAP3 LOG2 STOP JUMPDEST PUSH4 0xEC442F05 PUSH1 0xE0 SHL PUSH1 0x0 MSTORE PUSH1 0x0 PUSH1 0x4 MSTORE PUSH1 0x24 PUSH1 0x0 REVERT JUMPDEST PUSH4 0x4B637E8F PUSH1 0xE1 SHL PUSH1 0x0 MSTORE PUSH1 0x0 PUSH1 0x4 MSTORE PUSH1 0x24 PUSH1 0x0 REVERT JUMPDEST PUSH4 0xC1336F85 PUSH1 0xE0 SHL PUSH1 0x0 MSTORE PUSH1 0x4 PUSH1 0x0 REVERT JUMPDEST PUSH4 0x313B8803 PUSH1 0xE1 SHL PUSH1 0x0 MSTORE PUSH1 0x4 PUSH1 0x0 REVERT JUMPDEST PUSH4 0x4E487B71 PUSH1 0xE0 SHL PUSH1 0x0 MSTORE PUSH1 0x11 PUSH1 0x4 MSTORE PUSH1 0x24 PUSH1 0x0 REVERT JUMPDEST CALLVALUE PUSH2 0x19B JUMPI PUSH1 0x40 CALLDATASIZE PUSH1 0x3 NOT ADD SLT PUSH2 0x19B JUMPI PUSH2 0x300 PUSH2 0x9FC JUMP JUMPDEST PUSH2 0x308 PUSH2 0xA12 JUMP JUMPDEST PUSH1 0x1 PUSH1 0x1 PUSH1 0xA0 SHL SUB SWAP2 DUP3 AND PUSH1 0x0 SWAP1 DUP2 MSTORE PUSH1 0x1 PUSH1 0x20 SWAP1 DUP2 MSTORE PUSH1 0x40 DUP1 DUP4 KECCAK256 SWAP5 SWAP1 SWAP4 AND DUP3 MSTORE SWAP3 DUP4 MSTORE DUP2 SWAP1 KECCAK256 SLOAD SWAP1 MLOAD SWAP1 DUP2 MSTORE RETURN JUMPDEST CALLVALUE PUSH2 0x19B JUMPI PUSH1 0x20 CALLDATASIZE PUSH1 0x3 NOT ADD SLT PUSH2 0x19B JUMPI PUSH32 0x1D2D38BD8A2BBF569E5C5AB629156E01D52761E35F52DF2CBA12DA70E27BF8C9 PUSH1 0x20 PUSH1 0x4 CALLDATALOAD PUSH2 0x377 PUSH2 0xAC5 JUMP JUMPDEST PUSH2 0x382 DUP2 ADDRESS CALLER PUSH2 0xAEE JUMP JUMPDEST PUSH1 0x40 MLOAD SWAP1 DUP2 MSTORE LOG1 STOP JUMPDEST CALLVALUE PUSH2 0x19B JUMPI PUSH1 0x40 CALLDATASIZE PUSH1 0x3 NOT ADD SLT PUSH2 0x19B JUMPI PUSH2 0x3B1 PUSH2 0x3A7 PUSH2 0x9FC JUMP JUMPDEST PUSH1 0x24 CALLDATALOAD SWAP1 CALLER PUSH2 0xAEE JUMP JUMPDEST PUSH1 0x20 PUSH1 0x40 MLOAD PUSH1 0x1 DUP2 MSTORE RETURN JUMPDEST CALLVALUE PUSH2 0x19B JUMPI PUSH1 0x0 CALLDATASIZE PUSH1 0x3 NOT ADD SLT PUSH2 0x19B JUMPI PUSH1 0x40 MLOAD PUSH1 0x0 PUSH1 0x4 SLOAD DUP1 PUSH1 0x1 SHR SWAP1 PUSH1 0x1 DUP2 AND DUP1 ISZERO PUSH2 0x4D3 JUMPI JUMPDEST PUSH1 0x20 DUP4 LT DUP2 EQ PUSH2 0x4BF JUMPI DUP3 DUP6 MSTORE SWAP1 DUP2 ISZERO PUSH2 0x4A3 JUMPI POP PUSH1 0x1 EQ PUSH2 0x44C JUMPI JUMPDEST POP DUP2 SWAP1 SUB PUSH1 0x1F ADD PUSH1 0x1F NOT AND DUP2 ADD SWAP1 PUSH8 0xFFFFFFFFFFFFFFFF DUP3 GT DUP2 DUP4 LT OR PUSH2 0x436 JUMPI PUSH2 0x432 DUP3 SWAP2 DUP3 PUSH1 0x40 MSTORE DUP3 PUSH2 0xA28 JUMP JUMPDEST SUB SWAP1 RETURN JUMPDEST PUSH4 0x4E487B71 PUSH1 0xE0 SHL PUSH1 0x0 MSTORE PUSH1 0x41 PUSH1 0x4 MSTORE PUSH1 0x24 PUSH1 0x0 REVERT JUMPDEST SWAP1 POP PUSH1 0x4 PUSH1 0x0 MSTORE PUSH32 0x8A35ACFBC15FF81A39AE7D344FD709F28E8600B4AA8C65C6B64BFE7FE36BD19B PUSH1 0x0 SWAP1 JUMPDEST DUP3 DUP3 LT PUSH2 0x48D JUMPI POP PUSH1 0x20 SWAP2 POP DUP3 ADD ADD DUP3 PUSH2 0x402 JUMP JUMPDEST PUSH1 0x1 DUP2 PUSH1 0x20 SWAP3 SLOAD DUP4 DUP6 DUP9 ADD ADD MSTORE ADD SWAP2 ADD SWAP1 PUSH2 0x478 JUMP JUMPDEST SWAP1 POP PUSH1 0x20 SWAP3 POP PUSH1 0xFF NOT AND DUP3 DUP5 ADD MSTORE ISZERO ISZERO PUSH1 0x5 SHL DUP3 ADD ADD DUP3 PUSH2 0x402 JUMP JUMPDEST PUSH4 0x4E487B71 PUSH1 0xE0 SHL DUP5 MSTORE PUSH1 0x22 PUSH1 0x4 MSTORE PUSH1 0x24 DUP5 REVERT JUMPDEST SWAP2 PUSH1 0x7F AND SWAP2 PUSH2 0x3E5 JUMP JUMPDEST CALLVALUE PUSH2 0x19B JUMPI PUSH1 0x0 CALLDATASIZE PUSH1 0x3 NOT ADD SLT PUSH2 0x19B JUMPI PUSH1 0x5 SLOAD PUSH1 0x40 MLOAD PUSH1 0x1 PUSH1 0x1 PUSH1 0xA0 SHL SUB SWAP1 SWAP2 AND DUP2 MSTORE PUSH1 0x20 SWAP1 RETURN JUMPDEST CALLVALUE PUSH2 0x19B JUMPI PUSH1 0x20 CALLDATASIZE PUSH1 0x3 NOT ADD SLT PUSH2 0x19B JUMPI PUSH1 0x1 PUSH1 0x1 PUSH1 0xA0 SHL SUB PUSH2 0x527 PUSH2 0x9FC JUMP JUMPDEST AND PUSH1 0x0 MSTORE PUSH1 0x6 PUSH1 0x20 MSTORE PUSH1 0x20 PUSH1 0x40 PUSH1 0x0 KECCAK256 SLOAD PUSH1 0x40 MLOAD SWAP1 DUP2 MSTORE RETURN JUMPDEST CALLVALUE PUSH2 0x19B JUMPI PUSH1 0x0 CALLDATASIZE PUSH1 0x3 NOT ADD SLT PUSH2 0x19B JUMPI PUSH1 0x20 PUSH1 0x40 MLOAD PUSH3 0x15180 DUP2 MSTORE RETURN JUMPDEST CALLVALUE PUSH2 0x19B JUMPI PUSH1 0x0 CALLDATASIZE PUSH1 0x3 NOT ADD SLT PUSH2 0x19B JUMPI PUSH1 0x20 PUSH1 0x40 MLOAD PUSH9 0x3635C9ADC5DEA00000 DUP2 MSTORE RETURN JUMPDEST CALLVALUE PUSH2 0x19B JUMPI PUSH1 0x0 CALLDATASIZE PUSH1 0x3 NOT ADD SLT PUSH2 0x19B JUMPI PUSH2 0x59B PUSH2 0xAC5 JUMP JUMPDEST PUSH1 0x5 DUP1 SLOAD PUSH1 0x1 PUSH1 0x1 PUSH1 0xA0 SHL SUB NOT DUP2 AND SWAP1 SWAP2 SSTORE PUSH1 0x0 SWAP1 PUSH1 0x1 PUSH1 0x1 PUSH1 0xA0 SHL SUB AND PUSH32 0x8BE0079C531659141344CD1FD0A4F28419497F9722A3DAAFE3B4186F6B6457E0 DUP3 DUP1 LOG3 STOP JUMPDEST CALLVALUE PUSH2 0x19B JUMPI PUSH1 0x20 CALLDATASIZE PUSH1 0x3 NOT ADD SLT PUSH2 0x19B JUMPI PUSH1 0x20 PUSH2 0x1C3 PUSH2 0x5FD PUSH2 0x9FC JUMP JUMPDEST PUSH1 0x1 PUSH1 0x1 PUSH1 0xA0 SHL SUB AND PUSH1 0x0 SWAP1 DUP2 MSTORE PUSH1 0x20 DUP2 SWAP1 MSTORE PUSH1 0x40 SWAP1 KECCAK256 SLOAD SWAP1 JUMP JUMPDEST CALLVALUE PUSH2 0x19B JUMPI PUSH1 0x20 CALLDATASIZE PUSH1 0x3 NOT ADD SLT PUSH2 0x19B JUMPI PUSH1 0x20 PUSH2 0x1C3 PUSH2 0x636 PUSH2 0x9FC JUMP JUMPDEST PUSH2 0xA7E JUMP JUMPDEST CALLVALUE PUSH2 0x19B JUMPI PUSH1 0x40 CALLDATASIZE PUSH1 0x3 NOT ADD SLT PUSH2 0x19B JUMPI PUSH2 0x654 PUSH2 0x9FC JUMP JUMPDEST PUSH1 0x24 CALLDATALOAD SWAP1 PUSH2 0x660 PUSH2 0xAC5 JUMP JUMPDEST PUSH1 0x1 PUSH1 0x1 PUSH1 0xA0 SHL SUB AND DUP1 ISZERO PUSH2 0x283 JUMPI DUP2 PUSH2 0x67E PUSH1 0x20 SWAP4 PUSH1 0x2 SLOAD PUSH2 0xA71 JUMP JUMPDEST PUSH1 0x2 SSTORE PUSH32 0xDDF252AD1BE2C89B69C2B068FC378DAA952BA7F163C4A11628F55A4DF523B3EF PUSH1 0x0 SWAP4 DUP5 SWAP3 DUP5 DUP5 MSTORE DUP4 DUP3 MSTORE PUSH1 0x40 DUP5 KECCAK256 DUP2 DUP2 SLOAD ADD SWAP1 SSTORE PUSH1 0x40 MLOAD SWAP1 DUP2 MSTORE LOG3 DUP1 RETURN JUMPDEST CALLVALUE PUSH2 0x19B JUMPI PUSH1 0x0 CALLDATASIZE PUSH1 0x3 NOT ADD SLT PUSH2 0x19B JUMPI PUSH1 0x20 PUSH1 0x40 MLOAD PUSH1 0x12 DUP2 MSTORE RETURN JUMPDEST CALLVALUE PUSH2 0x19B JUMPI PUSH1 0x60 CALLDATASIZE PUSH1 0x3 NOT ADD SLT PUSH2 0x19B JUMPI PUSH2 0x6F6 PUSH2 0x9FC JUMP JUMPDEST PUSH2 0x6FE PUSH2 0xA12 JUMP JUMPDEST PUSH1 0x1 PUSH1 0x1 PUSH1 0xA0 SHL SUB DUP3 AND PUSH1 0x0 DUP2 DUP2 MSTORE PUSH1 0x1 PUSH1 0x20 SWAP1 DUP2 MSTORE PUSH1 0x40 DUP1 DUP4 KECCAK256 CALLER DUP5 MSTORE SWAP1 SWAP2 MSTORE SWAP1 KECCAK256 SLOAD SWAP1 SWAP3 PUSH1 0x44 CALLDATALOAD SWAP3 SWAP2 PUSH1 0x0 NOT DUP2 LT PUSH2 0x73E JUMPI JUMPDEST POP PUSH2 0x3B1 SWAP4 POP PUSH2 0xAEE JUMP JUMPDEST DUP4 DUP2 LT PUSH2 0x7AD JUMPI DUP5 ISZERO PUSH2 0x797 JUMPI CALLER ISZERO PUSH2 0x781 JUMPI PUSH2 0x3B1 SWAP5 PUSH1 0x0 MSTORE PUSH1 0x1 PUSH1 0x20 MSTORE PUSH1 0x40 PUSH1 0x0 KECCAK256 PUSH1 0x1 DUP1 PUSH1 0xA0 SHL SUB CALLER AND PUSH1 0x0 MSTORE PUSH1 0x20 MSTORE DUP4 PUSH1 0x40 PUSH1 0x0 KECCAK256 SWAP2 SUB SWAP1 SSTORE DUP5 PUSH2 0x733 JUMP JUMPDEST PUSH4 0x4A1406B1 PUSH1 0xE1 SHL PUSH1 0x0 MSTORE PUSH1 0x0 PUSH1 0x4 MSTORE PUSH1 0x24 PUSH1 0x0 REVERT JUMPDEST PUSH4 0xE602DF05 PUSH1 0xE0 SHL PUSH1 0x0 MSTORE PUSH1 0x0 PUSH1 0x4 MSTORE PUSH1 0x24 PUSH1 0x0 REVERT JUMPDEST DUP4 SWAP1 PUSH4 0x7DC7A0D9 PUSH1 0xE1 SHL PUSH1 0x0 MSTORE CALLER PUSH1 0x4 MSTORE PUSH1 0x24 MSTORE PUSH1 0x44 MSTORE PUSH1 0x64 PUSH1 0x0 REVERT JUMPDEST CALLVALUE PUSH2 0x19B JUMPI PUSH1 0x0 CALLDATASIZE PUSH1 0x3 NOT ADD SLT PUSH2 0x19B JUMPI PUSH1 0x20 PUSH1 0x2 SLOAD PUSH1 0x40 MLOAD SWAP1 DUP2 MSTORE RETURN JUMPDEST CALLVALUE PUSH2 0x19B JUMPI PUSH1 0x40 CALLDATASIZE PUSH1 0x3 NOT ADD SLT PUSH2 0x19B JUMPI PUSH2 0x801 PUSH2 0x9FC JUMP JUMPDEST PUSH1 0x24 CALLDATALOAD SWAP1 CALLER ISZERO PUSH2 0x797 JUMPI PUSH1 0x1 PUSH1 0x1 PUSH1 0xA0 SHL SUB AND SWAP1 DUP2 ISZERO PUSH2 0x781 JUMPI CALLER PUSH1 0x0 MSTORE PUSH1 0x1 PUSH1 0x20 MSTORE PUSH1 0x40 PUSH1 0x0 KECCAK256 DUP3 PUSH1 0x0 MSTORE PUSH1 0x20 MSTORE DUP1 PUSH1 0x40 PUSH1 0x0 KECCAK256 SSTORE PUSH1 0x40 MLOAD SWAP1 DUP2 MSTORE PUSH32 0x8C5BE1E5EBEC7D5BD14F71427D1E84F3DD0314C0F7B2291E5B200AC8C7C3B925 PUSH1 0x20 CALLER SWAP3 LOG3 PUSH1 0x20 PUSH1 0x40 MLOAD PUSH1 0x1 DUP2 MSTORE RETURN JUMPDEST CALLVALUE PUSH2 0x19B JUMPI PUSH1 0x0 CALLDATASIZE PUSH1 0x3 NOT ADD SLT PUSH2 0x19B JUMPI PUSH2 0x887 PUSH2 0xAC5 JUMP JUMPDEST ADDRESS PUSH1 0x0 MSTORE PUSH1 0x0 PUSH1 0x20 MSTORE PUSH1 0x40 PUSH1 0x0 KECCAK256 SLOAD DUP1 PUSH2 0x89D JUMPI STOP JUMPDEST PUSH1 0x5 SLOAD PUSH2 0x8B4 SWAP2 SWAP1 PUSH1 0x1 PUSH1 0x1 PUSH1 0xA0 SHL SUB AND ADDRESS PUSH2 0xAEE JUMP JUMPDEST STOP JUMPDEST CALLVALUE PUSH2 0x19B JUMPI PUSH1 0x0 CALLDATASIZE PUSH1 0x3 NOT ADD SLT PUSH2 0x19B JUMPI PUSH1 0x40 MLOAD PUSH1 0x0 PUSH1 0x3 SLOAD DUP1 PUSH1 0x1 SHR SWAP1 PUSH1 0x1 DUP2 AND DUP1 ISZERO PUSH2 0x982 JUMPI JUMPDEST PUSH1 0x20 DUP4 LT DUP2 EQ PUSH2 0x4BF JUMPI DUP3 DUP6 MSTORE SWAP1 DUP2 ISZERO PUSH2 0x4A3 JUMPI POP PUSH1 0x1 EQ PUSH2 0x92B JUMPI POP DUP2 SWAP1 SUB PUSH1 0x1F ADD PUSH1 0x1F NOT AND DUP2 ADD SWAP1 PUSH8 0xFFFFFFFFFFFFFFFF DUP3 GT DUP2 DUP4 LT OR PUSH2 0x436 JUMPI PUSH2 0x432 DUP3 SWAP2 DUP3 PUSH1 0x40 MSTORE DUP3 PUSH2 0xA28 JUMP JUMPDEST SWAP1 POP PUSH1 0x3 PUSH1 0x0 MSTORE PUSH32 0xC2575A0E9E593C00F959F8C92F12DB2869C3395A3B0502D05E2516446F71F85B PUSH1 0x0 SWAP1 JUMPDEST DUP3 DUP3 LT PUSH2 0x96C JUMPI POP PUSH1 0x20 SWAP2 POP DUP3 ADD ADD DUP3 PUSH2 0x402 JUMP JUMPDEST PUSH1 0x1 DUP2 PUSH1 0x20 SWAP3 SLOAD DUP4 DUP6 DUP9 ADD ADD MSTORE ADD SWAP2 ADD SWAP1 PUSH2 0x957 JUMP JUMPDEST SWAP2 PUSH1 0x7F AND SWAP2 PUSH2 0x8DF JUMP JUMPDEST CALLVALUE PUSH2 0x19B JUMPI PUSH1 0x20 CALLDATASIZE PUSH1 0x3 NOT ADD SLT PUSH2 0x19B JUMPI PUSH1 0x1 PUSH1 0x1 PUSH1 0xA0 SHL SUB PUSH2 0x9AD PUSH2 0x9FC JUMP JUMPDEST AND PUSH1 0x0 MSTORE PUSH1 0x6 PUSH1 0x20 MSTORE PUSH1 0x40 PUSH1 0x0 KECCAK256 SLOAD SWAP1 PUSH3 0x15180 DUP3 ADD DUP1 SWAP3 GT PUSH2 0x2D1 JUMPI PUSH1 0x20 SWAP2 TIMESTAMP LT ISZERO DUP1 PUSH2 0x9DC JUMPI JUMPDEST ISZERO ISZERO DUP2 MSTORE RETURN JUMPDEST POP ADDRESS PUSH1 0x0 MSTORE PUSH1 0x0 DUP3 MSTORE PUSH9 0x3635C9ADC5DEA00000 PUSH1 0x40 PUSH1 0x0 KECCAK256 SLOAD LT ISZERO PUSH2 0x9D6 JUMP JUMPDEST PUSH1 0x4 CALLDATALOAD SWAP1 PUSH1 0x1 PUSH1 0x1 PUSH1 0xA0 SHL SUB DUP3 AND DUP3 SUB PUSH2 0x19B JUMPI JUMP JUMPDEST PUSH1 0x24 CALLDATALOAD SWAP1 PUSH1 0x1 PUSH1 0x1 PUSH1 0xA0 SHL SUB DUP3 AND DUP3 SUB PUSH2 0x19B JUMPI JUMP JUMPDEST SWAP2 SWAP1 SWAP2 PUSH1 0x20 DUP2 MSTORE DUP3 MLOAD DUP1 PUSH1 0x20 DUP4 ADD MSTORE PUSH1 0x0 JUMPDEST DUP2 DUP2 LT PUSH2 0xA5B JUMPI POP PUSH1 0x40 SWAP3 SWAP4 POP PUSH1 0x0 DUP4 DUP3 DUP5 ADD ADD MSTORE PUSH1 0x1F DUP1 NOT SWAP2 ADD AND ADD ADD SWAP1 JUMP JUMPDEST DUP1 PUSH1 0x20 DUP1 SWAP3 DUP8 ADD ADD MLOAD PUSH1 0x40 DUP3 DUP7 ADD ADD MSTORE ADD PUSH2 0xA3A JUMP JUMPDEST SWAP2 SWAP1 DUP3 ADD DUP1 SWAP3 GT PUSH2 0x2D1 JUMPI JUMP JUMPDEST PUSH1 0x1 PUSH1 0x1 PUSH1 0xA0 SHL SUB AND PUSH1 0x0 SWAP1 DUP2 MSTORE PUSH1 0x6 PUSH1 0x20 MSTORE PUSH1 0x40 SWAP1 KECCAK256 SLOAD PUSH3 0x15180 DUP2 ADD SWAP1 DUP2 DUP2 GT PUSH2 0x2D1 JUMPI DUP2 TIMESTAMP LT ISZERO PUSH2 0xABE JUMPI TIMESTAMP SWAP1 SUB PUSH3 0x15180 ADD SWAP1 DUP2 GT PUSH2 0x2D1 JUMPI SWAP1 JUMP JUMPDEST POP POP PUSH1 0x0 SWAP1 JUMP JUMPDEST PUSH1 0x5 SLOAD PUSH1 0x1 PUSH1 0x1 PUSH1 0xA0 SHL SUB AND CALLER SUB PUSH2 0xAD9 JUMPI JUMP JUMPDEST PUSH4 0x118CDAA7 PUSH1 0xE0 SHL PUSH1 0x0 MSTORE CALLER PUSH1 0x4 MSTORE PUSH1 0x24 PUSH1 0x0 REVERT JUMPDEST SWAP2 SWAP1 PUSH1 0x1 PUSH1 0x1 PUSH1 0xA0 SHL SUB DUP4 AND ISZERO PUSH2 0x299 JUMPI PUSH1 0x1 PUSH1 0x1 PUSH1 0xA0 SHL SUB DUP2 AND ISZERO PUSH2 0x283 JUMPI PUSH2 0xB17 SWAP3 PUSH2 0xB19 JUMP JUMPDEST JUMP JUMPDEST PUSH1 0x1 PUSH1 0x1 PUSH1 0xA0 SHL SUB AND SWAP1 DUP2 PUSH2 0xB95 JUMPI PUSH1 0x20 PUSH32 0xDDF252AD1BE2C89B69C2B068FC378DAA952BA7F163C4A11628F55A4DF523B3EF SWAP2 PUSH2 0xB58 DUP6 PUSH1 0x2 SLOAD PUSH2 0xA71 JUMP JUMPDEST PUSH1 0x2 SSTORE JUMPDEST PUSH1 0x1 PUSH1 0x1 PUSH1 0xA0 SHL SUB AND SWAP4 DUP5 PUSH2 0xB7D JUMPI DUP1 PUSH1 0x2 SLOAD SUB PUSH1 0x2 SSTORE JUMPDEST PUSH1 0x40 MLOAD SWAP1 DUP2 MSTORE LOG3 JUMP JUMPDEST DUP5 PUSH1 0x0 MSTORE PUSH1 0x0 DUP3 MSTORE PUSH1 0x40 PUSH1 0x0 KECCAK256 DUP2 DUP2 SLOAD ADD SWAP1 SSTORE PUSH2 0xB74 JUMP JUMPDEST DUP2 PUSH1 0x0 MSTORE PUSH1 0x0 PUSH1 0x20 MSTORE PUSH1 0x40 PUSH1 0x0 KECCAK256 SLOAD DUP4 DUP2 LT PUSH2 0xBE5 JUMPI PUSH32 0xDDF252AD1BE2C89B69C2B068FC378DAA952BA7F163C4A11628F55A4DF523B3EF SWAP2 DUP5 PUSH1 0x20 SWAP3 DUP6 PUSH1 0x0 MSTORE PUSH1 0x0 DUP5 MSTORE SUB PUSH1 0x40 PUSH1 0x0 KECCAK256 SSTORE PUSH2 0xB5C JUMP JUMPDEST SWAP2 SWAP1 POP PUSH4 0x391434E3 PUSH1 0xE2 SHL PUSH1 0x0 MSTORE PUSH1 0x4 MSTORE PUSH1 0x24 MSTORE PUSH1 0x44 MSTORE PUSH1 0x64 PUSH1 0x0 REVERT INVALID LOG2 PUSH5 0x6970667358 0x22 SLT KECCAK256 0xDF SWAP14 CREATE2 0xF6 OR 0xC9 0xD0 0xC4 POP 0xF7 GASLIMIT LOG2 SAR 0x2F RETURNDATACOPY 0x25 STATICCALL SWAP1 RETURNDATACOPY SWAP3 SWAP6 CODECOPY DUP2 PUSH26 0x47E8F00AE6ECE83C64736F6C634300081C003300000000000000 "},"methodIdentifiers":{"FAUCET_AMOUNT()":"76697640","FAUCET_COOLDOWN()":"7d1d5d19","allowance(address,address)":"dd62ed3e","approve(address,uint256)":"095ea7b3","balanceOf(address)":"70a08231","canClaimFaucet(address)":"01d8a296","decimals()":"313ce567","faucet()":"de5f72fd","fundFaucet(uint256)":"ae0140b4","getFaucetBalance()":"f1f959a6","getTimeUntilNextClaim(address)":"6d07b7e5","lastFaucetClaim(address)":"8a877205","mint(address,uint256)":"40c10f19","name()":"06fdde03","owner()":"8da5cb5b","renounceOwnership()":"715018a6","symbol()":"95d89b41","totalSupply()":"18160ddd","transfer(address,uint256)":"a9059cbb","transferFrom(address,address,uint256)":"23b872dd","transferOwnership(address)":"f2fde38b","withdrawFaucetFunds()":"08828c98"}}}}}