{"contracts/BulkPayroll.sol":{"BulkPayroll":{"abi":[{"inputs":[],"stateMutability":"nonpayable","type":"constructor"},{"inputs":[],"name":"InsufficientAllowance","type":"error"},{"inputs":[],"name":"InsufficientBalance","type":"error"},{"inputs":[],"name":"InvalidInput","type":"error"},{"inputs":[],"name":"LengthMismatch","type":"error"},{"inputs":[{"internalType":"address","name":"owner","type":"address"}],"name":"OwnableInvalidOwner","type":"error"},{"inputs":[{"internalType":"address","name":"account","type":"address"}],"name":"OwnableUnauthorizedAccount","type":"error"},{"inputs":[],"name":"ReentrancyGuardReentrantCall","type":"error"},{"inputs":[],"name":"RefundFailed","type":"error"},{"inputs":[{"internalType":"address","name":"token","type":"address"}],"name":"SafeERC20FailedOperation","type":"error"},{"inputs":[],"name":"TooManyRecipients","type":"error"},{"inputs":[],"name":"TransferError","type":"error"},{"anonymous":false,"inputs":[{"indexed":true,"internalType":"address","name":"sender","type":"address"},{"indexed":true,"internalType":"address","name":"token","type":"address"},{"indexed":false,"internalType":"uint256","name":"totalRecipients","type":"uint256"},{"indexed":false,"internalType":"uint256","name":"totalAmount","type":"uint256"},{"indexed":false,"internalType":"uint256","name":"successCount","type":"uint256"},{"indexed":false,"internalType":"uint256","name":"failCount","type":"uint256"}],"name":"BulkTransferExecuted","type":"event"},{"anonymous":false,"inputs":[{"indexed":true,"internalType":"address","name":"recipient","type":"address"},{"indexed":false,"internalType":"address","name":"token","type":"address"},{"indexed":false,"internalType":"uint256","name":"amount","type":"uint256"}],"name":"FailedTransferClaimed","type":"event"},{"anonymous":false,"inputs":[{"indexed":true,"internalType":"address","name":"previousOwner","type":"address"},{"indexed":true,"internalType":"address","name":"newOwner","type":"address"}],"name":"OwnershipTransferred","type":"event"},{"anonymous":false,"inputs":[{"indexed":true,"internalType":"address","name":"recipient","type":"address"},{"indexed":true,"internalType":"address","name":"token","type":"address"},{"indexed":false,"internalType":"uint256","name":"amount","type":"uint256"}],"name":"TransferFailed","type":"event"},{"inputs":[],"name":"GAS_LIMIT","outputs":[{"internalType":"uint256","name":"","type":"uint256"}],"stateMutability":"view","type":"function"},{"inputs":[],"name":"MAX_RECIPIENTS","outputs":[{"internalType":"uint256","name":"","type":"uint256"}],"stateMutability":"view","type":"function"},{"inputs":[{"internalType":"address","name":"token","type":"address"},{"internalType":"address[]","name":"recipients","type":"address[]"},{"internalType":"uint256[]","name":"amounts","type":"uint256[]"}],"name":"bulkTransfer","outputs":[],"stateMutability":"payable","type":"function"},{"inputs":[{"internalType":"address","name":"token","type":"address"}],"name":"claimFailedTransfer","outputs":[],"stateMutability":"nonpayable","type":"function"},{"inputs":[{"internalType":"address","name":"token","type":"address"}],"name":"emergencyWithdraw","outputs":[],"stateMutability":"nonpayable","type":"function"},{"inputs":[{"internalType":"address","name":"","type":"address"},{"internalType":"address","name":"","type":"address"}],"name":"failedTransfers","outputs":[{"internalType":"uint256","name":"","type":"uint256"}],"stateMutability":"view","type":"function"},{"inputs":[{"internalType":"address","name":"recipient","type":"address"},{"internalType":"address","name":"token","type":"address"}],"name":"getFailedAmount","outputs":[{"internalType":"uint256","name":"","type":"uint256"}],"stateMutability":"view","type":"function"},{"inputs":[],"name":"owner","outputs":[{"internalType":"address","name":"","type":"address"}],"stateMutability":"view","type":"function"},{"inputs":[],"name":"renounceOwnership","outputs":[],"stateMutability":"nonpayable","type":"function"},{"inputs":[{"internalType":"address","name":"newOwner","type":"address"}],"name":"transferOwnership","outputs":[],"stateMutability":"nonpayable","type":"function"},{"stateMutability":"payable","type":"receive"}],"evm":{"bytecode":{"linkReferences":{},"object":"608080604052346078576001600055331560625760018054336001600160a01b0319821681179092556001600160a01b03167f8be0079c531659141344cd1fd0a4f28419497f9722a3daafe3b4186f6b6457e0600080a3610bda908161007e8239f35b631e4fbdf760e01b600052600060045260246000fd5b600080fdfe608080604052600436101561001d575b50361561001b57600080fd5b005b60003560e01c908163091d27881461090d5750806309ae54be146108265780631b60f266146106235780636ff1c9bc14610716578063715018a6146106b95780638da5cb5b14610690578063a6980ce214610674578063e65c31c414610623578063e886dade146101275763f2fde38b14610098573861000f565b34610122576020366003190112610122576100b1610928565b6100b9610b11565b6001600160a01b0316801561010c57600180546001600160a01b0319811683179091556001600160a01b03167f8be0079c531659141344cd1fd0a4f28419497f9722a3daafe3b4186f6b6457e0600080a3005b631e4fbdf760e01b600052600060045260246000fd5b600080fd5b60603660031901126101225761013b610928565b60243567ffffffffffffffff81116101225761015b903690600401610954565b9060443567ffffffffffffffff81116101225761017c903690600401610954565b91610185610a04565b83156105dd5760c88411610612578284036106015760009460005b85811061059a57506001600160a01b03811690816103845750508434106103735760009283928392915b86841061027a57505060408051958652602086018790528501929092525050606082015260009033907f692e83d8616474b42f4087ee207b152ab184c8c509d2c1ee03ffebb618f8e10090608090a380340390348211610264573403610234575b505b6001600055005b6000808080933361c350f1610247610a26565b5015610253578061022b565b633c31275160e21b60005260046000fd5b634e487b7160e01b600052601160045260246000fd5b9091929360008080806102966102918a8d8b6109bd565b6109e3565b6102a18a888a6109bd565b359061c350f16102af610a26565b50156102cb576102c0600191610b3a565b945b019291906101ca565b93946102d8600191610b3a565b956102e48184866109bd565b35828060a01b036102f9610291848c8a6109bd565b16600052600260205261031d604080600020600090818052602052209182546109f7565b9055600061032f610291838b896109bd565b7fbf182be802245e8ed88e4b8d3e4344c0863dd2a70334f089fd07265389306fcf602061035d85888a6109bd565b3592604051938452868060a01b031692a36102c2565b631e9acf1760e31b60005260046000fd5b90949392604096929651636eb1769f60e11b81523360048201523060248201526020816044818a5afa801561058e578491600091610559575b5010610548579295906104006040516323b872dd60e01b6020820152336024820152306044820152846064820152606481526103fa608482610985565b87610b49565b600093849785935b87851061045c57505060408051968752602087019490945250505082015260608101929092529033907f692e83d8616474b42f4087ee207b152ab184c8c509d2c1ee03ffebb618f8e10090608090a361022d565b9091929395610485610472610291898b866109bd565b8661047e8a87896109bd565b3591610a66565b156104a157610495600191610b3a565b965b0193929190610408565b95986104ae600191610b3a565b996104ba8185876109bd565b35828060a01b036104cf610291848d886109bd565b1660005260026020526104f360408c816000206000918252602052209182546109f7565b905589610504610291838c876109bd565b7fbf182be802245e8ed88e4b8d3e4344c0863dd2a70334f089fd07265389306fcf602061053285898b6109bd565b3592604051938452868060a01b031692a3610497565b6313be252b60e01b60005260046000fd5b9150506020813d602011610586575b8161057560209383610985565b8101031261012257839051896103bd565b3d9150610568565b6040513d6000823e3d90fd5b956001600160a01b036105b16102918989876109bd565b161580156105ee575b6105dd576105d66001916105cf8988886109bd565b35906109f7565b96016101a0565b63b4fa3fb360e01b60005260046000fd5b506105fa8786866109bd565b35156105ba565b631fec674760e31b60005260046000fd5b635531b49560e01b60005260046000fd5b346101225760403660031901126101225761063c610928565b61064461093e565b6001600160a01b039182166000908152600260209081526040808320949093168252928352819020549051908152f35b3461012257600036600319011261012257602060405160c88152f35b34610122576000366003190112610122576001546040516001600160a01b039091168152602090f35b34610122576000366003190112610122576106d2610b11565b600180546001600160a01b031981169091556000906001600160a01b03167f8be0079c531659141344cd1fd0a4f28419497f9722a3daafe3b4186f6b6457e08280a3005b346101225760203660031901126101225761072f610928565b610737610b11565b6001600160a01b0316806107715750600080808060018060a01b03600154164790828215610768575bf11561058e57005b506108fc610760565b6001546040516370a0823160e01b81523060048201526001600160a01b0390911691602082602481845afa91821561058e576000926107ee575b5060405163a9059cbb60e01b60208201526001600160a01b0393909316602484015260448084019290925290825261001b91906107e9606483610985565b610b49565b9291506020833d60201161081e575b8161080a60209383610985565b8101031261012257915190916107e96107ab565b3d91506107fd565b346101225760203660031901126101225761083f610928565b610847610a04565b336000526002602052604060002060018060a01b03821660005260205260406000205480156105dd57336000526002602052604060002060018060a01b0383166000526020526000604081205561089f818333610a66565b156108eb57604080516001600160a01b03939093168352602083019190915233917f6f65559b767bf231652bb6bbc613c03da1500c2af09834b0c638fc41d4b216169190a26001600055005b336000908152600260209081526040822090526313ff771f60e21b8152600490fd5b34610122576000366003190112610122578061c35060209252f35b600435906001600160a01b038216820361012257565b602435906001600160a01b038216820361012257565b9181601f840112156101225782359167ffffffffffffffff8311610122576020808501948460051b01011161012257565b90601f8019910116810190811067ffffffffffffffff8211176109a757604052565b634e487b7160e01b600052604160045260246000fd5b91908110156109cd5760051b0190565b634e487b7160e01b600052603260045260246000fd5b356001600160a01b03811681036101225790565b9190820180921161026457565b600260005414610a15576002600055565b633ee5aeb560e01b60005260046000fd5b3d15610a61573d9067ffffffffffffffff82116109a75760405191610a55601f8201601f191660200184610985565b82523d6000602084013e565b606090565b906001600160a01b031680610a8d57506000808093819361c350f1610a89610a26565b5090565b60405163a9059cbb60e01b81526001600160a01b03929092166004830152602482019290925290602090829060449082906000905af19081610ad9575b50610ad457600090565b600190565b6020813d602011610b09575b81610af260209383610985565b8101031261012257518015158114610aca57600080fd5b3d9150610ae5565b6001546001600160a01b03163303610b2557565b63118cdaa760e01b6000523360045260246000fd5b60001981146102645760010190565b906000602091828151910182855af11561058e576000513d610b9b57506001600160a01b0381163b155b610b7a5750565b635274afe760e01b60009081526001600160a01b0391909116600452602490fd5b60011415610b7356fea2646970667358221220f8ef108f5070e61845247b5389f2367e0eddea9e634af76e748cca8f682abab764736f6c634300081c0033","opcodes":"PUSH1 0x80 DUP1 PUSH1 0x40 MSTORE CALLVALUE PUSH1 0x78 JUMPI PUSH1 0x1 PUSH1 0x0 SSTORE CALLER ISZERO PUSH1 0x62 JUMPI PUSH1 0x1 DUP1 SLOAD CALLER PUSH1 0x1 PUSH1 0x1 PUSH1 0xA0 SHL SUB NOT DUP3 AND DUP2 OR SWAP1 SWAP3 SSTORE PUSH1 0x1 PUSH1 0x1 PUSH1 0xA0 SHL SUB AND PUSH32 0x8BE0079C531659141344CD1FD0A4F28419497F9722A3DAAFE3B4186F6B6457E0 PUSH1 0x0 DUP1 LOG3 PUSH2 0xBDA SWAP1 DUP2 PUSH2 0x7E DUP3 CODECOPY RETURN JUMPDEST PUSH4 0x1E4FBDF7 PUSH1 0xE0 SHL PUSH1 0x0 MSTORE PUSH1 0x0 PUSH1 0x4 MSTORE PUSH1 0x24 PUSH1 0x0 REVERT JUMPDEST PUSH1 0x0 DUP1 REVERT INVALID PUSH1 0x80 DUP1 PUSH1 0x40 MSTORE PUSH1 0x4 CALLDATASIZE LT ISZERO PUSH2 0x1D JUMPI JUMPDEST POP CALLDATASIZE ISZERO PUSH2 0x1B JUMPI PUSH1 0x0 DUP1 REVERT JUMPDEST STOP JUMPDEST PUSH1 0x0 CALLDATALOAD PUSH1 0xE0 SHR SWAP1 DUP2 PUSH4 0x91D2788 EQ PUSH2 0x90D JUMPI POP DUP1 PUSH4 0x9AE54BE EQ PUSH2 0x826 JUMPI DUP1 PUSH4 0x1B60F266 EQ PUSH2 0x623 JUMPI DUP1 PUSH4 0x6FF1C9BC EQ PUSH2 0x716 JUMPI DUP1 PUSH4 0x715018A6 EQ PUSH2 0x6B9 JUMPI DUP1 PUSH4 0x8DA5CB5B EQ PUSH2 0x690 JUMPI DUP1 PUSH4 0xA6980CE2 EQ PUSH2 0x674 JUMPI DUP1 PUSH4 0xE65C31C4 EQ PUSH2 0x623 JUMPI DUP1 PUSH4 0xE886DADE EQ PUSH2 0x127 JUMPI PUSH4 0xF2FDE38B EQ PUSH2 0x98 JUMPI CODESIZE PUSH2 0xF JUMP JUMPDEST CALLVALUE PUSH2 0x122 JUMPI PUSH1 0x20 CALLDATASIZE PUSH1 0x3 NOT ADD SLT PUSH2 0x122 JUMPI PUSH2 0xB1 PUSH2 0x928 JUMP JUMPDEST PUSH2 0xB9 PUSH2 0xB11 JUMP JUMPDEST PUSH1 0x1 PUSH1 0x1 PUSH1 0xA0 SHL SUB AND DUP1 ISZERO PUSH2 0x10C JUMPI PUSH1 0x1 DUP1 SLOAD PUSH1 0x1 PUSH1 0x1 PUSH1 0xA0 SHL SUB NOT DUP2 AND DUP4 OR SWAP1 SWAP2 SSTORE PUSH1 0x1 PUSH1 0x1 PUSH1 0xA0 SHL SUB AND PUSH32 0x8BE0079C531659141344CD1FD0A4F28419497F9722A3DAAFE3B4186F6B6457E0 PUSH1 0x0 DUP1 LOG3 STOP JUMPDEST PUSH4 0x1E4FBDF7 PUSH1 0xE0 SHL PUSH1 0x0 MSTORE PUSH1 0x0 PUSH1 0x4 MSTORE PUSH1 0x24 PUSH1 0x0 REVERT JUMPDEST PUSH1 0x0 DUP1 REVERT JUMPDEST PUSH1 0x60 CALLDATASIZE PUSH1 0x3 NOT ADD SLT PUSH2 0x122 JUMPI PUSH2 0x13B PUSH2 0x928 JUMP JUMPDEST PUSH1 0x24 CALLDATALOAD PUSH8 0xFFFFFFFFFFFFFFFF DUP2 GT PUSH2 0x122 JUMPI PUSH2 0x15B SWAP1 CALLDATASIZE SWAP1 PUSH1 0x4 ADD PUSH2 0x954 JUMP JUMPDEST SWAP1 PUSH1 0x44 CALLDATALOAD PUSH8 0xFFFFFFFFFFFFFFFF DUP2 GT PUSH2 0x122 JUMPI PUSH2 0x17C SWAP1 CALLDATASIZE SWAP1 PUSH1 0x4 ADD PUSH2 0x954 JUMP JUMPDEST SWAP2 PUSH2 0x185 PUSH2 0xA04 JUMP JUMPDEST DUP4 ISZERO PUSH2 0x5DD JUMPI PUSH1 0xC8 DUP5 GT PUSH2 0x612 JUMPI DUP3 DUP5 SUB PUSH2 0x601 JUMPI PUSH1 0x0 SWAP5 PUSH1 0x0 JUMPDEST DUP6 DUP2 LT PUSH2 0x59A JUMPI POP PUSH1 0x1 PUSH1 0x1 PUSH1 0xA0 SHL SUB DUP2 AND SWAP1 DUP2 PUSH2 0x384 JUMPI POP POP DUP5 CALLVALUE LT PUSH2 0x373 JUMPI PUSH1 0x0 SWAP3 DUP4 SWAP3 DUP4 SWAP3 SWAP2 JUMPDEST DUP7 DUP5 LT PUSH2 0x27A JUMPI POP POP PUSH1 0x40 DUP1 MLOAD SWAP6 DUP7 MSTORE PUSH1 0x20 DUP7 ADD DUP8 SWAP1 MSTORE DUP6 ADD SWAP3 SWAP1 SWAP3 MSTORE POP POP PUSH1 0x60 DUP3 ADD MSTORE PUSH1 0x0 SWAP1 CALLER SWAP1 PUSH32 0x692E83D8616474B42F4087EE207B152AB184C8C509D2C1EE03FFEBB618F8E100 SWAP1 PUSH1 0x80 SWAP1 LOG3 DUP1 CALLVALUE SUB SWAP1 CALLVALUE DUP3 GT PUSH2 0x264 JUMPI CALLVALUE SUB PUSH2 0x234 JUMPI JUMPDEST POP JUMPDEST PUSH1 0x1 PUSH1 0x0 SSTORE STOP JUMPDEST PUSH1 0x0 DUP1 DUP1 DUP1 SWAP4 CALLER PUSH2 0xC350 CALL PUSH2 0x247 PUSH2 0xA26 JUMP JUMPDEST POP ISZERO PUSH2 0x253 JUMPI DUP1 PUSH2 0x22B JUMP JUMPDEST PUSH4 0x3C312751 PUSH1 0xE2 SHL PUSH1 0x0 MSTORE PUSH1 0x4 PUSH1 0x0 REVERT JUMPDEST PUSH4 0x4E487B71 PUSH1 0xE0 SHL PUSH1 0x0 MSTORE PUSH1 0x11 PUSH1 0x4 MSTORE PUSH1 0x24 PUSH1 0x0 REVERT JUMPDEST SWAP1 SWAP2 SWAP3 SWAP4 PUSH1 0x0 DUP1 DUP1 DUP1 PUSH2 0x296 PUSH2 0x291 DUP11 DUP14 DUP12 PUSH2 0x9BD JUMP JUMPDEST PUSH2 0x9E3 JUMP JUMPDEST PUSH2 0x2A1 DUP11 DUP9 DUP11 PUSH2 0x9BD JUMP JUMPDEST CALLDATALOAD SWAP1 PUSH2 0xC350 CALL PUSH2 0x2AF PUSH2 0xA26 JUMP JUMPDEST POP ISZERO PUSH2 0x2CB JUMPI PUSH2 0x2C0 PUSH1 0x1 SWAP2 PUSH2 0xB3A JUMP JUMPDEST SWAP5 JUMPDEST ADD SWAP3 SWAP2 SWAP1 PUSH2 0x1CA JUMP JUMPDEST SWAP4 SWAP5 PUSH2 0x2D8 PUSH1 0x1 SWAP2 PUSH2 0xB3A JUMP JUMPDEST SWAP6 PUSH2 0x2E4 DUP2 DUP5 DUP7 PUSH2 0x9BD JUMP JUMPDEST CALLDATALOAD DUP3 DUP1 PUSH1 0xA0 SHL SUB PUSH2 0x2F9 PUSH2 0x291 DUP5 DUP13 DUP11 PUSH2 0x9BD JUMP JUMPDEST AND PUSH1 0x0 MSTORE PUSH1 0x2 PUSH1 0x20 MSTORE PUSH2 0x31D PUSH1 0x40 DUP1 PUSH1 0x0 KECCAK256 PUSH1 0x0 SWAP1 DUP2 DUP1 MSTORE PUSH1 0x20 MSTORE KECCAK256 SWAP2 DUP3 SLOAD PUSH2 0x9F7 JUMP JUMPDEST SWAP1 SSTORE PUSH1 0x0 PUSH2 0x32F PUSH2 0x291 DUP4 DUP12 DUP10 PUSH2 0x9BD JUMP JUMPDEST PUSH32 0xBF182BE802245E8ED88E4B8D3E4344C0863DD2A70334F089FD07265389306FCF PUSH1 0x20 PUSH2 0x35D DUP6 DUP9 DUP11 PUSH2 0x9BD JUMP JUMPDEST CALLDATALOAD SWAP3 PUSH1 0x40 MLOAD SWAP4 DUP5 MSTORE DUP7 DUP1 PUSH1 0xA0 SHL SUB AND SWAP3 LOG3 PUSH2 0x2C2 JUMP JUMPDEST PUSH4 0x1E9ACF17 PUSH1 0xE3 SHL PUSH1 0x0 MSTORE PUSH1 0x4 PUSH1 0x0 REVERT JUMPDEST SWAP1 SWAP5 SWAP4 SWAP3 PUSH1 0x40 SWAP7 SWAP3 SWAP7 MLOAD PUSH4 0x6EB1769F PUSH1 0xE1 SHL DUP2 MSTORE CALLER PUSH1 0x4 DUP3 ADD MSTORE ADDRESS PUSH1 0x24 DUP3 ADD MSTORE PUSH1 0x20 DUP2 PUSH1 0x44 DUP2 DUP11 GAS STATICCALL DUP1 ISZERO PUSH2 0x58E JUMPI DUP5 SWAP2 PUSH1 0x0 SWAP2 PUSH2 0x559 JUMPI JUMPDEST POP LT PUSH2 0x548 JUMPI SWAP3 SWAP6 SWAP1 PUSH2 0x400 PUSH1 0x40 MLOAD PUSH4 0x23B872DD PUSH1 0xE0 SHL PUSH1 0x20 DUP3 ADD MSTORE CALLER PUSH1 0x24 DUP3 ADD MSTORE ADDRESS PUSH1 0x44 DUP3 ADD MSTORE DUP5 PUSH1 0x64 DUP3 ADD MSTORE PUSH1 0x64 DUP2 MSTORE PUSH2 0x3FA PUSH1 0x84 DUP3 PUSH2 0x985 JUMP JUMPDEST DUP8 PUSH2 0xB49 JUMP JUMPDEST PUSH1 0x0 SWAP4 DUP5 SWAP8 DUP6 SWAP4 JUMPDEST DUP8 DUP6 LT PUSH2 0x45C JUMPI POP POP PUSH1 0x40 DUP1 MLOAD SWAP7 DUP8 MSTORE PUSH1 0x20 DUP8 ADD SWAP5 SWAP1 SWAP5 MSTORE POP POP POP DUP3 ADD MSTORE PUSH1 0x60 DUP2 ADD SWAP3 SWAP1 SWAP3 MSTORE SWAP1 CALLER SWAP1 PUSH32 0x692E83D8616474B42F4087EE207B152AB184C8C509D2C1EE03FFEBB618F8E100 SWAP1 PUSH1 0x80 SWAP1 LOG3 PUSH2 0x22D JUMP JUMPDEST SWAP1 SWAP2 SWAP3 SWAP4 SWAP6 PUSH2 0x485 PUSH2 0x472 PUSH2 0x291 DUP10 DUP12 DUP7 PUSH2 0x9BD JUMP JUMPDEST DUP7 PUSH2 0x47E DUP11 DUP8 DUP10 PUSH2 0x9BD JUMP JUMPDEST CALLDATALOAD SWAP2 PUSH2 0xA66 JUMP JUMPDEST ISZERO PUSH2 0x4A1 JUMPI PUSH2 0x495 PUSH1 0x1 SWAP2 PUSH2 0xB3A JUMP JUMPDEST SWAP7 JUMPDEST ADD SWAP4 SWAP3 SWAP2 SWAP1 PUSH2 0x408 JUMP JUMPDEST SWAP6 SWAP9 PUSH2 0x4AE PUSH1 0x1 SWAP2 PUSH2 0xB3A JUMP JUMPDEST SWAP10 PUSH2 0x4BA DUP2 DUP6 DUP8 PUSH2 0x9BD JUMP JUMPDEST CALLDATALOAD DUP3 DUP1 PUSH1 0xA0 SHL SUB PUSH2 0x4CF PUSH2 0x291 DUP5 DUP14 DUP9 PUSH2 0x9BD JUMP JUMPDEST AND PUSH1 0x0 MSTORE PUSH1 0x2 PUSH1 0x20 MSTORE PUSH2 0x4F3 PUSH1 0x40 DUP13 DUP2 PUSH1 0x0 KECCAK256 PUSH1 0x0 SWAP2 DUP3 MSTORE PUSH1 0x20 MSTORE KECCAK256 SWAP2 DUP3 SLOAD PUSH2 0x9F7 JUMP JUMPDEST SWAP1 SSTORE DUP10 PUSH2 0x504 PUSH2 0x291 DUP4 DUP13 DUP8 PUSH2 0x9BD JUMP JUMPDEST PUSH32 0xBF182BE802245E8ED88E4B8D3E4344C0863DD2A70334F089FD07265389306FCF PUSH1 0x20 PUSH2 0x532 DUP6 DUP10 DUP12 PUSH2 0x9BD JUMP JUMPDEST CALLDATALOAD SWAP3 PUSH1 0x40 MLOAD SWAP4 DUP5 MSTORE DUP7 DUP1 PUSH1 0xA0 SHL SUB AND SWAP3 LOG3 PUSH2 0x497 JUMP JUMPDEST PUSH4 0x13BE252B PUSH1 0xE0 SHL PUSH1 0x0 MSTORE PUSH1 0x4 PUSH1 0x0 REVERT JUMPDEST SWAP2 POP POP PUSH1 0x20 DUP2 RETURNDATASIZE PUSH1 0x20 GT PUSH2 0x586 JUMPI JUMPDEST DUP2 PUSH2 0x575 PUSH1 0x20 SWAP4 DUP4 PUSH2 0x985 JUMP JUMPDEST DUP2 ADD SUB SLT PUSH2 0x122 JUMPI DUP4 SWAP1 MLOAD DUP10 PUSH2 0x3BD JUMP JUMPDEST RETURNDATASIZE SWAP2 POP PUSH2 0x568 JUMP JUMPDEST PUSH1 0x40 MLOAD RETURNDATASIZE PUSH1 0x0 DUP3 RETURNDATACOPY RETURNDATASIZE SWAP1 REVERT JUMPDEST SWAP6 PUSH1 0x1 PUSH1 0x1 PUSH1 0xA0 SHL SUB PUSH2 0x5B1 PUSH2 0x291 DUP10 DUP10 DUP8 PUSH2 0x9BD JUMP JUMPDEST AND ISZERO DUP1 ISZERO PUSH2 0x5EE JUMPI JUMPDEST PUSH2 0x5DD JUMPI PUSH2 0x5D6 PUSH1 0x1 SWAP2 PUSH2 0x5CF DUP10 DUP9 DUP9 PUSH2 0x9BD JUMP JUMPDEST CALLDATALOAD SWAP1 PUSH2 0x9F7 JUMP JUMPDEST SWAP7 ADD PUSH2 0x1A0 JUMP JUMPDEST PUSH4 0xB4FA3FB3 PUSH1 0xE0 SHL PUSH1 0x0 MSTORE PUSH1 0x4 PUSH1 0x0 REVERT JUMPDEST POP PUSH2 0x5FA DUP8 DUP7 DUP7 PUSH2 0x9BD JUMP JUMPDEST CALLDATALOAD ISZERO PUSH2 0x5BA JUMP JUMPDEST PUSH4 0x1FEC6747 PUSH1 0xE3 SHL PUSH1 0x0 MSTORE PUSH1 0x4 PUSH1 0x0 REVERT JUMPDEST PUSH4 0x5531B495 PUSH1 0xE0 SHL PUSH1 0x0 MSTORE PUSH1 0x4 PUSH1 0x0 REVERT JUMPDEST CALLVALUE PUSH2 0x122 JUMPI PUSH1 0x40 CALLDATASIZE PUSH1 0x3 NOT ADD SLT PUSH2 0x122 JUMPI PUSH2 0x63C PUSH2 0x928 JUMP JUMPDEST PUSH2 0x644 PUSH2 0x93E JUMP JUMPDEST PUSH1 0x1 PUSH1 0x1 PUSH1 0xA0 SHL SUB SWAP2 DUP3 AND PUSH1 0x0 SWAP1 DUP2 MSTORE PUSH1 0x2 PUSH1 0x20 SWAP1 DUP2 MSTORE PUSH1 0x40 DUP1 DUP4 KECCAK256 SWAP5 SWAP1 SWAP4 AND DUP3 MSTORE SWAP3 DUP4 MSTORE DUP2 SWAP1 KECCAK256 SLOAD SWAP1 MLOAD SWAP1 DUP2 MSTORE RETURN JUMPDEST CALLVALUE PUSH2 0x122 JUMPI PUSH1 0x0 CALLDATASIZE PUSH1 0x3 NOT ADD SLT PUSH2 0x122 JUMPI PUSH1 0x20 PUSH1 0x40 MLOAD PUSH1 0xC8 DUP2 MSTORE RETURN JUMPDEST CALLVALUE PUSH2 0x122 JUMPI PUSH1 0x0 CALLDATASIZE PUSH1 0x3 NOT ADD SLT PUSH2 0x122 JUMPI PUSH1 0x1 SLOAD PUSH1 0x40 MLOAD PUSH1 0x1 PUSH1 0x1 PUSH1 0xA0 SHL SUB SWAP1 SWAP2 AND DUP2 MSTORE PUSH1 0x20 SWAP1 RETURN JUMPDEST CALLVALUE PUSH2 0x122 JUMPI PUSH1 0x0 CALLDATASIZE PUSH1 0x3 NOT ADD SLT PUSH2 0x122 JUMPI PUSH2 0x6D2 PUSH2 0xB11 JUMP JUMPDEST PUSH1 0x1 DUP1 SLOAD PUSH1 0x1 PUSH1 0x1 PUSH1 0xA0 SHL SUB NOT DUP2 AND SWAP1 SWAP2 SSTORE PUSH1 0x0 SWAP1 PUSH1 0x1 PUSH1 0x1 PUSH1 0xA0 SHL SUB AND PUSH32 0x8BE0079C531659141344CD1FD0A4F28419497F9722A3DAAFE3B4186F6B6457E0 DUP3 DUP1 LOG3 STOP JUMPDEST CALLVALUE PUSH2 0x122 JUMPI PUSH1 0x20 CALLDATASIZE PUSH1 0x3 NOT ADD SLT PUSH2 0x122 JUMPI PUSH2 0x72F PUSH2 0x928 JUMP JUMPDEST PUSH2 0x737 PUSH2 0xB11 JUMP JUMPDEST PUSH1 0x1 PUSH1 0x1 PUSH1 0xA0 SHL SUB AND DUP1 PUSH2 0x771 JUMPI POP PUSH1 0x0 DUP1 DUP1 DUP1 PUSH1 0x1 DUP1 PUSH1 0xA0 SHL SUB PUSH1 0x1 SLOAD AND SELFBALANCE SWAP1 DUP3 DUP3 ISZERO PUSH2 0x768 JUMPI JUMPDEST CALL ISZERO PUSH2 0x58E JUMPI STOP JUMPDEST POP PUSH2 0x8FC PUSH2 0x760 JUMP JUMPDEST PUSH1 0x1 SLOAD PUSH1 0x40 MLOAD PUSH4 0x70A08231 PUSH1 0xE0 SHL DUP2 MSTORE ADDRESS PUSH1 0x4 DUP3 ADD MSTORE PUSH1 0x1 PUSH1 0x1 PUSH1 0xA0 SHL SUB SWAP1 SWAP2 AND SWAP2 PUSH1 0x20 DUP3 PUSH1 0x24 DUP2 DUP5 GAS STATICCALL SWAP2 DUP3 ISZERO PUSH2 0x58E JUMPI PUSH1 0x0 SWAP3 PUSH2 0x7EE JUMPI JUMPDEST POP PUSH1 0x40 MLOAD PUSH4 0xA9059CBB PUSH1 0xE0 SHL PUSH1 0x20 DUP3 ADD MSTORE PUSH1 0x1 PUSH1 0x1 PUSH1 0xA0 SHL SUB SWAP4 SWAP1 SWAP4 AND PUSH1 0x24 DUP5 ADD MSTORE PUSH1 0x44 DUP1 DUP5 ADD SWAP3 SWAP1 SWAP3 MSTORE SWAP1 DUP3 MSTORE PUSH2 0x1B SWAP2 SWAP1 PUSH2 0x7E9 PUSH1 0x64 DUP4 PUSH2 0x985 JUMP JUMPDEST PUSH2 0xB49 JUMP JUMPDEST SWAP3 SWAP2 POP PUSH1 0x20 DUP4 RETURNDATASIZE PUSH1 0x20 GT PUSH2 0x81E JUMPI JUMPDEST DUP2 PUSH2 0x80A PUSH1 0x20 SWAP4 DUP4 PUSH2 0x985 JUMP JUMPDEST DUP2 ADD SUB SLT PUSH2 0x122 JUMPI SWAP2 MLOAD SWAP1 SWAP2 PUSH2 0x7E9 PUSH2 0x7AB JUMP JUMPDEST RETURNDATASIZE SWAP2 POP PUSH2 0x7FD JUMP JUMPDEST CALLVALUE PUSH2 0x122 JUMPI PUSH1 0x20 CALLDATASIZE PUSH1 0x3 NOT ADD SLT PUSH2 0x122 JUMPI PUSH2 0x83F PUSH2 0x928 JUMP JUMPDEST PUSH2 0x847 PUSH2 0xA04 JUMP JUMPDEST CALLER PUSH1 0x0 MSTORE PUSH1 0x2 PUSH1 0x20 MSTORE PUSH1 0x40 PUSH1 0x0 KECCAK256 PUSH1 0x1 DUP1 PUSH1 0xA0 SHL SUB DUP3 AND PUSH1 0x0 MSTORE PUSH1 0x20 MSTORE PUSH1 0x40 PUSH1 0x0 KECCAK256 SLOAD DUP1 ISZERO PUSH2 0x5DD JUMPI CALLER PUSH1 0x0 MSTORE PUSH1 0x2 PUSH1 0x20 MSTORE PUSH1 0x40 PUSH1 0x0 KECCAK256 PUSH1 0x1 DUP1 PUSH1 0xA0 SHL SUB DUP4 AND PUSH1 0x0 MSTORE PUSH1 0x20 MSTORE PUSH1 0x0 PUSH1 0x40 DUP2 KECCAK256 SSTORE PUSH2 0x89F DUP2 DUP4 CALLER PUSH2 0xA66 JUMP JUMPDEST ISZERO PUSH2 0x8EB JUMPI PUSH1 0x40 DUP1 MLOAD PUSH1 0x1 PUSH1 0x1 PUSH1 0xA0 SHL SUB SWAP4 SWAP1 SWAP4 AND DUP4 MSTORE PUSH1 0x20 DUP4 ADD SWAP2 SWAP1 SWAP2 MSTORE CALLER SWAP2 PUSH32 0x6F65559B767BF231652BB6BBC613C03DA1500C2AF09834B0C638FC41D4B21616 SWAP2 SWAP1 LOG2 PUSH1 0x1 PUSH1 0x0 SSTORE STOP JUMPDEST CALLER PUSH1 0x0 SWAP1 DUP2 MSTORE PUSH1 0x2 PUSH1 0x20 SWAP1 DUP2 MSTORE PUSH1 0x40 DUP3 KECCAK256 SWAP1 MSTORE PUSH4 0x13FF771F PUSH1 0xE2 SHL DUP2 MSTORE PUSH1 0x4 SWAP1 REVERT JUMPDEST CALLVALUE PUSH2 0x122 JUMPI PUSH1 0x0 CALLDATASIZE PUSH1 0x3 NOT ADD SLT PUSH2 0x122 JUMPI DUP1 PUSH2 0xC350 PUSH1 0x20 SWAP3 MSTORE RETURN JUMPDEST PUSH1 0x4 CALLDATALOAD SWAP1 PUSH1 0x1 PUSH1 0x1 PUSH1 0xA0 SHL SUB DUP3 AND DUP3 SUB PUSH2 0x122 JUMPI JUMP JUMPDEST PUSH1 0x24 CALLDATALOAD SWAP1 PUSH1 0x1 PUSH1 0x1 PUSH1 0xA0 SHL SUB DUP3 AND DUP3 SUB PUSH2 0x122 JUMPI JUMP JUMPDEST SWAP2 DUP2 PUSH1 0x1F DUP5 ADD SLT ISZERO PUSH2 0x122 JUMPI DUP3 CALLDATALOAD SWAP2 PUSH8 0xFFFFFFFFFFFFFFFF DUP4 GT PUSH2 0x122 JUMPI PUSH1 0x20 DUP1 DUP6 ADD SWAP5 DUP5 PUSH1 0x5 SHL ADD ADD GT PUSH2 0x122 JUMPI JUMP JUMPDEST SWAP1 PUSH1 0x1F DUP1 NOT SWAP2 ADD AND DUP2 ADD SWAP1 DUP2 LT PUSH8 0xFFFFFFFFFFFFFFFF DUP3 GT OR PUSH2 0x9A7 JUMPI PUSH1 0x40 MSTORE JUMP JUMPDEST PUSH4 0x4E487B71 PUSH1 0xE0 SHL PUSH1 0x0 MSTORE PUSH1 0x41 PUSH1 0x4 MSTORE PUSH1 0x24 PUSH1 0x0 REVERT JUMPDEST SWAP2 SWAP1 DUP2 LT ISZERO PUSH2 0x9CD JUMPI PUSH1 0x5 SHL ADD SWAP1 JUMP JUMPDEST PUSH4 0x4E487B71 PUSH1 0xE0 SHL PUSH1 0x0 MSTORE PUSH1 0x32 PUSH1 0x4 MSTORE PUSH1 0x24 PUSH1 0x0 REVERT JUMPDEST CALLDATALOAD PUSH1 0x1 PUSH1 0x1 PUSH1 0xA0 SHL SUB DUP2 AND DUP2 SUB PUSH2 0x122 JUMPI SWAP1 JUMP JUMPDEST SWAP2 SWAP1 DUP3 ADD DUP1 SWAP3 GT PUSH2 0x264 JUMPI JUMP JUMPDEST PUSH1 0x2 PUSH1 0x0 SLOAD EQ PUSH2 0xA15 JUMPI PUSH1 0x2 PUSH1 0x0 SSTORE JUMP JUMPDEST PUSH4 0x3EE5AEB5 PUSH1 0xE0 SHL PUSH1 0x0 MSTORE PUSH1 0x4 PUSH1 0x0 REVERT JUMPDEST RETURNDATASIZE ISZERO PUSH2 0xA61 JUMPI RETURNDATASIZE SWAP1 PUSH8 0xFFFFFFFFFFFFFFFF DUP3 GT PUSH2 0x9A7 JUMPI PUSH1 0x40 MLOAD SWAP2 PUSH2 0xA55 PUSH1 0x1F DUP3 ADD PUSH1 0x1F NOT AND PUSH1 0x20 ADD DUP5 PUSH2 0x985 JUMP JUMPDEST DUP3 MSTORE RETURNDATASIZE PUSH1 0x0 PUSH1 0x20 DUP5 ADD RETURNDATACOPY JUMP JUMPDEST PUSH1 0x60 SWAP1 JUMP JUMPDEST SWAP1 PUSH1 0x1 PUSH1 0x1 PUSH1 0xA0 SHL SUB AND DUP1 PUSH2 0xA8D JUMPI POP PUSH1 0x0 DUP1 DUP1 SWAP4 DUP2 SWAP4 PUSH2 0xC350 CALL PUSH2 0xA89 PUSH2 0xA26 JUMP JUMPDEST POP SWAP1 JUMP JUMPDEST PUSH1 0x40 MLOAD PUSH4 0xA9059CBB PUSH1 0xE0 SHL DUP2 MSTORE PUSH1 0x1 PUSH1 0x1 PUSH1 0xA0 SHL SUB SWAP3 SWAP1 SWAP3 AND PUSH1 0x4 DUP4 ADD MSTORE PUSH1 0x24 DUP3 ADD SWAP3 SWAP1 SWAP3 MSTORE SWAP1 PUSH1 0x20 SWAP1 DUP3 SWAP1 PUSH1 0x44 SWAP1 DUP3 SWAP1 PUSH1 0x0 SWAP1 GAS CALL SWAP1 DUP2 PUSH2 0xAD9 JUMPI JUMPDEST POP PUSH2 0xAD4 JUMPI PUSH1 0x0 SWAP1 JUMP JUMPDEST PUSH1 0x1 SWAP1 JUMP JUMPDEST PUSH1 0x20 DUP2 RETURNDATASIZE PUSH1 0x20 GT PUSH2 0xB09 JUMPI JUMPDEST DUP2 PUSH2 0xAF2 PUSH1 0x20 SWAP4 DUP4 PUSH2 0x985 JUMP JUMPDEST DUP2 ADD SUB SLT PUSH2 0x122 JUMPI MLOAD DUP1 ISZERO ISZERO DUP2 EQ PUSH2 0xACA JUMPI PUSH1 0x0 DUP1 REVERT JUMPDEST RETURNDATASIZE SWAP2 POP PUSH2 0xAE5 JUMP JUMPDEST PUSH1 0x1 SLOAD PUSH1 0x1 PUSH1 0x1 PUSH1 0xA0 SHL SUB AND CALLER SUB PUSH2 0xB25 JUMPI JUMP JUMPDEST PUSH4 0x118CDAA7 PUSH1 0xE0 SHL PUSH1 0x0 MSTORE CALLER PUSH1 0x4 MSTORE PUSH1 0x24 PUSH1 0x0 REVERT JUMPDEST PUSH1 0x0 NOT DUP2 EQ PUSH2 0x264 JUMPI PUSH1 0x1 ADD SWAP1 JUMP JUMPDEST SWAP1 PUSH1 0x0 PUSH1 0x20 SWAP2 DUP3 DUP2 MLOAD SWAP2 ADD DUP3 DUP6 GAS CALL ISZERO PUSH2 0x58E JUMPI PUSH1 0x0 MLOAD RETURNDATASIZE PUSH2 0xB9B JUMPI POP PUSH1 0x1 PUSH1 0x1 PUSH1 0xA0 SHL SUB DUP2 AND EXTCODESIZE ISZERO JUMPDEST PUSH2 0xB7A JUMPI POP JUMP JUMPDEST PUSH4 0x5274AFE7 PUSH1 0xE0 SHL PUSH1 0x0 SWAP1 DUP2 MSTORE PUSH1 0x1 PUSH1 0x1 PUSH1 0xA0 SHL SUB SWAP2 SWAP1 SWAP2 AND PUSH1 0x4 MSTORE PUSH1 0x24 SWAP1 REVERT JUMPDEST PUSH1 0x1 EQ ISZERO PUSH2 0xB73 JUMP INVALID LOG2 PUSH5 0x6970667358 0x22 SLT KECCAK256 0xF8 0xEF LT DUP16 POP PUSH17 0xE61845247B5389F2367E0EDDEA9E634AF7 PUSH15 0x748CCA8F682ABAB764736F6C634300 ADDMOD SHR STOP CALLER "},"methodIdentifiers":{"GAS_LIMIT()":"091d2788","MAX_RECIPIENTS()":"a6980ce2","bulkTransfer(address,address[],uint256[])":"e886dade","claimFailedTransfer(address)":"09ae54be","emergencyWithdraw(address)":"6ff1c9bc","failedTransfers(address,address)":"1b60f266","getFailedAmount(address,address)":"e65c31c4","owner()":"8da5cb5b","renounceOwnership()":"715018a6","transferOwnership(address)":"f2fde38b"}}}}}