{"contracts/lendborrow.sol":{"LendingProtocol":{"abi":[{"inputs":[{"internalType":"address","name":"_kaia","type":"address"},{"internalType":"address","name":"_usdt","type":"address"},{"internalType":"address","name":"_usdy","type":"address"},{"internalType":"address","name":"_kkaia","type":"address"},{"internalType":"address","name":"_kusdt","type":"address"},{"internalType":"address","name":"_feedRouter","type":"address"},{"internalType":"address","name":"_initialOwner","type":"address"}],"stateMutability":"nonpayable","type":"constructor"},{"inputs":[],"name":"InvalidPriceData","type":"error"},{"inputs":[],"name":"OraclePriceFeedError","type":"error"},{"inputs":[{"internalType":"address","name":"owner","type":"address"}],"name":"OwnableInvalidOwner","type":"error"},{"inputs":[{"internalType":"address","name":"account","type":"address"}],"name":"OwnableUnauthorizedAccount","type":"error"},{"inputs":[],"name":"ReentrancyGuardReentrantCall","type":"error"},{"inputs":[],"name":"StalePriceData","type":"error"},{"anonymous":false,"inputs":[{"indexed":true,"internalType":"address","name":"user","type":"address"},{"indexed":true,"internalType":"address","name":"token","type":"address"},{"indexed":false,"internalType":"uint256","name":"amount","type":"uint256"}],"name":"Borrow","type":"event"},{"anonymous":false,"inputs":[{"indexed":true,"internalType":"address","name":"user","type":"address"},{"indexed":false,"internalType":"uint256","name":"amount","type":"uint256"}],"name":"CollateralDeposited","type":"event"},{"anonymous":false,"inputs":[{"indexed":true,"internalType":"address","name":"user","type":"address"},{"indexed":false,"internalType":"uint256","name":"amount","type":"uint256"}],"name":"CollateralWithdrawn","type":"event"},{"anonymous":false,"inputs":[{"indexed":true,"internalType":"address","name":"user","type":"address"},{"indexed":true,"internalType":"address","name":"token","type":"address"},{"indexed":false,"internalType":"uint256","name":"amount","type":"uint256"},{"indexed":false,"internalType":"uint256","name":"lpTokens","type":"uint256"}],"name":"Deposit","type":"event"},{"anonymous":false,"inputs":[{"indexed":true,"internalType":"address","name":"liquidator","type":"address"},{"indexed":true,"internalType":"address","name":"borrower","type":"address"},{"indexed":false,"internalType":"uint256","name":"repayAmount","type":"uint256"},{"indexed":false,"internalType":"uint256","name":"collateralSeized","type":"uint256"}],"name":"Liquidate","type":"event"},{"anonymous":false,"inputs":[{"indexed":true,"internalType":"address","name":"previousOwner","type":"address"},{"indexed":true,"internalType":"address","name":"newOwner","type":"address"}],"name":"OwnershipTransferred","type":"event"},{"anonymous":false,"inputs":[{"indexed":true,"internalType":"address","name":"user","type":"address"},{"indexed":true,"internalType":"address","name":"lpToken","type":"address"},{"indexed":false,"internalType":"uint256","name":"amount","type":"uint256"},{"indexed":false,"internalType":"uint256","name":"underlying","type":"uint256"}],"name":"Redeem","type":"event"},{"anonymous":false,"inputs":[{"indexed":true,"internalType":"address","name":"user","type":"address"},{"indexed":true,"internalType":"address","name":"token","type":"address"},{"indexed":false,"internalType":"uint256","name":"amount","type":"uint256"}],"name":"Repay","type":"event"},{"inputs":[],"name":"KAIA","outputs":[{"internalType":"address","name":"","type":"address"}],"stateMutability":"view","type":"function"},{"inputs":[],"name":"KAIA_FEED_NAME","outputs":[{"internalType":"string","name":"","type":"string"}],"stateMutability":"view","type":"function"},{"inputs":[],"name":"USDT","outputs":[{"internalType":"address","name":"","type":"address"}],"stateMutability":"view","type":"function"},{"inputs":[],"name":"USDY","outputs":[{"internalType":"address","name":"","type":"address"}],"stateMutability":"view","type":"function"},{"inputs":[{"internalType":"address","name":"token","type":"address"},{"internalType":"uint256","name":"amount","type":"uint256"}],"name":"borrow","outputs":[],"stateMutability":"nonpayable","type":"function"},{"inputs":[{"internalType":"address","name":"","type":"address"}],"name":"collateralBalance","outputs":[{"internalType":"uint256","name":"","type":"uint256"}],"stateMutability":"view","type":"function"},{"inputs":[{"internalType":"address","name":"","type":"address"},{"internalType":"address","name":"","type":"address"}],"name":"debtBalance","outputs":[{"internalType":"uint256","name":"","type":"uint256"}],"stateMutability":"view","type":"function"},{"inputs":[{"internalType":"address","name":"token","type":"address"},{"internalType":"uint256","name":"amount","type":"uint256"}],"name":"deposit","outputs":[],"stateMutability":"nonpayable","type":"function"},{"inputs":[{"internalType":"uint256","name":"amount","type":"uint256"}],"name":"depositCollateral","outputs":[],"stateMutability":"nonpayable","type":"function"},{"inputs":[{"internalType":"address","name":"token","type":"address"},{"internalType":"uint256","name":"amount","type":"uint256"}],"name":"emergencyWithdraw","outputs":[],"stateMutability":"nonpayable","type":"function"},{"inputs":[],"name":"feedRouter","outputs":[{"internalType":"contract IFeedRouter","name":"","type":"address"}],"stateMutability":"view","type":"function"},{"inputs":[],"name":"getKaiaPrice","outputs":[{"internalType":"uint256","name":"","type":"uint256"}],"stateMutability":"pure","type":"function"},{"inputs":[{"internalType":"address","name":"borrower","type":"address"}],"name":"getLTV","outputs":[{"internalType":"uint256","name":"","type":"uint256"}],"stateMutability":"view","type":"function"},{"inputs":[{"internalType":"address","name":"lpToken","type":"address"}],"name":"getLpPrice","outputs":[{"internalType":"uint256","name":"","type":"uint256"}],"stateMutability":"view","type":"function"},{"inputs":[{"internalType":"address","name":"token","type":"address"}],"name":"getTokenDecimals","outputs":[{"internalType":"uint8","name":"","type":"uint8"}],"stateMutability":"view","type":"function"},{"inputs":[{"internalType":"address","name":"token","type":"address"}],"name":"getTokenName","outputs":[{"internalType":"string","name":"","type":"string"}],"stateMutability":"view","type":"function"},{"inputs":[{"internalType":"address","name":"token","type":"address"}],"name":"getTokenSymbol","outputs":[{"internalType":"string","name":"","type":"string"}],"stateMutability":"view","type":"function"},{"inputs":[],"name":"getUsdtPrice","outputs":[{"internalType":"uint256","name":"","type":"uint256"}],"stateMutability":"pure","type":"function"},{"inputs":[{"internalType":"address","name":"borrower","type":"address"}],"name":"isLiquidatable","outputs":[{"internalType":"bool","name":"","type":"bool"}],"stateMutability":"view","type":"function"},{"inputs":[],"name":"kKAIA","outputs":[{"internalType":"address","name":"","type":"address"}],"stateMutability":"view","type":"function"},{"inputs":[],"name":"kUSDT","outputs":[{"internalType":"address","name":"","type":"address"}],"stateMutability":"view","type":"function"},{"inputs":[{"internalType":"address","name":"","type":"address"}],"name":"lastInterestUpdate","outputs":[{"internalType":"uint256","name":"","type":"uint256"}],"stateMutability":"view","type":"function"},{"inputs":[{"internalType":"address","name":"borrower","type":"address"},{"internalType":"uint256","name":"repayAmount","type":"uint256"}],"name":"liquidate","outputs":[],"stateMutability":"nonpayable","type":"function"},{"inputs":[],"name":"owner","outputs":[{"internalType":"address","name":"","type":"address"}],"stateMutability":"view","type":"function"},{"inputs":[{"internalType":"address","name":"lpToken","type":"address"},{"internalType":"uint256","name":"amount","type":"uint256"}],"name":"redeem","outputs":[],"stateMutability":"nonpayable","type":"function"},{"inputs":[],"name":"renounceOwnership","outputs":[],"stateMutability":"nonpayable","type":"function"},{"inputs":[{"internalType":"address","name":"token","type":"address"},{"internalType":"uint256","name":"amount","type":"uint256"}],"name":"repay","outputs":[],"stateMutability":"nonpayable","type":"function"},{"inputs":[{"internalType":"address","name":"newOwner","type":"address"}],"name":"transferOwnership","outputs":[],"stateMutability":"nonpayable","type":"function"},{"inputs":[{"internalType":"address","name":"token","type":"address"},{"internalType":"uint256","name":"newPrice","type":"uint256"}],"name":"updateTokenPrice","outputs":[],"stateMutability":"nonpayable","type":"function"},{"inputs":[{"internalType":"uint256","name":"amount","type":"uint256"}],"name":"withdrawCollateral","outputs":[],"stateMutability":"nonpayable","type":"function"}],"evm":{"bytecode":{"linkReferences":{},"object":"6101403461021c57601f61232b38819003918201601f19168301916001600160401b038311848410176102215780849260e09460405283398101031261021c5761004881610237565b9061005560208201610237565b61006160408301610237565b61006d60608401610237565b9061007a60808501610237565b9261009360c061008c60a08801610237565b9601610237565b60016000556001600160a01b031695861561020657600180546001600160a01b03198116891790915560405197906001600160a01b03167f8be0079c531659141344cd1fd0a4f28419497f9722a3daafe3b4186f6b6457e0600080a360805260a05260c05260e052610100526001600160a01b0316610120526120df908161024c823960805181818161036801528181610ce401528181610d4701528181610f93015281816111a90152818161140301528181611bdd01528181611d9e01528181611f5f0152611fef015260a0518181816102cf015281816105b201528181610f2f01528181611145015281816112da015281816115a101528181611c3001528181611de701528181611e1d01528181611f9d0152612047015260c0518181816104da015281816106e401528181610bfd01526116fe015260e0518181816101b801528181610fda015261138201526101005181818161111d0152818161131f0152611674015261012051816116b90152f35b631e4fbdf760e01b600052600060045260246000fd5b600080fd5b634e487b7160e01b600052604160045260246000fd5b51906001600160a01b038216820361021c5756fe6080604052600436101561001257600080fd5b6000803560e01c8063042e02cf1461172d57806319685067146116e85780631b995c4b146116a35780631e9a69501461134e57806320db3fe71461130957806322867d781461117457806347e7ef2414610f5e5780634b8a352914610d135780634ed415dc14610cce5780636112fe2e14610b5957806368c923eb14610b145780636f0fccab14610abc578063715018a614610a5f578063785c7cf6146109c957806381a73ad51461094957806389a87ee8146109255780638da5cb5b146108fc57806395ccea671461085b578063961bdfbf14610838578063a1bf2840146107ff578063aca25f9a146107d3578063ad8f240e1461076d578063bad4a01f14610661578063bcbaf487146102fe578063c54e44eb146102b9578063d4ee651b14610293578063f2fde38b1461020a578063f33705ea146101e7578063f4302384146101a25763fade34961461016757600080fd5b3461019f57602036600319011261019f576020906040906001600160a01b0361018e611767565b168152600483522054604051908152f35b80fd5b503461019f578060031936011261019f576040517f00000000000000000000000000000000000000000000000000000000000000006001600160a01b03168152602090f35b503461019f578060031936011261019f576020604051670214e8348c4f00008152f35b503461019f57602036600319011261019f57610224611767565b61022c611f18565b6001600160a01b0316801561027f57600180546001600160a01b0319811683179091556001600160a01b03167f8be0079c531659141344cd1fd0a4f28419497f9722a3daafe3b4186f6b6457e08380a380f35b631e4fbdf760e01b82526004829052602482fd5b503461019f57604036600319011261019f576102ad611767565b506102b6611f18565b80f35b503461019f578060031936011261019f576040517f00000000000000000000000000000000000000000000000000000000000000006001600160a01b03168152602090f35b503461019f57604036600319011261019f57610318611767565b60243590610324611b7d565b6804563918244f40000061033782611ae5565b111561061c5781156105d75761034c81611b9f565b6001600160a01b039081168084526003602090815260408086207f00000000000000000000000000000000000000000000000000000000000000009485166000908152925290205490929190156105af57905b82845260036020526040842060018060a01b038316600052602052604060002054906103cc821515611907565b818111156105a9575080915b6103e28382611fe1565b606e810290808204606e14901517156105955783670de0b6b3a764000060646104259304049386885260026020526104208560408a20541015611960565b611946565b84865260036020526040862060018060a01b038316600052602052604060002055838552600260205261045c826040872054611946565b8486526002602090815260408088209290925590516323b872dd60e01b815233600482015230602482015260448101859052918290606490829089906001600160a01b03165af1801561056d57610578575b5060405163a9059cbb60e01b815233600482015260248101829052602081604481886001600160a01b037f0000000000000000000000000000000000000000000000000000000000000000165af1801561056d57610540575b5060405191825260208201527ff3fa0eaee8f258c23b013654df25d1527f98a5c7ccd5e951dd77caca400ef97260403392a36001815580f35b6105619060203d602011610566575b610559818361177d565b8101906118b3565b610507565b503d61054f565b6040513d87823e3d90fd5b6105909060203d60201161056657610559818361177d565b6104ae565b634e487b7160e01b86526011600452602486fd5b916103d8565b507f00000000000000000000000000000000000000000000000000000000000000009061039f565b60405162461bcd60e51b815260206004820152601860248201527f526570617920616d6f756e74206d757374206265203e203000000000000000006044820152606490fd5b60405162461bcd60e51b815260206004820152601c60248201527f506f736974696f6e206973206e6f74206c6971756964617461626c65000000006044820152606490fd5b503461019f57602036600319011261019f5760043561067e611b7d565b61068981151561182d565b338252600260205261069f816040842054611953565b338084526002602090815260408086209390935591516323b872dd60e01b81526004810191909152306024820152604481018390529081606481866001600160a01b037f0000000000000000000000000000000000000000000000000000000000000000165af1801561076257610745575b506040519081527fd7243f6f8212d5188fd054141cf6ea89cfc0d91facb8c3afe2f88a135848014260203392a26001815580f35b61075d9060203d60201161056657610559818361177d565b610711565b6040513d85823e3d90fd5b503461019f57604036600319011261019f57610787611767565b60243591906001600160a01b03831683036107cf579060409160018060a01b031681526003602052209060018060a01b03166000526020526020604060002054604051908152f35b5080fd5b503461019f57602036600319011261019f5760206107f76107f2611767565b611ae5565b604051908152f35b503461019f57602036600319011261019f576020906040906001600160a01b03610827611767565b168152600283522054604051908152f35b503461019f578060031936011261019f576020604051670de0b6b3a76400008152f35b503461019f57604036600319011261019f578060206108ba61087b611767565b610883611f18565b60015460405163a9059cbb60e01b81526001600160a01b039091166004820152602480359082015293849283919082906044820190565b03926001600160a01b03165af180156108f1576108d5575080f35b6108ed9060203d60201161056657610559818361177d565b5080f35b6040513d84823e3d90fd5b503461019f578060031936011261019f576001546040516001600160a01b039091168152602090f35b503461019f57602036600319011261019f5760206107f7610944611767565b611a3e565b503461019f57602036600319011261019f576004816001600160a01b0361096e611767565b16604051928380926395d89b4160e01b82525afa9081156108f157826109a293926109a6575b5050604051918291826117d8565b0390f35b6109c292503d8091833e6109ba818361177d565b8101906119ac565b3880610994565b503461019f57602036600319011261019f57600460206001600160a01b036109ef611767565b166040519283809263313ce56760e01b82525afa9081156108f1578291610a1f575b60208260ff60405191168152f35b90506020813d602011610a57575b81610a3a6020938361177d565b810103126107cf575160ff811681036107cf576020915038610a11565b3d9150610a2d565b503461019f578060031936011261019f57610a78611f18565b600180546001600160a01b0319811690915581906001600160a01b03167f8be0079c531659141344cd1fd0a4f28419497f9722a3daafe3b4186f6b6457e08280a380f35b503461019f57602036600319011261019f576004816001600160a01b03610ae1611767565b16604051928380926306fdde0360e01b82525afa9081156108f157826109a293926109a6575050604051918291826117d8565b503461019f578060031936011261019f57506109a2604051610b3760408261177d565b600981526812d310564b5554d11560ba1b6020820152604051918291826117d8565b503461019f57602036600319011261019f57600435610b76611b7d565b610b8181151561182d565b3382526002602052610b998160408420541015611960565b3382526002602052610baf816040842054611946565b610bb98133611ee2565b15610c7b573380845260026020908152604080862093909355915163a9059cbb60e01b81526004810191909152602481018390529081604481866001600160a01b037f0000000000000000000000000000000000000000000000000000000000000000165af1801561076257610c5e575b506040519081527fc30fcfbcaac9e0deffa719714eaa82396ff506a0d0d0eebe170830177288715d60203392a26001815580f35b610c769060203d60201161056657610559818361177d565b610c2a565b60405162461bcd60e51b815260206004820152602560248201527f5769746864726177616c20776f756c64206d616b6520706f736974696f6e20756044820152646e7361666560d81b6064820152608490fd5b503461019f578060031936011261019f576040517f00000000000000000000000000000000000000000000000000000000000000006001600160a01b03168152602090f35b503461019f57604036600319011261019f57610d2d611767565b602435610d38611b7d565b6001600160a01b0382811692907f00000000000000000000000000000000000000000000000000000000000000001683148015610f2c575b610d79906118cb565b610d8482151561182d565b6040516370a0823160e01b8152306004820152602081602481875afa801561056d5783908690610ef1575b610dbb9250101561186e565b610dc433611b9f565b33845260036020526040842083600052602052610df1610de983604060002054611953565b809233611d44565b15610eac57338085526003602090815260408087206000878152908352819020939093558186526004808252838720429055925163a9059cbb60e01b815292830191909152602482018390528160448187875af18015610ea157610e84575b506040519081527f312a5e5e1079f5dda4e95dbbd0b908b291fd5b992ef22073643ab691572c5b5260203392a36001815580f35b610e9c9060203d60201161056657610559818361177d565b610e50565b6040513d86823e3d90fd5b60405162461bcd60e51b815260206004820152601d60248201527f426f72726f7720776f756c6420657863656564204c5456206c696d69740000006044820152606490fd5b50506020813d602011610f24575b81610f0c6020938361177d565b81010312610f1f5782610dbb9151610daf565b600080fd5b3d9150610eff565b507f00000000000000000000000000000000000000000000000000000000000000006001600160a01b03168314610d70565b503461019f57604036600319011261019f57610f78611767565b60243590610f84611b7d565b6001600160a01b0390811691907f0000000000000000000000000000000000000000000000000000000000000000168214808015611142575b610fc6906118cb565b811590610fd3821561182d565b1561111b577f0000000000000000000000000000000000000000000000000000000000000000905b61100482611a3e565b90670de0b6b3a7640000840290848204670de0b6b3a764000014171561059557859161102f91611a1e565b6040516323b872dd60e01b815233600482015230602482015260448101859052909290602081606481868a5af18015610762576110fe575b506001600160a01b0316803b156107cf576040516340c10f1960e01b8152336004820152602481018490529082908290604490829084905af180156108f1576110e5575b505060405191825260208201527fdcbc1c05240f31ff3ad067ef1ee35ce4997762752e3a095284754544f4c709d760403392a36001815580f35b816110ef9161177d565b6110fa5783386110ab565b8380fd5b6111169060203d60201161056657610559818361177d565b611067565b7f000000000000000000000000000000000000000000000000000000000000000090610ffb565b507f00000000000000000000000000000000000000000000000000000000000000006001600160a01b03168314610fbd565b503461019f57604036600319011261019f5761118e611767565b6024359061119a611b7d565b6001600160a01b0390811691907f000000000000000000000000000000000000000000000000000000000000000016821480156112d7575b6111db906118cb565b6111e681151561182d565b6111ef33611b9f565b3383526003602052604083208260005260205260406000205490611214821515611907565b818111156112cc57506112278180611946565b3380855260036020908152604080872060008781529083528190209390935591516323b872dd60e01b8152600481019190915230602482015260448101839052908160648187875af18015610ea1576112af575b506040519081527f05f2eeda0e08e4b437f487c8d7d29b14537d15e3488170dc3de5dbdf8dac468460203392a36001815580f35b6112c79060203d60201161056657610559818361177d565b61127b565b611227908092611946565b507f00000000000000000000000000000000000000000000000000000000000000006001600160a01b031682146111d2565b503461019f578060031936011261019f576040517f00000000000000000000000000000000000000000000000000000000000000006001600160a01b03168152602090f35b503461019f57604036600319011261019f57611368611767565b602435611373611b7d565b6001600160a01b0382811692907f0000000000000000000000000000000000000000000000000000000000000000168314808015611671575b15611639576113bc83151561182d565b6040516370a0823160e01b8152336004820152602081602481885afa80156115475784918791611604575b50106115c6571561159057670de0b6b3a764000061142e6114287f000000000000000000000000000000000000000000000000000000000000000093611a3e565b84611804565b6040516370a0823160e01b8152306004820152919004916001600160a01b031690602081602481855afa80156115475783908790611556575b6114739250101561186e565b833b1561155257604051632770a7eb60e21b815233600482015260248101849052858160448183895af1801561154757611533575b5060405163a9059cbb60e01b815233600482015260248101839052906020908290604490829089905af1801561056d57611516575b5060405191825260208201527f3f693fff038bb8a046aa76d9516190ac7444f7d69cf952c4cbdc086fdef2d6fc60403392a36001815580f35b61152e9060203d60201161056657610559818361177d565b6114dd565b856115409196929661177d565b93386114a8565b6040513d88823e3d90fd5b8480fd5b50506020813d602011611588575b816115716020938361177d565b8101031261158457826114739151611467565b8580fd5b3d9150611564565b670de0b6b3a764000061142e6114287f000000000000000000000000000000000000000000000000000000000000000093611a3e565b60405162461bcd60e51b8152602060048201526016602482015275496e73756666696369656e74204c5020746f6b656e7360501b6044820152606490fd5b9150506020813d602011611631575b816116206020938361177d565b8101031261158457839051386113e7565b3d9150611613565b60405162461bcd60e51b815260206004820152601060248201526f24b73b30b634b2102628103a37b5b2b760811b6044820152606490fd5b507f00000000000000000000000000000000000000000000000000000000000000006001600160a01b031684146113ac565b503461019f578060031936011261019f576040517f00000000000000000000000000000000000000000000000000000000000000006001600160a01b03168152602090f35b503461019f578060031936011261019f576040517f00000000000000000000000000000000000000000000000000000000000000006001600160a01b03168152602090f35b503461019f57602036600319011261019f576804563918244f40000061175e602092611757611767565b9050611ae5565b11604051908152f35b600435906001600160a01b0382168203610f1f57565b90601f8019910116810190811067ffffffffffffffff82111761179f57604052565b634e487b7160e01b600052604160045260246000fd5b60005b8381106117c85750506000910152565b81810151838201526020016117b8565b604091602082526117f881518092816020860152602086860191016117b5565b601f01601f1916010190565b8181029291811591840414171561181757565b634e487b7160e01b600052601160045260246000fd5b1561183457565b60405162461bcd60e51b81526020600482015260126024820152710416d6f756e74206d757374206265203e20360741b6044820152606490fd5b1561187557565b60405162461bcd60e51b8152602060048201526016602482015275496e73756666696369656e74206c697175696469747960501b6044820152606490fd5b90816020910312610f1f57518015158103610f1f5790565b156118d257565b60405162461bcd60e51b815260206004820152600d60248201526c24b73b30b634b2103a37b5b2b760991b6044820152606490fd5b1561190e57565b60405162461bcd60e51b815260206004820152601060248201526f4e6f206465627420746f20726570617960801b6044820152606490fd5b9190820391821161181757565b9190820180921161181757565b1561196757565b60405162461bcd60e51b815260206004820152601760248201527f496e73756666696369656e7420636f6c6c61746572616c0000000000000000006044820152606490fd5b602081830312610f1f5780519067ffffffffffffffff8211610f1f570181601f82011215610f1f57805167ffffffffffffffff811161179f57604051926119fd601f8301601f19166020018561177d565b81845260208284010111610f1f57611a1b91602080850191016117b5565b90565b8115611a28570490565b634e487b7160e01b600052601260045260246000fd5b6040516318160ddd60e01b815290602090829060049082906001600160a01b03165afa908115611ad957600091611aa7575b508064e8d4a51000029064e8d4a5100082040361181757670de0b6b3a76400009004670de0b6b3a764000081018091116118175790565b906020823d602011611ad1575b81611ac16020938361177d565b8101031261019f57505138611a70565b3d9150611ab4565b6040513d6000823e3d90fd5b60018060a01b0381166000526002602052604060002054670de0b6b3a7640000810290808204670de0b6b3a7640000149015171561181757670de0b6b3a76400009004908115611b7657611b3890611f41565b906064820291808304606414811517156118175768056bc75e2d631000000291808304670de0b6b3a7640000149015171561181757611a1b91611a1e565b5050600090565b600260005414611b8e576002600055565b633ee5aeb560e01b60005260046000fd5b6001600160a01b03166000818152600460205260409020548015611d3257611bc79042611946565b8015611d2e5781600052600360205260406000207f00000000000000000000000000000000000000000000000000000000000000009060018060a01b0382166000526020526040600020548015908115611cdd575b5050508160005260036020526040600020907f00000000000000000000000000000000000000000000000000000000000000009160018060a01b03831660005260205260406000205480158015611c83575b50505050600052600460205242604060002055565b60058202908282046005141715611817576064611ca8611cb0946301e1338093611804565b040490611953565b9082600052600360205260406000209060018060a01b031660005260205260406000205538808080611c6e565b60058102918183046005141715611817576301e133806064611ca886611d0295611804565b9083600052600360205260406000209060018060a01b0316600052602052604060002055388080611c1c565b5050565b50600052600460205242604060002055565b60018060a01b031690816000526002602052604060002054670de0b6b3a7640000810290808204670de0b6b3a7640000149015171561181757670de0b6b3a7640000900492611e4e92611e48916001600160a01b038481167f00000000000000000000000000000000000000000000000000000000000000009182161492611e4292919060008515611ebf57506000526003602052604060002060018060a01b037f000000000000000000000000000000000000000000000000000000000000000016600052602052604060002054935b15611eb957507f000000000000000000000000000000000000000000000000000000000000000094611fe1565b92611fe1565b90611953565b811580611eb0575b611b76578015611ea95760648102908082046064036118175768056bc75e2d631000000290808204670de0b6b3a76400001490151715611817576804563918244f40000091611ea491611a1e565b111590565b5050600190565b50801515611e56565b94611fe1565b6040918152600360205281812060018060a01b0384168252602052205493611e15565b90670de0b6b3a7640000810290808204670de0b6b3a7640000149015171561181757670de0b6b3a7640000611e4e910491611f41565b6001546001600160a01b03163303611f2c57565b63118cdaa760e01b6000523360045260246000fd5b6001600160a01b0390811660008181526003602090815260408083207f00000000000000000000000000000000000000000000000000000000000000009586168452909152902054611a1b92611e4891611f9a91611fe1565b917f0000000000000000000000000000000000000000000000000000000000000000906000526003602052604060002060018060a01b038216600052602052604060002054905b6001600160a01b03908116907f00000000000000000000000000000000000000000000000000000000000000001681036120455750670214e8348c4f0000810290808204670214e8348c4f0000149015171561181757670de0b6b3a7640000900490565b7f00000000000000000000000000000000000000000000000000000000000000006001600160a01b03161461207a5750600090565b670de0b6b3a7640000810290808204670de0b6b3a7640000149015171561181757670de0b6b3a764000090049056fea2646970667358221220ae8b8c53bd719b1851f437bfed2599248fc0137b95ff049829cd09b44c51bcc764736f6c634300081c0033","opcodes":"PUSH2 0x140 CALLVALUE PUSH2 0x21C JUMPI PUSH1 0x1F PUSH2 0x232B CODESIZE DUP2 SWAP1 SUB SWAP2 DUP3 ADD PUSH1 0x1F NOT AND DUP4 ADD SWAP2 PUSH1 0x1 PUSH1 0x1 PUSH1 0x40 SHL SUB DUP4 GT DUP5 DUP5 LT OR PUSH2 0x221 JUMPI DUP1 DUP5 SWAP3 PUSH1 0xE0 SWAP5 PUSH1 0x40 MSTORE DUP4 CODECOPY DUP2 ADD SUB SLT PUSH2 0x21C JUMPI PUSH2 0x48 DUP2 PUSH2 0x237 JUMP JUMPDEST SWAP1 PUSH2 0x55 PUSH1 0x20 DUP3 ADD PUSH2 0x237 JUMP JUMPDEST PUSH2 0x61 PUSH1 0x40 DUP4 ADD PUSH2 0x237 JUMP JUMPDEST PUSH2 0x6D PUSH1 0x60 DUP5 ADD PUSH2 0x237 JUMP JUMPDEST SWAP1 PUSH2 0x7A PUSH1 0x80 DUP6 ADD PUSH2 0x237 JUMP JUMPDEST SWAP3 PUSH2 0x93 PUSH1 0xC0 PUSH2 0x8C PUSH1 0xA0 DUP9 ADD PUSH2 0x237 JUMP JUMPDEST SWAP7 ADD PUSH2 0x237 JUMP JUMPDEST PUSH1 0x1 PUSH1 0x0 SSTORE PUSH1 0x1 PUSH1 0x1 PUSH1 0xA0 SHL SUB AND SWAP6 DUP7 ISZERO PUSH2 0x206 JUMPI PUSH1 0x1 DUP1 SLOAD PUSH1 0x1 PUSH1 0x1 PUSH1 0xA0 SHL SUB NOT DUP2 AND DUP10 OR SWAP1 SWAP2 SSTORE PUSH1 0x40 MLOAD SWAP8 SWAP1 PUSH1 0x1 PUSH1 0x1 PUSH1 0xA0 SHL SUB AND PUSH32 0x8BE0079C531659141344CD1FD0A4F28419497F9722A3DAAFE3B4186F6B6457E0 PUSH1 0x0 DUP1 LOG3 PUSH1 0x80 MSTORE PUSH1 0xA0 MSTORE PUSH1 0xC0 MSTORE PUSH1 0xE0 MSTORE PUSH2 0x100 MSTORE PUSH1 0x1 PUSH1 0x1 PUSH1 0xA0 SHL SUB AND PUSH2 0x120 MSTORE PUSH2 0x20DF SWAP1 DUP2 PUSH2 0x24C DUP3 CODECOPY PUSH1 0x80 MLOAD DUP2 DUP2 DUP2 PUSH2 0x368 ADD MSTORE DUP2 DUP2 PUSH2 0xCE4 ADD MSTORE DUP2 DUP2 PUSH2 0xD47 ADD MSTORE DUP2 DUP2 PUSH2 0xF93 ADD MSTORE DUP2 DUP2 PUSH2 0x11A9 ADD MSTORE DUP2 DUP2 PUSH2 0x1403 ADD MSTORE DUP2 DUP2 PUSH2 0x1BDD ADD MSTORE DUP2 DUP2 PUSH2 0x1D9E ADD MSTORE DUP2 DUP2 PUSH2 0x1F5F ADD MSTORE PUSH2 0x1FEF ADD MSTORE PUSH1 0xA0 MLOAD DUP2 DUP2 DUP2 PUSH2 0x2CF ADD MSTORE DUP2 DUP2 PUSH2 0x5B2 ADD MSTORE DUP2 DUP2 PUSH2 0xF2F ADD MSTORE DUP2 DUP2 PUSH2 0x1145 ADD MSTORE DUP2 DUP2 PUSH2 0x12DA ADD MSTORE DUP2 DUP2 PUSH2 0x15A1 ADD MSTORE DUP2 DUP2 PUSH2 0x1C30 ADD MSTORE DUP2 DUP2 PUSH2 0x1DE7 ADD MSTORE DUP2 DUP2 PUSH2 0x1E1D ADD MSTORE DUP2 DUP2 PUSH2 0x1F9D ADD MSTORE PUSH2 0x2047 ADD MSTORE PUSH1 0xC0 MLOAD DUP2 DUP2 DUP2 PUSH2 0x4DA ADD MSTORE DUP2 DUP2 PUSH2 0x6E4 ADD MSTORE DUP2 DUP2 PUSH2 0xBFD ADD MSTORE PUSH2 0x16FE ADD MSTORE PUSH1 0xE0 MLOAD DUP2 DUP2 DUP2 PUSH2 0x1B8 ADD MSTORE DUP2 DUP2 PUSH2 0xFDA ADD MSTORE PUSH2 0x1382 ADD MSTORE PUSH2 0x100 MLOAD DUP2 DUP2 DUP2 PUSH2 0x111D ADD MSTORE DUP2 DUP2 PUSH2 0x131F ADD MSTORE PUSH2 0x1674 ADD MSTORE PUSH2 0x120 MLOAD DUP2 PUSH2 0x16B9 ADD MSTORE RETURN JUMPDEST PUSH4 0x1E4FBDF7 PUSH1 0xE0 SHL PUSH1 0x0 MSTORE PUSH1 0x0 PUSH1 0x4 MSTORE PUSH1 0x24 PUSH1 0x0 REVERT JUMPDEST PUSH1 0x0 DUP1 REVERT JUMPDEST PUSH4 0x4E487B71 PUSH1 0xE0 SHL PUSH1 0x0 MSTORE PUSH1 0x41 PUSH1 0x4 MSTORE PUSH1 0x24 PUSH1 0x0 REVERT JUMPDEST MLOAD SWAP1 PUSH1 0x1 PUSH1 0x1 PUSH1 0xA0 SHL SUB DUP3 AND DUP3 SUB PUSH2 0x21C JUMPI JUMP INVALID PUSH1 0x80 PUSH1 0x40 MSTORE PUSH1 0x4 CALLDATASIZE LT ISZERO PUSH2 0x12 JUMPI PUSH1 0x0 DUP1 REVERT JUMPDEST PUSH1 0x0 DUP1 CALLDATALOAD PUSH1 0xE0 SHR DUP1 PUSH4 0x42E02CF EQ PUSH2 0x172D JUMPI DUP1 PUSH4 0x19685067 EQ PUSH2 0x16E8 JUMPI DUP1 PUSH4 0x1B995C4B EQ PUSH2 0x16A3 JUMPI DUP1 PUSH4 0x1E9A6950 EQ PUSH2 0x134E JUMPI DUP1 PUSH4 0x20DB3FE7 EQ PUSH2 0x1309 JUMPI DUP1 PUSH4 0x22867D78 EQ PUSH2 0x1174 JUMPI DUP1 PUSH4 0x47E7EF24 EQ PUSH2 0xF5E JUMPI DUP1 PUSH4 0x4B8A3529 EQ PUSH2 0xD13 JUMPI DUP1 PUSH4 0x4ED415DC EQ PUSH2 0xCCE JUMPI DUP1 PUSH4 0x6112FE2E EQ PUSH2 0xB59 JUMPI DUP1 PUSH4 0x68C923EB EQ PUSH2 0xB14 JUMPI DUP1 PUSH4 0x6F0FCCAB EQ PUSH2 0xABC JUMPI DUP1 PUSH4 0x715018A6 EQ PUSH2 0xA5F JUMPI DUP1 PUSH4 0x785C7CF6 EQ PUSH2 0x9C9 JUMPI DUP1 PUSH4 0x81A73AD5 EQ PUSH2 0x949 JUMPI DUP1 PUSH4 0x89A87EE8 EQ PUSH2 0x925 JUMPI DUP1 PUSH4 0x8DA5CB5B EQ PUSH2 0x8FC JUMPI DUP1 PUSH4 0x95CCEA67 EQ PUSH2 0x85B JUMPI DUP1 PUSH4 0x961BDFBF EQ PUSH2 0x838 JUMPI DUP1 PUSH4 0xA1BF2840 EQ PUSH2 0x7FF JUMPI DUP1 PUSH4 0xACA25F9A EQ PUSH2 0x7D3 JUMPI DUP1 PUSH4 0xAD8F240E EQ PUSH2 0x76D JUMPI DUP1 PUSH4 0xBAD4A01F EQ PUSH2 0x661 JUMPI DUP1 PUSH4 0xBCBAF487 EQ PUSH2 0x2FE JUMPI DUP1 PUSH4 0xC54E44EB EQ PUSH2 0x2B9 JUMPI DUP1 PUSH4 0xD4EE651B EQ PUSH2 0x293 JUMPI DUP1 PUSH4 0xF2FDE38B EQ PUSH2 0x20A JUMPI DUP1 PUSH4 0xF33705EA EQ PUSH2 0x1E7 JUMPI DUP1 PUSH4 0xF4302384 EQ PUSH2 0x1A2 JUMPI PUSH4 0xFADE3496 EQ PUSH2 0x167 JUMPI PUSH1 0x0 DUP1 REVERT JUMPDEST CALLVALUE PUSH2 0x19F JUMPI PUSH1 0x20 CALLDATASIZE PUSH1 0x3 NOT ADD SLT PUSH2 0x19F JUMPI PUSH1 0x20 SWAP1 PUSH1 0x40 SWAP1 PUSH1 0x1 PUSH1 0x1 PUSH1 0xA0 SHL SUB PUSH2 0x18E PUSH2 0x1767 JUMP JUMPDEST AND DUP2 MSTORE PUSH1 0x4 DUP4 MSTORE KECCAK256 SLOAD PUSH1 0x40 MLOAD SWAP1 DUP2 MSTORE RETURN JUMPDEST DUP1 REVERT JUMPDEST POP CALLVALUE PUSH2 0x19F JUMPI DUP1 PUSH1 0x3 NOT CALLDATASIZE ADD SLT PUSH2 0x19F JUMPI PUSH1 0x40 MLOAD PUSH32 0x0 PUSH1 0x1 PUSH1 0x1 PUSH1 0xA0 SHL SUB AND DUP2 MSTORE PUSH1 0x20 SWAP1 RETURN JUMPDEST POP CALLVALUE PUSH2 0x19F JUMPI DUP1 PUSH1 0x3 NOT CALLDATASIZE ADD SLT PUSH2 0x19F JUMPI PUSH1 0x20 PUSH1 0x40 MLOAD PUSH8 0x214E8348C4F0000 DUP2 MSTORE RETURN JUMPDEST POP CALLVALUE PUSH2 0x19F JUMPI PUSH1 0x20 CALLDATASIZE PUSH1 0x3 NOT ADD SLT PUSH2 0x19F JUMPI PUSH2 0x224 PUSH2 0x1767 JUMP JUMPDEST PUSH2 0x22C PUSH2 0x1F18 JUMP JUMPDEST PUSH1 0x1 PUSH1 0x1 PUSH1 0xA0 SHL SUB AND DUP1 ISZERO PUSH2 0x27F JUMPI PUSH1 0x1 DUP1 SLOAD PUSH1 0x1 PUSH1 0x1 PUSH1 0xA0 SHL SUB NOT DUP2 AND DUP4 OR SWAP1 SWAP2 SSTORE PUSH1 0x1 PUSH1 0x1 PUSH1 0xA0 SHL SUB AND PUSH32 0x8BE0079C531659141344CD1FD0A4F28419497F9722A3DAAFE3B4186F6B6457E0 DUP4 DUP1 LOG3 DUP1 RETURN JUMPDEST PUSH4 0x1E4FBDF7 PUSH1 0xE0 SHL DUP3 MSTORE PUSH1 0x4 DUP3 SWAP1 MSTORE PUSH1 0x24 DUP3 REVERT JUMPDEST POP CALLVALUE PUSH2 0x19F JUMPI PUSH1 0x40 CALLDATASIZE PUSH1 0x3 NOT ADD SLT PUSH2 0x19F JUMPI PUSH2 0x2AD PUSH2 0x1767 JUMP JUMPDEST POP PUSH2 0x2B6 PUSH2 0x1F18 JUMP JUMPDEST DUP1 RETURN JUMPDEST POP CALLVALUE PUSH2 0x19F JUMPI DUP1 PUSH1 0x3 NOT CALLDATASIZE ADD SLT PUSH2 0x19F JUMPI PUSH1 0x40 MLOAD PUSH32 0x0 PUSH1 0x1 PUSH1 0x1 PUSH1 0xA0 SHL SUB AND DUP2 MSTORE PUSH1 0x20 SWAP1 RETURN JUMPDEST POP CALLVALUE PUSH2 0x19F JUMPI PUSH1 0x40 CALLDATASIZE PUSH1 0x3 NOT ADD SLT PUSH2 0x19F JUMPI PUSH2 0x318 PUSH2 0x1767 JUMP JUMPDEST PUSH1 0x24 CALLDATALOAD SWAP1 PUSH2 0x324 PUSH2 0x1B7D JUMP JUMPDEST PUSH9 0x4563918244F400000 PUSH2 0x337 DUP3 PUSH2 0x1AE5 JUMP JUMPDEST GT ISZERO PUSH2 0x61C JUMPI DUP2 ISZERO PUSH2 0x5D7 JUMPI PUSH2 0x34C DUP2 PUSH2 0x1B9F JUMP JUMPDEST PUSH1 0x1 PUSH1 0x1 PUSH1 0xA0 SHL SUB SWAP1 DUP2 AND DUP1 DUP5 MSTORE PUSH1 0x3 PUSH1 0x20 SWAP1 DUP2 MSTORE PUSH1 0x40 DUP1 DUP7 KECCAK256 PUSH32 0x0 SWAP5 DUP6 AND PUSH1 0x0 SWAP1 DUP2 MSTORE SWAP3 MSTORE SWAP1 KECCAK256 SLOAD SWAP1 SWAP3 SWAP2 SWAP1 ISZERO PUSH2 0x5AF JUMPI SWAP1 JUMPDEST DUP3 DUP5 MSTORE PUSH1 0x3 PUSH1 0x20 MSTORE PUSH1 0x40 DUP5 KECCAK256 PUSH1 0x1 DUP1 PUSH1 0xA0 SHL SUB DUP4 AND PUSH1 0x0 MSTORE PUSH1 0x20 MSTORE PUSH1 0x40 PUSH1 0x0 KECCAK256 SLOAD SWAP1 PUSH2 0x3CC DUP3 ISZERO ISZERO PUSH2 0x1907 JUMP JUMPDEST DUP2 DUP2 GT ISZERO PUSH2 0x5A9 JUMPI POP DUP1 SWAP2 JUMPDEST PUSH2 0x3E2 DUP4 DUP3 PUSH2 0x1FE1 JUMP JUMPDEST PUSH1 0x6E DUP2 MUL SWAP1 DUP1 DUP3 DIV PUSH1 0x6E EQ SWAP1 ISZERO OR ISZERO PUSH2 0x595 JUMPI DUP4 PUSH8 0xDE0B6B3A7640000 PUSH1 0x64 PUSH2 0x425 SWAP4 DIV DIV SWAP4 DUP7 DUP9 MSTORE PUSH1 0x2 PUSH1 0x20 MSTORE PUSH2 0x420 DUP6 PUSH1 0x40 DUP11 KECCAK256 SLOAD LT ISZERO PUSH2 0x1960 JUMP JUMPDEST PUSH2 0x1946 JUMP JUMPDEST DUP5 DUP7 MSTORE PUSH1 0x3 PUSH1 0x20 MSTORE PUSH1 0x40 DUP7 KECCAK256 PUSH1 0x1 DUP1 PUSH1 0xA0 SHL SUB DUP4 AND PUSH1 0x0 MSTORE PUSH1 0x20 MSTORE PUSH1 0x40 PUSH1 0x0 KECCAK256 SSTORE DUP4 DUP6 MSTORE PUSH1 0x2 PUSH1 0x20 MSTORE PUSH2 0x45C DUP3 PUSH1 0x40 DUP8 KECCAK256 SLOAD PUSH2 0x1946 JUMP JUMPDEST DUP5 DUP7 MSTORE PUSH1 0x2 PUSH1 0x20 SWAP1 DUP2 MSTORE PUSH1 0x40 DUP1 DUP9 KECCAK256 SWAP3 SWAP1 SWAP3 SSTORE SWAP1 MLOAD PUSH4 0x23B872DD PUSH1 0xE0 SHL DUP2 MSTORE CALLER PUSH1 0x4 DUP3 ADD MSTORE ADDRESS PUSH1 0x24 DUP3 ADD MSTORE PUSH1 0x44 DUP2 ADD DUP6 SWAP1 MSTORE SWAP2 DUP3 SWAP1 PUSH1 0x64 SWAP1 DUP3 SWAP1 DUP10 SWAP1 PUSH1 0x1 PUSH1 0x1 PUSH1 0xA0 SHL SUB AND GAS CALL DUP1 ISZERO PUSH2 0x56D JUMPI PUSH2 0x578 JUMPI JUMPDEST POP PUSH1 0x40 MLOAD PUSH4 0xA9059CBB PUSH1 0xE0 SHL DUP2 MSTORE CALLER PUSH1 0x4 DUP3 ADD MSTORE PUSH1 0x24 DUP2 ADD DUP3 SWAP1 MSTORE PUSH1 0x20 DUP2 PUSH1 0x44 DUP2 DUP9 PUSH1 0x1 PUSH1 0x1 PUSH1 0xA0 SHL SUB PUSH32 0x0 AND GAS CALL DUP1 ISZERO PUSH2 0x56D JUMPI PUSH2 0x540 JUMPI JUMPDEST POP PUSH1 0x40 MLOAD SWAP2 DUP3 MSTORE PUSH1 0x20 DUP3 ADD MSTORE PUSH32 0xF3FA0EAEE8F258C23B013654DF25D1527F98A5C7CCD5E951DD77CACA400EF972 PUSH1 0x40 CALLER SWAP3 LOG3 PUSH1 0x1 DUP2 SSTORE DUP1 RETURN JUMPDEST PUSH2 0x561 SWAP1 PUSH1 0x20 RETURNDATASIZE PUSH1 0x20 GT PUSH2 0x566 JUMPI JUMPDEST PUSH2 0x559 DUP2 DUP4 PUSH2 0x177D JUMP JUMPDEST DUP2 ADD SWAP1 PUSH2 0x18B3 JUMP JUMPDEST PUSH2 0x507 JUMP JUMPDEST POP RETURNDATASIZE PUSH2 0x54F JUMP JUMPDEST PUSH1 0x40 MLOAD RETURNDATASIZE DUP8 DUP3 RETURNDATACOPY RETURNDATASIZE SWAP1 REVERT JUMPDEST PUSH2 0x590 SWAP1 PUSH1 0x20 RETURNDATASIZE PUSH1 0x20 GT PUSH2 0x566 JUMPI PUSH2 0x559 DUP2 DUP4 PUSH2 0x177D JUMP JUMPDEST PUSH2 0x4AE JUMP JUMPDEST PUSH4 0x4E487B71 PUSH1 0xE0 SHL DUP7 MSTORE PUSH1 0x11 PUSH1 0x4 MSTORE PUSH1 0x24 DUP7 REVERT JUMPDEST SWAP2 PUSH2 0x3D8 JUMP JUMPDEST POP PUSH32 0x0 SWAP1 PUSH2 0x39F JUMP JUMPDEST PUSH1 0x40 MLOAD PUSH3 0x461BCD PUSH1 0xE5 SHL DUP2 MSTORE PUSH1 0x20 PUSH1 0x4 DUP3 ADD MSTORE PUSH1 0x18 PUSH1 0x24 DUP3 ADD MSTORE PUSH32 0x526570617920616D6F756E74206D757374206265203E20300000000000000000 PUSH1 0x44 DUP3 ADD MSTORE PUSH1 0x64 SWAP1 REVERT JUMPDEST PUSH1 0x40 MLOAD PUSH3 0x461BCD PUSH1 0xE5 SHL DUP2 MSTORE PUSH1 0x20 PUSH1 0x4 DUP3 ADD MSTORE PUSH1 0x1C PUSH1 0x24 DUP3 ADD MSTORE PUSH32 0x506F736974696F6E206973206E6F74206C6971756964617461626C6500000000 PUSH1 0x44 DUP3 ADD MSTORE PUSH1 0x64 SWAP1 REVERT JUMPDEST POP CALLVALUE PUSH2 0x19F JUMPI PUSH1 0x20 CALLDATASIZE PUSH1 0x3 NOT ADD SLT PUSH2 0x19F JUMPI PUSH1 0x4 CALLDATALOAD PUSH2 0x67E PUSH2 0x1B7D JUMP JUMPDEST PUSH2 0x689 DUP2 ISZERO ISZERO PUSH2 0x182D JUMP JUMPDEST CALLER DUP3 MSTORE PUSH1 0x2 PUSH1 0x20 MSTORE PUSH2 0x69F DUP2 PUSH1 0x40 DUP5 KECCAK256 SLOAD PUSH2 0x1953 JUMP JUMPDEST CALLER DUP1 DUP5 MSTORE PUSH1 0x2 PUSH1 0x20 SWAP1 DUP2 MSTORE PUSH1 0x40 DUP1 DUP7 KECCAK256 SWAP4 SWAP1 SWAP4 SSTORE SWAP2 MLOAD PUSH4 0x23B872DD PUSH1 0xE0 SHL DUP2 MSTORE PUSH1 0x4 DUP2 ADD SWAP2 SWAP1 SWAP2 MSTORE ADDRESS PUSH1 0x24 DUP3 ADD MSTORE PUSH1 0x44 DUP2 ADD DUP4 SWAP1 MSTORE SWAP1 DUP2 PUSH1 0x64 DUP2 DUP7 PUSH1 0x1 PUSH1 0x1 PUSH1 0xA0 SHL SUB PUSH32 0x0 AND GAS CALL DUP1 ISZERO PUSH2 0x762 JUMPI PUSH2 0x745 JUMPI JUMPDEST POP PUSH1 0x40 MLOAD SWAP1 DUP2 MSTORE PUSH32 0xD7243F6F8212D5188FD054141CF6EA89CFC0D91FACB8C3AFE2F88A1358480142 PUSH1 0x20 CALLER SWAP3 LOG2 PUSH1 0x1 DUP2 SSTORE DUP1 RETURN JUMPDEST PUSH2 0x75D SWAP1 PUSH1 0x20 RETURNDATASIZE PUSH1 0x20 GT PUSH2 0x566 JUMPI PUSH2 0x559 DUP2 DUP4 PUSH2 0x177D JUMP JUMPDEST PUSH2 0x711 JUMP JUMPDEST PUSH1 0x40 MLOAD RETURNDATASIZE DUP6 DUP3 RETURNDATACOPY RETURNDATASIZE SWAP1 REVERT JUMPDEST POP CALLVALUE PUSH2 0x19F JUMPI PUSH1 0x40 CALLDATASIZE PUSH1 0x3 NOT ADD SLT PUSH2 0x19F JUMPI PUSH2 0x787 PUSH2 0x1767 JUMP JUMPDEST PUSH1 0x24 CALLDATALOAD SWAP2 SWAP1 PUSH1 0x1 PUSH1 0x1 PUSH1 0xA0 SHL SUB DUP4 AND DUP4 SUB PUSH2 0x7CF JUMPI SWAP1 PUSH1 0x40 SWAP2 PUSH1 0x1 DUP1 PUSH1 0xA0 SHL SUB AND DUP2 MSTORE PUSH1 0x3 PUSH1 0x20 MSTORE KECCAK256 SWAP1 PUSH1 0x1 DUP1 PUSH1 0xA0 SHL SUB AND PUSH1 0x0 MSTORE PUSH1 0x20 MSTORE PUSH1 0x20 PUSH1 0x40 PUSH1 0x0 KECCAK256 SLOAD PUSH1 0x40 MLOAD SWAP1 DUP2 MSTORE RETURN JUMPDEST POP DUP1 REVERT JUMPDEST POP CALLVALUE PUSH2 0x19F JUMPI PUSH1 0x20 CALLDATASIZE PUSH1 0x3 NOT ADD SLT PUSH2 0x19F JUMPI PUSH1 0x20 PUSH2 0x7F7 PUSH2 0x7F2 PUSH2 0x1767 JUMP JUMPDEST PUSH2 0x1AE5 JUMP JUMPDEST PUSH1 0x40 MLOAD SWAP1 DUP2 MSTORE RETURN JUMPDEST POP CALLVALUE PUSH2 0x19F JUMPI PUSH1 0x20 CALLDATASIZE PUSH1 0x3 NOT ADD SLT PUSH2 0x19F JUMPI PUSH1 0x20 SWAP1 PUSH1 0x40 SWAP1 PUSH1 0x1 PUSH1 0x1 PUSH1 0xA0 SHL SUB PUSH2 0x827 PUSH2 0x1767 JUMP JUMPDEST AND DUP2 MSTORE PUSH1 0x2 DUP4 MSTORE KECCAK256 SLOAD PUSH1 0x40 MLOAD SWAP1 DUP2 MSTORE RETURN JUMPDEST POP CALLVALUE PUSH2 0x19F JUMPI DUP1 PUSH1 0x3 NOT CALLDATASIZE ADD SLT PUSH2 0x19F JUMPI PUSH1 0x20 PUSH1 0x40 MLOAD PUSH8 0xDE0B6B3A7640000 DUP2 MSTORE RETURN JUMPDEST POP CALLVALUE PUSH2 0x19F JUMPI PUSH1 0x40 CALLDATASIZE PUSH1 0x3 NOT ADD SLT PUSH2 0x19F JUMPI DUP1 PUSH1 0x20 PUSH2 0x8BA PUSH2 0x87B PUSH2 0x1767 JUMP JUMPDEST PUSH2 0x883 PUSH2 0x1F18 JUMP JUMPDEST PUSH1 0x1 SLOAD PUSH1 0x40 MLOAD PUSH4 0xA9059CBB PUSH1 0xE0 SHL DUP2 MSTORE PUSH1 0x1 PUSH1 0x1 PUSH1 0xA0 SHL SUB SWAP1 SWAP2 AND PUSH1 0x4 DUP3 ADD MSTORE PUSH1 0x24 DUP1 CALLDATALOAD SWAP1 DUP3 ADD MSTORE SWAP4 DUP5 SWAP3 DUP4 SWAP2 SWAP1 DUP3 SWAP1 PUSH1 0x44 DUP3 ADD SWAP1 JUMP JUMPDEST SUB SWAP3 PUSH1 0x1 PUSH1 0x1 PUSH1 0xA0 SHL SUB AND GAS CALL DUP1 ISZERO PUSH2 0x8F1 JUMPI PUSH2 0x8D5 JUMPI POP DUP1 RETURN JUMPDEST PUSH2 0x8ED SWAP1 PUSH1 0x20 RETURNDATASIZE PUSH1 0x20 GT PUSH2 0x566 JUMPI PUSH2 0x559 DUP2 DUP4 PUSH2 0x177D JUMP JUMPDEST POP DUP1 RETURN JUMPDEST PUSH1 0x40 MLOAD RETURNDATASIZE DUP5 DUP3 RETURNDATACOPY RETURNDATASIZE SWAP1 REVERT JUMPDEST POP CALLVALUE PUSH2 0x19F JUMPI DUP1 PUSH1 0x3 NOT CALLDATASIZE ADD SLT PUSH2 0x19F JUMPI PUSH1 0x1 SLOAD PUSH1 0x40 MLOAD PUSH1 0x1 PUSH1 0x1 PUSH1 0xA0 SHL SUB SWAP1 SWAP2 AND DUP2 MSTORE PUSH1 0x20 SWAP1 RETURN JUMPDEST POP CALLVALUE PUSH2 0x19F JUMPI PUSH1 0x20 CALLDATASIZE PUSH1 0x3 NOT ADD SLT PUSH2 0x19F JUMPI PUSH1 0x20 PUSH2 0x7F7 PUSH2 0x944 PUSH2 0x1767 JUMP JUMPDEST PUSH2 0x1A3E JUMP JUMPDEST POP CALLVALUE PUSH2 0x19F JUMPI PUSH1 0x20 CALLDATASIZE PUSH1 0x3 NOT ADD SLT PUSH2 0x19F JUMPI PUSH1 0x4 DUP2 PUSH1 0x1 PUSH1 0x1 PUSH1 0xA0 SHL SUB PUSH2 0x96E PUSH2 0x1767 JUMP JUMPDEST AND PUSH1 0x40 MLOAD SWAP3 DUP4 DUP1 SWAP3 PUSH4 0x95D89B41 PUSH1 0xE0 SHL DUP3 MSTORE GAS STATICCALL SWAP1 DUP2 ISZERO PUSH2 0x8F1 JUMPI DUP3 PUSH2 0x9A2 SWAP4 SWAP3 PUSH2 0x9A6 JUMPI JUMPDEST POP POP PUSH1 0x40 MLOAD SWAP2 DUP3 SWAP2 DUP3 PUSH2 0x17D8 JUMP JUMPDEST SUB SWAP1 RETURN JUMPDEST PUSH2 0x9C2 SWAP3 POP RETURNDATASIZE DUP1 SWAP2 DUP4 RETURNDATACOPY PUSH2 0x9BA DUP2 DUP4 PUSH2 0x177D JUMP JUMPDEST DUP2 ADD SWAP1 PUSH2 0x19AC JUMP JUMPDEST CODESIZE DUP1 PUSH2 0x994 JUMP JUMPDEST POP CALLVALUE PUSH2 0x19F JUMPI PUSH1 0x20 CALLDATASIZE PUSH1 0x3 NOT ADD SLT PUSH2 0x19F JUMPI PUSH1 0x4 PUSH1 0x20 PUSH1 0x1 PUSH1 0x1 PUSH1 0xA0 SHL SUB PUSH2 0x9EF PUSH2 0x1767 JUMP JUMPDEST AND PUSH1 0x40 MLOAD SWAP3 DUP4 DUP1 SWAP3 PUSH4 0x313CE567 PUSH1 0xE0 SHL DUP3 MSTORE GAS STATICCALL SWAP1 DUP2 ISZERO PUSH2 0x8F1 JUMPI DUP3 SWAP2 PUSH2 0xA1F JUMPI JUMPDEST PUSH1 0x20 DUP3 PUSH1 0xFF PUSH1 0x40 MLOAD SWAP2 AND DUP2 MSTORE RETURN JUMPDEST SWAP1 POP PUSH1 0x20 DUP2 RETURNDATASIZE PUSH1 0x20 GT PUSH2 0xA57 JUMPI JUMPDEST DUP2 PUSH2 0xA3A PUSH1 0x20 SWAP4 DUP4 PUSH2 0x177D JUMP JUMPDEST DUP2 ADD SUB SLT PUSH2 0x7CF JUMPI MLOAD PUSH1 0xFF DUP2 AND DUP2 SUB PUSH2 0x7CF JUMPI PUSH1 0x20 SWAP2 POP CODESIZE PUSH2 0xA11 JUMP JUMPDEST RETURNDATASIZE SWAP2 POP PUSH2 0xA2D JUMP JUMPDEST POP CALLVALUE PUSH2 0x19F JUMPI DUP1 PUSH1 0x3 NOT CALLDATASIZE ADD SLT PUSH2 0x19F JUMPI PUSH2 0xA78 PUSH2 0x1F18 JUMP JUMPDEST PUSH1 0x1 DUP1 SLOAD PUSH1 0x1 PUSH1 0x1 PUSH1 0xA0 SHL SUB NOT DUP2 AND SWAP1 SWAP2 SSTORE DUP2 SWAP1 PUSH1 0x1 PUSH1 0x1 PUSH1 0xA0 SHL SUB AND PUSH32 0x8BE0079C531659141344CD1FD0A4F28419497F9722A3DAAFE3B4186F6B6457E0 DUP3 DUP1 LOG3 DUP1 RETURN JUMPDEST POP CALLVALUE PUSH2 0x19F JUMPI PUSH1 0x20 CALLDATASIZE PUSH1 0x3 NOT ADD SLT PUSH2 0x19F JUMPI PUSH1 0x4 DUP2 PUSH1 0x1 PUSH1 0x1 PUSH1 0xA0 SHL SUB PUSH2 0xAE1 PUSH2 0x1767 JUMP JUMPDEST AND PUSH1 0x40 MLOAD SWAP3 DUP4 DUP1 SWAP3 PUSH4 0x6FDDE03 PUSH1 0xE0 SHL DUP3 MSTORE GAS STATICCALL SWAP1 DUP2 ISZERO PUSH2 0x8F1 JUMPI DUP3 PUSH2 0x9A2 SWAP4 SWAP3 PUSH2 0x9A6 JUMPI POP POP PUSH1 0x40 MLOAD SWAP2 DUP3 SWAP2 DUP3 PUSH2 0x17D8 JUMP JUMPDEST POP CALLVALUE PUSH2 0x19F JUMPI DUP1 PUSH1 0x3 NOT CALLDATASIZE ADD SLT PUSH2 0x19F JUMPI POP PUSH2 0x9A2 PUSH1 0x40 MLOAD PUSH2 0xB37 PUSH1 0x40 DUP3 PUSH2 0x177D JUMP JUMPDEST PUSH1 0x9 DUP2 MSTORE PUSH9 0x12D310564B5554D115 PUSH1 0xBA SHL PUSH1 0x20 DUP3 ADD MSTORE PUSH1 0x40 MLOAD SWAP2 DUP3 SWAP2 DUP3 PUSH2 0x17D8 JUMP JUMPDEST POP CALLVALUE PUSH2 0x19F JUMPI PUSH1 0x20 CALLDATASIZE PUSH1 0x3 NOT ADD SLT PUSH2 0x19F JUMPI PUSH1 0x4 CALLDATALOAD PUSH2 0xB76 PUSH2 0x1B7D JUMP JUMPDEST PUSH2 0xB81 DUP2 ISZERO ISZERO PUSH2 0x182D JUMP JUMPDEST CALLER DUP3 MSTORE PUSH1 0x2 PUSH1 0x20 MSTORE PUSH2 0xB99 DUP2 PUSH1 0x40 DUP5 KECCAK256 SLOAD LT ISZERO PUSH2 0x1960 JUMP JUMPDEST CALLER DUP3 MSTORE PUSH1 0x2 PUSH1 0x20 MSTORE PUSH2 0xBAF DUP2 PUSH1 0x40 DUP5 KECCAK256 SLOAD PUSH2 0x1946 JUMP JUMPDEST PUSH2 0xBB9 DUP2 CALLER PUSH2 0x1EE2 JUMP JUMPDEST ISZERO PUSH2 0xC7B JUMPI CALLER DUP1 DUP5 MSTORE PUSH1 0x2 PUSH1 0x20 SWAP1 DUP2 MSTORE PUSH1 0x40 DUP1 DUP7 KECCAK256 SWAP4 SWAP1 SWAP4 SSTORE SWAP2 MLOAD PUSH4 0xA9059CBB PUSH1 0xE0 SHL DUP2 MSTORE PUSH1 0x4 DUP2 ADD SWAP2 SWAP1 SWAP2 MSTORE PUSH1 0x24 DUP2 ADD DUP4 SWAP1 MSTORE SWAP1 DUP2 PUSH1 0x44 DUP2 DUP7 PUSH1 0x1 PUSH1 0x1 PUSH1 0xA0 SHL SUB PUSH32 0x0 AND GAS CALL DUP1 ISZERO PUSH2 0x762 JUMPI PUSH2 0xC5E JUMPI JUMPDEST POP PUSH1 0x40 MLOAD SWAP1 DUP2 MSTORE PUSH32 0xC30FCFBCAAC9E0DEFFA719714EAA82396FF506A0D0D0EEBE170830177288715D PUSH1 0x20 CALLER SWAP3 LOG2 PUSH1 0x1 DUP2 SSTORE DUP1 RETURN JUMPDEST PUSH2 0xC76 SWAP1 PUSH1 0x20 RETURNDATASIZE PUSH1 0x20 GT PUSH2 0x566 JUMPI PUSH2 0x559 DUP2 DUP4 PUSH2 0x177D JUMP JUMPDEST PUSH2 0xC2A JUMP JUMPDEST PUSH1 0x40 MLOAD PUSH3 0x461BCD PUSH1 0xE5 SHL DUP2 MSTORE PUSH1 0x20 PUSH1 0x4 DUP3 ADD MSTORE PUSH1 0x25 PUSH1 0x24 DUP3 ADD MSTORE PUSH32 0x5769746864726177616C20776F756C64206D616B6520706F736974696F6E2075 PUSH1 0x44 DUP3 ADD MSTORE PUSH5 0x6E73616665 PUSH1 0xD8 SHL PUSH1 0x64 DUP3 ADD MSTORE PUSH1 0x84 SWAP1 REVERT JUMPDEST POP CALLVALUE PUSH2 0x19F JUMPI DUP1 PUSH1 0x3 NOT CALLDATASIZE ADD SLT PUSH2 0x19F JUMPI PUSH1 0x40 MLOAD PUSH32 0x0 PUSH1 0x1 PUSH1 0x1 PUSH1 0xA0 SHL SUB AND DUP2 MSTORE PUSH1 0x20 SWAP1 RETURN JUMPDEST POP CALLVALUE PUSH2 0x19F JUMPI PUSH1 0x40 CALLDATASIZE PUSH1 0x3 NOT ADD SLT PUSH2 0x19F JUMPI PUSH2 0xD2D PUSH2 0x1767 JUMP JUMPDEST PUSH1 0x24 CALLDATALOAD PUSH2 0xD38 PUSH2 0x1B7D JUMP JUMPDEST PUSH1 0x1 PUSH1 0x1 PUSH1 0xA0 SHL SUB DUP3 DUP2 AND SWAP3 SWAP1 PUSH32 0x0 AND DUP4 EQ DUP1 ISZERO PUSH2 0xF2C JUMPI JUMPDEST PUSH2 0xD79 SWAP1 PUSH2 0x18CB JUMP JUMPDEST PUSH2 0xD84 DUP3 ISZERO ISZERO PUSH2 0x182D JUMP JUMPDEST PUSH1 0x40 MLOAD PUSH4 0x70A08231 PUSH1 0xE0 SHL DUP2 MSTORE ADDRESS PUSH1 0x4 DUP3 ADD MSTORE PUSH1 0x20 DUP2 PUSH1 0x24 DUP2 DUP8 GAS STATICCALL DUP1 ISZERO PUSH2 0x56D JUMPI DUP4 SWAP1 DUP7 SWAP1 PUSH2 0xEF1 JUMPI JUMPDEST PUSH2 0xDBB SWAP3 POP LT ISZERO PUSH2 0x186E JUMP JUMPDEST PUSH2 0xDC4 CALLER PUSH2 0x1B9F JUMP JUMPDEST CALLER DUP5 MSTORE PUSH1 0x3 PUSH1 0x20 MSTORE PUSH1 0x40 DUP5 KECCAK256 DUP4 PUSH1 0x0 MSTORE PUSH1 0x20 MSTORE PUSH2 0xDF1 PUSH2 0xDE9 DUP4 PUSH1 0x40 PUSH1 0x0 KECCAK256 SLOAD PUSH2 0x1953 JUMP JUMPDEST DUP1 SWAP3 CALLER PUSH2 0x1D44 JUMP JUMPDEST ISZERO PUSH2 0xEAC JUMPI CALLER DUP1 DUP6 MSTORE PUSH1 0x3 PUSH1 0x20 SWAP1 DUP2 MSTORE PUSH1 0x40 DUP1 DUP8 KECCAK256 PUSH1 0x0 DUP8 DUP2 MSTORE SWAP1 DUP4 MSTORE DUP2 SWAP1 KECCAK256 SWAP4 SWAP1 SWAP4 SSTORE DUP2 DUP7 MSTORE PUSH1 0x4 DUP1 DUP3 MSTORE DUP4 DUP8 KECCAK256 TIMESTAMP SWAP1 SSTORE SWAP3 MLOAD PUSH4 0xA9059CBB PUSH1 0xE0 SHL DUP2 MSTORE SWAP3 DUP4 ADD SWAP2 SWAP1 SWAP2 MSTORE PUSH1 0x24 DUP3 ADD DUP4 SWAP1 MSTORE DUP2 PUSH1 0x44 DUP2 DUP8 DUP8 GAS CALL DUP1 ISZERO PUSH2 0xEA1 JUMPI PUSH2 0xE84 JUMPI JUMPDEST POP PUSH1 0x40 MLOAD SWAP1 DUP2 MSTORE PUSH32 0x312A5E5E1079F5DDA4E95DBBD0B908B291FD5B992EF22073643AB691572C5B52 PUSH1 0x20 CALLER SWAP3 LOG3 PUSH1 0x1 DUP2 SSTORE DUP1 RETURN JUMPDEST PUSH2 0xE9C SWAP1 PUSH1 0x20 RETURNDATASIZE PUSH1 0x20 GT PUSH2 0x566 JUMPI PUSH2 0x559 DUP2 DUP4 PUSH2 0x177D JUMP JUMPDEST PUSH2 0xE50 JUMP JUMPDEST PUSH1 0x40 MLOAD RETURNDATASIZE DUP7 DUP3 RETURNDATACOPY RETURNDATASIZE SWAP1 REVERT JUMPDEST PUSH1 0x40 MLOAD PUSH3 0x461BCD PUSH1 0xE5 SHL DUP2 MSTORE PUSH1 0x20 PUSH1 0x4 DUP3 ADD MSTORE PUSH1 0x1D PUSH1 0x24 DUP3 ADD MSTORE PUSH32 0x426F72726F7720776F756C6420657863656564204C5456206C696D6974000000 PUSH1 0x44 DUP3 ADD MSTORE PUSH1 0x64 SWAP1 REVERT JUMPDEST POP POP PUSH1 0x20 DUP2 RETURNDATASIZE PUSH1 0x20 GT PUSH2 0xF24 JUMPI JUMPDEST DUP2 PUSH2 0xF0C PUSH1 0x20 SWAP4 DUP4 PUSH2 0x177D JUMP JUMPDEST DUP2 ADD SUB SLT PUSH2 0xF1F JUMPI DUP3 PUSH2 0xDBB SWAP2 MLOAD PUSH2 0xDAF JUMP JUMPDEST PUSH1 0x0 DUP1 REVERT JUMPDEST RETURNDATASIZE SWAP2 POP PUSH2 0xEFF JUMP JUMPDEST POP PUSH32 0x0 PUSH1 0x1 PUSH1 0x1 PUSH1 0xA0 SHL SUB AND DUP4 EQ PUSH2 0xD70 JUMP JUMPDEST POP CALLVALUE PUSH2 0x19F JUMPI PUSH1 0x40 CALLDATASIZE PUSH1 0x3 NOT ADD SLT PUSH2 0x19F JUMPI PUSH2 0xF78 PUSH2 0x1767 JUMP JUMPDEST PUSH1 0x24 CALLDATALOAD SWAP1 PUSH2 0xF84 PUSH2 0x1B7D JUMP JUMPDEST PUSH1 0x1 PUSH1 0x1 PUSH1 0xA0 SHL SUB SWAP1 DUP2 AND SWAP2 SWAP1 PUSH32 0x0 AND DUP3 EQ DUP1 DUP1 ISZERO PUSH2 0x1142 JUMPI JUMPDEST PUSH2 0xFC6 SWAP1 PUSH2 0x18CB JUMP JUMPDEST DUP2 ISZERO SWAP1 PUSH2 0xFD3 DUP3 ISZERO PUSH2 0x182D JUMP JUMPDEST ISZERO PUSH2 0x111B JUMPI PUSH32 0x0 SWAP1 JUMPDEST PUSH2 0x1004 DUP3 PUSH2 0x1A3E JUMP JUMPDEST SWAP1 PUSH8 0xDE0B6B3A7640000 DUP5 MUL SWAP1 DUP5 DUP3 DIV PUSH8 0xDE0B6B3A7640000 EQ OR ISZERO PUSH2 0x595 JUMPI DUP6 SWAP2 PUSH2 0x102F SWAP2 PUSH2 0x1A1E JUMP JUMPDEST PUSH1 0x40 MLOAD PUSH4 0x23B872DD PUSH1 0xE0 SHL DUP2 MSTORE CALLER PUSH1 0x4 DUP3 ADD MSTORE ADDRESS PUSH1 0x24 DUP3 ADD MSTORE PUSH1 0x44 DUP2 ADD DUP6 SWAP1 MSTORE SWAP1 SWAP3 SWAP1 PUSH1 0x20 DUP2 PUSH1 0x64 DUP2 DUP7 DUP11 GAS CALL DUP1 ISZERO PUSH2 0x762 JUMPI PUSH2 0x10FE JUMPI JUMPDEST POP PUSH1 0x1 PUSH1 0x1 PUSH1 0xA0 SHL SUB AND DUP1 EXTCODESIZE ISZERO PUSH2 0x7CF JUMPI PUSH1 0x40 MLOAD PUSH4 0x40C10F19 PUSH1 0xE0 SHL DUP2 MSTORE CALLER PUSH1 0x4 DUP3 ADD MSTORE PUSH1 0x24 DUP2 ADD DUP5 SWAP1 MSTORE SWAP1 DUP3 SWAP1 DUP3 SWAP1 PUSH1 0x44 SWAP1 DUP3 SWAP1 DUP5 SWAP1 GAS CALL DUP1 ISZERO PUSH2 0x8F1 JUMPI PUSH2 0x10E5 JUMPI JUMPDEST POP POP PUSH1 0x40 MLOAD SWAP2 DUP3 MSTORE PUSH1 0x20 DUP3 ADD MSTORE PUSH32 0xDCBC1C05240F31FF3AD067EF1EE35CE4997762752E3A095284754544F4C709D7 PUSH1 0x40 CALLER SWAP3 LOG3 PUSH1 0x1 DUP2 SSTORE DUP1 RETURN JUMPDEST DUP2 PUSH2 0x10EF SWAP2 PUSH2 0x177D JUMP JUMPDEST PUSH2 0x10FA JUMPI DUP4 CODESIZE PUSH2 0x10AB JUMP JUMPDEST DUP4 DUP1 REVERT JUMPDEST PUSH2 0x1116 SWAP1 PUSH1 0x20 RETURNDATASIZE PUSH1 0x20 GT PUSH2 0x566 JUMPI PUSH2 0x559 DUP2 DUP4 PUSH2 0x177D JUMP JUMPDEST PUSH2 0x1067 JUMP JUMPDEST PUSH32 0x0 SWAP1 PUSH2 0xFFB JUMP JUMPDEST POP PUSH32 0x0 PUSH1 0x1 PUSH1 0x1 PUSH1 0xA0 SHL SUB AND DUP4 EQ PUSH2 0xFBD JUMP JUMPDEST POP CALLVALUE PUSH2 0x19F JUMPI PUSH1 0x40 CALLDATASIZE PUSH1 0x3 NOT ADD SLT PUSH2 0x19F JUMPI PUSH2 0x118E PUSH2 0x1767 JUMP JUMPDEST PUSH1 0x24 CALLDATALOAD SWAP1 PUSH2 0x119A PUSH2 0x1B7D JUMP JUMPDEST PUSH1 0x1 PUSH1 0x1 PUSH1 0xA0 SHL SUB SWAP1 DUP2 AND SWAP2 SWAP1 PUSH32 0x0 AND DUP3 EQ DUP1 ISZERO PUSH2 0x12D7 JUMPI JUMPDEST PUSH2 0x11DB SWAP1 PUSH2 0x18CB JUMP JUMPDEST PUSH2 0x11E6 DUP2 ISZERO ISZERO PUSH2 0x182D JUMP JUMPDEST PUSH2 0x11EF CALLER PUSH2 0x1B9F JUMP JUMPDEST CALLER DUP4 MSTORE PUSH1 0x3 PUSH1 0x20 MSTORE PUSH1 0x40 DUP4 KECCAK256 DUP3 PUSH1 0x0 MSTORE PUSH1 0x20 MSTORE PUSH1 0x40 PUSH1 0x0 KECCAK256 SLOAD SWAP1 PUSH2 0x1214 DUP3 ISZERO ISZERO PUSH2 0x1907 JUMP JUMPDEST DUP2 DUP2 GT ISZERO PUSH2 0x12CC JUMPI POP PUSH2 0x1227 DUP2 DUP1 PUSH2 0x1946 JUMP JUMPDEST CALLER DUP1 DUP6 MSTORE PUSH1 0x3 PUSH1 0x20 SWAP1 DUP2 MSTORE PUSH1 0x40 DUP1 DUP8 KECCAK256 PUSH1 0x0 DUP8 DUP2 MSTORE SWAP1 DUP4 MSTORE DUP2 SWAP1 KECCAK256 SWAP4 SWAP1 SWAP4 SSTORE SWAP2 MLOAD PUSH4 0x23B872DD PUSH1 0xE0 SHL DUP2 MSTORE PUSH1 0x4 DUP2 ADD SWAP2 SWAP1 SWAP2 MSTORE ADDRESS PUSH1 0x24 DUP3 ADD MSTORE PUSH1 0x44 DUP2 ADD DUP4 SWAP1 MSTORE SWAP1 DUP2 PUSH1 0x64 DUP2 DUP8 DUP8 GAS CALL DUP1 ISZERO PUSH2 0xEA1 JUMPI PUSH2 0x12AF JUMPI JUMPDEST POP PUSH1 0x40 MLOAD SWAP1 DUP2 MSTORE PUSH32 0x5F2EEDA0E08E4B437F487C8D7D29B14537D15E3488170DC3DE5DBDF8DAC4684 PUSH1 0x20 CALLER SWAP3 LOG3 PUSH1 0x1 DUP2 SSTORE DUP1 RETURN JUMPDEST PUSH2 0x12C7 SWAP1 PUSH1 0x20 RETURNDATASIZE PUSH1 0x20 GT PUSH2 0x566 JUMPI PUSH2 0x559 DUP2 DUP4 PUSH2 0x177D JUMP JUMPDEST PUSH2 0x127B JUMP JUMPDEST PUSH2 0x1227 SWAP1 DUP1 SWAP3 PUSH2 0x1946 JUMP JUMPDEST POP PUSH32 0x0 PUSH1 0x1 PUSH1 0x1 PUSH1 0xA0 SHL SUB AND DUP3 EQ PUSH2 0x11D2 JUMP JUMPDEST POP CALLVALUE PUSH2 0x19F JUMPI DUP1 PUSH1 0x3 NOT CALLDATASIZE ADD SLT PUSH2 0x19F JUMPI PUSH1 0x40 MLOAD PUSH32 0x0 PUSH1 0x1 PUSH1 0x1 PUSH1 0xA0 SHL SUB AND DUP2 MSTORE PUSH1 0x20 SWAP1 RETURN JUMPDEST POP CALLVALUE PUSH2 0x19F JUMPI PUSH1 0x40 CALLDATASIZE PUSH1 0x3 NOT ADD SLT PUSH2 0x19F JUMPI PUSH2 0x1368 PUSH2 0x1767 JUMP JUMPDEST PUSH1 0x24 CALLDATALOAD PUSH2 0x1373 PUSH2 0x1B7D JUMP JUMPDEST PUSH1 0x1 PUSH1 0x1 PUSH1 0xA0 SHL SUB DUP3 DUP2 AND SWAP3 SWAP1 PUSH32 0x0 AND DUP4 EQ DUP1 DUP1 ISZERO PUSH2 0x1671 JUMPI JUMPDEST ISZERO PUSH2 0x1639 JUMPI PUSH2 0x13BC DUP4 ISZERO ISZERO PUSH2 0x182D JUMP JUMPDEST PUSH1 0x40 MLOAD PUSH4 0x70A08231 PUSH1 0xE0 SHL DUP2 MSTORE CALLER PUSH1 0x4 DUP3 ADD MSTORE PUSH1 0x20 DUP2 PUSH1 0x24 DUP2 DUP9 GAS STATICCALL DUP1 ISZERO PUSH2 0x1547 JUMPI DUP5 SWAP2 DUP8 SWAP2 PUSH2 0x1604 JUMPI JUMPDEST POP LT PUSH2 0x15C6 JUMPI ISZERO PUSH2 0x1590 JUMPI PUSH8 0xDE0B6B3A7640000 PUSH2 0x142E PUSH2 0x1428 PUSH32 0x0 SWAP4 PUSH2 0x1A3E JUMP JUMPDEST DUP5 PUSH2 0x1804 JUMP JUMPDEST PUSH1 0x40 MLOAD PUSH4 0x70A08231 PUSH1 0xE0 SHL DUP2 MSTORE ADDRESS PUSH1 0x4 DUP3 ADD MSTORE SWAP2 SWAP1 DIV SWAP2 PUSH1 0x1 PUSH1 0x1 PUSH1 0xA0 SHL SUB AND SWAP1 PUSH1 0x20 DUP2 PUSH1 0x24 DUP2 DUP6 GAS STATICCALL DUP1 ISZERO PUSH2 0x1547 JUMPI DUP4 SWAP1 DUP8 SWAP1 PUSH2 0x1556 JUMPI JUMPDEST PUSH2 0x1473 SWAP3 POP LT ISZERO PUSH2 0x186E JUMP JUMPDEST DUP4 EXTCODESIZE ISZERO PUSH2 0x1552 JUMPI PUSH1 0x40 MLOAD PUSH4 0x2770A7EB PUSH1 0xE2 SHL DUP2 MSTORE CALLER PUSH1 0x4 DUP3 ADD MSTORE PUSH1 0x24 DUP2 ADD DUP5 SWAP1 MSTORE DUP6 DUP2 PUSH1 0x44 DUP2 DUP4 DUP10 GAS CALL DUP1 ISZERO PUSH2 0x1547 JUMPI PUSH2 0x1533 JUMPI JUMPDEST POP PUSH1 0x40 MLOAD PUSH4 0xA9059CBB PUSH1 0xE0 SHL DUP2 MSTORE CALLER PUSH1 0x4 DUP3 ADD MSTORE PUSH1 0x24 DUP2 ADD DUP4 SWAP1 MSTORE SWAP1 PUSH1 0x20 SWAP1 DUP3 SWAP1 PUSH1 0x44 SWAP1 DUP3 SWAP1 DUP10 SWAP1 GAS CALL DUP1 ISZERO PUSH2 0x56D JUMPI PUSH2 0x1516 JUMPI JUMPDEST POP PUSH1 0x40 MLOAD SWAP2 DUP3 MSTORE PUSH1 0x20 DUP3 ADD MSTORE PUSH32 0x3F693FFF038BB8A046AA76D9516190AC7444F7D69CF952C4CBDC086FDEF2D6FC PUSH1 0x40 CALLER SWAP3 LOG3 PUSH1 0x1 DUP2 SSTORE DUP1 RETURN JUMPDEST PUSH2 0x152E SWAP1 PUSH1 0x20 RETURNDATASIZE PUSH1 0x20 GT PUSH2 0x566 JUMPI PUSH2 0x559 DUP2 DUP4 PUSH2 0x177D JUMP JUMPDEST PUSH2 0x14DD JUMP JUMPDEST DUP6 PUSH2 0x1540 SWAP2 SWAP7 SWAP3 SWAP7 PUSH2 0x177D JUMP JUMPDEST SWAP4 CODESIZE PUSH2 0x14A8 JUMP JUMPDEST PUSH1 0x40 MLOAD RETURNDATASIZE DUP9 DUP3 RETURNDATACOPY RETURNDATASIZE SWAP1 REVERT JUMPDEST DUP5 DUP1 REVERT JUMPDEST POP POP PUSH1 0x20 DUP2 RETURNDATASIZE PUSH1 0x20 GT PUSH2 0x1588 JUMPI JUMPDEST DUP2 PUSH2 0x1571 PUSH1 0x20 SWAP4 DUP4 PUSH2 0x177D JUMP JUMPDEST DUP2 ADD SUB SLT PUSH2 0x1584 JUMPI DUP3 PUSH2 0x1473 SWAP2 MLOAD PUSH2 0x1467 JUMP JUMPDEST DUP6 DUP1 REVERT JUMPDEST RETURNDATASIZE SWAP2 POP PUSH2 0x1564 JUMP JUMPDEST PUSH8 0xDE0B6B3A7640000 PUSH2 0x142E PUSH2 0x1428 PUSH32 0x0 SWAP4 PUSH2 0x1A3E JUMP JUMPDEST PUSH1 0x40 MLOAD PUSH3 0x461BCD PUSH1 0xE5 SHL DUP2 MSTORE PUSH1 0x20 PUSH1 0x4 DUP3 ADD MSTORE PUSH1 0x16 PUSH1 0x24 DUP3 ADD MSTORE PUSH22 0x496E73756666696369656E74204C5020746F6B656E73 PUSH1 0x50 SHL PUSH1 0x44 DUP3 ADD MSTORE PUSH1 0x64 SWAP1 REVERT JUMPDEST SWAP2 POP POP PUSH1 0x20 DUP2 RETURNDATASIZE PUSH1 0x20 GT PUSH2 0x1631 JUMPI JUMPDEST DUP2 PUSH2 0x1620 PUSH1 0x20 SWAP4 DUP4 PUSH2 0x177D JUMP JUMPDEST DUP2 ADD SUB SLT PUSH2 0x1584 JUMPI DUP4 SWAP1 MLOAD CODESIZE PUSH2 0x13E7 JUMP JUMPDEST RETURNDATASIZE SWAP2 POP PUSH2 0x1613 JUMP JUMPDEST PUSH1 0x40 MLOAD PUSH3 0x461BCD PUSH1 0xE5 SHL DUP2 MSTORE PUSH1 0x20 PUSH1 0x4 DUP3 ADD MSTORE PUSH1 0x10 PUSH1 0x24 DUP3 ADD MSTORE PUSH16 0x24B73B30B634B2102628103A37B5B2B7 PUSH1 0x81 SHL PUSH1 0x44 DUP3 ADD MSTORE PUSH1 0x64 SWAP1 REVERT JUMPDEST POP PUSH32 0x0 PUSH1 0x1 PUSH1 0x1 PUSH1 0xA0 SHL SUB AND DUP5 EQ PUSH2 0x13AC JUMP JUMPDEST POP CALLVALUE PUSH2 0x19F JUMPI DUP1 PUSH1 0x3 NOT CALLDATASIZE ADD SLT PUSH2 0x19F JUMPI PUSH1 0x40 MLOAD PUSH32 0x0 PUSH1 0x1 PUSH1 0x1 PUSH1 0xA0 SHL SUB AND DUP2 MSTORE PUSH1 0x20 SWAP1 RETURN JUMPDEST POP CALLVALUE PUSH2 0x19F JUMPI DUP1 PUSH1 0x3 NOT CALLDATASIZE ADD SLT PUSH2 0x19F JUMPI PUSH1 0x40 MLOAD PUSH32 0x0 PUSH1 0x1 PUSH1 0x1 PUSH1 0xA0 SHL SUB AND DUP2 MSTORE PUSH1 0x20 SWAP1 RETURN JUMPDEST POP CALLVALUE PUSH2 0x19F JUMPI PUSH1 0x20 CALLDATASIZE PUSH1 0x3 NOT ADD SLT PUSH2 0x19F JUMPI PUSH9 0x4563918244F400000 PUSH2 0x175E PUSH1 0x20 SWAP3 PUSH2 0x1757 PUSH2 0x1767 JUMP JUMPDEST SWAP1 POP PUSH2 0x1AE5 JUMP JUMPDEST GT PUSH1 0x40 MLOAD SWAP1 DUP2 MSTORE RETURN JUMPDEST PUSH1 0x4 CALLDATALOAD SWAP1 PUSH1 0x1 PUSH1 0x1 PUSH1 0xA0 SHL SUB DUP3 AND DUP3 SUB PUSH2 0xF1F JUMPI JUMP JUMPDEST SWAP1 PUSH1 0x1F DUP1 NOT SWAP2 ADD AND DUP2 ADD SWAP1 DUP2 LT PUSH8 0xFFFFFFFFFFFFFFFF DUP3 GT OR PUSH2 0x179F JUMPI PUSH1 0x40 MSTORE JUMP JUMPDEST PUSH4 0x4E487B71 PUSH1 0xE0 SHL PUSH1 0x0 MSTORE PUSH1 0x41 PUSH1 0x4 MSTORE PUSH1 0x24 PUSH1 0x0 REVERT JUMPDEST PUSH1 0x0 JUMPDEST DUP4 DUP2 LT PUSH2 0x17C8 JUMPI POP POP PUSH1 0x0 SWAP2 ADD MSTORE JUMP JUMPDEST DUP2 DUP2 ADD MLOAD DUP4 DUP3 ADD MSTORE PUSH1 0x20 ADD PUSH2 0x17B8 JUMP JUMPDEST PUSH1 0x40 SWAP2 PUSH1 0x20 DUP3 MSTORE PUSH2 0x17F8 DUP2 MLOAD DUP1 SWAP3 DUP2 PUSH1 0x20 DUP7 ADD MSTORE PUSH1 0x20 DUP7 DUP7 ADD SWAP2 ADD PUSH2 0x17B5 JUMP JUMPDEST PUSH1 0x1F ADD PUSH1 0x1F NOT AND ADD ADD SWAP1 JUMP JUMPDEST DUP2 DUP2 MUL SWAP3 SWAP2 DUP2 ISZERO SWAP2 DUP5 DIV EQ OR ISZERO PUSH2 0x1817 JUMPI JUMP JUMPDEST PUSH4 0x4E487B71 PUSH1 0xE0 SHL PUSH1 0x0 MSTORE PUSH1 0x11 PUSH1 0x4 MSTORE PUSH1 0x24 PUSH1 0x0 REVERT JUMPDEST ISZERO PUSH2 0x1834 JUMPI JUMP JUMPDEST PUSH1 0x40 MLOAD PUSH3 0x461BCD PUSH1 0xE5 SHL DUP2 MSTORE PUSH1 0x20 PUSH1 0x4 DUP3 ADD MSTORE PUSH1 0x12 PUSH1 0x24 DUP3 ADD MSTORE PUSH18 0x416D6F756E74206D757374206265203E203 PUSH1 0x74 SHL PUSH1 0x44 DUP3 ADD MSTORE PUSH1 0x64 SWAP1 REVERT JUMPDEST ISZERO PUSH2 0x1875 JUMPI JUMP JUMPDEST PUSH1 0x40 MLOAD PUSH3 0x461BCD PUSH1 0xE5 SHL DUP2 MSTORE PUSH1 0x20 PUSH1 0x4 DUP3 ADD MSTORE PUSH1 0x16 PUSH1 0x24 DUP3 ADD MSTORE PUSH22 0x496E73756666696369656E74206C6971756964697479 PUSH1 0x50 SHL PUSH1 0x44 DUP3 ADD MSTORE PUSH1 0x64 SWAP1 REVERT JUMPDEST SWAP1 DUP2 PUSH1 0x20 SWAP2 SUB SLT PUSH2 0xF1F JUMPI MLOAD DUP1 ISZERO ISZERO DUP2 SUB PUSH2 0xF1F JUMPI SWAP1 JUMP JUMPDEST ISZERO PUSH2 0x18D2 JUMPI JUMP JUMPDEST PUSH1 0x40 MLOAD PUSH3 0x461BCD PUSH1 0xE5 SHL DUP2 MSTORE PUSH1 0x20 PUSH1 0x4 DUP3 ADD MSTORE PUSH1 0xD PUSH1 0x24 DUP3 ADD MSTORE PUSH13 0x24B73B30B634B2103A37B5B2B7 PUSH1 0x99 SHL PUSH1 0x44 DUP3 ADD MSTORE PUSH1 0x64 SWAP1 REVERT JUMPDEST ISZERO PUSH2 0x190E JUMPI JUMP JUMPDEST PUSH1 0x40 MLOAD PUSH3 0x461BCD PUSH1 0xE5 SHL DUP2 MSTORE PUSH1 0x20 PUSH1 0x4 DUP3 ADD MSTORE PUSH1 0x10 PUSH1 0x24 DUP3 ADD MSTORE PUSH16 0x4E6F206465627420746F207265706179 PUSH1 0x80 SHL PUSH1 0x44 DUP3 ADD MSTORE PUSH1 0x64 SWAP1 REVERT JUMPDEST SWAP2 SWAP1 DUP3 SUB SWAP2 DUP3 GT PUSH2 0x1817 JUMPI JUMP JUMPDEST SWAP2 SWAP1 DUP3 ADD DUP1 SWAP3 GT PUSH2 0x1817 JUMPI JUMP JUMPDEST ISZERO PUSH2 0x1967 JUMPI JUMP JUMPDEST PUSH1 0x40 MLOAD PUSH3 0x461BCD PUSH1 0xE5 SHL DUP2 MSTORE PUSH1 0x20 PUSH1 0x4 DUP3 ADD MSTORE PUSH1 0x17 PUSH1 0x24 DUP3 ADD MSTORE PUSH32 0x496E73756666696369656E7420636F6C6C61746572616C000000000000000000 PUSH1 0x44 DUP3 ADD MSTORE PUSH1 0x64 SWAP1 REVERT JUMPDEST PUSH1 0x20 DUP2 DUP4 SUB SLT PUSH2 0xF1F JUMPI DUP1 MLOAD SWAP1 PUSH8 0xFFFFFFFFFFFFFFFF DUP3 GT PUSH2 0xF1F JUMPI ADD DUP2 PUSH1 0x1F DUP3 ADD SLT ISZERO PUSH2 0xF1F JUMPI DUP1 MLOAD PUSH8 0xFFFFFFFFFFFFFFFF DUP2 GT PUSH2 0x179F JUMPI PUSH1 0x40 MLOAD SWAP3 PUSH2 0x19FD PUSH1 0x1F DUP4 ADD PUSH1 0x1F NOT AND PUSH1 0x20 ADD DUP6 PUSH2 0x177D JUMP JUMPDEST DUP2 DUP5 MSTORE PUSH1 0x20 DUP3 DUP5 ADD ADD GT PUSH2 0xF1F JUMPI PUSH2 0x1A1B SWAP2 PUSH1 0x20 DUP1 DUP6 ADD SWAP2 ADD PUSH2 0x17B5 JUMP JUMPDEST SWAP1 JUMP JUMPDEST DUP2 ISZERO PUSH2 0x1A28 JUMPI DIV SWAP1 JUMP JUMPDEST PUSH4 0x4E487B71 PUSH1 0xE0 SHL PUSH1 0x0 MSTORE PUSH1 0x12 PUSH1 0x4 MSTORE PUSH1 0x24 PUSH1 0x0 REVERT JUMPDEST PUSH1 0x40 MLOAD PUSH4 0x18160DDD PUSH1 0xE0 SHL DUP2 MSTORE SWAP1 PUSH1 0x20 SWAP1 DUP3 SWAP1 PUSH1 0x4 SWAP1 DUP3 SWAP1 PUSH1 0x1 PUSH1 0x1 PUSH1 0xA0 SHL SUB AND GAS STATICCALL SWAP1 DUP2 ISZERO PUSH2 0x1AD9 JUMPI PUSH1 0x0 SWAP2 PUSH2 0x1AA7 JUMPI JUMPDEST POP DUP1 PUSH5 0xE8D4A51000 MUL SWAP1 PUSH5 0xE8D4A51000 DUP3 DIV SUB PUSH2 0x1817 JUMPI PUSH8 0xDE0B6B3A7640000 SWAP1 DIV PUSH8 0xDE0B6B3A7640000 DUP2 ADD DUP1 SWAP2 GT PUSH2 0x1817 JUMPI SWAP1 JUMP JUMPDEST SWAP1 PUSH1 0x20 DUP3 RETURNDATASIZE PUSH1 0x20 GT PUSH2 0x1AD1 JUMPI JUMPDEST DUP2 PUSH2 0x1AC1 PUSH1 0x20 SWAP4 DUP4 PUSH2 0x177D JUMP JUMPDEST DUP2 ADD SUB SLT PUSH2 0x19F JUMPI POP MLOAD CODESIZE PUSH2 0x1A70 JUMP JUMPDEST RETURNDATASIZE SWAP2 POP PUSH2 0x1AB4 JUMP JUMPDEST PUSH1 0x40 MLOAD RETURNDATASIZE PUSH1 0x0 DUP3 RETURNDATACOPY RETURNDATASIZE SWAP1 REVERT JUMPDEST PUSH1 0x1 DUP1 PUSH1 0xA0 SHL SUB DUP2 AND PUSH1 0x0 MSTORE PUSH1 0x2 PUSH1 0x20 MSTORE PUSH1 0x40 PUSH1 0x0 KECCAK256 SLOAD PUSH8 0xDE0B6B3A7640000 DUP2 MUL SWAP1 DUP1 DUP3 DIV PUSH8 0xDE0B6B3A7640000 EQ SWAP1 ISZERO OR ISZERO PUSH2 0x1817 JUMPI PUSH8 0xDE0B6B3A7640000 SWAP1 DIV SWAP1 DUP2 ISZERO PUSH2 0x1B76 JUMPI PUSH2 0x1B38 SWAP1 PUSH2 0x1F41 JUMP JUMPDEST SWAP1 PUSH1 0x64 DUP3 MUL SWAP2 DUP1 DUP4 DIV PUSH1 0x64 EQ DUP2 ISZERO OR ISZERO PUSH2 0x1817 JUMPI PUSH9 0x56BC75E2D63100000 MUL SWAP2 DUP1 DUP4 DIV PUSH8 0xDE0B6B3A7640000 EQ SWAP1 ISZERO OR ISZERO PUSH2 0x1817 JUMPI PUSH2 0x1A1B SWAP2 PUSH2 0x1A1E JUMP JUMPDEST POP POP PUSH1 0x0 SWAP1 JUMP JUMPDEST PUSH1 0x2 PUSH1 0x0 SLOAD EQ PUSH2 0x1B8E JUMPI PUSH1 0x2 PUSH1 0x0 SSTORE JUMP JUMPDEST PUSH4 0x3EE5AEB5 PUSH1 0xE0 SHL PUSH1 0x0 MSTORE PUSH1 0x4 PUSH1 0x0 REVERT JUMPDEST PUSH1 0x1 PUSH1 0x1 PUSH1 0xA0 SHL SUB AND PUSH1 0x0 DUP2 DUP2 MSTORE PUSH1 0x4 PUSH1 0x20 MSTORE PUSH1 0x40 SWAP1 KECCAK256 SLOAD DUP1 ISZERO PUSH2 0x1D32 JUMPI PUSH2 0x1BC7 SWAP1 TIMESTAMP PUSH2 0x1946 JUMP JUMPDEST DUP1 ISZERO PUSH2 0x1D2E JUMPI DUP2 PUSH1 0x0 MSTORE PUSH1 0x3 PUSH1 0x20 MSTORE PUSH1 0x40 PUSH1 0x0 KECCAK256 PUSH32 0x0 SWAP1 PUSH1 0x1 DUP1 PUSH1 0xA0 SHL SUB DUP3 AND PUSH1 0x0 MSTORE PUSH1 0x20 MSTORE PUSH1 0x40 PUSH1 0x0 KECCAK256 SLOAD DUP1 ISZERO SWAP1 DUP2 ISZERO PUSH2 0x1CDD JUMPI JUMPDEST POP POP POP DUP2 PUSH1 0x0 MSTORE PUSH1 0x3 PUSH1 0x20 MSTORE PUSH1 0x40 PUSH1 0x0 KECCAK256 SWAP1 PUSH32 0x0 SWAP2 PUSH1 0x1 DUP1 PUSH1 0xA0 SHL SUB DUP4 AND PUSH1 0x0 MSTORE PUSH1 0x20 MSTORE PUSH1 0x40 PUSH1 0x0 KECCAK256 SLOAD DUP1 ISZERO DUP1 ISZERO PUSH2 0x1C83 JUMPI JUMPDEST POP POP POP POP PUSH1 0x0 MSTORE PUSH1 0x4 PUSH1 0x20 MSTORE TIMESTAMP PUSH1 0x40 PUSH1 0x0 KECCAK256 SSTORE JUMP JUMPDEST PUSH1 0x5 DUP3 MUL SWAP1 DUP3 DUP3 DIV PUSH1 0x5 EQ OR ISZERO PUSH2 0x1817 JUMPI PUSH1 0x64 PUSH2 0x1CA8 PUSH2 0x1CB0 SWAP5 PUSH4 0x1E13380 SWAP4 PUSH2 0x1804 JUMP JUMPDEST DIV DIV SWAP1 PUSH2 0x1953 JUMP JUMPDEST SWAP1 DUP3 PUSH1 0x0 MSTORE PUSH1 0x3 PUSH1 0x20 MSTORE PUSH1 0x40 PUSH1 0x0 KECCAK256 SWAP1 PUSH1 0x1 DUP1 PUSH1 0xA0 SHL SUB AND PUSH1 0x0 MSTORE PUSH1 0x20 MSTORE PUSH1 0x40 PUSH1 0x0 KECCAK256 SSTORE CODESIZE DUP1 DUP1 DUP1 PUSH2 0x1C6E JUMP JUMPDEST PUSH1 0x5 DUP2 MUL SWAP2 DUP2 DUP4 DIV PUSH1 0x5 EQ OR ISZERO PUSH2 0x1817 JUMPI PUSH4 0x1E13380 PUSH1 0x64 PUSH2 0x1CA8 DUP7 PUSH2 0x1D02 SWAP6 PUSH2 0x1804 JUMP JUMPDEST SWAP1 DUP4 PUSH1 0x0 MSTORE PUSH1 0x3 PUSH1 0x20 MSTORE PUSH1 0x40 PUSH1 0x0 KECCAK256 SWAP1 PUSH1 0x1 DUP1 PUSH1 0xA0 SHL SUB AND PUSH1 0x0 MSTORE PUSH1 0x20 MSTORE PUSH1 0x40 PUSH1 0x0 KECCAK256 SSTORE CODESIZE DUP1 DUP1 PUSH2 0x1C1C JUMP JUMPDEST POP POP JUMP JUMPDEST POP PUSH1 0x0 MSTORE PUSH1 0x4 PUSH1 0x20 MSTORE TIMESTAMP PUSH1 0x40 PUSH1 0x0 KECCAK256 SSTORE JUMP JUMPDEST PUSH1 0x1 DUP1 PUSH1 0xA0 SHL SUB AND SWAP1 DUP2 PUSH1 0x0 MSTORE PUSH1 0x2 PUSH1 0x20 MSTORE PUSH1 0x40 PUSH1 0x0 KECCAK256 SLOAD PUSH8 0xDE0B6B3A7640000 DUP2 MUL SWAP1 DUP1 DUP3 DIV PUSH8 0xDE0B6B3A7640000 EQ SWAP1 ISZERO OR ISZERO PUSH2 0x1817 JUMPI PUSH8 0xDE0B6B3A7640000 SWAP1 DIV SWAP3 PUSH2 0x1E4E SWAP3 PUSH2 0x1E48 SWAP2 PUSH1 0x1 PUSH1 0x1 PUSH1 0xA0 SHL SUB DUP5 DUP2 AND PUSH32 0x0 SWAP2 DUP3 AND EQ SWAP3 PUSH2 0x1E42 SWAP3 SWAP2 SWAP1 PUSH1 0x0 DUP6 ISZERO PUSH2 0x1EBF JUMPI POP PUSH1 0x0 MSTORE PUSH1 0x3 PUSH1 0x20 MSTORE PUSH1 0x40 PUSH1 0x0 KECCAK256 PUSH1 0x1 DUP1 PUSH1 0xA0 SHL SUB PUSH32 0x0 AND PUSH1 0x0 MSTORE PUSH1 0x20 MSTORE PUSH1 0x40 PUSH1 0x0 KECCAK256 SLOAD SWAP4 JUMPDEST ISZERO PUSH2 0x1EB9 JUMPI POP PUSH32 0x0 SWAP5 PUSH2 0x1FE1 JUMP JUMPDEST SWAP3 PUSH2 0x1FE1 JUMP JUMPDEST SWAP1 PUSH2 0x1953 JUMP JUMPDEST DUP2 ISZERO DUP1 PUSH2 0x1EB0 JUMPI JUMPDEST PUSH2 0x1B76 JUMPI DUP1 ISZERO PUSH2 0x1EA9 JUMPI PUSH1 0x64 DUP2 MUL SWAP1 DUP1 DUP3 DIV PUSH1 0x64 SUB PUSH2 0x1817 JUMPI PUSH9 0x56BC75E2D63100000 MUL SWAP1 DUP1 DUP3 DIV PUSH8 0xDE0B6B3A7640000 EQ SWAP1 ISZERO OR ISZERO PUSH2 0x1817 JUMPI PUSH9 0x4563918244F400000 SWAP2 PUSH2 0x1EA4 SWAP2 PUSH2 0x1A1E JUMP JUMPDEST GT ISZERO SWAP1 JUMP JUMPDEST POP POP PUSH1 0x1 SWAP1 JUMP JUMPDEST POP DUP1 ISZERO ISZERO PUSH2 0x1E56 JUMP JUMPDEST SWAP5 PUSH2 0x1FE1 JUMP JUMPDEST PUSH1 0x40 SWAP2 DUP2 MSTORE PUSH1 0x3 PUSH1 0x20 MSTORE DUP2 DUP2 KECCAK256 PUSH1 0x1 DUP1 PUSH1 0xA0 SHL SUB DUP5 AND DUP3 MSTORE PUSH1 0x20 MSTORE KECCAK256 SLOAD SWAP4 PUSH2 0x1E15 JUMP JUMPDEST SWAP1 PUSH8 0xDE0B6B3A7640000 DUP2 MUL SWAP1 DUP1 DUP3 DIV PUSH8 0xDE0B6B3A7640000 EQ SWAP1 ISZERO OR ISZERO PUSH2 0x1817 JUMPI PUSH8 0xDE0B6B3A7640000 PUSH2 0x1E4E SWAP2 DIV SWAP2 PUSH2 0x1F41 JUMP JUMPDEST PUSH1 0x1 SLOAD PUSH1 0x1 PUSH1 0x1 PUSH1 0xA0 SHL SUB AND CALLER SUB PUSH2 0x1F2C JUMPI JUMP JUMPDEST PUSH4 0x118CDAA7 PUSH1 0xE0 SHL PUSH1 0x0 MSTORE CALLER PUSH1 0x4 MSTORE PUSH1 0x24 PUSH1 0x0 REVERT JUMPDEST PUSH1 0x1 PUSH1 0x1 PUSH1 0xA0 SHL SUB SWAP1 DUP2 AND PUSH1 0x0 DUP2 DUP2 MSTORE PUSH1 0x3 PUSH1 0x20 SWAP1 DUP2 MSTORE PUSH1 0x40 DUP1 DUP4 KECCAK256 PUSH32 0x0 SWAP6 DUP7 AND DUP5 MSTORE SWAP1 SWAP2 MSTORE SWAP1 KECCAK256 SLOAD PUSH2 0x1A1B SWAP3 PUSH2 0x1E48 SWAP2 PUSH2 0x1F9A SWAP2 PUSH2 0x1FE1 JUMP JUMPDEST SWAP2 PUSH32 0x0 SWAP1 PUSH1 0x0 MSTORE PUSH1 0x3 PUSH1 0x20 MSTORE PUSH1 0x40 PUSH1 0x0 KECCAK256 PUSH1 0x1 DUP1 PUSH1 0xA0 SHL SUB DUP3 AND PUSH1 0x0 MSTORE PUSH1 0x20 MSTORE PUSH1 0x40 PUSH1 0x0 KECCAK256 SLOAD SWAP1 JUMPDEST PUSH1 0x1 PUSH1 0x1 PUSH1 0xA0 SHL SUB SWAP1 DUP2 AND SWAP1 PUSH32 0x0 AND DUP2 SUB PUSH2 0x2045 JUMPI POP PUSH8 0x214E8348C4F0000 DUP2 MUL SWAP1 DUP1 DUP3 DIV PUSH8 0x214E8348C4F0000 EQ SWAP1 ISZERO OR ISZERO PUSH2 0x1817 JUMPI PUSH8 0xDE0B6B3A7640000 SWAP1 DIV SWAP1 JUMP JUMPDEST PUSH32 0x0 PUSH1 0x1 PUSH1 0x1 PUSH1 0xA0 SHL SUB AND EQ PUSH2 0x207A JUMPI POP PUSH1 0x0 SWAP1 JUMP JUMPDEST PUSH8 0xDE0B6B3A7640000 DUP2 MUL SWAP1 DUP1 DUP3 DIV PUSH8 0xDE0B6B3A7640000 EQ SWAP1 ISZERO OR ISZERO PUSH2 0x1817 JUMPI PUSH8 0xDE0B6B3A7640000 SWAP1 DIV SWAP1 JUMP INVALID LOG2 PUSH5 0x6970667358 0x22 SLT KECCAK256 0xAE DUP12 DUP13 MSTORE8 0xBD PUSH18 0x9B1851F437BFED2599248FC0137B95FF0498 0x29 0xCD MULMOD 0xB4 0x4C MLOAD 0xBC 0xC7 PUSH5 0x736F6C6343 STOP ADDMOD SHR STOP CALLER "},"methodIdentifiers":{"KAIA()":"4ed415dc","KAIA_FEED_NAME()":"68c923eb","USDT()":"c54e44eb","USDY()":"19685067","borrow(address,uint256)":"4b8a3529","collateralBalance(address)":"a1bf2840","debtBalance(address,address)":"ad8f240e","deposit(address,uint256)":"47e7ef24","depositCollateral(uint256)":"bad4a01f","emergencyWithdraw(address,uint256)":"95ccea67","feedRouter()":"1b995c4b","getKaiaPrice()":"f33705ea","getLTV(address)":"aca25f9a","getLpPrice(address)":"89a87ee8","getTokenDecimals(address)":"785c7cf6","getTokenName(address)":"6f0fccab","getTokenSymbol(address)":"81a73ad5","getUsdtPrice()":"961bdfbf","isLiquidatable(address)":"042e02cf","kKAIA()":"f4302384","kUSDT()":"20db3fe7","lastInterestUpdate(address)":"fade3496","liquidate(address,uint256)":"bcbaf487","owner()":"8da5cb5b","redeem(address,uint256)":"1e9a6950","renounceOwnership()":"715018a6","repay(address,uint256)":"22867d78","transferOwnership(address)":"f2fde38b","updateTokenPrice(address,uint256)":"d4ee651b","withdrawCollateral(uint256)":"6112fe2e"}}}}}