{"contracts/KaiaCompatibleRWATokens.sol":{"KaiaBondingCurveDemo":{"abi":[{"inputs":[{"internalType":"address","name":"_platform","type":"address"},{"internalType":"address","name":"_gold","type":"address"},{"internalType":"address","name":"_silver","type":"address"},{"internalType":"address","name":"_realEstate","type":"address"},{"internalType":"address","name":"_dummyUSDT","type":"address"}],"stateMutability":"nonpayable","type":"constructor"},{"anonymous":false,"inputs":[{"indexed":false,"internalType":"string","name":"curveType","type":"string"},{"indexed":false,"internalType":"uint256","name":"inputValue","type":"uint256"},{"indexed":false,"internalType":"uint256","name":"outputValue","type":"uint256"}],"name":"BondingCurveShowcase","type":"event"},{"anonymous":false,"inputs":[{"indexed":false,"internalType":"string","name":"step","type":"string"},{"indexed":false,"internalType":"address","name":"user","type":"address"},{"indexed":false,"internalType":"uint256","name":"value","type":"uint256"}],"name":"DemoStepCompleted","type":"event"},{"inputs":[],"name":"dummyUSDT","outputs":[{"internalType":"address","name":"","type":"address"}],"stateMutability":"view","type":"function"},{"inputs":[{"internalType":"address","name":"user","type":"address"}],"name":"getTokenBalances","outputs":[{"internalType":"uint256","name":"goldBalance","type":"uint256"},{"internalType":"uint256","name":"silverBalance","type":"uint256"},{"internalType":"uint256","name":"realEstateBalance","type":"uint256"},{"internalType":"uint256","name":"dummyUSDTBalance","type":"uint256"}],"stateMutability":"view","type":"function"},{"inputs":[],"name":"goldToken","outputs":[{"internalType":"address","name":"","type":"address"}],"stateMutability":"view","type":"function"},{"inputs":[],"name":"platform","outputs":[{"internalType":"contract RWALendingPlatformWithBondingCurves","name":"","type":"address"}],"stateMutability":"view","type":"function"},{"inputs":[],"name":"realEstateToken","outputs":[{"internalType":"address","name":"","type":"address"}],"stateMutability":"view","type":"function"},{"inputs":[{"internalType":"address","name":"user","type":"address"}],"name":"runKaiaRWADemo","outputs":[],"stateMutability":"nonpayable","type":"function"},{"inputs":[],"name":"silverToken","outputs":[{"internalType":"address","name":"","type":"address"}],"stateMutability":"view","type":"function"}],"evm":{"bytecode":{"linkReferences":{},"object":"6080346100d257601f610ad138819003918201601f19168301916001600160401b038311848410176100d75780849260a0946040528339810103126100d257610047816100ed565b90610054602082016100ed565b90610061604082016100ed565b9161007a6080610073606085016100ed565b93016100ed565b9160018060a01b0380948180948160018060a01b03199916896000541617600055168760015416176001551685600254161760025516836003541617600355169060045416176004556040516109cf90816101028239f35b600080fd5b634e487b7160e01b600052604160045260246000fd5b51906001600160a01b03821682036100d25756fe608060408181526004918236101561001657600080fd5b600092833560e01c9182631eec7c8e14610329575081634bde38c8146103015781635621a693146102d5578163764f3aa8146100ed5750806394002b57146100c5578063c34fe1dd1461009d5763d4e9f9511461007257600080fd5b3461009957816003193601126100995760035490516001600160a01b039091168152602090f35b5080fd5b503461009957816003193601126100995760025490516001600160a01b039091168152602090f35b503461009957816003193601126100995760015490516001600160a01b039091168152602090f35b905082346102d257602080600319360112610099576001600160a01b038335818116959192908690036102ce5782600154169482519582876024816370a0823160e01b948582528c878301525afa9687156102c457869761028e575b5090829160249386600254168651958680928582528d878301525afa938415610284578794610255575b50856003541695838a60248851809a8193878352888301525afa96871561024b578897610216575b5082916024918594541687519b8c94859384528301525afa94851561020b57946101d6575b6080965082519586528501528301526060820152f35b80945086813d8311610204575b6101ed818361095f565b810103126101ff5760809551936101c0565b600080fd5b503d6101e3565b8351903d90823e3d90fd5b9096508381819493943d8311610244575b610231818361095f565b810103126101ff5751959091908361019b565b503d610227565b86513d8a823e3d90fd5b9093508281813d831161027d575b61026d818361095f565b810103126101ff57519289610173565b503d610263565b85513d89823e3d90fd5b92809291975083813d83116102bd575b6102a8818361095f565b810103126101ff576024925196909192610149565b503d61029e565b84513d88823e3d90fd5b8380fd5b80fd5b9050346102fd57826003193601126102fd575490516001600160a01b03909116815260209150f35b8280fd5b505034610099578160031936011261009957905490516001600160a01b039091168152602090f35b848483346102fd576020806003193601126102ce576001600160a01b039282358481169081900361082e578460015416803b156107fb57868886818363de5f72fd60e01b958683525af1801561092b57610915575b8697508560029796975416803b156107fb57868091878651809481938783525af1801561090b579087916108f7575b5050866003541690813b156107fb5786918683928651948593849283525af180156108ed579086916108d9575b5050856001541692858781541694845163095ea7b360e01b968782528882015283816044816801158e460913d000009c8d9660249e8f8401525af180156108cf576108b2575b508789848960448a87856002541695815416958c519687958694855284015268022b1c8c1227a0000080988401525af1801561085a57908a939291610895575b508a858a60448b88856003541695815416958d5196879586948552840152678ac7230489e80000809a8401525af1801561079a57610878575b508a845416918b6001541692803b1561082e578b60448c958880948d5196879586946311f9fbc960e21b9b8c87528601528401525af1801561079a57908591610864575b508b9054168b60025416813b1561082e5760448b8780948f968d5197889687958b87528601528401525af1801561085a57908491610846575b50546003548b1692908b16803b15610769578492836044928c948e8c51988997889687528601528401525af1801561075f57610832575b508351966060968789526014888a01527311195c1bdcda5d1495d050dbdb1b185d195c985b60621b60808a015284848a01526130d4868a01527fc050ceac91091ff4a1425ed83fc9c5b499f52bc4d187fb4eed6d3a9d3d86ef91998a60a0809ba1808454169781835416893b1561082e57885190634b8a352960e01b8252848201528581604481836901b1ae4d6e2ef50000009e8f8b8401525af1801561082457908691610810575b50508b8b89518c8152600f8d8201526e109bdc9c9bddd11d5b5b5e5554d115608a1b608082015289898201528b8b820152a181855416908260015416895190632a6936ef60e21b8252858201528c818781865afa90811561080657918d8d8d95938d8c968c926107a4575b509160449493918360107f386ac3c683f28f6581d2d0e081c2c4db2b23b7d3e7a8d272955aed4f47e9266e9551938085528401526f476f6c64496e7465726573745261746560801b60808401528d89840152820152a188868854168d51968795869485528a8501528a8401525af1801561079a5761076d575b508354825482169116803b15610769578492836044928b8b519788968795630450cfaf60e31b87528601528401525af1801561075f57610747575b505060128351958087528601527114995c185e55da5d1a111d5b5b5e5554d11560721b6080860152840152820152a180f35b61075090610935565b61075b578789610715565b8780fd5b85513d84823e3d90fd5b8480fd5b61078c90863d8811610793575b610784818361095f565b810190610981565b508c6106da565b503d61077a565b88513d87823e3d90fd5b975050505090925083813d83116107ff575b6107c0818361095f565b810103126107fb5791518a92889290918e908e908d7f386ac3c683f28f6581d2d0e081c2c4db2b23b7d3e7a8d272955aed4f47e9266e610661565b8680fd5b503d6107b6565b8a513d89823e3d90fd5b61081990610935565b61076957848e6105f6565b89513d88823e3d90fd5b8580fd5b61083b90610935565b61075b57878961054d565b61084f90610935565b6102fd57828c610516565b87513d86823e3d90fd5b61086d90610935565b6102ce57838d6104dd565b61088e90863d881161079357610784818361095f565b508c610499565b6108ab90863d881161079357610784818361095f565b508c610460565b6108c890843d861161079357610784818361095f565b508a610420565b86513d85823e3d90fd5b6108e290610935565b6107695784886103da565b83513d88823e3d90fd5b61090090610935565b61082e5785896103ad565b84513d89823e3d90fd5b9495909661092290610935565b9493869061037e565b83513d89823e3d90fd5b67ffffffffffffffff811161094957604052565b634e487b7160e01b600052604160045260246000fd5b90601f8019910116810190811067ffffffffffffffff82111761094957604052565b908160209103126101ff575180151581036101ff579056fea2646970667358221220cd778b84a3453fd78ca6a89073c9e0045e9545d803b790cab4671399664c296e64736f6c63430008140033","opcodes":"PUSH1 0x80 CALLVALUE PUSH2 0xD2 JUMPI PUSH1 0x1F PUSH2 0xAD1 CODESIZE DUP2 SWAP1 SUB SWAP2 DUP3 ADD PUSH1 0x1F NOT AND DUP4 ADD SWAP2 PUSH1 0x1 PUSH1 0x1 PUSH1 0x40 SHL SUB DUP4 GT DUP5 DUP5 LT OR PUSH2 0xD7 JUMPI DUP1 DUP5 SWAP3 PUSH1 0xA0 SWAP5 PUSH1 0x40 MSTORE DUP4 CODECOPY DUP2 ADD SUB SLT PUSH2 0xD2 JUMPI PUSH2 0x47 DUP2 PUSH2 0xED JUMP JUMPDEST SWAP1 PUSH2 0x54 PUSH1 0x20 DUP3 ADD PUSH2 0xED JUMP JUMPDEST SWAP1 PUSH2 0x61 PUSH1 0x40 DUP3 ADD PUSH2 0xED JUMP JUMPDEST SWAP2 PUSH2 0x7A PUSH1 0x80 PUSH2 0x73 PUSH1 0x60 DUP6 ADD PUSH2 0xED JUMP JUMPDEST SWAP4 ADD PUSH2 0xED JUMP JUMPDEST SWAP2 PUSH1 0x1 DUP1 PUSH1 0xA0 SHL SUB DUP1 SWAP5 DUP2 DUP1 SWAP5 DUP2 PUSH1 0x1 DUP1 PUSH1 0xA0 SHL SUB NOT SWAP10 AND DUP10 PUSH1 0x0 SLOAD AND OR PUSH1 0x0 SSTORE AND DUP8 PUSH1 0x1 SLOAD AND OR PUSH1 0x1 SSTORE AND DUP6 PUSH1 0x2 SLOAD AND OR PUSH1 0x2 SSTORE AND DUP4 PUSH1 0x3 SLOAD AND OR PUSH1 0x3 SSTORE AND SWAP1 PUSH1 0x4 SLOAD AND OR PUSH1 0x4 SSTORE PUSH1 0x40 MLOAD PUSH2 0x9CF SWAP1 DUP2 PUSH2 0x102 DUP3 CODECOPY RETURN JUMPDEST PUSH1 0x0 DUP1 REVERT JUMPDEST PUSH4 0x4E487B71 PUSH1 0xE0 SHL PUSH1 0x0 MSTORE PUSH1 0x41 PUSH1 0x4 MSTORE PUSH1 0x24 PUSH1 0x0 REVERT JUMPDEST MLOAD SWAP1 PUSH1 0x1 PUSH1 0x1 PUSH1 0xA0 SHL SUB DUP3 AND DUP3 SUB PUSH2 0xD2 JUMPI JUMP INVALID PUSH1 0x80 PUSH1 0x40 DUP2 DUP2 MSTORE PUSH1 0x4 SWAP2 DUP3 CALLDATASIZE LT ISZERO PUSH2 0x16 JUMPI PUSH1 0x0 DUP1 REVERT JUMPDEST PUSH1 0x0 SWAP3 DUP4 CALLDATALOAD PUSH1 0xE0 SHR SWAP2 DUP3 PUSH4 0x1EEC7C8E EQ PUSH2 0x329 JUMPI POP DUP2 PUSH4 0x4BDE38C8 EQ PUSH2 0x301 JUMPI DUP2 PUSH4 0x5621A693 EQ PUSH2 0x2D5 JUMPI DUP2 PUSH4 0x764F3AA8 EQ PUSH2 0xED JUMPI POP DUP1 PUSH4 0x94002B57 EQ PUSH2 0xC5 JUMPI DUP1 PUSH4 0xC34FE1DD EQ PUSH2 0x9D JUMPI PUSH4 0xD4E9F951 EQ PUSH2 0x72 JUMPI PUSH1 0x0 DUP1 REVERT JUMPDEST CALLVALUE PUSH2 0x99 JUMPI DUP2 PUSH1 0x3 NOT CALLDATASIZE ADD SLT PUSH2 0x99 JUMPI PUSH1 0x3 SLOAD SWAP1 MLOAD PUSH1 0x1 PUSH1 0x1 PUSH1 0xA0 SHL SUB SWAP1 SWAP2 AND DUP2 MSTORE PUSH1 0x20 SWAP1 RETURN JUMPDEST POP DUP1 REVERT JUMPDEST POP CALLVALUE PUSH2 0x99 JUMPI DUP2 PUSH1 0x3 NOT CALLDATASIZE ADD SLT PUSH2 0x99 JUMPI PUSH1 0x2 SLOAD SWAP1 MLOAD PUSH1 0x1 PUSH1 0x1 PUSH1 0xA0 SHL SUB SWAP1 SWAP2 AND DUP2 MSTORE PUSH1 0x20 SWAP1 RETURN JUMPDEST POP CALLVALUE PUSH2 0x99 JUMPI DUP2 PUSH1 0x3 NOT CALLDATASIZE ADD SLT PUSH2 0x99 JUMPI PUSH1 0x1 SLOAD SWAP1 MLOAD PUSH1 0x1 PUSH1 0x1 PUSH1 0xA0 SHL SUB SWAP1 SWAP2 AND DUP2 MSTORE PUSH1 0x20 SWAP1 RETURN JUMPDEST SWAP1 POP DUP3 CALLVALUE PUSH2 0x2D2 JUMPI PUSH1 0x20 DUP1 PUSH1 0x3 NOT CALLDATASIZE ADD SLT PUSH2 0x99 JUMPI PUSH1 0x1 PUSH1 0x1 PUSH1 0xA0 SHL SUB DUP4 CALLDATALOAD DUP2 DUP2 AND SWAP6 SWAP2 SWAP3 SWAP1 DUP7 SWAP1 SUB PUSH2 0x2CE JUMPI DUP3 PUSH1 0x1 SLOAD AND SWAP5 DUP3 MLOAD SWAP6 DUP3 DUP8 PUSH1 0x24 DUP2 PUSH4 0x70A08231 PUSH1 0xE0 SHL SWAP5 DUP6 DUP3 MSTORE DUP13 DUP8 DUP4 ADD MSTORE GAS STATICCALL SWAP7 DUP8 ISZERO PUSH2 0x2C4 JUMPI DUP7 SWAP8 PUSH2 0x28E JUMPI JUMPDEST POP SWAP1 DUP3 SWAP2 PUSH1 0x24 SWAP4 DUP7 PUSH1 0x2 SLOAD AND DUP7 MLOAD SWAP6 DUP7 DUP1 SWAP3 DUP6 DUP3 MSTORE DUP14 DUP8 DUP4 ADD MSTORE GAS STATICCALL SWAP4 DUP5 ISZERO PUSH2 0x284 JUMPI DUP8 SWAP5 PUSH2 0x255 JUMPI JUMPDEST POP DUP6 PUSH1 0x3 SLOAD AND SWAP6 DUP4 DUP11 PUSH1 0x24 DUP9 MLOAD DUP1 SWAP11 DUP2 SWAP4 DUP8 DUP4 MSTORE DUP9 DUP4 ADD MSTORE GAS STATICCALL SWAP7 DUP8 ISZERO PUSH2 0x24B JUMPI DUP9 SWAP8 PUSH2 0x216 JUMPI JUMPDEST POP DUP3 SWAP2 PUSH1 0x24 SWAP2 DUP6 SWAP5 SLOAD AND DUP8 MLOAD SWAP12 DUP13 SWAP5 DUP6 SWAP4 DUP5 MSTORE DUP4 ADD MSTORE GAS STATICCALL SWAP5 DUP6 ISZERO PUSH2 0x20B JUMPI SWAP5 PUSH2 0x1D6 JUMPI JUMPDEST PUSH1 0x80 SWAP7 POP DUP3 MLOAD SWAP6 DUP7 MSTORE DUP6 ADD MSTORE DUP4 ADD MSTORE PUSH1 0x60 DUP3 ADD MSTORE RETURN JUMPDEST DUP1 SWAP5 POP DUP7 DUP2 RETURNDATASIZE DUP4 GT PUSH2 0x204 JUMPI JUMPDEST PUSH2 0x1ED DUP2 DUP4 PUSH2 0x95F JUMP JUMPDEST DUP2 ADD SUB SLT PUSH2 0x1FF JUMPI PUSH1 0x80 SWAP6 MLOAD SWAP4 PUSH2 0x1C0 JUMP JUMPDEST PUSH1 0x0 DUP1 REVERT JUMPDEST POP RETURNDATASIZE PUSH2 0x1E3 JUMP JUMPDEST DUP4 MLOAD SWAP1 RETURNDATASIZE SWAP1 DUP3 RETURNDATACOPY RETURNDATASIZE SWAP1 REVERT JUMPDEST SWAP1 SWAP7 POP DUP4 DUP2 DUP2 SWAP5 SWAP4 SWAP5 RETURNDATASIZE DUP4 GT PUSH2 0x244 JUMPI JUMPDEST PUSH2 0x231 DUP2 DUP4 PUSH2 0x95F JUMP JUMPDEST DUP2 ADD SUB SLT PUSH2 0x1FF JUMPI MLOAD SWAP6 SWAP1 SWAP2 SWAP1 DUP4 PUSH2 0x19B JUMP JUMPDEST POP RETURNDATASIZE PUSH2 0x227 JUMP JUMPDEST DUP7 MLOAD RETURNDATASIZE DUP11 DUP3 RETURNDATACOPY RETURNDATASIZE SWAP1 REVERT JUMPDEST SWAP1 SWAP4 POP DUP3 DUP2 DUP2 RETURNDATASIZE DUP4 GT PUSH2 0x27D JUMPI JUMPDEST PUSH2 0x26D DUP2 DUP4 PUSH2 0x95F JUMP JUMPDEST DUP2 ADD SUB SLT PUSH2 0x1FF JUMPI MLOAD SWAP3 DUP10 PUSH2 0x173 JUMP JUMPDEST POP RETURNDATASIZE PUSH2 0x263 JUMP JUMPDEST DUP6 MLOAD RETURNDATASIZE DUP10 DUP3 RETURNDATACOPY RETURNDATASIZE SWAP1 REVERT JUMPDEST SWAP3 DUP1 SWAP3 SWAP2 SWAP8 POP DUP4 DUP2 RETURNDATASIZE DUP4 GT PUSH2 0x2BD JUMPI JUMPDEST PUSH2 0x2A8 DUP2 DUP4 PUSH2 0x95F JUMP JUMPDEST DUP2 ADD SUB SLT PUSH2 0x1FF JUMPI PUSH1 0x24 SWAP3 MLOAD SWAP7 SWAP1 SWAP2 SWAP3 PUSH2 0x149 JUMP JUMPDEST POP RETURNDATASIZE PUSH2 0x29E JUMP JUMPDEST DUP5 MLOAD RETURNDATASIZE DUP9 DUP3 RETURNDATACOPY RETURNDATASIZE SWAP1 REVERT JUMPDEST DUP4 DUP1 REVERT JUMPDEST DUP1 REVERT JUMPDEST SWAP1 POP CALLVALUE PUSH2 0x2FD JUMPI DUP3 PUSH1 0x3 NOT CALLDATASIZE ADD SLT PUSH2 0x2FD JUMPI SLOAD SWAP1 MLOAD PUSH1 0x1 PUSH1 0x1 PUSH1 0xA0 SHL SUB SWAP1 SWAP2 AND DUP2 MSTORE PUSH1 0x20 SWAP2 POP RETURN JUMPDEST DUP3 DUP1 REVERT JUMPDEST POP POP CALLVALUE PUSH2 0x99 JUMPI DUP2 PUSH1 0x3 NOT CALLDATASIZE ADD SLT PUSH2 0x99 JUMPI SWAP1 SLOAD SWAP1 MLOAD PUSH1 0x1 PUSH1 0x1 PUSH1 0xA0 SHL SUB SWAP1 SWAP2 AND DUP2 MSTORE PUSH1 0x20 SWAP1 RETURN JUMPDEST DUP5 DUP5 DUP4 CALLVALUE PUSH2 0x2FD JUMPI PUSH1 0x20 DUP1 PUSH1 0x3 NOT CALLDATASIZE ADD SLT PUSH2 0x2CE JUMPI PUSH1 0x1 PUSH1 0x1 PUSH1 0xA0 SHL SUB SWAP3 DUP3 CALLDATALOAD DUP5 DUP2 AND SWAP1 DUP2 SWAP1 SUB PUSH2 0x82E JUMPI DUP5 PUSH1 0x1 SLOAD AND DUP1 EXTCODESIZE ISZERO PUSH2 0x7FB JUMPI DUP7 DUP9 DUP7 DUP2 DUP4 PUSH4 0xDE5F72FD PUSH1 0xE0 SHL SWAP6 DUP7 DUP4 MSTORE GAS CALL DUP1 ISZERO PUSH2 0x92B JUMPI PUSH2 0x915 JUMPI JUMPDEST DUP7 SWAP8 POP DUP6 PUSH1 0x2 SWAP8 SWAP7 SWAP8 SLOAD AND DUP1 EXTCODESIZE ISZERO PUSH2 0x7FB JUMPI DUP7 DUP1 SWAP2 DUP8 DUP7 MLOAD DUP1 SWAP5 DUP2 SWAP4 DUP8 DUP4 MSTORE GAS CALL DUP1 ISZERO PUSH2 0x90B JUMPI SWAP1 DUP8 SWAP2 PUSH2 0x8F7 JUMPI JUMPDEST POP POP DUP7 PUSH1 0x3 SLOAD AND SWAP1 DUP2 EXTCODESIZE ISZERO PUSH2 0x7FB JUMPI DUP7 SWAP2 DUP7 DUP4 SWAP3 DUP7 MLOAD SWAP5 DUP6 SWAP4 DUP5 SWAP3 DUP4 MSTORE GAS CALL DUP1 ISZERO PUSH2 0x8ED JUMPI SWAP1 DUP7 SWAP2 PUSH2 0x8D9 JUMPI JUMPDEST POP POP DUP6 PUSH1 0x1 SLOAD AND SWAP3 DUP6 DUP8 DUP2 SLOAD AND SWAP5 DUP5 MLOAD PUSH4 0x95EA7B3 PUSH1 0xE0 SHL SWAP7 DUP8 DUP3 MSTORE DUP9 DUP3 ADD MSTORE DUP4 DUP2 PUSH1 0x44 DUP2 PUSH9 0x1158E460913D00000 SWAP13 DUP14 SWAP7 PUSH1 0x24 SWAP15 DUP16 DUP5 ADD MSTORE GAS CALL DUP1 ISZERO PUSH2 0x8CF JUMPI PUSH2 0x8B2 JUMPI JUMPDEST POP DUP8 DUP10 DUP5 DUP10 PUSH1 0x44 DUP11 DUP8 DUP6 PUSH1 0x2 SLOAD AND SWAP6 DUP2 SLOAD AND SWAP6 DUP13 MLOAD SWAP7 DUP8 SWAP6 DUP7 SWAP5 DUP6 MSTORE DUP5 ADD MSTORE PUSH9 0x22B1C8C1227A00000 DUP1 SWAP9 DUP5 ADD MSTORE GAS CALL DUP1 ISZERO PUSH2 0x85A JUMPI SWAP1 DUP11 SWAP4 SWAP3 SWAP2 PUSH2 0x895 JUMPI JUMPDEST POP DUP11 DUP6 DUP11 PUSH1 0x44 DUP12 DUP9 DUP6 PUSH1 0x3 SLOAD AND SWAP6 DUP2 SLOAD AND SWAP6 DUP14 MLOAD SWAP7 DUP8 SWAP6 DUP7 SWAP5 DUP6 MSTORE DUP5 ADD MSTORE PUSH8 0x8AC7230489E80000 DUP1 SWAP11 DUP5 ADD MSTORE GAS CALL DUP1 ISZERO PUSH2 0x79A JUMPI PUSH2 0x878 JUMPI JUMPDEST POP DUP11 DUP5 SLOAD AND SWAP2 DUP12 PUSH1 0x1 SLOAD AND SWAP3 DUP1 EXTCODESIZE ISZERO PUSH2 0x82E JUMPI DUP12 PUSH1 0x44 DUP13 SWAP6 DUP9 DUP1 SWAP5 DUP14 MLOAD SWAP7 DUP8 SWAP6 DUP7 SWAP5 PUSH4 0x11F9FBC9 PUSH1 0xE2 SHL SWAP12 DUP13 DUP8 MSTORE DUP7 ADD MSTORE DUP5 ADD MSTORE GAS CALL DUP1 ISZERO PUSH2 0x79A JUMPI SWAP1 DUP6 SWAP2 PUSH2 0x864 JUMPI JUMPDEST POP DUP12 SWAP1 SLOAD AND DUP12 PUSH1 0x2 SLOAD AND DUP2 EXTCODESIZE ISZERO PUSH2 0x82E JUMPI PUSH1 0x44 DUP12 DUP8 DUP1 SWAP5 DUP16 SWAP7 DUP14 MLOAD SWAP8 DUP9 SWAP7 DUP8 SWAP6 DUP12 DUP8 MSTORE DUP7 ADD MSTORE DUP5 ADD MSTORE GAS CALL DUP1 ISZERO PUSH2 0x85A JUMPI SWAP1 DUP5 SWAP2 PUSH2 0x846 JUMPI JUMPDEST POP SLOAD PUSH1 0x3 SLOAD DUP12 AND SWAP3 SWAP1 DUP12 AND DUP1 EXTCODESIZE ISZERO PUSH2 0x769 JUMPI DUP5 SWAP3 DUP4 PUSH1 0x44 SWAP3 DUP13 SWAP5 DUP15 DUP13 MLOAD SWAP9 DUP10 SWAP8 DUP9 SWAP7 DUP8 MSTORE DUP7 ADD MSTORE DUP5 ADD MSTORE GAS CALL DUP1 ISZERO PUSH2 0x75F JUMPI PUSH2 0x832 JUMPI JUMPDEST POP DUP4 MLOAD SWAP7 PUSH1 0x60 SWAP7 DUP8 DUP10 MSTORE PUSH1 0x14 DUP9 DUP11 ADD MSTORE PUSH20 0x11195C1BDCDA5D1495D050DBDB1B185D195C985B PUSH1 0x62 SHL PUSH1 0x80 DUP11 ADD MSTORE DUP5 DUP5 DUP11 ADD MSTORE PUSH2 0x30D4 DUP7 DUP11 ADD MSTORE PUSH32 0xC050CEAC91091FF4A1425ED83FC9C5B499F52BC4D187FB4EED6D3A9D3D86EF91 SWAP10 DUP11 PUSH1 0xA0 DUP1 SWAP12 LOG1 DUP1 DUP5 SLOAD AND SWAP8 DUP2 DUP4 SLOAD AND DUP10 EXTCODESIZE ISZERO PUSH2 0x82E JUMPI DUP9 MLOAD SWAP1 PUSH4 0x4B8A3529 PUSH1 0xE0 SHL DUP3 MSTORE DUP5 DUP3 ADD MSTORE DUP6 DUP2 PUSH1 0x44 DUP2 DUP4 PUSH10 0x1B1AE4D6E2EF5000000 SWAP15 DUP16 DUP12 DUP5 ADD MSTORE GAS CALL DUP1 ISZERO PUSH2 0x824 JUMPI SWAP1 DUP7 SWAP2 PUSH2 0x810 JUMPI JUMPDEST POP POP DUP12 DUP12 DUP10 MLOAD DUP13 DUP2 MSTORE PUSH1 0xF DUP14 DUP3 ADD MSTORE PUSH15 0x109BDC9C9BDDD11D5B5B5E5554D115 PUSH1 0x8A SHL PUSH1 0x80 DUP3 ADD MSTORE DUP10 DUP10 DUP3 ADD MSTORE DUP12 DUP12 DUP3 ADD MSTORE LOG1 DUP2 DUP6 SLOAD AND SWAP1 DUP3 PUSH1 0x1 SLOAD AND DUP10 MLOAD SWAP1 PUSH4 0x2A6936EF PUSH1 0xE2 SHL DUP3 MSTORE DUP6 DUP3 ADD MSTORE DUP13 DUP2 DUP8 DUP2 DUP7 GAS STATICCALL SWAP1 DUP2 ISZERO PUSH2 0x806 JUMPI SWAP2 DUP14 DUP14 DUP14 SWAP6 SWAP4 DUP14 DUP13 SWAP7 DUP13 SWAP3 PUSH2 0x7A4 JUMPI JUMPDEST POP SWAP2 PUSH1 0x44 SWAP5 SWAP4 SWAP2 DUP4 PUSH1 0x10 PUSH32 0x386AC3C683F28F6581D2D0E081C2C4DB2B23B7D3E7A8D272955AED4F47E9266E SWAP6 MLOAD SWAP4 DUP1 DUP6 MSTORE DUP5 ADD MSTORE PUSH16 0x476F6C64496E74657265737452617465 PUSH1 0x80 SHL PUSH1 0x80 DUP5 ADD MSTORE DUP14 DUP10 DUP5 ADD MSTORE DUP3 ADD MSTORE LOG1 DUP9 DUP7 DUP9 SLOAD AND DUP14 MLOAD SWAP7 DUP8 SWAP6 DUP7 SWAP5 DUP6 MSTORE DUP11 DUP6 ADD MSTORE DUP11 DUP5 ADD MSTORE GAS CALL DUP1 ISZERO PUSH2 0x79A JUMPI PUSH2 0x76D JUMPI JUMPDEST POP DUP4 SLOAD DUP3 SLOAD DUP3 AND SWAP2 AND DUP1 EXTCODESIZE ISZERO PUSH2 0x769 JUMPI DUP5 SWAP3 DUP4 PUSH1 0x44 SWAP3 DUP12 DUP12 MLOAD SWAP8 DUP9 SWAP7 DUP8 SWAP6 PUSH4 0x450CFAF PUSH1 0xE3 SHL DUP8 MSTORE DUP7 ADD MSTORE DUP5 ADD MSTORE GAS CALL DUP1 ISZERO PUSH2 0x75F JUMPI PUSH2 0x747 JUMPI JUMPDEST POP POP PUSH1 0x12 DUP4 MLOAD SWAP6 DUP1 DUP8 MSTORE DUP7 ADD MSTORE PUSH18 0x14995C185E55DA5D1A111D5B5B5E5554D115 PUSH1 0x72 SHL PUSH1 0x80 DUP7 ADD MSTORE DUP5 ADD MSTORE DUP3 ADD MSTORE LOG1 DUP1 RETURN JUMPDEST PUSH2 0x750 SWAP1 PUSH2 0x935 JUMP JUMPDEST PUSH2 0x75B JUMPI DUP8 DUP10 PUSH2 0x715 JUMP JUMPDEST DUP8 DUP1 REVERT JUMPDEST DUP6 MLOAD RETURNDATASIZE DUP5 DUP3 RETURNDATACOPY RETURNDATASIZE SWAP1 REVERT JUMPDEST DUP5 DUP1 REVERT JUMPDEST PUSH2 0x78C SWAP1 DUP7 RETURNDATASIZE DUP9 GT PUSH2 0x793 JUMPI JUMPDEST PUSH2 0x784 DUP2 DUP4 PUSH2 0x95F JUMP JUMPDEST DUP2 ADD SWAP1 PUSH2 0x981 JUMP JUMPDEST POP DUP13 PUSH2 0x6DA JUMP JUMPDEST POP RETURNDATASIZE PUSH2 0x77A JUMP JUMPDEST DUP9 MLOAD RETURNDATASIZE DUP8 DUP3 RETURNDATACOPY RETURNDATASIZE SWAP1 REVERT JUMPDEST SWAP8 POP POP POP POP SWAP1 SWAP3 POP DUP4 DUP2 RETURNDATASIZE DUP4 GT PUSH2 0x7FF JUMPI JUMPDEST PUSH2 0x7C0 DUP2 DUP4 PUSH2 0x95F JUMP JUMPDEST DUP2 ADD SUB SLT PUSH2 0x7FB JUMPI SWAP2 MLOAD DUP11 SWAP3 DUP9 SWAP3 SWAP1 SWAP2 DUP15 SWAP1 DUP15 SWAP1 DUP14 PUSH32 0x386AC3C683F28F6581D2D0E081C2C4DB2B23B7D3E7A8D272955AED4F47E9266E PUSH2 0x661 JUMP JUMPDEST DUP7 DUP1 REVERT JUMPDEST POP RETURNDATASIZE PUSH2 0x7B6 JUMP JUMPDEST DUP11 MLOAD RETURNDATASIZE DUP10 DUP3 RETURNDATACOPY RETURNDATASIZE SWAP1 REVERT JUMPDEST PUSH2 0x819 SWAP1 PUSH2 0x935 JUMP JUMPDEST PUSH2 0x769 JUMPI DUP5 DUP15 PUSH2 0x5F6 JUMP JUMPDEST DUP10 MLOAD RETURNDATASIZE DUP9 DUP3 RETURNDATACOPY RETURNDATASIZE SWAP1 REVERT JUMPDEST DUP6 DUP1 REVERT JUMPDEST PUSH2 0x83B SWAP1 PUSH2 0x935 JUMP JUMPDEST PUSH2 0x75B JUMPI DUP8 DUP10 PUSH2 0x54D JUMP JUMPDEST PUSH2 0x84F SWAP1 PUSH2 0x935 JUMP JUMPDEST PUSH2 0x2FD JUMPI DUP3 DUP13 PUSH2 0x516 JUMP JUMPDEST DUP8 MLOAD RETURNDATASIZE DUP7 DUP3 RETURNDATACOPY RETURNDATASIZE SWAP1 REVERT JUMPDEST PUSH2 0x86D SWAP1 PUSH2 0x935 JUMP JUMPDEST PUSH2 0x2CE JUMPI DUP4 DUP14 PUSH2 0x4DD JUMP JUMPDEST PUSH2 0x88E SWAP1 DUP7 RETURNDATASIZE DUP9 GT PUSH2 0x793 JUMPI PUSH2 0x784 DUP2 DUP4 PUSH2 0x95F JUMP JUMPDEST POP DUP13 PUSH2 0x499 JUMP JUMPDEST PUSH2 0x8AB SWAP1 DUP7 RETURNDATASIZE DUP9 GT PUSH2 0x793 JUMPI PUSH2 0x784 DUP2 DUP4 PUSH2 0x95F JUMP JUMPDEST POP DUP13 PUSH2 0x460 JUMP JUMPDEST PUSH2 0x8C8 SWAP1 DUP5 RETURNDATASIZE DUP7 GT PUSH2 0x793 JUMPI PUSH2 0x784 DUP2 DUP4 PUSH2 0x95F JUMP JUMPDEST POP DUP11 PUSH2 0x420 JUMP JUMPDEST DUP7 MLOAD RETURNDATASIZE DUP6 DUP3 RETURNDATACOPY RETURNDATASIZE SWAP1 REVERT JUMPDEST PUSH2 0x8E2 SWAP1 PUSH2 0x935 JUMP JUMPDEST PUSH2 0x769 JUMPI DUP5 DUP9 PUSH2 0x3DA JUMP JUMPDEST DUP4 MLOAD RETURNDATASIZE DUP9 DUP3 RETURNDATACOPY RETURNDATASIZE SWAP1 REVERT JUMPDEST PUSH2 0x900 SWAP1 PUSH2 0x935 JUMP JUMPDEST PUSH2 0x82E JUMPI DUP6 DUP10 PUSH2 0x3AD JUMP JUMPDEST DUP5 MLOAD RETURNDATASIZE DUP10 DUP3 RETURNDATACOPY RETURNDATASIZE SWAP1 REVERT JUMPDEST SWAP5 SWAP6 SWAP1 SWAP7 PUSH2 0x922 SWAP1 PUSH2 0x935 JUMP JUMPDEST SWAP5 SWAP4 DUP7 SWAP1 PUSH2 0x37E JUMP JUMPDEST DUP4 MLOAD RETURNDATASIZE DUP10 DUP3 RETURNDATACOPY RETURNDATASIZE SWAP1 REVERT JUMPDEST PUSH8 0xFFFFFFFFFFFFFFFF DUP2 GT PUSH2 0x949 JUMPI PUSH1 0x40 MSTORE JUMP JUMPDEST PUSH4 0x4E487B71 PUSH1 0xE0 SHL PUSH1 0x0 MSTORE PUSH1 0x41 PUSH1 0x4 MSTORE PUSH1 0x24 PUSH1 0x0 REVERT JUMPDEST SWAP1 PUSH1 0x1F DUP1 NOT SWAP2 ADD AND DUP2 ADD SWAP1 DUP2 LT PUSH8 0xFFFFFFFFFFFFFFFF DUP3 GT OR PUSH2 0x949 JUMPI PUSH1 0x40 MSTORE JUMP JUMPDEST SWAP1 DUP2 PUSH1 0x20 SWAP2 SUB SLT PUSH2 0x1FF JUMPI MLOAD DUP1 ISZERO ISZERO DUP2 SUB PUSH2 0x1FF JUMPI SWAP1 JUMP INVALID LOG2 PUSH5 0x6970667358 0x22 SLT KECCAK256 0xCD PUSH24 0x8B84A3453FD78CA6A89073C9E0045E9545D803B790CAB467 SGT SWAP10 PUSH7 0x4C296E64736F6C PUSH4 0x43000814 STOP CALLER "},"methodIdentifiers":{"dummyUSDT()":"5621a693","getTokenBalances(address)":"764f3aa8","goldToken()":"94002b57","platform()":"4bde38c8","realEstateToken()":"d4e9f951","runKaiaRWADemo(address)":"1eec7c8e","silverToken()":"c34fe1dd"}}}}}