{"contracts/KaiaCompatibleRWATokens.sol":{"TokenizedRealEstate":{"abi":[{"inputs":[],"stateMutability":"nonpayable","type":"constructor"},{"inputs":[{"internalType":"address","name":"spender","type":"address"},{"internalType":"uint256","name":"allowance","type":"uint256"},{"internalType":"uint256","name":"needed","type":"uint256"}],"name":"ERC20InsufficientAllowance","type":"error"},{"inputs":[{"internalType":"address","name":"sender","type":"address"},{"internalType":"uint256","name":"balance","type":"uint256"},{"internalType":"uint256","name":"needed","type":"uint256"}],"name":"ERC20InsufficientBalance","type":"error"},{"inputs":[{"internalType":"address","name":"approver","type":"address"}],"name":"ERC20InvalidApprover","type":"error"},{"inputs":[{"internalType":"address","name":"receiver","type":"address"}],"name":"ERC20InvalidReceiver","type":"error"},{"inputs":[{"internalType":"address","name":"sender","type":"address"}],"name":"ERC20InvalidSender","type":"error"},{"inputs":[{"internalType":"address","name":"spender","type":"address"}],"name":"ERC20InvalidSpender","type":"error"},{"inputs":[{"internalType":"address","name":"owner","type":"address"}],"name":"OwnableInvalidOwner","type":"error"},{"inputs":[{"internalType":"address","name":"account","type":"address"}],"name":"OwnableUnauthorizedAccount","type":"error"},{"anonymous":false,"inputs":[{"indexed":true,"internalType":"address","name":"owner","type":"address"},{"indexed":true,"internalType":"address","name":"spender","type":"address"},{"indexed":false,"internalType":"uint256","name":"value","type":"uint256"}],"name":"Approval","type":"event"},{"anonymous":false,"inputs":[{"indexed":true,"internalType":"address","name":"user","type":"address"},{"indexed":false,"internalType":"uint256","name":"amount","type":"uint256"}],"name":"FaucetClaimed","type":"event"},{"anonymous":false,"inputs":[{"indexed":true,"internalType":"address","name":"previousOwner","type":"address"},{"indexed":true,"internalType":"address","name":"newOwner","type":"address"}],"name":"OwnershipTransferred","type":"event"},{"anonymous":false,"inputs":[{"indexed":true,"internalType":"address","name":"from","type":"address"},{"indexed":true,"internalType":"address","name":"to","type":"address"},{"indexed":false,"internalType":"uint256","name":"value","type":"uint256"}],"name":"Transfer","type":"event"},{"inputs":[],"name":"FAUCET_AMOUNT","outputs":[{"internalType":"uint256","name":"","type":"uint256"}],"stateMutability":"view","type":"function"},{"inputs":[],"name":"FAUCET_COOLDOWN","outputs":[{"internalType":"uint256","name":"","type":"uint256"}],"stateMutability":"view","type":"function"},{"inputs":[{"internalType":"address","name":"owner","type":"address"},{"internalType":"address","name":"spender","type":"address"}],"name":"allowance","outputs":[{"internalType":"uint256","name":"","type":"uint256"}],"stateMutability":"view","type":"function"},{"inputs":[{"internalType":"address","name":"spender","type":"address"},{"internalType":"uint256","name":"value","type":"uint256"}],"name":"approve","outputs":[{"internalType":"bool","name":"","type":"bool"}],"stateMutability":"nonpayable","type":"function"},{"inputs":[{"internalType":"address","name":"account","type":"address"}],"name":"balanceOf","outputs":[{"internalType":"uint256","name":"","type":"uint256"}],"stateMutability":"view","type":"function"},{"inputs":[{"internalType":"address","name":"user","type":"address"}],"name":"canClaimFaucet","outputs":[{"internalType":"bool","name":"","type":"bool"}],"stateMutability":"view","type":"function"},{"inputs":[],"name":"decimals","outputs":[{"internalType":"uint8","name":"","type":"uint8"}],"stateMutability":"view","type":"function"},{"inputs":[],"name":"faucet","outputs":[],"stateMutability":"nonpayable","type":"function"},{"inputs":[{"internalType":"address","name":"","type":"address"}],"name":"lastFaucetClaim","outputs":[{"internalType":"uint256","name":"","type":"uint256"}],"stateMutability":"view","type":"function"},{"inputs":[{"internalType":"address","name":"to","type":"address"},{"internalType":"uint256","name":"amount","type":"uint256"}],"name":"mint","outputs":[],"stateMutability":"nonpayable","type":"function"},{"inputs":[],"name":"name","outputs":[{"internalType":"string","name":"","type":"string"}],"stateMutability":"view","type":"function"},{"inputs":[],"name":"owner","outputs":[{"internalType":"address","name":"","type":"address"}],"stateMutability":"view","type":"function"},{"inputs":[],"name":"renounceOwnership","outputs":[],"stateMutability":"nonpayable","type":"function"},{"inputs":[],"name":"symbol","outputs":[{"internalType":"string","name":"","type":"string"}],"stateMutability":"view","type":"function"},{"inputs":[],"name":"totalSupply","outputs":[{"internalType":"uint256","name":"","type":"uint256"}],"stateMutability":"view","type":"function"},{"inputs":[{"internalType":"address","name":"to","type":"address"},{"internalType":"uint256","name":"value","type":"uint256"}],"name":"transfer","outputs":[{"internalType":"bool","name":"","type":"bool"}],"stateMutability":"nonpayable","type":"function"},{"inputs":[{"internalType":"address","name":"from","type":"address"},{"internalType":"address","name":"to","type":"address"},{"internalType":"uint256","name":"value","type":"uint256"}],"name":"transferFrom","outputs":[{"internalType":"bool","name":"","type":"bool"}],"stateMutability":"nonpayable","type":"function"},{"inputs":[{"internalType":"address","name":"newOwner","type":"address"}],"name":"transferOwnership","outputs":[],"stateMutability":"nonpayable","type":"function"}],"evm":{"bytecode":{"linkReferences":{},"object":"6080346200042d576040906001600160401b03818301818111838210176200032f578352601582526020907f546f6b656e697a6564205265616c20457374617465000000000000000000000082840152835192848401848110838211176200032f578552600591828552641d1491505360da1b8486015281518181116200032f576003908154906001948583811c9316801562000422575b888410146200040c578190601f93848111620003b8575b508890848311600114620003515760009262000345575b505060001982851b1c191690851b1782555b86519283116200032f5760049687548581811c9116801562000324575b888210146200030f57828111620002c6575b50869184116001146200025b579383949184926000956200024f575b50501b92600019911b1c19161783555b33156200023857805460ff9190336001600160a01b0382167f8be0079c531659141344cd1fd0a4f28419497f9722a3daafe3b4186f6b6457e0600080a36001600160a81b0319163360a084811b199190911691909117600960a11b17918290551c16604d81116200022357600a0a9161271092808402938404036200020e57600254908382018092116200020e57506000917fddf252ad1be2c89b69c2b068fc378daa952ba7f163c4a11628f55a4df523b3ef9160025533835282815284832084815401905584519384523393a351610b129081620004338239f35b601190634e487b7160e01b6000525260246000fd5b601183634e487b7160e01b6000525260246000fd5b8351631e4fbdf760e01b8152600081850152602490fd5b01519350388062000122565b9190601f198416928860005284886000209460005b8a89838310620002ae575050501062000293575b50505050811b01835562000132565b01519060f884600019921b161c191690553880808062000284565b86860151895590970196948501948893500162000270565b886000528760002083808701891c8201928a881062000305575b01881c019086905b828110620002f857505062000106565b60008155018690620002e8565b92508192620002e0565b602289634e487b7160e01b6000525260246000fd5b90607f1690620000f4565b634e487b7160e01b600052604160045260246000fd5b015190503880620000c5565b90879350601f19831691866000528a6000209260005b8c828210620003a1575050841162000388575b505050811b018255620000d7565b015160001983871b60f8161c191690553880806200037a565b8385015186558b9790950194938401930162000367565b9091508460005288600020848085018a1c8201928b861062000402575b91899186959493018b1c01915b828110620003f2575050620000ae565b60008155859450899101620003e2565b92508192620003d5565b634e487b7160e01b600052602260045260246000fd5b92607f169262000097565b600080fdfe6080604081815260048036101561001557600080fd5b600092833560e01c90816301d8a296146108fc5750806306fdde0314610821578063095ea7b31461077857806318160ddd1461075957806323b872dd14610666578063313ce5671461064157806340c10f191461059257806370a082311461055b578063715018a6146104fb57806376697640146104d85780637d1d5d19146104ba5780638a877205146104825780638da5cb5b1461045957806395d89b4114610339578063a9059cbb14610308578063dd62ed3e146102bf578063de5f72fd1461017b5763f2fde38b146100e957600080fd5b3461017757602036600319011261017757610102610958565b9061010b6109d2565b6001600160a01b03918216928315610161575050600554826bffffffffffffffffffffffff60a01b821617600555167f8be0079c531659141344cd1fd0a4f28419497f9722a3daafe3b4186f6b6457e08380a380f35b51631e4fbdf760e01b8152908101849052602490fd5b8280fd5b509190346102bb57816003193601126102bb57338252602060068152818320546201518081018091116102a857421061026d5733835260068152428284205533156102565760025491678ac7230489e800009283810180911161024357907f5d4f415c63cd8a5874d9d291cdd64cec37e5dc236d90d659c958d109d78074b392916002553385528482528085208481540190558051848152857fddf252ad1be2c89b69c2b068fc378daa952ba7f163c4a11628f55a4df523b3ef843393a3519283523392a280f35b634e487b7160e01b855260118652602485fd5b815163ec442f0560e01b8152808501849052602490fd5b8390606492519162461bcd60e51b8352820152601660248201527546617563657420636f6f6c646f776e2061637469766560501b6044820152fd5b634e487b7160e01b845260118552602484fd5b5080fd5b5050346102bb57806003193601126102bb57806020926102dd610958565b6102e5610973565b6001600160a01b0391821683526001865283832091168252845220549051908152f35b5050346102bb57806003193601126102bb57602090610332610328610958565b60243590336109fe565b5160018152f35b509190346102bb57816003193601126102bb57805190828454600181811c9080831692831561044f575b602093848410811461043c5783885290811561042057506001146103cb575b505050829003601f01601f191682019267ffffffffffffffff8411838510176103b857508291826103b4925282610989565b0390f35b634e487b7160e01b815260418552602490fd5b8787529192508591837f8a35acfbc15ff81a39ae7d344fd709f28e8600b4aa8c65c6b64bfe7fe36bd19b5b83851061040c5750505050830101388080610382565b8054888601830152930192849082016103f6565b60ff1916878501525050151560051b8401019050388080610382565b634e487b7160e01b895260228a52602489fd5b91607f1691610363565b5050346102bb57816003193601126102bb5760055490516001600160a01b039091168152602090f35b5050346102bb5760203660031901126102bb5760209181906001600160a01b036104aa610958565b1681526006845220549051908152f35b5050346102bb57816003193601126102bb5760209051620151808152f35b5050346102bb57816003193601126102bb5760209051678ac7230489e800008152f35b83346105585780600319360112610558576105146109d2565b600580546001600160a01b0319811690915581906001600160a01b03167f8be0079c531659141344cd1fd0a4f28419497f9722a3daafe3b4186f6b6457e08280a380f35b80fd5b5050346102bb5760203660031901126102bb5760209181906001600160a01b03610583610958565b16815280845220549051908152f35b5090346101775780600319360112610177576105ac610958565b90602435916105b96109d2565b6001600160a01b031692831561062c5760025490838201809211610619575084927fddf252ad1be2c89b69c2b068fc378daa952ba7f163c4a11628f55a4df523b3ef9260209260025585855284835280852082815401905551908152a380f35b634e487b7160e01b865260119052602485fd5b84602492519163ec442f0560e01b8352820152fd5b5050346102bb57816003193601126102bb5760209060ff60055460a01c169051908152f35b50823461055857606036600319011261055857610681610958565b610689610973565b916044359360018060a01b0383168083526001602052868320338452602052868320549160001983106106c5575b6020886103328989896109fe565b86831061072d5781156107165733156106ff57508252600160209081528683203384528152918690209085900390558290610332876106b7565b8751634a1406b160e11b8152908101849052602490fd5b875163e602df0560e01b8152908101849052602490fd5b8751637dc7a0d960e11b8152339181019182526020820193909352604081018790528291506060010390fd5b5050346102bb57816003193601126102bb576020906002549051908152f35b5034610177578160031936011261017757610791610958565b60243590331561080a576001600160a01b03169182156107f357508083602095338152600187528181208582528752205582519081527f8c5be1e5ebec7d5bd14f71427d1e84f3dd0314c0f7b2291e5b200ac8c7c3b925843392a35160018152f35b8351634a1406b160e11b8152908101859052602490fd5b835163e602df0560e01b8152808401869052602490fd5b509190346102bb57816003193601126102bb5780519082600354600181811c908083169283156108f2575b602093848410811461043c57838852908115610420575060011461089c57505050829003601f01601f191682019267ffffffffffffffff8411838510176103b857508291826103b4925282610989565b600387529192508591837fc2575a0e9e593c00f959f8c92f12db2869c3395a3b0502d05e2516446f71f85b5b8385106108de5750505050830101388080610382565b8054888601830152930192849082016108c8565b91607f169161084c565b90508383346102bb5760203660031901126102bb576001600160a01b03610921610958565b16825260066020528120549062015180820180921161094557602083834210158152f35b634e487b7160e01b815260118452602490fd5b600435906001600160a01b038216820361096e57565b600080fd5b602435906001600160a01b038216820361096e57565b6020808252825181830181905290939260005b8281106109be57505060409293506000838284010152601f8019910116010190565b81810186015184820160400152850161099c565b6005546001600160a01b031633036109e657565b60405163118cdaa760e01b8152336004820152602490fd5b916001600160a01b03808416928315610ac35716928315610aaa5760009083825281602052604082205490838210610a78575091604082827fddf252ad1be2c89b69c2b068fc378daa952ba7f163c4a11628f55a4df523b3ef958760209652828652038282205586815220818154019055604051908152a3565b60405163391434e360e21b81526001600160a01b03919091166004820152602481019190915260448101839052606490fd5b60405163ec442f0560e01b815260006004820152602490fd5b604051634b637e8f60e11b815260006004820152602490fdfea26469706673582212201ea4ebfba21686f1a9fd6623df2a4195110a077013fc82aa99072d707f6aaac264736f6c63430008140033","opcodes":"PUSH1 0x80 CALLVALUE PUSH3 0x42D JUMPI PUSH1 0x40 SWAP1 PUSH1 0x1 PUSH1 0x1 PUSH1 0x40 SHL SUB DUP2 DUP4 ADD DUP2 DUP2 GT DUP4 DUP3 LT OR PUSH3 0x32F JUMPI DUP4 MSTORE PUSH1 0x15 DUP3 MSTORE PUSH1 0x20 SWAP1 PUSH32 0x546F6B656E697A6564205265616C204573746174650000000000000000000000 DUP3 DUP5 ADD MSTORE DUP4 MLOAD SWAP3 DUP5 DUP5 ADD DUP5 DUP2 LT DUP4 DUP3 GT OR PUSH3 0x32F JUMPI DUP6 MSTORE PUSH1 0x5 SWAP2 DUP3 DUP6 MSTORE PUSH5 0x1D14915053 PUSH1 0xDA SHL DUP5 DUP7 ADD MSTORE DUP2 MLOAD DUP2 DUP2 GT PUSH3 0x32F JUMPI PUSH1 0x3 SWAP1 DUP2 SLOAD SWAP1 PUSH1 0x1 SWAP5 DUP6 DUP4 DUP2 SHR SWAP4 AND DUP1 ISZERO PUSH3 0x422 JUMPI JUMPDEST DUP9 DUP5 LT EQ PUSH3 0x40C JUMPI DUP2 SWAP1 PUSH1 0x1F SWAP4 DUP5 DUP2 GT PUSH3 0x3B8 JUMPI JUMPDEST POP DUP9 SWAP1 DUP5 DUP4 GT PUSH1 0x1 EQ PUSH3 0x351 JUMPI PUSH1 0x0 SWAP3 PUSH3 0x345 JUMPI JUMPDEST POP POP PUSH1 0x0 NOT DUP3 DUP6 SHL SHR NOT AND SWAP1 DUP6 SHL OR DUP3 SSTORE JUMPDEST DUP7 MLOAD SWAP3 DUP4 GT PUSH3 0x32F JUMPI PUSH1 0x4 SWAP7 DUP8 SLOAD DUP6 DUP2 DUP2 SHR SWAP2 AND DUP1 ISZERO PUSH3 0x324 JUMPI JUMPDEST DUP9 DUP3 LT EQ PUSH3 0x30F JUMPI DUP3 DUP2 GT PUSH3 0x2C6 JUMPI JUMPDEST POP DUP7 SWAP2 DUP5 GT PUSH1 0x1 EQ PUSH3 0x25B JUMPI SWAP4 DUP4 SWAP5 SWAP2 DUP5 SWAP3 PUSH1 0x0 SWAP6 PUSH3 0x24F JUMPI JUMPDEST POP POP SHL SWAP3 PUSH1 0x0 NOT SWAP2 SHL SHR NOT AND OR DUP4 SSTORE JUMPDEST CALLER ISZERO PUSH3 0x238 JUMPI DUP1 SLOAD PUSH1 0xFF SWAP2 SWAP1 CALLER PUSH1 0x1 PUSH1 0x1 PUSH1 0xA0 SHL SUB DUP3 AND PUSH32 0x8BE0079C531659141344CD1FD0A4F28419497F9722A3DAAFE3B4186F6B6457E0 PUSH1 0x0 DUP1 LOG3 PUSH1 0x1 PUSH1 0x1 PUSH1 0xA8 SHL SUB NOT AND CALLER PUSH1 0xA0 DUP5 DUP2 SHL NOT SWAP2 SWAP1 SWAP2 AND SWAP2 SWAP1 SWAP2 OR PUSH1 0x9 PUSH1 0xA1 SHL OR SWAP2 DUP3 SWAP1 SSTORE SHR AND PUSH1 0x4D DUP2 GT PUSH3 0x223 JUMPI PUSH1 0xA EXP SWAP2 PUSH2 0x2710 SWAP3 DUP1 DUP5 MUL SWAP4 DUP5 DIV SUB PUSH3 0x20E JUMPI PUSH1 0x2 SLOAD SWAP1 DUP4 DUP3 ADD DUP1 SWAP3 GT PUSH3 0x20E JUMPI POP PUSH1 0x0 SWAP2 PUSH32 0xDDF252AD1BE2C89B69C2B068FC378DAA952BA7F163C4A11628F55A4DF523B3EF SWAP2 PUSH1 0x2 SSTORE CALLER DUP4 MSTORE DUP3 DUP2 MSTORE DUP5 DUP4 KECCAK256 DUP5 DUP2 SLOAD ADD SWAP1 SSTORE DUP5 MLOAD SWAP4 DUP5 MSTORE CALLER SWAP4 LOG3 MLOAD PUSH2 0xB12 SWAP1 DUP2 PUSH3 0x433 DUP3 CODECOPY RETURN JUMPDEST PUSH1 0x11 SWAP1 PUSH4 0x4E487B71 PUSH1 0xE0 SHL PUSH1 0x0 MSTORE MSTORE PUSH1 0x24 PUSH1 0x0 REVERT JUMPDEST PUSH1 0x11 DUP4 PUSH4 0x4E487B71 PUSH1 0xE0 SHL PUSH1 0x0 MSTORE MSTORE PUSH1 0x24 PUSH1 0x0 REVERT JUMPDEST DUP4 MLOAD PUSH4 0x1E4FBDF7 PUSH1 0xE0 SHL DUP2 MSTORE PUSH1 0x0 DUP2 DUP6 ADD MSTORE PUSH1 0x24 SWAP1 REVERT JUMPDEST ADD MLOAD SWAP4 POP CODESIZE DUP1 PUSH3 0x122 JUMP JUMPDEST SWAP2 SWAP1 PUSH1 0x1F NOT DUP5 AND SWAP3 DUP9 PUSH1 0x0 MSTORE DUP5 DUP9 PUSH1 0x0 KECCAK256 SWAP5 PUSH1 0x0 JUMPDEST DUP11 DUP10 DUP4 DUP4 LT PUSH3 0x2AE JUMPI POP POP POP LT PUSH3 0x293 JUMPI JUMPDEST POP POP POP POP DUP2 SHL ADD DUP4 SSTORE PUSH3 0x132 JUMP JUMPDEST ADD MLOAD SWAP1 PUSH1 0xF8 DUP5 PUSH1 0x0 NOT SWAP3 SHL AND SHR NOT AND SWAP1 SSTORE CODESIZE DUP1 DUP1 DUP1 PUSH3 0x284 JUMP JUMPDEST DUP7 DUP7 ADD MLOAD DUP10 SSTORE SWAP1 SWAP8 ADD SWAP7 SWAP5 DUP6 ADD SWAP5 DUP9 SWAP4 POP ADD PUSH3 0x270 JUMP JUMPDEST DUP9 PUSH1 0x0 MSTORE DUP8 PUSH1 0x0 KECCAK256 DUP4 DUP1 DUP8 ADD DUP10 SHR DUP3 ADD SWAP3 DUP11 DUP9 LT PUSH3 0x305 JUMPI JUMPDEST ADD DUP9 SHR ADD SWAP1 DUP7 SWAP1 JUMPDEST DUP3 DUP2 LT PUSH3 0x2F8 JUMPI POP POP PUSH3 0x106 JUMP JUMPDEST PUSH1 0x0 DUP2 SSTORE ADD DUP7 SWAP1 PUSH3 0x2E8 JUMP JUMPDEST SWAP3 POP DUP2 SWAP3 PUSH3 0x2E0 JUMP JUMPDEST PUSH1 0x22 DUP10 PUSH4 0x4E487B71 PUSH1 0xE0 SHL PUSH1 0x0 MSTORE MSTORE PUSH1 0x24 PUSH1 0x0 REVERT JUMPDEST SWAP1 PUSH1 0x7F AND SWAP1 PUSH3 0xF4 JUMP JUMPDEST PUSH4 0x4E487B71 PUSH1 0xE0 SHL PUSH1 0x0 MSTORE PUSH1 0x41 PUSH1 0x4 MSTORE PUSH1 0x24 PUSH1 0x0 REVERT JUMPDEST ADD MLOAD SWAP1 POP CODESIZE DUP1 PUSH3 0xC5 JUMP JUMPDEST SWAP1 DUP8 SWAP4 POP PUSH1 0x1F NOT DUP4 AND SWAP2 DUP7 PUSH1 0x0 MSTORE DUP11 PUSH1 0x0 KECCAK256 SWAP3 PUSH1 0x0 JUMPDEST DUP13 DUP3 DUP3 LT PUSH3 0x3A1 JUMPI POP POP DUP5 GT PUSH3 0x388 JUMPI JUMPDEST POP POP POP DUP2 SHL ADD DUP3 SSTORE PUSH3 0xD7 JUMP JUMPDEST ADD MLOAD PUSH1 0x0 NOT DUP4 DUP8 SHL PUSH1 0xF8 AND SHR NOT AND SWAP1 SSTORE CODESIZE DUP1 DUP1 PUSH3 0x37A JUMP JUMPDEST DUP4 DUP6 ADD MLOAD DUP7 SSTORE DUP12 SWAP8 SWAP1 SWAP6 ADD SWAP5 SWAP4 DUP5 ADD SWAP4 ADD PUSH3 0x367 JUMP JUMPDEST SWAP1 SWAP2 POP DUP5 PUSH1 0x0 MSTORE DUP9 PUSH1 0x0 KECCAK256 DUP5 DUP1 DUP6 ADD DUP11 SHR DUP3 ADD SWAP3 DUP12 DUP7 LT PUSH3 0x402 JUMPI JUMPDEST SWAP2 DUP10 SWAP2 DUP7 SWAP6 SWAP5 SWAP4 ADD DUP12 SHR ADD SWAP2 JUMPDEST DUP3 DUP2 LT PUSH3 0x3F2 JUMPI POP POP PUSH3 0xAE JUMP JUMPDEST PUSH1 0x0 DUP2 SSTORE DUP6 SWAP5 POP DUP10 SWAP2 ADD PUSH3 0x3E2 JUMP JUMPDEST SWAP3 POP DUP2 SWAP3 PUSH3 0x3D5 JUMP JUMPDEST PUSH4 0x4E487B71 PUSH1 0xE0 SHL PUSH1 0x0 MSTORE PUSH1 0x22 PUSH1 0x4 MSTORE PUSH1 0x24 PUSH1 0x0 REVERT JUMPDEST SWAP3 PUSH1 0x7F AND SWAP3 PUSH3 0x97 JUMP JUMPDEST PUSH1 0x0 DUP1 REVERT INVALID PUSH1 0x80 PUSH1 0x40 DUP2 DUP2 MSTORE PUSH1 0x4 DUP1 CALLDATASIZE LT ISZERO PUSH2 0x15 JUMPI PUSH1 0x0 DUP1 REVERT JUMPDEST PUSH1 0x0 SWAP3 DUP4 CALLDATALOAD PUSH1 0xE0 SHR SWAP1 DUP2 PUSH4 0x1D8A296 EQ PUSH2 0x8FC JUMPI POP DUP1 PUSH4 0x6FDDE03 EQ PUSH2 0x821 JUMPI DUP1 PUSH4 0x95EA7B3 EQ PUSH2 0x778 JUMPI DUP1 PUSH4 0x18160DDD EQ PUSH2 0x759 JUMPI DUP1 PUSH4 0x23B872DD EQ PUSH2 0x666 JUMPI DUP1 PUSH4 0x313CE567 EQ PUSH2 0x641 JUMPI DUP1 PUSH4 0x40C10F19 EQ PUSH2 0x592 JUMPI DUP1 PUSH4 0x70A08231 EQ PUSH2 0x55B JUMPI DUP1 PUSH4 0x715018A6 EQ PUSH2 0x4FB JUMPI DUP1 PUSH4 0x76697640 EQ PUSH2 0x4D8 JUMPI DUP1 PUSH4 0x7D1D5D19 EQ PUSH2 0x4BA JUMPI DUP1 PUSH4 0x8A877205 EQ PUSH2 0x482 JUMPI DUP1 PUSH4 0x8DA5CB5B EQ PUSH2 0x459 JUMPI DUP1 PUSH4 0x95D89B41 EQ PUSH2 0x339 JUMPI DUP1 PUSH4 0xA9059CBB EQ PUSH2 0x308 JUMPI DUP1 PUSH4 0xDD62ED3E EQ PUSH2 0x2BF JUMPI DUP1 PUSH4 0xDE5F72FD EQ PUSH2 0x17B JUMPI PUSH4 0xF2FDE38B EQ PUSH2 0xE9 JUMPI PUSH1 0x0 DUP1 REVERT JUMPDEST CALLVALUE PUSH2 0x177 JUMPI PUSH1 0x20 CALLDATASIZE PUSH1 0x3 NOT ADD SLT PUSH2 0x177 JUMPI PUSH2 0x102 PUSH2 0x958 JUMP JUMPDEST SWAP1 PUSH2 0x10B PUSH2 0x9D2 JUMP JUMPDEST PUSH1 0x1 PUSH1 0x1 PUSH1 0xA0 SHL SUB SWAP2 DUP3 AND SWAP3 DUP4 ISZERO PUSH2 0x161 JUMPI POP POP PUSH1 0x5 SLOAD DUP3 PUSH12 0xFFFFFFFFFFFFFFFFFFFFFFFF PUSH1 0xA0 SHL DUP3 AND OR PUSH1 0x5 SSTORE AND PUSH32 0x8BE0079C531659141344CD1FD0A4F28419497F9722A3DAAFE3B4186F6B6457E0 DUP4 DUP1 LOG3 DUP1 RETURN JUMPDEST MLOAD PUSH4 0x1E4FBDF7 PUSH1 0xE0 SHL DUP2 MSTORE SWAP1 DUP2 ADD DUP5 SWAP1 MSTORE PUSH1 0x24 SWAP1 REVERT JUMPDEST DUP3 DUP1 REVERT JUMPDEST POP SWAP2 SWAP1 CALLVALUE PUSH2 0x2BB JUMPI DUP2 PUSH1 0x3 NOT CALLDATASIZE ADD SLT PUSH2 0x2BB JUMPI CALLER DUP3 MSTORE PUSH1 0x20 PUSH1 0x6 DUP2 MSTORE DUP2 DUP4 KECCAK256 SLOAD PUSH3 0x15180 DUP2 ADD DUP1 SWAP2 GT PUSH2 0x2A8 JUMPI TIMESTAMP LT PUSH2 0x26D JUMPI CALLER DUP4 MSTORE PUSH1 0x6 DUP2 MSTORE TIMESTAMP DUP3 DUP5 KECCAK256 SSTORE CALLER ISZERO PUSH2 0x256 JUMPI PUSH1 0x2 SLOAD SWAP2 PUSH8 0x8AC7230489E80000 SWAP3 DUP4 DUP2 ADD DUP1 SWAP2 GT PUSH2 0x243 JUMPI SWAP1 PUSH32 0x5D4F415C63CD8A5874D9D291CDD64CEC37E5DC236D90D659C958D109D78074B3 SWAP3 SWAP2 PUSH1 0x2 SSTORE CALLER DUP6 MSTORE DUP5 DUP3 MSTORE DUP1 DUP6 KECCAK256 DUP5 DUP2 SLOAD ADD SWAP1 SSTORE DUP1 MLOAD DUP5 DUP2 MSTORE DUP6 PUSH32 0xDDF252AD1BE2C89B69C2B068FC378DAA952BA7F163C4A11628F55A4DF523B3EF DUP5 CALLER SWAP4 LOG3 MLOAD SWAP3 DUP4 MSTORE CALLER SWAP3 LOG2 DUP1 RETURN JUMPDEST PUSH4 0x4E487B71 PUSH1 0xE0 SHL DUP6 MSTORE PUSH1 0x11 DUP7 MSTORE PUSH1 0x24 DUP6 REVERT JUMPDEST DUP2 MLOAD PUSH4 0xEC442F05 PUSH1 0xE0 SHL DUP2 MSTORE DUP1 DUP6 ADD DUP5 SWAP1 MSTORE PUSH1 0x24 SWAP1 REVERT JUMPDEST DUP4 SWAP1 PUSH1 0x64 SWAP3 MLOAD SWAP2 PUSH3 0x461BCD PUSH1 0xE5 SHL DUP4 MSTORE DUP3 ADD MSTORE PUSH1 0x16 PUSH1 0x24 DUP3 ADD MSTORE PUSH22 0x46617563657420636F6F6C646F776E20616374697665 PUSH1 0x50 SHL PUSH1 0x44 DUP3 ADD MSTORE REVERT JUMPDEST PUSH4 0x4E487B71 PUSH1 0xE0 SHL DUP5 MSTORE PUSH1 0x11 DUP6 MSTORE PUSH1 0x24 DUP5 REVERT JUMPDEST POP DUP1 REVERT JUMPDEST POP POP CALLVALUE PUSH2 0x2BB JUMPI DUP1 PUSH1 0x3 NOT CALLDATASIZE ADD SLT PUSH2 0x2BB JUMPI DUP1 PUSH1 0x20 SWAP3 PUSH2 0x2DD PUSH2 0x958 JUMP JUMPDEST PUSH2 0x2E5 PUSH2 0x973 JUMP JUMPDEST PUSH1 0x1 PUSH1 0x1 PUSH1 0xA0 SHL SUB SWAP2 DUP3 AND DUP4 MSTORE PUSH1 0x1 DUP7 MSTORE DUP4 DUP4 KECCAK256 SWAP2 AND DUP3 MSTORE DUP5 MSTORE KECCAK256 SLOAD SWAP1 MLOAD SWAP1 DUP2 MSTORE RETURN JUMPDEST POP POP CALLVALUE PUSH2 0x2BB JUMPI DUP1 PUSH1 0x3 NOT CALLDATASIZE ADD SLT PUSH2 0x2BB JUMPI PUSH1 0x20 SWAP1 PUSH2 0x332 PUSH2 0x328 PUSH2 0x958 JUMP JUMPDEST PUSH1 0x24 CALLDATALOAD SWAP1 CALLER PUSH2 0x9FE JUMP JUMPDEST MLOAD PUSH1 0x1 DUP2 MSTORE RETURN JUMPDEST POP SWAP2 SWAP1 CALLVALUE PUSH2 0x2BB JUMPI DUP2 PUSH1 0x3 NOT CALLDATASIZE ADD SLT PUSH2 0x2BB JUMPI DUP1 MLOAD SWAP1 DUP3 DUP5 SLOAD PUSH1 0x1 DUP2 DUP2 SHR SWAP1 DUP1 DUP4 AND SWAP3 DUP4 ISZERO PUSH2 0x44F JUMPI JUMPDEST PUSH1 0x20 SWAP4 DUP5 DUP5 LT DUP2 EQ PUSH2 0x43C JUMPI DUP4 DUP9 MSTORE SWAP1 DUP2 ISZERO PUSH2 0x420 JUMPI POP PUSH1 0x1 EQ PUSH2 0x3CB JUMPI JUMPDEST POP POP POP DUP3 SWAP1 SUB PUSH1 0x1F ADD PUSH1 0x1F NOT AND DUP3 ADD SWAP3 PUSH8 0xFFFFFFFFFFFFFFFF DUP5 GT DUP4 DUP6 LT OR PUSH2 0x3B8 JUMPI POP DUP3 SWAP2 DUP3 PUSH2 0x3B4 SWAP3 MSTORE DUP3 PUSH2 0x989 JUMP JUMPDEST SUB SWAP1 RETURN JUMPDEST PUSH4 0x4E487B71 PUSH1 0xE0 SHL DUP2 MSTORE PUSH1 0x41 DUP6 MSTORE PUSH1 0x24 SWAP1 REVERT JUMPDEST DUP8 DUP8 MSTORE SWAP2 SWAP3 POP DUP6 SWAP2 DUP4 PUSH32 0x8A35ACFBC15FF81A39AE7D344FD709F28E8600B4AA8C65C6B64BFE7FE36BD19B JUMPDEST DUP4 DUP6 LT PUSH2 0x40C JUMPI POP POP POP POP DUP4 ADD ADD CODESIZE DUP1 DUP1 PUSH2 0x382 JUMP JUMPDEST DUP1 SLOAD DUP9 DUP7 ADD DUP4 ADD MSTORE SWAP4 ADD SWAP3 DUP5 SWAP1 DUP3 ADD PUSH2 0x3F6 JUMP JUMPDEST PUSH1 0xFF NOT AND DUP8 DUP6 ADD MSTORE POP POP ISZERO ISZERO PUSH1 0x5 SHL DUP5 ADD ADD SWAP1 POP CODESIZE DUP1 DUP1 PUSH2 0x382 JUMP JUMPDEST PUSH4 0x4E487B71 PUSH1 0xE0 SHL DUP10 MSTORE PUSH1 0x22 DUP11 MSTORE PUSH1 0x24 DUP10 REVERT JUMPDEST SWAP2 PUSH1 0x7F AND SWAP2 PUSH2 0x363 JUMP JUMPDEST POP POP CALLVALUE PUSH2 0x2BB JUMPI DUP2 PUSH1 0x3 NOT CALLDATASIZE ADD SLT PUSH2 0x2BB JUMPI PUSH1 0x5 SLOAD SWAP1 MLOAD PUSH1 0x1 PUSH1 0x1 PUSH1 0xA0 SHL SUB SWAP1 SWAP2 AND DUP2 MSTORE PUSH1 0x20 SWAP1 RETURN JUMPDEST POP POP CALLVALUE PUSH2 0x2BB JUMPI PUSH1 0x20 CALLDATASIZE PUSH1 0x3 NOT ADD SLT PUSH2 0x2BB JUMPI PUSH1 0x20 SWAP2 DUP2 SWAP1 PUSH1 0x1 PUSH1 0x1 PUSH1 0xA0 SHL SUB PUSH2 0x4AA PUSH2 0x958 JUMP JUMPDEST AND DUP2 MSTORE PUSH1 0x6 DUP5 MSTORE KECCAK256 SLOAD SWAP1 MLOAD SWAP1 DUP2 MSTORE RETURN JUMPDEST POP POP CALLVALUE PUSH2 0x2BB JUMPI DUP2 PUSH1 0x3 NOT CALLDATASIZE ADD SLT PUSH2 0x2BB JUMPI PUSH1 0x20 SWAP1 MLOAD PUSH3 0x15180 DUP2 MSTORE RETURN JUMPDEST POP POP CALLVALUE PUSH2 0x2BB JUMPI DUP2 PUSH1 0x3 NOT CALLDATASIZE ADD SLT PUSH2 0x2BB JUMPI PUSH1 0x20 SWAP1 MLOAD PUSH8 0x8AC7230489E80000 DUP2 MSTORE RETURN JUMPDEST DUP4 CALLVALUE PUSH2 0x558 JUMPI DUP1 PUSH1 0x3 NOT CALLDATASIZE ADD SLT PUSH2 0x558 JUMPI PUSH2 0x514 PUSH2 0x9D2 JUMP JUMPDEST PUSH1 0x5 DUP1 SLOAD PUSH1 0x1 PUSH1 0x1 PUSH1 0xA0 SHL SUB NOT DUP2 AND SWAP1 SWAP2 SSTORE DUP2 SWAP1 PUSH1 0x1 PUSH1 0x1 PUSH1 0xA0 SHL SUB AND PUSH32 0x8BE0079C531659141344CD1FD0A4F28419497F9722A3DAAFE3B4186F6B6457E0 DUP3 DUP1 LOG3 DUP1 RETURN JUMPDEST DUP1 REVERT JUMPDEST POP POP CALLVALUE PUSH2 0x2BB JUMPI PUSH1 0x20 CALLDATASIZE PUSH1 0x3 NOT ADD SLT PUSH2 0x2BB JUMPI PUSH1 0x20 SWAP2 DUP2 SWAP1 PUSH1 0x1 PUSH1 0x1 PUSH1 0xA0 SHL SUB PUSH2 0x583 PUSH2 0x958 JUMP JUMPDEST AND DUP2 MSTORE DUP1 DUP5 MSTORE KECCAK256 SLOAD SWAP1 MLOAD SWAP1 DUP2 MSTORE RETURN JUMPDEST POP SWAP1 CALLVALUE PUSH2 0x177 JUMPI DUP1 PUSH1 0x3 NOT CALLDATASIZE ADD SLT PUSH2 0x177 JUMPI PUSH2 0x5AC PUSH2 0x958 JUMP JUMPDEST SWAP1 PUSH1 0x24 CALLDATALOAD SWAP2 PUSH2 0x5B9 PUSH2 0x9D2 JUMP JUMPDEST PUSH1 0x1 PUSH1 0x1 PUSH1 0xA0 SHL SUB AND SWAP3 DUP4 ISZERO PUSH2 0x62C JUMPI PUSH1 0x2 SLOAD SWAP1 DUP4 DUP3 ADD DUP1 SWAP3 GT PUSH2 0x619 JUMPI POP DUP5 SWAP3 PUSH32 0xDDF252AD1BE2C89B69C2B068FC378DAA952BA7F163C4A11628F55A4DF523B3EF SWAP3 PUSH1 0x20 SWAP3 PUSH1 0x2 SSTORE DUP6 DUP6 MSTORE DUP5 DUP4 MSTORE DUP1 DUP6 KECCAK256 DUP3 DUP2 SLOAD ADD SWAP1 SSTORE MLOAD SWAP1 DUP2 MSTORE LOG3 DUP1 RETURN JUMPDEST PUSH4 0x4E487B71 PUSH1 0xE0 SHL DUP7 MSTORE PUSH1 0x11 SWAP1 MSTORE PUSH1 0x24 DUP6 REVERT JUMPDEST DUP5 PUSH1 0x24 SWAP3 MLOAD SWAP2 PUSH4 0xEC442F05 PUSH1 0xE0 SHL DUP4 MSTORE DUP3 ADD MSTORE REVERT JUMPDEST POP POP CALLVALUE PUSH2 0x2BB JUMPI DUP2 PUSH1 0x3 NOT CALLDATASIZE ADD SLT PUSH2 0x2BB JUMPI PUSH1 0x20 SWAP1 PUSH1 0xFF PUSH1 0x5 SLOAD PUSH1 0xA0 SHR AND SWAP1 MLOAD SWAP1 DUP2 MSTORE RETURN JUMPDEST POP DUP3 CALLVALUE PUSH2 0x558 JUMPI PUSH1 0x60 CALLDATASIZE PUSH1 0x3 NOT ADD SLT PUSH2 0x558 JUMPI PUSH2 0x681 PUSH2 0x958 JUMP JUMPDEST PUSH2 0x689 PUSH2 0x973 JUMP JUMPDEST SWAP2 PUSH1 0x44 CALLDATALOAD SWAP4 PUSH1 0x1 DUP1 PUSH1 0xA0 SHL SUB DUP4 AND DUP1 DUP4 MSTORE PUSH1 0x1 PUSH1 0x20 MSTORE DUP7 DUP4 KECCAK256 CALLER DUP5 MSTORE PUSH1 0x20 MSTORE DUP7 DUP4 KECCAK256 SLOAD SWAP2 PUSH1 0x0 NOT DUP4 LT PUSH2 0x6C5 JUMPI JUMPDEST PUSH1 0x20 DUP9 PUSH2 0x332 DUP10 DUP10 DUP10 PUSH2 0x9FE JUMP JUMPDEST DUP7 DUP4 LT PUSH2 0x72D JUMPI DUP2 ISZERO PUSH2 0x716 JUMPI CALLER ISZERO PUSH2 0x6FF JUMPI POP DUP3 MSTORE PUSH1 0x1 PUSH1 0x20 SWAP1 DUP2 MSTORE DUP7 DUP4 KECCAK256 CALLER DUP5 MSTORE DUP2 MSTORE SWAP2 DUP7 SWAP1 KECCAK256 SWAP1 DUP6 SWAP1 SUB SWAP1 SSTORE DUP3 SWAP1 PUSH2 0x332 DUP8 PUSH2 0x6B7 JUMP JUMPDEST DUP8 MLOAD PUSH4 0x4A1406B1 PUSH1 0xE1 SHL DUP2 MSTORE SWAP1 DUP2 ADD DUP5 SWAP1 MSTORE PUSH1 0x24 SWAP1 REVERT JUMPDEST DUP8 MLOAD PUSH4 0xE602DF05 PUSH1 0xE0 SHL DUP2 MSTORE SWAP1 DUP2 ADD DUP5 SWAP1 MSTORE PUSH1 0x24 SWAP1 REVERT JUMPDEST DUP8 MLOAD PUSH4 0x7DC7A0D9 PUSH1 0xE1 SHL DUP2 MSTORE CALLER SWAP2 DUP2 ADD SWAP2 DUP3 MSTORE PUSH1 0x20 DUP3 ADD SWAP4 SWAP1 SWAP4 MSTORE PUSH1 0x40 DUP2 ADD DUP8 SWAP1 MSTORE DUP3 SWAP2 POP PUSH1 0x60 ADD SUB SWAP1 REVERT JUMPDEST POP POP CALLVALUE PUSH2 0x2BB JUMPI DUP2 PUSH1 0x3 NOT CALLDATASIZE ADD SLT PUSH2 0x2BB JUMPI PUSH1 0x20 SWAP1 PUSH1 0x2 SLOAD SWAP1 MLOAD SWAP1 DUP2 MSTORE RETURN JUMPDEST POP CALLVALUE PUSH2 0x177 JUMPI DUP2 PUSH1 0x3 NOT CALLDATASIZE ADD SLT PUSH2 0x177 JUMPI PUSH2 0x791 PUSH2 0x958 JUMP JUMPDEST PUSH1 0x24 CALLDATALOAD SWAP1 CALLER ISZERO PUSH2 0x80A JUMPI PUSH1 0x1 PUSH1 0x1 PUSH1 0xA0 SHL SUB AND SWAP2 DUP3 ISZERO PUSH2 0x7F3 JUMPI POP DUP1 DUP4 PUSH1 0x20 SWAP6 CALLER DUP2 MSTORE PUSH1 0x1 DUP8 MSTORE DUP2 DUP2 KECCAK256 DUP6 DUP3 MSTORE DUP8 MSTORE KECCAK256 SSTORE DUP3 MLOAD SWAP1 DUP2 MSTORE PUSH32 0x8C5BE1E5EBEC7D5BD14F71427D1E84F3DD0314C0F7B2291E5B200AC8C7C3B925 DUP5 CALLER SWAP3 LOG3 MLOAD PUSH1 0x1 DUP2 MSTORE RETURN JUMPDEST DUP4 MLOAD PUSH4 0x4A1406B1 PUSH1 0xE1 SHL DUP2 MSTORE SWAP1 DUP2 ADD DUP6 SWAP1 MSTORE PUSH1 0x24 SWAP1 REVERT JUMPDEST DUP4 MLOAD PUSH4 0xE602DF05 PUSH1 0xE0 SHL DUP2 MSTORE DUP1 DUP5 ADD DUP7 SWAP1 MSTORE PUSH1 0x24 SWAP1 REVERT JUMPDEST POP SWAP2 SWAP1 CALLVALUE PUSH2 0x2BB JUMPI DUP2 PUSH1 0x3 NOT CALLDATASIZE ADD SLT PUSH2 0x2BB JUMPI DUP1 MLOAD SWAP1 DUP3 PUSH1 0x3 SLOAD PUSH1 0x1 DUP2 DUP2 SHR SWAP1 DUP1 DUP4 AND SWAP3 DUP4 ISZERO PUSH2 0x8F2 JUMPI JUMPDEST PUSH1 0x20 SWAP4 DUP5 DUP5 LT DUP2 EQ PUSH2 0x43C JUMPI DUP4 DUP9 MSTORE SWAP1 DUP2 ISZERO PUSH2 0x420 JUMPI POP PUSH1 0x1 EQ PUSH2 0x89C JUMPI POP POP POP DUP3 SWAP1 SUB PUSH1 0x1F ADD PUSH1 0x1F NOT AND DUP3 ADD SWAP3 PUSH8 0xFFFFFFFFFFFFFFFF DUP5 GT DUP4 DUP6 LT OR PUSH2 0x3B8 JUMPI POP DUP3 SWAP2 DUP3 PUSH2 0x3B4 SWAP3 MSTORE DUP3 PUSH2 0x989 JUMP JUMPDEST PUSH1 0x3 DUP8 MSTORE SWAP2 SWAP3 POP DUP6 SWAP2 DUP4 PUSH32 0xC2575A0E9E593C00F959F8C92F12DB2869C3395A3B0502D05E2516446F71F85B JUMPDEST DUP4 DUP6 LT PUSH2 0x8DE JUMPI POP POP POP POP DUP4 ADD ADD CODESIZE DUP1 DUP1 PUSH2 0x382 JUMP JUMPDEST DUP1 SLOAD DUP9 DUP7 ADD DUP4 ADD MSTORE SWAP4 ADD SWAP3 DUP5 SWAP1 DUP3 ADD PUSH2 0x8C8 JUMP JUMPDEST SWAP2 PUSH1 0x7F AND SWAP2 PUSH2 0x84C JUMP JUMPDEST SWAP1 POP DUP4 DUP4 CALLVALUE PUSH2 0x2BB JUMPI PUSH1 0x20 CALLDATASIZE PUSH1 0x3 NOT ADD SLT PUSH2 0x2BB JUMPI PUSH1 0x1 PUSH1 0x1 PUSH1 0xA0 SHL SUB PUSH2 0x921 PUSH2 0x958 JUMP JUMPDEST AND DUP3 MSTORE PUSH1 0x6 PUSH1 0x20 MSTORE DUP2 KECCAK256 SLOAD SWAP1 PUSH3 0x15180 DUP3 ADD DUP1 SWAP3 GT PUSH2 0x945 JUMPI PUSH1 0x20 DUP4 DUP4 TIMESTAMP LT ISZERO DUP2 MSTORE RETURN JUMPDEST PUSH4 0x4E487B71 PUSH1 0xE0 SHL DUP2 MSTORE PUSH1 0x11 DUP5 MSTORE PUSH1 0x24 SWAP1 REVERT JUMPDEST PUSH1 0x4 CALLDATALOAD SWAP1 PUSH1 0x1 PUSH1 0x1 PUSH1 0xA0 SHL SUB DUP3 AND DUP3 SUB PUSH2 0x96E JUMPI JUMP JUMPDEST PUSH1 0x0 DUP1 REVERT JUMPDEST PUSH1 0x24 CALLDATALOAD SWAP1 PUSH1 0x1 PUSH1 0x1 PUSH1 0xA0 SHL SUB DUP3 AND DUP3 SUB PUSH2 0x96E JUMPI JUMP JUMPDEST PUSH1 0x20 DUP1 DUP3 MSTORE DUP3 MLOAD DUP2 DUP4 ADD DUP2 SWAP1 MSTORE SWAP1 SWAP4 SWAP3 PUSH1 0x0 JUMPDEST DUP3 DUP2 LT PUSH2 0x9BE JUMPI POP POP PUSH1 0x40 SWAP3 SWAP4 POP PUSH1 0x0 DUP4 DUP3 DUP5 ADD ADD MSTORE PUSH1 0x1F DUP1 NOT SWAP2 ADD AND ADD ADD SWAP1 JUMP JUMPDEST DUP2 DUP2 ADD DUP7 ADD MLOAD DUP5 DUP3 ADD PUSH1 0x40 ADD MSTORE DUP6 ADD PUSH2 0x99C JUMP JUMPDEST PUSH1 0x5 SLOAD PUSH1 0x1 PUSH1 0x1 PUSH1 0xA0 SHL SUB AND CALLER SUB PUSH2 0x9E6 JUMPI JUMP JUMPDEST PUSH1 0x40 MLOAD PUSH4 0x118CDAA7 PUSH1 0xE0 SHL DUP2 MSTORE CALLER PUSH1 0x4 DUP3 ADD MSTORE PUSH1 0x24 SWAP1 REVERT JUMPDEST SWAP2 PUSH1 0x1 PUSH1 0x1 PUSH1 0xA0 SHL SUB DUP1 DUP5 AND SWAP3 DUP4 ISZERO PUSH2 0xAC3 JUMPI AND SWAP3 DUP4 ISZERO PUSH2 0xAAA JUMPI PUSH1 0x0 SWAP1 DUP4 DUP3 MSTORE DUP2 PUSH1 0x20 MSTORE PUSH1 0x40 DUP3 KECCAK256 SLOAD SWAP1 DUP4 DUP3 LT PUSH2 0xA78 JUMPI POP SWAP2 PUSH1 0x40 DUP3 DUP3 PUSH32 0xDDF252AD1BE2C89B69C2B068FC378DAA952BA7F163C4A11628F55A4DF523B3EF SWAP6 DUP8 PUSH1 0x20 SWAP7 MSTORE DUP3 DUP7 MSTORE SUB DUP3 DUP3 KECCAK256 SSTORE DUP7 DUP2 MSTORE KECCAK256 DUP2 DUP2 SLOAD ADD SWAP1 SSTORE PUSH1 0x40 MLOAD SWAP1 DUP2 MSTORE LOG3 JUMP JUMPDEST PUSH1 0x40 MLOAD PUSH4 0x391434E3 PUSH1 0xE2 SHL DUP2 MSTORE PUSH1 0x1 PUSH1 0x1 PUSH1 0xA0 SHL SUB SWAP2 SWAP1 SWAP2 AND PUSH1 0x4 DUP3 ADD MSTORE PUSH1 0x24 DUP2 ADD SWAP2 SWAP1 SWAP2 MSTORE PUSH1 0x44 DUP2 ADD DUP4 SWAP1 MSTORE PUSH1 0x64 SWAP1 REVERT JUMPDEST PUSH1 0x40 MLOAD PUSH4 0xEC442F05 PUSH1 0xE0 SHL DUP2 MSTORE PUSH1 0x0 PUSH1 0x4 DUP3 ADD MSTORE PUSH1 0x24 SWAP1 REVERT JUMPDEST PUSH1 0x40 MLOAD PUSH4 0x4B637E8F PUSH1 0xE1 SHL DUP2 MSTORE PUSH1 0x0 PUSH1 0x4 DUP3 ADD MSTORE PUSH1 0x24 SWAP1 REVERT INVALID LOG2 PUSH5 0x6970667358 0x22 SLT KECCAK256 0x1E LOG4 0xEB 0xFB LOG2 AND DUP7 CALL 0xA9 REVERT PUSH7 0x23DF2A4195110A SMOD PUSH17 0x13FC82AA99072D707F6AAAC264736F6C63 NUMBER STOP ADDMOD EQ STOP CALLER "},"methodIdentifiers":{"FAUCET_AMOUNT()":"76697640","FAUCET_COOLDOWN()":"7d1d5d19","allowance(address,address)":"dd62ed3e","approve(address,uint256)":"095ea7b3","balanceOf(address)":"70a08231","canClaimFaucet(address)":"01d8a296","decimals()":"313ce567","faucet()":"de5f72fd","lastFaucetClaim(address)":"8a877205","mint(address,uint256)":"40c10f19","name()":"06fdde03","owner()":"8da5cb5b","renounceOwnership()":"715018a6","symbol()":"95d89b41","totalSupply()":"18160ddd","transfer(address,uint256)":"a9059cbb","transferFrom(address,address,uint256)":"23b872dd","transferOwnership(address)":"f2fde38b"}}}}}