{"contracts/RWALendingPlatformWithBondingCurves.sol":{"RWALendingPlatformWithBondingCurves":{"abi":[{"inputs":[{"internalType":"address","name":"_oraklRouter","type":"address"},{"internalType":"address","name":"_feeRecipient","type":"address"}],"stateMutability":"nonpayable","type":"constructor"},{"inputs":[],"name":"AssetNotSupported","type":"error"},{"inputs":[],"name":"GracePeriodActive","type":"error"},{"inputs":[],"name":"HealthyPosition","type":"error"},{"inputs":[],"name":"InsufficientBalance","type":"error"},{"inputs":[],"name":"InsufficientCollateral","type":"error"},{"inputs":[],"name":"InvalidCurveParameters","type":"error"},{"inputs":[{"internalType":"address","name":"owner","type":"address"}],"name":"OwnableInvalidOwner","type":"error"},{"inputs":[{"internalType":"address","name":"account","type":"address"}],"name":"OwnableUnauthorizedAccount","type":"error"},{"inputs":[],"name":"PriceFeedUnavailable","type":"error"},{"inputs":[],"name":"ReentrancyGuardReentrantCall","type":"error"},{"inputs":[{"internalType":"address","name":"token","type":"address"}],"name":"SafeERC20FailedOperation","type":"error"},{"inputs":[],"name":"ZeroAmount","type":"error"},{"anonymous":false,"inputs":[{"indexed":true,"internalType":"address","name":"asset","type":"address"},{"components":[{"internalType":"uint256","name":"baseRate","type":"uint256"},{"internalType":"uint256","name":"optimalUtilization","type":"uint256"},{"internalType":"uint256","name":"curveExponent","type":"uint256"},{"internalType":"uint256","name":"maxRate","type":"uint256"},{"internalType":"uint256","name":"minPenalty","type":"uint256"},{"internalType":"uint256","name":"maxPenalty","type":"uint256"},{"internalType":"uint256","name":"penaltyCurveSlope","type":"uint256"},{"internalType":"uint256","name":"baseHaircut","type":"uint256"},{"internalType":"uint256","name":"volatilityFactor","type":"uint256"},{"internalType":"uint256","name":"maxHaircut","type":"uint256"},{"internalType":"uint256","name":"ltvDecayRate","type":"uint256"},{"internalType":"uint256","name":"maxDecayPeriod","type":"uint256"}],"indexed":false,"internalType":"struct RWALendingPlatformWithBondingCurves.BondingCurveConfig","name":"curveConfig","type":"tuple"}],"name":"AssetAdded","type":"event"},{"anonymous":false,"inputs":[{"indexed":true,"internalType":"address","name":"asset","type":"address"},{"indexed":false,"internalType":"string","name":"curveType","type":"string"},{"indexed":false,"internalType":"uint256","name":"newValue","type":"uint256"}],"name":"BondingCurveUpdated","type":"event"},{"anonymous":false,"inputs":[{"indexed":true,"internalType":"address","name":"user","type":"address"},{"indexed":true,"internalType":"address","name":"asset","type":"address"},{"indexed":false,"internalType":"uint256","name":"amount","type":"uint256"},{"indexed":false,"internalType":"uint256","name":"effectiveLTV","type":"uint256"}],"name":"Borrowed","type":"event"},{"anonymous":false,"inputs":[{"indexed":true,"internalType":"address","name":"asset","type":"address"},{"indexed":false,"internalType":"uint256","name":"volatility","type":"uint256"},{"indexed":false,"internalType":"uint256","name":"haircut","type":"uint256"}],"name":"CollateralHaircutApplied","type":"event"},{"anonymous":false,"inputs":[{"indexed":true,"internalType":"address","name":"user","type":"address"},{"indexed":true,"internalType":"address","name":"asset","type":"address"},{"indexed":false,"internalType":"uint256","name":"amount","type":"uint256"},{"indexed":false,"internalType":"uint256","name":"newBalance","type":"uint256"}],"name":"Deposited","type":"event"},{"anonymous":false,"inputs":[{"indexed":true,"internalType":"address","name":"asset","type":"address"},{"indexed":false,"internalType":"uint256","name":"utilization","type":"uint256"},{"indexed":false,"internalType":"uint256","name":"newRate","type":"uint256"},{"indexed":false,"internalType":"uint256","name":"curveValue","type":"uint256"}],"name":"DynamicRateCalculated","type":"event"},{"anonymous":false,"inputs":[{"indexed":true,"internalType":"address","name":"user","type":"address"},{"indexed":true,"internalType":"address","name":"asset","type":"address"},{"indexed":false,"internalType":"uint256","name":"amount","type":"uint256"}],"name":"InterestClaimed","type":"event"},{"anonymous":false,"inputs":[{"indexed":true,"internalType":"address","name":"user","type":"address"},{"indexed":true,"internalType":"address","name":"asset","type":"address"},{"indexed":false,"internalType":"uint256","name":"newLTV","type":"uint256"},{"indexed":false,"internalType":"uint256","name":"timePassed","type":"uint256"}],"name":"LTVDecayApplied","type":"event"},{"anonymous":false,"inputs":[{"indexed":true,"internalType":"address","name":"borrower","type":"address"},{"indexed":true,"internalType":"address","name":"liquidator","type":"address"},{"indexed":true,"internalType":"address","name":"collateralAsset","type":"address"},{"indexed":false,"internalType":"uint256","name":"collateralSeized","type":"uint256"},{"indexed":false,"internalType":"uint256","name":"debtRepaid","type":"uint256"},{"indexed":false,"internalType":"uint256","name":"dynamicPenalty","type":"uint256"}],"name":"Liquidated","type":"event"},{"anonymous":false,"inputs":[{"indexed":true,"internalType":"address","name":"borrower","type":"address"},{"indexed":false,"internalType":"uint256","name":"healthFactor","type":"uint256"},{"indexed":false,"internalType":"uint256","name":"penalty","type":"uint256"}],"name":"LiquidationPenaltyCalculated","type":"event"},{"anonymous":false,"inputs":[{"indexed":true,"internalType":"address","name":"previousOwner","type":"address"},{"indexed":true,"internalType":"address","name":"newOwner","type":"address"}],"name":"OwnershipTransferred","type":"event"},{"anonymous":false,"inputs":[{"indexed":true,"internalType":"address","name":"user","type":"address"},{"indexed":true,"internalType":"address","name":"asset","type":"address"},{"indexed":false,"internalType":"uint256","name":"amount","type":"uint256"},{"indexed":false,"internalType":"uint256","name":"remainingDebt","type":"uint256"}],"name":"Repaid","type":"event"},{"anonymous":false,"inputs":[{"indexed":true,"internalType":"address","name":"user","type":"address"},{"indexed":true,"internalType":"address","name":"asset","type":"address"},{"indexed":false,"internalType":"uint256","name":"amount","type":"uint256"},{"indexed":false,"internalType":"uint256","name":"newBalance","type":"uint256"}],"name":"Withdrawn","type":"event"},{"inputs":[],"name":"BASIS_POINTS","outputs":[{"internalType":"uint256","name":"","type":"uint256"}],"stateMutability":"view","type":"function"},{"inputs":[],"name":"PRECISION","outputs":[{"internalType":"uint256","name":"","type":"uint256"}],"stateMutability":"view","type":"function"},{"inputs":[],"name":"SECONDS_PER_YEAR","outputs":[{"internalType":"uint256","name":"","type":"uint256"}],"stateMutability":"view","type":"function"},{"inputs":[{"internalType":"address","name":"asset","type":"address"},{"internalType":"uint256","name":"baseLTV","type":"uint256"},{"internalType":"uint256","name":"liquidationThreshold","type":"uint256"},{"internalType":"string","name":"oraklFeedName","type":"string"},{"internalType":"bool","name":"canBorrow","type":"bool"},{"internalType":"bool","name":"canCollateralize","type":"bool"},{"components":[{"internalType":"uint256","name":"baseRate","type":"uint256"},{"internalType":"uint256","name":"optimalUtilization","type":"uint256"},{"internalType":"uint256","name":"curveExponent","type":"uint256"},{"internalType":"uint256","name":"maxRate","type":"uint256"},{"internalType":"uint256","name":"minPenalty","type":"uint256"},{"internalType":"uint256","name":"maxPenalty","type":"uint256"},{"internalType":"uint256","name":"penaltyCurveSlope","type":"uint256"},{"internalType":"uint256","name":"baseHaircut","type":"uint256"},{"internalType":"uint256","name":"volatilityFactor","type":"uint256"},{"internalType":"uint256","name":"maxHaircut","type":"uint256"},{"internalType":"uint256","name":"ltvDecayRate","type":"uint256"},{"internalType":"uint256","name":"maxDecayPeriod","type":"uint256"}],"internalType":"struct RWALendingPlatformWithBondingCurves.BondingCurveConfig","name":"bondingCurveConfig","type":"tuple"}],"name":"addAssetWithBondingCurves","outputs":[],"stateMutability":"nonpayable","type":"function"},{"inputs":[{"internalType":"address","name":"","type":"address"}],"name":"assets","outputs":[{"internalType":"bool","name":"isSupported","type":"bool"},{"internalType":"bool","name":"canBorrow","type":"bool"},{"internalType":"bool","name":"canCollateralize","type":"bool"},{"internalType":"uint256","name":"baseLTV","type":"uint256"},{"internalType":"uint256","name":"liquidationThreshold","type":"uint256"},{"internalType":"string","name":"oraklFeedName","type":"string"},{"internalType":"uint256","name":"lastInterestUpdate","type":"uint256"},{"internalType":"uint256","name":"totalDeposits","type":"uint256"},{"internalType":"uint256","name":"totalBorrows","type":"uint256"},{"internalType":"uint256","name":"accruedInterest","type":"uint256"},{"internalType":"uint256","name":"reserveFactor","type":"uint256"},{"components":[{"internalType":"uint256","name":"baseRate","type":"uint256"},{"internalType":"uint256","name":"optimalUtilization","type":"uint256"},{"internalType":"uint256","name":"curveExponent","type":"uint256"},{"internalType":"uint256","name":"maxRate","type":"uint256"},{"internalType":"uint256","name":"minPenalty","type":"uint256"},{"internalType":"uint256","name":"maxPenalty","type":"uint256"},{"internalType":"uint256","name":"penaltyCurveSlope","type":"uint256"},{"internalType":"uint256","name":"baseHaircut","type":"uint256"},{"internalType":"uint256","name":"volatilityFactor","type":"uint256"},{"internalType":"uint256","name":"maxHaircut","type":"uint256"},{"internalType":"uint256","name":"ltvDecayRate","type":"uint256"},{"internalType":"uint256","name":"maxDecayPeriod","type":"uint256"}],"internalType":"struct RWALendingPlatformWithBondingCurves.BondingCurveConfig","name":"bondingCurve","type":"tuple"},{"internalType":"uint256","name":"avgVolatility","type":"uint256"},{"internalType":"uint256","name":"lastPriceUpdate","type":"uint256"},{"internalType":"uint256","name":"priceHistory","type":"uint256"},{"internalType":"uint256","name":"fallbackPrice","type":"uint256"}],"stateMutability":"view","type":"function"},{"inputs":[{"internalType":"address","name":"asset","type":"address"},{"internalType":"uint256","name":"amount","type":"uint256"}],"name":"borrow","outputs":[],"stateMutability":"nonpayable","type":"function"},{"inputs":[{"internalType":"address","name":"asset","type":"address"}],"name":"calculateBondingCurveInterestRate","outputs":[{"internalType":"uint256","name":"interestRate","type":"uint256"}],"stateMutability":"view","type":"function"},{"inputs":[{"internalType":"address","name":"borrower","type":"address"},{"internalType":"uint256","name":"healthFactor","type":"uint256"}],"name":"calculateBondingCurveLiquidationPenalty","outputs":[{"internalType":"uint256","name":"penalty","type":"uint256"}],"stateMutability":"view","type":"function"},{"inputs":[{"internalType":"address","name":"asset","type":"address"}],"name":"calculateCollateralHaircut","outputs":[{"internalType":"uint256","name":"haircut","type":"uint256"}],"stateMutability":"view","type":"function"},{"inputs":[{"internalType":"address","name":"user","type":"address"},{"internalType":"address","name":"asset","type":"address"}],"name":"calculateTimeBondingCurveLTV","outputs":[{"internalType":"uint256","name":"effectiveLTV","type":"uint256"}],"stateMutability":"view","type":"function"},{"inputs":[{"internalType":"address","name":"borrower","type":"address"}],"name":"checkLiquidation","outputs":[{"internalType":"bool","name":"isLiquidatable","type":"bool"},{"internalType":"uint256","name":"healthFactor","type":"uint256"}],"stateMutability":"view","type":"function"},{"inputs":[{"internalType":"address","name":"asset","type":"address"},{"internalType":"uint256","name":"amount","type":"uint256"}],"name":"deposit","outputs":[],"stateMutability":"nonpayable","type":"function"},{"inputs":[],"name":"feeRecipient","outputs":[{"internalType":"address","name":"","type":"address"}],"stateMutability":"view","type":"function"},{"inputs":[{"internalType":"address","name":"asset","type":"address"}],"name":"getAssetPrice","outputs":[{"internalType":"uint256","name":"price","type":"uint256"}],"stateMutability":"view","type":"function"},{"inputs":[{"internalType":"address","name":"asset","type":"address"}],"name":"getBondingCurveMetrics","outputs":[{"internalType":"uint256","name":"currentRate","type":"uint256"},{"internalType":"uint256","name":"utilization","type":"uint256"},{"internalType":"uint256","name":"avgVolatility","type":"uint256"},{"internalType":"uint256","name":"collateralHaircut","type":"uint256"},{"internalType":"uint256","name":"curveValue","type":"uint256"}],"stateMutability":"view","type":"function"},{"inputs":[{"internalType":"address","name":"user","type":"address"}],"name":"getEffectiveCollateralUSD","outputs":[{"internalType":"uint256","name":"totalUSD","type":"uint256"}],"stateMutability":"view","type":"function"},{"inputs":[{"internalType":"address","name":"user","type":"address"}],"name":"getEnhancedUserPosition","outputs":[{"internalType":"uint256","name":"totalCollateralUSD","type":"uint256"},{"internalType":"uint256","name":"effectiveCollateralUSD","type":"uint256"},{"internalType":"uint256","name":"totalBorrowUSD","type":"uint256"},{"internalType":"uint256","name":"healthFactor","type":"uint256"},{"internalType":"uint256","name":"riskScore","type":"uint256"},{"internalType":"bool","name":"inGracePeriod","type":"bool"}],"stateMutability":"view","type":"function"},{"inputs":[{"internalType":"address","name":"user","type":"address"}],"name":"getTotalBorrowUSD","outputs":[{"internalType":"uint256","name":"totalUSD","type":"uint256"}],"stateMutability":"view","type":"function"},{"inputs":[{"internalType":"address","name":"user","type":"address"}],"name":"getTotalCollateralUSD","outputs":[{"internalType":"uint256","name":"totalUSD","type":"uint256"}],"stateMutability":"view","type":"function"},{"inputs":[{"internalType":"address","name":"asset","type":"address"},{"internalType":"uint256","name":"amount","type":"uint256"}],"name":"getUSDValue","outputs":[{"internalType":"uint256","name":"usdValue","type":"uint256"}],"stateMutability":"view","type":"function"},{"inputs":[],"name":"gracePeriod","outputs":[{"internalType":"uint256","name":"","type":"uint256"}],"stateMutability":"view","type":"function"},{"inputs":[{"internalType":"address","name":"","type":"address"},{"internalType":"address","name":"","type":"address"}],"name":"lenderInterest","outputs":[{"internalType":"uint256","name":"","type":"uint256"}],"stateMutability":"view","type":"function"},{"inputs":[{"internalType":"address","name":"borrower","type":"address"},{"internalType":"address","name":"collateralAsset","type":"address"},{"internalType":"uint256","name":"repayAmount","type":"uint256"}],"name":"liquidateWithBondingCurve","outputs":[],"stateMutability":"nonpayable","type":"function"},{"inputs":[],"name":"oraklRouter","outputs":[{"internalType":"contract IFeedRouter","name":"","type":"address"}],"stateMutability":"view","type":"function"},{"inputs":[],"name":"owner","outputs":[{"internalType":"address","name":"","type":"address"}],"stateMutability":"view","type":"function"},{"inputs":[],"name":"platformFee","outputs":[{"internalType":"uint256","name":"","type":"uint256"}],"stateMutability":"view","type":"function"},{"inputs":[],"name":"renounceOwnership","outputs":[],"stateMutability":"nonpayable","type":"function"},{"inputs":[{"internalType":"address","name":"asset","type":"address"},{"internalType":"uint256","name":"amount","type":"uint256"}],"name":"repay","outputs":[],"stateMutability":"nonpayable","type":"function"},{"inputs":[{"internalType":"uint256","name":"","type":"uint256"}],"name":"supportedAssets","outputs":[{"internalType":"address","name":"","type":"address"}],"stateMutability":"view","type":"function"},{"inputs":[{"internalType":"address","name":"newOwner","type":"address"}],"name":"transferOwnership","outputs":[],"stateMutability":"nonpayable","type":"function"},{"inputs":[{"internalType":"address","name":"asset","type":"address"},{"internalType":"string","name":"parameterType","type":"string"},{"internalType":"uint256","name":"newValue","type":"uint256"}],"name":"updateBondingCurveParameter","outputs":[],"stateMutability":"nonpayable","type":"function"},{"inputs":[{"internalType":"address","name":"asset","type":"address"}],"name":"updateInterestWithBondingCurve","outputs":[],"stateMutability":"nonpayable","type":"function"},{"inputs":[{"internalType":"address","name":"asset","type":"address"}],"name":"updateVolatilityMetrics","outputs":[],"stateMutability":"nonpayable","type":"function"},{"inputs":[{"internalType":"address","name":"asset","type":"address"},{"internalType":"uint256","name":"amount","type":"uint256"}],"name":"withdraw","outputs":[],"stateMutability":"nonpayable","type":"function"}],"evm":{"bytecode":{"linkReferences":{},"object":"60a0346200010857601f62002b8338819003918201601f19168301916001600160401b038311848410176200010d57808492604094855283398101031262000108576200005a6020620000528362000123565b920162000123565b60016000553315620000ef5760018054336001600160a01b031980831682179093556040519492936001600160a01b0393909284929083167f8be0079c531659141344cd1fd0a4f28419497f9722a3daafe3b4186f6b6457e0600080a36101f4600355620151806004551660805216906002541617600255612a4a908162000139823960805181818161198f015261276d0152f35b604051631e4fbdf760e01b815260006004820152602490fd5b600080fd5b634e487b7160e01b600052604160045260246000fd5b51906001600160a01b0382168203620001085756fe6080604052600436101561001257600080fd5b60003560e01c806314d911c3146119be5780631e6918271461197957806322867d78146117ff57806326232a2e146117e157806346904840146117b857806347e7ef24146116885780634b8a3529146114a05780636299334414610eb857806362fff3f614610e67578063710094df14610e46578063715018a614610de9578063727a667714610dc65780637367eade14610b8557806379500bf614610b5e578063879b3ed514610b3b5780638da5cb5b14610b12578063915d93421461096f5780639b681e171461094c578063a06db7dc1461092e578063a274f4ac146108fd578063a9a4dbbc1461081c578063aaf5eb68146107f9578063b3596f07146107d6578063c68dbb3714610794578063cd9cebfd14610771578063e1f1c4a714610754578063e6a69ab814610735578063ea6a287214610712578063f11b8188146104ec578063f2fde38b1461045e578063f3fef3a3146102b3578063f413e0f6146101e9578063f91bff57146101c65763fa76dcf21461019257600080fd5b346101c15760403660031901126101c15760206101b96101b06119ea565b60243590612927565b604051908152f35b600080fd5b346101c15760203660031901126101c15760206101b96101e46119ea565b6125db565b346101c15760203660031901126101c1576102026119ea565b61020b816125db565b610214826124f2565b61021d83612677565b806102715760c093600019905b60018060a01b0316600052600660205260406000209160ff6004600885015494015416936040519586526020860152604085015260608401526080830152151560a0820152f35b670de0b6b3a76400009384830294838604148315171561029d576102978260c096611c29565b9061022a565b634e487b7160e01b600052601160045260246000fd5b346101c15760403660031901126101c1576102cc6119ea565b6024356102d7612319565b801561044c576102e68261238c565b3360005260206006815260406000209260018060a01b03811693846000528252604060002054831161043a5761031b336124f2565b61034161033b61032b8685612927565b6103358533611f63565b90611c16565b92611f12565b61271090810390811161029d576103606305f5e1009161036794611c16565b0490611c49565b61037033612677565b908115159182610430575b505061041e573360005260068152604060002083600052815260406000206103a4838254611c49565b9055826000526005815260056040600020016103c1838254611c49565b90556103ce82338561233c565b33600052600681526040600020836000528152604060002054906040519283528201527f91fb9d98b786c57d74c099ccd2beca1739e9f6a81fb49001ca465c4b7591bbe260403392a36001600055005b604051633a23d82560e01b8152600490fd5b119050848061037b565b604051631e9acf1760e31b8152600490fd5b604051631f2a200560e01b8152600490fd5b346101c15760203660031901126101c1576104776119ea565b61047f611bea565b6001600160a01b039081169081156104d357600154826bffffffffffffffffffffffff60a01b821617600155167f8be0079c531659141344cd1fd0a4f28419497f9722a3daafe3b4186f6b6457e0600080a3005b604051631e4fbdf760e01b815260006004820152602490fd5b346101c15760203660031901126101c1576001600160a01b0361050d6119ea565b16600052600560205260406000208054600180830154926002810154906003810160405193849160009181549161054383611af9565b808652928281169081156106f257506001146106af575b505050036105689084611a33565b6004810154926005820154600683015460078401546008850154906040519261059084611a16565b60098701548452600a8701546020850152600b8701546040850152600c8701546060850152600d8701546080850152600e87015460a0850152600f87015460c0850152601087015460e0850152601187015461010085015260128701546101208501526013870154610140850152601487015461016085015260158701549460168801549660178901549860180154996040519d8e8e819f60ff16151582528060081c60ff161515602083015260101c60ff16151560408201526060015260808d01528b61036060a0819201528c0161066891611b33565b9960c08c015260e08b01526101008a0152610120890152610140880152610160870161069391611b73565b6102e08601526103008501526103208401526103408301520390f35b60009081526020812092949350915b8483106106d7575050816020929350010187808061055a565b81935090816020925483858b010152019101909186926106be565b925050506020925060ff191682840152151560051b82010187808061055a565b346101c15760203660031901126101c15760206101b96107306119ea565b612677565b346101c15760003660031901126101c15760206040516301e133808152f35b346101c15760003660031901126101c15760206040516127108152f35b346101c15760203660031901126101c15760206101b961078f6119ea565b6124f2565b346101c15760203660031901126101c1576004356007548110156101c1576107bd602091611aac565b905460405160039290921b1c6001600160a01b03168152f35b346101c15760203660031901126101c15760206101b96107f46119ea565b6126f6565b346101c15760003660031901126101c1576020604051670de0b6b3a76400008152f35b346101c15760203660031901126101c1576108356119ea565b6001600160a01b038116600090815260056020526040902061085682611c63565b90600581015492831590816000146108d4576000925b61087a601582015492611f12565b926108c75760060154670de0b6b3a76400009081810291818304149015171561029d5760a0956108a991611c29565b925b6040519485526020850152604084015260608301526080820152f35b5060a094506000926108ab565b60068301546127109081810291818304149015171561029d57856108f791611c29565b9261086c565b346101c15760203660031901126101c157604061092061091b6119ea565b6129c6565b825191151582526020820152f35b346101c15760003660031901126101c1576020600454604051908152f35b346101c15760203660031901126101c15760206101b961096a6119ea565b611f12565b346101c15760603660031901126101c1576109886119ea565b60243567ffffffffffffffff81116101c157610a3b6109cc7f2dacef4d2c121e599a3e080c58437b103d67b8ad9e118317c3f4f92b4af6f576923690600401611a55565b604435936109d8611bea565b60018060a01b031693846000526005602052806040600020835160208501207f9e36a3cc7d8c812d07501dd19dabeb3d8317632e6467a793e3650c433de4b57b8114600014610a465750600901555b604051928392604084526040840190611b33565b9060208301520390a2005b7f7c2018787885ba09a344d3eff8ca42c8341ee3ab6e5048b32845d70898cb4db78103610a775750600c0155610a27565b7f5399a23aae8f64846550b1c6b414082d7c72ca7ad0450acdc6437e28ee5806a78103610aa85750600b0155610a27565b7f142e8bdd2cea082964f29884ac2e726272a82403140fe1c907e0f14421953a488103610ad95750600d0155610a27565b7fabb395850dc85d38fa0604c5ca361da41b32487dda0cff2a65c36f198f257dac14610b07575b5050610a27565b600e01558086610b00565b346101c15760003660031901126101c1576001546040516001600160a01b039091168152602090f35b346101c15760203660031901126101c15760206101b9610b596119ea565b611c63565b346101c15760403660031901126101c15760206101b9610b7c6119ea565b60243590611dbb565b346101c15760603660031901126101c157610b9e6119ea565b610ba6611a00565b604435610bb1612319565b610bba836129c6565b9015610db45760018060a01b03808516928360005260206006815260406000209660ff600489015416158015610da7575b15610d6c5784610bfa91611dbb565b92610c04876126f6565b610c0e8489612927565b6127109086820180831161029d57610c2591611c16565b9181810291818304149015171561029d57610c3f91611c29565b961696876000528082526040600020548711610d2757600790610c648430338c612262565b886000528083526040600020610c7b898254611c49565b9055886000526001810183526040600020610c97858254611c49565b9055019081546001810180911161029d577fe04d542432d45c3f3f92fd452fe5ceaa2b847f344ba466cdff8f6288ad1c24b595857f7050ebc725c1f82900d703c39bfa0140a8434deefd2a0ccf97d8377eb25232a8936040938a9655610cff8b8d339061233c565b8351928352820152a26040805195865260208601919091528401523392606090a46001600055005b60405162461bcd60e51b815260048101839052601760248201527f496e73756666696369656e7420636f6c6c61746572616c0000000000000000006044820152606490fd5b60405162461bcd60e51b8152600481018390526013602482015272477261636520706572696f642061637469766560681b6044820152606490fd5b5060058801544211610beb565b6040516332c9fea960e11b8152600490fd5b346101c15760203660031901126101c157610de7610de26119ea565b61238c565b005b346101c15760003660031901126101c157610e02611bea565b600180546001600160a01b031981169091556000906001600160a01b03167f8be0079c531659141344cd1fd0a4f28419497f9722a3daafe3b4186f6b6457e08280a3005b346101c15760203660031901126101c157610de7610e626119ea565b61211b565b346101c15760403660031901126101c157610e806119ea565b610e88611a00565b9060018060a01b038091166000526008602052604060002091166000526020526020604060002054604051908152f35b346101c1576102403660031901126101c157610ed26119ea565b60643567ffffffffffffffff81116101c157610ef2903690600401611a55565b9060843580151581036101c15760a4359283151584036101c1576101803660c31901126101c15760405193610f2685611a16565b60c435855260e43560208601526101043560408601526101243560608601526101443560808601526101643560a08601526101843560c08601526101a43560e08601526101c4356101008601526101e4356101208601526102043561014086015261022435610160860152610f99611bea565b6044356024351161146d5761251c604435116114335784516060860151106113f957608085015160a0860151106113bc5760e08501516101208601511061137f57604051928361020081011067ffffffffffffffff610200860111176112a15761020084016040526001845215156020840152151560408301526024356060830152604435608083015260a08201524260c0820152600060e0820152600061010082015260006101208201526103e86101408201528261016082015267016345785d8a0000610180820152426101a08201526305f5e1006101c08201526305f5e1006101e082015260018060a01b038216600052600560205260406000209080511515825490602083015115159160ff61ff0062ff00006040870151151560101b169460081b1692169062ffffff19161717178255606081015160018301556080810151600283015560a081015180519067ffffffffffffffff82116112a1576111066003850154611af9565b601f8111611338575b50602090601f83116001146112c2579180601894926101e0946000926112b7575b50508160011b916000199060031b1c19161760038501555b60c0810151600485015560e0810151600585015561010081015160068501556101208101516007850155610140810151600885015561016080820151805160098701556020810151600a8701556040810151600b8701556060810151600c8701556080810151600d87015560a0810151600e87015560c0810151600f87015560e081015160108701556101008101516011870155610120810151601287015561014081015160138701550151601485015561018081015160158501556101a081015160168501556101c081015160178501550151910155600754680100000000000000008110156112a1577f13c9fbd7b4c5e22c3d41c025934cef3ce89026482dd3edff2c197b7337d3859a916112688260016101809401600755611aac565b81546001600160a01b0384811660039390931b92831b921b191617905560405193611294908590611b73565b6001600160a01b031692a2005b634e487b7160e01b600052604160045260246000fd5b015190508880611130565b906003850160005260206000209160005b601f1985168110611320575092601894926001926101e09583601f19811610611307575b505050811b016003850155611148565b015160001960f88460031b161c191690558880806112f7565b919260206001819286850151815501940192016112d3565b600385016000526020600020601f840160051c810160208510611378575b601f830160051c8201811061136c57505061110f565b60008155600101611356565b5080611356565b60405162461bcd60e51b8152602060048201526015602482015274496e76616c6964206861697263757420637572766560581b6044820152606490fd5b60405162461bcd60e51b8152602060048201526015602482015274496e76616c69642070656e616c747920637572766560581b6044820152606490fd5b60405162461bcd60e51b8152602060048201526012602482015271496e76616c6964207261746520637572766560701b6044820152606490fd5b60405162461bcd60e51b81526020600482015260126024820152710a8d0e4cae6d0ded8c840e8dede40d0d2ced60731b6044820152606490fd5b60405162461bcd60e51b815260206004820152600b60248201526a24b73b30b634b210262a2b60a91b6044820152606490fd5b346101c15760403660031901126101c1576114b96119ea565b6024356114c4612319565b801561044c5760018060a01b038216918260005260209060058252604060002090815460ff811615908115611679575b50611667576115028161238c565b61150b8161211b565b611531611517336124f2565b9161152b8661152533612677565b92612927565b90611c56565b9181831161041e576040516370a0823160e01b815230600482015284816024818a5afa90811561165b5760009161162e575b50851161043a576006903360005281855260016040600020018760005285526040600020611592878254611c56565b905533600052818552600260406000200187600052855242604060002055016115bc858254611c56565b90558015611624576127109182810292818404149015171561029d576115e191611c29565b905b6115ee83338661233c565b6040519283528201527fc14e9e6b4d98a542b05a0f6b64acd5f4cbdb914be88432d87486b664e97071a760403392a36001600055005b50506000906115e3565b90508481813d8311611654575b6116458183611a33565b810103126101c1575187611563565b503d61163b565b6040513d6000823e3d90fd5b60405163981a2a2b60e01b8152600490fd5b60ff915060081c1615866114f4565b346101c15760403660031901126101c1576116a16119ea565b6024356116ac612319565b801561044c5760018060a01b038216918260005260209060058252604060002060ff81541615611667576116e582610e6260059461238c565b6116f184303388612262565b336000526006835260406000208560005283526040600020611714858254611c56565b90553360005260068352600360406000200185600052835260406000205415611796575b01611744838254611c56565b905533600052600681526040600020836000528152604060002054906040519283528201527ff5681f9d0db1b911ac18ee83d515a1cf1051853a9eae418316a2fdf7dea427c560403392a36001600055005b3360005260068352600360406000200185600052835242604060002055611738565b346101c15760003660031901126101c1576002546040516001600160a01b039091168152602090f35b346101c15760003660031901126101c1576020600354604051908152f35b346101c15760403660031901126101c1576118186119ea565b602435611823612319565b801561044c576118328261238c565b3360005260069060209082825260016040600020019360018060a01b03169384600052825260406000205490811561043a57818111156119715750915b61187b83303387612262565b33600052808252600160406000200184600052825260406000206118a0848254611c49565b90558360005260058252806040600020016118bc848254611c49565b90553360005280825260016040600020018460005282526040600020541580611958575b611936575b3360005281526001604060002001836000528152604060002054906040519283528201527fe62a777dbd48d3912f68a1b9445813ee02bc3ac18b97dc129ca462cc77bb641b60403392a36001600055005b3360005280825260006005604082206004810160ff19815416905501556118e5565b503360005280825260ff600460406000200154166118e0565b90509161186f565b346101c15760003660031901126101c1576040517f00000000000000000000000000000000000000000000000000000000000000006001600160a01b03168152602090f35b346101c15760403660031901126101c15760206101b96119dc6119ea565b6119e4611a00565b90611f63565b600435906001600160a01b03821682036101c157565b602435906001600160a01b03821682036101c157565b610180810190811067ffffffffffffffff8211176112a157604052565b90601f8019910116810190811067ffffffffffffffff8211176112a157604052565b81601f820112156101c15780359067ffffffffffffffff82116112a15760405192611a8a601f8401601f191660200185611a33565b828452602083830101116101c157816000926020809301838601378301015290565b600754811015611ae35760076000527fa66cc928b5edb82af9bd49922954155ab7b0942694bea4ce44661d9a8736c6880190600090565b634e487b7160e01b600052603260045260246000fd5b90600182811c92168015611b29575b6020831014611b1357565b634e487b7160e01b600052602260045260246000fd5b91607f1691611b08565b919082519283825260005b848110611b5f575050826000602080949584010152601f8019910116010190565b602081830181015184830182015201611b3e565b805182526020810151602083015260408101516040830152606081015160608301526080810151608083015260a081015160a083015260c081015160c083015260e081015160e083015261010080820151908301526101208082015190830152610140808201519083015261016080910151910152565b6001546001600160a01b03163303611bfe57565b60405163118cdaa760e01b8152336004820152602490fd5b8181029291811591840414171561029d57565b8115611c33570490565b634e487b7160e01b600052601260045260246000fd5b9190820391821161029d57565b9190820180921161029d57565b6001600160a01b031660009081526005602081905260408220908101549092916009840191908115611db457600685015491670de0b6b3a76400009283810290808204851490151715611da05790611cba91611c29565b600a86015495909190868311611d15575082820291808304841490151715611d015750611cee611cfe9495611cf792611c29565b92549283611c16565b0490611c56565b90565b634e487b7160e01b81526011600452602490fd5b929186611d26919792959697611c49565b90820390828211611d8c5782810290808204841490151715611d8c57600c611d64611d59611d79969594611cf794611c29565b600b86015490612025565b965493015495611d748488611c49565b611c16565b905081811115611d87575090565b905090565b634e487b7160e01b85526011600452602485fd5b634e487b7160e01b83526011600452602483fd5b5050549150565b906000808190600754915b828110611e8357506001600160a01b039283169150508015611e79576000526005602052604060002092166000526006602052604060002091600091670de0b6b3a764000092838210600014611e6b5750820382811161029d576007611e3591945b0154600f83015490611c16565b820180831161029d57611d748284611cf7600e600d611e5e97015493015497611d74848a611c49565b0481811115611d87575090565b611e35915060079094611e28565b505050506103e890565b611e8c81611aac565b9060018060a01b03918291549060031b1c16908160005260206005815260409160ff836000205460101c16611ece575b50505050611ec990612016565b611dc6565b891660005260068152816000209083600052526000205480611ef2575b8080611ebc565b611efc9082612927565b83811115611eeb579094509150611ec938611eeb565b60018060a01b0316600052600560205260406000206012611f53670de0b6b3a7640000611f486015850154601186015490611c16565b046010840154611c56565b9101549081811115611d87575090565b90600360018060a01b038092166000928184526005602052604084209416835260066020526040832090835201602052611fa1604082205442611c49565b801561200d57611fe96001611fdf670de0b6b3a7640000936014870154908181116000146120045750611fda815b601389015490611c16565b611c29565b9401549384611c16565b04905080821115611ffd57611cfe91611c49565b5060011c90565b611fda90611fcf565b50506001015490565b600019811461029d5760010190565b9190821561211457670de0b6b3a7640000908184101561210f5781811461210b57671bc16d674ec8000081146120fa578380830180841161029d576002955b60049081881115806120f1575b156120db5784611d748561208493611c16565b6ec097ce7bc90715b34b9f10000000009188830292830489036120c657506120b26120bf926120b992611c29565b8093611c56565b96612016565b9590612064565b6024906011600091634e487b7160e01b835252fd5b5050929394505050818111600014611d87575090565b50801515612071565b5090918061210791611c16565b0490565b5050565b509150565b5060009150565b6001600160a01b038116600081815260056020526040812091929190612140836126f6565b601683019182546121518142611c49565b9015159081612258575b506121aa575b506017830155429055601501547f6ac2eb67d9e3d599b1121a86c7f4eb985d08ae8e5e5ca0b9a5c4e6a7206ed35a916040919061219d90611f12565b82519182526020820152a2565b601784015480831115612249576121c18184611c49565b670de0b6b3a764000090818102918183041490151715611da057906121e591611c29565b6015850191825490600982029180830460091490151715611d0157509361219d93601593600a61223a604099957f6ac2eb67d9e3d599b1121a86c7f4eb985d08ae8e5e5ca0b9a5c4e6a7206ed35a9b99611c56565b04905593509395509350612161565b6122538382611c49565b6121c1565b905015153861215b565b6040516323b872dd60e01b60208201526001600160a01b03928316602482015292909116604483015260648083019390935291815260a081019181831067ffffffffffffffff8411176112a1576122bb926040526122bd565b565b906000602091828151910182855af11561165b576000513d61231057506001600160a01b0381163b155b6122ee5750565b604051635274afe760e01b81526001600160a01b039091166004820152602490fd5b600114156122e7565b60026000541461232a576002600055565b604051633ee5aeb560e01b8152600490fd5b60405163a9059cbb60e01b60208201526001600160a01b039092166024830152604480830193909352918152608081019167ffffffffffffffff8311828410176112a1576122bb926040526122bd565b6001600160a01b0381166000818152600560205260408120805492939260ff16156116675760048101926123c1845442611c49565b9182156124ea576123d3600592611c63565b9464496cebb8006123ed600684015495611d748988611c16565b046123fd60078401918254611c56565b9055429055015490811592836000146124b35780935b61248457670de0b6b3a764000091828102928184041490151715611d0157506124627f5a03daa796ec548ad6dd0ed0a76e2b5197c4d37c20b10722b669ffa200d4a4bb94939261247f92611c29565b604051938493846040919493926060820195825260208201520152565b0390a2565b7f5a03daa796ec548ad6dd0ed0a76e2b5197c4d37c20b10722b669ffa200d4a4bb9493925061247f9150612462565b6127108083029083820414831517156124d657836124d091611c29565b93612413565b634e487b7160e01b82526011600452602482fd5b505050505050565b6007546000929183805b8381106125095750505050565b61251281611aac565b9060018060a01b03918291549060031b1c169081845260206005815260409160ff8387205460101c16612552575b5050505061254d90612016565b6124fc565b8616855260068152818520908386525283205480612572575b8080612540565b61258261259c9183999499612927565b916125966125908288611f63565b91611f12565b92611c16565b6127109182039182116125c757916305f5e100611cf76125bf9361254d95611c16565b95903861256b565b634e487b7160e01b84526011600452602484fd5b600754600092918390815b8381106125f35750505050565b6125fc81611aac565b9060018060a01b03918291549060031b1c169081855260206005815260409160ff8388205460101c1661263c575b5050505061263790612016565b6125e6565b85168652600681528186209083875252842054908161265d575b808061262a565b9661152b61266f926126379499612927565b959038612656565b6007546000929183805b83811061268e5750505050565b61269781611aac565b9060018060a01b03918291549060031b1c169084168352602060068152604090600182862001908386525283205490816126dc575b50506126d790612016565b612681565b9661152b6126ee926126d79499612927565b9590386126cc565b60018060a01b0390816000911681526020600581526040918281209360ff855416156129165760038501838551809263d12162d360e01b82528260048301528590805461274281611af9565b918260248601526001918583821691826000146128f45750506001146128bb575b50505081900381857f0000000000000000000000000000000000000000000000000000000000000000165afa9081156128b1578391612877575b501693841561286b5750606083946004945194858092633fabe5a360e21b82525afa80938294612820575b506127de578351633b98b04760e21b8152600490fd5b8293919213156127ed57505090565b60649250519062461bcd60e51b82526004820152600d60248201526c496e76616c696420707269636560981b6044820152fd5b9093506060813d8211612863575b8161283b60609383611a33565b8101031261285f57805167ffffffffffffffff81160361285f5782015192386127c8565b5080fd5b3d915061282e565b60180154949350505050565b90508381813d83116128aa575b61288e8183611a33565b810103126128a6575181811681036128a6573861279d565b8280fd5b503d612884565b85513d85823e3d90fd5b88528488208893505b8284106128db575050508101604401813880612763565b80546044858901015289958795509093019281016128c4565b9250945050604492915060ff191682840152151560051b820101903880612763565b835163981a2a2b60e01b8152600490fd5b60046020612934836126f6565b60405163313ce56760e01b815290939092839182906001600160a01b03165afa90811561165b57600091612987575b509060ff612972921692611c16565b604d821161029d57611cfe91600a0a90611c29565b6020813d82116129be575b8161299f60209383611a33565b8101031261285f57519060ff821682036129bb575060ff612963565b80fd5b3d9150612992565b6129d86129d2826124f2565b91612677565b908115612a0957670de0b6b3a7640000918282029180830484149015171561029d57612a0391611c29565b90811091565b50600091600019915056fea264697066735822122019bb47c2716aaf428b92ad79d1a3c1893413becd0c509b1731033429a73186d264736f6c63430008140033","opcodes":"PUSH1 0xA0 CALLVALUE PUSH3 0x108 JUMPI PUSH1 0x1F PUSH3 0x2B83 CODESIZE DUP2 SWAP1 SUB SWAP2 DUP3 ADD PUSH1 0x1F NOT AND DUP4 ADD SWAP2 PUSH1 0x1 PUSH1 0x1 PUSH1 0x40 SHL SUB DUP4 GT DUP5 DUP5 LT OR PUSH3 0x10D JUMPI DUP1 DUP5 SWAP3 PUSH1 0x40 SWAP5 DUP6 MSTORE DUP4 CODECOPY DUP2 ADD SUB SLT PUSH3 0x108 JUMPI PUSH3 0x5A PUSH1 0x20 PUSH3 0x52 DUP4 PUSH3 0x123 JUMP JUMPDEST SWAP3 ADD PUSH3 0x123 JUMP JUMPDEST PUSH1 0x1 PUSH1 0x0 SSTORE CALLER ISZERO PUSH3 0xEF JUMPI PUSH1 0x1 DUP1 SLOAD CALLER PUSH1 0x1 PUSH1 0x1 PUSH1 0xA0 SHL SUB NOT DUP1 DUP4 AND DUP3 OR SWAP1 SWAP4 SSTORE PUSH1 0x40 MLOAD SWAP5 SWAP3 SWAP4 PUSH1 0x1 PUSH1 0x1 PUSH1 0xA0 SHL SUB SWAP4 SWAP1 SWAP3 DUP5 SWAP3 SWAP1 DUP4 AND PUSH32 0x8BE0079C531659141344CD1FD0A4F28419497F9722A3DAAFE3B4186F6B6457E0 PUSH1 0x0 DUP1 LOG3 PUSH2 0x1F4 PUSH1 0x3 SSTORE PUSH3 0x15180 PUSH1 0x4 SSTORE AND PUSH1 0x80 MSTORE AND SWAP1 PUSH1 0x2 SLOAD AND OR PUSH1 0x2 SSTORE PUSH2 0x2A4A SWAP1 DUP2 PUSH3 0x139 DUP3 CODECOPY PUSH1 0x80 MLOAD DUP2 DUP2 DUP2 PUSH2 0x198F ADD MSTORE PUSH2 0x276D ADD MSTORE RETURN JUMPDEST PUSH1 0x40 MLOAD PUSH4 0x1E4FBDF7 PUSH1 0xE0 SHL DUP2 MSTORE PUSH1 0x0 PUSH1 0x4 DUP3 ADD MSTORE PUSH1 0x24 SWAP1 REVERT JUMPDEST PUSH1 0x0 DUP1 REVERT JUMPDEST PUSH4 0x4E487B71 PUSH1 0xE0 SHL PUSH1 0x0 MSTORE PUSH1 0x41 PUSH1 0x4 MSTORE PUSH1 0x24 PUSH1 0x0 REVERT JUMPDEST MLOAD SWAP1 PUSH1 0x1 PUSH1 0x1 PUSH1 0xA0 SHL SUB DUP3 AND DUP3 SUB PUSH3 0x108 JUMPI JUMP INVALID PUSH1 0x80 PUSH1 0x40 MSTORE PUSH1 0x4 CALLDATASIZE LT ISZERO PUSH2 0x12 JUMPI PUSH1 0x0 DUP1 REVERT JUMPDEST PUSH1 0x0 CALLDATALOAD PUSH1 0xE0 SHR DUP1 PUSH4 0x14D911C3 EQ PUSH2 0x19BE JUMPI DUP1 PUSH4 0x1E691827 EQ PUSH2 0x1979 JUMPI DUP1 PUSH4 0x22867D78 EQ PUSH2 0x17FF JUMPI DUP1 PUSH4 0x26232A2E EQ PUSH2 0x17E1 JUMPI DUP1 PUSH4 0x46904840 EQ PUSH2 0x17B8 JUMPI DUP1 PUSH4 0x47E7EF24 EQ PUSH2 0x1688 JUMPI DUP1 PUSH4 0x4B8A3529 EQ PUSH2 0x14A0 JUMPI DUP1 PUSH4 0x62993344 EQ PUSH2 0xEB8 JUMPI DUP1 PUSH4 0x62FFF3F6 EQ PUSH2 0xE67 JUMPI DUP1 PUSH4 0x710094DF EQ PUSH2 0xE46 JUMPI DUP1 PUSH4 0x715018A6 EQ PUSH2 0xDE9 JUMPI DUP1 PUSH4 0x727A6677 EQ PUSH2 0xDC6 JUMPI DUP1 PUSH4 0x7367EADE EQ PUSH2 0xB85 JUMPI DUP1 PUSH4 0x79500BF6 EQ PUSH2 0xB5E JUMPI DUP1 PUSH4 0x879B3ED5 EQ PUSH2 0xB3B JUMPI DUP1 PUSH4 0x8DA5CB5B EQ PUSH2 0xB12 JUMPI DUP1 PUSH4 0x915D9342 EQ PUSH2 0x96F JUMPI DUP1 PUSH4 0x9B681E17 EQ PUSH2 0x94C JUMPI DUP1 PUSH4 0xA06DB7DC EQ PUSH2 0x92E JUMPI DUP1 PUSH4 0xA274F4AC EQ PUSH2 0x8FD JUMPI DUP1 PUSH4 0xA9A4DBBC EQ PUSH2 0x81C JUMPI DUP1 PUSH4 0xAAF5EB68 EQ PUSH2 0x7F9 JUMPI DUP1 PUSH4 0xB3596F07 EQ PUSH2 0x7D6 JUMPI DUP1 PUSH4 0xC68DBB37 EQ PUSH2 0x794 JUMPI DUP1 PUSH4 0xCD9CEBFD EQ PUSH2 0x771 JUMPI DUP1 PUSH4 0xE1F1C4A7 EQ PUSH2 0x754 JUMPI DUP1 PUSH4 0xE6A69AB8 EQ PUSH2 0x735 JUMPI DUP1 PUSH4 0xEA6A2872 EQ PUSH2 0x712 JUMPI DUP1 PUSH4 0xF11B8188 EQ PUSH2 0x4EC JUMPI DUP1 PUSH4 0xF2FDE38B EQ PUSH2 0x45E JUMPI DUP1 PUSH4 0xF3FEF3A3 EQ PUSH2 0x2B3 JUMPI DUP1 PUSH4 0xF413E0F6 EQ PUSH2 0x1E9 JUMPI DUP1 PUSH4 0xF91BFF57 EQ PUSH2 0x1C6 JUMPI PUSH4 0xFA76DCF2 EQ PUSH2 0x192 JUMPI PUSH1 0x0 DUP1 REVERT JUMPDEST CALLVALUE PUSH2 0x1C1 JUMPI PUSH1 0x40 CALLDATASIZE PUSH1 0x3 NOT ADD SLT PUSH2 0x1C1 JUMPI PUSH1 0x20 PUSH2 0x1B9 PUSH2 0x1B0 PUSH2 0x19EA JUMP JUMPDEST PUSH1 0x24 CALLDATALOAD SWAP1 PUSH2 0x2927 JUMP JUMPDEST PUSH1 0x40 MLOAD SWAP1 DUP2 MSTORE RETURN JUMPDEST PUSH1 0x0 DUP1 REVERT JUMPDEST CALLVALUE PUSH2 0x1C1 JUMPI PUSH1 0x20 CALLDATASIZE PUSH1 0x3 NOT ADD SLT PUSH2 0x1C1 JUMPI PUSH1 0x20 PUSH2 0x1B9 PUSH2 0x1E4 PUSH2 0x19EA JUMP JUMPDEST PUSH2 0x25DB JUMP JUMPDEST CALLVALUE PUSH2 0x1C1 JUMPI PUSH1 0x20 CALLDATASIZE PUSH1 0x3 NOT ADD SLT PUSH2 0x1C1 JUMPI PUSH2 0x202 PUSH2 0x19EA JUMP JUMPDEST PUSH2 0x20B DUP2 PUSH2 0x25DB JUMP JUMPDEST PUSH2 0x214 DUP3 PUSH2 0x24F2 JUMP JUMPDEST PUSH2 0x21D DUP4 PUSH2 0x2677 JUMP JUMPDEST DUP1 PUSH2 0x271 JUMPI PUSH1 0xC0 SWAP4 PUSH1 0x0 NOT SWAP1 JUMPDEST PUSH1 0x1 DUP1 PUSH1 0xA0 SHL SUB AND PUSH1 0x0 MSTORE PUSH1 0x6 PUSH1 0x20 MSTORE PUSH1 0x40 PUSH1 0x0 KECCAK256 SWAP2 PUSH1 0xFF PUSH1 0x4 PUSH1 0x8 DUP6 ADD SLOAD SWAP5 ADD SLOAD AND SWAP4 PUSH1 0x40 MLOAD SWAP6 DUP7 MSTORE PUSH1 0x20 DUP7 ADD MSTORE PUSH1 0x40 DUP6 ADD MSTORE PUSH1 0x60 DUP5 ADD MSTORE PUSH1 0x80 DUP4 ADD MSTORE ISZERO ISZERO PUSH1 0xA0 DUP3 ADD MSTORE RETURN JUMPDEST PUSH8 0xDE0B6B3A7640000 SWAP4 DUP5 DUP4 MUL SWAP5 DUP4 DUP7 DIV EQ DUP4 ISZERO OR ISZERO PUSH2 0x29D JUMPI PUSH2 0x297 DUP3 PUSH1 0xC0 SWAP7 PUSH2 0x1C29 JUMP JUMPDEST SWAP1 PUSH2 0x22A JUMP JUMPDEST PUSH4 0x4E487B71 PUSH1 0xE0 SHL PUSH1 0x0 MSTORE PUSH1 0x11 PUSH1 0x4 MSTORE PUSH1 0x24 PUSH1 0x0 REVERT JUMPDEST CALLVALUE PUSH2 0x1C1 JUMPI PUSH1 0x40 CALLDATASIZE PUSH1 0x3 NOT ADD SLT PUSH2 0x1C1 JUMPI PUSH2 0x2CC PUSH2 0x19EA JUMP JUMPDEST PUSH1 0x24 CALLDATALOAD PUSH2 0x2D7 PUSH2 0x2319 JUMP JUMPDEST DUP1 ISZERO PUSH2 0x44C JUMPI PUSH2 0x2E6 DUP3 PUSH2 0x238C JUMP JUMPDEST CALLER PUSH1 0x0 MSTORE PUSH1 0x20 PUSH1 0x6 DUP2 MSTORE PUSH1 0x40 PUSH1 0x0 KECCAK256 SWAP3 PUSH1 0x1 DUP1 PUSH1 0xA0 SHL SUB DUP2 AND SWAP4 DUP5 PUSH1 0x0 MSTORE DUP3 MSTORE PUSH1 0x40 PUSH1 0x0 KECCAK256 SLOAD DUP4 GT PUSH2 0x43A JUMPI PUSH2 0x31B CALLER PUSH2 0x24F2 JUMP JUMPDEST PUSH2 0x341 PUSH2 0x33B PUSH2 0x32B DUP7 DUP6 PUSH2 0x2927 JUMP JUMPDEST PUSH2 0x335 DUP6 CALLER PUSH2 0x1F63 JUMP JUMPDEST SWAP1 PUSH2 0x1C16 JUMP JUMPDEST SWAP3 PUSH2 0x1F12 JUMP JUMPDEST PUSH2 0x2710 SWAP1 DUP2 SUB SWAP1 DUP2 GT PUSH2 0x29D JUMPI PUSH2 0x360 PUSH4 0x5F5E100 SWAP2 PUSH2 0x367 SWAP5 PUSH2 0x1C16 JUMP JUMPDEST DIV SWAP1 PUSH2 0x1C49 JUMP JUMPDEST PUSH2 0x370 CALLER PUSH2 0x2677 JUMP JUMPDEST SWAP1 DUP2 ISZERO ISZERO SWAP2 DUP3 PUSH2 0x430 JUMPI JUMPDEST POP POP PUSH2 0x41E JUMPI CALLER PUSH1 0x0 MSTORE PUSH1 0x6 DUP2 MSTORE PUSH1 0x40 PUSH1 0x0 KECCAK256 DUP4 PUSH1 0x0 MSTORE DUP2 MSTORE PUSH1 0x40 PUSH1 0x0 KECCAK256 PUSH2 0x3A4 DUP4 DUP3 SLOAD PUSH2 0x1C49 JUMP JUMPDEST SWAP1 SSTORE DUP3 PUSH1 0x0 MSTORE PUSH1 0x5 DUP2 MSTORE PUSH1 0x5 PUSH1 0x40 PUSH1 0x0 KECCAK256 ADD PUSH2 0x3C1 DUP4 DUP3 SLOAD PUSH2 0x1C49 JUMP JUMPDEST SWAP1 SSTORE PUSH2 0x3CE DUP3 CALLER DUP6 PUSH2 0x233C JUMP JUMPDEST CALLER PUSH1 0x0 MSTORE PUSH1 0x6 DUP2 MSTORE PUSH1 0x40 PUSH1 0x0 KECCAK256 DUP4 PUSH1 0x0 MSTORE DUP2 MSTORE PUSH1 0x40 PUSH1 0x0 KECCAK256 SLOAD SWAP1 PUSH1 0x40 MLOAD SWAP3 DUP4 MSTORE DUP3 ADD MSTORE PUSH32 0x91FB9D98B786C57D74C099CCD2BECA1739E9F6A81FB49001CA465C4B7591BBE2 PUSH1 0x40 CALLER SWAP3 LOG3 PUSH1 0x1 PUSH1 0x0 SSTORE STOP JUMPDEST PUSH1 0x40 MLOAD PUSH4 0x3A23D825 PUSH1 0xE0 SHL DUP2 MSTORE PUSH1 0x4 SWAP1 REVERT JUMPDEST GT SWAP1 POP DUP5 DUP1 PUSH2 0x37B JUMP JUMPDEST PUSH1 0x40 MLOAD PUSH4 0x1E9ACF17 PUSH1 0xE3 SHL DUP2 MSTORE PUSH1 0x4 SWAP1 REVERT JUMPDEST PUSH1 0x40 MLOAD PUSH4 0x1F2A2005 PUSH1 0xE0 SHL DUP2 MSTORE PUSH1 0x4 SWAP1 REVERT JUMPDEST CALLVALUE PUSH2 0x1C1 JUMPI PUSH1 0x20 CALLDATASIZE PUSH1 0x3 NOT ADD SLT PUSH2 0x1C1 JUMPI PUSH2 0x477 PUSH2 0x19EA JUMP JUMPDEST PUSH2 0x47F PUSH2 0x1BEA JUMP JUMPDEST PUSH1 0x1 PUSH1 0x1 PUSH1 0xA0 SHL SUB SWAP1 DUP2 AND SWAP1 DUP2 ISZERO PUSH2 0x4D3 JUMPI PUSH1 0x1 SLOAD DUP3 PUSH12 0xFFFFFFFFFFFFFFFFFFFFFFFF PUSH1 0xA0 SHL DUP3 AND OR PUSH1 0x1 SSTORE AND PUSH32 0x8BE0079C531659141344CD1FD0A4F28419497F9722A3DAAFE3B4186F6B6457E0 PUSH1 0x0 DUP1 LOG3 STOP JUMPDEST PUSH1 0x40 MLOAD PUSH4 0x1E4FBDF7 PUSH1 0xE0 SHL DUP2 MSTORE PUSH1 0x0 PUSH1 0x4 DUP3 ADD MSTORE PUSH1 0x24 SWAP1 REVERT JUMPDEST CALLVALUE PUSH2 0x1C1 JUMPI PUSH1 0x20 CALLDATASIZE PUSH1 0x3 NOT ADD SLT PUSH2 0x1C1 JUMPI PUSH1 0x1 PUSH1 0x1 PUSH1 0xA0 SHL SUB PUSH2 0x50D PUSH2 0x19EA JUMP JUMPDEST AND PUSH1 0x0 MSTORE PUSH1 0x5 PUSH1 0x20 MSTORE PUSH1 0x40 PUSH1 0x0 KECCAK256 DUP1 SLOAD PUSH1 0x1 DUP1 DUP4 ADD SLOAD SWAP3 PUSH1 0x2 DUP2 ADD SLOAD SWAP1 PUSH1 0x3 DUP2 ADD PUSH1 0x40 MLOAD SWAP4 DUP5 SWAP2 PUSH1 0x0 SWAP2 DUP2 SLOAD SWAP2 PUSH2 0x543 DUP4 PUSH2 0x1AF9 JUMP JUMPDEST DUP1 DUP7 MSTORE SWAP3 DUP3 DUP2 AND SWAP1 DUP2 ISZERO PUSH2 0x6F2 JUMPI POP PUSH1 0x1 EQ PUSH2 0x6AF JUMPI JUMPDEST POP POP POP SUB PUSH2 0x568 SWAP1 DUP5 PUSH2 0x1A33 JUMP JUMPDEST PUSH1 0x4 DUP2 ADD SLOAD SWAP3 PUSH1 0x5 DUP3 ADD SLOAD PUSH1 0x6 DUP4 ADD SLOAD PUSH1 0x7 DUP5 ADD SLOAD PUSH1 0x8 DUP6 ADD SLOAD SWAP1 PUSH1 0x40 MLOAD SWAP3 PUSH2 0x590 DUP5 PUSH2 0x1A16 JUMP JUMPDEST PUSH1 0x9 DUP8 ADD SLOAD DUP5 MSTORE PUSH1 0xA DUP8 ADD SLOAD PUSH1 0x20 DUP6 ADD MSTORE PUSH1 0xB DUP8 ADD SLOAD PUSH1 0x40 DUP6 ADD MSTORE PUSH1 0xC DUP8 ADD SLOAD PUSH1 0x60 DUP6 ADD MSTORE PUSH1 0xD DUP8 ADD SLOAD PUSH1 0x80 DUP6 ADD MSTORE PUSH1 0xE DUP8 ADD SLOAD PUSH1 0xA0 DUP6 ADD MSTORE PUSH1 0xF DUP8 ADD SLOAD PUSH1 0xC0 DUP6 ADD MSTORE PUSH1 0x10 DUP8 ADD SLOAD PUSH1 0xE0 DUP6 ADD MSTORE PUSH1 0x11 DUP8 ADD SLOAD PUSH2 0x100 DUP6 ADD MSTORE PUSH1 0x12 DUP8 ADD SLOAD PUSH2 0x120 DUP6 ADD MSTORE PUSH1 0x13 DUP8 ADD SLOAD PUSH2 0x140 DUP6 ADD MSTORE PUSH1 0x14 DUP8 ADD SLOAD PUSH2 0x160 DUP6 ADD MSTORE PUSH1 0x15 DUP8 ADD SLOAD SWAP5 PUSH1 0x16 DUP9 ADD SLOAD SWAP7 PUSH1 0x17 DUP10 ADD SLOAD SWAP9 PUSH1 0x18 ADD SLOAD SWAP10 PUSH1 0x40 MLOAD SWAP14 DUP15 DUP15 DUP2 SWAP16 PUSH1 0xFF AND ISZERO ISZERO DUP3 MSTORE DUP1 PUSH1 0x8 SHR PUSH1 0xFF AND ISZERO ISZERO PUSH1 0x20 DUP4 ADD MSTORE PUSH1 0x10 SHR PUSH1 0xFF AND ISZERO ISZERO PUSH1 0x40 DUP3 ADD MSTORE PUSH1 0x60 ADD MSTORE PUSH1 0x80 DUP14 ADD MSTORE DUP12 PUSH2 0x360 PUSH1 0xA0 DUP2 SWAP3 ADD MSTORE DUP13 ADD PUSH2 0x668 SWAP2 PUSH2 0x1B33 JUMP JUMPDEST SWAP10 PUSH1 0xC0 DUP13 ADD MSTORE PUSH1 0xE0 DUP12 ADD MSTORE PUSH2 0x100 DUP11 ADD MSTORE PUSH2 0x120 DUP10 ADD MSTORE PUSH2 0x140 DUP9 ADD MSTORE PUSH2 0x160 DUP8 ADD PUSH2 0x693 SWAP2 PUSH2 0x1B73 JUMP JUMPDEST PUSH2 0x2E0 DUP7 ADD MSTORE PUSH2 0x300 DUP6 ADD MSTORE PUSH2 0x320 DUP5 ADD MSTORE PUSH2 0x340 DUP4 ADD MSTORE SUB SWAP1 RETURN JUMPDEST PUSH1 0x0 SWAP1 DUP2 MSTORE PUSH1 0x20 DUP2 KECCAK256 SWAP3 SWAP5 SWAP4 POP SWAP2 JUMPDEST DUP5 DUP4 LT PUSH2 0x6D7 JUMPI POP POP DUP2 PUSH1 0x20 SWAP3 SWAP4 POP ADD ADD DUP8 DUP1 DUP1 PUSH2 0x55A JUMP JUMPDEST DUP2 SWAP4 POP SWAP1 DUP2 PUSH1 0x20 SWAP3 SLOAD DUP4 DUP6 DUP12 ADD ADD MSTORE ADD SWAP2 ADD SWAP1 SWAP2 DUP7 SWAP3 PUSH2 0x6BE JUMP JUMPDEST SWAP3 POP POP POP PUSH1 0x20 SWAP3 POP PUSH1 0xFF NOT AND DUP3 DUP5 ADD MSTORE ISZERO ISZERO PUSH1 0x5 SHL DUP3 ADD ADD DUP8 DUP1 DUP1 PUSH2 0x55A JUMP JUMPDEST CALLVALUE PUSH2 0x1C1 JUMPI PUSH1 0x20 CALLDATASIZE PUSH1 0x3 NOT ADD SLT PUSH2 0x1C1 JUMPI PUSH1 0x20 PUSH2 0x1B9 PUSH2 0x730 PUSH2 0x19EA JUMP JUMPDEST PUSH2 0x2677 JUMP JUMPDEST CALLVALUE PUSH2 0x1C1 JUMPI PUSH1 0x0 CALLDATASIZE PUSH1 0x3 NOT ADD SLT PUSH2 0x1C1 JUMPI PUSH1 0x20 PUSH1 0x40 MLOAD PUSH4 0x1E13380 DUP2 MSTORE RETURN JUMPDEST CALLVALUE PUSH2 0x1C1 JUMPI PUSH1 0x0 CALLDATASIZE PUSH1 0x3 NOT ADD SLT PUSH2 0x1C1 JUMPI PUSH1 0x20 PUSH1 0x40 MLOAD PUSH2 0x2710 DUP2 MSTORE RETURN JUMPDEST CALLVALUE PUSH2 0x1C1 JUMPI PUSH1 0x20 CALLDATASIZE PUSH1 0x3 NOT ADD SLT PUSH2 0x1C1 JUMPI PUSH1 0x20 PUSH2 0x1B9 PUSH2 0x78F PUSH2 0x19EA JUMP JUMPDEST PUSH2 0x24F2 JUMP JUMPDEST CALLVALUE PUSH2 0x1C1 JUMPI PUSH1 0x20 CALLDATASIZE PUSH1 0x3 NOT ADD SLT PUSH2 0x1C1 JUMPI PUSH1 0x4 CALLDATALOAD PUSH1 0x7 SLOAD DUP2 LT ISZERO PUSH2 0x1C1 JUMPI PUSH2 0x7BD PUSH1 0x20 SWAP2 PUSH2 0x1AAC JUMP JUMPDEST SWAP1 SLOAD PUSH1 0x40 MLOAD PUSH1 0x3 SWAP3 SWAP1 SWAP3 SHL SHR PUSH1 0x1 PUSH1 0x1 PUSH1 0xA0 SHL SUB AND DUP2 MSTORE RETURN JUMPDEST CALLVALUE PUSH2 0x1C1 JUMPI PUSH1 0x20 CALLDATASIZE PUSH1 0x3 NOT ADD SLT PUSH2 0x1C1 JUMPI PUSH1 0x20 PUSH2 0x1B9 PUSH2 0x7F4 PUSH2 0x19EA JUMP JUMPDEST PUSH2 0x26F6 JUMP JUMPDEST CALLVALUE PUSH2 0x1C1 JUMPI PUSH1 0x0 CALLDATASIZE PUSH1 0x3 NOT ADD SLT PUSH2 0x1C1 JUMPI PUSH1 0x20 PUSH1 0x40 MLOAD PUSH8 0xDE0B6B3A7640000 DUP2 MSTORE RETURN JUMPDEST CALLVALUE PUSH2 0x1C1 JUMPI PUSH1 0x20 CALLDATASIZE PUSH1 0x3 NOT ADD SLT PUSH2 0x1C1 JUMPI PUSH2 0x835 PUSH2 0x19EA JUMP JUMPDEST PUSH1 0x1 PUSH1 0x1 PUSH1 0xA0 SHL SUB DUP2 AND PUSH1 0x0 SWAP1 DUP2 MSTORE PUSH1 0x5 PUSH1 0x20 MSTORE PUSH1 0x40 SWAP1 KECCAK256 PUSH2 0x856 DUP3 PUSH2 0x1C63 JUMP JUMPDEST SWAP1 PUSH1 0x5 DUP2 ADD SLOAD SWAP3 DUP4 ISZERO SWAP1 DUP2 PUSH1 0x0 EQ PUSH2 0x8D4 JUMPI PUSH1 0x0 SWAP3 JUMPDEST PUSH2 0x87A PUSH1 0x15 DUP3 ADD SLOAD SWAP3 PUSH2 0x1F12 JUMP JUMPDEST SWAP3 PUSH2 0x8C7 JUMPI PUSH1 0x6 ADD SLOAD PUSH8 0xDE0B6B3A7640000 SWAP1 DUP2 DUP2 MUL SWAP2 DUP2 DUP4 DIV EQ SWAP1 ISZERO OR ISZERO PUSH2 0x29D JUMPI PUSH1 0xA0 SWAP6 PUSH2 0x8A9 SWAP2 PUSH2 0x1C29 JUMP JUMPDEST SWAP3 JUMPDEST PUSH1 0x40 MLOAD SWAP5 DUP6 MSTORE PUSH1 0x20 DUP6 ADD MSTORE PUSH1 0x40 DUP5 ADD MSTORE PUSH1 0x60 DUP4 ADD MSTORE PUSH1 0x80 DUP3 ADD MSTORE RETURN JUMPDEST POP PUSH1 0xA0 SWAP5 POP PUSH1 0x0 SWAP3 PUSH2 0x8AB JUMP JUMPDEST PUSH1 0x6 DUP4 ADD SLOAD PUSH2 0x2710 SWAP1 DUP2 DUP2 MUL SWAP2 DUP2 DUP4 DIV EQ SWAP1 ISZERO OR ISZERO PUSH2 0x29D JUMPI DUP6 PUSH2 0x8F7 SWAP2 PUSH2 0x1C29 JUMP JUMPDEST SWAP3 PUSH2 0x86C JUMP JUMPDEST CALLVALUE PUSH2 0x1C1 JUMPI PUSH1 0x20 CALLDATASIZE PUSH1 0x3 NOT ADD SLT PUSH2 0x1C1 JUMPI PUSH1 0x40 PUSH2 0x920 PUSH2 0x91B PUSH2 0x19EA JUMP JUMPDEST PUSH2 0x29C6 JUMP JUMPDEST DUP3 MLOAD SWAP2 ISZERO ISZERO DUP3 MSTORE PUSH1 0x20 DUP3 ADD MSTORE RETURN JUMPDEST CALLVALUE PUSH2 0x1C1 JUMPI PUSH1 0x0 CALLDATASIZE PUSH1 0x3 NOT ADD SLT PUSH2 0x1C1 JUMPI PUSH1 0x20 PUSH1 0x4 SLOAD PUSH1 0x40 MLOAD SWAP1 DUP2 MSTORE RETURN JUMPDEST CALLVALUE PUSH2 0x1C1 JUMPI PUSH1 0x20 CALLDATASIZE PUSH1 0x3 NOT ADD SLT PUSH2 0x1C1 JUMPI PUSH1 0x20 PUSH2 0x1B9 PUSH2 0x96A PUSH2 0x19EA JUMP JUMPDEST PUSH2 0x1F12 JUMP JUMPDEST CALLVALUE PUSH2 0x1C1 JUMPI PUSH1 0x60 CALLDATASIZE PUSH1 0x3 NOT ADD SLT PUSH2 0x1C1 JUMPI PUSH2 0x988 PUSH2 0x19EA JUMP JUMPDEST PUSH1 0x24 CALLDATALOAD PUSH8 0xFFFFFFFFFFFFFFFF DUP2 GT PUSH2 0x1C1 JUMPI PUSH2 0xA3B PUSH2 0x9CC PUSH32 0x2DACEF4D2C121E599A3E080C58437B103D67B8AD9E118317C3F4F92B4AF6F576 SWAP3 CALLDATASIZE SWAP1 PUSH1 0x4 ADD PUSH2 0x1A55 JUMP JUMPDEST PUSH1 0x44 CALLDATALOAD SWAP4 PUSH2 0x9D8 PUSH2 0x1BEA JUMP JUMPDEST PUSH1 0x1 DUP1 PUSH1 0xA0 SHL SUB AND SWAP4 DUP5 PUSH1 0x0 MSTORE PUSH1 0x5 PUSH1 0x20 MSTORE DUP1 PUSH1 0x40 PUSH1 0x0 KECCAK256 DUP4 MLOAD PUSH1 0x20 DUP6 ADD KECCAK256 PUSH32 0x9E36A3CC7D8C812D07501DD19DABEB3D8317632E6467A793E3650C433DE4B57B DUP2 EQ PUSH1 0x0 EQ PUSH2 0xA46 JUMPI POP PUSH1 0x9 ADD SSTORE JUMPDEST PUSH1 0x40 MLOAD SWAP3 DUP4 SWAP3 PUSH1 0x40 DUP5 MSTORE PUSH1 0x40 DUP5 ADD SWAP1 PUSH2 0x1B33 JUMP JUMPDEST SWAP1 PUSH1 0x20 DUP4 ADD MSTORE SUB SWAP1 LOG2 STOP JUMPDEST PUSH32 0x7C2018787885BA09A344D3EFF8CA42C8341EE3AB6E5048B32845D70898CB4DB7 DUP2 SUB PUSH2 0xA77 JUMPI POP PUSH1 0xC ADD SSTORE PUSH2 0xA27 JUMP JUMPDEST PUSH32 0x5399A23AAE8F64846550B1C6B414082D7C72CA7AD0450ACDC6437E28EE5806A7 DUP2 SUB PUSH2 0xAA8 JUMPI POP PUSH1 0xB ADD SSTORE PUSH2 0xA27 JUMP JUMPDEST PUSH32 0x142E8BDD2CEA082964F29884AC2E726272A82403140FE1C907E0F14421953A48 DUP2 SUB PUSH2 0xAD9 JUMPI POP PUSH1 0xD ADD SSTORE PUSH2 0xA27 JUMP JUMPDEST PUSH32 0xABB395850DC85D38FA0604C5CA361DA41B32487DDA0CFF2A65C36F198F257DAC EQ PUSH2 0xB07 JUMPI JUMPDEST POP POP PUSH2 0xA27 JUMP JUMPDEST PUSH1 0xE ADD SSTORE DUP1 DUP7 PUSH2 0xB00 JUMP JUMPDEST CALLVALUE PUSH2 0x1C1 JUMPI PUSH1 0x0 CALLDATASIZE PUSH1 0x3 NOT ADD SLT PUSH2 0x1C1 JUMPI PUSH1 0x1 SLOAD PUSH1 0x40 MLOAD PUSH1 0x1 PUSH1 0x1 PUSH1 0xA0 SHL SUB SWAP1 SWAP2 AND DUP2 MSTORE PUSH1 0x20 SWAP1 RETURN JUMPDEST CALLVALUE PUSH2 0x1C1 JUMPI PUSH1 0x20 CALLDATASIZE PUSH1 0x3 NOT ADD SLT PUSH2 0x1C1 JUMPI PUSH1 0x20 PUSH2 0x1B9 PUSH2 0xB59 PUSH2 0x19EA JUMP JUMPDEST PUSH2 0x1C63 JUMP JUMPDEST CALLVALUE PUSH2 0x1C1 JUMPI PUSH1 0x40 CALLDATASIZE PUSH1 0x3 NOT ADD SLT PUSH2 0x1C1 JUMPI PUSH1 0x20 PUSH2 0x1B9 PUSH2 0xB7C PUSH2 0x19EA JUMP JUMPDEST PUSH1 0x24 CALLDATALOAD SWAP1 PUSH2 0x1DBB JUMP JUMPDEST CALLVALUE PUSH2 0x1C1 JUMPI PUSH1 0x60 CALLDATASIZE PUSH1 0x3 NOT ADD SLT PUSH2 0x1C1 JUMPI PUSH2 0xB9E PUSH2 0x19EA JUMP JUMPDEST PUSH2 0xBA6 PUSH2 0x1A00 JUMP JUMPDEST PUSH1 0x44 CALLDATALOAD PUSH2 0xBB1 PUSH2 0x2319 JUMP JUMPDEST PUSH2 0xBBA DUP4 PUSH2 0x29C6 JUMP JUMPDEST SWAP1 ISZERO PUSH2 0xDB4 JUMPI PUSH1 0x1 DUP1 PUSH1 0xA0 SHL SUB DUP1 DUP6 AND SWAP3 DUP4 PUSH1 0x0 MSTORE PUSH1 0x20 PUSH1 0x6 DUP2 MSTORE PUSH1 0x40 PUSH1 0x0 KECCAK256 SWAP7 PUSH1 0xFF PUSH1 0x4 DUP10 ADD SLOAD AND ISZERO DUP1 ISZERO PUSH2 0xDA7 JUMPI JUMPDEST ISZERO PUSH2 0xD6C JUMPI DUP5 PUSH2 0xBFA SWAP2 PUSH2 0x1DBB JUMP JUMPDEST SWAP3 PUSH2 0xC04 DUP8 PUSH2 0x26F6 JUMP JUMPDEST PUSH2 0xC0E DUP5 DUP10 PUSH2 0x2927 JUMP JUMPDEST PUSH2 0x2710 SWAP1 DUP7 DUP3 ADD DUP1 DUP4 GT PUSH2 0x29D JUMPI PUSH2 0xC25 SWAP2 PUSH2 0x1C16 JUMP JUMPDEST SWAP2 DUP2 DUP2 MUL SWAP2 DUP2 DUP4 DIV EQ SWAP1 ISZERO OR ISZERO PUSH2 0x29D JUMPI PUSH2 0xC3F SWAP2 PUSH2 0x1C29 JUMP JUMPDEST SWAP7 AND SWAP7 DUP8 PUSH1 0x0 MSTORE DUP1 DUP3 MSTORE PUSH1 0x40 PUSH1 0x0 KECCAK256 SLOAD DUP8 GT PUSH2 0xD27 JUMPI PUSH1 0x7 SWAP1 PUSH2 0xC64 DUP5 ADDRESS CALLER DUP13 PUSH2 0x2262 JUMP JUMPDEST DUP9 PUSH1 0x0 MSTORE DUP1 DUP4 MSTORE PUSH1 0x40 PUSH1 0x0 KECCAK256 PUSH2 0xC7B DUP10 DUP3 SLOAD PUSH2 0x1C49 JUMP JUMPDEST SWAP1 SSTORE DUP9 PUSH1 0x0 MSTORE PUSH1 0x1 DUP2 ADD DUP4 MSTORE PUSH1 0x40 PUSH1 0x0 KECCAK256 PUSH2 0xC97 DUP6 DUP3 SLOAD PUSH2 0x1C49 JUMP JUMPDEST SWAP1 SSTORE ADD SWAP1 DUP2 SLOAD PUSH1 0x1 DUP2 ADD DUP1 SWAP2 GT PUSH2 0x29D JUMPI PUSH32 0xE04D542432D45C3F3F92FD452FE5CEAA2B847F344BA466CDFF8F6288AD1C24B5 SWAP6 DUP6 PUSH32 0x7050EBC725C1F82900D703C39BFA0140A8434DEEFD2A0CCF97D8377EB25232A8 SWAP4 PUSH1 0x40 SWAP4 DUP11 SWAP7 SSTORE PUSH2 0xCFF DUP12 DUP14 CALLER SWAP1 PUSH2 0x233C JUMP JUMPDEST DUP4 MLOAD SWAP3 DUP4 MSTORE DUP3 ADD MSTORE LOG2 PUSH1 0x40 DUP1 MLOAD SWAP6 DUP7 MSTORE PUSH1 0x20 DUP7 ADD SWAP2 SWAP1 SWAP2 MSTORE DUP5 ADD MSTORE CALLER SWAP3 PUSH1 0x60 SWAP1 LOG4 PUSH1 0x1 PUSH1 0x0 SSTORE STOP JUMPDEST PUSH1 0x40 MLOAD PUSH3 0x461BCD PUSH1 0xE5 SHL DUP2 MSTORE PUSH1 0x4 DUP2 ADD DUP4 SWAP1 MSTORE PUSH1 0x17 PUSH1 0x24 DUP3 ADD MSTORE PUSH32 0x496E73756666696369656E7420636F6C6C61746572616C000000000000000000 PUSH1 0x44 DUP3 ADD MSTORE PUSH1 0x64 SWAP1 REVERT JUMPDEST PUSH1 0x40 MLOAD PUSH3 0x461BCD PUSH1 0xE5 SHL DUP2 MSTORE PUSH1 0x4 DUP2 ADD DUP4 SWAP1 MSTORE PUSH1 0x13 PUSH1 0x24 DUP3 ADD MSTORE PUSH19 0x477261636520706572696F6420616374697665 PUSH1 0x68 SHL PUSH1 0x44 DUP3 ADD MSTORE PUSH1 0x64 SWAP1 REVERT JUMPDEST POP PUSH1 0x5 DUP9 ADD SLOAD TIMESTAMP GT PUSH2 0xBEB JUMP JUMPDEST PUSH1 0x40 MLOAD PUSH4 0x32C9FEA9 PUSH1 0xE1 SHL DUP2 MSTORE PUSH1 0x4 SWAP1 REVERT JUMPDEST CALLVALUE PUSH2 0x1C1 JUMPI PUSH1 0x20 CALLDATASIZE PUSH1 0x3 NOT ADD SLT PUSH2 0x1C1 JUMPI PUSH2 0xDE7 PUSH2 0xDE2 PUSH2 0x19EA JUMP JUMPDEST PUSH2 0x238C JUMP JUMPDEST STOP JUMPDEST CALLVALUE PUSH2 0x1C1 JUMPI PUSH1 0x0 CALLDATASIZE PUSH1 0x3 NOT ADD SLT PUSH2 0x1C1 JUMPI PUSH2 0xE02 PUSH2 0x1BEA JUMP JUMPDEST PUSH1 0x1 DUP1 SLOAD PUSH1 0x1 PUSH1 0x1 PUSH1 0xA0 SHL SUB NOT DUP2 AND SWAP1 SWAP2 SSTORE PUSH1 0x0 SWAP1 PUSH1 0x1 PUSH1 0x1 PUSH1 0xA0 SHL SUB AND PUSH32 0x8BE0079C531659141344CD1FD0A4F28419497F9722A3DAAFE3B4186F6B6457E0 DUP3 DUP1 LOG3 STOP JUMPDEST CALLVALUE PUSH2 0x1C1 JUMPI PUSH1 0x20 CALLDATASIZE PUSH1 0x3 NOT ADD SLT PUSH2 0x1C1 JUMPI PUSH2 0xDE7 PUSH2 0xE62 PUSH2 0x19EA JUMP JUMPDEST PUSH2 0x211B JUMP JUMPDEST CALLVALUE PUSH2 0x1C1 JUMPI PUSH1 0x40 CALLDATASIZE PUSH1 0x3 NOT ADD SLT PUSH2 0x1C1 JUMPI PUSH2 0xE80 PUSH2 0x19EA JUMP JUMPDEST PUSH2 0xE88 PUSH2 0x1A00 JUMP JUMPDEST SWAP1 PUSH1 0x1 DUP1 PUSH1 0xA0 SHL SUB DUP1 SWAP2 AND PUSH1 0x0 MSTORE PUSH1 0x8 PUSH1 0x20 MSTORE PUSH1 0x40 PUSH1 0x0 KECCAK256 SWAP2 AND PUSH1 0x0 MSTORE PUSH1 0x20 MSTORE PUSH1 0x20 PUSH1 0x40 PUSH1 0x0 KECCAK256 SLOAD PUSH1 0x40 MLOAD SWAP1 DUP2 MSTORE RETURN JUMPDEST CALLVALUE PUSH2 0x1C1 JUMPI PUSH2 0x240 CALLDATASIZE PUSH1 0x3 NOT ADD SLT PUSH2 0x1C1 JUMPI PUSH2 0xED2 PUSH2 0x19EA JUMP JUMPDEST PUSH1 0x64 CALLDATALOAD PUSH8 0xFFFFFFFFFFFFFFFF DUP2 GT PUSH2 0x1C1 JUMPI PUSH2 0xEF2 SWAP1 CALLDATASIZE SWAP1 PUSH1 0x4 ADD PUSH2 0x1A55 JUMP JUMPDEST SWAP1 PUSH1 0x84 CALLDATALOAD DUP1 ISZERO ISZERO DUP2 SUB PUSH2 0x1C1 JUMPI PUSH1 0xA4 CALLDATALOAD SWAP3 DUP4 ISZERO ISZERO DUP5 SUB PUSH2 0x1C1 JUMPI PUSH2 0x180 CALLDATASIZE PUSH1 0xC3 NOT ADD SLT PUSH2 0x1C1 JUMPI PUSH1 0x40 MLOAD SWAP4 PUSH2 0xF26 DUP6 PUSH2 0x1A16 JUMP JUMPDEST PUSH1 0xC4 CALLDATALOAD DUP6 MSTORE PUSH1 0xE4 CALLDATALOAD PUSH1 0x20 DUP7 ADD MSTORE PUSH2 0x104 CALLDATALOAD PUSH1 0x40 DUP7 ADD MSTORE PUSH2 0x124 CALLDATALOAD PUSH1 0x60 DUP7 ADD MSTORE PUSH2 0x144 CALLDATALOAD PUSH1 0x80 DUP7 ADD MSTORE PUSH2 0x164 CALLDATALOAD PUSH1 0xA0 DUP7 ADD MSTORE PUSH2 0x184 CALLDATALOAD PUSH1 0xC0 DUP7 ADD MSTORE PUSH2 0x1A4 CALLDATALOAD PUSH1 0xE0 DUP7 ADD MSTORE PUSH2 0x1C4 CALLDATALOAD PUSH2 0x100 DUP7 ADD MSTORE PUSH2 0x1E4 CALLDATALOAD PUSH2 0x120 DUP7 ADD MSTORE PUSH2 0x204 CALLDATALOAD PUSH2 0x140 DUP7 ADD MSTORE PUSH2 0x224 CALLDATALOAD PUSH2 0x160 DUP7 ADD MSTORE PUSH2 0xF99 PUSH2 0x1BEA JUMP JUMPDEST PUSH1 0x44 CALLDATALOAD PUSH1 0x24 CALLDATALOAD GT PUSH2 0x146D JUMPI PUSH2 0x251C PUSH1 0x44 CALLDATALOAD GT PUSH2 0x1433 JUMPI DUP5 MLOAD PUSH1 0x60 DUP7 ADD MLOAD LT PUSH2 0x13F9 JUMPI PUSH1 0x80 DUP6 ADD MLOAD PUSH1 0xA0 DUP7 ADD MLOAD LT PUSH2 0x13BC JUMPI PUSH1 0xE0 DUP6 ADD MLOAD PUSH2 0x120 DUP7 ADD MLOAD LT PUSH2 0x137F JUMPI PUSH1 0x40 MLOAD SWAP3 DUP4 PUSH2 0x200 DUP2 ADD LT PUSH8 0xFFFFFFFFFFFFFFFF PUSH2 0x200 DUP7 ADD GT OR PUSH2 0x12A1 JUMPI PUSH2 0x200 DUP5 ADD PUSH1 0x40 MSTORE PUSH1 0x1 DUP5 MSTORE ISZERO ISZERO PUSH1 0x20 DUP5 ADD MSTORE ISZERO ISZERO PUSH1 0x40 DUP4 ADD MSTORE PUSH1 0x24 CALLDATALOAD PUSH1 0x60 DUP4 ADD MSTORE PUSH1 0x44 CALLDATALOAD PUSH1 0x80 DUP4 ADD MSTORE PUSH1 0xA0 DUP3 ADD MSTORE TIMESTAMP PUSH1 0xC0 DUP3 ADD MSTORE PUSH1 0x0 PUSH1 0xE0 DUP3 ADD MSTORE PUSH1 0x0 PUSH2 0x100 DUP3 ADD MSTORE PUSH1 0x0 PUSH2 0x120 DUP3 ADD MSTORE PUSH2 0x3E8 PUSH2 0x140 DUP3 ADD MSTORE DUP3 PUSH2 0x160 DUP3 ADD MSTORE PUSH8 0x16345785D8A0000 PUSH2 0x180 DUP3 ADD MSTORE TIMESTAMP PUSH2 0x1A0 DUP3 ADD MSTORE PUSH4 0x5F5E100 PUSH2 0x1C0 DUP3 ADD MSTORE PUSH4 0x5F5E100 PUSH2 0x1E0 DUP3 ADD MSTORE PUSH1 0x1 DUP1 PUSH1 0xA0 SHL SUB DUP3 AND PUSH1 0x0 MSTORE PUSH1 0x5 PUSH1 0x20 MSTORE PUSH1 0x40 PUSH1 0x0 KECCAK256 SWAP1 DUP1 MLOAD ISZERO ISZERO DUP3 SLOAD SWAP1 PUSH1 0x20 DUP4 ADD MLOAD ISZERO ISZERO SWAP2 PUSH1 0xFF PUSH2 0xFF00 PUSH3 0xFF0000 PUSH1 0x40 DUP8 ADD MLOAD ISZERO ISZERO PUSH1 0x10 SHL AND SWAP5 PUSH1 0x8 SHL AND SWAP3 AND SWAP1 PUSH3 0xFFFFFF NOT AND OR OR OR DUP3 SSTORE PUSH1 0x60 DUP2 ADD MLOAD PUSH1 0x1 DUP4 ADD SSTORE PUSH1 0x80 DUP2 ADD MLOAD PUSH1 0x2 DUP4 ADD SSTORE PUSH1 0xA0 DUP2 ADD MLOAD DUP1 MLOAD SWAP1 PUSH8 0xFFFFFFFFFFFFFFFF DUP3 GT PUSH2 0x12A1 JUMPI PUSH2 0x1106 PUSH1 0x3 DUP6 ADD SLOAD PUSH2 0x1AF9 JUMP JUMPDEST PUSH1 0x1F DUP2 GT PUSH2 0x1338 JUMPI JUMPDEST POP PUSH1 0x20 SWAP1 PUSH1 0x1F DUP4 GT PUSH1 0x1 EQ PUSH2 0x12C2 JUMPI SWAP2 DUP1 PUSH1 0x18 SWAP5 SWAP3 PUSH2 0x1E0 SWAP5 PUSH1 0x0 SWAP3 PUSH2 0x12B7 JUMPI JUMPDEST POP POP DUP2 PUSH1 0x1 SHL SWAP2 PUSH1 0x0 NOT SWAP1 PUSH1 0x3 SHL SHR NOT AND OR PUSH1 0x3 DUP6 ADD SSTORE JUMPDEST PUSH1 0xC0 DUP2 ADD MLOAD PUSH1 0x4 DUP6 ADD SSTORE PUSH1 0xE0 DUP2 ADD MLOAD PUSH1 0x5 DUP6 ADD SSTORE PUSH2 0x100 DUP2 ADD MLOAD PUSH1 0x6 DUP6 ADD SSTORE PUSH2 0x120 DUP2 ADD MLOAD PUSH1 0x7 DUP6 ADD SSTORE PUSH2 0x140 DUP2 ADD MLOAD PUSH1 0x8 DUP6 ADD SSTORE PUSH2 0x160 DUP1 DUP3 ADD MLOAD DUP1 MLOAD PUSH1 0x9 DUP8 ADD SSTORE PUSH1 0x20 DUP2 ADD MLOAD PUSH1 0xA DUP8 ADD SSTORE PUSH1 0x40 DUP2 ADD MLOAD PUSH1 0xB DUP8 ADD SSTORE PUSH1 0x60 DUP2 ADD MLOAD PUSH1 0xC DUP8 ADD SSTORE PUSH1 0x80 DUP2 ADD MLOAD PUSH1 0xD DUP8 ADD SSTORE PUSH1 0xA0 DUP2 ADD MLOAD PUSH1 0xE DUP8 ADD SSTORE PUSH1 0xC0 DUP2 ADD MLOAD PUSH1 0xF DUP8 ADD SSTORE PUSH1 0xE0 DUP2 ADD MLOAD PUSH1 0x10 DUP8 ADD SSTORE PUSH2 0x100 DUP2 ADD MLOAD PUSH1 0x11 DUP8 ADD SSTORE PUSH2 0x120 DUP2 ADD MLOAD PUSH1 0x12 DUP8 ADD SSTORE PUSH2 0x140 DUP2 ADD MLOAD PUSH1 0x13 DUP8 ADD SSTORE ADD MLOAD PUSH1 0x14 DUP6 ADD SSTORE PUSH2 0x180 DUP2 ADD MLOAD PUSH1 0x15 DUP6 ADD SSTORE PUSH2 0x1A0 DUP2 ADD MLOAD PUSH1 0x16 DUP6 ADD SSTORE PUSH2 0x1C0 DUP2 ADD MLOAD PUSH1 0x17 DUP6 ADD SSTORE ADD MLOAD SWAP2 ADD SSTORE PUSH1 0x7 SLOAD PUSH9 0x10000000000000000 DUP2 LT ISZERO PUSH2 0x12A1 JUMPI PUSH32 0x13C9FBD7B4C5E22C3D41C025934CEF3CE89026482DD3EDFF2C197B7337D3859A SWAP2 PUSH2 0x1268 DUP3 PUSH1 0x1 PUSH2 0x180 SWAP5 ADD PUSH1 0x7 SSTORE PUSH2 0x1AAC JUMP JUMPDEST DUP2 SLOAD PUSH1 0x1 PUSH1 0x1 PUSH1 0xA0 SHL SUB DUP5 DUP2 AND PUSH1 0x3 SWAP4 SWAP1 SWAP4 SHL SWAP3 DUP4 SHL SWAP3 SHL NOT AND OR SWAP1 SSTORE PUSH1 0x40 MLOAD SWAP4 PUSH2 0x1294 SWAP1 DUP6 SWAP1 PUSH2 0x1B73 JUMP JUMPDEST PUSH1 0x1 PUSH1 0x1 PUSH1 0xA0 SHL SUB AND SWAP3 LOG2 STOP JUMPDEST PUSH4 0x4E487B71 PUSH1 0xE0 SHL PUSH1 0x0 MSTORE PUSH1 0x41 PUSH1 0x4 MSTORE PUSH1 0x24 PUSH1 0x0 REVERT JUMPDEST ADD MLOAD SWAP1 POP DUP9 DUP1 PUSH2 0x1130 JUMP JUMPDEST SWAP1 PUSH1 0x3 DUP6 ADD PUSH1 0x0 MSTORE PUSH1 0x20 PUSH1 0x0 KECCAK256 SWAP2 PUSH1 0x0 JUMPDEST PUSH1 0x1F NOT DUP6 AND DUP2 LT PUSH2 0x1320 JUMPI POP SWAP3 PUSH1 0x18 SWAP5 SWAP3 PUSH1 0x1 SWAP3 PUSH2 0x1E0 SWAP6 DUP4 PUSH1 0x1F NOT DUP2 AND LT PUSH2 0x1307 JUMPI JUMPDEST POP POP POP DUP2 SHL ADD PUSH1 0x3 DUP6 ADD SSTORE PUSH2 0x1148 JUMP JUMPDEST ADD MLOAD PUSH1 0x0 NOT PUSH1 0xF8 DUP5 PUSH1 0x3 SHL AND SHR NOT AND SWAP1 SSTORE DUP9 DUP1 DUP1 PUSH2 0x12F7 JUMP JUMPDEST SWAP2 SWAP3 PUSH1 0x20 PUSH1 0x1 DUP2 SWAP3 DUP7 DUP6 ADD MLOAD DUP2 SSTORE ADD SWAP5 ADD SWAP3 ADD PUSH2 0x12D3 JUMP JUMPDEST PUSH1 0x3 DUP6 ADD PUSH1 0x0 MSTORE PUSH1 0x20 PUSH1 0x0 KECCAK256 PUSH1 0x1F DUP5 ADD PUSH1 0x5 SHR DUP2 ADD PUSH1 0x20 DUP6 LT PUSH2 0x1378 JUMPI JUMPDEST PUSH1 0x1F DUP4 ADD PUSH1 0x5 SHR DUP3 ADD DUP2 LT PUSH2 0x136C JUMPI POP POP PUSH2 0x110F JUMP JUMPDEST PUSH1 0x0 DUP2 SSTORE PUSH1 0x1 ADD PUSH2 0x1356 JUMP JUMPDEST POP DUP1 PUSH2 0x1356 JUMP JUMPDEST PUSH1 0x40 MLOAD PUSH3 0x461BCD PUSH1 0xE5 SHL DUP2 MSTORE PUSH1 0x20 PUSH1 0x4 DUP3 ADD MSTORE PUSH1 0x15 PUSH1 0x24 DUP3 ADD MSTORE PUSH21 0x496E76616C69642068616972637574206375727665 PUSH1 0x58 SHL PUSH1 0x44 DUP3 ADD MSTORE PUSH1 0x64 SWAP1 REVERT JUMPDEST PUSH1 0x40 MLOAD PUSH3 0x461BCD PUSH1 0xE5 SHL DUP2 MSTORE PUSH1 0x20 PUSH1 0x4 DUP3 ADD MSTORE PUSH1 0x15 PUSH1 0x24 DUP3 ADD MSTORE PUSH21 0x496E76616C69642070656E616C7479206375727665 PUSH1 0x58 SHL PUSH1 0x44 DUP3 ADD MSTORE PUSH1 0x64 SWAP1 REVERT JUMPDEST PUSH1 0x40 MLOAD PUSH3 0x461BCD PUSH1 0xE5 SHL DUP2 MSTORE PUSH1 0x20 PUSH1 0x4 DUP3 ADD MSTORE PUSH1 0x12 PUSH1 0x24 DUP3 ADD MSTORE PUSH18 0x496E76616C69642072617465206375727665 PUSH1 0x70 SHL PUSH1 0x44 DUP3 ADD MSTORE PUSH1 0x64 SWAP1 REVERT JUMPDEST PUSH1 0x40 MLOAD PUSH3 0x461BCD PUSH1 0xE5 SHL DUP2 MSTORE PUSH1 0x20 PUSH1 0x4 DUP3 ADD MSTORE PUSH1 0x12 PUSH1 0x24 DUP3 ADD MSTORE PUSH18 0xA8D0E4CAE6D0DED8C840E8DEDE40D0D2CED PUSH1 0x73 SHL PUSH1 0x44 DUP3 ADD MSTORE PUSH1 0x64 SWAP1 REVERT JUMPDEST PUSH1 0x40 MLOAD PUSH3 0x461BCD PUSH1 0xE5 SHL DUP2 MSTORE PUSH1 0x20 PUSH1 0x4 DUP3 ADD MSTORE PUSH1 0xB PUSH1 0x24 DUP3 ADD MSTORE PUSH11 0x24B73B30B634B210262A2B PUSH1 0xA9 SHL PUSH1 0x44 DUP3 ADD MSTORE PUSH1 0x64 SWAP1 REVERT JUMPDEST CALLVALUE PUSH2 0x1C1 JUMPI PUSH1 0x40 CALLDATASIZE PUSH1 0x3 NOT ADD SLT PUSH2 0x1C1 JUMPI PUSH2 0x14B9 PUSH2 0x19EA JUMP JUMPDEST PUSH1 0x24 CALLDATALOAD PUSH2 0x14C4 PUSH2 0x2319 JUMP JUMPDEST DUP1 ISZERO PUSH2 0x44C JUMPI PUSH1 0x1 DUP1 PUSH1 0xA0 SHL SUB DUP3 AND SWAP2 DUP3 PUSH1 0x0 MSTORE PUSH1 0x20 SWAP1 PUSH1 0x5 DUP3 MSTORE PUSH1 0x40 PUSH1 0x0 KECCAK256 SWAP1 DUP2 SLOAD PUSH1 0xFF DUP2 AND ISZERO SWAP1 DUP2 ISZERO PUSH2 0x1679 JUMPI JUMPDEST POP PUSH2 0x1667 JUMPI PUSH2 0x1502 DUP2 PUSH2 0x238C JUMP JUMPDEST PUSH2 0x150B DUP2 PUSH2 0x211B JUMP JUMPDEST PUSH2 0x1531 PUSH2 0x1517 CALLER PUSH2 0x24F2 JUMP JUMPDEST SWAP2 PUSH2 0x152B DUP7 PUSH2 0x1525 CALLER PUSH2 0x2677 JUMP JUMPDEST SWAP3 PUSH2 0x2927 JUMP JUMPDEST SWAP1 PUSH2 0x1C56 JUMP JUMPDEST SWAP2 DUP2 DUP4 GT PUSH2 0x41E JUMPI PUSH1 0x40 MLOAD PUSH4 0x70A08231 PUSH1 0xE0 SHL DUP2 MSTORE ADDRESS PUSH1 0x4 DUP3 ADD MSTORE DUP5 DUP2 PUSH1 0x24 DUP2 DUP11 GAS STATICCALL SWAP1 DUP2 ISZERO PUSH2 0x165B JUMPI PUSH1 0x0 SWAP2 PUSH2 0x162E JUMPI JUMPDEST POP DUP6 GT PUSH2 0x43A JUMPI PUSH1 0x6 SWAP1 CALLER PUSH1 0x0 MSTORE DUP2 DUP6 MSTORE PUSH1 0x1 PUSH1 0x40 PUSH1 0x0 KECCAK256 ADD DUP8 PUSH1 0x0 MSTORE DUP6 MSTORE PUSH1 0x40 PUSH1 0x0 KECCAK256 PUSH2 0x1592 DUP8 DUP3 SLOAD PUSH2 0x1C56 JUMP JUMPDEST SWAP1 SSTORE CALLER PUSH1 0x0 MSTORE DUP2 DUP6 MSTORE PUSH1 0x2 PUSH1 0x40 PUSH1 0x0 KECCAK256 ADD DUP8 PUSH1 0x0 MSTORE DUP6 MSTORE TIMESTAMP PUSH1 0x40 PUSH1 0x0 KECCAK256 SSTORE ADD PUSH2 0x15BC DUP6 DUP3 SLOAD PUSH2 0x1C56 JUMP JUMPDEST SWAP1 SSTORE DUP1 ISZERO PUSH2 0x1624 JUMPI PUSH2 0x2710 SWAP2 DUP3 DUP2 MUL SWAP3 DUP2 DUP5 DIV EQ SWAP1 ISZERO OR ISZERO PUSH2 0x29D JUMPI PUSH2 0x15E1 SWAP2 PUSH2 0x1C29 JUMP JUMPDEST SWAP1 JUMPDEST PUSH2 0x15EE DUP4 CALLER DUP7 PUSH2 0x233C JUMP JUMPDEST PUSH1 0x40 MLOAD SWAP3 DUP4 MSTORE DUP3 ADD MSTORE PUSH32 0xC14E9E6B4D98A542B05A0F6B64ACD5F4CBDB914BE88432D87486B664E97071A7 PUSH1 0x40 CALLER SWAP3 LOG3 PUSH1 0x1 PUSH1 0x0 SSTORE STOP JUMPDEST POP POP PUSH1 0x0 SWAP1 PUSH2 0x15E3 JUMP JUMPDEST SWAP1 POP DUP5 DUP2 DUP2 RETURNDATASIZE DUP4 GT PUSH2 0x1654 JUMPI JUMPDEST PUSH2 0x1645 DUP2 DUP4 PUSH2 0x1A33 JUMP JUMPDEST DUP2 ADD SUB SLT PUSH2 0x1C1 JUMPI MLOAD DUP8 PUSH2 0x1563 JUMP JUMPDEST POP RETURNDATASIZE PUSH2 0x163B JUMP JUMPDEST PUSH1 0x40 MLOAD RETURNDATASIZE PUSH1 0x0 DUP3 RETURNDATACOPY RETURNDATASIZE SWAP1 REVERT JUMPDEST PUSH1 0x40 MLOAD PUSH4 0x981A2A2B PUSH1 0xE0 SHL DUP2 MSTORE PUSH1 0x4 SWAP1 REVERT JUMPDEST PUSH1 0xFF SWAP2 POP PUSH1 0x8 SHR AND ISZERO DUP7 PUSH2 0x14F4 JUMP JUMPDEST CALLVALUE PUSH2 0x1C1 JUMPI PUSH1 0x40 CALLDATASIZE PUSH1 0x3 NOT ADD SLT PUSH2 0x1C1 JUMPI PUSH2 0x16A1 PUSH2 0x19EA JUMP JUMPDEST PUSH1 0x24 CALLDATALOAD PUSH2 0x16AC PUSH2 0x2319 JUMP JUMPDEST DUP1 ISZERO PUSH2 0x44C JUMPI PUSH1 0x1 DUP1 PUSH1 0xA0 SHL SUB DUP3 AND SWAP2 DUP3 PUSH1 0x0 MSTORE PUSH1 0x20 SWAP1 PUSH1 0x5 DUP3 MSTORE PUSH1 0x40 PUSH1 0x0 KECCAK256 PUSH1 0xFF DUP2 SLOAD AND ISZERO PUSH2 0x1667 JUMPI PUSH2 0x16E5 DUP3 PUSH2 0xE62 PUSH1 0x5 SWAP5 PUSH2 0x238C JUMP JUMPDEST PUSH2 0x16F1 DUP5 ADDRESS CALLER DUP9 PUSH2 0x2262 JUMP JUMPDEST CALLER PUSH1 0x0 MSTORE PUSH1 0x6 DUP4 MSTORE PUSH1 0x40 PUSH1 0x0 KECCAK256 DUP6 PUSH1 0x0 MSTORE DUP4 MSTORE PUSH1 0x40 PUSH1 0x0 KECCAK256 PUSH2 0x1714 DUP6 DUP3 SLOAD PUSH2 0x1C56 JUMP JUMPDEST SWAP1 SSTORE CALLER PUSH1 0x0 MSTORE PUSH1 0x6 DUP4 MSTORE PUSH1 0x3 PUSH1 0x40 PUSH1 0x0 KECCAK256 ADD DUP6 PUSH1 0x0 MSTORE DUP4 MSTORE PUSH1 0x40 PUSH1 0x0 KECCAK256 SLOAD ISZERO PUSH2 0x1796 JUMPI JUMPDEST ADD PUSH2 0x1744 DUP4 DUP3 SLOAD PUSH2 0x1C56 JUMP JUMPDEST SWAP1 SSTORE CALLER PUSH1 0x0 MSTORE PUSH1 0x6 DUP2 MSTORE PUSH1 0x40 PUSH1 0x0 KECCAK256 DUP4 PUSH1 0x0 MSTORE DUP2 MSTORE PUSH1 0x40 PUSH1 0x0 KECCAK256 SLOAD SWAP1 PUSH1 0x40 MLOAD SWAP3 DUP4 MSTORE DUP3 ADD MSTORE PUSH32 0xF5681F9D0DB1B911AC18EE83D515A1CF1051853A9EAE418316A2FDF7DEA427C5 PUSH1 0x40 CALLER SWAP3 LOG3 PUSH1 0x1 PUSH1 0x0 SSTORE STOP JUMPDEST CALLER PUSH1 0x0 MSTORE PUSH1 0x6 DUP4 MSTORE PUSH1 0x3 PUSH1 0x40 PUSH1 0x0 KECCAK256 ADD DUP6 PUSH1 0x0 MSTORE DUP4 MSTORE TIMESTAMP PUSH1 0x40 PUSH1 0x0 KECCAK256 SSTORE PUSH2 0x1738 JUMP JUMPDEST CALLVALUE PUSH2 0x1C1 JUMPI PUSH1 0x0 CALLDATASIZE PUSH1 0x3 NOT ADD SLT PUSH2 0x1C1 JUMPI PUSH1 0x2 SLOAD PUSH1 0x40 MLOAD PUSH1 0x1 PUSH1 0x1 PUSH1 0xA0 SHL SUB SWAP1 SWAP2 AND DUP2 MSTORE PUSH1 0x20 SWAP1 RETURN JUMPDEST CALLVALUE PUSH2 0x1C1 JUMPI PUSH1 0x0 CALLDATASIZE PUSH1 0x3 NOT ADD SLT PUSH2 0x1C1 JUMPI PUSH1 0x20 PUSH1 0x3 SLOAD PUSH1 0x40 MLOAD SWAP1 DUP2 MSTORE RETURN JUMPDEST CALLVALUE PUSH2 0x1C1 JUMPI PUSH1 0x40 CALLDATASIZE PUSH1 0x3 NOT ADD SLT PUSH2 0x1C1 JUMPI PUSH2 0x1818 PUSH2 0x19EA JUMP JUMPDEST PUSH1 0x24 CALLDATALOAD PUSH2 0x1823 PUSH2 0x2319 JUMP JUMPDEST DUP1 ISZERO PUSH2 0x44C JUMPI PUSH2 0x1832 DUP3 PUSH2 0x238C JUMP JUMPDEST CALLER PUSH1 0x0 MSTORE PUSH1 0x6 SWAP1 PUSH1 0x20 SWAP1 DUP3 DUP3 MSTORE PUSH1 0x1 PUSH1 0x40 PUSH1 0x0 KECCAK256 ADD SWAP4 PUSH1 0x1 DUP1 PUSH1 0xA0 SHL SUB AND SWAP4 DUP5 PUSH1 0x0 MSTORE DUP3 MSTORE PUSH1 0x40 PUSH1 0x0 KECCAK256 SLOAD SWAP1 DUP2 ISZERO PUSH2 0x43A JUMPI DUP2 DUP2 GT ISZERO PUSH2 0x1971 JUMPI POP SWAP2 JUMPDEST PUSH2 0x187B DUP4 ADDRESS CALLER DUP8 PUSH2 0x2262 JUMP JUMPDEST CALLER PUSH1 0x0 MSTORE DUP1 DUP3 MSTORE PUSH1 0x1 PUSH1 0x40 PUSH1 0x0 KECCAK256 ADD DUP5 PUSH1 0x0 MSTORE DUP3 MSTORE PUSH1 0x40 PUSH1 0x0 KECCAK256 PUSH2 0x18A0 DUP5 DUP3 SLOAD PUSH2 0x1C49 JUMP JUMPDEST SWAP1 SSTORE DUP4 PUSH1 0x0 MSTORE PUSH1 0x5 DUP3 MSTORE DUP1 PUSH1 0x40 PUSH1 0x0 KECCAK256 ADD PUSH2 0x18BC DUP5 DUP3 SLOAD PUSH2 0x1C49 JUMP JUMPDEST SWAP1 SSTORE CALLER PUSH1 0x0 MSTORE DUP1 DUP3 MSTORE PUSH1 0x1 PUSH1 0x40 PUSH1 0x0 KECCAK256 ADD DUP5 PUSH1 0x0 MSTORE DUP3 MSTORE PUSH1 0x40 PUSH1 0x0 KECCAK256 SLOAD ISZERO DUP1 PUSH2 0x1958 JUMPI JUMPDEST PUSH2 0x1936 JUMPI JUMPDEST CALLER PUSH1 0x0 MSTORE DUP2 MSTORE PUSH1 0x1 PUSH1 0x40 PUSH1 0x0 KECCAK256 ADD DUP4 PUSH1 0x0 MSTORE DUP2 MSTORE PUSH1 0x40 PUSH1 0x0 KECCAK256 SLOAD SWAP1 PUSH1 0x40 MLOAD SWAP3 DUP4 MSTORE DUP3 ADD MSTORE PUSH32 0xE62A777DBD48D3912F68A1B9445813EE02BC3AC18B97DC129CA462CC77BB641B PUSH1 0x40 CALLER SWAP3 LOG3 PUSH1 0x1 PUSH1 0x0 SSTORE STOP JUMPDEST CALLER PUSH1 0x0 MSTORE DUP1 DUP3 MSTORE PUSH1 0x0 PUSH1 0x5 PUSH1 0x40 DUP3 KECCAK256 PUSH1 0x4 DUP2 ADD PUSH1 0xFF NOT DUP2 SLOAD AND SWAP1 SSTORE ADD SSTORE PUSH2 0x18E5 JUMP JUMPDEST POP CALLER PUSH1 0x0 MSTORE DUP1 DUP3 MSTORE PUSH1 0xFF PUSH1 0x4 PUSH1 0x40 PUSH1 0x0 KECCAK256 ADD SLOAD AND PUSH2 0x18E0 JUMP JUMPDEST SWAP1 POP SWAP2 PUSH2 0x186F JUMP JUMPDEST CALLVALUE PUSH2 0x1C1 JUMPI PUSH1 0x0 CALLDATASIZE PUSH1 0x3 NOT ADD SLT PUSH2 0x1C1 JUMPI PUSH1 0x40 MLOAD PUSH32 0x0 PUSH1 0x1 PUSH1 0x1 PUSH1 0xA0 SHL SUB AND DUP2 MSTORE PUSH1 0x20 SWAP1 RETURN JUMPDEST CALLVALUE PUSH2 0x1C1 JUMPI PUSH1 0x40 CALLDATASIZE PUSH1 0x3 NOT ADD SLT PUSH2 0x1C1 JUMPI PUSH1 0x20 PUSH2 0x1B9 PUSH2 0x19DC PUSH2 0x19EA JUMP JUMPDEST PUSH2 0x19E4 PUSH2 0x1A00 JUMP JUMPDEST SWAP1 PUSH2 0x1F63 JUMP JUMPDEST PUSH1 0x4 CALLDATALOAD SWAP1 PUSH1 0x1 PUSH1 0x1 PUSH1 0xA0 SHL SUB DUP3 AND DUP3 SUB PUSH2 0x1C1 JUMPI JUMP JUMPDEST PUSH1 0x24 CALLDATALOAD SWAP1 PUSH1 0x1 PUSH1 0x1 PUSH1 0xA0 SHL SUB DUP3 AND DUP3 SUB PUSH2 0x1C1 JUMPI JUMP JUMPDEST PUSH2 0x180 DUP2 ADD SWAP1 DUP2 LT PUSH8 0xFFFFFFFFFFFFFFFF DUP3 GT OR PUSH2 0x12A1 JUMPI PUSH1 0x40 MSTORE JUMP JUMPDEST SWAP1 PUSH1 0x1F DUP1 NOT SWAP2 ADD AND DUP2 ADD SWAP1 DUP2 LT PUSH8 0xFFFFFFFFFFFFFFFF DUP3 GT OR PUSH2 0x12A1 JUMPI PUSH1 0x40 MSTORE JUMP JUMPDEST DUP2 PUSH1 0x1F DUP3 ADD SLT ISZERO PUSH2 0x1C1 JUMPI DUP1 CALLDATALOAD SWAP1 PUSH8 0xFFFFFFFFFFFFFFFF DUP3 GT PUSH2 0x12A1 JUMPI PUSH1 0x40 MLOAD SWAP3 PUSH2 0x1A8A PUSH1 0x1F DUP5 ADD PUSH1 0x1F NOT AND PUSH1 0x20 ADD DUP6 PUSH2 0x1A33 JUMP JUMPDEST DUP3 DUP5 MSTORE PUSH1 0x20 DUP4 DUP4 ADD ADD GT PUSH2 0x1C1 JUMPI DUP2 PUSH1 0x0 SWAP3 PUSH1 0x20 DUP1 SWAP4 ADD DUP4 DUP7 ADD CALLDATACOPY DUP4 ADD ADD MSTORE SWAP1 JUMP JUMPDEST PUSH1 0x7 SLOAD DUP2 LT ISZERO PUSH2 0x1AE3 JUMPI PUSH1 0x7 PUSH1 0x0 MSTORE PUSH32 0xA66CC928B5EDB82AF9BD49922954155AB7B0942694BEA4CE44661D9A8736C688 ADD SWAP1 PUSH1 0x0 SWAP1 JUMP JUMPDEST PUSH4 0x4E487B71 PUSH1 0xE0 SHL PUSH1 0x0 MSTORE PUSH1 0x32 PUSH1 0x4 MSTORE PUSH1 0x24 PUSH1 0x0 REVERT JUMPDEST SWAP1 PUSH1 0x1 DUP3 DUP2 SHR SWAP3 AND DUP1 ISZERO PUSH2 0x1B29 JUMPI JUMPDEST PUSH1 0x20 DUP4 LT EQ PUSH2 0x1B13 JUMPI JUMP JUMPDEST PUSH4 0x4E487B71 PUSH1 0xE0 SHL PUSH1 0x0 MSTORE PUSH1 0x22 PUSH1 0x4 MSTORE PUSH1 0x24 PUSH1 0x0 REVERT JUMPDEST SWAP2 PUSH1 0x7F AND SWAP2 PUSH2 0x1B08 JUMP JUMPDEST SWAP2 SWAP1 DUP3 MLOAD SWAP3 DUP4 DUP3 MSTORE PUSH1 0x0 JUMPDEST DUP5 DUP2 LT PUSH2 0x1B5F JUMPI POP POP DUP3 PUSH1 0x0 PUSH1 0x20 DUP1 SWAP5 SWAP6 DUP5 ADD ADD MSTORE PUSH1 0x1F DUP1 NOT SWAP2 ADD AND ADD ADD SWAP1 JUMP JUMPDEST PUSH1 0x20 DUP2 DUP4 ADD DUP2 ADD MLOAD DUP5 DUP4 ADD DUP3 ADD MSTORE ADD PUSH2 0x1B3E JUMP JUMPDEST DUP1 MLOAD DUP3 MSTORE PUSH1 0x20 DUP2 ADD MLOAD PUSH1 0x20 DUP4 ADD MSTORE PUSH1 0x40 DUP2 ADD MLOAD PUSH1 0x40 DUP4 ADD MSTORE PUSH1 0x60 DUP2 ADD MLOAD PUSH1 0x60 DUP4 ADD MSTORE PUSH1 0x80 DUP2 ADD MLOAD PUSH1 0x80 DUP4 ADD MSTORE PUSH1 0xA0 DUP2 ADD MLOAD PUSH1 0xA0 DUP4 ADD MSTORE PUSH1 0xC0 DUP2 ADD MLOAD PUSH1 0xC0 DUP4 ADD MSTORE PUSH1 0xE0 DUP2 ADD MLOAD PUSH1 0xE0 DUP4 ADD MSTORE PUSH2 0x100 DUP1 DUP3 ADD MLOAD SWAP1 DUP4 ADD MSTORE PUSH2 0x120 DUP1 DUP3 ADD MLOAD SWAP1 DUP4 ADD MSTORE PUSH2 0x140 DUP1 DUP3 ADD MLOAD SWAP1 DUP4 ADD MSTORE PUSH2 0x160 DUP1 SWAP2 ADD MLOAD SWAP2 ADD MSTORE JUMP JUMPDEST PUSH1 0x1 SLOAD PUSH1 0x1 PUSH1 0x1 PUSH1 0xA0 SHL SUB AND CALLER SUB PUSH2 0x1BFE JUMPI JUMP JUMPDEST PUSH1 0x40 MLOAD PUSH4 0x118CDAA7 PUSH1 0xE0 SHL DUP2 MSTORE CALLER PUSH1 0x4 DUP3 ADD MSTORE PUSH1 0x24 SWAP1 REVERT JUMPDEST DUP2 DUP2 MUL SWAP3 SWAP2 DUP2 ISZERO SWAP2 DUP5 DIV EQ OR ISZERO PUSH2 0x29D JUMPI JUMP JUMPDEST DUP2 ISZERO PUSH2 0x1C33 JUMPI DIV SWAP1 JUMP JUMPDEST PUSH4 0x4E487B71 PUSH1 0xE0 SHL PUSH1 0x0 MSTORE PUSH1 0x12 PUSH1 0x4 MSTORE PUSH1 0x24 PUSH1 0x0 REVERT JUMPDEST SWAP2 SWAP1 DUP3 SUB SWAP2 DUP3 GT PUSH2 0x29D JUMPI JUMP JUMPDEST SWAP2 SWAP1 DUP3 ADD DUP1 SWAP3 GT PUSH2 0x29D JUMPI JUMP JUMPDEST PUSH1 0x1 PUSH1 0x1 PUSH1 0xA0 SHL SUB AND PUSH1 0x0 SWAP1 DUP2 MSTORE PUSH1 0x5 PUSH1 0x20 DUP2 SWAP1 MSTORE PUSH1 0x40 DUP3 KECCAK256 SWAP1 DUP2 ADD SLOAD SWAP1 SWAP3 SWAP2 PUSH1 0x9 DUP5 ADD SWAP2 SWAP1 DUP2 ISZERO PUSH2 0x1DB4 JUMPI PUSH1 0x6 DUP6 ADD SLOAD SWAP2 PUSH8 0xDE0B6B3A7640000 SWAP3 DUP4 DUP2 MUL SWAP1 DUP1 DUP3 DIV DUP6 EQ SWAP1 ISZERO OR ISZERO PUSH2 0x1DA0 JUMPI SWAP1 PUSH2 0x1CBA SWAP2 PUSH2 0x1C29 JUMP JUMPDEST PUSH1 0xA DUP7 ADD SLOAD SWAP6 SWAP1 SWAP2 SWAP1 DUP7 DUP4 GT PUSH2 0x1D15 JUMPI POP DUP3 DUP3 MUL SWAP2 DUP1 DUP4 DIV DUP5 EQ SWAP1 ISZERO OR ISZERO PUSH2 0x1D01 JUMPI POP PUSH2 0x1CEE PUSH2 0x1CFE SWAP5 SWAP6 PUSH2 0x1CF7 SWAP3 PUSH2 0x1C29 JUMP JUMPDEST SWAP3 SLOAD SWAP3 DUP4 PUSH2 0x1C16 JUMP JUMPDEST DIV SWAP1 PUSH2 0x1C56 JUMP JUMPDEST SWAP1 JUMP JUMPDEST PUSH4 0x4E487B71 PUSH1 0xE0 SHL DUP2 MSTORE PUSH1 0x11 PUSH1 0x4 MSTORE PUSH1 0x24 SWAP1 REVERT JUMPDEST SWAP3 SWAP2 DUP7 PUSH2 0x1D26 SWAP2 SWAP8 SWAP3 SWAP6 SWAP7 SWAP8 PUSH2 0x1C49 JUMP JUMPDEST SWAP1 DUP3 SUB SWAP1 DUP3 DUP3 GT PUSH2 0x1D8C JUMPI DUP3 DUP2 MUL SWAP1 DUP1 DUP3 DIV DUP5 EQ SWAP1 ISZERO OR ISZERO PUSH2 0x1D8C JUMPI PUSH1 0xC PUSH2 0x1D64 PUSH2 0x1D59 PUSH2 0x1D79 SWAP7 SWAP6 SWAP5 PUSH2 0x1CF7 SWAP5 PUSH2 0x1C29 JUMP JUMPDEST PUSH1 0xB DUP7 ADD SLOAD SWAP1 PUSH2 0x2025 JUMP JUMPDEST SWAP7 SLOAD SWAP4 ADD SLOAD SWAP6 PUSH2 0x1D74 DUP5 DUP9 PUSH2 0x1C49 JUMP JUMPDEST PUSH2 0x1C16 JUMP JUMPDEST SWAP1 POP DUP2 DUP2 GT ISZERO PUSH2 0x1D87 JUMPI POP SWAP1 JUMP JUMPDEST SWAP1 POP SWAP1 JUMP JUMPDEST PUSH4 0x4E487B71 PUSH1 0xE0 SHL DUP6 MSTORE PUSH1 0x11 PUSH1 0x4 MSTORE PUSH1 0x24 DUP6 REVERT JUMPDEST PUSH4 0x4E487B71 PUSH1 0xE0 SHL DUP4 MSTORE PUSH1 0x11 PUSH1 0x4 MSTORE PUSH1 0x24 DUP4 REVERT JUMPDEST POP POP SLOAD SWAP2 POP JUMP JUMPDEST SWAP1 PUSH1 0x0 DUP1 DUP2 SWAP1 PUSH1 0x7 SLOAD SWAP2 JUMPDEST DUP3 DUP2 LT PUSH2 0x1E83 JUMPI POP PUSH1 0x1 PUSH1 0x1 PUSH1 0xA0 SHL SUB SWAP3 DUP4 AND SWAP2 POP POP DUP1 ISZERO PUSH2 0x1E79 JUMPI PUSH1 0x0 MSTORE PUSH1 0x5 PUSH1 0x20 MSTORE PUSH1 0x40 PUSH1 0x0 KECCAK256 SWAP3 AND PUSH1 0x0 MSTORE PUSH1 0x6 PUSH1 0x20 MSTORE PUSH1 0x40 PUSH1 0x0 KECCAK256 SWAP2 PUSH1 0x0 SWAP2 PUSH8 0xDE0B6B3A7640000 SWAP3 DUP4 DUP3 LT PUSH1 0x0 EQ PUSH2 0x1E6B JUMPI POP DUP3 SUB DUP3 DUP2 GT PUSH2 0x29D JUMPI PUSH1 0x7 PUSH2 0x1E35 SWAP2 SWAP5 JUMPDEST ADD SLOAD PUSH1 0xF DUP4 ADD SLOAD SWAP1 PUSH2 0x1C16 JUMP JUMPDEST DUP3 ADD DUP1 DUP4 GT PUSH2 0x29D JUMPI PUSH2 0x1D74 DUP3 DUP5 PUSH2 0x1CF7 PUSH1 0xE PUSH1 0xD PUSH2 0x1E5E SWAP8 ADD SLOAD SWAP4 ADD SLOAD SWAP8 PUSH2 0x1D74 DUP5 DUP11 PUSH2 0x1C49 JUMP JUMPDEST DIV DUP2 DUP2 GT ISZERO PUSH2 0x1D87 JUMPI POP SWAP1 JUMP JUMPDEST PUSH2 0x1E35 SWAP2 POP PUSH1 0x7 SWAP1 SWAP5 PUSH2 0x1E28 JUMP JUMPDEST POP POP POP POP PUSH2 0x3E8 SWAP1 JUMP JUMPDEST PUSH2 0x1E8C DUP2 PUSH2 0x1AAC JUMP JUMPDEST SWAP1 PUSH1 0x1 DUP1 PUSH1 0xA0 SHL SUB SWAP2 DUP3 SWAP2 SLOAD SWAP1 PUSH1 0x3 SHL SHR AND SWAP1 DUP2 PUSH1 0x0 MSTORE PUSH1 0x20 PUSH1 0x5 DUP2 MSTORE PUSH1 0x40 SWAP2 PUSH1 0xFF DUP4 PUSH1 0x0 KECCAK256 SLOAD PUSH1 0x10 SHR AND PUSH2 0x1ECE JUMPI JUMPDEST POP POP POP POP PUSH2 0x1EC9 SWAP1 PUSH2 0x2016 JUMP JUMPDEST PUSH2 0x1DC6 JUMP JUMPDEST DUP10 AND PUSH1 0x0 MSTORE PUSH1 0x6 DUP2 MSTORE DUP2 PUSH1 0x0 KECCAK256 SWAP1 DUP4 PUSH1 0x0 MSTORE MSTORE PUSH1 0x0 KECCAK256 SLOAD DUP1 PUSH2 0x1EF2 JUMPI JUMPDEST DUP1 DUP1 PUSH2 0x1EBC JUMP JUMPDEST PUSH2 0x1EFC SWAP1 DUP3 PUSH2 0x2927 JUMP JUMPDEST DUP4 DUP2 GT ISZERO PUSH2 0x1EEB JUMPI SWAP1 SWAP5 POP SWAP2 POP PUSH2 0x1EC9 CODESIZE PUSH2 0x1EEB JUMP JUMPDEST PUSH1 0x1 DUP1 PUSH1 0xA0 SHL SUB AND PUSH1 0x0 MSTORE PUSH1 0x5 PUSH1 0x20 MSTORE PUSH1 0x40 PUSH1 0x0 KECCAK256 PUSH1 0x12 PUSH2 0x1F53 PUSH8 0xDE0B6B3A7640000 PUSH2 0x1F48 PUSH1 0x15 DUP6 ADD SLOAD PUSH1 0x11 DUP7 ADD SLOAD SWAP1 PUSH2 0x1C16 JUMP JUMPDEST DIV PUSH1 0x10 DUP5 ADD SLOAD PUSH2 0x1C56 JUMP JUMPDEST SWAP2 ADD SLOAD SWAP1 DUP2 DUP2 GT ISZERO PUSH2 0x1D87 JUMPI POP SWAP1 JUMP JUMPDEST SWAP1 PUSH1 0x3 PUSH1 0x1 DUP1 PUSH1 0xA0 SHL SUB DUP1 SWAP3 AND PUSH1 0x0 SWAP3 DUP2 DUP5 MSTORE PUSH1 0x5 PUSH1 0x20 MSTORE PUSH1 0x40 DUP5 KECCAK256 SWAP5 AND DUP4 MSTORE PUSH1 0x6 PUSH1 0x20 MSTORE PUSH1 0x40 DUP4 KECCAK256 SWAP1 DUP4 MSTORE ADD PUSH1 0x20 MSTORE PUSH2 0x1FA1 PUSH1 0x40 DUP3 KECCAK256 SLOAD TIMESTAMP PUSH2 0x1C49 JUMP JUMPDEST DUP1 ISZERO PUSH2 0x200D JUMPI PUSH2 0x1FE9 PUSH1 0x1 PUSH2 0x1FDF PUSH8 0xDE0B6B3A7640000 SWAP4 PUSH1 0x14 DUP8 ADD SLOAD SWAP1 DUP2 DUP2 GT PUSH1 0x0 EQ PUSH2 0x2004 JUMPI POP PUSH2 0x1FDA DUP2 JUMPDEST PUSH1 0x13 DUP10 ADD SLOAD SWAP1 PUSH2 0x1C16 JUMP JUMPDEST PUSH2 0x1C29 JUMP JUMPDEST SWAP5 ADD SLOAD SWAP4 DUP5 PUSH2 0x1C16 JUMP JUMPDEST DIV SWAP1 POP DUP1 DUP3 GT ISZERO PUSH2 0x1FFD JUMPI PUSH2 0x1CFE SWAP2 PUSH2 0x1C49 JUMP JUMPDEST POP PUSH1 0x1 SHR SWAP1 JUMP JUMPDEST PUSH2 0x1FDA SWAP1 PUSH2 0x1FCF JUMP JUMPDEST POP POP PUSH1 0x1 ADD SLOAD SWAP1 JUMP JUMPDEST PUSH1 0x0 NOT DUP2 EQ PUSH2 0x29D JUMPI PUSH1 0x1 ADD SWAP1 JUMP JUMPDEST SWAP2 SWAP1 DUP3 ISZERO PUSH2 0x2114 JUMPI PUSH8 0xDE0B6B3A7640000 SWAP1 DUP2 DUP5 LT ISZERO PUSH2 0x210F JUMPI DUP2 DUP2 EQ PUSH2 0x210B JUMPI PUSH8 0x1BC16D674EC80000 DUP2 EQ PUSH2 0x20FA JUMPI DUP4 DUP1 DUP4 ADD DUP1 DUP5 GT PUSH2 0x29D JUMPI PUSH1 0x2 SWAP6 JUMPDEST PUSH1 0x4 SWAP1 DUP2 DUP9 GT ISZERO DUP1 PUSH2 0x20F1 JUMPI JUMPDEST ISZERO PUSH2 0x20DB JUMPI DUP5 PUSH2 0x1D74 DUP6 PUSH2 0x2084 SWAP4 PUSH2 0x1C16 JUMP JUMPDEST PUSH15 0xC097CE7BC90715B34B9F1000000000 SWAP2 DUP9 DUP4 MUL SWAP3 DUP4 DIV DUP10 SUB PUSH2 0x20C6 JUMPI POP PUSH2 0x20B2 PUSH2 0x20BF SWAP3 PUSH2 0x20B9 SWAP3 PUSH2 0x1C29 JUMP JUMPDEST DUP1 SWAP4 PUSH2 0x1C56 JUMP JUMPDEST SWAP7 PUSH2 0x2016 JUMP JUMPDEST SWAP6 SWAP1 PUSH2 0x2064 JUMP JUMPDEST PUSH1 0x24 SWAP1 PUSH1 0x11 PUSH1 0x0 SWAP2 PUSH4 0x4E487B71 PUSH1 0xE0 SHL DUP4 MSTORE MSTORE REVERT JUMPDEST POP POP SWAP3 SWAP4 SWAP5 POP POP POP DUP2 DUP2 GT PUSH1 0x0 EQ PUSH2 0x1D87 JUMPI POP SWAP1 JUMP JUMPDEST POP DUP1 ISZERO ISZERO PUSH2 0x2071 JUMP JUMPDEST POP SWAP1 SWAP2 DUP1 PUSH2 0x2107 SWAP2 PUSH2 0x1C16 JUMP JUMPDEST DIV SWAP1 JUMP JUMPDEST POP POP JUMP JUMPDEST POP SWAP2 POP JUMP JUMPDEST POP PUSH1 0x0 SWAP2 POP JUMP JUMPDEST PUSH1 0x1 PUSH1 0x1 PUSH1 0xA0 SHL SUB DUP2 AND PUSH1 0x0 DUP2 DUP2 MSTORE PUSH1 0x5 PUSH1 0x20 MSTORE PUSH1 0x40 DUP2 KECCAK256 SWAP2 SWAP3 SWAP2 SWAP1 PUSH2 0x2140 DUP4 PUSH2 0x26F6 JUMP JUMPDEST PUSH1 0x16 DUP4 ADD SWAP2 DUP3 SLOAD PUSH2 0x2151 DUP2 TIMESTAMP PUSH2 0x1C49 JUMP JUMPDEST SWAP1 ISZERO ISZERO SWAP1 DUP2 PUSH2 0x2258 JUMPI JUMPDEST POP PUSH2 0x21AA JUMPI JUMPDEST POP PUSH1 0x17 DUP4 ADD SSTORE TIMESTAMP SWAP1 SSTORE PUSH1 0x15 ADD SLOAD PUSH32 0x6AC2EB67D9E3D599B1121A86C7F4EB985D08AE8E5E5CA0B9A5C4E6A7206ED35A SWAP2 PUSH1 0x40 SWAP2 SWAP1 PUSH2 0x219D SWAP1 PUSH2 0x1F12 JUMP JUMPDEST DUP3 MLOAD SWAP2 DUP3 MSTORE PUSH1 0x20 DUP3 ADD MSTORE LOG2 JUMP JUMPDEST PUSH1 0x17 DUP5 ADD SLOAD DUP1 DUP4 GT ISZERO PUSH2 0x2249 JUMPI PUSH2 0x21C1 DUP2 DUP5 PUSH2 0x1C49 JUMP JUMPDEST PUSH8 0xDE0B6B3A7640000 SWAP1 DUP2 DUP2 MUL SWAP2 DUP2 DUP4 DIV EQ SWAP1 ISZERO OR ISZERO PUSH2 0x1DA0 JUMPI SWAP1 PUSH2 0x21E5 SWAP2 PUSH2 0x1C29 JUMP JUMPDEST PUSH1 0x15 DUP6 ADD SWAP2 DUP3 SLOAD SWAP1 PUSH1 0x9 DUP3 MUL SWAP2 DUP1 DUP4 DIV PUSH1 0x9 EQ SWAP1 ISZERO OR ISZERO PUSH2 0x1D01 JUMPI POP SWAP4 PUSH2 0x219D SWAP4 PUSH1 0x15 SWAP4 PUSH1 0xA PUSH2 0x223A PUSH1 0x40 SWAP10 SWAP6 PUSH32 0x6AC2EB67D9E3D599B1121A86C7F4EB985D08AE8E5E5CA0B9A5C4E6A7206ED35A SWAP12 SWAP10 PUSH2 0x1C56 JUMP JUMPDEST DIV SWAP1 SSTORE SWAP4 POP SWAP4 SWAP6 POP SWAP4 POP PUSH2 0x2161 JUMP JUMPDEST PUSH2 0x2253 DUP4 DUP3 PUSH2 0x1C49 JUMP JUMPDEST PUSH2 0x21C1 JUMP JUMPDEST SWAP1 POP ISZERO ISZERO CODESIZE PUSH2 0x215B JUMP JUMPDEST PUSH1 0x40 MLOAD PUSH4 0x23B872DD PUSH1 0xE0 SHL PUSH1 0x20 DUP3 ADD MSTORE PUSH1 0x1 PUSH1 0x1 PUSH1 0xA0 SHL SUB SWAP3 DUP4 AND PUSH1 0x24 DUP3 ADD MSTORE SWAP3 SWAP1 SWAP2 AND PUSH1 0x44 DUP4 ADD MSTORE PUSH1 0x64 DUP1 DUP4 ADD SWAP4 SWAP1 SWAP4 MSTORE SWAP2 DUP2 MSTORE PUSH1 0xA0 DUP2 ADD SWAP2 DUP2 DUP4 LT PUSH8 0xFFFFFFFFFFFFFFFF DUP5 GT OR PUSH2 0x12A1 JUMPI PUSH2 0x22BB SWAP3 PUSH1 0x40 MSTORE PUSH2 0x22BD JUMP JUMPDEST JUMP JUMPDEST SWAP1 PUSH1 0x0 PUSH1 0x20 SWAP2 DUP3 DUP2 MLOAD SWAP2 ADD DUP3 DUP6 GAS CALL ISZERO PUSH2 0x165B JUMPI PUSH1 0x0 MLOAD RETURNDATASIZE PUSH2 0x2310 JUMPI POP PUSH1 0x1 PUSH1 0x1 PUSH1 0xA0 SHL SUB DUP2 AND EXTCODESIZE ISZERO JUMPDEST PUSH2 0x22EE JUMPI POP JUMP JUMPDEST PUSH1 0x40 MLOAD PUSH4 0x5274AFE7 PUSH1 0xE0 SHL DUP2 MSTORE PUSH1 0x1 PUSH1 0x1 PUSH1 0xA0 SHL SUB SWAP1 SWAP2 AND PUSH1 0x4 DUP3 ADD MSTORE PUSH1 0x24 SWAP1 REVERT JUMPDEST PUSH1 0x1 EQ ISZERO PUSH2 0x22E7 JUMP JUMPDEST PUSH1 0x2 PUSH1 0x0 SLOAD EQ PUSH2 0x232A JUMPI PUSH1 0x2 PUSH1 0x0 SSTORE JUMP JUMPDEST PUSH1 0x40 MLOAD PUSH4 0x3EE5AEB5 PUSH1 0xE0 SHL DUP2 MSTORE PUSH1 0x4 SWAP1 REVERT JUMPDEST PUSH1 0x40 MLOAD PUSH4 0xA9059CBB PUSH1 0xE0 SHL PUSH1 0x20 DUP3 ADD MSTORE PUSH1 0x1 PUSH1 0x1 PUSH1 0xA0 SHL SUB SWAP1 SWAP3 AND PUSH1 0x24 DUP4 ADD MSTORE PUSH1 0x44 DUP1 DUP4 ADD SWAP4 SWAP1 SWAP4 MSTORE SWAP2 DUP2 MSTORE PUSH1 0x80 DUP2 ADD SWAP2 PUSH8 0xFFFFFFFFFFFFFFFF DUP4 GT DUP3 DUP5 LT OR PUSH2 0x12A1 JUMPI PUSH2 0x22BB SWAP3 PUSH1 0x40 MSTORE PUSH2 0x22BD JUMP JUMPDEST PUSH1 0x1 PUSH1 0x1 PUSH1 0xA0 SHL SUB DUP2 AND PUSH1 0x0 DUP2 DUP2 MSTORE PUSH1 0x5 PUSH1 0x20 MSTORE PUSH1 0x40 DUP2 KECCAK256 DUP1 SLOAD SWAP3 SWAP4 SWAP3 PUSH1 0xFF AND ISZERO PUSH2 0x1667 JUMPI PUSH1 0x4 DUP2 ADD SWAP3 PUSH2 0x23C1 DUP5 SLOAD TIMESTAMP PUSH2 0x1C49 JUMP JUMPDEST SWAP2 DUP3 ISZERO PUSH2 0x24EA JUMPI PUSH2 0x23D3 PUSH1 0x5 SWAP3 PUSH2 0x1C63 JUMP JUMPDEST SWAP5 PUSH5 0x496CEBB800 PUSH2 0x23ED PUSH1 0x6 DUP5 ADD SLOAD SWAP6 PUSH2 0x1D74 DUP10 DUP9 PUSH2 0x1C16 JUMP JUMPDEST DIV PUSH2 0x23FD PUSH1 0x7 DUP5 ADD SWAP2 DUP3 SLOAD PUSH2 0x1C56 JUMP JUMPDEST SWAP1 SSTORE TIMESTAMP SWAP1 SSTORE ADD SLOAD SWAP1 DUP2 ISZERO SWAP3 DUP4 PUSH1 0x0 EQ PUSH2 0x24B3 JUMPI DUP1 SWAP4 JUMPDEST PUSH2 0x2484 JUMPI PUSH8 0xDE0B6B3A7640000 SWAP2 DUP3 DUP2 MUL SWAP3 DUP2 DUP5 DIV EQ SWAP1 ISZERO OR ISZERO PUSH2 0x1D01 JUMPI POP PUSH2 0x2462 PUSH32 0x5A03DAA796EC548AD6DD0ED0A76E2B5197C4D37C20B10722B669FFA200D4A4BB SWAP5 SWAP4 SWAP3 PUSH2 0x247F SWAP3 PUSH2 0x1C29 JUMP JUMPDEST PUSH1 0x40 MLOAD SWAP4 DUP5 SWAP4 DUP5 PUSH1 0x40 SWAP2 SWAP5 SWAP4 SWAP3 PUSH1 0x60 DUP3 ADD SWAP6 DUP3 MSTORE PUSH1 0x20 DUP3 ADD MSTORE ADD MSTORE JUMP JUMPDEST SUB SWAP1 LOG2 JUMP JUMPDEST PUSH32 0x5A03DAA796EC548AD6DD0ED0A76E2B5197C4D37C20B10722B669FFA200D4A4BB SWAP5 SWAP4 SWAP3 POP PUSH2 0x247F SWAP2 POP PUSH2 0x2462 JUMP JUMPDEST PUSH2 0x2710 DUP1 DUP4 MUL SWAP1 DUP4 DUP3 DIV EQ DUP4 ISZERO OR ISZERO PUSH2 0x24D6 JUMPI DUP4 PUSH2 0x24D0 SWAP2 PUSH2 0x1C29 JUMP JUMPDEST SWAP4 PUSH2 0x2413 JUMP JUMPDEST PUSH4 0x4E487B71 PUSH1 0xE0 SHL DUP3 MSTORE PUSH1 0x11 PUSH1 0x4 MSTORE PUSH1 0x24 DUP3 REVERT JUMPDEST POP POP POP POP POP POP JUMP JUMPDEST PUSH1 0x7 SLOAD PUSH1 0x0 SWAP3 SWAP2 DUP4 DUP1 JUMPDEST DUP4 DUP2 LT PUSH2 0x2509 JUMPI POP POP POP POP JUMP JUMPDEST PUSH2 0x2512 DUP2 PUSH2 0x1AAC JUMP JUMPDEST SWAP1 PUSH1 0x1 DUP1 PUSH1 0xA0 SHL SUB SWAP2 DUP3 SWAP2 SLOAD SWAP1 PUSH1 0x3 SHL SHR AND SWAP1 DUP2 DUP5 MSTORE PUSH1 0x20 PUSH1 0x5 DUP2 MSTORE PUSH1 0x40 SWAP2 PUSH1 0xFF DUP4 DUP8 KECCAK256 SLOAD PUSH1 0x10 SHR AND PUSH2 0x2552 JUMPI JUMPDEST POP POP POP POP PUSH2 0x254D SWAP1 PUSH2 0x2016 JUMP JUMPDEST PUSH2 0x24FC JUMP JUMPDEST DUP7 AND DUP6 MSTORE PUSH1 0x6 DUP2 MSTORE DUP2 DUP6 KECCAK256 SWAP1 DUP4 DUP7 MSTORE MSTORE DUP4 KECCAK256 SLOAD DUP1 PUSH2 0x2572 JUMPI JUMPDEST DUP1 DUP1 PUSH2 0x2540 JUMP JUMPDEST PUSH2 0x2582 PUSH2 0x259C SWAP2 DUP4 SWAP10 SWAP5 SWAP10 PUSH2 0x2927 JUMP JUMPDEST SWAP2 PUSH2 0x2596 PUSH2 0x2590 DUP3 DUP9 PUSH2 0x1F63 JUMP JUMPDEST SWAP2 PUSH2 0x1F12 JUMP JUMPDEST SWAP3 PUSH2 0x1C16 JUMP JUMPDEST PUSH2 0x2710 SWAP2 DUP3 SUB SWAP2 DUP3 GT PUSH2 0x25C7 JUMPI SWAP2 PUSH4 0x5F5E100 PUSH2 0x1CF7 PUSH2 0x25BF SWAP4 PUSH2 0x254D SWAP6 PUSH2 0x1C16 JUMP JUMPDEST SWAP6 SWAP1 CODESIZE PUSH2 0x256B JUMP JUMPDEST PUSH4 0x4E487B71 PUSH1 0xE0 SHL DUP5 MSTORE PUSH1 0x11 PUSH1 0x4 MSTORE PUSH1 0x24 DUP5 REVERT JUMPDEST PUSH1 0x7 SLOAD PUSH1 0x0 SWAP3 SWAP2 DUP4 SWAP1 DUP2 JUMPDEST DUP4 DUP2 LT PUSH2 0x25F3 JUMPI POP POP POP POP JUMP JUMPDEST PUSH2 0x25FC DUP2 PUSH2 0x1AAC JUMP JUMPDEST SWAP1 PUSH1 0x1 DUP1 PUSH1 0xA0 SHL SUB SWAP2 DUP3 SWAP2 SLOAD SWAP1 PUSH1 0x3 SHL SHR AND SWAP1 DUP2 DUP6 MSTORE PUSH1 0x20 PUSH1 0x5 DUP2 MSTORE PUSH1 0x40 SWAP2 PUSH1 0xFF DUP4 DUP9 KECCAK256 SLOAD PUSH1 0x10 SHR AND PUSH2 0x263C JUMPI JUMPDEST POP POP POP POP PUSH2 0x2637 SWAP1 PUSH2 0x2016 JUMP JUMPDEST PUSH2 0x25E6 JUMP JUMPDEST DUP6 AND DUP7 MSTORE PUSH1 0x6 DUP2 MSTORE DUP2 DUP7 KECCAK256 SWAP1 DUP4 DUP8 MSTORE MSTORE DUP5 KECCAK256 SLOAD SWAP1 DUP2 PUSH2 0x265D JUMPI JUMPDEST DUP1 DUP1 PUSH2 0x262A JUMP JUMPDEST SWAP7 PUSH2 0x152B PUSH2 0x266F SWAP3 PUSH2 0x2637 SWAP5 SWAP10 PUSH2 0x2927 JUMP JUMPDEST SWAP6 SWAP1 CODESIZE PUSH2 0x2656 JUMP JUMPDEST PUSH1 0x7 SLOAD PUSH1 0x0 SWAP3 SWAP2 DUP4 DUP1 JUMPDEST DUP4 DUP2 LT PUSH2 0x268E JUMPI POP POP POP POP JUMP JUMPDEST PUSH2 0x2697 DUP2 PUSH2 0x1AAC JUMP JUMPDEST SWAP1 PUSH1 0x1 DUP1 PUSH1 0xA0 SHL SUB SWAP2 DUP3 SWAP2 SLOAD SWAP1 PUSH1 0x3 SHL SHR AND SWAP1 DUP5 AND DUP4 MSTORE PUSH1 0x20 PUSH1 0x6 DUP2 MSTORE PUSH1 0x40 SWAP1 PUSH1 0x1 DUP3 DUP7 KECCAK256 ADD SWAP1 DUP4 DUP7 MSTORE MSTORE DUP4 KECCAK256 SLOAD SWAP1 DUP2 PUSH2 0x26DC JUMPI JUMPDEST POP POP PUSH2 0x26D7 SWAP1 PUSH2 0x2016 JUMP JUMPDEST PUSH2 0x2681 JUMP JUMPDEST SWAP7 PUSH2 0x152B PUSH2 0x26EE SWAP3 PUSH2 0x26D7 SWAP5 SWAP10 PUSH2 0x2927 JUMP JUMPDEST SWAP6 SWAP1 CODESIZE PUSH2 0x26CC JUMP JUMPDEST PUSH1 0x1 DUP1 PUSH1 0xA0 SHL SUB SWAP1 DUP2 PUSH1 0x0 SWAP2 AND DUP2 MSTORE PUSH1 0x20 PUSH1 0x5 DUP2 MSTORE PUSH1 0x40 SWAP2 DUP3 DUP2 KECCAK256 SWAP4 PUSH1 0xFF DUP6 SLOAD AND ISZERO PUSH2 0x2916 JUMPI PUSH1 0x3 DUP6 ADD DUP4 DUP6 MLOAD DUP1 SWAP3 PUSH4 0xD12162D3 PUSH1 0xE0 SHL DUP3 MSTORE DUP3 PUSH1 0x4 DUP4 ADD MSTORE DUP6 SWAP1 DUP1 SLOAD PUSH2 0x2742 DUP2 PUSH2 0x1AF9 JUMP JUMPDEST SWAP2 DUP3 PUSH1 0x24 DUP7 ADD MSTORE PUSH1 0x1 SWAP2 DUP6 DUP4 DUP3 AND SWAP2 DUP3 PUSH1 0x0 EQ PUSH2 0x28F4 JUMPI POP POP PUSH1 0x1 EQ PUSH2 0x28BB JUMPI JUMPDEST POP POP POP DUP2 SWAP1 SUB DUP2 DUP6 PUSH32 0x0 AND GAS STATICCALL SWAP1 DUP2 ISZERO PUSH2 0x28B1 JUMPI DUP4 SWAP2 PUSH2 0x2877 JUMPI JUMPDEST POP AND SWAP4 DUP5 ISZERO PUSH2 0x286B JUMPI POP PUSH1 0x60 DUP4 SWAP5 PUSH1 0x4 SWAP5 MLOAD SWAP5 DUP6 DUP1 SWAP3 PUSH4 0x3FABE5A3 PUSH1 0xE2 SHL DUP3 MSTORE GAS STATICCALL DUP1 SWAP4 DUP3 SWAP5 PUSH2 0x2820 JUMPI JUMPDEST POP PUSH2 0x27DE JUMPI DUP4 MLOAD PUSH4 0x3B98B047 PUSH1 0xE2 SHL DUP2 MSTORE PUSH1 0x4 SWAP1 REVERT JUMPDEST DUP3 SWAP4 SWAP2 SWAP3 SGT ISZERO PUSH2 0x27ED JUMPI POP POP SWAP1 JUMP JUMPDEST PUSH1 0x64 SWAP3 POP MLOAD SWAP1 PUSH3 0x461BCD PUSH1 0xE5 SHL DUP3 MSTORE PUSH1 0x4 DUP3 ADD MSTORE PUSH1 0xD PUSH1 0x24 DUP3 ADD MSTORE PUSH13 0x496E76616C6964207072696365 PUSH1 0x98 SHL PUSH1 0x44 DUP3 ADD MSTORE REVERT JUMPDEST SWAP1 SWAP4 POP PUSH1 0x60 DUP2 RETURNDATASIZE DUP3 GT PUSH2 0x2863 JUMPI JUMPDEST DUP2 PUSH2 0x283B PUSH1 0x60 SWAP4 DUP4 PUSH2 0x1A33 JUMP JUMPDEST DUP2 ADD SUB SLT PUSH2 0x285F JUMPI DUP1 MLOAD PUSH8 0xFFFFFFFFFFFFFFFF DUP2 AND SUB PUSH2 0x285F JUMPI DUP3 ADD MLOAD SWAP3 CODESIZE PUSH2 0x27C8 JUMP JUMPDEST POP DUP1 REVERT JUMPDEST RETURNDATASIZE SWAP2 POP PUSH2 0x282E JUMP JUMPDEST PUSH1 0x18 ADD SLOAD SWAP5 SWAP4 POP POP POP POP JUMP JUMPDEST SWAP1 POP DUP4 DUP2 DUP2 RETURNDATASIZE DUP4 GT PUSH2 0x28AA JUMPI JUMPDEST PUSH2 0x288E DUP2 DUP4 PUSH2 0x1A33 JUMP JUMPDEST DUP2 ADD SUB SLT PUSH2 0x28A6 JUMPI MLOAD DUP2 DUP2 AND DUP2 SUB PUSH2 0x28A6 JUMPI CODESIZE PUSH2 0x279D JUMP JUMPDEST DUP3 DUP1 REVERT JUMPDEST POP RETURNDATASIZE PUSH2 0x2884 JUMP JUMPDEST DUP6 MLOAD RETURNDATASIZE DUP6 DUP3 RETURNDATACOPY RETURNDATASIZE SWAP1 REVERT JUMPDEST DUP9 MSTORE DUP5 DUP9 KECCAK256 DUP9 SWAP4 POP JUMPDEST DUP3 DUP5 LT PUSH2 0x28DB JUMPI POP POP POP DUP2 ADD PUSH1 0x44 ADD DUP2 CODESIZE DUP1 PUSH2 0x2763 JUMP JUMPDEST DUP1 SLOAD PUSH1 0x44 DUP6 DUP10 ADD ADD MSTORE DUP10 SWAP6 DUP8 SWAP6 POP SWAP1 SWAP4 ADD SWAP3 DUP2 ADD PUSH2 0x28C4 JUMP JUMPDEST SWAP3 POP SWAP5 POP POP PUSH1 0x44 SWAP3 SWAP2 POP PUSH1 0xFF NOT AND DUP3 DUP5 ADD MSTORE ISZERO ISZERO PUSH1 0x5 SHL DUP3 ADD ADD SWAP1 CODESIZE DUP1 PUSH2 0x2763 JUMP JUMPDEST DUP4 MLOAD PUSH4 0x981A2A2B PUSH1 0xE0 SHL DUP2 MSTORE PUSH1 0x4 SWAP1 REVERT JUMPDEST PUSH1 0x4 PUSH1 0x20 PUSH2 0x2934 DUP4 PUSH2 0x26F6 JUMP JUMPDEST PUSH1 0x40 MLOAD PUSH4 0x313CE567 PUSH1 0xE0 SHL DUP2 MSTORE SWAP1 SWAP4 SWAP1 SWAP3 DUP4 SWAP2 DUP3 SWAP1 PUSH1 0x1 PUSH1 0x1 PUSH1 0xA0 SHL SUB AND GAS STATICCALL SWAP1 DUP2 ISZERO PUSH2 0x165B JUMPI PUSH1 0x0 SWAP2 PUSH2 0x2987 JUMPI JUMPDEST POP SWAP1 PUSH1 0xFF PUSH2 0x2972 SWAP3 AND SWAP3 PUSH2 0x1C16 JUMP JUMPDEST PUSH1 0x4D DUP3 GT PUSH2 0x29D JUMPI PUSH2 0x1CFE SWAP2 PUSH1 0xA EXP SWAP1 PUSH2 0x1C29 JUMP JUMPDEST PUSH1 0x20 DUP2 RETURNDATASIZE DUP3 GT PUSH2 0x29BE JUMPI JUMPDEST DUP2 PUSH2 0x299F PUSH1 0x20 SWAP4 DUP4 PUSH2 0x1A33 JUMP JUMPDEST DUP2 ADD SUB SLT PUSH2 0x285F JUMPI MLOAD SWAP1 PUSH1 0xFF DUP3 AND DUP3 SUB PUSH2 0x29BB JUMPI POP PUSH1 0xFF PUSH2 0x2963 JUMP JUMPDEST DUP1 REVERT JUMPDEST RETURNDATASIZE SWAP2 POP PUSH2 0x2992 JUMP JUMPDEST PUSH2 0x29D8 PUSH2 0x29D2 DUP3 PUSH2 0x24F2 JUMP JUMPDEST SWAP2 PUSH2 0x2677 JUMP JUMPDEST SWAP1 DUP2 ISZERO PUSH2 0x2A09 JUMPI PUSH8 0xDE0B6B3A7640000 SWAP2 DUP3 DUP3 MUL SWAP2 DUP1 DUP4 DIV DUP5 EQ SWAP1 ISZERO OR ISZERO PUSH2 0x29D JUMPI PUSH2 0x2A03 SWAP2 PUSH2 0x1C29 JUMP JUMPDEST SWAP1 DUP2 LT SWAP2 JUMP JUMPDEST POP PUSH1 0x0 SWAP2 PUSH1 0x0 NOT SWAP2 POP JUMP INVALID LOG2 PUSH5 0x6970667358 0x22 SLT KECCAK256 NOT 0xBB SELFBALANCE 0xC2 PUSH18 0x6AAF428B92AD79D1A3C1893413BECD0C509B OR BALANCE SUB CALLVALUE 0x29 0xA7 BALANCE DUP7 0xD2 PUSH5 0x736F6C6343 STOP ADDMOD EQ STOP CALLER "},"methodIdentifiers":{"BASIS_POINTS()":"e1f1c4a7","PRECISION()":"aaf5eb68","SECONDS_PER_YEAR()":"e6a69ab8","addAssetWithBondingCurves(address,uint256,uint256,string,bool,bool,(uint256,uint256,uint256,uint256,uint256,uint256,uint256,uint256,uint256,uint256,uint256,uint256))":"62993344","assets(address)":"f11b8188","borrow(address,uint256)":"4b8a3529","calculateBondingCurveInterestRate(address)":"879b3ed5","calculateBondingCurveLiquidationPenalty(address,uint256)":"79500bf6","calculateCollateralHaircut(address)":"9b681e17","calculateTimeBondingCurveLTV(address,address)":"14d911c3","checkLiquidation(address)":"a274f4ac","deposit(address,uint256)":"47e7ef24","feeRecipient()":"46904840","getAssetPrice(address)":"b3596f07","getBondingCurveMetrics(address)":"a9a4dbbc","getEffectiveCollateralUSD(address)":"cd9cebfd","getEnhancedUserPosition(address)":"f413e0f6","getTotalBorrowUSD(address)":"ea6a2872","getTotalCollateralUSD(address)":"f91bff57","getUSDValue(address,uint256)":"fa76dcf2","gracePeriod()":"a06db7dc","lenderInterest(address,address)":"62fff3f6","liquidateWithBondingCurve(address,address,uint256)":"7367eade","oraklRouter()":"1e691827","owner()":"8da5cb5b","platformFee()":"26232a2e","renounceOwnership()":"715018a6","repay(address,uint256)":"22867d78","supportedAssets(uint256)":"c68dbb37","transferOwnership(address)":"f2fde38b","updateBondingCurveParameter(address,string,uint256)":"915d9342","updateInterestWithBondingCurve(address)":"727a6677","updateVolatilityMetrics(address)":"710094df","withdraw(address,uint256)":"f3fef3a3"}}}}}