{"contracts/KaiaCompatibleRWATokens.sol":{"KaiaRWAPlatformDeployer":{"abi":[{"anonymous":false,"inputs":[{"indexed":false,"internalType":"address","name":"asset","type":"address"},{"indexed":false,"internalType":"string","name":"assetType","type":"string"}],"name":"BondingCurveConfigured","type":"event"},{"anonymous":false,"inputs":[{"components":[{"internalType":"address","name":"lendingPlatform","type":"address"},{"internalType":"address","name":"tokenizedGold","type":"address"},{"internalType":"address","name":"tokenizedSilver","type":"address"},{"internalType":"address","name":"tokenizedRealEstate","type":"address"},{"internalType":"address","name":"dummyUSDT","type":"address"},{"internalType":"address","name":"demoContract","type":"address"}],"indexed":false,"internalType":"struct KaiaRWAPlatformDeployer.DeployedContracts","name":"contracts","type":"tuple"}],"name":"PlatformDeployed","type":"event"},{"inputs":[],"name":"KAIA_DUMMY_USDT","outputs":[{"internalType":"address","name":"","type":"address"}],"stateMutability":"view","type":"function"},{"inputs":[{"internalType":"address","name":"oraklRouter","type":"address"},{"internalType":"address","name":"feeRecipient","type":"address"}],"name":"deployKaiaCompatiblePlatform","outputs":[{"components":[{"internalType":"address","name":"lendingPlatform","type":"address"},{"internalType":"address","name":"tokenizedGold","type":"address"},{"internalType":"address","name":"tokenizedSilver","type":"address"},{"internalType":"address","name":"tokenizedRealEstate","type":"address"},{"internalType":"address","name":"dummyUSDT","type":"address"},{"internalType":"address","name":"demoContract","type":"address"}],"internalType":"struct KaiaRWAPlatformDeployer.DeployedContracts","name":"","type":"tuple"}],"stateMutability":"nonpayable","type":"function"},{"inputs":[],"name":"deployedContracts","outputs":[{"internalType":"address","name":"lendingPlatform","type":"address"},{"internalType":"address","name":"tokenizedGold","type":"address"},{"internalType":"address","name":"tokenizedSilver","type":"address"},{"internalType":"address","name":"tokenizedRealEstate","type":"address"},{"internalType":"address","name":"dummyUSDT","type":"address"},{"internalType":"address","name":"demoContract","type":"address"}],"stateMutability":"view","type":"function"},{"inputs":[],"name":"getContracts","outputs":[{"components":[{"internalType":"address","name":"lendingPlatform","type":"address"},{"internalType":"address","name":"tokenizedGold","type":"address"},{"internalType":"address","name":"tokenizedSilver","type":"address"},{"internalType":"address","name":"tokenizedRealEstate","type":"address"},{"internalType":"address","name":"dummyUSDT","type":"address"},{"internalType":"address","name":"demoContract","type":"address"}],"internalType":"struct KaiaRWAPlatformDeployer.DeployedContracts","name":"","type":"tuple"}],"stateMutability":"view","type":"function"}],"evm":{"bytecode":{"linkReferences":{},"object":"6080806040523461001657617124908161001c8239f35b600080fdfe60808060405260043610156200001457600080fd5b600090813560e01c908163628944121462000b2957508063a98cb718146200013d578063c3a2a93a14620000b65763c54a9588146200005257600080fd5b34620000b35780600319360112620000b35754600154600254600354600454600554604080516001600160a01b03978816815295871660208701529386169385019390935290841660608401528316608083015290911660a082015260c090f35b80fd5b5034620000b35780600319360112620000b357620000d362000bbf565b5062000139620000e262000bf3565b6040519182918291909160a060c082019381600180821b0391828151168552826020820151166020860152826040820151166040860152826060820151166060860152826080820151166080860152015116910152565b0390f35b5034620000b3576040366003190112620000b3576004356001600160a01b0381169081900362000adf576024356001600160a01b038116919082900362000afb576200018862000bbf565b50604051610f388082019082821067ffffffffffffffff83111762000ab35790829162000cbd8339039084f0801562000a6b5760018060a01b03166001600160601b0360a01b6001541617600155604051610f418082019082821067ffffffffffffffff83111762000ab35790829162001bf58339039084f0801562000a6b5760018060a01b03166001600160601b0360a01b6002541617600255604051610f458082019082821067ffffffffffffffff83111762000ab35790829162002b368339039084f0801562000a6b5760018060a01b03166001600160601b0360a01b60035416176003557307ba937403023ccd444923b183d42438b70578116001600160601b0360a01b600454161760045560405191612b83918284019284841067ffffffffffffffff85111762000ab357916040939185936200454c85398252602082015203019082f0801562000aa65760018060a01b031690816001600160601b0360a01b825416178155604051620003018162000b59565b61012c8152611b586020820152671bc16d674ec8000060408201526105dc60608201819052610320608083015260a0820152606460c08201526101f460e08201526103e86101008201526107d0610120820152603261014082015262ed4e006101608201526001546001600160a01b031690833b1562000afb57620003de90604051926318a64cd160e21b84526004840152611d4c6024840152612134604484015261024060648401526009610244840152681d11d3d3110b5554d160ba1b610264840152836084840152600160a484015260c483019062000c45565b81816102848183875af1801562000a415762000b17575b5090600080516020620070cf833981519152608060018060a01b036001541660405190815260406020820152600460408201526311dbdb1960e21b6060820152a181604051620004458162000b59565b610190815261177060208201526729a2241af62c000060408201526107d0606082018190526103e8608083015260a0820152609660c082015261032060e08201526105dc6101008201526109c4610120820152604b610140820152629e34006101608201526002546001600160a01b031690833b1562000afb576200052490604051926318a64cd160e21b845260048401526119646024840152611d4c60448401526102406064840152600b6102448401526a1d14d2531591548b5554d160aa1b610264840152836084840152600160a484015260c483019062000c45565b81816102848183875af1801562000a415762000aff575b5050600080516020620070cf833981519152608060018060a01b036002541660405190815260406020820152600660408201526529b4b63b32b960d11b6060820152a1816040516200058d8162000b59565b60fa8152611f406020820152671bc16d674ec8000060408201526104b060608201819052610258608083015260a0820152604b60c082015261012c60e08201526101f46101008201526105dc61012082015260196101408201526301e133806101608201526003546001600160a01b031690833b1562000afb576200066a90604051926318a64cd160e21b84526004840152611f406024840152612328604484015261024060648401526009610244840152681d149150530b5554d160ba1b610264840152836084840152600160a484015260c483019062000c45565b81816102848183875af1801562000a415762000ae3575b5050600080516020620070cf833981519152608060018060a01b036003541660405190815260406020820152600a6040820152695265616c45737461746560b01b6060820152a181604051620006d78162000b59565b60c88152611f406020820152671bc16d674ec8000060408201526105dc60608201528160808201528160a08201528160c08201528160e082015281610100820152816101208201528161014082015281610160820152823b1562000adf57620007a7604051916318a64cd160e21b83527307ba937403023ccd444923b183d42438b7057811600484015283602484015283604484015261024060648401526008610244840152671554d1150b5554d160c21b610264840152600160848401528360a484015260c483019062000c45565b81816102848183875af1801562000a415762000ac7575b5050600080516020620070cf83398151915260806040517307ba937403023ccd444923b183d42438b70578118152604060208201526009604082015268111d5b5b5e5554d11560ba1b6060820152a1600154600254600354604051936001600160a01b0391821693928216929091169067ffffffffffffffff610ad186019081119086111762000ab357610ad162003a7b8639610ad18501526020610ad1850101526040610ad1840101526060610ad1830101527307ba937403023ccd444923b183d42438b70578116080610ad18301015260a081610ad1810103019082f0801562000aa657600580546001600160a01b0319166001600160a01b03928316179055600154829116803b1562000a685760405182816024818363f2fde38b60e01b968783523360048401525af190811562000a6b57839162000a8e575b50506002546001600160a01b0316803b1562000a4c578280916024604051809481938783523360048401525af190811562000a6b57839162000a76575b50506003546001600160a01b0316803b1562000a4c578280916024604051809481938783523360048401525af190811562000a6b57839162000a50575b505081546001600160a01b0316803b1562000a4c5760248392604051948593849283523360048401525af1801562000a415762000a29575b6040805183546001600160a01b03908116825260015481166020830152600254811692820192909252600354821660608201526004548216608082015260055490911660a08201527f37c42e83002a694cf456b5a802a0ef57f1428ced93a85257623ed82ac371546a9060c090a162000139620000e262000bf3565b62000a35829162000b8d565b620000b35738620009ad565b6040513d84823e3d90fd5b5050fd5b62000a5b9062000b8d565b62000a6857813862000975565b50fd5b6040513d85823e3d90fd5b62000a819062000b8d565b62000a6857813862000938565b62000a999062000b8d565b62000a68578138620008fb565b50604051903d90823e3d90fd5b634e487b7160e01b86526041600452602486fd5b62000ad29062000b8d565b62000adf578138620007be565b5080fd5b62000aee9062000b8d565b62000adf57813862000681565b8280fd5b62000b0a9062000b8d565b62000adf5781386200053b565b62000b229062000b8d565b38620003f5565b90503462000adf578160031936011262000adf57807307ba937403023ccd444923b183d42438b705781160209252f35b610180810190811067ffffffffffffffff82111762000b7757604052565b634e487b7160e01b600052604160045260246000fd5b67ffffffffffffffff811162000b7757604052565b60c0810190811067ffffffffffffffff82111762000b7757604052565b6040519062000bce8262000ba2565b8160a06000918281528260208201528260408201528260608201528260808201520152565b6040519062000c028262000ba2565b6000546001600160a01b039081168352600154811660208401526002548116604084015260035481166060840152600454811660808401526005541660a0830152565b805182526020810151602083015260408101516040830152606081015160608301526080810151608083015260a081015160a083015260c081015160c083015260e081015160e08301526101008082015190830152610120808201519083015261014080820151908301526101608091015191015256fe6080346200041e576040906001600160401b038183018181118382101762000320578352600e82526020906d151bdad95b9a5e99590811dbdb1960921b828401528351928484018481108382111762000320578552600591828552641d11d3d31160da1b84860152815181811162000320576003908154906001948583811c9316801562000413575b88841014620003fd578190601f93848111620003a9575b508890848311600114620003425760009262000336575b505060001982851b1c191690851b1782555b8651928311620003205760049687548581811c9116801562000315575b888210146200030057828111620002b7575b50869184116001146200024c5793839491849260009562000240575b50501b92600019911b1c19161783555b33156200022957805460ff9190336001600160a01b0382167f8be0079c531659141344cd1fd0a4f28419497f9722a3daafe3b4186f6b6457e0600080a36001600160a81b0319163360a084811b199190911691909117600960a11b17918290551c16604d81116200021457600a0a9161797f9280840293840403620001ff5760025490838201809211620001ff57506000917fddf252ad1be2c89b69c2b068fc378daa952ba7f163c4a11628f55a4df523b3ef9160025533835282815284832084815401905584519384523393a351610b149081620004248239f35b601190634e487b7160e01b6000525260246000fd5b601183634e487b7160e01b6000525260246000fd5b8351631e4fbdf760e01b8152600081850152602490fd5b01519350388062000113565b9190601f198416928860005284886000209460005b8a898383106200029f575050501062000284575b50505050811b01835562000123565b01519060f884600019921b161c191690553880808062000275565b86860151895590970196948501948893500162000261565b886000528760002083808701891c8201928a8810620002f6575b01881c019086905b828110620002e9575050620000f7565b60008155018690620002d9565b92508192620002d1565b602289634e487b7160e01b6000525260246000fd5b90607f1690620000e5565b634e487b7160e01b600052604160045260246000fd5b015190503880620000b6565b90879350601f19831691866000528a6000209260005b8c82821062000392575050841162000379575b505050811b018255620000c8565b015160001983871b60f8161c191690553880806200036b565b8385015186558b9790950194938401930162000358565b9091508460005288600020848085018a1c8201928b8610620003f3575b91899186959493018b1c01915b828110620003e35750506200009f565b60008155859450899101620003d3565b92508192620003c6565b634e487b7160e01b600052602260045260246000fd5b92607f169262000088565b600080fdfe6080604081815260048036101561001557600080fd5b600092833560e01c90816301d8a296146108fe5750806306fdde0314610823578063095ea7b31461077a57806318160ddd1461075b57806323b872dd14610668578063313ce5671461064357806340c10f191461059457806370a082311461055d578063715018a6146104fd57806376697640146104d95780637d1d5d19146104bb5780638a877205146104835780638da5cb5b1461045a57806395d89b411461033a578063a9059cbb14610309578063dd62ed3e146102c0578063de5f72fd1461017b5763f2fde38b146100e957600080fd5b346101775760203660031901126101775761010261095a565b9061010b6109d4565b6001600160a01b03918216928315610161575050600554826bffffffffffffffffffffffff60a01b821617600555167f8be0079c531659141344cd1fd0a4f28419497f9722a3daafe3b4186f6b6457e08380a380f35b51631e4fbdf760e01b8152908101849052602490fd5b8280fd5b509190346102bc57816003193601126102bc57338252602060068152818320546201518081018091116102a957421061026e57338352600681524282842055331561025757600254916801158e460913d000009283810180911161024457907f5d4f415c63cd8a5874d9d291cdd64cec37e5dc236d90d659c958d109d78074b392916002553385528482528085208481540190558051848152857fddf252ad1be2c89b69c2b068fc378daa952ba7f163c4a11628f55a4df523b3ef843393a3519283523392a280f35b634e487b7160e01b855260118652602485fd5b815163ec442f0560e01b8152808501849052602490fd5b8390606492519162461bcd60e51b8352820152601660248201527546617563657420636f6f6c646f776e2061637469766560501b6044820152fd5b634e487b7160e01b845260118552602484fd5b5080fd5b5050346102bc57806003193601126102bc57806020926102de61095a565b6102e6610975565b6001600160a01b0391821683526001865283832091168252845220549051908152f35b5050346102bc57806003193601126102bc5760209061033361032961095a565b6024359033610a00565b5160018152f35b509190346102bc57816003193601126102bc57805190828454600181811c90808316928315610450575b602093848410811461043d5783885290811561042157506001146103cc575b505050829003601f01601f191682019267ffffffffffffffff8411838510176103b957508291826103b592528261098b565b0390f35b634e487b7160e01b815260418552602490fd5b8787529192508591837f8a35acfbc15ff81a39ae7d344fd709f28e8600b4aa8c65c6b64bfe7fe36bd19b5b83851061040d5750505050830101388080610383565b8054888601830152930192849082016103f7565b60ff1916878501525050151560051b8401019050388080610383565b634e487b7160e01b895260228a52602489fd5b91607f1691610364565b5050346102bc57816003193601126102bc5760055490516001600160a01b039091168152602090f35b5050346102bc5760203660031901126102bc5760209181906001600160a01b036104ab61095a565b1681526006845220549051908152f35b5050346102bc57816003193601126102bc5760209051620151808152f35b5050346102bc57816003193601126102bc57602090516801158e460913d000008152f35b833461055a578060031936011261055a576105166109d4565b600580546001600160a01b0319811690915581906001600160a01b03167f8be0079c531659141344cd1fd0a4f28419497f9722a3daafe3b4186f6b6457e08280a380f35b80fd5b5050346102bc5760203660031901126102bc5760209181906001600160a01b0361058561095a565b16815280845220549051908152f35b5090346101775780600319360112610177576105ae61095a565b90602435916105bb6109d4565b6001600160a01b031692831561062e576002549083820180921161061b575084927fddf252ad1be2c89b69c2b068fc378daa952ba7f163c4a11628f55a4df523b3ef9260209260025585855284835280852082815401905551908152a380f35b634e487b7160e01b865260119052602485fd5b84602492519163ec442f0560e01b8352820152fd5b5050346102bc57816003193601126102bc5760209060ff60055460a01c169051908152f35b50823461055a57606036600319011261055a5761068361095a565b61068b610975565b916044359360018060a01b0383168083526001602052868320338452602052868320549160001983106106c7575b602088610333898989610a00565b86831061072f57811561071857331561070157508252600160209081528683203384528152918690209085900390558290610333876106b9565b8751634a1406b160e11b8152908101849052602490fd5b875163e602df0560e01b8152908101849052602490fd5b8751637dc7a0d960e11b8152339181019182526020820193909352604081018790528291506060010390fd5b5050346102bc57816003193601126102bc576020906002549051908152f35b503461017757816003193601126101775761079361095a565b60243590331561080c576001600160a01b03169182156107f557508083602095338152600187528181208582528752205582519081527f8c5be1e5ebec7d5bd14f71427d1e84f3dd0314c0f7b2291e5b200ac8c7c3b925843392a35160018152f35b8351634a1406b160e11b8152908101859052602490fd5b835163e602df0560e01b8152808401869052602490fd5b509190346102bc57816003193601126102bc5780519082600354600181811c908083169283156108f4575b602093848410811461043d57838852908115610421575060011461089e57505050829003601f01601f191682019267ffffffffffffffff8411838510176103b957508291826103b592528261098b565b600387529192508591837fc2575a0e9e593c00f959f8c92f12db2869c3395a3b0502d05e2516446f71f85b5b8385106108e05750505050830101388080610383565b8054888601830152930192849082016108ca565b91607f169161084e565b90508383346102bc5760203660031901126102bc576001600160a01b0361092361095a565b16825260066020528120549062015180820180921161094757602083834210158152f35b634e487b7160e01b815260118452602490fd5b600435906001600160a01b038216820361097057565b600080fd5b602435906001600160a01b038216820361097057565b6020808252825181830181905290939260005b8281106109c057505060409293506000838284010152601f8019910116010190565b81810186015184820160400152850161099e565b6005546001600160a01b031633036109e857565b60405163118cdaa760e01b8152336004820152602490fd5b916001600160a01b03808416928315610ac55716928315610aac5760009083825281602052604082205490838210610a7a575091604082827fddf252ad1be2c89b69c2b068fc378daa952ba7f163c4a11628f55a4df523b3ef958760209652828652038282205586815220818154019055604051908152a3565b60405163391434e360e21b81526001600160a01b03919091166004820152602481019190915260448101839052606490fd5b60405163ec442f0560e01b815260006004820152602490fd5b604051634b637e8f60e11b815260006004820152602490fdfea2646970667358221220aa25af6faadb15e26552a66d86e45c0d25a2a318f04d2d48b928d124297dacd464736f6c6343000814003360803462000427576040906001600160401b03908083018281118282101762000327578352601081526020906f2a37b5b2b734bd32b21029b4b63b32b960811b82820152835192848401848110828211176200032757855260078452663a29a4a62b22a960c91b83850152815181811162000327576003908154906001948583811c931680156200041c575b8784101462000406578190601f93848111620003b0575b50879084831160011462000349576000926200033d575b505060001982851b1c191690851b1782555b8551928311620003275760049586548581811c911680156200031c575b878210146200030757828111620002bc575b5085918411600114620002515793839491849260009562000245575b50501b92600019911b1c19161782555b33156200022e5760055460ff90336001600160a01b0382167f8be0079c531659141344cd1fd0a4f28419497f9722a3daafe3b4186f6b6457e0600080a36001600160a81b0319163360a083811b199190911691909117600960a11b176005819055901c16604d81116200021957600a0a9161271092808402938404036200020457600254908382018092116200020457506000917fddf252ad1be2c89b69c2b068fc378daa952ba7f163c4a11628f55a4df523b3ef9160025533835282815284832084815401905584519384523393a351610b1490816200042d8239f35b601190634e487b7160e01b6000525260246000fd5b601183634e487b7160e01b6000525260246000fd5b5060006024925191631e4fbdf760e01b8352820152fd5b01519350388062000116565b9190601f198416928760005284876000209460005b8989838310620002a4575050501062000289575b50505050811b01825562000126565b01519060f884600019921b161c19169055388080806200027a565b86860151895590970196948501948893500162000266565b87600052866000208380870160051c820192898810620002fd575b0160051c019086905b828110620002f0575050620000fa565b60008155018690620002e0565b92508192620002d7565b602288634e487b7160e01b6000525260246000fd5b90607f1690620000e8565b634e487b7160e01b600052604160045260246000fd5b015190503880620000b9565b90879350601f1983169186600052896000209260005b8b82821062000399575050841162000380575b505050811b018255620000cb565b015160001983871b60f8161c1916905538808062000372565b8385015186558b979095019493840193016200035f565b90915084600052876000208480850160051c8201928a8610620003fc575b918991869594930160051c01915b828110620003ec575050620000a2565b60008155859450899101620003dc565b92508192620003ce565b634e487b7160e01b600052602260045260246000fd5b92607f16926200008b565b600080fdfe6080604081815260048036101561001557600080fd5b600092833560e01c90816301d8a296146108fe5750806306fdde0314610823578063095ea7b31461077a57806318160ddd1461075b57806323b872dd14610668578063313ce5671461064357806340c10f191461059457806370a082311461055d578063715018a6146104fd57806376697640146104d95780637d1d5d19146104bb5780638a877205146104835780638da5cb5b1461045a57806395d89b411461033a578063a9059cbb14610309578063dd62ed3e146102c0578063de5f72fd1461017b5763f2fde38b146100e957600080fd5b346101775760203660031901126101775761010261095a565b9061010b6109d4565b6001600160a01b03918216928315610161575050600554826bffffffffffffffffffffffff60a01b821617600555167f8be0079c531659141344cd1fd0a4f28419497f9722a3daafe3b4186f6b6457e08380a380f35b51631e4fbdf760e01b8152908101849052602490fd5b8280fd5b509190346102bc57816003193601126102bc57338252602060068152818320546201518081018091116102a957421061026e573383526006815242828420553315610257576002549168022b1c8c1227a000009283810180911161024457907f5d4f415c63cd8a5874d9d291cdd64cec37e5dc236d90d659c958d109d78074b392916002553385528482528085208481540190558051848152857fddf252ad1be2c89b69c2b068fc378daa952ba7f163c4a11628f55a4df523b3ef843393a3519283523392a280f35b634e487b7160e01b855260118652602485fd5b815163ec442f0560e01b8152808501849052602490fd5b8390606492519162461bcd60e51b8352820152601660248201527546617563657420636f6f6c646f776e2061637469766560501b6044820152fd5b634e487b7160e01b845260118552602484fd5b5080fd5b5050346102bc57806003193601126102bc57806020926102de61095a565b6102e6610975565b6001600160a01b0391821683526001865283832091168252845220549051908152f35b5050346102bc57806003193601126102bc5760209061033361032961095a565b6024359033610a00565b5160018152f35b509190346102bc57816003193601126102bc57805190828454600181811c90808316928315610450575b602093848410811461043d5783885290811561042157506001146103cc575b505050829003601f01601f191682019267ffffffffffffffff8411838510176103b957508291826103b592528261098b565b0390f35b634e487b7160e01b815260418552602490fd5b8787529192508591837f8a35acfbc15ff81a39ae7d344fd709f28e8600b4aa8c65c6b64bfe7fe36bd19b5b83851061040d5750505050830101388080610383565b8054888601830152930192849082016103f7565b60ff1916878501525050151560051b8401019050388080610383565b634e487b7160e01b895260228a52602489fd5b91607f1691610364565b5050346102bc57816003193601126102bc5760055490516001600160a01b039091168152602090f35b5050346102bc5760203660031901126102bc5760209181906001600160a01b036104ab61095a565b1681526006845220549051908152f35b5050346102bc57816003193601126102bc5760209051620151808152f35b5050346102bc57816003193601126102bc576020905168022b1c8c1227a000008152f35b833461055a578060031936011261055a576105166109d4565b600580546001600160a01b0319811690915581906001600160a01b03167f8be0079c531659141344cd1fd0a4f28419497f9722a3daafe3b4186f6b6457e08280a380f35b80fd5b5050346102bc5760203660031901126102bc5760209181906001600160a01b0361058561095a565b16815280845220549051908152f35b5090346101775780600319360112610177576105ae61095a565b90602435916105bb6109d4565b6001600160a01b031692831561062e576002549083820180921161061b575084927fddf252ad1be2c89b69c2b068fc378daa952ba7f163c4a11628f55a4df523b3ef9260209260025585855284835280852082815401905551908152a380f35b634e487b7160e01b865260119052602485fd5b84602492519163ec442f0560e01b8352820152fd5b5050346102bc57816003193601126102bc5760209060ff60055460a01c169051908152f35b50823461055a57606036600319011261055a5761068361095a565b61068b610975565b916044359360018060a01b0383168083526001602052868320338452602052868320549160001983106106c7575b602088610333898989610a00565b86831061072f57811561071857331561070157508252600160209081528683203384528152918690209085900390558290610333876106b9565b8751634a1406b160e11b8152908101849052602490fd5b875163e602df0560e01b8152908101849052602490fd5b8751637dc7a0d960e11b8152339181019182526020820193909352604081018790528291506060010390fd5b5050346102bc57816003193601126102bc576020906002549051908152f35b503461017757816003193601126101775761079361095a565b60243590331561080c576001600160a01b03169182156107f557508083602095338152600187528181208582528752205582519081527f8c5be1e5ebec7d5bd14f71427d1e84f3dd0314c0f7b2291e5b200ac8c7c3b925843392a35160018152f35b8351634a1406b160e11b8152908101859052602490fd5b835163e602df0560e01b8152808401869052602490fd5b509190346102bc57816003193601126102bc5780519082600354600181811c908083169283156108f4575b602093848410811461043d57838852908115610421575060011461089e57505050829003601f01601f191682019267ffffffffffffffff8411838510176103b957508291826103b592528261098b565b600387529192508591837fc2575a0e9e593c00f959f8c92f12db2869c3395a3b0502d05e2516446f71f85b5b8385106108e05750505050830101388080610383565b8054888601830152930192849082016108ca565b91607f169161084e565b90508383346102bc5760203660031901126102bc576001600160a01b0361092361095a565b16825260066020528120549062015180820180921161094757602083834210158152f35b634e487b7160e01b815260118452602490fd5b600435906001600160a01b038216820361097057565b600080fd5b602435906001600160a01b038216820361097057565b6020808252825181830181905290939260005b8281106109c057505060409293506000838284010152601f8019910116010190565b81810186015184820160400152850161099e565b6005546001600160a01b031633036109e857565b60405163118cdaa760e01b8152336004820152602490fd5b916001600160a01b03808416928315610ac55716928315610aac5760009083825281602052604082205490838210610a7a575091604082827fddf252ad1be2c89b69c2b068fc378daa952ba7f163c4a11628f55a4df523b3ef958760209652828652038282205586815220818154019055604051908152a3565b60405163391434e360e21b81526001600160a01b03919091166004820152602481019190915260448101839052606490fd5b60405163ec442f0560e01b815260006004820152602490fd5b604051634b637e8f60e11b815260006004820152602490fdfea26469706673582212200924f33e976882a0ebf3830a57d8794eda4876df1e74f5cb0c5b6a046e599cf364736f6c634300081400336080346200042d576040906001600160401b03818301818111838210176200032f578352601582526020907f546f6b656e697a6564205265616c20457374617465000000000000000000000082840152835192848401848110838211176200032f578552600591828552641d1491505360da1b8486015281518181116200032f576003908154906001948583811c9316801562000422575b888410146200040c578190601f93848111620003b8575b508890848311600114620003515760009262000345575b505060001982851b1c191690851b1782555b86519283116200032f5760049687548581811c9116801562000324575b888210146200030f57828111620002c6575b50869184116001146200025b579383949184926000956200024f575b50501b92600019911b1c19161783555b33156200023857805460ff9190336001600160a01b0382167f8be0079c531659141344cd1fd0a4f28419497f9722a3daafe3b4186f6b6457e0600080a36001600160a81b0319163360a084811b199190911691909117600960a11b17918290551c16604d81116200022357600a0a9161271092808402938404036200020e57600254908382018092116200020e57506000917fddf252ad1be2c89b69c2b068fc378daa952ba7f163c4a11628f55a4df523b3ef9160025533835282815284832084815401905584519384523393a351610b129081620004338239f35b601190634e487b7160e01b6000525260246000fd5b601183634e487b7160e01b6000525260246000fd5b8351631e4fbdf760e01b8152600081850152602490fd5b01519350388062000122565b9190601f198416928860005284886000209460005b8a89838310620002ae575050501062000293575b50505050811b01835562000132565b01519060f884600019921b161c191690553880808062000284565b86860151895590970196948501948893500162000270565b886000528760002083808701891c8201928a881062000305575b01881c019086905b828110620002f857505062000106565b60008155018690620002e8565b92508192620002e0565b602289634e487b7160e01b6000525260246000fd5b90607f1690620000f4565b634e487b7160e01b600052604160045260246000fd5b015190503880620000c5565b90879350601f19831691866000528a6000209260005b8c828210620003a1575050841162000388575b505050811b018255620000d7565b015160001983871b60f8161c191690553880806200037a565b8385015186558b9790950194938401930162000367565b9091508460005288600020848085018a1c8201928b861062000402575b91899186959493018b1c01915b828110620003f2575050620000ae565b60008155859450899101620003e2565b92508192620003d5565b634e487b7160e01b600052602260045260246000fd5b92607f169262000097565b600080fdfe6080604081815260048036101561001557600080fd5b600092833560e01c90816301d8a296146108fc5750806306fdde0314610821578063095ea7b31461077857806318160ddd1461075957806323b872dd14610666578063313ce5671461064157806340c10f191461059257806370a082311461055b578063715018a6146104fb57806376697640146104d85780637d1d5d19146104ba5780638a877205146104825780638da5cb5b1461045957806395d89b4114610339578063a9059cbb14610308578063dd62ed3e146102bf578063de5f72fd1461017b5763f2fde38b146100e957600080fd5b3461017757602036600319011261017757610102610958565b9061010b6109d2565b6001600160a01b03918216928315610161575050600554826bffffffffffffffffffffffff60a01b821617600555167f8be0079c531659141344cd1fd0a4f28419497f9722a3daafe3b4186f6b6457e08380a380f35b51631e4fbdf760e01b8152908101849052602490fd5b8280fd5b509190346102bb57816003193601126102bb57338252602060068152818320546201518081018091116102a857421061026d5733835260068152428284205533156102565760025491678ac7230489e800009283810180911161024357907f5d4f415c63cd8a5874d9d291cdd64cec37e5dc236d90d659c958d109d78074b392916002553385528482528085208481540190558051848152857fddf252ad1be2c89b69c2b068fc378daa952ba7f163c4a11628f55a4df523b3ef843393a3519283523392a280f35b634e487b7160e01b855260118652602485fd5b815163ec442f0560e01b8152808501849052602490fd5b8390606492519162461bcd60e51b8352820152601660248201527546617563657420636f6f6c646f776e2061637469766560501b6044820152fd5b634e487b7160e01b845260118552602484fd5b5080fd5b5050346102bb57806003193601126102bb57806020926102dd610958565b6102e5610973565b6001600160a01b0391821683526001865283832091168252845220549051908152f35b5050346102bb57806003193601126102bb57602090610332610328610958565b60243590336109fe565b5160018152f35b509190346102bb57816003193601126102bb57805190828454600181811c9080831692831561044f575b602093848410811461043c5783885290811561042057506001146103cb575b505050829003601f01601f191682019267ffffffffffffffff8411838510176103b857508291826103b4925282610989565b0390f35b634e487b7160e01b815260418552602490fd5b8787529192508591837f8a35acfbc15ff81a39ae7d344fd709f28e8600b4aa8c65c6b64bfe7fe36bd19b5b83851061040c5750505050830101388080610382565b8054888601830152930192849082016103f6565b60ff1916878501525050151560051b8401019050388080610382565b634e487b7160e01b895260228a52602489fd5b91607f1691610363565b5050346102bb57816003193601126102bb5760055490516001600160a01b039091168152602090f35b5050346102bb5760203660031901126102bb5760209181906001600160a01b036104aa610958565b1681526006845220549051908152f35b5050346102bb57816003193601126102bb5760209051620151808152f35b5050346102bb57816003193601126102bb5760209051678ac7230489e800008152f35b83346105585780600319360112610558576105146109d2565b600580546001600160a01b0319811690915581906001600160a01b03167f8be0079c531659141344cd1fd0a4f28419497f9722a3daafe3b4186f6b6457e08280a380f35b80fd5b5050346102bb5760203660031901126102bb5760209181906001600160a01b03610583610958565b16815280845220549051908152f35b5090346101775780600319360112610177576105ac610958565b90602435916105b96109d2565b6001600160a01b031692831561062c5760025490838201809211610619575084927fddf252ad1be2c89b69c2b068fc378daa952ba7f163c4a11628f55a4df523b3ef9260209260025585855284835280852082815401905551908152a380f35b634e487b7160e01b865260119052602485fd5b84602492519163ec442f0560e01b8352820152fd5b5050346102bb57816003193601126102bb5760209060ff60055460a01c169051908152f35b50823461055857606036600319011261055857610681610958565b610689610973565b916044359360018060a01b0383168083526001602052868320338452602052868320549160001983106106c5575b6020886103328989896109fe565b86831061072d5781156107165733156106ff57508252600160209081528683203384528152918690209085900390558290610332876106b7565b8751634a1406b160e11b8152908101849052602490fd5b875163e602df0560e01b8152908101849052602490fd5b8751637dc7a0d960e11b8152339181019182526020820193909352604081018790528291506060010390fd5b5050346102bb57816003193601126102bb576020906002549051908152f35b5034610177578160031936011261017757610791610958565b60243590331561080a576001600160a01b03169182156107f357508083602095338152600187528181208582528752205582519081527f8c5be1e5ebec7d5bd14f71427d1e84f3dd0314c0f7b2291e5b200ac8c7c3b925843392a35160018152f35b8351634a1406b160e11b8152908101859052602490fd5b835163e602df0560e01b8152808401869052602490fd5b509190346102bb57816003193601126102bb5780519082600354600181811c908083169283156108f2575b602093848410811461043c57838852908115610420575060011461089c57505050829003601f01601f191682019267ffffffffffffffff8411838510176103b857508291826103b4925282610989565b600387529192508591837fc2575a0e9e593c00f959f8c92f12db2869c3395a3b0502d05e2516446f71f85b5b8385106108de5750505050830101388080610382565b8054888601830152930192849082016108c8565b91607f169161084c565b90508383346102bb5760203660031901126102bb576001600160a01b03610921610958565b16825260066020528120549062015180820180921161094557602083834210158152f35b634e487b7160e01b815260118452602490fd5b600435906001600160a01b038216820361096e57565b600080fd5b602435906001600160a01b038216820361096e57565b6020808252825181830181905290939260005b8281106109be57505060409293506000838284010152601f8019910116010190565b81810186015184820160400152850161099c565b6005546001600160a01b031633036109e657565b60405163118cdaa760e01b8152336004820152602490fd5b916001600160a01b03808416928315610ac35716928315610aaa5760009083825281602052604082205490838210610a78575091604082827fddf252ad1be2c89b69c2b068fc378daa952ba7f163c4a11628f55a4df523b3ef958760209652828652038282205586815220818154019055604051908152a3565b60405163391434e360e21b81526001600160a01b03919091166004820152602481019190915260448101839052606490fd5b60405163ec442f0560e01b815260006004820152602490fd5b604051634b637e8f60e11b815260006004820152602490fdfea26469706673582212201ea4ebfba21686f1a9fd6623df2a4195110a077013fc82aa99072d707f6aaac264736f6c634300081400336080346100d257601f610ad138819003918201601f19168301916001600160401b038311848410176100d75780849260a0946040528339810103126100d257610047816100ed565b90610054602082016100ed565b90610061604082016100ed565b9161007a6080610073606085016100ed565b93016100ed565b9160018060a01b0380948180948160018060a01b03199916896000541617600055168760015416176001551685600254161760025516836003541617600355169060045416176004556040516109cf90816101028239f35b600080fd5b634e487b7160e01b600052604160045260246000fd5b51906001600160a01b03821682036100d25756fe608060408181526004918236101561001657600080fd5b600092833560e01c9182631eec7c8e14610329575081634bde38c8146103015781635621a693146102d5578163764f3aa8146100ed5750806394002b57146100c5578063c34fe1dd1461009d5763d4e9f9511461007257600080fd5b3461009957816003193601126100995760035490516001600160a01b039091168152602090f35b5080fd5b503461009957816003193601126100995760025490516001600160a01b039091168152602090f35b503461009957816003193601126100995760015490516001600160a01b039091168152602090f35b905082346102d257602080600319360112610099576001600160a01b038335818116959192908690036102ce5782600154169482519582876024816370a0823160e01b948582528c878301525afa9687156102c457869761028e575b5090829160249386600254168651958680928582528d878301525afa938415610284578794610255575b50856003541695838a60248851809a8193878352888301525afa96871561024b578897610216575b5082916024918594541687519b8c94859384528301525afa94851561020b57946101d6575b6080965082519586528501528301526060820152f35b80945086813d8311610204575b6101ed818361095f565b810103126101ff5760809551936101c0565b600080fd5b503d6101e3565b8351903d90823e3d90fd5b9096508381819493943d8311610244575b610231818361095f565b810103126101ff5751959091908361019b565b503d610227565b86513d8a823e3d90fd5b9093508281813d831161027d575b61026d818361095f565b810103126101ff57519289610173565b503d610263565b85513d89823e3d90fd5b92809291975083813d83116102bd575b6102a8818361095f565b810103126101ff576024925196909192610149565b503d61029e565b84513d88823e3d90fd5b8380fd5b80fd5b9050346102fd57826003193601126102fd575490516001600160a01b03909116815260209150f35b8280fd5b505034610099578160031936011261009957905490516001600160a01b039091168152602090f35b848483346102fd576020806003193601126102ce576001600160a01b039282358481169081900361082e578460015416803b156107fb57868886818363de5f72fd60e01b958683525af1801561092b57610915575b8697508560029796975416803b156107fb57868091878651809481938783525af1801561090b579087916108f7575b5050866003541690813b156107fb5786918683928651948593849283525af180156108ed579086916108d9575b5050856001541692858781541694845163095ea7b360e01b968782528882015283816044816801158e460913d000009c8d9660249e8f8401525af180156108cf576108b2575b508789848960448a87856002541695815416958c519687958694855284015268022b1c8c1227a0000080988401525af1801561085a57908a939291610895575b508a858a60448b88856003541695815416958d5196879586948552840152678ac7230489e80000809a8401525af1801561079a57610878575b508a845416918b6001541692803b1561082e578b60448c958880948d5196879586946311f9fbc960e21b9b8c87528601528401525af1801561079a57908591610864575b508b9054168b60025416813b1561082e5760448b8780948f968d5197889687958b87528601528401525af1801561085a57908491610846575b50546003548b1692908b16803b15610769578492836044928c948e8c51988997889687528601528401525af1801561075f57610832575b508351966060968789526014888a01527311195c1bdcda5d1495d050dbdb1b185d195c985b60621b60808a015284848a01526130d4868a01527fc050ceac91091ff4a1425ed83fc9c5b499f52bc4d187fb4eed6d3a9d3d86ef91998a60a0809ba1808454169781835416893b1561082e57885190634b8a352960e01b8252848201528581604481836901b1ae4d6e2ef50000009e8f8b8401525af1801561082457908691610810575b50508b8b89518c8152600f8d8201526e109bdc9c9bddd11d5b5b5e5554d115608a1b608082015289898201528b8b820152a181855416908260015416895190632a6936ef60e21b8252858201528c818781865afa90811561080657918d8d8d95938d8c968c926107a4575b509160449493918360107f386ac3c683f28f6581d2d0e081c2c4db2b23b7d3e7a8d272955aed4f47e9266e9551938085528401526f476f6c64496e7465726573745261746560801b60808401528d89840152820152a188868854168d51968795869485528a8501528a8401525af1801561079a5761076d575b508354825482169116803b15610769578492836044928b8b519788968795630450cfaf60e31b87528601528401525af1801561075f57610747575b505060128351958087528601527114995c185e55da5d1a111d5b5b5e5554d11560721b6080860152840152820152a180f35b61075090610935565b61075b578789610715565b8780fd5b85513d84823e3d90fd5b8480fd5b61078c90863d8811610793575b610784818361095f565b810190610981565b508c6106da565b503d61077a565b88513d87823e3d90fd5b975050505090925083813d83116107ff575b6107c0818361095f565b810103126107fb5791518a92889290918e908e908d7f386ac3c683f28f6581d2d0e081c2c4db2b23b7d3e7a8d272955aed4f47e9266e610661565b8680fd5b503d6107b6565b8a513d89823e3d90fd5b61081990610935565b61076957848e6105f6565b89513d88823e3d90fd5b8580fd5b61083b90610935565b61075b57878961054d565b61084f90610935565b6102fd57828c610516565b87513d86823e3d90fd5b61086d90610935565b6102ce57838d6104dd565b61088e90863d881161079357610784818361095f565b508c610499565b6108ab90863d881161079357610784818361095f565b508c610460565b6108c890843d861161079357610784818361095f565b508a610420565b86513d85823e3d90fd5b6108e290610935565b6107695784886103da565b83513d88823e3d90fd5b61090090610935565b61082e5785896103ad565b84513d89823e3d90fd5b9495909661092290610935565b9493869061037e565b83513d89823e3d90fd5b67ffffffffffffffff811161094957604052565b634e487b7160e01b600052604160045260246000fd5b90601f8019910116810190811067ffffffffffffffff82111761094957604052565b908160209103126101ff575180151581036101ff579056fea2646970667358221220cd778b84a3453fd78ca6a89073c9e0045e9545d803b790cab4671399664c296e64736f6c6343000814003360a0346200010857601f62002b8338819003918201601f19168301916001600160401b038311848410176200010d57808492604094855283398101031262000108576200005a6020620000528362000123565b920162000123565b60016000553315620000ef5760018054336001600160a01b031980831682179093556040519492936001600160a01b0393909284929083167f8be0079c531659141344cd1fd0a4f28419497f9722a3daafe3b4186f6b6457e0600080a36101f4600355620151806004551660805216906002541617600255612a4a908162000139823960805181818161198f015261276d0152f35b604051631e4fbdf760e01b815260006004820152602490fd5b600080fd5b634e487b7160e01b600052604160045260246000fd5b51906001600160a01b0382168203620001085756fe6080604052600436101561001257600080fd5b60003560e01c806314d911c3146119be5780631e6918271461197957806322867d78146117ff57806326232a2e146117e157806346904840146117b857806347e7ef24146116885780634b8a3529146114a05780636299334414610eb857806362fff3f614610e67578063710094df14610e46578063715018a614610de9578063727a667714610dc65780637367eade14610b8557806379500bf614610b5e578063879b3ed514610b3b5780638da5cb5b14610b12578063915d93421461096f5780639b681e171461094c578063a06db7dc1461092e578063a274f4ac146108fd578063a9a4dbbc1461081c578063aaf5eb68146107f9578063b3596f07146107d6578063c68dbb3714610794578063cd9cebfd14610771578063e1f1c4a714610754578063e6a69ab814610735578063ea6a287214610712578063f11b8188146104ec578063f2fde38b1461045e578063f3fef3a3146102b3578063f413e0f6146101e9578063f91bff57146101c65763fa76dcf21461019257600080fd5b346101c15760403660031901126101c15760206101b96101b06119ea565b60243590612927565b604051908152f35b600080fd5b346101c15760203660031901126101c15760206101b96101e46119ea565b6125db565b346101c15760203660031901126101c1576102026119ea565b61020b816125db565b610214826124f2565b61021d83612677565b806102715760c093600019905b60018060a01b0316600052600660205260406000209160ff6004600885015494015416936040519586526020860152604085015260608401526080830152151560a0820152f35b670de0b6b3a76400009384830294838604148315171561029d576102978260c096611c29565b9061022a565b634e487b7160e01b600052601160045260246000fd5b346101c15760403660031901126101c1576102cc6119ea565b6024356102d7612319565b801561044c576102e68261238c565b3360005260206006815260406000209260018060a01b03811693846000528252604060002054831161043a5761031b336124f2565b61034161033b61032b8685612927565b6103358533611f63565b90611c16565b92611f12565b61271090810390811161029d576103606305f5e1009161036794611c16565b0490611c49565b61037033612677565b908115159182610430575b505061041e573360005260068152604060002083600052815260406000206103a4838254611c49565b9055826000526005815260056040600020016103c1838254611c49565b90556103ce82338561233c565b33600052600681526040600020836000528152604060002054906040519283528201527f91fb9d98b786c57d74c099ccd2beca1739e9f6a81fb49001ca465c4b7591bbe260403392a36001600055005b604051633a23d82560e01b8152600490fd5b119050848061037b565b604051631e9acf1760e31b8152600490fd5b604051631f2a200560e01b8152600490fd5b346101c15760203660031901126101c1576104776119ea565b61047f611bea565b6001600160a01b039081169081156104d357600154826bffffffffffffffffffffffff60a01b821617600155167f8be0079c531659141344cd1fd0a4f28419497f9722a3daafe3b4186f6b6457e0600080a3005b604051631e4fbdf760e01b815260006004820152602490fd5b346101c15760203660031901126101c1576001600160a01b0361050d6119ea565b16600052600560205260406000208054600180830154926002810154906003810160405193849160009181549161054383611af9565b808652928281169081156106f257506001146106af575b505050036105689084611a33565b6004810154926005820154600683015460078401546008850154906040519261059084611a16565b60098701548452600a8701546020850152600b8701546040850152600c8701546060850152600d8701546080850152600e87015460a0850152600f87015460c0850152601087015460e0850152601187015461010085015260128701546101208501526013870154610140850152601487015461016085015260158701549460168801549660178901549860180154996040519d8e8e819f60ff16151582528060081c60ff161515602083015260101c60ff16151560408201526060015260808d01528b61036060a0819201528c0161066891611b33565b9960c08c015260e08b01526101008a0152610120890152610140880152610160870161069391611b73565b6102e08601526103008501526103208401526103408301520390f35b60009081526020812092949350915b8483106106d7575050816020929350010187808061055a565b81935090816020925483858b010152019101909186926106be565b925050506020925060ff191682840152151560051b82010187808061055a565b346101c15760203660031901126101c15760206101b96107306119ea565b612677565b346101c15760003660031901126101c15760206040516301e133808152f35b346101c15760003660031901126101c15760206040516127108152f35b346101c15760203660031901126101c15760206101b961078f6119ea565b6124f2565b346101c15760203660031901126101c1576004356007548110156101c1576107bd602091611aac565b905460405160039290921b1c6001600160a01b03168152f35b346101c15760203660031901126101c15760206101b96107f46119ea565b6126f6565b346101c15760003660031901126101c1576020604051670de0b6b3a76400008152f35b346101c15760203660031901126101c1576108356119ea565b6001600160a01b038116600090815260056020526040902061085682611c63565b90600581015492831590816000146108d4576000925b61087a601582015492611f12565b926108c75760060154670de0b6b3a76400009081810291818304149015171561029d5760a0956108a991611c29565b925b6040519485526020850152604084015260608301526080820152f35b5060a094506000926108ab565b60068301546127109081810291818304149015171561029d57856108f791611c29565b9261086c565b346101c15760203660031901126101c157604061092061091b6119ea565b6129c6565b825191151582526020820152f35b346101c15760003660031901126101c1576020600454604051908152f35b346101c15760203660031901126101c15760206101b961096a6119ea565b611f12565b346101c15760603660031901126101c1576109886119ea565b60243567ffffffffffffffff81116101c157610a3b6109cc7f2dacef4d2c121e599a3e080c58437b103d67b8ad9e118317c3f4f92b4af6f576923690600401611a55565b604435936109d8611bea565b60018060a01b031693846000526005602052806040600020835160208501207f9e36a3cc7d8c812d07501dd19dabeb3d8317632e6467a793e3650c433de4b57b8114600014610a465750600901555b604051928392604084526040840190611b33565b9060208301520390a2005b7f7c2018787885ba09a344d3eff8ca42c8341ee3ab6e5048b32845d70898cb4db78103610a775750600c0155610a27565b7f5399a23aae8f64846550b1c6b414082d7c72ca7ad0450acdc6437e28ee5806a78103610aa85750600b0155610a27565b7f142e8bdd2cea082964f29884ac2e726272a82403140fe1c907e0f14421953a488103610ad95750600d0155610a27565b7fabb395850dc85d38fa0604c5ca361da41b32487dda0cff2a65c36f198f257dac14610b07575b5050610a27565b600e01558086610b00565b346101c15760003660031901126101c1576001546040516001600160a01b039091168152602090f35b346101c15760203660031901126101c15760206101b9610b596119ea565b611c63565b346101c15760403660031901126101c15760206101b9610b7c6119ea565b60243590611dbb565b346101c15760603660031901126101c157610b9e6119ea565b610ba6611a00565b604435610bb1612319565b610bba836129c6565b9015610db45760018060a01b03808516928360005260206006815260406000209660ff600489015416158015610da7575b15610d6c5784610bfa91611dbb565b92610c04876126f6565b610c0e8489612927565b6127109086820180831161029d57610c2591611c16565b9181810291818304149015171561029d57610c3f91611c29565b961696876000528082526040600020548711610d2757600790610c648430338c612262565b886000528083526040600020610c7b898254611c49565b9055886000526001810183526040600020610c97858254611c49565b9055019081546001810180911161029d577fe04d542432d45c3f3f92fd452fe5ceaa2b847f344ba466cdff8f6288ad1c24b595857f7050ebc725c1f82900d703c39bfa0140a8434deefd2a0ccf97d8377eb25232a8936040938a9655610cff8b8d339061233c565b8351928352820152a26040805195865260208601919091528401523392606090a46001600055005b60405162461bcd60e51b815260048101839052601760248201527f496e73756666696369656e7420636f6c6c61746572616c0000000000000000006044820152606490fd5b60405162461bcd60e51b8152600481018390526013602482015272477261636520706572696f642061637469766560681b6044820152606490fd5b5060058801544211610beb565b6040516332c9fea960e11b8152600490fd5b346101c15760203660031901126101c157610de7610de26119ea565b61238c565b005b346101c15760003660031901126101c157610e02611bea565b600180546001600160a01b031981169091556000906001600160a01b03167f8be0079c531659141344cd1fd0a4f28419497f9722a3daafe3b4186f6b6457e08280a3005b346101c15760203660031901126101c157610de7610e626119ea565b61211b565b346101c15760403660031901126101c157610e806119ea565b610e88611a00565b9060018060a01b038091166000526008602052604060002091166000526020526020604060002054604051908152f35b346101c1576102403660031901126101c157610ed26119ea565b60643567ffffffffffffffff81116101c157610ef2903690600401611a55565b9060843580151581036101c15760a4359283151584036101c1576101803660c31901126101c15760405193610f2685611a16565b60c435855260e43560208601526101043560408601526101243560608601526101443560808601526101643560a08601526101843560c08601526101a43560e08601526101c4356101008601526101e4356101208601526102043561014086015261022435610160860152610f99611bea565b6044356024351161146d5761251c604435116114335784516060860151106113f957608085015160a0860151106113bc5760e08501516101208601511061137f57604051928361020081011067ffffffffffffffff610200860111176112a15761020084016040526001845215156020840152151560408301526024356060830152604435608083015260a08201524260c0820152600060e0820152600061010082015260006101208201526103e86101408201528261016082015267016345785d8a0000610180820152426101a08201526305f5e1006101c08201526305f5e1006101e082015260018060a01b038216600052600560205260406000209080511515825490602083015115159160ff61ff0062ff00006040870151151560101b169460081b1692169062ffffff19161717178255606081015160018301556080810151600283015560a081015180519067ffffffffffffffff82116112a1576111066003850154611af9565b601f8111611338575b50602090601f83116001146112c2579180601894926101e0946000926112b7575b50508160011b916000199060031b1c19161760038501555b60c0810151600485015560e0810151600585015561010081015160068501556101208101516007850155610140810151600885015561016080820151805160098701556020810151600a8701556040810151600b8701556060810151600c8701556080810151600d87015560a0810151600e87015560c0810151600f87015560e081015160108701556101008101516011870155610120810151601287015561014081015160138701550151601485015561018081015160158501556101a081015160168501556101c081015160178501550151910155600754680100000000000000008110156112a1577f13c9fbd7b4c5e22c3d41c025934cef3ce89026482dd3edff2c197b7337d3859a916112688260016101809401600755611aac565b81546001600160a01b0384811660039390931b92831b921b191617905560405193611294908590611b73565b6001600160a01b031692a2005b634e487b7160e01b600052604160045260246000fd5b015190508880611130565b906003850160005260206000209160005b601f1985168110611320575092601894926001926101e09583601f19811610611307575b505050811b016003850155611148565b015160001960f88460031b161c191690558880806112f7565b919260206001819286850151815501940192016112d3565b600385016000526020600020601f840160051c810160208510611378575b601f830160051c8201811061136c57505061110f565b60008155600101611356565b5080611356565b60405162461bcd60e51b8152602060048201526015602482015274496e76616c6964206861697263757420637572766560581b6044820152606490fd5b60405162461bcd60e51b8152602060048201526015602482015274496e76616c69642070656e616c747920637572766560581b6044820152606490fd5b60405162461bcd60e51b8152602060048201526012602482015271496e76616c6964207261746520637572766560701b6044820152606490fd5b60405162461bcd60e51b81526020600482015260126024820152710a8d0e4cae6d0ded8c840e8dede40d0d2ced60731b6044820152606490fd5b60405162461bcd60e51b815260206004820152600b60248201526a24b73b30b634b210262a2b60a91b6044820152606490fd5b346101c15760403660031901126101c1576114b96119ea565b6024356114c4612319565b801561044c5760018060a01b038216918260005260209060058252604060002090815460ff811615908115611679575b50611667576115028161238c565b61150b8161211b565b611531611517336124f2565b9161152b8661152533612677565b92612927565b90611c56565b9181831161041e576040516370a0823160e01b815230600482015284816024818a5afa90811561165b5760009161162e575b50851161043a576006903360005281855260016040600020018760005285526040600020611592878254611c56565b905533600052818552600260406000200187600052855242604060002055016115bc858254611c56565b90558015611624576127109182810292818404149015171561029d576115e191611c29565b905b6115ee83338661233c565b6040519283528201527fc14e9e6b4d98a542b05a0f6b64acd5f4cbdb914be88432d87486b664e97071a760403392a36001600055005b50506000906115e3565b90508481813d8311611654575b6116458183611a33565b810103126101c1575187611563565b503d61163b565b6040513d6000823e3d90fd5b60405163981a2a2b60e01b8152600490fd5b60ff915060081c1615866114f4565b346101c15760403660031901126101c1576116a16119ea565b6024356116ac612319565b801561044c5760018060a01b038216918260005260209060058252604060002060ff81541615611667576116e582610e6260059461238c565b6116f184303388612262565b336000526006835260406000208560005283526040600020611714858254611c56565b90553360005260068352600360406000200185600052835260406000205415611796575b01611744838254611c56565b905533600052600681526040600020836000528152604060002054906040519283528201527ff5681f9d0db1b911ac18ee83d515a1cf1051853a9eae418316a2fdf7dea427c560403392a36001600055005b3360005260068352600360406000200185600052835242604060002055611738565b346101c15760003660031901126101c1576002546040516001600160a01b039091168152602090f35b346101c15760003660031901126101c1576020600354604051908152f35b346101c15760403660031901126101c1576118186119ea565b602435611823612319565b801561044c576118328261238c565b3360005260069060209082825260016040600020019360018060a01b03169384600052825260406000205490811561043a57818111156119715750915b61187b83303387612262565b33600052808252600160406000200184600052825260406000206118a0848254611c49565b90558360005260058252806040600020016118bc848254611c49565b90553360005280825260016040600020018460005282526040600020541580611958575b611936575b3360005281526001604060002001836000528152604060002054906040519283528201527fe62a777dbd48d3912f68a1b9445813ee02bc3ac18b97dc129ca462cc77bb641b60403392a36001600055005b3360005280825260006005604082206004810160ff19815416905501556118e5565b503360005280825260ff600460406000200154166118e0565b90509161186f565b346101c15760003660031901126101c1576040517f00000000000000000000000000000000000000000000000000000000000000006001600160a01b03168152602090f35b346101c15760403660031901126101c15760206101b96119dc6119ea565b6119e4611a00565b90611f63565b600435906001600160a01b03821682036101c157565b602435906001600160a01b03821682036101c157565b610180810190811067ffffffffffffffff8211176112a157604052565b90601f8019910116810190811067ffffffffffffffff8211176112a157604052565b81601f820112156101c15780359067ffffffffffffffff82116112a15760405192611a8a601f8401601f191660200185611a33565b828452602083830101116101c157816000926020809301838601378301015290565b600754811015611ae35760076000527fa66cc928b5edb82af9bd49922954155ab7b0942694bea4ce44661d9a8736c6880190600090565b634e487b7160e01b600052603260045260246000fd5b90600182811c92168015611b29575b6020831014611b1357565b634e487b7160e01b600052602260045260246000fd5b91607f1691611b08565b919082519283825260005b848110611b5f575050826000602080949584010152601f8019910116010190565b602081830181015184830182015201611b3e565b805182526020810151602083015260408101516040830152606081015160608301526080810151608083015260a081015160a083015260c081015160c083015260e081015160e083015261010080820151908301526101208082015190830152610140808201519083015261016080910151910152565b6001546001600160a01b03163303611bfe57565b60405163118cdaa760e01b8152336004820152602490fd5b8181029291811591840414171561029d57565b8115611c33570490565b634e487b7160e01b600052601260045260246000fd5b9190820391821161029d57565b9190820180921161029d57565b6001600160a01b031660009081526005602081905260408220908101549092916009840191908115611db457600685015491670de0b6b3a76400009283810290808204851490151715611da05790611cba91611c29565b600a86015495909190868311611d15575082820291808304841490151715611d015750611cee611cfe9495611cf792611c29565b92549283611c16565b0490611c56565b90565b634e487b7160e01b81526011600452602490fd5b929186611d26919792959697611c49565b90820390828211611d8c5782810290808204841490151715611d8c57600c611d64611d59611d79969594611cf794611c29565b600b86015490612025565b965493015495611d748488611c49565b611c16565b905081811115611d87575090565b905090565b634e487b7160e01b85526011600452602485fd5b634e487b7160e01b83526011600452602483fd5b5050549150565b906000808190600754915b828110611e8357506001600160a01b039283169150508015611e79576000526005602052604060002092166000526006602052604060002091600091670de0b6b3a764000092838210600014611e6b5750820382811161029d576007611e3591945b0154600f83015490611c16565b820180831161029d57611d748284611cf7600e600d611e5e97015493015497611d74848a611c49565b0481811115611d87575090565b611e35915060079094611e28565b505050506103e890565b611e8c81611aac565b9060018060a01b03918291549060031b1c16908160005260206005815260409160ff836000205460101c16611ece575b50505050611ec990612016565b611dc6565b891660005260068152816000209083600052526000205480611ef2575b8080611ebc565b611efc9082612927565b83811115611eeb579094509150611ec938611eeb565b60018060a01b0316600052600560205260406000206012611f53670de0b6b3a7640000611f486015850154601186015490611c16565b046010840154611c56565b9101549081811115611d87575090565b90600360018060a01b038092166000928184526005602052604084209416835260066020526040832090835201602052611fa1604082205442611c49565b801561200d57611fe96001611fdf670de0b6b3a7640000936014870154908181116000146120045750611fda815b601389015490611c16565b611c29565b9401549384611c16565b04905080821115611ffd57611cfe91611c49565b5060011c90565b611fda90611fcf565b50506001015490565b600019811461029d5760010190565b9190821561211457670de0b6b3a7640000908184101561210f5781811461210b57671bc16d674ec8000081146120fa578380830180841161029d576002955b60049081881115806120f1575b156120db5784611d748561208493611c16565b6ec097ce7bc90715b34b9f10000000009188830292830489036120c657506120b26120bf926120b992611c29565b8093611c56565b96612016565b9590612064565b6024906011600091634e487b7160e01b835252fd5b5050929394505050818111600014611d87575090565b50801515612071565b5090918061210791611c16565b0490565b5050565b509150565b5060009150565b6001600160a01b038116600081815260056020526040812091929190612140836126f6565b601683019182546121518142611c49565b9015159081612258575b506121aa575b506017830155429055601501547f6ac2eb67d9e3d599b1121a86c7f4eb985d08ae8e5e5ca0b9a5c4e6a7206ed35a916040919061219d90611f12565b82519182526020820152a2565b601784015480831115612249576121c18184611c49565b670de0b6b3a764000090818102918183041490151715611da057906121e591611c29565b6015850191825490600982029180830460091490151715611d0157509361219d93601593600a61223a604099957f6ac2eb67d9e3d599b1121a86c7f4eb985d08ae8e5e5ca0b9a5c4e6a7206ed35a9b99611c56565b04905593509395509350612161565b6122538382611c49565b6121c1565b905015153861215b565b6040516323b872dd60e01b60208201526001600160a01b03928316602482015292909116604483015260648083019390935291815260a081019181831067ffffffffffffffff8411176112a1576122bb926040526122bd565b565b906000602091828151910182855af11561165b576000513d61231057506001600160a01b0381163b155b6122ee5750565b604051635274afe760e01b81526001600160a01b039091166004820152602490fd5b600114156122e7565b60026000541461232a576002600055565b604051633ee5aeb560e01b8152600490fd5b60405163a9059cbb60e01b60208201526001600160a01b039092166024830152604480830193909352918152608081019167ffffffffffffffff8311828410176112a1576122bb926040526122bd565b6001600160a01b0381166000818152600560205260408120805492939260ff16156116675760048101926123c1845442611c49565b9182156124ea576123d3600592611c63565b9464496cebb8006123ed600684015495611d748988611c16565b046123fd60078401918254611c56565b9055429055015490811592836000146124b35780935b61248457670de0b6b3a764000091828102928184041490151715611d0157506124627f5a03daa796ec548ad6dd0ed0a76e2b5197c4d37c20b10722b669ffa200d4a4bb94939261247f92611c29565b604051938493846040919493926060820195825260208201520152565b0390a2565b7f5a03daa796ec548ad6dd0ed0a76e2b5197c4d37c20b10722b669ffa200d4a4bb9493925061247f9150612462565b6127108083029083820414831517156124d657836124d091611c29565b93612413565b634e487b7160e01b82526011600452602482fd5b505050505050565b6007546000929183805b8381106125095750505050565b61251281611aac565b9060018060a01b03918291549060031b1c169081845260206005815260409160ff8387205460101c16612552575b5050505061254d90612016565b6124fc565b8616855260068152818520908386525283205480612572575b8080612540565b61258261259c9183999499612927565b916125966125908288611f63565b91611f12565b92611c16565b6127109182039182116125c757916305f5e100611cf76125bf9361254d95611c16565b95903861256b565b634e487b7160e01b84526011600452602484fd5b600754600092918390815b8381106125f35750505050565b6125fc81611aac565b9060018060a01b03918291549060031b1c169081855260206005815260409160ff8388205460101c1661263c575b5050505061263790612016565b6125e6565b85168652600681528186209083875252842054908161265d575b808061262a565b9661152b61266f926126379499612927565b959038612656565b6007546000929183805b83811061268e5750505050565b61269781611aac565b9060018060a01b03918291549060031b1c169084168352602060068152604090600182862001908386525283205490816126dc575b50506126d790612016565b612681565b9661152b6126ee926126d79499612927565b9590386126cc565b60018060a01b0390816000911681526020600581526040918281209360ff855416156129165760038501838551809263d12162d360e01b82528260048301528590805461274281611af9565b918260248601526001918583821691826000146128f45750506001146128bb575b50505081900381857f0000000000000000000000000000000000000000000000000000000000000000165afa9081156128b1578391612877575b501693841561286b5750606083946004945194858092633fabe5a360e21b82525afa80938294612820575b506127de578351633b98b04760e21b8152600490fd5b8293919213156127ed57505090565b60649250519062461bcd60e51b82526004820152600d60248201526c496e76616c696420707269636560981b6044820152fd5b9093506060813d8211612863575b8161283b60609383611a33565b8101031261285f57805167ffffffffffffffff81160361285f5782015192386127c8565b5080fd5b3d915061282e565b60180154949350505050565b90508381813d83116128aa575b61288e8183611a33565b810103126128a6575181811681036128a6573861279d565b8280fd5b503d612884565b85513d85823e3d90fd5b88528488208893505b8284106128db575050508101604401813880612763565b80546044858901015289958795509093019281016128c4565b9250945050604492915060ff191682840152151560051b820101903880612763565b835163981a2a2b60e01b8152600490fd5b60046020612934836126f6565b60405163313ce56760e01b815290939092839182906001600160a01b03165afa90811561165b57600091612987575b509060ff612972921692611c16565b604d821161029d57611cfe91600a0a90611c29565b6020813d82116129be575b8161299f60209383611a33565b8101031261285f57519060ff821682036129bb575060ff612963565b80fd5b3d9150612992565b6129d86129d2826124f2565b91612677565b908115612a0957670de0b6b3a7640000918282029180830484149015171561029d57612a0391611c29565b90811091565b50600091600019915056fea264697066735822122019bb47c2716aaf428b92ad79d1a3c1893413becd0c509b1731033429a73186d264736f6c634300081400334292fc93263c1ba17043a80951d87739ceabd3b5981d863c911c245652c1be8da264697066735822122041d781fa30cf8f416788d92796f57b412f3aab81b8961a3c2490c147b3ecf5a164736f6c63430008140033","opcodes":"PUSH1 0x80 DUP1 PUSH1 0x40 MSTORE CALLVALUE PUSH2 0x16 JUMPI PUSH2 0x7124 SWAP1 DUP2 PUSH2 0x1C DUP3 CODECOPY RETURN JUMPDEST PUSH1 0x0 DUP1 REVERT INVALID PUSH1 0x80 DUP1 PUSH1 0x40 MSTORE PUSH1 0x4 CALLDATASIZE LT ISZERO PUSH3 0x14 JUMPI PUSH1 0x0 DUP1 REVERT JUMPDEST PUSH1 0x0 SWAP1 DUP2 CALLDATALOAD PUSH1 0xE0 SHR SWAP1 DUP2 PUSH4 0x62894412 EQ PUSH3 0xB29 JUMPI POP DUP1 PUSH4 0xA98CB718 EQ PUSH3 0x13D JUMPI DUP1 PUSH4 0xC3A2A93A EQ PUSH3 0xB6 JUMPI PUSH4 0xC54A9588 EQ PUSH3 0x52 JUMPI PUSH1 0x0 DUP1 REVERT JUMPDEST CALLVALUE PUSH3 0xB3 JUMPI DUP1 PUSH1 0x3 NOT CALLDATASIZE ADD SLT PUSH3 0xB3 JUMPI SLOAD PUSH1 0x1 SLOAD PUSH1 0x2 SLOAD PUSH1 0x3 SLOAD PUSH1 0x4 SLOAD PUSH1 0x5 SLOAD PUSH1 0x40 DUP1 MLOAD PUSH1 0x1 PUSH1 0x1 PUSH1 0xA0 SHL SUB SWAP8 DUP9 AND DUP2 MSTORE SWAP6 DUP8 AND PUSH1 0x20 DUP8 ADD MSTORE SWAP4 DUP7 AND SWAP4 DUP6 ADD SWAP4 SWAP1 SWAP4 MSTORE SWAP1 DUP5 AND PUSH1 0x60 DUP5 ADD MSTORE DUP4 AND PUSH1 0x80 DUP4 ADD MSTORE SWAP1 SWAP2 AND PUSH1 0xA0 DUP3 ADD MSTORE PUSH1 0xC0 SWAP1 RETURN JUMPDEST DUP1 REVERT JUMPDEST POP CALLVALUE PUSH3 0xB3 JUMPI DUP1 PUSH1 0x3 NOT CALLDATASIZE ADD SLT PUSH3 0xB3 JUMPI PUSH3 0xD3 PUSH3 0xBBF JUMP JUMPDEST POP PUSH3 0x139 PUSH3 0xE2 PUSH3 0xBF3 JUMP JUMPDEST PUSH1 0x40 MLOAD SWAP2 DUP3 SWAP2 DUP3 SWAP2 SWAP1 SWAP2 PUSH1 0xA0 PUSH1 0xC0 DUP3 ADD SWAP4 DUP2 PUSH1 0x1 DUP1 DUP3 SHL SUB SWAP2 DUP3 DUP2 MLOAD AND DUP6 MSTORE DUP3 PUSH1 0x20 DUP3 ADD MLOAD AND PUSH1 0x20 DUP7 ADD MSTORE DUP3 PUSH1 0x40 DUP3 ADD MLOAD AND PUSH1 0x40 DUP7 ADD MSTORE DUP3 PUSH1 0x60 DUP3 ADD MLOAD AND PUSH1 0x60 DUP7 ADD MSTORE DUP3 PUSH1 0x80 DUP3 ADD MLOAD AND PUSH1 0x80 DUP7 ADD MSTORE ADD MLOAD AND SWAP2 ADD MSTORE JUMP JUMPDEST SUB SWAP1 RETURN JUMPDEST POP CALLVALUE PUSH3 0xB3 JUMPI PUSH1 0x40 CALLDATASIZE PUSH1 0x3 NOT ADD SLT PUSH3 0xB3 JUMPI PUSH1 0x4 CALLDATALOAD PUSH1 0x1 PUSH1 0x1 PUSH1 0xA0 SHL SUB DUP2 AND SWAP1 DUP2 SWAP1 SUB PUSH3 0xADF JUMPI PUSH1 0x24 CALLDATALOAD PUSH1 0x1 PUSH1 0x1 PUSH1 0xA0 SHL SUB DUP2 AND SWAP2 SWAP1 DUP3 SWAP1 SUB PUSH3 0xAFB JUMPI PUSH3 0x188 PUSH3 0xBBF JUMP JUMPDEST POP PUSH1 0x40 MLOAD PUSH2 0xF38 DUP1 DUP3 ADD SWAP1 DUP3 DUP3 LT PUSH8 0xFFFFFFFFFFFFFFFF DUP4 GT OR PUSH3 0xAB3 JUMPI SWAP1 DUP3 SWAP2 PUSH3 0xCBD DUP4 CODECOPY SUB SWAP1 DUP5 CREATE DUP1 ISZERO PUSH3 0xA6B JUMPI PUSH1 0x1 DUP1 PUSH1 0xA0 SHL SUB AND PUSH1 0x1 PUSH1 0x1 PUSH1 0x60 SHL SUB PUSH1 0xA0 SHL PUSH1 0x1 SLOAD AND OR PUSH1 0x1 SSTORE PUSH1 0x40 MLOAD PUSH2 0xF41 DUP1 DUP3 ADD SWAP1 DUP3 DUP3 LT PUSH8 0xFFFFFFFFFFFFFFFF DUP4 GT OR PUSH3 0xAB3 JUMPI SWAP1 DUP3 SWAP2 PUSH3 0x1BF5 DUP4 CODECOPY SUB SWAP1 DUP5 CREATE DUP1 ISZERO PUSH3 0xA6B JUMPI PUSH1 0x1 DUP1 PUSH1 0xA0 SHL SUB AND PUSH1 0x1 PUSH1 0x1 PUSH1 0x60 SHL SUB PUSH1 0xA0 SHL PUSH1 0x2 SLOAD AND OR PUSH1 0x2 SSTORE PUSH1 0x40 MLOAD PUSH2 0xF45 DUP1 DUP3 ADD SWAP1 DUP3 DUP3 LT PUSH8 0xFFFFFFFFFFFFFFFF DUP4 GT OR PUSH3 0xAB3 JUMPI SWAP1 DUP3 SWAP2 PUSH3 0x2B36 DUP4 CODECOPY SUB SWAP1 DUP5 CREATE DUP1 ISZERO PUSH3 0xA6B JUMPI PUSH1 0x1 DUP1 PUSH1 0xA0 SHL SUB AND PUSH1 0x1 PUSH1 0x1 PUSH1 0x60 SHL SUB PUSH1 0xA0 SHL PUSH1 0x3 SLOAD AND OR PUSH1 0x3 SSTORE PUSH20 0x7BA937403023CCD444923B183D42438B7057811 PUSH1 0x1 PUSH1 0x1 PUSH1 0x60 SHL SUB PUSH1 0xA0 SHL PUSH1 0x4 SLOAD AND OR PUSH1 0x4 SSTORE PUSH1 0x40 MLOAD SWAP2 PUSH2 0x2B83 SWAP2 DUP3 DUP5 ADD SWAP3 DUP5 DUP5 LT PUSH8 0xFFFFFFFFFFFFFFFF DUP6 GT OR PUSH3 0xAB3 JUMPI SWAP2 PUSH1 0x40 SWAP4 SWAP2 DUP6 SWAP4 PUSH3 0x454C DUP6 CODECOPY DUP3 MSTORE PUSH1 0x20 DUP3 ADD MSTORE SUB ADD SWAP1 DUP3 CREATE DUP1 ISZERO PUSH3 0xAA6 JUMPI PUSH1 0x1 DUP1 PUSH1 0xA0 SHL SUB AND SWAP1 DUP2 PUSH1 0x1 PUSH1 0x1 PUSH1 0x60 SHL SUB PUSH1 0xA0 SHL DUP3 SLOAD AND OR DUP2 SSTORE PUSH1 0x40 MLOAD PUSH3 0x301 DUP2 PUSH3 0xB59 JUMP JUMPDEST PUSH2 0x12C DUP2 MSTORE PUSH2 0x1B58 PUSH1 0x20 DUP3 ADD MSTORE PUSH8 0x1BC16D674EC80000 PUSH1 0x40 DUP3 ADD MSTORE PUSH2 0x5DC PUSH1 0x60 DUP3 ADD DUP2 SWAP1 MSTORE PUSH2 0x320 PUSH1 0x80 DUP4 ADD MSTORE PUSH1 0xA0 DUP3 ADD MSTORE PUSH1 0x64 PUSH1 0xC0 DUP3 ADD MSTORE PUSH2 0x1F4 PUSH1 0xE0 DUP3 ADD MSTORE PUSH2 0x3E8 PUSH2 0x100 DUP3 ADD MSTORE PUSH2 0x7D0 PUSH2 0x120 DUP3 ADD MSTORE PUSH1 0x32 PUSH2 0x140 DUP3 ADD MSTORE PUSH3 0xED4E00 PUSH2 0x160 DUP3 ADD MSTORE PUSH1 0x1 SLOAD PUSH1 0x1 PUSH1 0x1 PUSH1 0xA0 SHL SUB AND SWAP1 DUP4 EXTCODESIZE ISZERO PUSH3 0xAFB JUMPI PUSH3 0x3DE SWAP1 PUSH1 0x40 MLOAD SWAP3 PUSH4 0x18A64CD1 PUSH1 0xE2 SHL DUP5 MSTORE PUSH1 0x4 DUP5 ADD MSTORE PUSH2 0x1D4C PUSH1 0x24 DUP5 ADD MSTORE PUSH2 0x2134 PUSH1 0x44 DUP5 ADD MSTORE PUSH2 0x240 PUSH1 0x64 DUP5 ADD MSTORE PUSH1 0x9 PUSH2 0x244 DUP5 ADD MSTORE PUSH9 0x1D11D3D3110B5554D1 PUSH1 0xBA SHL PUSH2 0x264 DUP5 ADD MSTORE DUP4 PUSH1 0x84 DUP5 ADD MSTORE PUSH1 0x1 PUSH1 0xA4 DUP5 ADD MSTORE PUSH1 0xC4 DUP4 ADD SWAP1 PUSH3 0xC45 JUMP JUMPDEST DUP2 DUP2 PUSH2 0x284 DUP2 DUP4 DUP8 GAS CALL DUP1 ISZERO PUSH3 0xA41 JUMPI PUSH3 0xB17 JUMPI JUMPDEST POP SWAP1 PUSH1 0x0 DUP1 MLOAD PUSH1 0x20 PUSH3 0x70CF DUP4 CODECOPY DUP2 MLOAD SWAP2 MSTORE PUSH1 0x80 PUSH1 0x1 DUP1 PUSH1 0xA0 SHL SUB PUSH1 0x1 SLOAD AND PUSH1 0x40 MLOAD SWAP1 DUP2 MSTORE PUSH1 0x40 PUSH1 0x20 DUP3 ADD MSTORE PUSH1 0x4 PUSH1 0x40 DUP3 ADD MSTORE PUSH4 0x11DBDB19 PUSH1 0xE2 SHL PUSH1 0x60 DUP3 ADD MSTORE LOG1 DUP2 PUSH1 0x40 MLOAD PUSH3 0x445 DUP2 PUSH3 0xB59 JUMP JUMPDEST PUSH2 0x190 DUP2 MSTORE PUSH2 0x1770 PUSH1 0x20 DUP3 ADD MSTORE PUSH8 0x29A2241AF62C0000 PUSH1 0x40 DUP3 ADD MSTORE PUSH2 0x7D0 PUSH1 0x60 DUP3 ADD DUP2 SWAP1 MSTORE PUSH2 0x3E8 PUSH1 0x80 DUP4 ADD MSTORE PUSH1 0xA0 DUP3 ADD MSTORE PUSH1 0x96 PUSH1 0xC0 DUP3 ADD MSTORE PUSH2 0x320 PUSH1 0xE0 DUP3 ADD MSTORE PUSH2 0x5DC PUSH2 0x100 DUP3 ADD MSTORE PUSH2 0x9C4 PUSH2 0x120 DUP3 ADD MSTORE PUSH1 0x4B PUSH2 0x140 DUP3 ADD MSTORE PUSH3 0x9E3400 PUSH2 0x160 DUP3 ADD MSTORE PUSH1 0x2 SLOAD PUSH1 0x1 PUSH1 0x1 PUSH1 0xA0 SHL SUB AND SWAP1 DUP4 EXTCODESIZE ISZERO PUSH3 0xAFB JUMPI PUSH3 0x524 SWAP1 PUSH1 0x40 MLOAD SWAP3 PUSH4 0x18A64CD1 PUSH1 0xE2 SHL DUP5 MSTORE PUSH1 0x4 DUP5 ADD MSTORE PUSH2 0x1964 PUSH1 0x24 DUP5 ADD MSTORE PUSH2 0x1D4C PUSH1 0x44 DUP5 ADD MSTORE PUSH2 0x240 PUSH1 0x64 DUP5 ADD MSTORE PUSH1 0xB PUSH2 0x244 DUP5 ADD MSTORE PUSH11 0x1D14D2531591548B5554D1 PUSH1 0xAA SHL PUSH2 0x264 DUP5 ADD MSTORE DUP4 PUSH1 0x84 DUP5 ADD MSTORE PUSH1 0x1 PUSH1 0xA4 DUP5 ADD MSTORE PUSH1 0xC4 DUP4 ADD SWAP1 PUSH3 0xC45 JUMP JUMPDEST DUP2 DUP2 PUSH2 0x284 DUP2 DUP4 DUP8 GAS CALL DUP1 ISZERO PUSH3 0xA41 JUMPI PUSH3 0xAFF JUMPI JUMPDEST POP POP PUSH1 0x0 DUP1 MLOAD PUSH1 0x20 PUSH3 0x70CF DUP4 CODECOPY DUP2 MLOAD SWAP2 MSTORE PUSH1 0x80 PUSH1 0x1 DUP1 PUSH1 0xA0 SHL SUB PUSH1 0x2 SLOAD AND PUSH1 0x40 MLOAD SWAP1 DUP2 MSTORE PUSH1 0x40 PUSH1 0x20 DUP3 ADD MSTORE PUSH1 0x6 PUSH1 0x40 DUP3 ADD MSTORE PUSH6 0x29B4B63B32B9 PUSH1 0xD1 SHL PUSH1 0x60 DUP3 ADD MSTORE LOG1 DUP2 PUSH1 0x40 MLOAD PUSH3 0x58D DUP2 PUSH3 0xB59 JUMP JUMPDEST PUSH1 0xFA DUP2 MSTORE PUSH2 0x1F40 PUSH1 0x20 DUP3 ADD MSTORE PUSH8 0x1BC16D674EC80000 PUSH1 0x40 DUP3 ADD MSTORE PUSH2 0x4B0 PUSH1 0x60 DUP3 ADD DUP2 SWAP1 MSTORE PUSH2 0x258 PUSH1 0x80 DUP4 ADD MSTORE PUSH1 0xA0 DUP3 ADD MSTORE PUSH1 0x4B PUSH1 0xC0 DUP3 ADD MSTORE PUSH2 0x12C PUSH1 0xE0 DUP3 ADD MSTORE PUSH2 0x1F4 PUSH2 0x100 DUP3 ADD MSTORE PUSH2 0x5DC PUSH2 0x120 DUP3 ADD MSTORE PUSH1 0x19 PUSH2 0x140 DUP3 ADD MSTORE PUSH4 0x1E13380 PUSH2 0x160 DUP3 ADD MSTORE PUSH1 0x3 SLOAD PUSH1 0x1 PUSH1 0x1 PUSH1 0xA0 SHL SUB AND SWAP1 DUP4 EXTCODESIZE ISZERO PUSH3 0xAFB JUMPI PUSH3 0x66A SWAP1 PUSH1 0x40 MLOAD SWAP3 PUSH4 0x18A64CD1 PUSH1 0xE2 SHL DUP5 MSTORE PUSH1 0x4 DUP5 ADD MSTORE PUSH2 0x1F40 PUSH1 0x24 DUP5 ADD MSTORE PUSH2 0x2328 PUSH1 0x44 DUP5 ADD MSTORE PUSH2 0x240 PUSH1 0x64 DUP5 ADD MSTORE PUSH1 0x9 PUSH2 0x244 DUP5 ADD MSTORE PUSH9 0x1D149150530B5554D1 PUSH1 0xBA SHL PUSH2 0x264 DUP5 ADD MSTORE DUP4 PUSH1 0x84 DUP5 ADD MSTORE PUSH1 0x1 PUSH1 0xA4 DUP5 ADD MSTORE PUSH1 0xC4 DUP4 ADD SWAP1 PUSH3 0xC45 JUMP JUMPDEST DUP2 DUP2 PUSH2 0x284 DUP2 DUP4 DUP8 GAS CALL DUP1 ISZERO PUSH3 0xA41 JUMPI PUSH3 0xAE3 JUMPI JUMPDEST POP POP PUSH1 0x0 DUP1 MLOAD PUSH1 0x20 PUSH3 0x70CF DUP4 CODECOPY DUP2 MLOAD SWAP2 MSTORE PUSH1 0x80 PUSH1 0x1 DUP1 PUSH1 0xA0 SHL SUB PUSH1 0x3 SLOAD AND PUSH1 0x40 MLOAD SWAP1 DUP2 MSTORE PUSH1 0x40 PUSH1 0x20 DUP3 ADD MSTORE PUSH1 0xA PUSH1 0x40 DUP3 ADD MSTORE PUSH10 0x5265616C457374617465 PUSH1 0xB0 SHL PUSH1 0x60 DUP3 ADD MSTORE LOG1 DUP2 PUSH1 0x40 MLOAD PUSH3 0x6D7 DUP2 PUSH3 0xB59 JUMP JUMPDEST PUSH1 0xC8 DUP2 MSTORE PUSH2 0x1F40 PUSH1 0x20 DUP3 ADD MSTORE PUSH8 0x1BC16D674EC80000 PUSH1 0x40 DUP3 ADD MSTORE PUSH2 0x5DC PUSH1 0x60 DUP3 ADD MSTORE DUP2 PUSH1 0x80 DUP3 ADD MSTORE DUP2 PUSH1 0xA0 DUP3 ADD MSTORE DUP2 PUSH1 0xC0 DUP3 ADD MSTORE DUP2 PUSH1 0xE0 DUP3 ADD MSTORE DUP2 PUSH2 0x100 DUP3 ADD MSTORE DUP2 PUSH2 0x120 DUP3 ADD MSTORE DUP2 PUSH2 0x140 DUP3 ADD MSTORE DUP2 PUSH2 0x160 DUP3 ADD MSTORE DUP3 EXTCODESIZE ISZERO PUSH3 0xADF JUMPI PUSH3 0x7A7 PUSH1 0x40 MLOAD SWAP2 PUSH4 0x18A64CD1 PUSH1 0xE2 SHL DUP4 MSTORE PUSH20 0x7BA937403023CCD444923B183D42438B7057811 PUSH1 0x4 DUP5 ADD MSTORE DUP4 PUSH1 0x24 DUP5 ADD MSTORE DUP4 PUSH1 0x44 DUP5 ADD MSTORE PUSH2 0x240 PUSH1 0x64 DUP5 ADD MSTORE PUSH1 0x8 PUSH2 0x244 DUP5 ADD MSTORE PUSH8 0x1554D1150B5554D1 PUSH1 0xC2 SHL PUSH2 0x264 DUP5 ADD MSTORE PUSH1 0x1 PUSH1 0x84 DUP5 ADD MSTORE DUP4 PUSH1 0xA4 DUP5 ADD MSTORE PUSH1 0xC4 DUP4 ADD SWAP1 PUSH3 0xC45 JUMP JUMPDEST DUP2 DUP2 PUSH2 0x284 DUP2 DUP4 DUP8 GAS CALL DUP1 ISZERO PUSH3 0xA41 JUMPI PUSH3 0xAC7 JUMPI JUMPDEST POP POP PUSH1 0x0 DUP1 MLOAD PUSH1 0x20 PUSH3 0x70CF DUP4 CODECOPY DUP2 MLOAD SWAP2 MSTORE PUSH1 0x80 PUSH1 0x40 MLOAD PUSH20 0x7BA937403023CCD444923B183D42438B7057811 DUP2 MSTORE PUSH1 0x40 PUSH1 0x20 DUP3 ADD MSTORE PUSH1 0x9 PUSH1 0x40 DUP3 ADD MSTORE PUSH9 0x111D5B5B5E5554D115 PUSH1 0xBA SHL PUSH1 0x60 DUP3 ADD MSTORE LOG1 PUSH1 0x1 SLOAD PUSH1 0x2 SLOAD PUSH1 0x3 SLOAD PUSH1 0x40 MLOAD SWAP4 PUSH1 0x1 PUSH1 0x1 PUSH1 0xA0 SHL SUB SWAP2 DUP3 AND SWAP4 SWAP3 DUP3 AND SWAP3 SWAP1 SWAP2 AND SWAP1 PUSH8 0xFFFFFFFFFFFFFFFF PUSH2 0xAD1 DUP7 ADD SWAP1 DUP2 GT SWAP1 DUP7 GT OR PUSH3 0xAB3 JUMPI PUSH2 0xAD1 PUSH3 0x3A7B DUP7 CODECOPY PUSH2 0xAD1 DUP6 ADD MSTORE PUSH1 0x20 PUSH2 0xAD1 DUP6 ADD ADD MSTORE PUSH1 0x40 PUSH2 0xAD1 DUP5 ADD ADD MSTORE PUSH1 0x60 PUSH2 0xAD1 DUP4 ADD ADD MSTORE PUSH20 0x7BA937403023CCD444923B183D42438B7057811 PUSH1 0x80 PUSH2 0xAD1 DUP4 ADD ADD MSTORE PUSH1 0xA0 DUP2 PUSH2 0xAD1 DUP2 ADD SUB ADD SWAP1 DUP3 CREATE DUP1 ISZERO PUSH3 0xAA6 JUMPI PUSH1 0x5 DUP1 SLOAD PUSH1 0x1 PUSH1 0x1 PUSH1 0xA0 SHL SUB NOT AND PUSH1 0x1 PUSH1 0x1 PUSH1 0xA0 SHL SUB SWAP3 DUP4 AND OR SWAP1 SSTORE PUSH1 0x1 SLOAD DUP3 SWAP2 AND DUP1 EXTCODESIZE ISZERO PUSH3 0xA68 JUMPI PUSH1 0x40 MLOAD DUP3 DUP2 PUSH1 0x24 DUP2 DUP4 PUSH4 0xF2FDE38B PUSH1 0xE0 SHL SWAP7 DUP8 DUP4 MSTORE CALLER PUSH1 0x4 DUP5 ADD MSTORE GAS CALL SWAP1 DUP2 ISZERO PUSH3 0xA6B JUMPI DUP4 SWAP2 PUSH3 0xA8E JUMPI JUMPDEST POP POP PUSH1 0x2 SLOAD PUSH1 0x1 PUSH1 0x1 PUSH1 0xA0 SHL SUB AND DUP1 EXTCODESIZE ISZERO PUSH3 0xA4C JUMPI DUP3 DUP1 SWAP2 PUSH1 0x24 PUSH1 0x40 MLOAD DUP1 SWAP5 DUP2 SWAP4 DUP8 DUP4 MSTORE CALLER PUSH1 0x4 DUP5 ADD MSTORE GAS CALL SWAP1 DUP2 ISZERO PUSH3 0xA6B JUMPI DUP4 SWAP2 PUSH3 0xA76 JUMPI JUMPDEST POP POP PUSH1 0x3 SLOAD PUSH1 0x1 PUSH1 0x1 PUSH1 0xA0 SHL SUB AND DUP1 EXTCODESIZE ISZERO PUSH3 0xA4C JUMPI DUP3 DUP1 SWAP2 PUSH1 0x24 PUSH1 0x40 MLOAD DUP1 SWAP5 DUP2 SWAP4 DUP8 DUP4 MSTORE CALLER PUSH1 0x4 DUP5 ADD MSTORE GAS CALL SWAP1 DUP2 ISZERO PUSH3 0xA6B JUMPI DUP4 SWAP2 PUSH3 0xA50 JUMPI JUMPDEST POP POP DUP2 SLOAD PUSH1 0x1 PUSH1 0x1 PUSH1 0xA0 SHL SUB AND DUP1 EXTCODESIZE ISZERO PUSH3 0xA4C JUMPI PUSH1 0x24 DUP4 SWAP3 PUSH1 0x40 MLOAD SWAP5 DUP6 SWAP4 DUP5 SWAP3 DUP4 MSTORE CALLER PUSH1 0x4 DUP5 ADD MSTORE GAS CALL DUP1 ISZERO PUSH3 0xA41 JUMPI PUSH3 0xA29 JUMPI JUMPDEST PUSH1 0x40 DUP1 MLOAD DUP4 SLOAD PUSH1 0x1 PUSH1 0x1 PUSH1 0xA0 SHL SUB SWAP1 DUP2 AND DUP3 MSTORE PUSH1 0x1 SLOAD DUP2 AND PUSH1 0x20 DUP4 ADD MSTORE PUSH1 0x2 SLOAD DUP2 AND SWAP3 DUP3 ADD SWAP3 SWAP1 SWAP3 MSTORE PUSH1 0x3 SLOAD DUP3 AND PUSH1 0x60 DUP3 ADD MSTORE PUSH1 0x4 SLOAD DUP3 AND PUSH1 0x80 DUP3 ADD MSTORE PUSH1 0x5 SLOAD SWAP1 SWAP2 AND PUSH1 0xA0 DUP3 ADD MSTORE PUSH32 0x37C42E83002A694CF456B5A802A0EF57F1428CED93A85257623ED82AC371546A SWAP1 PUSH1 0xC0 SWAP1 LOG1 PUSH3 0x139 PUSH3 0xE2 PUSH3 0xBF3 JUMP JUMPDEST PUSH3 0xA35 DUP3 SWAP2 PUSH3 0xB8D JUMP JUMPDEST PUSH3 0xB3 JUMPI CODESIZE PUSH3 0x9AD JUMP JUMPDEST PUSH1 0x40 MLOAD RETURNDATASIZE DUP5 DUP3 RETURNDATACOPY RETURNDATASIZE SWAP1 REVERT JUMPDEST POP POP REVERT JUMPDEST PUSH3 0xA5B SWAP1 PUSH3 0xB8D JUMP JUMPDEST PUSH3 0xA68 JUMPI DUP2 CODESIZE PUSH3 0x975 JUMP JUMPDEST POP REVERT JUMPDEST PUSH1 0x40 MLOAD RETURNDATASIZE DUP6 DUP3 RETURNDATACOPY RETURNDATASIZE SWAP1 REVERT JUMPDEST PUSH3 0xA81 SWAP1 PUSH3 0xB8D JUMP JUMPDEST PUSH3 0xA68 JUMPI DUP2 CODESIZE PUSH3 0x938 JUMP JUMPDEST PUSH3 0xA99 SWAP1 PUSH3 0xB8D JUMP JUMPDEST PUSH3 0xA68 JUMPI DUP2 CODESIZE PUSH3 0x8FB JUMP JUMPDEST POP PUSH1 0x40 MLOAD SWAP1 RETURNDATASIZE SWAP1 DUP3 RETURNDATACOPY RETURNDATASIZE SWAP1 REVERT JUMPDEST PUSH4 0x4E487B71 PUSH1 0xE0 SHL DUP7 MSTORE PUSH1 0x41 PUSH1 0x4 MSTORE PUSH1 0x24 DUP7 REVERT JUMPDEST PUSH3 0xAD2 SWAP1 PUSH3 0xB8D JUMP JUMPDEST PUSH3 0xADF JUMPI DUP2 CODESIZE PUSH3 0x7BE JUMP JUMPDEST POP DUP1 REVERT JUMPDEST PUSH3 0xAEE SWAP1 PUSH3 0xB8D JUMP JUMPDEST PUSH3 0xADF JUMPI DUP2 CODESIZE PUSH3 0x681 JUMP JUMPDEST DUP3 DUP1 REVERT JUMPDEST PUSH3 0xB0A SWAP1 PUSH3 0xB8D JUMP JUMPDEST PUSH3 0xADF JUMPI DUP2 CODESIZE PUSH3 0x53B JUMP JUMPDEST PUSH3 0xB22 SWAP1 PUSH3 0xB8D JUMP JUMPDEST CODESIZE PUSH3 0x3F5 JUMP JUMPDEST SWAP1 POP CALLVALUE PUSH3 0xADF JUMPI DUP2 PUSH1 0x3 NOT CALLDATASIZE ADD SLT PUSH3 0xADF JUMPI DUP1 PUSH20 0x7BA937403023CCD444923B183D42438B7057811 PUSH1 0x20 SWAP3 MSTORE RETURN JUMPDEST PUSH2 0x180 DUP2 ADD SWAP1 DUP2 LT PUSH8 0xFFFFFFFFFFFFFFFF DUP3 GT OR PUSH3 0xB77 JUMPI PUSH1 0x40 MSTORE JUMP JUMPDEST PUSH4 0x4E487B71 PUSH1 0xE0 SHL PUSH1 0x0 MSTORE PUSH1 0x41 PUSH1 0x4 MSTORE PUSH1 0x24 PUSH1 0x0 REVERT JUMPDEST PUSH8 0xFFFFFFFFFFFFFFFF DUP2 GT PUSH3 0xB77 JUMPI PUSH1 0x40 MSTORE JUMP JUMPDEST PUSH1 0xC0 DUP2 ADD SWAP1 DUP2 LT PUSH8 0xFFFFFFFFFFFFFFFF DUP3 GT OR PUSH3 0xB77 JUMPI PUSH1 0x40 MSTORE JUMP JUMPDEST PUSH1 0x40 MLOAD SWAP1 PUSH3 0xBCE DUP3 PUSH3 0xBA2 JUMP JUMPDEST DUP2 PUSH1 0xA0 PUSH1 0x0 SWAP2 DUP3 DUP2 MSTORE DUP3 PUSH1 0x20 DUP3 ADD MSTORE DUP3 PUSH1 0x40 DUP3 ADD MSTORE DUP3 PUSH1 0x60 DUP3 ADD MSTORE DUP3 PUSH1 0x80 DUP3 ADD MSTORE ADD MSTORE JUMP JUMPDEST PUSH1 0x40 MLOAD SWAP1 PUSH3 0xC02 DUP3 PUSH3 0xBA2 JUMP JUMPDEST PUSH1 0x0 SLOAD PUSH1 0x1 PUSH1 0x1 PUSH1 0xA0 SHL SUB SWAP1 DUP2 AND DUP4 MSTORE PUSH1 0x1 SLOAD DUP2 AND PUSH1 0x20 DUP5 ADD MSTORE PUSH1 0x2 SLOAD DUP2 AND PUSH1 0x40 DUP5 ADD MSTORE PUSH1 0x3 SLOAD DUP2 AND PUSH1 0x60 DUP5 ADD MSTORE PUSH1 0x4 SLOAD DUP2 AND PUSH1 0x80 DUP5 ADD MSTORE PUSH1 0x5 SLOAD AND PUSH1 0xA0 DUP4 ADD MSTORE JUMP JUMPDEST DUP1 MLOAD DUP3 MSTORE PUSH1 0x20 DUP2 ADD MLOAD PUSH1 0x20 DUP4 ADD MSTORE PUSH1 0x40 DUP2 ADD MLOAD PUSH1 0x40 DUP4 ADD MSTORE PUSH1 0x60 DUP2 ADD MLOAD PUSH1 0x60 DUP4 ADD MSTORE PUSH1 0x80 DUP2 ADD MLOAD PUSH1 0x80 DUP4 ADD MSTORE PUSH1 0xA0 DUP2 ADD MLOAD PUSH1 0xA0 DUP4 ADD MSTORE PUSH1 0xC0 DUP2 ADD MLOAD PUSH1 0xC0 DUP4 ADD MSTORE PUSH1 0xE0 DUP2 ADD MLOAD PUSH1 0xE0 DUP4 ADD MSTORE PUSH2 0x100 DUP1 DUP3 ADD MLOAD SWAP1 DUP4 ADD MSTORE PUSH2 0x120 DUP1 DUP3 ADD MLOAD SWAP1 DUP4 ADD MSTORE PUSH2 0x140 DUP1 DUP3 ADD MLOAD SWAP1 DUP4 ADD MSTORE PUSH2 0x160 DUP1 SWAP2 ADD MLOAD SWAP2 ADD MSTORE JUMP INVALID PUSH1 0x80 CALLVALUE PUSH3 0x41E JUMPI PUSH1 0x40 SWAP1 PUSH1 0x1 PUSH1 0x1 PUSH1 0x40 SHL SUB DUP2 DUP4 ADD DUP2 DUP2 GT DUP4 DUP3 LT OR PUSH3 0x320 JUMPI DUP4 MSTORE PUSH1 0xE DUP3 MSTORE PUSH1 0x20 SWAP1 PUSH14 0x151BDAD95B9A5E99590811DBDB19 PUSH1 0x92 SHL DUP3 DUP5 ADD MSTORE DUP4 MLOAD SWAP3 DUP5 DUP5 ADD DUP5 DUP2 LT DUP4 DUP3 GT OR PUSH3 0x320 JUMPI DUP6 MSTORE PUSH1 0x5 SWAP2 DUP3 DUP6 MSTORE PUSH5 0x1D11D3D311 PUSH1 0xDA SHL DUP5 DUP7 ADD MSTORE DUP2 MLOAD DUP2 DUP2 GT PUSH3 0x320 JUMPI PUSH1 0x3 SWAP1 DUP2 SLOAD SWAP1 PUSH1 0x1 SWAP5 DUP6 DUP4 DUP2 SHR SWAP4 AND DUP1 ISZERO PUSH3 0x413 JUMPI JUMPDEST DUP9 DUP5 LT EQ PUSH3 0x3FD JUMPI DUP2 SWAP1 PUSH1 0x1F SWAP4 DUP5 DUP2 GT PUSH3 0x3A9 JUMPI JUMPDEST POP DUP9 SWAP1 DUP5 DUP4 GT PUSH1 0x1 EQ PUSH3 0x342 JUMPI PUSH1 0x0 SWAP3 PUSH3 0x336 JUMPI JUMPDEST POP POP PUSH1 0x0 NOT DUP3 DUP6 SHL SHR NOT AND SWAP1 DUP6 SHL OR DUP3 SSTORE JUMPDEST DUP7 MLOAD SWAP3 DUP4 GT PUSH3 0x320 JUMPI PUSH1 0x4 SWAP7 DUP8 SLOAD DUP6 DUP2 DUP2 SHR SWAP2 AND DUP1 ISZERO PUSH3 0x315 JUMPI JUMPDEST DUP9 DUP3 LT EQ PUSH3 0x300 JUMPI DUP3 DUP2 GT PUSH3 0x2B7 JUMPI JUMPDEST POP DUP7 SWAP2 DUP5 GT PUSH1 0x1 EQ PUSH3 0x24C JUMPI SWAP4 DUP4 SWAP5 SWAP2 DUP5 SWAP3 PUSH1 0x0 SWAP6 PUSH3 0x240 JUMPI JUMPDEST POP POP SHL SWAP3 PUSH1 0x0 NOT SWAP2 SHL SHR NOT AND OR DUP4 SSTORE JUMPDEST CALLER ISZERO PUSH3 0x229 JUMPI DUP1 SLOAD PUSH1 0xFF SWAP2 SWAP1 CALLER PUSH1 0x1 PUSH1 0x1 PUSH1 0xA0 SHL SUB DUP3 AND PUSH32 0x8BE0079C531659141344CD1FD0A4F28419497F9722A3DAAFE3B4186F6B6457E0 PUSH1 0x0 DUP1 LOG3 PUSH1 0x1 PUSH1 0x1 PUSH1 0xA8 SHL SUB NOT AND CALLER PUSH1 0xA0 DUP5 DUP2 SHL NOT SWAP2 SWAP1 SWAP2 AND SWAP2 SWAP1 SWAP2 OR PUSH1 0x9 PUSH1 0xA1 SHL OR SWAP2 DUP3 SWAP1 SSTORE SHR AND PUSH1 0x4D DUP2 GT PUSH3 0x214 JUMPI PUSH1 0xA EXP SWAP2 PUSH2 0x797F SWAP3 DUP1 DUP5 MUL SWAP4 DUP5 DIV SUB PUSH3 0x1FF JUMPI PUSH1 0x2 SLOAD SWAP1 DUP4 DUP3 ADD DUP1 SWAP3 GT PUSH3 0x1FF JUMPI POP PUSH1 0x0 SWAP2 PUSH32 0xDDF252AD1BE2C89B69C2B068FC378DAA952BA7F163C4A11628F55A4DF523B3EF SWAP2 PUSH1 0x2 SSTORE CALLER DUP4 MSTORE DUP3 DUP2 MSTORE DUP5 DUP4 KECCAK256 DUP5 DUP2 SLOAD ADD SWAP1 SSTORE DUP5 MLOAD SWAP4 DUP5 MSTORE CALLER SWAP4 LOG3 MLOAD PUSH2 0xB14 SWAP1 DUP2 PUSH3 0x424 DUP3 CODECOPY RETURN JUMPDEST PUSH1 0x11 SWAP1 PUSH4 0x4E487B71 PUSH1 0xE0 SHL PUSH1 0x0 MSTORE MSTORE PUSH1 0x24 PUSH1 0x0 REVERT JUMPDEST PUSH1 0x11 DUP4 PUSH4 0x4E487B71 PUSH1 0xE0 SHL PUSH1 0x0 MSTORE MSTORE PUSH1 0x24 PUSH1 0x0 REVERT JUMPDEST DUP4 MLOAD PUSH4 0x1E4FBDF7 PUSH1 0xE0 SHL DUP2 MSTORE PUSH1 0x0 DUP2 DUP6 ADD MSTORE PUSH1 0x24 SWAP1 REVERT JUMPDEST ADD MLOAD SWAP4 POP CODESIZE DUP1 PUSH3 0x113 JUMP JUMPDEST SWAP2 SWAP1 PUSH1 0x1F NOT DUP5 AND SWAP3 DUP9 PUSH1 0x0 MSTORE DUP5 DUP9 PUSH1 0x0 KECCAK256 SWAP5 PUSH1 0x0 JUMPDEST DUP11 DUP10 DUP4 DUP4 LT PUSH3 0x29F JUMPI POP POP POP LT PUSH3 0x284 JUMPI JUMPDEST POP POP POP POP DUP2 SHL ADD DUP4 SSTORE PUSH3 0x123 JUMP JUMPDEST ADD MLOAD SWAP1 PUSH1 0xF8 DUP5 PUSH1 0x0 NOT SWAP3 SHL AND SHR NOT AND SWAP1 SSTORE CODESIZE DUP1 DUP1 DUP1 PUSH3 0x275 JUMP JUMPDEST DUP7 DUP7 ADD MLOAD DUP10 SSTORE SWAP1 SWAP8 ADD SWAP7 SWAP5 DUP6 ADD SWAP5 DUP9 SWAP4 POP ADD PUSH3 0x261 JUMP JUMPDEST DUP9 PUSH1 0x0 MSTORE DUP8 PUSH1 0x0 KECCAK256 DUP4 DUP1 DUP8 ADD DUP10 SHR DUP3 ADD SWAP3 DUP11 DUP9 LT PUSH3 0x2F6 JUMPI JUMPDEST ADD DUP9 SHR ADD SWAP1 DUP7 SWAP1 JUMPDEST DUP3 DUP2 LT PUSH3 0x2E9 JUMPI POP POP PUSH3 0xF7 JUMP JUMPDEST PUSH1 0x0 DUP2 SSTORE ADD DUP7 SWAP1 PUSH3 0x2D9 JUMP JUMPDEST SWAP3 POP DUP2 SWAP3 PUSH3 0x2D1 JUMP JUMPDEST PUSH1 0x22 DUP10 PUSH4 0x4E487B71 PUSH1 0xE0 SHL PUSH1 0x0 MSTORE MSTORE PUSH1 0x24 PUSH1 0x0 REVERT JUMPDEST SWAP1 PUSH1 0x7F AND SWAP1 PUSH3 0xE5 JUMP JUMPDEST PUSH4 0x4E487B71 PUSH1 0xE0 SHL PUSH1 0x0 MSTORE PUSH1 0x41 PUSH1 0x4 MSTORE PUSH1 0x24 PUSH1 0x0 REVERT JUMPDEST ADD MLOAD SWAP1 POP CODESIZE DUP1 PUSH3 0xB6 JUMP JUMPDEST SWAP1 DUP8 SWAP4 POP PUSH1 0x1F NOT DUP4 AND SWAP2 DUP7 PUSH1 0x0 MSTORE DUP11 PUSH1 0x0 KECCAK256 SWAP3 PUSH1 0x0 JUMPDEST DUP13 DUP3 DUP3 LT PUSH3 0x392 JUMPI POP POP DUP5 GT PUSH3 0x379 JUMPI JUMPDEST POP POP POP DUP2 SHL ADD DUP3 SSTORE PUSH3 0xC8 JUMP JUMPDEST ADD MLOAD PUSH1 0x0 NOT DUP4 DUP8 SHL PUSH1 0xF8 AND SHR NOT AND SWAP1 SSTORE CODESIZE DUP1 DUP1 PUSH3 0x36B JUMP JUMPDEST DUP4 DUP6 ADD MLOAD DUP7 SSTORE DUP12 SWAP8 SWAP1 SWAP6 ADD SWAP5 SWAP4 DUP5 ADD SWAP4 ADD PUSH3 0x358 JUMP JUMPDEST SWAP1 SWAP2 POP DUP5 PUSH1 0x0 MSTORE DUP9 PUSH1 0x0 KECCAK256 DUP5 DUP1 DUP6 ADD DUP11 SHR DUP3 ADD SWAP3 DUP12 DUP7 LT PUSH3 0x3F3 JUMPI JUMPDEST SWAP2 DUP10 SWAP2 DUP7 SWAP6 SWAP5 SWAP4 ADD DUP12 SHR ADD SWAP2 JUMPDEST DUP3 DUP2 LT PUSH3 0x3E3 JUMPI POP POP PUSH3 0x9F JUMP JUMPDEST PUSH1 0x0 DUP2 SSTORE DUP6 SWAP5 POP DUP10 SWAP2 ADD PUSH3 0x3D3 JUMP JUMPDEST SWAP3 POP DUP2 SWAP3 PUSH3 0x3C6 JUMP JUMPDEST PUSH4 0x4E487B71 PUSH1 0xE0 SHL PUSH1 0x0 MSTORE PUSH1 0x22 PUSH1 0x4 MSTORE PUSH1 0x24 PUSH1 0x0 REVERT JUMPDEST SWAP3 PUSH1 0x7F AND SWAP3 PUSH3 0x88 JUMP JUMPDEST PUSH1 0x0 DUP1 REVERT INVALID PUSH1 0x80 PUSH1 0x40 DUP2 DUP2 MSTORE PUSH1 0x4 DUP1 CALLDATASIZE LT ISZERO PUSH2 0x15 JUMPI PUSH1 0x0 DUP1 REVERT JUMPDEST PUSH1 0x0 SWAP3 DUP4 CALLDATALOAD PUSH1 0xE0 SHR SWAP1 DUP2 PUSH4 0x1D8A296 EQ PUSH2 0x8FE JUMPI POP DUP1 PUSH4 0x6FDDE03 EQ PUSH2 0x823 JUMPI DUP1 PUSH4 0x95EA7B3 EQ PUSH2 0x77A JUMPI DUP1 PUSH4 0x18160DDD EQ PUSH2 0x75B JUMPI DUP1 PUSH4 0x23B872DD EQ PUSH2 0x668 JUMPI DUP1 PUSH4 0x313CE567 EQ PUSH2 0x643 JUMPI DUP1 PUSH4 0x40C10F19 EQ PUSH2 0x594 JUMPI DUP1 PUSH4 0x70A08231 EQ PUSH2 0x55D JUMPI DUP1 PUSH4 0x715018A6 EQ PUSH2 0x4FD JUMPI DUP1 PUSH4 0x76697640 EQ PUSH2 0x4D9 JUMPI DUP1 PUSH4 0x7D1D5D19 EQ PUSH2 0x4BB JUMPI DUP1 PUSH4 0x8A877205 EQ PUSH2 0x483 JUMPI DUP1 PUSH4 0x8DA5CB5B EQ PUSH2 0x45A JUMPI DUP1 PUSH4 0x95D89B41 EQ PUSH2 0x33A JUMPI DUP1 PUSH4 0xA9059CBB EQ PUSH2 0x309 JUMPI DUP1 PUSH4 0xDD62ED3E EQ PUSH2 0x2C0 JUMPI DUP1 PUSH4 0xDE5F72FD EQ PUSH2 0x17B JUMPI PUSH4 0xF2FDE38B EQ PUSH2 0xE9 JUMPI PUSH1 0x0 DUP1 REVERT JUMPDEST CALLVALUE PUSH2 0x177 JUMPI PUSH1 0x20 CALLDATASIZE PUSH1 0x3 NOT ADD SLT PUSH2 0x177 JUMPI PUSH2 0x102 PUSH2 0x95A JUMP JUMPDEST SWAP1 PUSH2 0x10B PUSH2 0x9D4 JUMP JUMPDEST PUSH1 0x1 PUSH1 0x1 PUSH1 0xA0 SHL SUB SWAP2 DUP3 AND SWAP3 DUP4 ISZERO PUSH2 0x161 JUMPI POP POP PUSH1 0x5 SLOAD DUP3 PUSH12 0xFFFFFFFFFFFFFFFFFFFFFFFF PUSH1 0xA0 SHL DUP3 AND OR PUSH1 0x5 SSTORE AND PUSH32 0x8BE0079C531659141344CD1FD0A4F28419497F9722A3DAAFE3B4186F6B6457E0 DUP4 DUP1 LOG3 DUP1 RETURN JUMPDEST MLOAD PUSH4 0x1E4FBDF7 PUSH1 0xE0 SHL DUP2 MSTORE SWAP1 DUP2 ADD DUP5 SWAP1 MSTORE PUSH1 0x24 SWAP1 REVERT JUMPDEST DUP3 DUP1 REVERT JUMPDEST POP SWAP2 SWAP1 CALLVALUE PUSH2 0x2BC JUMPI DUP2 PUSH1 0x3 NOT CALLDATASIZE ADD SLT PUSH2 0x2BC JUMPI CALLER DUP3 MSTORE PUSH1 0x20 PUSH1 0x6 DUP2 MSTORE DUP2 DUP4 KECCAK256 SLOAD PUSH3 0x15180 DUP2 ADD DUP1 SWAP2 GT PUSH2 0x2A9 JUMPI TIMESTAMP LT PUSH2 0x26E JUMPI CALLER DUP4 MSTORE PUSH1 0x6 DUP2 MSTORE TIMESTAMP DUP3 DUP5 KECCAK256 SSTORE CALLER ISZERO PUSH2 0x257 JUMPI PUSH1 0x2 SLOAD SWAP2 PUSH9 0x1158E460913D00000 SWAP3 DUP4 DUP2 ADD DUP1 SWAP2 GT PUSH2 0x244 JUMPI SWAP1 PUSH32 0x5D4F415C63CD8A5874D9D291CDD64CEC37E5DC236D90D659C958D109D78074B3 SWAP3 SWAP2 PUSH1 0x2 SSTORE CALLER DUP6 MSTORE DUP5 DUP3 MSTORE DUP1 DUP6 KECCAK256 DUP5 DUP2 SLOAD ADD SWAP1 SSTORE DUP1 MLOAD DUP5 DUP2 MSTORE DUP6 PUSH32 0xDDF252AD1BE2C89B69C2B068FC378DAA952BA7F163C4A11628F55A4DF523B3EF DUP5 CALLER SWAP4 LOG3 MLOAD SWAP3 DUP4 MSTORE CALLER SWAP3 LOG2 DUP1 RETURN JUMPDEST PUSH4 0x4E487B71 PUSH1 0xE0 SHL DUP6 MSTORE PUSH1 0x11 DUP7 MSTORE PUSH1 0x24 DUP6 REVERT JUMPDEST DUP2 MLOAD PUSH4 0xEC442F05 PUSH1 0xE0 SHL DUP2 MSTORE DUP1 DUP6 ADD DUP5 SWAP1 MSTORE PUSH1 0x24 SWAP1 REVERT JUMPDEST DUP4 SWAP1 PUSH1 0x64 SWAP3 MLOAD SWAP2 PUSH3 0x461BCD PUSH1 0xE5 SHL DUP4 MSTORE DUP3 ADD MSTORE PUSH1 0x16 PUSH1 0x24 DUP3 ADD MSTORE PUSH22 0x46617563657420636F6F6C646F776E20616374697665 PUSH1 0x50 SHL PUSH1 0x44 DUP3 ADD MSTORE REVERT JUMPDEST PUSH4 0x4E487B71 PUSH1 0xE0 SHL DUP5 MSTORE PUSH1 0x11 DUP6 MSTORE PUSH1 0x24 DUP5 REVERT JUMPDEST POP DUP1 REVERT JUMPDEST POP POP CALLVALUE PUSH2 0x2BC JUMPI DUP1 PUSH1 0x3 NOT CALLDATASIZE ADD SLT PUSH2 0x2BC JUMPI DUP1 PUSH1 0x20 SWAP3 PUSH2 0x2DE PUSH2 0x95A JUMP JUMPDEST PUSH2 0x2E6 PUSH2 0x975 JUMP JUMPDEST PUSH1 0x1 PUSH1 0x1 PUSH1 0xA0 SHL SUB SWAP2 DUP3 AND DUP4 MSTORE PUSH1 0x1 DUP7 MSTORE DUP4 DUP4 KECCAK256 SWAP2 AND DUP3 MSTORE DUP5 MSTORE KECCAK256 SLOAD SWAP1 MLOAD SWAP1 DUP2 MSTORE RETURN JUMPDEST POP POP CALLVALUE PUSH2 0x2BC JUMPI DUP1 PUSH1 0x3 NOT CALLDATASIZE ADD SLT PUSH2 0x2BC JUMPI PUSH1 0x20 SWAP1 PUSH2 0x333 PUSH2 0x329 PUSH2 0x95A JUMP JUMPDEST PUSH1 0x24 CALLDATALOAD SWAP1 CALLER PUSH2 0xA00 JUMP JUMPDEST MLOAD PUSH1 0x1 DUP2 MSTORE RETURN JUMPDEST POP SWAP2 SWAP1 CALLVALUE PUSH2 0x2BC JUMPI DUP2 PUSH1 0x3 NOT CALLDATASIZE ADD SLT PUSH2 0x2BC JUMPI DUP1 MLOAD SWAP1 DUP3 DUP5 SLOAD PUSH1 0x1 DUP2 DUP2 SHR SWAP1 DUP1 DUP4 AND SWAP3 DUP4 ISZERO PUSH2 0x450 JUMPI JUMPDEST PUSH1 0x20 SWAP4 DUP5 DUP5 LT DUP2 EQ PUSH2 0x43D JUMPI DUP4 DUP9 MSTORE SWAP1 DUP2 ISZERO PUSH2 0x421 JUMPI POP PUSH1 0x1 EQ PUSH2 0x3CC JUMPI JUMPDEST POP POP POP DUP3 SWAP1 SUB PUSH1 0x1F ADD PUSH1 0x1F NOT AND DUP3 ADD SWAP3 PUSH8 0xFFFFFFFFFFFFFFFF DUP5 GT DUP4 DUP6 LT OR PUSH2 0x3B9 JUMPI POP DUP3 SWAP2 DUP3 PUSH2 0x3B5 SWAP3 MSTORE DUP3 PUSH2 0x98B JUMP JUMPDEST SUB SWAP1 RETURN JUMPDEST PUSH4 0x4E487B71 PUSH1 0xE0 SHL DUP2 MSTORE PUSH1 0x41 DUP6 MSTORE PUSH1 0x24 SWAP1 REVERT JUMPDEST DUP8 DUP8 MSTORE SWAP2 SWAP3 POP DUP6 SWAP2 DUP4 PUSH32 0x8A35ACFBC15FF81A39AE7D344FD709F28E8600B4AA8C65C6B64BFE7FE36BD19B JUMPDEST DUP4 DUP6 LT PUSH2 0x40D JUMPI POP POP POP POP DUP4 ADD ADD CODESIZE DUP1 DUP1 PUSH2 0x383 JUMP JUMPDEST DUP1 SLOAD DUP9 DUP7 ADD DUP4 ADD MSTORE SWAP4 ADD SWAP3 DUP5 SWAP1 DUP3 ADD PUSH2 0x3F7 JUMP JUMPDEST PUSH1 0xFF NOT AND DUP8 DUP6 ADD MSTORE POP POP ISZERO ISZERO PUSH1 0x5 SHL DUP5 ADD ADD SWAP1 POP CODESIZE DUP1 DUP1 PUSH2 0x383 JUMP JUMPDEST PUSH4 0x4E487B71 PUSH1 0xE0 SHL DUP10 MSTORE PUSH1 0x22 DUP11 MSTORE PUSH1 0x24 DUP10 REVERT JUMPDEST SWAP2 PUSH1 0x7F AND SWAP2 PUSH2 0x364 JUMP JUMPDEST POP POP CALLVALUE PUSH2 0x2BC JUMPI DUP2 PUSH1 0x3 NOT CALLDATASIZE ADD SLT PUSH2 0x2BC JUMPI PUSH1 0x5 SLOAD SWAP1 MLOAD PUSH1 0x1 PUSH1 0x1 PUSH1 0xA0 SHL SUB SWAP1 SWAP2 AND DUP2 MSTORE PUSH1 0x20 SWAP1 RETURN JUMPDEST POP POP CALLVALUE PUSH2 0x2BC JUMPI PUSH1 0x20 CALLDATASIZE PUSH1 0x3 NOT ADD SLT PUSH2 0x2BC JUMPI PUSH1 0x20 SWAP2 DUP2 SWAP1 PUSH1 0x1 PUSH1 0x1 PUSH1 0xA0 SHL SUB PUSH2 0x4AB PUSH2 0x95A JUMP JUMPDEST AND DUP2 MSTORE PUSH1 0x6 DUP5 MSTORE KECCAK256 SLOAD SWAP1 MLOAD SWAP1 DUP2 MSTORE RETURN JUMPDEST POP POP CALLVALUE PUSH2 0x2BC JUMPI DUP2 PUSH1 0x3 NOT CALLDATASIZE ADD SLT PUSH2 0x2BC JUMPI PUSH1 0x20 SWAP1 MLOAD PUSH3 0x15180 DUP2 MSTORE RETURN JUMPDEST POP POP CALLVALUE PUSH2 0x2BC JUMPI DUP2 PUSH1 0x3 NOT CALLDATASIZE ADD SLT PUSH2 0x2BC JUMPI PUSH1 0x20 SWAP1 MLOAD PUSH9 0x1158E460913D00000 DUP2 MSTORE RETURN JUMPDEST DUP4 CALLVALUE PUSH2 0x55A JUMPI DUP1 PUSH1 0x3 NOT CALLDATASIZE ADD SLT PUSH2 0x55A JUMPI PUSH2 0x516 PUSH2 0x9D4 JUMP JUMPDEST PUSH1 0x5 DUP1 SLOAD PUSH1 0x1 PUSH1 0x1 PUSH1 0xA0 SHL SUB NOT DUP2 AND SWAP1 SWAP2 SSTORE DUP2 SWAP1 PUSH1 0x1 PUSH1 0x1 PUSH1 0xA0 SHL SUB AND PUSH32 0x8BE0079C531659141344CD1FD0A4F28419497F9722A3DAAFE3B4186F6B6457E0 DUP3 DUP1 LOG3 DUP1 RETURN JUMPDEST DUP1 REVERT JUMPDEST POP POP CALLVALUE PUSH2 0x2BC JUMPI PUSH1 0x20 CALLDATASIZE PUSH1 0x3 NOT ADD SLT PUSH2 0x2BC JUMPI PUSH1 0x20 SWAP2 DUP2 SWAP1 PUSH1 0x1 PUSH1 0x1 PUSH1 0xA0 SHL SUB PUSH2 0x585 PUSH2 0x95A JUMP JUMPDEST AND DUP2 MSTORE DUP1 DUP5 MSTORE KECCAK256 SLOAD SWAP1 MLOAD SWAP1 DUP2 MSTORE RETURN JUMPDEST POP SWAP1 CALLVALUE PUSH2 0x177 JUMPI DUP1 PUSH1 0x3 NOT CALLDATASIZE ADD SLT PUSH2 0x177 JUMPI PUSH2 0x5AE PUSH2 0x95A JUMP JUMPDEST SWAP1 PUSH1 0x24 CALLDATALOAD SWAP2 PUSH2 0x5BB PUSH2 0x9D4 JUMP JUMPDEST PUSH1 0x1 PUSH1 0x1 PUSH1 0xA0 SHL SUB AND SWAP3 DUP4 ISZERO PUSH2 0x62E JUMPI PUSH1 0x2 SLOAD SWAP1 DUP4 DUP3 ADD DUP1 SWAP3 GT PUSH2 0x61B JUMPI POP DUP5 SWAP3 PUSH32 0xDDF252AD1BE2C89B69C2B068FC378DAA952BA7F163C4A11628F55A4DF523B3EF SWAP3 PUSH1 0x20 SWAP3 PUSH1 0x2 SSTORE DUP6 DUP6 MSTORE DUP5 DUP4 MSTORE DUP1 DUP6 KECCAK256 DUP3 DUP2 SLOAD ADD SWAP1 SSTORE MLOAD SWAP1 DUP2 MSTORE LOG3 DUP1 RETURN JUMPDEST PUSH4 0x4E487B71 PUSH1 0xE0 SHL DUP7 MSTORE PUSH1 0x11 SWAP1 MSTORE PUSH1 0x24 DUP6 REVERT JUMPDEST DUP5 PUSH1 0x24 SWAP3 MLOAD SWAP2 PUSH4 0xEC442F05 PUSH1 0xE0 SHL DUP4 MSTORE DUP3 ADD MSTORE REVERT JUMPDEST POP POP CALLVALUE PUSH2 0x2BC JUMPI DUP2 PUSH1 0x3 NOT CALLDATASIZE ADD SLT PUSH2 0x2BC JUMPI PUSH1 0x20 SWAP1 PUSH1 0xFF PUSH1 0x5 SLOAD PUSH1 0xA0 SHR AND SWAP1 MLOAD SWAP1 DUP2 MSTORE RETURN JUMPDEST POP DUP3 CALLVALUE PUSH2 0x55A JUMPI PUSH1 0x60 CALLDATASIZE PUSH1 0x3 NOT ADD SLT PUSH2 0x55A JUMPI PUSH2 0x683 PUSH2 0x95A JUMP JUMPDEST PUSH2 0x68B PUSH2 0x975 JUMP JUMPDEST SWAP2 PUSH1 0x44 CALLDATALOAD SWAP4 PUSH1 0x1 DUP1 PUSH1 0xA0 SHL SUB DUP4 AND DUP1 DUP4 MSTORE PUSH1 0x1 PUSH1 0x20 MSTORE DUP7 DUP4 KECCAK256 CALLER DUP5 MSTORE PUSH1 0x20 MSTORE DUP7 DUP4 KECCAK256 SLOAD SWAP2 PUSH1 0x0 NOT DUP4 LT PUSH2 0x6C7 JUMPI JUMPDEST PUSH1 0x20 DUP9 PUSH2 0x333 DUP10 DUP10 DUP10 PUSH2 0xA00 JUMP JUMPDEST DUP7 DUP4 LT PUSH2 0x72F JUMPI DUP2 ISZERO PUSH2 0x718 JUMPI CALLER ISZERO PUSH2 0x701 JUMPI POP DUP3 MSTORE PUSH1 0x1 PUSH1 0x20 SWAP1 DUP2 MSTORE DUP7 DUP4 KECCAK256 CALLER DUP5 MSTORE DUP2 MSTORE SWAP2 DUP7 SWAP1 KECCAK256 SWAP1 DUP6 SWAP1 SUB SWAP1 SSTORE DUP3 SWAP1 PUSH2 0x333 DUP8 PUSH2 0x6B9 JUMP JUMPDEST DUP8 MLOAD PUSH4 0x4A1406B1 PUSH1 0xE1 SHL DUP2 MSTORE SWAP1 DUP2 ADD DUP5 SWAP1 MSTORE PUSH1 0x24 SWAP1 REVERT JUMPDEST DUP8 MLOAD PUSH4 0xE602DF05 PUSH1 0xE0 SHL DUP2 MSTORE SWAP1 DUP2 ADD DUP5 SWAP1 MSTORE PUSH1 0x24 SWAP1 REVERT JUMPDEST DUP8 MLOAD PUSH4 0x7DC7A0D9 PUSH1 0xE1 SHL DUP2 MSTORE CALLER SWAP2 DUP2 ADD SWAP2 DUP3 MSTORE PUSH1 0x20 DUP3 ADD SWAP4 SWAP1 SWAP4 MSTORE PUSH1 0x40 DUP2 ADD DUP8 SWAP1 MSTORE DUP3 SWAP2 POP PUSH1 0x60 ADD SUB SWAP1 REVERT JUMPDEST POP POP CALLVALUE PUSH2 0x2BC JUMPI DUP2 PUSH1 0x3 NOT CALLDATASIZE ADD SLT PUSH2 0x2BC JUMPI PUSH1 0x20 SWAP1 PUSH1 0x2 SLOAD SWAP1 MLOAD SWAP1 DUP2 MSTORE RETURN JUMPDEST POP CALLVALUE PUSH2 0x177 JUMPI DUP2 PUSH1 0x3 NOT CALLDATASIZE ADD SLT PUSH2 0x177 JUMPI PUSH2 0x793 PUSH2 0x95A JUMP JUMPDEST PUSH1 0x24 CALLDATALOAD SWAP1 CALLER ISZERO PUSH2 0x80C JUMPI PUSH1 0x1 PUSH1 0x1 PUSH1 0xA0 SHL SUB AND SWAP2 DUP3 ISZERO PUSH2 0x7F5 JUMPI POP DUP1 DUP4 PUSH1 0x20 SWAP6 CALLER DUP2 MSTORE PUSH1 0x1 DUP8 MSTORE DUP2 DUP2 KECCAK256 DUP6 DUP3 MSTORE DUP8 MSTORE KECCAK256 SSTORE DUP3 MLOAD SWAP1 DUP2 MSTORE PUSH32 0x8C5BE1E5EBEC7D5BD14F71427D1E84F3DD0314C0F7B2291E5B200AC8C7C3B925 DUP5 CALLER SWAP3 LOG3 MLOAD PUSH1 0x1 DUP2 MSTORE RETURN JUMPDEST DUP4 MLOAD PUSH4 0x4A1406B1 PUSH1 0xE1 SHL DUP2 MSTORE SWAP1 DUP2 ADD DUP6 SWAP1 MSTORE PUSH1 0x24 SWAP1 REVERT JUMPDEST DUP4 MLOAD PUSH4 0xE602DF05 PUSH1 0xE0 SHL DUP2 MSTORE DUP1 DUP5 ADD DUP7 SWAP1 MSTORE PUSH1 0x24 SWAP1 REVERT JUMPDEST POP SWAP2 SWAP1 CALLVALUE PUSH2 0x2BC JUMPI DUP2 PUSH1 0x3 NOT CALLDATASIZE ADD SLT PUSH2 0x2BC JUMPI DUP1 MLOAD SWAP1 DUP3 PUSH1 0x3 SLOAD PUSH1 0x1 DUP2 DUP2 SHR SWAP1 DUP1 DUP4 AND SWAP3 DUP4 ISZERO PUSH2 0x8F4 JUMPI JUMPDEST PUSH1 0x20 SWAP4 DUP5 DUP5 LT DUP2 EQ PUSH2 0x43D JUMPI DUP4 DUP9 MSTORE SWAP1 DUP2 ISZERO PUSH2 0x421 JUMPI POP PUSH1 0x1 EQ PUSH2 0x89E JUMPI POP POP POP DUP3 SWAP1 SUB PUSH1 0x1F ADD PUSH1 0x1F NOT AND DUP3 ADD SWAP3 PUSH8 0xFFFFFFFFFFFFFFFF DUP5 GT DUP4 DUP6 LT OR PUSH2 0x3B9 JUMPI POP DUP3 SWAP2 DUP3 PUSH2 0x3B5 SWAP3 MSTORE DUP3 PUSH2 0x98B JUMP JUMPDEST PUSH1 0x3 DUP8 MSTORE SWAP2 SWAP3 POP DUP6 SWAP2 DUP4 PUSH32 0xC2575A0E9E593C00F959F8C92F12DB2869C3395A3B0502D05E2516446F71F85B JUMPDEST DUP4 DUP6 LT PUSH2 0x8E0 JUMPI POP POP POP POP DUP4 ADD ADD CODESIZE DUP1 DUP1 PUSH2 0x383 JUMP JUMPDEST DUP1 SLOAD DUP9 DUP7 ADD DUP4 ADD MSTORE SWAP4 ADD SWAP3 DUP5 SWAP1 DUP3 ADD PUSH2 0x8CA JUMP JUMPDEST SWAP2 PUSH1 0x7F AND SWAP2 PUSH2 0x84E JUMP JUMPDEST SWAP1 POP DUP4 DUP4 CALLVALUE PUSH2 0x2BC JUMPI PUSH1 0x20 CALLDATASIZE PUSH1 0x3 NOT ADD SLT PUSH2 0x2BC JUMPI PUSH1 0x1 PUSH1 0x1 PUSH1 0xA0 SHL SUB PUSH2 0x923 PUSH2 0x95A JUMP JUMPDEST AND DUP3 MSTORE PUSH1 0x6 PUSH1 0x20 MSTORE DUP2 KECCAK256 SLOAD SWAP1 PUSH3 0x15180 DUP3 ADD DUP1 SWAP3 GT PUSH2 0x947 JUMPI PUSH1 0x20 DUP4 DUP4 TIMESTAMP LT ISZERO DUP2 MSTORE RETURN JUMPDEST PUSH4 0x4E487B71 PUSH1 0xE0 SHL DUP2 MSTORE PUSH1 0x11 DUP5 MSTORE PUSH1 0x24 SWAP1 REVERT JUMPDEST PUSH1 0x4 CALLDATALOAD SWAP1 PUSH1 0x1 PUSH1 0x1 PUSH1 0xA0 SHL SUB DUP3 AND DUP3 SUB PUSH2 0x970 JUMPI JUMP JUMPDEST PUSH1 0x0 DUP1 REVERT JUMPDEST PUSH1 0x24 CALLDATALOAD SWAP1 PUSH1 0x1 PUSH1 0x1 PUSH1 0xA0 SHL SUB DUP3 AND DUP3 SUB PUSH2 0x970 JUMPI JUMP JUMPDEST PUSH1 0x20 DUP1 DUP3 MSTORE DUP3 MLOAD DUP2 DUP4 ADD DUP2 SWAP1 MSTORE SWAP1 SWAP4 SWAP3 PUSH1 0x0 JUMPDEST DUP3 DUP2 LT PUSH2 0x9C0 JUMPI POP POP PUSH1 0x40 SWAP3 SWAP4 POP PUSH1 0x0 DUP4 DUP3 DUP5 ADD ADD MSTORE PUSH1 0x1F DUP1 NOT SWAP2 ADD AND ADD ADD SWAP1 JUMP JUMPDEST DUP2 DUP2 ADD DUP7 ADD MLOAD DUP5 DUP3 ADD PUSH1 0x40 ADD MSTORE DUP6 ADD PUSH2 0x99E JUMP JUMPDEST PUSH1 0x5 SLOAD PUSH1 0x1 PUSH1 0x1 PUSH1 0xA0 SHL SUB AND CALLER SUB PUSH2 0x9E8 JUMPI JUMP JUMPDEST PUSH1 0x40 MLOAD PUSH4 0x118CDAA7 PUSH1 0xE0 SHL DUP2 MSTORE CALLER PUSH1 0x4 DUP3 ADD MSTORE PUSH1 0x24 SWAP1 REVERT JUMPDEST SWAP2 PUSH1 0x1 PUSH1 0x1 PUSH1 0xA0 SHL SUB DUP1 DUP5 AND SWAP3 DUP4 ISZERO PUSH2 0xAC5 JUMPI AND SWAP3 DUP4 ISZERO PUSH2 0xAAC JUMPI PUSH1 0x0 SWAP1 DUP4 DUP3 MSTORE DUP2 PUSH1 0x20 MSTORE PUSH1 0x40 DUP3 KECCAK256 SLOAD SWAP1 DUP4 DUP3 LT PUSH2 0xA7A JUMPI POP SWAP2 PUSH1 0x40 DUP3 DUP3 PUSH32 0xDDF252AD1BE2C89B69C2B068FC378DAA952BA7F163C4A11628F55A4DF523B3EF SWAP6 DUP8 PUSH1 0x20 SWAP7 MSTORE DUP3 DUP7 MSTORE SUB DUP3 DUP3 KECCAK256 SSTORE DUP7 DUP2 MSTORE KECCAK256 DUP2 DUP2 SLOAD ADD SWAP1 SSTORE PUSH1 0x40 MLOAD SWAP1 DUP2 MSTORE LOG3 JUMP JUMPDEST PUSH1 0x40 MLOAD PUSH4 0x391434E3 PUSH1 0xE2 SHL DUP2 MSTORE PUSH1 0x1 PUSH1 0x1 PUSH1 0xA0 SHL SUB SWAP2 SWAP1 SWAP2 AND PUSH1 0x4 DUP3 ADD MSTORE PUSH1 0x24 DUP2 ADD SWAP2 SWAP1 SWAP2 MSTORE PUSH1 0x44 DUP2 ADD DUP4 SWAP1 MSTORE PUSH1 0x64 SWAP1 REVERT JUMPDEST PUSH1 0x40 MLOAD PUSH4 0xEC442F05 PUSH1 0xE0 SHL DUP2 MSTORE PUSH1 0x0 PUSH1 0x4 DUP3 ADD MSTORE PUSH1 0x24 SWAP1 REVERT JUMPDEST PUSH1 0x40 MLOAD PUSH4 0x4B637E8F PUSH1 0xE1 SHL DUP2 MSTORE PUSH1 0x0 PUSH1 0x4 DUP3 ADD MSTORE PUSH1 0x24 SWAP1 REVERT INVALID LOG2 PUSH5 0x6970667358 0x22 SLT KECCAK256 0xAA 0x25 0xAF PUSH16 0xAADB15E26552A66D86E45C0D25A2A318 CREATE 0x4D 0x2D BASEFEE 0xB9 0x28 0xD1 0x24 0x29 PUSH30 0xACD464736F6C634300081400336080346200042757604090600160016040 SHL SUB SWAP1 DUP1 DUP4 ADD DUP3 DUP2 GT DUP3 DUP3 LT OR PUSH3 0x327 JUMPI DUP4 MSTORE PUSH1 0x10 DUP2 MSTORE PUSH1 0x20 SWAP1 PUSH16 0x2A37B5B2B734BD32B21029B4B63B32B9 PUSH1 0x81 SHL DUP3 DUP3 ADD MSTORE DUP4 MLOAD SWAP3 DUP5 DUP5 ADD DUP5 DUP2 LT DUP3 DUP3 GT OR PUSH3 0x327 JUMPI DUP6 MSTORE PUSH1 0x7 DUP5 MSTORE PUSH7 0x3A29A4A62B22A9 PUSH1 0xC9 SHL DUP4 DUP6 ADD MSTORE DUP2 MLOAD DUP2 DUP2 GT PUSH3 0x327 JUMPI PUSH1 0x3 SWAP1 DUP2 SLOAD SWAP1 PUSH1 0x1 SWAP5 DUP6 DUP4 DUP2 SHR SWAP4 AND DUP1 ISZERO PUSH3 0x41C JUMPI JUMPDEST DUP8 DUP5 LT EQ PUSH3 0x406 JUMPI DUP2 SWAP1 PUSH1 0x1F SWAP4 DUP5 DUP2 GT PUSH3 0x3B0 JUMPI JUMPDEST POP DUP8 SWAP1 DUP5 DUP4 GT PUSH1 0x1 EQ PUSH3 0x349 JUMPI PUSH1 0x0 SWAP3 PUSH3 0x33D JUMPI JUMPDEST POP POP PUSH1 0x0 NOT DUP3 DUP6 SHL SHR NOT AND SWAP1 DUP6 SHL OR DUP3 SSTORE JUMPDEST DUP6 MLOAD SWAP3 DUP4 GT PUSH3 0x327 JUMPI PUSH1 0x4 SWAP6 DUP7 SLOAD DUP6 DUP2 DUP2 SHR SWAP2 AND DUP1 ISZERO PUSH3 0x31C JUMPI JUMPDEST DUP8 DUP3 LT EQ PUSH3 0x307 JUMPI DUP3 DUP2 GT PUSH3 0x2BC JUMPI JUMPDEST POP DUP6 SWAP2 DUP5 GT PUSH1 0x1 EQ PUSH3 0x251 JUMPI SWAP4 DUP4 SWAP5 SWAP2 DUP5 SWAP3 PUSH1 0x0 SWAP6 PUSH3 0x245 JUMPI JUMPDEST POP POP SHL SWAP3 PUSH1 0x0 NOT SWAP2 SHL SHR NOT AND OR DUP3 SSTORE JUMPDEST CALLER ISZERO PUSH3 0x22E JUMPI PUSH1 0x5 SLOAD PUSH1 0xFF SWAP1 CALLER PUSH1 0x1 PUSH1 0x1 PUSH1 0xA0 SHL SUB DUP3 AND PUSH32 0x8BE0079C531659141344CD1FD0A4F28419497F9722A3DAAFE3B4186F6B6457E0 PUSH1 0x0 DUP1 LOG3 PUSH1 0x1 PUSH1 0x1 PUSH1 0xA8 SHL SUB NOT AND CALLER PUSH1 0xA0 DUP4 DUP2 SHL NOT SWAP2 SWAP1 SWAP2 AND SWAP2 SWAP1 SWAP2 OR PUSH1 0x9 PUSH1 0xA1 SHL OR PUSH1 0x5 DUP2 SWAP1 SSTORE SWAP1 SHR AND PUSH1 0x4D DUP2 GT PUSH3 0x219 JUMPI PUSH1 0xA EXP SWAP2 PUSH2 0x2710 SWAP3 DUP1 DUP5 MUL SWAP4 DUP5 DIV SUB PUSH3 0x204 JUMPI PUSH1 0x2 SLOAD SWAP1 DUP4 DUP3 ADD DUP1 SWAP3 GT PUSH3 0x204 JUMPI POP PUSH1 0x0 SWAP2 PUSH32 0xDDF252AD1BE2C89B69C2B068FC378DAA952BA7F163C4A11628F55A4DF523B3EF SWAP2 PUSH1 0x2 SSTORE CALLER DUP4 MSTORE DUP3 DUP2 MSTORE DUP5 DUP4 KECCAK256 DUP5 DUP2 SLOAD ADD SWAP1 SSTORE DUP5 MLOAD SWAP4 DUP5 MSTORE CALLER SWAP4 LOG3 MLOAD PUSH2 0xB14 SWAP1 DUP2 PUSH3 0x42D DUP3 CODECOPY RETURN JUMPDEST PUSH1 0x11 SWAP1 PUSH4 0x4E487B71 PUSH1 0xE0 SHL PUSH1 0x0 MSTORE MSTORE PUSH1 0x24 PUSH1 0x0 REVERT JUMPDEST PUSH1 0x11 DUP4 PUSH4 0x4E487B71 PUSH1 0xE0 SHL PUSH1 0x0 MSTORE MSTORE PUSH1 0x24 PUSH1 0x0 REVERT JUMPDEST POP PUSH1 0x0 PUSH1 0x24 SWAP3 MLOAD SWAP2 PUSH4 0x1E4FBDF7 PUSH1 0xE0 SHL DUP4 MSTORE DUP3 ADD MSTORE REVERT JUMPDEST ADD MLOAD SWAP4 POP CODESIZE DUP1 PUSH3 0x116 JUMP JUMPDEST SWAP2 SWAP1 PUSH1 0x1F NOT DUP5 AND SWAP3 DUP8 PUSH1 0x0 MSTORE DUP5 DUP8 PUSH1 0x0 KECCAK256 SWAP5 PUSH1 0x0 JUMPDEST DUP10 DUP10 DUP4 DUP4 LT PUSH3 0x2A4 JUMPI POP POP POP LT PUSH3 0x289 JUMPI JUMPDEST POP POP POP POP DUP2 SHL ADD DUP3 SSTORE PUSH3 0x126 JUMP JUMPDEST ADD MLOAD SWAP1 PUSH1 0xF8 DUP5 PUSH1 0x0 NOT SWAP3 SHL AND SHR NOT AND SWAP1 SSTORE CODESIZE DUP1 DUP1 DUP1 PUSH3 0x27A JUMP JUMPDEST DUP7 DUP7 ADD MLOAD DUP10 SSTORE SWAP1 SWAP8 ADD SWAP7 SWAP5 DUP6 ADD SWAP5 DUP9 SWAP4 POP ADD PUSH3 0x266 JUMP JUMPDEST DUP8 PUSH1 0x0 MSTORE DUP7 PUSH1 0x0 KECCAK256 DUP4 DUP1 DUP8 ADD PUSH1 0x5 SHR DUP3 ADD SWAP3 DUP10 DUP9 LT PUSH3 0x2FD JUMPI JUMPDEST ADD PUSH1 0x5 SHR ADD SWAP1 DUP7 SWAP1 JUMPDEST DUP3 DUP2 LT PUSH3 0x2F0 JUMPI POP POP PUSH3 0xFA JUMP JUMPDEST PUSH1 0x0 DUP2 SSTORE ADD DUP7 SWAP1 PUSH3 0x2E0 JUMP JUMPDEST SWAP3 POP DUP2 SWAP3 PUSH3 0x2D7 JUMP JUMPDEST PUSH1 0x22 DUP9 PUSH4 0x4E487B71 PUSH1 0xE0 SHL PUSH1 0x0 MSTORE MSTORE PUSH1 0x24 PUSH1 0x0 REVERT JUMPDEST SWAP1 PUSH1 0x7F AND SWAP1 PUSH3 0xE8 JUMP JUMPDEST PUSH4 0x4E487B71 PUSH1 0xE0 SHL PUSH1 0x0 MSTORE PUSH1 0x41 PUSH1 0x4 MSTORE PUSH1 0x24 PUSH1 0x0 REVERT JUMPDEST ADD MLOAD SWAP1 POP CODESIZE DUP1 PUSH3 0xB9 JUMP JUMPDEST SWAP1 DUP8 SWAP4 POP PUSH1 0x1F NOT DUP4 AND SWAP2 DUP7 PUSH1 0x0 MSTORE DUP10 PUSH1 0x0 KECCAK256 SWAP3 PUSH1 0x0 JUMPDEST DUP12 DUP3 DUP3 LT PUSH3 0x399 JUMPI POP POP DUP5 GT PUSH3 0x380 JUMPI JUMPDEST POP POP POP DUP2 SHL ADD DUP3 SSTORE PUSH3 0xCB JUMP JUMPDEST ADD MLOAD PUSH1 0x0 NOT DUP4 DUP8 SHL PUSH1 0xF8 AND SHR NOT AND SWAP1 SSTORE CODESIZE DUP1 DUP1 PUSH3 0x372 JUMP JUMPDEST DUP4 DUP6 ADD MLOAD DUP7 SSTORE DUP12 SWAP8 SWAP1 SWAP6 ADD SWAP5 SWAP4 DUP5 ADD SWAP4 ADD PUSH3 0x35F JUMP JUMPDEST SWAP1 SWAP2 POP DUP5 PUSH1 0x0 MSTORE DUP8 PUSH1 0x0 KECCAK256 DUP5 DUP1 DUP6 ADD PUSH1 0x5 SHR DUP3 ADD SWAP3 DUP11 DUP7 LT PUSH3 0x3FC JUMPI JUMPDEST SWAP2 DUP10 SWAP2 DUP7 SWAP6 SWAP5 SWAP4 ADD PUSH1 0x5 SHR ADD SWAP2 JUMPDEST DUP3 DUP2 LT PUSH3 0x3EC JUMPI POP POP PUSH3 0xA2 JUMP JUMPDEST PUSH1 0x0 DUP2 SSTORE DUP6 SWAP5 POP DUP10 SWAP2 ADD PUSH3 0x3DC JUMP JUMPDEST SWAP3 POP DUP2 SWAP3 PUSH3 0x3CE JUMP JUMPDEST PUSH4 0x4E487B71 PUSH1 0xE0 SHL PUSH1 0x0 MSTORE PUSH1 0x22 PUSH1 0x4 MSTORE PUSH1 0x24 PUSH1 0x0 REVERT JUMPDEST SWAP3 PUSH1 0x7F AND SWAP3 PUSH3 0x8B JUMP JUMPDEST PUSH1 0x0 DUP1 REVERT INVALID PUSH1 0x80 PUSH1 0x40 DUP2 DUP2 MSTORE PUSH1 0x4 DUP1 CALLDATASIZE LT ISZERO PUSH2 0x15 JUMPI PUSH1 0x0 DUP1 REVERT JUMPDEST PUSH1 0x0 SWAP3 DUP4 CALLDATALOAD PUSH1 0xE0 SHR SWAP1 DUP2 PUSH4 0x1D8A296 EQ PUSH2 0x8FE JUMPI POP DUP1 PUSH4 0x6FDDE03 EQ PUSH2 0x823 JUMPI DUP1 PUSH4 0x95EA7B3 EQ PUSH2 0x77A JUMPI DUP1 PUSH4 0x18160DDD EQ PUSH2 0x75B JUMPI DUP1 PUSH4 0x23B872DD EQ PUSH2 0x668 JUMPI DUP1 PUSH4 0x313CE567 EQ PUSH2 0x643 JUMPI DUP1 PUSH4 0x40C10F19 EQ PUSH2 0x594 JUMPI DUP1 PUSH4 0x70A08231 EQ PUSH2 0x55D JUMPI DUP1 PUSH4 0x715018A6 EQ PUSH2 0x4FD JUMPI DUP1 PUSH4 0x76697640 EQ PUSH2 0x4D9 JUMPI DUP1 PUSH4 0x7D1D5D19 EQ PUSH2 0x4BB JUMPI DUP1 PUSH4 0x8A877205 EQ PUSH2 0x483 JUMPI DUP1 PUSH4 0x8DA5CB5B EQ PUSH2 0x45A JUMPI DUP1 PUSH4 0x95D89B41 EQ PUSH2 0x33A JUMPI DUP1 PUSH4 0xA9059CBB EQ PUSH2 0x309 JUMPI DUP1 PUSH4 0xDD62ED3E EQ PUSH2 0x2C0 JUMPI DUP1 PUSH4 0xDE5F72FD EQ PUSH2 0x17B JUMPI PUSH4 0xF2FDE38B EQ PUSH2 0xE9 JUMPI PUSH1 0x0 DUP1 REVERT JUMPDEST CALLVALUE PUSH2 0x177 JUMPI PUSH1 0x20 CALLDATASIZE PUSH1 0x3 NOT ADD SLT PUSH2 0x177 JUMPI PUSH2 0x102 PUSH2 0x95A JUMP JUMPDEST SWAP1 PUSH2 0x10B PUSH2 0x9D4 JUMP JUMPDEST PUSH1 0x1 PUSH1 0x1 PUSH1 0xA0 SHL SUB SWAP2 DUP3 AND SWAP3 DUP4 ISZERO PUSH2 0x161 JUMPI POP POP PUSH1 0x5 SLOAD DUP3 PUSH12 0xFFFFFFFFFFFFFFFFFFFFFFFF PUSH1 0xA0 SHL DUP3 AND OR PUSH1 0x5 SSTORE AND PUSH32 0x8BE0079C531659141344CD1FD0A4F28419497F9722A3DAAFE3B4186F6B6457E0 DUP4 DUP1 LOG3 DUP1 RETURN JUMPDEST MLOAD PUSH4 0x1E4FBDF7 PUSH1 0xE0 SHL DUP2 MSTORE SWAP1 DUP2 ADD DUP5 SWAP1 MSTORE PUSH1 0x24 SWAP1 REVERT JUMPDEST DUP3 DUP1 REVERT JUMPDEST POP SWAP2 SWAP1 CALLVALUE PUSH2 0x2BC JUMPI DUP2 PUSH1 0x3 NOT CALLDATASIZE ADD SLT PUSH2 0x2BC JUMPI CALLER DUP3 MSTORE PUSH1 0x20 PUSH1 0x6 DUP2 MSTORE DUP2 DUP4 KECCAK256 SLOAD PUSH3 0x15180 DUP2 ADD DUP1 SWAP2 GT PUSH2 0x2A9 JUMPI TIMESTAMP LT PUSH2 0x26E JUMPI CALLER DUP4 MSTORE PUSH1 0x6 DUP2 MSTORE TIMESTAMP DUP3 DUP5 KECCAK256 SSTORE CALLER ISZERO PUSH2 0x257 JUMPI PUSH1 0x2 SLOAD SWAP2 PUSH9 0x22B1C8C1227A00000 SWAP3 DUP4 DUP2 ADD DUP1 SWAP2 GT PUSH2 0x244 JUMPI SWAP1 PUSH32 0x5D4F415C63CD8A5874D9D291CDD64CEC37E5DC236D90D659C958D109D78074B3 SWAP3 SWAP2 PUSH1 0x2 SSTORE CALLER DUP6 MSTORE DUP5 DUP3 MSTORE DUP1 DUP6 KECCAK256 DUP5 DUP2 SLOAD ADD SWAP1 SSTORE DUP1 MLOAD DUP5 DUP2 MSTORE DUP6 PUSH32 0xDDF252AD1BE2C89B69C2B068FC378DAA952BA7F163C4A11628F55A4DF523B3EF DUP5 CALLER SWAP4 LOG3 MLOAD SWAP3 DUP4 MSTORE CALLER SWAP3 LOG2 DUP1 RETURN JUMPDEST PUSH4 0x4E487B71 PUSH1 0xE0 SHL DUP6 MSTORE PUSH1 0x11 DUP7 MSTORE PUSH1 0x24 DUP6 REVERT JUMPDEST DUP2 MLOAD PUSH4 0xEC442F05 PUSH1 0xE0 SHL DUP2 MSTORE DUP1 DUP6 ADD DUP5 SWAP1 MSTORE PUSH1 0x24 SWAP1 REVERT JUMPDEST DUP4 SWAP1 PUSH1 0x64 SWAP3 MLOAD SWAP2 PUSH3 0x461BCD PUSH1 0xE5 SHL DUP4 MSTORE DUP3 ADD MSTORE PUSH1 0x16 PUSH1 0x24 DUP3 ADD MSTORE PUSH22 0x46617563657420636F6F6C646F776E20616374697665 PUSH1 0x50 SHL PUSH1 0x44 DUP3 ADD MSTORE REVERT JUMPDEST PUSH4 0x4E487B71 PUSH1 0xE0 SHL DUP5 MSTORE PUSH1 0x11 DUP6 MSTORE PUSH1 0x24 DUP5 REVERT JUMPDEST POP DUP1 REVERT JUMPDEST POP POP CALLVALUE PUSH2 0x2BC JUMPI DUP1 PUSH1 0x3 NOT CALLDATASIZE ADD SLT PUSH2 0x2BC JUMPI DUP1 PUSH1 0x20 SWAP3 PUSH2 0x2DE PUSH2 0x95A JUMP JUMPDEST PUSH2 0x2E6 PUSH2 0x975 JUMP JUMPDEST PUSH1 0x1 PUSH1 0x1 PUSH1 0xA0 SHL SUB SWAP2 DUP3 AND DUP4 MSTORE PUSH1 0x1 DUP7 MSTORE DUP4 DUP4 KECCAK256 SWAP2 AND DUP3 MSTORE DUP5 MSTORE KECCAK256 SLOAD SWAP1 MLOAD SWAP1 DUP2 MSTORE RETURN JUMPDEST POP POP CALLVALUE PUSH2 0x2BC JUMPI DUP1 PUSH1 0x3 NOT CALLDATASIZE ADD SLT PUSH2 0x2BC JUMPI PUSH1 0x20 SWAP1 PUSH2 0x333 PUSH2 0x329 PUSH2 0x95A JUMP JUMPDEST PUSH1 0x24 CALLDATALOAD SWAP1 CALLER PUSH2 0xA00 JUMP JUMPDEST MLOAD PUSH1 0x1 DUP2 MSTORE RETURN JUMPDEST POP SWAP2 SWAP1 CALLVALUE PUSH2 0x2BC JUMPI DUP2 PUSH1 0x3 NOT CALLDATASIZE ADD SLT PUSH2 0x2BC JUMPI DUP1 MLOAD SWAP1 DUP3 DUP5 SLOAD PUSH1 0x1 DUP2 DUP2 SHR SWAP1 DUP1 DUP4 AND SWAP3 DUP4 ISZERO PUSH2 0x450 JUMPI JUMPDEST PUSH1 0x20 SWAP4 DUP5 DUP5 LT DUP2 EQ PUSH2 0x43D JUMPI DUP4 DUP9 MSTORE SWAP1 DUP2 ISZERO PUSH2 0x421 JUMPI POP PUSH1 0x1 EQ PUSH2 0x3CC JUMPI JUMPDEST POP POP POP DUP3 SWAP1 SUB PUSH1 0x1F ADD PUSH1 0x1F NOT AND DUP3 ADD SWAP3 PUSH8 0xFFFFFFFFFFFFFFFF DUP5 GT DUP4 DUP6 LT OR PUSH2 0x3B9 JUMPI POP DUP3 SWAP2 DUP3 PUSH2 0x3B5 SWAP3 MSTORE DUP3 PUSH2 0x98B JUMP JUMPDEST SUB SWAP1 RETURN JUMPDEST PUSH4 0x4E487B71 PUSH1 0xE0 SHL DUP2 MSTORE PUSH1 0x41 DUP6 MSTORE PUSH1 0x24 SWAP1 REVERT JUMPDEST DUP8 DUP8 MSTORE SWAP2 SWAP3 POP DUP6 SWAP2 DUP4 PUSH32 0x8A35ACFBC15FF81A39AE7D344FD709F28E8600B4AA8C65C6B64BFE7FE36BD19B JUMPDEST DUP4 DUP6 LT PUSH2 0x40D JUMPI POP POP POP POP DUP4 ADD ADD CODESIZE DUP1 DUP1 PUSH2 0x383 JUMP JUMPDEST DUP1 SLOAD DUP9 DUP7 ADD DUP4 ADD MSTORE SWAP4 ADD SWAP3 DUP5 SWAP1 DUP3 ADD PUSH2 0x3F7 JUMP JUMPDEST PUSH1 0xFF NOT AND DUP8 DUP6 ADD MSTORE POP POP ISZERO ISZERO PUSH1 0x5 SHL DUP5 ADD ADD SWAP1 POP CODESIZE DUP1 DUP1 PUSH2 0x383 JUMP JUMPDEST PUSH4 0x4E487B71 PUSH1 0xE0 SHL DUP10 MSTORE PUSH1 0x22 DUP11 MSTORE PUSH1 0x24 DUP10 REVERT JUMPDEST SWAP2 PUSH1 0x7F AND SWAP2 PUSH2 0x364 JUMP JUMPDEST POP POP CALLVALUE PUSH2 0x2BC JUMPI DUP2 PUSH1 0x3 NOT CALLDATASIZE ADD SLT PUSH2 0x2BC JUMPI PUSH1 0x5 SLOAD SWAP1 MLOAD PUSH1 0x1 PUSH1 0x1 PUSH1 0xA0 SHL SUB SWAP1 SWAP2 AND DUP2 MSTORE PUSH1 0x20 SWAP1 RETURN JUMPDEST POP POP CALLVALUE PUSH2 0x2BC JUMPI PUSH1 0x20 CALLDATASIZE PUSH1 0x3 NOT ADD SLT PUSH2 0x2BC JUMPI PUSH1 0x20 SWAP2 DUP2 SWAP1 PUSH1 0x1 PUSH1 0x1 PUSH1 0xA0 SHL SUB PUSH2 0x4AB PUSH2 0x95A JUMP JUMPDEST AND DUP2 MSTORE PUSH1 0x6 DUP5 MSTORE KECCAK256 SLOAD SWAP1 MLOAD SWAP1 DUP2 MSTORE RETURN JUMPDEST POP POP CALLVALUE PUSH2 0x2BC JUMPI DUP2 PUSH1 0x3 NOT CALLDATASIZE ADD SLT PUSH2 0x2BC JUMPI PUSH1 0x20 SWAP1 MLOAD PUSH3 0x15180 DUP2 MSTORE RETURN JUMPDEST POP POP CALLVALUE PUSH2 0x2BC JUMPI DUP2 PUSH1 0x3 NOT CALLDATASIZE ADD SLT PUSH2 0x2BC JUMPI PUSH1 0x20 SWAP1 MLOAD PUSH9 0x22B1C8C1227A00000 DUP2 MSTORE RETURN JUMPDEST DUP4 CALLVALUE PUSH2 0x55A JUMPI DUP1 PUSH1 0x3 NOT CALLDATASIZE ADD SLT PUSH2 0x55A JUMPI PUSH2 0x516 PUSH2 0x9D4 JUMP JUMPDEST PUSH1 0x5 DUP1 SLOAD PUSH1 0x1 PUSH1 0x1 PUSH1 0xA0 SHL SUB NOT DUP2 AND SWAP1 SWAP2 SSTORE DUP2 SWAP1 PUSH1 0x1 PUSH1 0x1 PUSH1 0xA0 SHL SUB AND PUSH32 0x8BE0079C531659141344CD1FD0A4F28419497F9722A3DAAFE3B4186F6B6457E0 DUP3 DUP1 LOG3 DUP1 RETURN JUMPDEST DUP1 REVERT JUMPDEST POP POP CALLVALUE PUSH2 0x2BC JUMPI PUSH1 0x20 CALLDATASIZE PUSH1 0x3 NOT ADD SLT PUSH2 0x2BC JUMPI PUSH1 0x20 SWAP2 DUP2 SWAP1 PUSH1 0x1 PUSH1 0x1 PUSH1 0xA0 SHL SUB PUSH2 0x585 PUSH2 0x95A JUMP JUMPDEST AND DUP2 MSTORE DUP1 DUP5 MSTORE KECCAK256 SLOAD SWAP1 MLOAD SWAP1 DUP2 MSTORE RETURN JUMPDEST POP SWAP1 CALLVALUE PUSH2 0x177 JUMPI DUP1 PUSH1 0x3 NOT CALLDATASIZE ADD SLT PUSH2 0x177 JUMPI PUSH2 0x5AE PUSH2 0x95A JUMP JUMPDEST SWAP1 PUSH1 0x24 CALLDATALOAD SWAP2 PUSH2 0x5BB PUSH2 0x9D4 JUMP JUMPDEST PUSH1 0x1 PUSH1 0x1 PUSH1 0xA0 SHL SUB AND SWAP3 DUP4 ISZERO PUSH2 0x62E JUMPI PUSH1 0x2 SLOAD SWAP1 DUP4 DUP3 ADD DUP1 SWAP3 GT PUSH2 0x61B JUMPI POP DUP5 SWAP3 PUSH32 0xDDF252AD1BE2C89B69C2B068FC378DAA952BA7F163C4A11628F55A4DF523B3EF SWAP3 PUSH1 0x20 SWAP3 PUSH1 0x2 SSTORE DUP6 DUP6 MSTORE DUP5 DUP4 MSTORE DUP1 DUP6 KECCAK256 DUP3 DUP2 SLOAD ADD SWAP1 SSTORE MLOAD SWAP1 DUP2 MSTORE LOG3 DUP1 RETURN JUMPDEST PUSH4 0x4E487B71 PUSH1 0xE0 SHL DUP7 MSTORE PUSH1 0x11 SWAP1 MSTORE PUSH1 0x24 DUP6 REVERT JUMPDEST DUP5 PUSH1 0x24 SWAP3 MLOAD SWAP2 PUSH4 0xEC442F05 PUSH1 0xE0 SHL DUP4 MSTORE DUP3 ADD MSTORE REVERT JUMPDEST POP POP CALLVALUE PUSH2 0x2BC JUMPI DUP2 PUSH1 0x3 NOT CALLDATASIZE ADD SLT PUSH2 0x2BC JUMPI PUSH1 0x20 SWAP1 PUSH1 0xFF PUSH1 0x5 SLOAD PUSH1 0xA0 SHR AND SWAP1 MLOAD SWAP1 DUP2 MSTORE RETURN JUMPDEST POP DUP3 CALLVALUE PUSH2 0x55A JUMPI PUSH1 0x60 CALLDATASIZE PUSH1 0x3 NOT ADD SLT PUSH2 0x55A JUMPI PUSH2 0x683 PUSH2 0x95A JUMP JUMPDEST PUSH2 0x68B PUSH2 0x975 JUMP JUMPDEST SWAP2 PUSH1 0x44 CALLDATALOAD SWAP4 PUSH1 0x1 DUP1 PUSH1 0xA0 SHL SUB DUP4 AND DUP1 DUP4 MSTORE PUSH1 0x1 PUSH1 0x20 MSTORE DUP7 DUP4 KECCAK256 CALLER DUP5 MSTORE PUSH1 0x20 MSTORE DUP7 DUP4 KECCAK256 SLOAD SWAP2 PUSH1 0x0 NOT DUP4 LT PUSH2 0x6C7 JUMPI JUMPDEST PUSH1 0x20 DUP9 PUSH2 0x333 DUP10 DUP10 DUP10 PUSH2 0xA00 JUMP JUMPDEST DUP7 DUP4 LT PUSH2 0x72F JUMPI DUP2 ISZERO PUSH2 0x718 JUMPI CALLER ISZERO PUSH2 0x701 JUMPI POP DUP3 MSTORE PUSH1 0x1 PUSH1 0x20 SWAP1 DUP2 MSTORE DUP7 DUP4 KECCAK256 CALLER DUP5 MSTORE DUP2 MSTORE SWAP2 DUP7 SWAP1 KECCAK256 SWAP1 DUP6 SWAP1 SUB SWAP1 SSTORE DUP3 SWAP1 PUSH2 0x333 DUP8 PUSH2 0x6B9 JUMP JUMPDEST DUP8 MLOAD PUSH4 0x4A1406B1 PUSH1 0xE1 SHL DUP2 MSTORE SWAP1 DUP2 ADD DUP5 SWAP1 MSTORE PUSH1 0x24 SWAP1 REVERT JUMPDEST DUP8 MLOAD PUSH4 0xE602DF05 PUSH1 0xE0 SHL DUP2 MSTORE SWAP1 DUP2 ADD DUP5 SWAP1 MSTORE PUSH1 0x24 SWAP1 REVERT JUMPDEST DUP8 MLOAD PUSH4 0x7DC7A0D9 PUSH1 0xE1 SHL DUP2 MSTORE CALLER SWAP2 DUP2 ADD SWAP2 DUP3 MSTORE PUSH1 0x20 DUP3 ADD SWAP4 SWAP1 SWAP4 MSTORE PUSH1 0x40 DUP2 ADD DUP8 SWAP1 MSTORE DUP3 SWAP2 POP PUSH1 0x60 ADD SUB SWAP1 REVERT JUMPDEST POP POP CALLVALUE PUSH2 0x2BC JUMPI DUP2 PUSH1 0x3 NOT CALLDATASIZE ADD SLT PUSH2 0x2BC JUMPI PUSH1 0x20 SWAP1 PUSH1 0x2 SLOAD SWAP1 MLOAD SWAP1 DUP2 MSTORE RETURN JUMPDEST POP CALLVALUE PUSH2 0x177 JUMPI DUP2 PUSH1 0x3 NOT CALLDATASIZE ADD SLT PUSH2 0x177 JUMPI PUSH2 0x793 PUSH2 0x95A JUMP JUMPDEST PUSH1 0x24 CALLDATALOAD SWAP1 CALLER ISZERO PUSH2 0x80C JUMPI PUSH1 0x1 PUSH1 0x1 PUSH1 0xA0 SHL SUB AND SWAP2 DUP3 ISZERO PUSH2 0x7F5 JUMPI POP DUP1 DUP4 PUSH1 0x20 SWAP6 CALLER DUP2 MSTORE PUSH1 0x1 DUP8 MSTORE DUP2 DUP2 KECCAK256 DUP6 DUP3 MSTORE DUP8 MSTORE KECCAK256 SSTORE DUP3 MLOAD SWAP1 DUP2 MSTORE PUSH32 0x8C5BE1E5EBEC7D5BD14F71427D1E84F3DD0314C0F7B2291E5B200AC8C7C3B925 DUP5 CALLER SWAP3 LOG3 MLOAD PUSH1 0x1 DUP2 MSTORE RETURN JUMPDEST DUP4 MLOAD PUSH4 0x4A1406B1 PUSH1 0xE1 SHL DUP2 MSTORE SWAP1 DUP2 ADD DUP6 SWAP1 MSTORE PUSH1 0x24 SWAP1 REVERT JUMPDEST DUP4 MLOAD PUSH4 0xE602DF05 PUSH1 0xE0 SHL DUP2 MSTORE DUP1 DUP5 ADD DUP7 SWAP1 MSTORE PUSH1 0x24 SWAP1 REVERT JUMPDEST POP SWAP2 SWAP1 CALLVALUE PUSH2 0x2BC JUMPI DUP2 PUSH1 0x3 NOT CALLDATASIZE ADD SLT PUSH2 0x2BC JUMPI DUP1 MLOAD SWAP1 DUP3 PUSH1 0x3 SLOAD PUSH1 0x1 DUP2 DUP2 SHR SWAP1 DUP1 DUP4 AND SWAP3 DUP4 ISZERO PUSH2 0x8F4 JUMPI JUMPDEST PUSH1 0x20 SWAP4 DUP5 DUP5 LT DUP2 EQ PUSH2 0x43D JUMPI DUP4 DUP9 MSTORE SWAP1 DUP2 ISZERO PUSH2 0x421 JUMPI POP PUSH1 0x1 EQ PUSH2 0x89E JUMPI POP POP POP DUP3 SWAP1 SUB PUSH1 0x1F ADD PUSH1 0x1F NOT AND DUP3 ADD SWAP3 PUSH8 0xFFFFFFFFFFFFFFFF DUP5 GT DUP4 DUP6 LT OR PUSH2 0x3B9 JUMPI POP DUP3 SWAP2 DUP3 PUSH2 0x3B5 SWAP3 MSTORE DUP3 PUSH2 0x98B JUMP JUMPDEST PUSH1 0x3 DUP8 MSTORE SWAP2 SWAP3 POP DUP6 SWAP2 DUP4 PUSH32 0xC2575A0E9E593C00F959F8C92F12DB2869C3395A3B0502D05E2516446F71F85B JUMPDEST DUP4 DUP6 LT PUSH2 0x8E0 JUMPI POP POP POP POP DUP4 ADD ADD CODESIZE DUP1 DUP1 PUSH2 0x383 JUMP JUMPDEST DUP1 SLOAD DUP9 DUP7 ADD DUP4 ADD MSTORE SWAP4 ADD SWAP3 DUP5 SWAP1 DUP3 ADD PUSH2 0x8CA JUMP JUMPDEST SWAP2 PUSH1 0x7F AND SWAP2 PUSH2 0x84E JUMP JUMPDEST SWAP1 POP DUP4 DUP4 CALLVALUE PUSH2 0x2BC JUMPI PUSH1 0x20 CALLDATASIZE PUSH1 0x3 NOT ADD SLT PUSH2 0x2BC JUMPI PUSH1 0x1 PUSH1 0x1 PUSH1 0xA0 SHL SUB PUSH2 0x923 PUSH2 0x95A JUMP JUMPDEST AND DUP3 MSTORE PUSH1 0x6 PUSH1 0x20 MSTORE DUP2 KECCAK256 SLOAD SWAP1 PUSH3 0x15180 DUP3 ADD DUP1 SWAP3 GT PUSH2 0x947 JUMPI PUSH1 0x20 DUP4 DUP4 TIMESTAMP LT ISZERO DUP2 MSTORE RETURN JUMPDEST PUSH4 0x4E487B71 PUSH1 0xE0 SHL DUP2 MSTORE PUSH1 0x11 DUP5 MSTORE PUSH1 0x24 SWAP1 REVERT JUMPDEST PUSH1 0x4 CALLDATALOAD SWAP1 PUSH1 0x1 PUSH1 0x1 PUSH1 0xA0 SHL SUB DUP3 AND DUP3 SUB PUSH2 0x970 JUMPI JUMP JUMPDEST PUSH1 0x0 DUP1 REVERT JUMPDEST PUSH1 0x24 CALLDATALOAD SWAP1 PUSH1 0x1 PUSH1 0x1 PUSH1 0xA0 SHL SUB DUP3 AND DUP3 SUB PUSH2 0x970 JUMPI JUMP JUMPDEST PUSH1 0x20 DUP1 DUP3 MSTORE DUP3 MLOAD DUP2 DUP4 ADD DUP2 SWAP1 MSTORE SWAP1 SWAP4 SWAP3 PUSH1 0x0 JUMPDEST DUP3 DUP2 LT PUSH2 0x9C0 JUMPI POP POP PUSH1 0x40 SWAP3 SWAP4 POP PUSH1 0x0 DUP4 DUP3 DUP5 ADD ADD MSTORE PUSH1 0x1F DUP1 NOT SWAP2 ADD AND ADD ADD SWAP1 JUMP JUMPDEST DUP2 DUP2 ADD DUP7 ADD MLOAD DUP5 DUP3 ADD PUSH1 0x40 ADD MSTORE DUP6 ADD PUSH2 0x99E JUMP JUMPDEST PUSH1 0x5 SLOAD PUSH1 0x1 PUSH1 0x1 PUSH1 0xA0 SHL SUB AND CALLER SUB PUSH2 0x9E8 JUMPI JUMP JUMPDEST PUSH1 0x40 MLOAD PUSH4 0x118CDAA7 PUSH1 0xE0 SHL DUP2 MSTORE CALLER PUSH1 0x4 DUP3 ADD MSTORE PUSH1 0x24 SWAP1 REVERT JUMPDEST SWAP2 PUSH1 0x1 PUSH1 0x1 PUSH1 0xA0 SHL SUB DUP1 DUP5 AND SWAP3 DUP4 ISZERO PUSH2 0xAC5 JUMPI AND SWAP3 DUP4 ISZERO PUSH2 0xAAC JUMPI PUSH1 0x0 SWAP1 DUP4 DUP3 MSTORE DUP2 PUSH1 0x20 MSTORE PUSH1 0x40 DUP3 KECCAK256 SLOAD SWAP1 DUP4 DUP3 LT PUSH2 0xA7A JUMPI POP SWAP2 PUSH1 0x40 DUP3 DUP3 PUSH32 0xDDF252AD1BE2C89B69C2B068FC378DAA952BA7F163C4A11628F55A4DF523B3EF SWAP6 DUP8 PUSH1 0x20 SWAP7 MSTORE DUP3 DUP7 MSTORE SUB DUP3 DUP3 KECCAK256 SSTORE DUP7 DUP2 MSTORE KECCAK256 DUP2 DUP2 SLOAD ADD SWAP1 SSTORE PUSH1 0x40 MLOAD SWAP1 DUP2 MSTORE LOG3 JUMP JUMPDEST PUSH1 0x40 MLOAD PUSH4 0x391434E3 PUSH1 0xE2 SHL DUP2 MSTORE PUSH1 0x1 PUSH1 0x1 PUSH1 0xA0 SHL SUB SWAP2 SWAP1 SWAP2 AND PUSH1 0x4 DUP3 ADD MSTORE PUSH1 0x24 DUP2 ADD SWAP2 SWAP1 SWAP2 MSTORE PUSH1 0x44 DUP2 ADD DUP4 SWAP1 MSTORE PUSH1 0x64 SWAP1 REVERT JUMPDEST PUSH1 0x40 MLOAD PUSH4 0xEC442F05 PUSH1 0xE0 SHL DUP2 MSTORE PUSH1 0x0 PUSH1 0x4 DUP3 ADD MSTORE PUSH1 0x24 SWAP1 REVERT JUMPDEST PUSH1 0x40 MLOAD PUSH4 0x4B637E8F PUSH1 0xE1 SHL DUP2 MSTORE PUSH1 0x0 PUSH1 0x4 DUP3 ADD MSTORE PUSH1 0x24 SWAP1 REVERT INVALID LOG2 PUSH5 0x6970667358 0x22 SLT KECCAK256 MULMOD 0x24 RETURN RETURNDATACOPY SWAP8 PUSH9 0x82A0EBF3830A57D879 0x4E 0xDA BASEFEE PUSH23 0xDF1E74F5CB0C5B6A046E599CF364736F6C634300081400 CALLER PUSH1 0x80 CALLVALUE PUSH3 0x42D JUMPI PUSH1 0x40 SWAP1 PUSH1 0x1 PUSH1 0x1 PUSH1 0x40 SHL SUB DUP2 DUP4 ADD DUP2 DUP2 GT DUP4 DUP3 LT OR PUSH3 0x32F JUMPI DUP4 MSTORE PUSH1 0x15 DUP3 MSTORE PUSH1 0x20 SWAP1 PUSH32 0x546F6B656E697A6564205265616C204573746174650000000000000000000000 DUP3 DUP5 ADD MSTORE DUP4 MLOAD SWAP3 DUP5 DUP5 ADD DUP5 DUP2 LT DUP4 DUP3 GT OR PUSH3 0x32F JUMPI DUP6 MSTORE PUSH1 0x5 SWAP2 DUP3 DUP6 MSTORE PUSH5 0x1D14915053 PUSH1 0xDA SHL DUP5 DUP7 ADD MSTORE DUP2 MLOAD DUP2 DUP2 GT PUSH3 0x32F JUMPI PUSH1 0x3 SWAP1 DUP2 SLOAD SWAP1 PUSH1 0x1 SWAP5 DUP6 DUP4 DUP2 SHR SWAP4 AND DUP1 ISZERO PUSH3 0x422 JUMPI JUMPDEST DUP9 DUP5 LT EQ PUSH3 0x40C JUMPI DUP2 SWAP1 PUSH1 0x1F SWAP4 DUP5 DUP2 GT PUSH3 0x3B8 JUMPI JUMPDEST POP DUP9 SWAP1 DUP5 DUP4 GT PUSH1 0x1 EQ PUSH3 0x351 JUMPI PUSH1 0x0 SWAP3 PUSH3 0x345 JUMPI JUMPDEST POP POP PUSH1 0x0 NOT DUP3 DUP6 SHL SHR NOT AND SWAP1 DUP6 SHL OR DUP3 SSTORE JUMPDEST DUP7 MLOAD SWAP3 DUP4 GT PUSH3 0x32F JUMPI PUSH1 0x4 SWAP7 DUP8 SLOAD DUP6 DUP2 DUP2 SHR SWAP2 AND DUP1 ISZERO PUSH3 0x324 JUMPI JUMPDEST DUP9 DUP3 LT EQ PUSH3 0x30F JUMPI DUP3 DUP2 GT PUSH3 0x2C6 JUMPI JUMPDEST POP DUP7 SWAP2 DUP5 GT PUSH1 0x1 EQ PUSH3 0x25B JUMPI SWAP4 DUP4 SWAP5 SWAP2 DUP5 SWAP3 PUSH1 0x0 SWAP6 PUSH3 0x24F JUMPI JUMPDEST POP POP SHL SWAP3 PUSH1 0x0 NOT SWAP2 SHL SHR NOT AND OR DUP4 SSTORE JUMPDEST CALLER ISZERO PUSH3 0x238 JUMPI DUP1 SLOAD PUSH1 0xFF SWAP2 SWAP1 CALLER PUSH1 0x1 PUSH1 0x1 PUSH1 0xA0 SHL SUB DUP3 AND PUSH32 0x8BE0079C531659141344CD1FD0A4F28419497F9722A3DAAFE3B4186F6B6457E0 PUSH1 0x0 DUP1 LOG3 PUSH1 0x1 PUSH1 0x1 PUSH1 0xA8 SHL SUB NOT AND CALLER PUSH1 0xA0 DUP5 DUP2 SHL NOT SWAP2 SWAP1 SWAP2 AND SWAP2 SWAP1 SWAP2 OR PUSH1 0x9 PUSH1 0xA1 SHL OR SWAP2 DUP3 SWAP1 SSTORE SHR AND PUSH1 0x4D DUP2 GT PUSH3 0x223 JUMPI PUSH1 0xA EXP SWAP2 PUSH2 0x2710 SWAP3 DUP1 DUP5 MUL SWAP4 DUP5 DIV SUB PUSH3 0x20E JUMPI PUSH1 0x2 SLOAD SWAP1 DUP4 DUP3 ADD DUP1 SWAP3 GT PUSH3 0x20E JUMPI POP PUSH1 0x0 SWAP2 PUSH32 0xDDF252AD1BE2C89B69C2B068FC378DAA952BA7F163C4A11628F55A4DF523B3EF SWAP2 PUSH1 0x2 SSTORE CALLER DUP4 MSTORE DUP3 DUP2 MSTORE DUP5 DUP4 KECCAK256 DUP5 DUP2 SLOAD ADD SWAP1 SSTORE DUP5 MLOAD SWAP4 DUP5 MSTORE CALLER SWAP4 LOG3 MLOAD PUSH2 0xB12 SWAP1 DUP2 PUSH3 0x433 DUP3 CODECOPY RETURN JUMPDEST PUSH1 0x11 SWAP1 PUSH4 0x4E487B71 PUSH1 0xE0 SHL PUSH1 0x0 MSTORE MSTORE PUSH1 0x24 PUSH1 0x0 REVERT JUMPDEST PUSH1 0x11 DUP4 PUSH4 0x4E487B71 PUSH1 0xE0 SHL PUSH1 0x0 MSTORE MSTORE PUSH1 0x24 PUSH1 0x0 REVERT JUMPDEST DUP4 MLOAD PUSH4 0x1E4FBDF7 PUSH1 0xE0 SHL DUP2 MSTORE PUSH1 0x0 DUP2 DUP6 ADD MSTORE PUSH1 0x24 SWAP1 REVERT JUMPDEST ADD MLOAD SWAP4 POP CODESIZE DUP1 PUSH3 0x122 JUMP JUMPDEST SWAP2 SWAP1 PUSH1 0x1F NOT DUP5 AND SWAP3 DUP9 PUSH1 0x0 MSTORE DUP5 DUP9 PUSH1 0x0 KECCAK256 SWAP5 PUSH1 0x0 JUMPDEST DUP11 DUP10 DUP4 DUP4 LT PUSH3 0x2AE JUMPI POP POP POP LT PUSH3 0x293 JUMPI JUMPDEST POP POP POP POP DUP2 SHL ADD DUP4 SSTORE PUSH3 0x132 JUMP JUMPDEST ADD MLOAD SWAP1 PUSH1 0xF8 DUP5 PUSH1 0x0 NOT SWAP3 SHL AND SHR NOT AND SWAP1 SSTORE CODESIZE DUP1 DUP1 DUP1 PUSH3 0x284 JUMP JUMPDEST DUP7 DUP7 ADD MLOAD DUP10 SSTORE SWAP1 SWAP8 ADD SWAP7 SWAP5 DUP6 ADD SWAP5 DUP9 SWAP4 POP ADD PUSH3 0x270 JUMP JUMPDEST DUP9 PUSH1 0x0 MSTORE DUP8 PUSH1 0x0 KECCAK256 DUP4 DUP1 DUP8 ADD DUP10 SHR DUP3 ADD SWAP3 DUP11 DUP9 LT PUSH3 0x305 JUMPI JUMPDEST ADD DUP9 SHR ADD SWAP1 DUP7 SWAP1 JUMPDEST DUP3 DUP2 LT PUSH3 0x2F8 JUMPI POP POP PUSH3 0x106 JUMP JUMPDEST PUSH1 0x0 DUP2 SSTORE ADD DUP7 SWAP1 PUSH3 0x2E8 JUMP JUMPDEST SWAP3 POP DUP2 SWAP3 PUSH3 0x2E0 JUMP JUMPDEST PUSH1 0x22 DUP10 PUSH4 0x4E487B71 PUSH1 0xE0 SHL PUSH1 0x0 MSTORE MSTORE PUSH1 0x24 PUSH1 0x0 REVERT JUMPDEST SWAP1 PUSH1 0x7F AND SWAP1 PUSH3 0xF4 JUMP JUMPDEST PUSH4 0x4E487B71 PUSH1 0xE0 SHL PUSH1 0x0 MSTORE PUSH1 0x41 PUSH1 0x4 MSTORE PUSH1 0x24 PUSH1 0x0 REVERT JUMPDEST ADD MLOAD SWAP1 POP CODESIZE DUP1 PUSH3 0xC5 JUMP JUMPDEST SWAP1 DUP8 SWAP4 POP PUSH1 0x1F NOT DUP4 AND SWAP2 DUP7 PUSH1 0x0 MSTORE DUP11 PUSH1 0x0 KECCAK256 SWAP3 PUSH1 0x0 JUMPDEST DUP13 DUP3 DUP3 LT PUSH3 0x3A1 JUMPI POP POP DUP5 GT PUSH3 0x388 JUMPI JUMPDEST POP POP POP DUP2 SHL ADD DUP3 SSTORE PUSH3 0xD7 JUMP JUMPDEST ADD MLOAD PUSH1 0x0 NOT DUP4 DUP8 SHL PUSH1 0xF8 AND SHR NOT AND SWAP1 SSTORE CODESIZE DUP1 DUP1 PUSH3 0x37A JUMP JUMPDEST DUP4 DUP6 ADD MLOAD DUP7 SSTORE DUP12 SWAP8 SWAP1 SWAP6 ADD SWAP5 SWAP4 DUP5 ADD SWAP4 ADD PUSH3 0x367 JUMP JUMPDEST SWAP1 SWAP2 POP DUP5 PUSH1 0x0 MSTORE DUP9 PUSH1 0x0 KECCAK256 DUP5 DUP1 DUP6 ADD DUP11 SHR DUP3 ADD SWAP3 DUP12 DUP7 LT PUSH3 0x402 JUMPI JUMPDEST SWAP2 DUP10 SWAP2 DUP7 SWAP6 SWAP5 SWAP4 ADD DUP12 SHR ADD SWAP2 JUMPDEST DUP3 DUP2 LT PUSH3 0x3F2 JUMPI POP POP PUSH3 0xAE JUMP JUMPDEST PUSH1 0x0 DUP2 SSTORE DUP6 SWAP5 POP DUP10 SWAP2 ADD PUSH3 0x3E2 JUMP JUMPDEST SWAP3 POP DUP2 SWAP3 PUSH3 0x3D5 JUMP JUMPDEST PUSH4 0x4E487B71 PUSH1 0xE0 SHL PUSH1 0x0 MSTORE PUSH1 0x22 PUSH1 0x4 MSTORE PUSH1 0x24 PUSH1 0x0 REVERT JUMPDEST SWAP3 PUSH1 0x7F AND SWAP3 PUSH3 0x97 JUMP JUMPDEST PUSH1 0x0 DUP1 REVERT INVALID PUSH1 0x80 PUSH1 0x40 DUP2 DUP2 MSTORE PUSH1 0x4 DUP1 CALLDATASIZE LT ISZERO PUSH2 0x15 JUMPI PUSH1 0x0 DUP1 REVERT JUMPDEST PUSH1 0x0 SWAP3 DUP4 CALLDATALOAD PUSH1 0xE0 SHR SWAP1 DUP2 PUSH4 0x1D8A296 EQ PUSH2 0x8FC JUMPI POP DUP1 PUSH4 0x6FDDE03 EQ PUSH2 0x821 JUMPI DUP1 PUSH4 0x95EA7B3 EQ PUSH2 0x778 JUMPI DUP1 PUSH4 0x18160DDD EQ PUSH2 0x759 JUMPI DUP1 PUSH4 0x23B872DD EQ PUSH2 0x666 JUMPI DUP1 PUSH4 0x313CE567 EQ PUSH2 0x641 JUMPI DUP1 PUSH4 0x40C10F19 EQ PUSH2 0x592 JUMPI DUP1 PUSH4 0x70A08231 EQ PUSH2 0x55B JUMPI DUP1 PUSH4 0x715018A6 EQ PUSH2 0x4FB JUMPI DUP1 PUSH4 0x76697640 EQ PUSH2 0x4D8 JUMPI DUP1 PUSH4 0x7D1D5D19 EQ PUSH2 0x4BA JUMPI DUP1 PUSH4 0x8A877205 EQ PUSH2 0x482 JUMPI DUP1 PUSH4 0x8DA5CB5B EQ PUSH2 0x459 JUMPI DUP1 PUSH4 0x95D89B41 EQ PUSH2 0x339 JUMPI DUP1 PUSH4 0xA9059CBB EQ PUSH2 0x308 JUMPI DUP1 PUSH4 0xDD62ED3E EQ PUSH2 0x2BF JUMPI DUP1 PUSH4 0xDE5F72FD EQ PUSH2 0x17B JUMPI PUSH4 0xF2FDE38B EQ PUSH2 0xE9 JUMPI PUSH1 0x0 DUP1 REVERT JUMPDEST CALLVALUE PUSH2 0x177 JUMPI PUSH1 0x20 CALLDATASIZE PUSH1 0x3 NOT ADD SLT PUSH2 0x177 JUMPI PUSH2 0x102 PUSH2 0x958 JUMP JUMPDEST SWAP1 PUSH2 0x10B PUSH2 0x9D2 JUMP JUMPDEST PUSH1 0x1 PUSH1 0x1 PUSH1 0xA0 SHL SUB SWAP2 DUP3 AND SWAP3 DUP4 ISZERO PUSH2 0x161 JUMPI POP POP PUSH1 0x5 SLOAD DUP3 PUSH12 0xFFFFFFFFFFFFFFFFFFFFFFFF PUSH1 0xA0 SHL DUP3 AND OR PUSH1 0x5 SSTORE AND PUSH32 0x8BE0079C531659141344CD1FD0A4F28419497F9722A3DAAFE3B4186F6B6457E0 DUP4 DUP1 LOG3 DUP1 RETURN JUMPDEST MLOAD PUSH4 0x1E4FBDF7 PUSH1 0xE0 SHL DUP2 MSTORE SWAP1 DUP2 ADD DUP5 SWAP1 MSTORE PUSH1 0x24 SWAP1 REVERT JUMPDEST DUP3 DUP1 REVERT JUMPDEST POP SWAP2 SWAP1 CALLVALUE PUSH2 0x2BB JUMPI DUP2 PUSH1 0x3 NOT CALLDATASIZE ADD SLT PUSH2 0x2BB JUMPI CALLER DUP3 MSTORE PUSH1 0x20 PUSH1 0x6 DUP2 MSTORE DUP2 DUP4 KECCAK256 SLOAD PUSH3 0x15180 DUP2 ADD DUP1 SWAP2 GT PUSH2 0x2A8 JUMPI TIMESTAMP LT PUSH2 0x26D JUMPI CALLER DUP4 MSTORE PUSH1 0x6 DUP2 MSTORE TIMESTAMP DUP3 DUP5 KECCAK256 SSTORE CALLER ISZERO PUSH2 0x256 JUMPI PUSH1 0x2 SLOAD SWAP2 PUSH8 0x8AC7230489E80000 SWAP3 DUP4 DUP2 ADD DUP1 SWAP2 GT PUSH2 0x243 JUMPI SWAP1 PUSH32 0x5D4F415C63CD8A5874D9D291CDD64CEC37E5DC236D90D659C958D109D78074B3 SWAP3 SWAP2 PUSH1 0x2 SSTORE CALLER DUP6 MSTORE DUP5 DUP3 MSTORE DUP1 DUP6 KECCAK256 DUP5 DUP2 SLOAD ADD SWAP1 SSTORE DUP1 MLOAD DUP5 DUP2 MSTORE DUP6 PUSH32 0xDDF252AD1BE2C89B69C2B068FC378DAA952BA7F163C4A11628F55A4DF523B3EF DUP5 CALLER SWAP4 LOG3 MLOAD SWAP3 DUP4 MSTORE CALLER SWAP3 LOG2 DUP1 RETURN JUMPDEST PUSH4 0x4E487B71 PUSH1 0xE0 SHL DUP6 MSTORE PUSH1 0x11 DUP7 MSTORE PUSH1 0x24 DUP6 REVERT JUMPDEST DUP2 MLOAD PUSH4 0xEC442F05 PUSH1 0xE0 SHL DUP2 MSTORE DUP1 DUP6 ADD DUP5 SWAP1 MSTORE PUSH1 0x24 SWAP1 REVERT JUMPDEST DUP4 SWAP1 PUSH1 0x64 SWAP3 MLOAD SWAP2 PUSH3 0x461BCD PUSH1 0xE5 SHL DUP4 MSTORE DUP3 ADD MSTORE PUSH1 0x16 PUSH1 0x24 DUP3 ADD MSTORE PUSH22 0x46617563657420636F6F6C646F776E20616374697665 PUSH1 0x50 SHL PUSH1 0x44 DUP3 ADD MSTORE REVERT JUMPDEST PUSH4 0x4E487B71 PUSH1 0xE0 SHL DUP5 MSTORE PUSH1 0x11 DUP6 MSTORE PUSH1 0x24 DUP5 REVERT JUMPDEST POP DUP1 REVERT JUMPDEST POP POP CALLVALUE PUSH2 0x2BB JUMPI DUP1 PUSH1 0x3 NOT CALLDATASIZE ADD SLT PUSH2 0x2BB JUMPI DUP1 PUSH1 0x20 SWAP3 PUSH2 0x2DD PUSH2 0x958 JUMP JUMPDEST PUSH2 0x2E5 PUSH2 0x973 JUMP JUMPDEST PUSH1 0x1 PUSH1 0x1 PUSH1 0xA0 SHL SUB SWAP2 DUP3 AND DUP4 MSTORE PUSH1 0x1 DUP7 MSTORE DUP4 DUP4 KECCAK256 SWAP2 AND DUP3 MSTORE DUP5 MSTORE KECCAK256 SLOAD SWAP1 MLOAD SWAP1 DUP2 MSTORE RETURN JUMPDEST POP POP CALLVALUE PUSH2 0x2BB JUMPI DUP1 PUSH1 0x3 NOT CALLDATASIZE ADD SLT PUSH2 0x2BB JUMPI PUSH1 0x20 SWAP1 PUSH2 0x332 PUSH2 0x328 PUSH2 0x958 JUMP JUMPDEST PUSH1 0x24 CALLDATALOAD SWAP1 CALLER PUSH2 0x9FE JUMP JUMPDEST MLOAD PUSH1 0x1 DUP2 MSTORE RETURN JUMPDEST POP SWAP2 SWAP1 CALLVALUE PUSH2 0x2BB JUMPI DUP2 PUSH1 0x3 NOT CALLDATASIZE ADD SLT PUSH2 0x2BB JUMPI DUP1 MLOAD SWAP1 DUP3 DUP5 SLOAD PUSH1 0x1 DUP2 DUP2 SHR SWAP1 DUP1 DUP4 AND SWAP3 DUP4 ISZERO PUSH2 0x44F JUMPI JUMPDEST PUSH1 0x20 SWAP4 DUP5 DUP5 LT DUP2 EQ PUSH2 0x43C JUMPI DUP4 DUP9 MSTORE SWAP1 DUP2 ISZERO PUSH2 0x420 JUMPI POP PUSH1 0x1 EQ PUSH2 0x3CB JUMPI JUMPDEST POP POP POP DUP3 SWAP1 SUB PUSH1 0x1F ADD PUSH1 0x1F NOT AND DUP3 ADD SWAP3 PUSH8 0xFFFFFFFFFFFFFFFF DUP5 GT DUP4 DUP6 LT OR PUSH2 0x3B8 JUMPI POP DUP3 SWAP2 DUP3 PUSH2 0x3B4 SWAP3 MSTORE DUP3 PUSH2 0x989 JUMP JUMPDEST SUB SWAP1 RETURN JUMPDEST PUSH4 0x4E487B71 PUSH1 0xE0 SHL DUP2 MSTORE PUSH1 0x41 DUP6 MSTORE PUSH1 0x24 SWAP1 REVERT JUMPDEST DUP8 DUP8 MSTORE SWAP2 SWAP3 POP DUP6 SWAP2 DUP4 PUSH32 0x8A35ACFBC15FF81A39AE7D344FD709F28E8600B4AA8C65C6B64BFE7FE36BD19B JUMPDEST DUP4 DUP6 LT PUSH2 0x40C JUMPI POP POP POP POP DUP4 ADD ADD CODESIZE DUP1 DUP1 PUSH2 0x382 JUMP JUMPDEST DUP1 SLOAD DUP9 DUP7 ADD DUP4 ADD MSTORE SWAP4 ADD SWAP3 DUP5 SWAP1 DUP3 ADD PUSH2 0x3F6 JUMP JUMPDEST PUSH1 0xFF NOT AND DUP8 DUP6 ADD MSTORE POP POP ISZERO ISZERO PUSH1 0x5 SHL DUP5 ADD ADD SWAP1 POP CODESIZE DUP1 DUP1 PUSH2 0x382 JUMP JUMPDEST PUSH4 0x4E487B71 PUSH1 0xE0 SHL DUP10 MSTORE PUSH1 0x22 DUP11 MSTORE PUSH1 0x24 DUP10 REVERT JUMPDEST SWAP2 PUSH1 0x7F AND SWAP2 PUSH2 0x363 JUMP JUMPDEST POP POP CALLVALUE PUSH2 0x2BB JUMPI DUP2 PUSH1 0x3 NOT CALLDATASIZE ADD SLT PUSH2 0x2BB JUMPI PUSH1 0x5 SLOAD SWAP1 MLOAD PUSH1 0x1 PUSH1 0x1 PUSH1 0xA0 SHL SUB SWAP1 SWAP2 AND DUP2 MSTORE PUSH1 0x20 SWAP1 RETURN JUMPDEST POP POP CALLVALUE PUSH2 0x2BB JUMPI PUSH1 0x20 CALLDATASIZE PUSH1 0x3 NOT ADD SLT PUSH2 0x2BB JUMPI PUSH1 0x20 SWAP2 DUP2 SWAP1 PUSH1 0x1 PUSH1 0x1 PUSH1 0xA0 SHL SUB PUSH2 0x4AA PUSH2 0x958 JUMP JUMPDEST AND DUP2 MSTORE PUSH1 0x6 DUP5 MSTORE KECCAK256 SLOAD SWAP1 MLOAD SWAP1 DUP2 MSTORE RETURN JUMPDEST POP POP CALLVALUE PUSH2 0x2BB JUMPI DUP2 PUSH1 0x3 NOT CALLDATASIZE ADD SLT PUSH2 0x2BB JUMPI PUSH1 0x20 SWAP1 MLOAD PUSH3 0x15180 DUP2 MSTORE RETURN JUMPDEST POP POP CALLVALUE PUSH2 0x2BB JUMPI DUP2 PUSH1 0x3 NOT CALLDATASIZE ADD SLT PUSH2 0x2BB JUMPI PUSH1 0x20 SWAP1 MLOAD PUSH8 0x8AC7230489E80000 DUP2 MSTORE RETURN JUMPDEST DUP4 CALLVALUE PUSH2 0x558 JUMPI DUP1 PUSH1 0x3 NOT CALLDATASIZE ADD SLT PUSH2 0x558 JUMPI PUSH2 0x514 PUSH2 0x9D2 JUMP JUMPDEST PUSH1 0x5 DUP1 SLOAD PUSH1 0x1 PUSH1 0x1 PUSH1 0xA0 SHL SUB NOT DUP2 AND SWAP1 SWAP2 SSTORE DUP2 SWAP1 PUSH1 0x1 PUSH1 0x1 PUSH1 0xA0 SHL SUB AND PUSH32 0x8BE0079C531659141344CD1FD0A4F28419497F9722A3DAAFE3B4186F6B6457E0 DUP3 DUP1 LOG3 DUP1 RETURN JUMPDEST DUP1 REVERT JUMPDEST POP POP CALLVALUE PUSH2 0x2BB JUMPI PUSH1 0x20 CALLDATASIZE PUSH1 0x3 NOT ADD SLT PUSH2 0x2BB JUMPI PUSH1 0x20 SWAP2 DUP2 SWAP1 PUSH1 0x1 PUSH1 0x1 PUSH1 0xA0 SHL SUB PUSH2 0x583 PUSH2 0x958 JUMP JUMPDEST AND DUP2 MSTORE DUP1 DUP5 MSTORE KECCAK256 SLOAD SWAP1 MLOAD SWAP1 DUP2 MSTORE RETURN JUMPDEST POP SWAP1 CALLVALUE PUSH2 0x177 JUMPI DUP1 PUSH1 0x3 NOT CALLDATASIZE ADD SLT PUSH2 0x177 JUMPI PUSH2 0x5AC PUSH2 0x958 JUMP JUMPDEST SWAP1 PUSH1 0x24 CALLDATALOAD SWAP2 PUSH2 0x5B9 PUSH2 0x9D2 JUMP JUMPDEST PUSH1 0x1 PUSH1 0x1 PUSH1 0xA0 SHL SUB AND SWAP3 DUP4 ISZERO PUSH2 0x62C JUMPI PUSH1 0x2 SLOAD SWAP1 DUP4 DUP3 ADD DUP1 SWAP3 GT PUSH2 0x619 JUMPI POP DUP5 SWAP3 PUSH32 0xDDF252AD1BE2C89B69C2B068FC378DAA952BA7F163C4A11628F55A4DF523B3EF SWAP3 PUSH1 0x20 SWAP3 PUSH1 0x2 SSTORE DUP6 DUP6 MSTORE DUP5 DUP4 MSTORE DUP1 DUP6 KECCAK256 DUP3 DUP2 SLOAD ADD SWAP1 SSTORE MLOAD SWAP1 DUP2 MSTORE LOG3 DUP1 RETURN JUMPDEST PUSH4 0x4E487B71 PUSH1 0xE0 SHL DUP7 MSTORE PUSH1 0x11 SWAP1 MSTORE PUSH1 0x24 DUP6 REVERT JUMPDEST DUP5 PUSH1 0x24 SWAP3 MLOAD SWAP2 PUSH4 0xEC442F05 PUSH1 0xE0 SHL DUP4 MSTORE DUP3 ADD MSTORE REVERT JUMPDEST POP POP CALLVALUE PUSH2 0x2BB JUMPI DUP2 PUSH1 0x3 NOT CALLDATASIZE ADD SLT PUSH2 0x2BB JUMPI PUSH1 0x20 SWAP1 PUSH1 0xFF PUSH1 0x5 SLOAD PUSH1 0xA0 SHR AND SWAP1 MLOAD SWAP1 DUP2 MSTORE RETURN JUMPDEST POP DUP3 CALLVALUE PUSH2 0x558 JUMPI PUSH1 0x60 CALLDATASIZE PUSH1 0x3 NOT ADD SLT PUSH2 0x558 JUMPI PUSH2 0x681 PUSH2 0x958 JUMP JUMPDEST PUSH2 0x689 PUSH2 0x973 JUMP JUMPDEST SWAP2 PUSH1 0x44 CALLDATALOAD SWAP4 PUSH1 0x1 DUP1 PUSH1 0xA0 SHL SUB DUP4 AND DUP1 DUP4 MSTORE PUSH1 0x1 PUSH1 0x20 MSTORE DUP7 DUP4 KECCAK256 CALLER DUP5 MSTORE PUSH1 0x20 MSTORE DUP7 DUP4 KECCAK256 SLOAD SWAP2 PUSH1 0x0 NOT DUP4 LT PUSH2 0x6C5 JUMPI JUMPDEST PUSH1 0x20 DUP9 PUSH2 0x332 DUP10 DUP10 DUP10 PUSH2 0x9FE JUMP JUMPDEST DUP7 DUP4 LT PUSH2 0x72D JUMPI DUP2 ISZERO PUSH2 0x716 JUMPI CALLER ISZERO PUSH2 0x6FF JUMPI POP DUP3 MSTORE PUSH1 0x1 PUSH1 0x20 SWAP1 DUP2 MSTORE DUP7 DUP4 KECCAK256 CALLER DUP5 MSTORE DUP2 MSTORE SWAP2 DUP7 SWAP1 KECCAK256 SWAP1 DUP6 SWAP1 SUB SWAP1 SSTORE DUP3 SWAP1 PUSH2 0x332 DUP8 PUSH2 0x6B7 JUMP JUMPDEST DUP8 MLOAD PUSH4 0x4A1406B1 PUSH1 0xE1 SHL DUP2 MSTORE SWAP1 DUP2 ADD DUP5 SWAP1 MSTORE PUSH1 0x24 SWAP1 REVERT JUMPDEST DUP8 MLOAD PUSH4 0xE602DF05 PUSH1 0xE0 SHL DUP2 MSTORE SWAP1 DUP2 ADD DUP5 SWAP1 MSTORE PUSH1 0x24 SWAP1 REVERT JUMPDEST DUP8 MLOAD PUSH4 0x7DC7A0D9 PUSH1 0xE1 SHL DUP2 MSTORE CALLER SWAP2 DUP2 ADD SWAP2 DUP3 MSTORE PUSH1 0x20 DUP3 ADD SWAP4 SWAP1 SWAP4 MSTORE PUSH1 0x40 DUP2 ADD DUP8 SWAP1 MSTORE DUP3 SWAP2 POP PUSH1 0x60 ADD SUB SWAP1 REVERT JUMPDEST POP POP CALLVALUE PUSH2 0x2BB JUMPI DUP2 PUSH1 0x3 NOT CALLDATASIZE ADD SLT PUSH2 0x2BB JUMPI PUSH1 0x20 SWAP1 PUSH1 0x2 SLOAD SWAP1 MLOAD SWAP1 DUP2 MSTORE RETURN JUMPDEST POP CALLVALUE PUSH2 0x177 JUMPI DUP2 PUSH1 0x3 NOT CALLDATASIZE ADD SLT PUSH2 0x177 JUMPI PUSH2 0x791 PUSH2 0x958 JUMP JUMPDEST PUSH1 0x24 CALLDATALOAD SWAP1 CALLER ISZERO PUSH2 0x80A JUMPI PUSH1 0x1 PUSH1 0x1 PUSH1 0xA0 SHL SUB AND SWAP2 DUP3 ISZERO PUSH2 0x7F3 JUMPI POP DUP1 DUP4 PUSH1 0x20 SWAP6 CALLER DUP2 MSTORE PUSH1 0x1 DUP8 MSTORE DUP2 DUP2 KECCAK256 DUP6 DUP3 MSTORE DUP8 MSTORE KECCAK256 SSTORE DUP3 MLOAD SWAP1 DUP2 MSTORE PUSH32 0x8C5BE1E5EBEC7D5BD14F71427D1E84F3DD0314C0F7B2291E5B200AC8C7C3B925 DUP5 CALLER SWAP3 LOG3 MLOAD PUSH1 0x1 DUP2 MSTORE RETURN JUMPDEST DUP4 MLOAD PUSH4 0x4A1406B1 PUSH1 0xE1 SHL DUP2 MSTORE SWAP1 DUP2 ADD DUP6 SWAP1 MSTORE PUSH1 0x24 SWAP1 REVERT JUMPDEST DUP4 MLOAD PUSH4 0xE602DF05 PUSH1 0xE0 SHL DUP2 MSTORE DUP1 DUP5 ADD DUP7 SWAP1 MSTORE PUSH1 0x24 SWAP1 REVERT JUMPDEST POP SWAP2 SWAP1 CALLVALUE PUSH2 0x2BB JUMPI DUP2 PUSH1 0x3 NOT CALLDATASIZE ADD SLT PUSH2 0x2BB JUMPI DUP1 MLOAD SWAP1 DUP3 PUSH1 0x3 SLOAD PUSH1 0x1 DUP2 DUP2 SHR SWAP1 DUP1 DUP4 AND SWAP3 DUP4 ISZERO PUSH2 0x8F2 JUMPI JUMPDEST PUSH1 0x20 SWAP4 DUP5 DUP5 LT DUP2 EQ PUSH2 0x43C JUMPI DUP4 DUP9 MSTORE SWAP1 DUP2 ISZERO PUSH2 0x420 JUMPI POP PUSH1 0x1 EQ PUSH2 0x89C JUMPI POP POP POP DUP3 SWAP1 SUB PUSH1 0x1F ADD PUSH1 0x1F NOT AND DUP3 ADD SWAP3 PUSH8 0xFFFFFFFFFFFFFFFF DUP5 GT DUP4 DUP6 LT OR PUSH2 0x3B8 JUMPI POP DUP3 SWAP2 DUP3 PUSH2 0x3B4 SWAP3 MSTORE DUP3 PUSH2 0x989 JUMP JUMPDEST PUSH1 0x3 DUP8 MSTORE SWAP2 SWAP3 POP DUP6 SWAP2 DUP4 PUSH32 0xC2575A0E9E593C00F959F8C92F12DB2869C3395A3B0502D05E2516446F71F85B JUMPDEST DUP4 DUP6 LT PUSH2 0x8DE JUMPI POP POP POP POP DUP4 ADD ADD CODESIZE DUP1 DUP1 PUSH2 0x382 JUMP JUMPDEST DUP1 SLOAD DUP9 DUP7 ADD DUP4 ADD MSTORE SWAP4 ADD SWAP3 DUP5 SWAP1 DUP3 ADD PUSH2 0x8C8 JUMP JUMPDEST SWAP2 PUSH1 0x7F AND SWAP2 PUSH2 0x84C JUMP JUMPDEST SWAP1 POP DUP4 DUP4 CALLVALUE PUSH2 0x2BB JUMPI PUSH1 0x20 CALLDATASIZE PUSH1 0x3 NOT ADD SLT PUSH2 0x2BB JUMPI PUSH1 0x1 PUSH1 0x1 PUSH1 0xA0 SHL SUB PUSH2 0x921 PUSH2 0x958 JUMP JUMPDEST AND DUP3 MSTORE PUSH1 0x6 PUSH1 0x20 MSTORE DUP2 KECCAK256 SLOAD SWAP1 PUSH3 0x15180 DUP3 ADD DUP1 SWAP3 GT PUSH2 0x945 JUMPI PUSH1 0x20 DUP4 DUP4 TIMESTAMP LT ISZERO DUP2 MSTORE RETURN JUMPDEST PUSH4 0x4E487B71 PUSH1 0xE0 SHL DUP2 MSTORE PUSH1 0x11 DUP5 MSTORE PUSH1 0x24 SWAP1 REVERT JUMPDEST PUSH1 0x4 CALLDATALOAD SWAP1 PUSH1 0x1 PUSH1 0x1 PUSH1 0xA0 SHL SUB DUP3 AND DUP3 SUB PUSH2 0x96E JUMPI JUMP JUMPDEST PUSH1 0x0 DUP1 REVERT JUMPDEST PUSH1 0x24 CALLDATALOAD SWAP1 PUSH1 0x1 PUSH1 0x1 PUSH1 0xA0 SHL SUB DUP3 AND DUP3 SUB PUSH2 0x96E JUMPI JUMP JUMPDEST PUSH1 0x20 DUP1 DUP3 MSTORE DUP3 MLOAD DUP2 DUP4 ADD DUP2 SWAP1 MSTORE SWAP1 SWAP4 SWAP3 PUSH1 0x0 JUMPDEST DUP3 DUP2 LT PUSH2 0x9BE JUMPI POP POP PUSH1 0x40 SWAP3 SWAP4 POP PUSH1 0x0 DUP4 DUP3 DUP5 ADD ADD MSTORE PUSH1 0x1F DUP1 NOT SWAP2 ADD AND ADD ADD SWAP1 JUMP JUMPDEST DUP2 DUP2 ADD DUP7 ADD MLOAD DUP5 DUP3 ADD PUSH1 0x40 ADD MSTORE DUP6 ADD PUSH2 0x99C JUMP JUMPDEST PUSH1 0x5 SLOAD PUSH1 0x1 PUSH1 0x1 PUSH1 0xA0 SHL SUB AND CALLER SUB PUSH2 0x9E6 JUMPI JUMP JUMPDEST PUSH1 0x40 MLOAD PUSH4 0x118CDAA7 PUSH1 0xE0 SHL DUP2 MSTORE CALLER PUSH1 0x4 DUP3 ADD MSTORE PUSH1 0x24 SWAP1 REVERT JUMPDEST SWAP2 PUSH1 0x1 PUSH1 0x1 PUSH1 0xA0 SHL SUB DUP1 DUP5 AND SWAP3 DUP4 ISZERO PUSH2 0xAC3 JUMPI AND SWAP3 DUP4 ISZERO PUSH2 0xAAA JUMPI PUSH1 0x0 SWAP1 DUP4 DUP3 MSTORE DUP2 PUSH1 0x20 MSTORE PUSH1 0x40 DUP3 KECCAK256 SLOAD SWAP1 DUP4 DUP3 LT PUSH2 0xA78 JUMPI POP SWAP2 PUSH1 0x40 DUP3 DUP3 PUSH32 0xDDF252AD1BE2C89B69C2B068FC378DAA952BA7F163C4A11628F55A4DF523B3EF SWAP6 DUP8 PUSH1 0x20 SWAP7 MSTORE DUP3 DUP7 MSTORE SUB DUP3 DUP3 KECCAK256 SSTORE DUP7 DUP2 MSTORE KECCAK256 DUP2 DUP2 SLOAD ADD SWAP1 SSTORE PUSH1 0x40 MLOAD SWAP1 DUP2 MSTORE LOG3 JUMP JUMPDEST PUSH1 0x40 MLOAD PUSH4 0x391434E3 PUSH1 0xE2 SHL DUP2 MSTORE PUSH1 0x1 PUSH1 0x1 PUSH1 0xA0 SHL SUB SWAP2 SWAP1 SWAP2 AND PUSH1 0x4 DUP3 ADD MSTORE PUSH1 0x24 DUP2 ADD SWAP2 SWAP1 SWAP2 MSTORE PUSH1 0x44 DUP2 ADD DUP4 SWAP1 MSTORE PUSH1 0x64 SWAP1 REVERT JUMPDEST PUSH1 0x40 MLOAD PUSH4 0xEC442F05 PUSH1 0xE0 SHL DUP2 MSTORE PUSH1 0x0 PUSH1 0x4 DUP3 ADD MSTORE PUSH1 0x24 SWAP1 REVERT JUMPDEST PUSH1 0x40 MLOAD PUSH4 0x4B637E8F PUSH1 0xE1 SHL DUP2 MSTORE PUSH1 0x0 PUSH1 0x4 DUP3 ADD MSTORE PUSH1 0x24 SWAP1 REVERT INVALID LOG2 PUSH5 0x6970667358 0x22 SLT KECCAK256 0x1E LOG4 0xEB 0xFB LOG2 AND DUP7 CALL 0xA9 REVERT PUSH7 0x23DF2A4195110A SMOD PUSH17 0x13FC82AA99072D707F6AAAC264736F6C63 NUMBER STOP ADDMOD EQ STOP CALLER PUSH1 0x80 CALLVALUE PUSH2 0xD2 JUMPI PUSH1 0x1F PUSH2 0xAD1 CODESIZE DUP2 SWAP1 SUB SWAP2 DUP3 ADD PUSH1 0x1F NOT AND DUP4 ADD SWAP2 PUSH1 0x1 PUSH1 0x1 PUSH1 0x40 SHL SUB DUP4 GT DUP5 DUP5 LT OR PUSH2 0xD7 JUMPI DUP1 DUP5 SWAP3 PUSH1 0xA0 SWAP5 PUSH1 0x40 MSTORE DUP4 CODECOPY DUP2 ADD SUB SLT PUSH2 0xD2 JUMPI PUSH2 0x47 DUP2 PUSH2 0xED JUMP JUMPDEST SWAP1 PUSH2 0x54 PUSH1 0x20 DUP3 ADD PUSH2 0xED JUMP JUMPDEST SWAP1 PUSH2 0x61 PUSH1 0x40 DUP3 ADD PUSH2 0xED JUMP JUMPDEST SWAP2 PUSH2 0x7A PUSH1 0x80 PUSH2 0x73 PUSH1 0x60 DUP6 ADD PUSH2 0xED JUMP JUMPDEST SWAP4 ADD PUSH2 0xED JUMP JUMPDEST SWAP2 PUSH1 0x1 DUP1 PUSH1 0xA0 SHL SUB DUP1 SWAP5 DUP2 DUP1 SWAP5 DUP2 PUSH1 0x1 DUP1 PUSH1 0xA0 SHL SUB NOT SWAP10 AND DUP10 PUSH1 0x0 SLOAD AND OR PUSH1 0x0 SSTORE AND DUP8 PUSH1 0x1 SLOAD AND OR PUSH1 0x1 SSTORE AND DUP6 PUSH1 0x2 SLOAD AND OR PUSH1 0x2 SSTORE AND DUP4 PUSH1 0x3 SLOAD AND OR PUSH1 0x3 SSTORE AND SWAP1 PUSH1 0x4 SLOAD AND OR PUSH1 0x4 SSTORE PUSH1 0x40 MLOAD PUSH2 0x9CF SWAP1 DUP2 PUSH2 0x102 DUP3 CODECOPY RETURN JUMPDEST PUSH1 0x0 DUP1 REVERT JUMPDEST PUSH4 0x4E487B71 PUSH1 0xE0 SHL PUSH1 0x0 MSTORE PUSH1 0x41 PUSH1 0x4 MSTORE PUSH1 0x24 PUSH1 0x0 REVERT JUMPDEST MLOAD SWAP1 PUSH1 0x1 PUSH1 0x1 PUSH1 0xA0 SHL SUB DUP3 AND DUP3 SUB PUSH2 0xD2 JUMPI JUMP INVALID PUSH1 0x80 PUSH1 0x40 DUP2 DUP2 MSTORE PUSH1 0x4 SWAP2 DUP3 CALLDATASIZE LT ISZERO PUSH2 0x16 JUMPI PUSH1 0x0 DUP1 REVERT JUMPDEST PUSH1 0x0 SWAP3 DUP4 CALLDATALOAD PUSH1 0xE0 SHR SWAP2 DUP3 PUSH4 0x1EEC7C8E EQ PUSH2 0x329 JUMPI POP DUP2 PUSH4 0x4BDE38C8 EQ PUSH2 0x301 JUMPI DUP2 PUSH4 0x5621A693 EQ PUSH2 0x2D5 JUMPI DUP2 PUSH4 0x764F3AA8 EQ PUSH2 0xED JUMPI POP DUP1 PUSH4 0x94002B57 EQ PUSH2 0xC5 JUMPI DUP1 PUSH4 0xC34FE1DD EQ PUSH2 0x9D JUMPI PUSH4 0xD4E9F951 EQ PUSH2 0x72 JUMPI PUSH1 0x0 DUP1 REVERT JUMPDEST CALLVALUE PUSH2 0x99 JUMPI DUP2 PUSH1 0x3 NOT CALLDATASIZE ADD SLT PUSH2 0x99 JUMPI PUSH1 0x3 SLOAD SWAP1 MLOAD PUSH1 0x1 PUSH1 0x1 PUSH1 0xA0 SHL SUB SWAP1 SWAP2 AND DUP2 MSTORE PUSH1 0x20 SWAP1 RETURN JUMPDEST POP DUP1 REVERT JUMPDEST POP CALLVALUE PUSH2 0x99 JUMPI DUP2 PUSH1 0x3 NOT CALLDATASIZE ADD SLT PUSH2 0x99 JUMPI PUSH1 0x2 SLOAD SWAP1 MLOAD PUSH1 0x1 PUSH1 0x1 PUSH1 0xA0 SHL SUB SWAP1 SWAP2 AND DUP2 MSTORE PUSH1 0x20 SWAP1 RETURN JUMPDEST POP CALLVALUE PUSH2 0x99 JUMPI DUP2 PUSH1 0x3 NOT CALLDATASIZE ADD SLT PUSH2 0x99 JUMPI PUSH1 0x1 SLOAD SWAP1 MLOAD PUSH1 0x1 PUSH1 0x1 PUSH1 0xA0 SHL SUB SWAP1 SWAP2 AND DUP2 MSTORE PUSH1 0x20 SWAP1 RETURN JUMPDEST SWAP1 POP DUP3 CALLVALUE PUSH2 0x2D2 JUMPI PUSH1 0x20 DUP1 PUSH1 0x3 NOT CALLDATASIZE ADD SLT PUSH2 0x99 JUMPI PUSH1 0x1 PUSH1 0x1 PUSH1 0xA0 SHL SUB DUP4 CALLDATALOAD DUP2 DUP2 AND SWAP6 SWAP2 SWAP3 SWAP1 DUP7 SWAP1 SUB PUSH2 0x2CE JUMPI DUP3 PUSH1 0x1 SLOAD AND SWAP5 DUP3 MLOAD SWAP6 DUP3 DUP8 PUSH1 0x24 DUP2 PUSH4 0x70A08231 PUSH1 0xE0 SHL SWAP5 DUP6 DUP3 MSTORE DUP13 DUP8 DUP4 ADD MSTORE GAS STATICCALL SWAP7 DUP8 ISZERO PUSH2 0x2C4 JUMPI DUP7 SWAP8 PUSH2 0x28E JUMPI JUMPDEST POP SWAP1 DUP3 SWAP2 PUSH1 0x24 SWAP4 DUP7 PUSH1 0x2 SLOAD AND DUP7 MLOAD SWAP6 DUP7 DUP1 SWAP3 DUP6 DUP3 MSTORE DUP14 DUP8 DUP4 ADD MSTORE GAS STATICCALL SWAP4 DUP5 ISZERO PUSH2 0x284 JUMPI DUP8 SWAP5 PUSH2 0x255 JUMPI JUMPDEST POP DUP6 PUSH1 0x3 SLOAD AND SWAP6 DUP4 DUP11 PUSH1 0x24 DUP9 MLOAD DUP1 SWAP11 DUP2 SWAP4 DUP8 DUP4 MSTORE DUP9 DUP4 ADD MSTORE GAS STATICCALL SWAP7 DUP8 ISZERO PUSH2 0x24B JUMPI DUP9 SWAP8 PUSH2 0x216 JUMPI JUMPDEST POP DUP3 SWAP2 PUSH1 0x24 SWAP2 DUP6 SWAP5 SLOAD AND DUP8 MLOAD SWAP12 DUP13 SWAP5 DUP6 SWAP4 DUP5 MSTORE DUP4 ADD MSTORE GAS STATICCALL SWAP5 DUP6 ISZERO PUSH2 0x20B JUMPI SWAP5 PUSH2 0x1D6 JUMPI JUMPDEST PUSH1 0x80 SWAP7 POP DUP3 MLOAD SWAP6 DUP7 MSTORE DUP6 ADD MSTORE DUP4 ADD MSTORE PUSH1 0x60 DUP3 ADD MSTORE RETURN JUMPDEST DUP1 SWAP5 POP DUP7 DUP2 RETURNDATASIZE DUP4 GT PUSH2 0x204 JUMPI JUMPDEST PUSH2 0x1ED DUP2 DUP4 PUSH2 0x95F JUMP JUMPDEST DUP2 ADD SUB SLT PUSH2 0x1FF JUMPI PUSH1 0x80 SWAP6 MLOAD SWAP4 PUSH2 0x1C0 JUMP JUMPDEST PUSH1 0x0 DUP1 REVERT JUMPDEST POP RETURNDATASIZE PUSH2 0x1E3 JUMP JUMPDEST DUP4 MLOAD SWAP1 RETURNDATASIZE SWAP1 DUP3 RETURNDATACOPY RETURNDATASIZE SWAP1 REVERT JUMPDEST SWAP1 SWAP7 POP DUP4 DUP2 DUP2 SWAP5 SWAP4 SWAP5 RETURNDATASIZE DUP4 GT PUSH2 0x244 JUMPI JUMPDEST PUSH2 0x231 DUP2 DUP4 PUSH2 0x95F JUMP JUMPDEST DUP2 ADD SUB SLT PUSH2 0x1FF JUMPI MLOAD SWAP6 SWAP1 SWAP2 SWAP1 DUP4 PUSH2 0x19B JUMP JUMPDEST POP RETURNDATASIZE PUSH2 0x227 JUMP JUMPDEST DUP7 MLOAD RETURNDATASIZE DUP11 DUP3 RETURNDATACOPY RETURNDATASIZE SWAP1 REVERT JUMPDEST SWAP1 SWAP4 POP DUP3 DUP2 DUP2 RETURNDATASIZE DUP4 GT PUSH2 0x27D JUMPI JUMPDEST PUSH2 0x26D DUP2 DUP4 PUSH2 0x95F JUMP JUMPDEST DUP2 ADD SUB SLT PUSH2 0x1FF JUMPI MLOAD SWAP3 DUP10 PUSH2 0x173 JUMP JUMPDEST POP RETURNDATASIZE PUSH2 0x263 JUMP JUMPDEST DUP6 MLOAD RETURNDATASIZE DUP10 DUP3 RETURNDATACOPY RETURNDATASIZE SWAP1 REVERT JUMPDEST SWAP3 DUP1 SWAP3 SWAP2 SWAP8 POP DUP4 DUP2 RETURNDATASIZE DUP4 GT PUSH2 0x2BD JUMPI JUMPDEST PUSH2 0x2A8 DUP2 DUP4 PUSH2 0x95F JUMP JUMPDEST DUP2 ADD SUB SLT PUSH2 0x1FF JUMPI PUSH1 0x24 SWAP3 MLOAD SWAP7 SWAP1 SWAP2 SWAP3 PUSH2 0x149 JUMP JUMPDEST POP RETURNDATASIZE PUSH2 0x29E JUMP JUMPDEST DUP5 MLOAD RETURNDATASIZE DUP9 DUP3 RETURNDATACOPY RETURNDATASIZE SWAP1 REVERT JUMPDEST DUP4 DUP1 REVERT JUMPDEST DUP1 REVERT JUMPDEST SWAP1 POP CALLVALUE PUSH2 0x2FD JUMPI DUP3 PUSH1 0x3 NOT CALLDATASIZE ADD SLT PUSH2 0x2FD JUMPI SLOAD SWAP1 MLOAD PUSH1 0x1 PUSH1 0x1 PUSH1 0xA0 SHL SUB SWAP1 SWAP2 AND DUP2 MSTORE PUSH1 0x20 SWAP2 POP RETURN JUMPDEST DUP3 DUP1 REVERT JUMPDEST POP POP CALLVALUE PUSH2 0x99 JUMPI DUP2 PUSH1 0x3 NOT CALLDATASIZE ADD SLT PUSH2 0x99 JUMPI SWAP1 SLOAD SWAP1 MLOAD PUSH1 0x1 PUSH1 0x1 PUSH1 0xA0 SHL SUB SWAP1 SWAP2 AND DUP2 MSTORE PUSH1 0x20 SWAP1 RETURN JUMPDEST DUP5 DUP5 DUP4 CALLVALUE PUSH2 0x2FD JUMPI PUSH1 0x20 DUP1 PUSH1 0x3 NOT CALLDATASIZE ADD SLT PUSH2 0x2CE JUMPI PUSH1 0x1 PUSH1 0x1 PUSH1 0xA0 SHL SUB SWAP3 DUP3 CALLDATALOAD DUP5 DUP2 AND SWAP1 DUP2 SWAP1 SUB PUSH2 0x82E JUMPI DUP5 PUSH1 0x1 SLOAD AND DUP1 EXTCODESIZE ISZERO PUSH2 0x7FB JUMPI DUP7 DUP9 DUP7 DUP2 DUP4 PUSH4 0xDE5F72FD PUSH1 0xE0 SHL SWAP6 DUP7 DUP4 MSTORE GAS CALL DUP1 ISZERO PUSH2 0x92B JUMPI PUSH2 0x915 JUMPI JUMPDEST DUP7 SWAP8 POP DUP6 PUSH1 0x2 SWAP8 SWAP7 SWAP8 SLOAD AND DUP1 EXTCODESIZE ISZERO PUSH2 0x7FB JUMPI DUP7 DUP1 SWAP2 DUP8 DUP7 MLOAD DUP1 SWAP5 DUP2 SWAP4 DUP8 DUP4 MSTORE GAS CALL DUP1 ISZERO PUSH2 0x90B JUMPI SWAP1 DUP8 SWAP2 PUSH2 0x8F7 JUMPI JUMPDEST POP POP DUP7 PUSH1 0x3 SLOAD AND SWAP1 DUP2 EXTCODESIZE ISZERO PUSH2 0x7FB JUMPI DUP7 SWAP2 DUP7 DUP4 SWAP3 DUP7 MLOAD SWAP5 DUP6 SWAP4 DUP5 SWAP3 DUP4 MSTORE GAS CALL DUP1 ISZERO PUSH2 0x8ED JUMPI SWAP1 DUP7 SWAP2 PUSH2 0x8D9 JUMPI JUMPDEST POP POP DUP6 PUSH1 0x1 SLOAD AND SWAP3 DUP6 DUP8 DUP2 SLOAD AND SWAP5 DUP5 MLOAD PUSH4 0x95EA7B3 PUSH1 0xE0 SHL SWAP7 DUP8 DUP3 MSTORE DUP9 DUP3 ADD MSTORE DUP4 DUP2 PUSH1 0x44 DUP2 PUSH9 0x1158E460913D00000 SWAP13 DUP14 SWAP7 PUSH1 0x24 SWAP15 DUP16 DUP5 ADD MSTORE GAS CALL DUP1 ISZERO PUSH2 0x8CF JUMPI PUSH2 0x8B2 JUMPI JUMPDEST POP DUP8 DUP10 DUP5 DUP10 PUSH1 0x44 DUP11 DUP8 DUP6 PUSH1 0x2 SLOAD AND SWAP6 DUP2 SLOAD AND SWAP6 DUP13 MLOAD SWAP7 DUP8 SWAP6 DUP7 SWAP5 DUP6 MSTORE DUP5 ADD MSTORE PUSH9 0x22B1C8C1227A00000 DUP1 SWAP9 DUP5 ADD MSTORE GAS CALL DUP1 ISZERO PUSH2 0x85A JUMPI SWAP1 DUP11 SWAP4 SWAP3 SWAP2 PUSH2 0x895 JUMPI JUMPDEST POP DUP11 DUP6 DUP11 PUSH1 0x44 DUP12 DUP9 DUP6 PUSH1 0x3 SLOAD AND SWAP6 DUP2 SLOAD AND SWAP6 DUP14 MLOAD SWAP7 DUP8 SWAP6 DUP7 SWAP5 DUP6 MSTORE DUP5 ADD MSTORE PUSH8 0x8AC7230489E80000 DUP1 SWAP11 DUP5 ADD MSTORE GAS CALL DUP1 ISZERO PUSH2 0x79A JUMPI PUSH2 0x878 JUMPI JUMPDEST POP DUP11 DUP5 SLOAD AND SWAP2 DUP12 PUSH1 0x1 SLOAD AND SWAP3 DUP1 EXTCODESIZE ISZERO PUSH2 0x82E JUMPI DUP12 PUSH1 0x44 DUP13 SWAP6 DUP9 DUP1 SWAP5 DUP14 MLOAD SWAP7 DUP8 SWAP6 DUP7 SWAP5 PUSH4 0x11F9FBC9 PUSH1 0xE2 SHL SWAP12 DUP13 DUP8 MSTORE DUP7 ADD MSTORE DUP5 ADD MSTORE GAS CALL DUP1 ISZERO PUSH2 0x79A JUMPI SWAP1 DUP6 SWAP2 PUSH2 0x864 JUMPI JUMPDEST POP DUP12 SWAP1 SLOAD AND DUP12 PUSH1 0x2 SLOAD AND DUP2 EXTCODESIZE ISZERO PUSH2 0x82E JUMPI PUSH1 0x44 DUP12 DUP8 DUP1 SWAP5 DUP16 SWAP7 DUP14 MLOAD SWAP8 DUP9 SWAP7 DUP8 SWAP6 DUP12 DUP8 MSTORE DUP7 ADD MSTORE DUP5 ADD MSTORE GAS CALL DUP1 ISZERO PUSH2 0x85A JUMPI SWAP1 DUP5 SWAP2 PUSH2 0x846 JUMPI JUMPDEST POP SLOAD PUSH1 0x3 SLOAD DUP12 AND SWAP3 SWAP1 DUP12 AND DUP1 EXTCODESIZE ISZERO PUSH2 0x769 JUMPI DUP5 SWAP3 DUP4 PUSH1 0x44 SWAP3 DUP13 SWAP5 DUP15 DUP13 MLOAD SWAP9 DUP10 SWAP8 DUP9 SWAP7 DUP8 MSTORE DUP7 ADD MSTORE DUP5 ADD MSTORE GAS CALL DUP1 ISZERO PUSH2 0x75F JUMPI PUSH2 0x832 JUMPI JUMPDEST POP DUP4 MLOAD SWAP7 PUSH1 0x60 SWAP7 DUP8 DUP10 MSTORE PUSH1 0x14 DUP9 DUP11 ADD MSTORE PUSH20 0x11195C1BDCDA5D1495D050DBDB1B185D195C985B PUSH1 0x62 SHL PUSH1 0x80 DUP11 ADD MSTORE DUP5 DUP5 DUP11 ADD MSTORE PUSH2 0x30D4 DUP7 DUP11 ADD MSTORE PUSH32 0xC050CEAC91091FF4A1425ED83FC9C5B499F52BC4D187FB4EED6D3A9D3D86EF91 SWAP10 DUP11 PUSH1 0xA0 DUP1 SWAP12 LOG1 DUP1 DUP5 SLOAD AND SWAP8 DUP2 DUP4 SLOAD AND DUP10 EXTCODESIZE ISZERO PUSH2 0x82E JUMPI DUP9 MLOAD SWAP1 PUSH4 0x4B8A3529 PUSH1 0xE0 SHL DUP3 MSTORE DUP5 DUP3 ADD MSTORE DUP6 DUP2 PUSH1 0x44 DUP2 DUP4 PUSH10 0x1B1AE4D6E2EF5000000 SWAP15 DUP16 DUP12 DUP5 ADD MSTORE GAS CALL DUP1 ISZERO PUSH2 0x824 JUMPI SWAP1 DUP7 SWAP2 PUSH2 0x810 JUMPI JUMPDEST POP POP DUP12 DUP12 DUP10 MLOAD DUP13 DUP2 MSTORE PUSH1 0xF DUP14 DUP3 ADD MSTORE PUSH15 0x109BDC9C9BDDD11D5B5B5E5554D115 PUSH1 0x8A SHL PUSH1 0x80 DUP3 ADD MSTORE DUP10 DUP10 DUP3 ADD MSTORE DUP12 DUP12 DUP3 ADD MSTORE LOG1 DUP2 DUP6 SLOAD AND SWAP1 DUP3 PUSH1 0x1 SLOAD AND DUP10 MLOAD SWAP1 PUSH4 0x2A6936EF PUSH1 0xE2 SHL DUP3 MSTORE DUP6 DUP3 ADD MSTORE DUP13 DUP2 DUP8 DUP2 DUP7 GAS STATICCALL SWAP1 DUP2 ISZERO PUSH2 0x806 JUMPI SWAP2 DUP14 DUP14 DUP14 SWAP6 SWAP4 DUP14 DUP13 SWAP7 DUP13 SWAP3 PUSH2 0x7A4 JUMPI JUMPDEST POP SWAP2 PUSH1 0x44 SWAP5 SWAP4 SWAP2 DUP4 PUSH1 0x10 PUSH32 0x386AC3C683F28F6581D2D0E081C2C4DB2B23B7D3E7A8D272955AED4F47E9266E SWAP6 MLOAD SWAP4 DUP1 DUP6 MSTORE DUP5 ADD MSTORE PUSH16 0x476F6C64496E74657265737452617465 PUSH1 0x80 SHL PUSH1 0x80 DUP5 ADD MSTORE DUP14 DUP10 DUP5 ADD MSTORE DUP3 ADD MSTORE LOG1 DUP9 DUP7 DUP9 SLOAD AND DUP14 MLOAD SWAP7 DUP8 SWAP6 DUP7 SWAP5 DUP6 MSTORE DUP11 DUP6 ADD MSTORE DUP11 DUP5 ADD MSTORE GAS CALL DUP1 ISZERO PUSH2 0x79A JUMPI PUSH2 0x76D JUMPI JUMPDEST POP DUP4 SLOAD DUP3 SLOAD DUP3 AND SWAP2 AND DUP1 EXTCODESIZE ISZERO PUSH2 0x769 JUMPI DUP5 SWAP3 DUP4 PUSH1 0x44 SWAP3 DUP12 DUP12 MLOAD SWAP8 DUP9 SWAP7 DUP8 SWAP6 PUSH4 0x450CFAF PUSH1 0xE3 SHL DUP8 MSTORE DUP7 ADD MSTORE DUP5 ADD MSTORE GAS CALL DUP1 ISZERO PUSH2 0x75F JUMPI PUSH2 0x747 JUMPI JUMPDEST POP POP PUSH1 0x12 DUP4 MLOAD SWAP6 DUP1 DUP8 MSTORE DUP7 ADD MSTORE PUSH18 0x14995C185E55DA5D1A111D5B5B5E5554D115 PUSH1 0x72 SHL PUSH1 0x80 DUP7 ADD MSTORE DUP5 ADD MSTORE DUP3 ADD MSTORE LOG1 DUP1 RETURN JUMPDEST PUSH2 0x750 SWAP1 PUSH2 0x935 JUMP JUMPDEST PUSH2 0x75B JUMPI DUP8 DUP10 PUSH2 0x715 JUMP JUMPDEST DUP8 DUP1 REVERT JUMPDEST DUP6 MLOAD RETURNDATASIZE DUP5 DUP3 RETURNDATACOPY RETURNDATASIZE SWAP1 REVERT JUMPDEST DUP5 DUP1 REVERT JUMPDEST PUSH2 0x78C SWAP1 DUP7 RETURNDATASIZE DUP9 GT PUSH2 0x793 JUMPI JUMPDEST PUSH2 0x784 DUP2 DUP4 PUSH2 0x95F JUMP JUMPDEST DUP2 ADD SWAP1 PUSH2 0x981 JUMP JUMPDEST POP DUP13 PUSH2 0x6DA JUMP JUMPDEST POP RETURNDATASIZE PUSH2 0x77A JUMP JUMPDEST DUP9 MLOAD RETURNDATASIZE DUP8 DUP3 RETURNDATACOPY RETURNDATASIZE SWAP1 REVERT JUMPDEST SWAP8 POP POP POP POP SWAP1 SWAP3 POP DUP4 DUP2 RETURNDATASIZE DUP4 GT PUSH2 0x7FF JUMPI JUMPDEST PUSH2 0x7C0 DUP2 DUP4 PUSH2 0x95F JUMP JUMPDEST DUP2 ADD SUB SLT PUSH2 0x7FB JUMPI SWAP2 MLOAD DUP11 SWAP3 DUP9 SWAP3 SWAP1 SWAP2 DUP15 SWAP1 DUP15 SWAP1 DUP14 PUSH32 0x386AC3C683F28F6581D2D0E081C2C4DB2B23B7D3E7A8D272955AED4F47E9266E PUSH2 0x661 JUMP JUMPDEST DUP7 DUP1 REVERT JUMPDEST POP RETURNDATASIZE PUSH2 0x7B6 JUMP JUMPDEST DUP11 MLOAD RETURNDATASIZE DUP10 DUP3 RETURNDATACOPY RETURNDATASIZE SWAP1 REVERT JUMPDEST PUSH2 0x819 SWAP1 PUSH2 0x935 JUMP JUMPDEST PUSH2 0x769 JUMPI DUP5 DUP15 PUSH2 0x5F6 JUMP JUMPDEST DUP10 MLOAD RETURNDATASIZE DUP9 DUP3 RETURNDATACOPY RETURNDATASIZE SWAP1 REVERT JUMPDEST DUP6 DUP1 REVERT JUMPDEST PUSH2 0x83B SWAP1 PUSH2 0x935 JUMP JUMPDEST PUSH2 0x75B JUMPI DUP8 DUP10 PUSH2 0x54D JUMP JUMPDEST PUSH2 0x84F SWAP1 PUSH2 0x935 JUMP JUMPDEST PUSH2 0x2FD JUMPI DUP3 DUP13 PUSH2 0x516 JUMP JUMPDEST DUP8 MLOAD RETURNDATASIZE DUP7 DUP3 RETURNDATACOPY RETURNDATASIZE SWAP1 REVERT JUMPDEST PUSH2 0x86D SWAP1 PUSH2 0x935 JUMP JUMPDEST PUSH2 0x2CE JUMPI DUP4 DUP14 PUSH2 0x4DD JUMP JUMPDEST PUSH2 0x88E SWAP1 DUP7 RETURNDATASIZE DUP9 GT PUSH2 0x793 JUMPI PUSH2 0x784 DUP2 DUP4 PUSH2 0x95F JUMP JUMPDEST POP DUP13 PUSH2 0x499 JUMP JUMPDEST PUSH2 0x8AB SWAP1 DUP7 RETURNDATASIZE DUP9 GT PUSH2 0x793 JUMPI PUSH2 0x784 DUP2 DUP4 PUSH2 0x95F JUMP JUMPDEST POP DUP13 PUSH2 0x460 JUMP JUMPDEST PUSH2 0x8C8 SWAP1 DUP5 RETURNDATASIZE DUP7 GT PUSH2 0x793 JUMPI PUSH2 0x784 DUP2 DUP4 PUSH2 0x95F JUMP JUMPDEST POP DUP11 PUSH2 0x420 JUMP JUMPDEST DUP7 MLOAD RETURNDATASIZE DUP6 DUP3 RETURNDATACOPY RETURNDATASIZE SWAP1 REVERT JUMPDEST PUSH2 0x8E2 SWAP1 PUSH2 0x935 JUMP JUMPDEST PUSH2 0x769 JUMPI DUP5 DUP9 PUSH2 0x3DA JUMP JUMPDEST DUP4 MLOAD RETURNDATASIZE DUP9 DUP3 RETURNDATACOPY RETURNDATASIZE SWAP1 REVERT JUMPDEST PUSH2 0x900 SWAP1 PUSH2 0x935 JUMP JUMPDEST PUSH2 0x82E JUMPI DUP6 DUP10 PUSH2 0x3AD JUMP JUMPDEST DUP5 MLOAD RETURNDATASIZE DUP10 DUP3 RETURNDATACOPY RETURNDATASIZE SWAP1 REVERT JUMPDEST SWAP5 SWAP6 SWAP1 SWAP7 PUSH2 0x922 SWAP1 PUSH2 0x935 JUMP JUMPDEST SWAP5 SWAP4 DUP7 SWAP1 PUSH2 0x37E JUMP JUMPDEST DUP4 MLOAD RETURNDATASIZE DUP10 DUP3 RETURNDATACOPY RETURNDATASIZE SWAP1 REVERT JUMPDEST PUSH8 0xFFFFFFFFFFFFFFFF DUP2 GT PUSH2 0x949 JUMPI PUSH1 0x40 MSTORE JUMP JUMPDEST PUSH4 0x4E487B71 PUSH1 0xE0 SHL PUSH1 0x0 MSTORE PUSH1 0x41 PUSH1 0x4 MSTORE PUSH1 0x24 PUSH1 0x0 REVERT JUMPDEST SWAP1 PUSH1 0x1F DUP1 NOT SWAP2 ADD AND DUP2 ADD SWAP1 DUP2 LT PUSH8 0xFFFFFFFFFFFFFFFF DUP3 GT OR PUSH2 0x949 JUMPI PUSH1 0x40 MSTORE JUMP JUMPDEST SWAP1 DUP2 PUSH1 0x20 SWAP2 SUB SLT PUSH2 0x1FF JUMPI MLOAD DUP1 ISZERO ISZERO DUP2 SUB PUSH2 0x1FF JUMPI SWAP1 JUMP INVALID LOG2 PUSH5 0x6970667358 0x22 SLT KECCAK256 0xCD PUSH24 0x8B84A3453FD78CA6A89073C9E0045E9545D803B790CAB467 SGT SWAP10 PUSH7 0x4C296E64736F6C PUSH4 0x43000814 STOP CALLER PUSH1 0xA0 CALLVALUE PUSH3 0x108 JUMPI PUSH1 0x1F PUSH3 0x2B83 CODESIZE DUP2 SWAP1 SUB SWAP2 DUP3 ADD PUSH1 0x1F NOT AND DUP4 ADD SWAP2 PUSH1 0x1 PUSH1 0x1 PUSH1 0x40 SHL SUB DUP4 GT DUP5 DUP5 LT OR PUSH3 0x10D JUMPI DUP1 DUP5 SWAP3 PUSH1 0x40 SWAP5 DUP6 MSTORE DUP4 CODECOPY DUP2 ADD SUB SLT PUSH3 0x108 JUMPI PUSH3 0x5A PUSH1 0x20 PUSH3 0x52 DUP4 PUSH3 0x123 JUMP JUMPDEST SWAP3 ADD PUSH3 0x123 JUMP JUMPDEST PUSH1 0x1 PUSH1 0x0 SSTORE CALLER ISZERO PUSH3 0xEF JUMPI PUSH1 0x1 DUP1 SLOAD CALLER PUSH1 0x1 PUSH1 0x1 PUSH1 0xA0 SHL SUB NOT DUP1 DUP4 AND DUP3 OR SWAP1 SWAP4 SSTORE PUSH1 0x40 MLOAD SWAP5 SWAP3 SWAP4 PUSH1 0x1 PUSH1 0x1 PUSH1 0xA0 SHL SUB SWAP4 SWAP1 SWAP3 DUP5 SWAP3 SWAP1 DUP4 AND PUSH32 0x8BE0079C531659141344CD1FD0A4F28419497F9722A3DAAFE3B4186F6B6457E0 PUSH1 0x0 DUP1 LOG3 PUSH2 0x1F4 PUSH1 0x3 SSTORE PUSH3 0x15180 PUSH1 0x4 SSTORE AND PUSH1 0x80 MSTORE AND SWAP1 PUSH1 0x2 SLOAD AND OR PUSH1 0x2 SSTORE PUSH2 0x2A4A SWAP1 DUP2 PUSH3 0x139 DUP3 CODECOPY PUSH1 0x80 MLOAD DUP2 DUP2 DUP2 PUSH2 0x198F ADD MSTORE PUSH2 0x276D ADD MSTORE RETURN JUMPDEST PUSH1 0x40 MLOAD PUSH4 0x1E4FBDF7 PUSH1 0xE0 SHL DUP2 MSTORE PUSH1 0x0 PUSH1 0x4 DUP3 ADD MSTORE PUSH1 0x24 SWAP1 REVERT JUMPDEST PUSH1 0x0 DUP1 REVERT JUMPDEST PUSH4 0x4E487B71 PUSH1 0xE0 SHL PUSH1 0x0 MSTORE PUSH1 0x41 PUSH1 0x4 MSTORE PUSH1 0x24 PUSH1 0x0 REVERT JUMPDEST MLOAD SWAP1 PUSH1 0x1 PUSH1 0x1 PUSH1 0xA0 SHL SUB DUP3 AND DUP3 SUB PUSH3 0x108 JUMPI JUMP INVALID PUSH1 0x80 PUSH1 0x40 MSTORE PUSH1 0x4 CALLDATASIZE LT ISZERO PUSH2 0x12 JUMPI PUSH1 0x0 DUP1 REVERT JUMPDEST PUSH1 0x0 CALLDATALOAD PUSH1 0xE0 SHR DUP1 PUSH4 0x14D911C3 EQ PUSH2 0x19BE JUMPI DUP1 PUSH4 0x1E691827 EQ PUSH2 0x1979 JUMPI DUP1 PUSH4 0x22867D78 EQ PUSH2 0x17FF JUMPI DUP1 PUSH4 0x26232A2E EQ PUSH2 0x17E1 JUMPI DUP1 PUSH4 0x46904840 EQ PUSH2 0x17B8 JUMPI DUP1 PUSH4 0x47E7EF24 EQ PUSH2 0x1688 JUMPI DUP1 PUSH4 0x4B8A3529 EQ PUSH2 0x14A0 JUMPI DUP1 PUSH4 0x62993344 EQ PUSH2 0xEB8 JUMPI DUP1 PUSH4 0x62FFF3F6 EQ PUSH2 0xE67 JUMPI DUP1 PUSH4 0x710094DF EQ PUSH2 0xE46 JUMPI DUP1 PUSH4 0x715018A6 EQ PUSH2 0xDE9 JUMPI DUP1 PUSH4 0x727A6677 EQ PUSH2 0xDC6 JUMPI DUP1 PUSH4 0x7367EADE EQ PUSH2 0xB85 JUMPI DUP1 PUSH4 0x79500BF6 EQ PUSH2 0xB5E JUMPI DUP1 PUSH4 0x879B3ED5 EQ PUSH2 0xB3B JUMPI DUP1 PUSH4 0x8DA5CB5B EQ PUSH2 0xB12 JUMPI DUP1 PUSH4 0x915D9342 EQ PUSH2 0x96F JUMPI DUP1 PUSH4 0x9B681E17 EQ PUSH2 0x94C JUMPI DUP1 PUSH4 0xA06DB7DC EQ PUSH2 0x92E JUMPI DUP1 PUSH4 0xA274F4AC EQ PUSH2 0x8FD JUMPI DUP1 PUSH4 0xA9A4DBBC EQ PUSH2 0x81C JUMPI DUP1 PUSH4 0xAAF5EB68 EQ PUSH2 0x7F9 JUMPI DUP1 PUSH4 0xB3596F07 EQ PUSH2 0x7D6 JUMPI DUP1 PUSH4 0xC68DBB37 EQ PUSH2 0x794 JUMPI DUP1 PUSH4 0xCD9CEBFD EQ PUSH2 0x771 JUMPI DUP1 PUSH4 0xE1F1C4A7 EQ PUSH2 0x754 JUMPI DUP1 PUSH4 0xE6A69AB8 EQ PUSH2 0x735 JUMPI DUP1 PUSH4 0xEA6A2872 EQ PUSH2 0x712 JUMPI DUP1 PUSH4 0xF11B8188 EQ PUSH2 0x4EC JUMPI DUP1 PUSH4 0xF2FDE38B EQ PUSH2 0x45E JUMPI DUP1 PUSH4 0xF3FEF3A3 EQ PUSH2 0x2B3 JUMPI DUP1 PUSH4 0xF413E0F6 EQ PUSH2 0x1E9 JUMPI DUP1 PUSH4 0xF91BFF57 EQ PUSH2 0x1C6 JUMPI PUSH4 0xFA76DCF2 EQ PUSH2 0x192 JUMPI PUSH1 0x0 DUP1 REVERT JUMPDEST CALLVALUE PUSH2 0x1C1 JUMPI PUSH1 0x40 CALLDATASIZE PUSH1 0x3 NOT ADD SLT PUSH2 0x1C1 JUMPI PUSH1 0x20 PUSH2 0x1B9 PUSH2 0x1B0 PUSH2 0x19EA JUMP JUMPDEST PUSH1 0x24 CALLDATALOAD SWAP1 PUSH2 0x2927 JUMP JUMPDEST PUSH1 0x40 MLOAD SWAP1 DUP2 MSTORE RETURN JUMPDEST PUSH1 0x0 DUP1 REVERT JUMPDEST CALLVALUE PUSH2 0x1C1 JUMPI PUSH1 0x20 CALLDATASIZE PUSH1 0x3 NOT ADD SLT PUSH2 0x1C1 JUMPI PUSH1 0x20 PUSH2 0x1B9 PUSH2 0x1E4 PUSH2 0x19EA JUMP JUMPDEST PUSH2 0x25DB JUMP JUMPDEST CALLVALUE PUSH2 0x1C1 JUMPI PUSH1 0x20 CALLDATASIZE PUSH1 0x3 NOT ADD SLT PUSH2 0x1C1 JUMPI PUSH2 0x202 PUSH2 0x19EA JUMP JUMPDEST PUSH2 0x20B DUP2 PUSH2 0x25DB JUMP JUMPDEST PUSH2 0x214 DUP3 PUSH2 0x24F2 JUMP JUMPDEST PUSH2 0x21D DUP4 PUSH2 0x2677 JUMP JUMPDEST DUP1 PUSH2 0x271 JUMPI PUSH1 0xC0 SWAP4 PUSH1 0x0 NOT SWAP1 JUMPDEST PUSH1 0x1 DUP1 PUSH1 0xA0 SHL SUB AND PUSH1 0x0 MSTORE PUSH1 0x6 PUSH1 0x20 MSTORE PUSH1 0x40 PUSH1 0x0 KECCAK256 SWAP2 PUSH1 0xFF PUSH1 0x4 PUSH1 0x8 DUP6 ADD SLOAD SWAP5 ADD SLOAD AND SWAP4 PUSH1 0x40 MLOAD SWAP6 DUP7 MSTORE PUSH1 0x20 DUP7 ADD MSTORE PUSH1 0x40 DUP6 ADD MSTORE PUSH1 0x60 DUP5 ADD MSTORE PUSH1 0x80 DUP4 ADD MSTORE ISZERO ISZERO PUSH1 0xA0 DUP3 ADD MSTORE RETURN JUMPDEST PUSH8 0xDE0B6B3A7640000 SWAP4 DUP5 DUP4 MUL SWAP5 DUP4 DUP7 DIV EQ DUP4 ISZERO OR ISZERO PUSH2 0x29D JUMPI PUSH2 0x297 DUP3 PUSH1 0xC0 SWAP7 PUSH2 0x1C29 JUMP JUMPDEST SWAP1 PUSH2 0x22A JUMP JUMPDEST PUSH4 0x4E487B71 PUSH1 0xE0 SHL PUSH1 0x0 MSTORE PUSH1 0x11 PUSH1 0x4 MSTORE PUSH1 0x24 PUSH1 0x0 REVERT JUMPDEST CALLVALUE PUSH2 0x1C1 JUMPI PUSH1 0x40 CALLDATASIZE PUSH1 0x3 NOT ADD SLT PUSH2 0x1C1 JUMPI PUSH2 0x2CC PUSH2 0x19EA JUMP JUMPDEST PUSH1 0x24 CALLDATALOAD PUSH2 0x2D7 PUSH2 0x2319 JUMP JUMPDEST DUP1 ISZERO PUSH2 0x44C JUMPI PUSH2 0x2E6 DUP3 PUSH2 0x238C JUMP JUMPDEST CALLER PUSH1 0x0 MSTORE PUSH1 0x20 PUSH1 0x6 DUP2 MSTORE PUSH1 0x40 PUSH1 0x0 KECCAK256 SWAP3 PUSH1 0x1 DUP1 PUSH1 0xA0 SHL SUB DUP2 AND SWAP4 DUP5 PUSH1 0x0 MSTORE DUP3 MSTORE PUSH1 0x40 PUSH1 0x0 KECCAK256 SLOAD DUP4 GT PUSH2 0x43A JUMPI PUSH2 0x31B CALLER PUSH2 0x24F2 JUMP JUMPDEST PUSH2 0x341 PUSH2 0x33B PUSH2 0x32B DUP7 DUP6 PUSH2 0x2927 JUMP JUMPDEST PUSH2 0x335 DUP6 CALLER PUSH2 0x1F63 JUMP JUMPDEST SWAP1 PUSH2 0x1C16 JUMP JUMPDEST SWAP3 PUSH2 0x1F12 JUMP JUMPDEST PUSH2 0x2710 SWAP1 DUP2 SUB SWAP1 DUP2 GT PUSH2 0x29D JUMPI PUSH2 0x360 PUSH4 0x5F5E100 SWAP2 PUSH2 0x367 SWAP5 PUSH2 0x1C16 JUMP JUMPDEST DIV SWAP1 PUSH2 0x1C49 JUMP JUMPDEST PUSH2 0x370 CALLER PUSH2 0x2677 JUMP JUMPDEST SWAP1 DUP2 ISZERO ISZERO SWAP2 DUP3 PUSH2 0x430 JUMPI JUMPDEST POP POP PUSH2 0x41E JUMPI CALLER PUSH1 0x0 MSTORE PUSH1 0x6 DUP2 MSTORE PUSH1 0x40 PUSH1 0x0 KECCAK256 DUP4 PUSH1 0x0 MSTORE DUP2 MSTORE PUSH1 0x40 PUSH1 0x0 KECCAK256 PUSH2 0x3A4 DUP4 DUP3 SLOAD PUSH2 0x1C49 JUMP JUMPDEST SWAP1 SSTORE DUP3 PUSH1 0x0 MSTORE PUSH1 0x5 DUP2 MSTORE PUSH1 0x5 PUSH1 0x40 PUSH1 0x0 KECCAK256 ADD PUSH2 0x3C1 DUP4 DUP3 SLOAD PUSH2 0x1C49 JUMP JUMPDEST SWAP1 SSTORE PUSH2 0x3CE DUP3 CALLER DUP6 PUSH2 0x233C JUMP JUMPDEST CALLER PUSH1 0x0 MSTORE PUSH1 0x6 DUP2 MSTORE PUSH1 0x40 PUSH1 0x0 KECCAK256 DUP4 PUSH1 0x0 MSTORE DUP2 MSTORE PUSH1 0x40 PUSH1 0x0 KECCAK256 SLOAD SWAP1 PUSH1 0x40 MLOAD SWAP3 DUP4 MSTORE DUP3 ADD MSTORE PUSH32 0x91FB9D98B786C57D74C099CCD2BECA1739E9F6A81FB49001CA465C4B7591BBE2 PUSH1 0x40 CALLER SWAP3 LOG3 PUSH1 0x1 PUSH1 0x0 SSTORE STOP JUMPDEST PUSH1 0x40 MLOAD PUSH4 0x3A23D825 PUSH1 0xE0 SHL DUP2 MSTORE PUSH1 0x4 SWAP1 REVERT JUMPDEST GT SWAP1 POP DUP5 DUP1 PUSH2 0x37B JUMP JUMPDEST PUSH1 0x40 MLOAD PUSH4 0x1E9ACF17 PUSH1 0xE3 SHL DUP2 MSTORE PUSH1 0x4 SWAP1 REVERT JUMPDEST PUSH1 0x40 MLOAD PUSH4 0x1F2A2005 PUSH1 0xE0 SHL DUP2 MSTORE PUSH1 0x4 SWAP1 REVERT JUMPDEST CALLVALUE PUSH2 0x1C1 JUMPI PUSH1 0x20 CALLDATASIZE PUSH1 0x3 NOT ADD SLT PUSH2 0x1C1 JUMPI PUSH2 0x477 PUSH2 0x19EA JUMP JUMPDEST PUSH2 0x47F PUSH2 0x1BEA JUMP JUMPDEST PUSH1 0x1 PUSH1 0x1 PUSH1 0xA0 SHL SUB SWAP1 DUP2 AND SWAP1 DUP2 ISZERO PUSH2 0x4D3 JUMPI PUSH1 0x1 SLOAD DUP3 PUSH12 0xFFFFFFFFFFFFFFFFFFFFFFFF PUSH1 0xA0 SHL DUP3 AND OR PUSH1 0x1 SSTORE AND PUSH32 0x8BE0079C531659141344CD1FD0A4F28419497F9722A3DAAFE3B4186F6B6457E0 PUSH1 0x0 DUP1 LOG3 STOP JUMPDEST PUSH1 0x40 MLOAD PUSH4 0x1E4FBDF7 PUSH1 0xE0 SHL DUP2 MSTORE PUSH1 0x0 PUSH1 0x4 DUP3 ADD MSTORE PUSH1 0x24 SWAP1 REVERT JUMPDEST CALLVALUE PUSH2 0x1C1 JUMPI PUSH1 0x20 CALLDATASIZE PUSH1 0x3 NOT ADD SLT PUSH2 0x1C1 JUMPI PUSH1 0x1 PUSH1 0x1 PUSH1 0xA0 SHL SUB PUSH2 0x50D PUSH2 0x19EA JUMP JUMPDEST AND PUSH1 0x0 MSTORE PUSH1 0x5 PUSH1 0x20 MSTORE PUSH1 0x40 PUSH1 0x0 KECCAK256 DUP1 SLOAD PUSH1 0x1 DUP1 DUP4 ADD SLOAD SWAP3 PUSH1 0x2 DUP2 ADD SLOAD SWAP1 PUSH1 0x3 DUP2 ADD PUSH1 0x40 MLOAD SWAP4 DUP5 SWAP2 PUSH1 0x0 SWAP2 DUP2 SLOAD SWAP2 PUSH2 0x543 DUP4 PUSH2 0x1AF9 JUMP JUMPDEST DUP1 DUP7 MSTORE SWAP3 DUP3 DUP2 AND SWAP1 DUP2 ISZERO PUSH2 0x6F2 JUMPI POP PUSH1 0x1 EQ PUSH2 0x6AF JUMPI JUMPDEST POP POP POP SUB PUSH2 0x568 SWAP1 DUP5 PUSH2 0x1A33 JUMP JUMPDEST PUSH1 0x4 DUP2 ADD SLOAD SWAP3 PUSH1 0x5 DUP3 ADD SLOAD PUSH1 0x6 DUP4 ADD SLOAD PUSH1 0x7 DUP5 ADD SLOAD PUSH1 0x8 DUP6 ADD SLOAD SWAP1 PUSH1 0x40 MLOAD SWAP3 PUSH2 0x590 DUP5 PUSH2 0x1A16 JUMP JUMPDEST PUSH1 0x9 DUP8 ADD SLOAD DUP5 MSTORE PUSH1 0xA DUP8 ADD SLOAD PUSH1 0x20 DUP6 ADD MSTORE PUSH1 0xB DUP8 ADD SLOAD PUSH1 0x40 DUP6 ADD MSTORE PUSH1 0xC DUP8 ADD SLOAD PUSH1 0x60 DUP6 ADD MSTORE PUSH1 0xD DUP8 ADD SLOAD PUSH1 0x80 DUP6 ADD MSTORE PUSH1 0xE DUP8 ADD SLOAD PUSH1 0xA0 DUP6 ADD MSTORE PUSH1 0xF DUP8 ADD SLOAD PUSH1 0xC0 DUP6 ADD MSTORE PUSH1 0x10 DUP8 ADD SLOAD PUSH1 0xE0 DUP6 ADD MSTORE PUSH1 0x11 DUP8 ADD SLOAD PUSH2 0x100 DUP6 ADD MSTORE PUSH1 0x12 DUP8 ADD SLOAD PUSH2 0x120 DUP6 ADD MSTORE PUSH1 0x13 DUP8 ADD SLOAD PUSH2 0x140 DUP6 ADD MSTORE PUSH1 0x14 DUP8 ADD SLOAD PUSH2 0x160 DUP6 ADD MSTORE PUSH1 0x15 DUP8 ADD SLOAD SWAP5 PUSH1 0x16 DUP9 ADD SLOAD SWAP7 PUSH1 0x17 DUP10 ADD SLOAD SWAP9 PUSH1 0x18 ADD SLOAD SWAP10 PUSH1 0x40 MLOAD SWAP14 DUP15 DUP15 DUP2 SWAP16 PUSH1 0xFF AND ISZERO ISZERO DUP3 MSTORE DUP1 PUSH1 0x8 SHR PUSH1 0xFF AND ISZERO ISZERO PUSH1 0x20 DUP4 ADD MSTORE PUSH1 0x10 SHR PUSH1 0xFF AND ISZERO ISZERO PUSH1 0x40 DUP3 ADD MSTORE PUSH1 0x60 ADD MSTORE PUSH1 0x80 DUP14 ADD MSTORE DUP12 PUSH2 0x360 PUSH1 0xA0 DUP2 SWAP3 ADD MSTORE DUP13 ADD PUSH2 0x668 SWAP2 PUSH2 0x1B33 JUMP JUMPDEST SWAP10 PUSH1 0xC0 DUP13 ADD MSTORE PUSH1 0xE0 DUP12 ADD MSTORE PUSH2 0x100 DUP11 ADD MSTORE PUSH2 0x120 DUP10 ADD MSTORE PUSH2 0x140 DUP9 ADD MSTORE PUSH2 0x160 DUP8 ADD PUSH2 0x693 SWAP2 PUSH2 0x1B73 JUMP JUMPDEST PUSH2 0x2E0 DUP7 ADD MSTORE PUSH2 0x300 DUP6 ADD MSTORE PUSH2 0x320 DUP5 ADD MSTORE PUSH2 0x340 DUP4 ADD MSTORE SUB SWAP1 RETURN JUMPDEST PUSH1 0x0 SWAP1 DUP2 MSTORE PUSH1 0x20 DUP2 KECCAK256 SWAP3 SWAP5 SWAP4 POP SWAP2 JUMPDEST DUP5 DUP4 LT PUSH2 0x6D7 JUMPI POP POP DUP2 PUSH1 0x20 SWAP3 SWAP4 POP ADD ADD DUP8 DUP1 DUP1 PUSH2 0x55A JUMP JUMPDEST DUP2 SWAP4 POP SWAP1 DUP2 PUSH1 0x20 SWAP3 SLOAD DUP4 DUP6 DUP12 ADD ADD MSTORE ADD SWAP2 ADD SWAP1 SWAP2 DUP7 SWAP3 PUSH2 0x6BE JUMP JUMPDEST SWAP3 POP POP POP PUSH1 0x20 SWAP3 POP PUSH1 0xFF NOT AND DUP3 DUP5 ADD MSTORE ISZERO ISZERO PUSH1 0x5 SHL DUP3 ADD ADD DUP8 DUP1 DUP1 PUSH2 0x55A JUMP JUMPDEST CALLVALUE PUSH2 0x1C1 JUMPI PUSH1 0x20 CALLDATASIZE PUSH1 0x3 NOT ADD SLT PUSH2 0x1C1 JUMPI PUSH1 0x20 PUSH2 0x1B9 PUSH2 0x730 PUSH2 0x19EA JUMP JUMPDEST PUSH2 0x2677 JUMP JUMPDEST CALLVALUE PUSH2 0x1C1 JUMPI PUSH1 0x0 CALLDATASIZE PUSH1 0x3 NOT ADD SLT PUSH2 0x1C1 JUMPI PUSH1 0x20 PUSH1 0x40 MLOAD PUSH4 0x1E13380 DUP2 MSTORE RETURN JUMPDEST CALLVALUE PUSH2 0x1C1 JUMPI PUSH1 0x0 CALLDATASIZE PUSH1 0x3 NOT ADD SLT PUSH2 0x1C1 JUMPI PUSH1 0x20 PUSH1 0x40 MLOAD PUSH2 0x2710 DUP2 MSTORE RETURN JUMPDEST CALLVALUE PUSH2 0x1C1 JUMPI PUSH1 0x20 CALLDATASIZE PUSH1 0x3 NOT ADD SLT PUSH2 0x1C1 JUMPI PUSH1 0x20 PUSH2 0x1B9 PUSH2 0x78F PUSH2 0x19EA JUMP JUMPDEST PUSH2 0x24F2 JUMP JUMPDEST CALLVALUE PUSH2 0x1C1 JUMPI PUSH1 0x20 CALLDATASIZE PUSH1 0x3 NOT ADD SLT PUSH2 0x1C1 JUMPI PUSH1 0x4 CALLDATALOAD PUSH1 0x7 SLOAD DUP2 LT ISZERO PUSH2 0x1C1 JUMPI PUSH2 0x7BD PUSH1 0x20 SWAP2 PUSH2 0x1AAC JUMP JUMPDEST SWAP1 SLOAD PUSH1 0x40 MLOAD PUSH1 0x3 SWAP3 SWAP1 SWAP3 SHL SHR PUSH1 0x1 PUSH1 0x1 PUSH1 0xA0 SHL SUB AND DUP2 MSTORE RETURN JUMPDEST CALLVALUE PUSH2 0x1C1 JUMPI PUSH1 0x20 CALLDATASIZE PUSH1 0x3 NOT ADD SLT PUSH2 0x1C1 JUMPI PUSH1 0x20 PUSH2 0x1B9 PUSH2 0x7F4 PUSH2 0x19EA JUMP JUMPDEST PUSH2 0x26F6 JUMP JUMPDEST CALLVALUE PUSH2 0x1C1 JUMPI PUSH1 0x0 CALLDATASIZE PUSH1 0x3 NOT ADD SLT PUSH2 0x1C1 JUMPI PUSH1 0x20 PUSH1 0x40 MLOAD PUSH8 0xDE0B6B3A7640000 DUP2 MSTORE RETURN JUMPDEST CALLVALUE PUSH2 0x1C1 JUMPI PUSH1 0x20 CALLDATASIZE PUSH1 0x3 NOT ADD SLT PUSH2 0x1C1 JUMPI PUSH2 0x835 PUSH2 0x19EA JUMP JUMPDEST PUSH1 0x1 PUSH1 0x1 PUSH1 0xA0 SHL SUB DUP2 AND PUSH1 0x0 SWAP1 DUP2 MSTORE PUSH1 0x5 PUSH1 0x20 MSTORE PUSH1 0x40 SWAP1 KECCAK256 PUSH2 0x856 DUP3 PUSH2 0x1C63 JUMP JUMPDEST SWAP1 PUSH1 0x5 DUP2 ADD SLOAD SWAP3 DUP4 ISZERO SWAP1 DUP2 PUSH1 0x0 EQ PUSH2 0x8D4 JUMPI PUSH1 0x0 SWAP3 JUMPDEST PUSH2 0x87A PUSH1 0x15 DUP3 ADD SLOAD SWAP3 PUSH2 0x1F12 JUMP JUMPDEST SWAP3 PUSH2 0x8C7 JUMPI PUSH1 0x6 ADD SLOAD PUSH8 0xDE0B6B3A7640000 SWAP1 DUP2 DUP2 MUL SWAP2 DUP2 DUP4 DIV EQ SWAP1 ISZERO OR ISZERO PUSH2 0x29D JUMPI PUSH1 0xA0 SWAP6 PUSH2 0x8A9 SWAP2 PUSH2 0x1C29 JUMP JUMPDEST SWAP3 JUMPDEST PUSH1 0x40 MLOAD SWAP5 DUP6 MSTORE PUSH1 0x20 DUP6 ADD MSTORE PUSH1 0x40 DUP5 ADD MSTORE PUSH1 0x60 DUP4 ADD MSTORE PUSH1 0x80 DUP3 ADD MSTORE RETURN JUMPDEST POP PUSH1 0xA0 SWAP5 POP PUSH1 0x0 SWAP3 PUSH2 0x8AB JUMP JUMPDEST PUSH1 0x6 DUP4 ADD SLOAD PUSH2 0x2710 SWAP1 DUP2 DUP2 MUL SWAP2 DUP2 DUP4 DIV EQ SWAP1 ISZERO OR ISZERO PUSH2 0x29D JUMPI DUP6 PUSH2 0x8F7 SWAP2 PUSH2 0x1C29 JUMP JUMPDEST SWAP3 PUSH2 0x86C JUMP JUMPDEST CALLVALUE PUSH2 0x1C1 JUMPI PUSH1 0x20 CALLDATASIZE PUSH1 0x3 NOT ADD SLT PUSH2 0x1C1 JUMPI PUSH1 0x40 PUSH2 0x920 PUSH2 0x91B PUSH2 0x19EA JUMP JUMPDEST PUSH2 0x29C6 JUMP JUMPDEST DUP3 MLOAD SWAP2 ISZERO ISZERO DUP3 MSTORE PUSH1 0x20 DUP3 ADD MSTORE RETURN JUMPDEST CALLVALUE PUSH2 0x1C1 JUMPI PUSH1 0x0 CALLDATASIZE PUSH1 0x3 NOT ADD SLT PUSH2 0x1C1 JUMPI PUSH1 0x20 PUSH1 0x4 SLOAD PUSH1 0x40 MLOAD SWAP1 DUP2 MSTORE RETURN JUMPDEST CALLVALUE PUSH2 0x1C1 JUMPI PUSH1 0x20 CALLDATASIZE PUSH1 0x3 NOT ADD SLT PUSH2 0x1C1 JUMPI PUSH1 0x20 PUSH2 0x1B9 PUSH2 0x96A PUSH2 0x19EA JUMP JUMPDEST PUSH2 0x1F12 JUMP JUMPDEST CALLVALUE PUSH2 0x1C1 JUMPI PUSH1 0x60 CALLDATASIZE PUSH1 0x3 NOT ADD SLT PUSH2 0x1C1 JUMPI PUSH2 0x988 PUSH2 0x19EA JUMP JUMPDEST PUSH1 0x24 CALLDATALOAD PUSH8 0xFFFFFFFFFFFFFFFF DUP2 GT PUSH2 0x1C1 JUMPI PUSH2 0xA3B PUSH2 0x9CC PUSH32 0x2DACEF4D2C121E599A3E080C58437B103D67B8AD9E118317C3F4F92B4AF6F576 SWAP3 CALLDATASIZE SWAP1 PUSH1 0x4 ADD PUSH2 0x1A55 JUMP JUMPDEST PUSH1 0x44 CALLDATALOAD SWAP4 PUSH2 0x9D8 PUSH2 0x1BEA JUMP JUMPDEST PUSH1 0x1 DUP1 PUSH1 0xA0 SHL SUB AND SWAP4 DUP5 PUSH1 0x0 MSTORE PUSH1 0x5 PUSH1 0x20 MSTORE DUP1 PUSH1 0x40 PUSH1 0x0 KECCAK256 DUP4 MLOAD PUSH1 0x20 DUP6 ADD KECCAK256 PUSH32 0x9E36A3CC7D8C812D07501DD19DABEB3D8317632E6467A793E3650C433DE4B57B DUP2 EQ PUSH1 0x0 EQ PUSH2 0xA46 JUMPI POP PUSH1 0x9 ADD SSTORE JUMPDEST PUSH1 0x40 MLOAD SWAP3 DUP4 SWAP3 PUSH1 0x40 DUP5 MSTORE PUSH1 0x40 DUP5 ADD SWAP1 PUSH2 0x1B33 JUMP JUMPDEST SWAP1 PUSH1 0x20 DUP4 ADD MSTORE SUB SWAP1 LOG2 STOP JUMPDEST PUSH32 0x7C2018787885BA09A344D3EFF8CA42C8341EE3AB6E5048B32845D70898CB4DB7 DUP2 SUB PUSH2 0xA77 JUMPI POP PUSH1 0xC ADD SSTORE PUSH2 0xA27 JUMP JUMPDEST PUSH32 0x5399A23AAE8F64846550B1C6B414082D7C72CA7AD0450ACDC6437E28EE5806A7 DUP2 SUB PUSH2 0xAA8 JUMPI POP PUSH1 0xB ADD SSTORE PUSH2 0xA27 JUMP JUMPDEST PUSH32 0x142E8BDD2CEA082964F29884AC2E726272A82403140FE1C907E0F14421953A48 DUP2 SUB PUSH2 0xAD9 JUMPI POP PUSH1 0xD ADD SSTORE PUSH2 0xA27 JUMP JUMPDEST PUSH32 0xABB395850DC85D38FA0604C5CA361DA41B32487DDA0CFF2A65C36F198F257DAC EQ PUSH2 0xB07 JUMPI JUMPDEST POP POP PUSH2 0xA27 JUMP JUMPDEST PUSH1 0xE ADD SSTORE DUP1 DUP7 PUSH2 0xB00 JUMP JUMPDEST CALLVALUE PUSH2 0x1C1 JUMPI PUSH1 0x0 CALLDATASIZE PUSH1 0x3 NOT ADD SLT PUSH2 0x1C1 JUMPI PUSH1 0x1 SLOAD PUSH1 0x40 MLOAD PUSH1 0x1 PUSH1 0x1 PUSH1 0xA0 SHL SUB SWAP1 SWAP2 AND DUP2 MSTORE PUSH1 0x20 SWAP1 RETURN JUMPDEST CALLVALUE PUSH2 0x1C1 JUMPI PUSH1 0x20 CALLDATASIZE PUSH1 0x3 NOT ADD SLT PUSH2 0x1C1 JUMPI PUSH1 0x20 PUSH2 0x1B9 PUSH2 0xB59 PUSH2 0x19EA JUMP JUMPDEST PUSH2 0x1C63 JUMP JUMPDEST CALLVALUE PUSH2 0x1C1 JUMPI PUSH1 0x40 CALLDATASIZE PUSH1 0x3 NOT ADD SLT PUSH2 0x1C1 JUMPI PUSH1 0x20 PUSH2 0x1B9 PUSH2 0xB7C PUSH2 0x19EA JUMP JUMPDEST PUSH1 0x24 CALLDATALOAD SWAP1 PUSH2 0x1DBB JUMP JUMPDEST CALLVALUE PUSH2 0x1C1 JUMPI PUSH1 0x60 CALLDATASIZE PUSH1 0x3 NOT ADD SLT PUSH2 0x1C1 JUMPI PUSH2 0xB9E PUSH2 0x19EA JUMP JUMPDEST PUSH2 0xBA6 PUSH2 0x1A00 JUMP JUMPDEST PUSH1 0x44 CALLDATALOAD PUSH2 0xBB1 PUSH2 0x2319 JUMP JUMPDEST PUSH2 0xBBA DUP4 PUSH2 0x29C6 JUMP JUMPDEST SWAP1 ISZERO PUSH2 0xDB4 JUMPI PUSH1 0x1 DUP1 PUSH1 0xA0 SHL SUB DUP1 DUP6 AND SWAP3 DUP4 PUSH1 0x0 MSTORE PUSH1 0x20 PUSH1 0x6 DUP2 MSTORE PUSH1 0x40 PUSH1 0x0 KECCAK256 SWAP7 PUSH1 0xFF PUSH1 0x4 DUP10 ADD SLOAD AND ISZERO DUP1 ISZERO PUSH2 0xDA7 JUMPI JUMPDEST ISZERO PUSH2 0xD6C JUMPI DUP5 PUSH2 0xBFA SWAP2 PUSH2 0x1DBB JUMP JUMPDEST SWAP3 PUSH2 0xC04 DUP8 PUSH2 0x26F6 JUMP JUMPDEST PUSH2 0xC0E DUP5 DUP10 PUSH2 0x2927 JUMP JUMPDEST PUSH2 0x2710 SWAP1 DUP7 DUP3 ADD DUP1 DUP4 GT PUSH2 0x29D JUMPI PUSH2 0xC25 SWAP2 PUSH2 0x1C16 JUMP JUMPDEST SWAP2 DUP2 DUP2 MUL SWAP2 DUP2 DUP4 DIV EQ SWAP1 ISZERO OR ISZERO PUSH2 0x29D JUMPI PUSH2 0xC3F SWAP2 PUSH2 0x1C29 JUMP JUMPDEST SWAP7 AND SWAP7 DUP8 PUSH1 0x0 MSTORE DUP1 DUP3 MSTORE PUSH1 0x40 PUSH1 0x0 KECCAK256 SLOAD DUP8 GT PUSH2 0xD27 JUMPI PUSH1 0x7 SWAP1 PUSH2 0xC64 DUP5 ADDRESS CALLER DUP13 PUSH2 0x2262 JUMP JUMPDEST DUP9 PUSH1 0x0 MSTORE DUP1 DUP4 MSTORE PUSH1 0x40 PUSH1 0x0 KECCAK256 PUSH2 0xC7B DUP10 DUP3 SLOAD PUSH2 0x1C49 JUMP JUMPDEST SWAP1 SSTORE DUP9 PUSH1 0x0 MSTORE PUSH1 0x1 DUP2 ADD DUP4 MSTORE PUSH1 0x40 PUSH1 0x0 KECCAK256 PUSH2 0xC97 DUP6 DUP3 SLOAD PUSH2 0x1C49 JUMP JUMPDEST SWAP1 SSTORE ADD SWAP1 DUP2 SLOAD PUSH1 0x1 DUP2 ADD DUP1 SWAP2 GT PUSH2 0x29D JUMPI PUSH32 0xE04D542432D45C3F3F92FD452FE5CEAA2B847F344BA466CDFF8F6288AD1C24B5 SWAP6 DUP6 PUSH32 0x7050EBC725C1F82900D703C39BFA0140A8434DEEFD2A0CCF97D8377EB25232A8 SWAP4 PUSH1 0x40 SWAP4 DUP11 SWAP7 SSTORE PUSH2 0xCFF DUP12 DUP14 CALLER SWAP1 PUSH2 0x233C JUMP JUMPDEST DUP4 MLOAD SWAP3 DUP4 MSTORE DUP3 ADD MSTORE LOG2 PUSH1 0x40 DUP1 MLOAD SWAP6 DUP7 MSTORE PUSH1 0x20 DUP7 ADD SWAP2 SWAP1 SWAP2 MSTORE DUP5 ADD MSTORE CALLER SWAP3 PUSH1 0x60 SWAP1 LOG4 PUSH1 0x1 PUSH1 0x0 SSTORE STOP JUMPDEST PUSH1 0x40 MLOAD PUSH3 0x461BCD PUSH1 0xE5 SHL DUP2 MSTORE PUSH1 0x4 DUP2 ADD DUP4 SWAP1 MSTORE PUSH1 0x17 PUSH1 0x24 DUP3 ADD MSTORE PUSH32 0x496E73756666696369656E7420636F6C6C61746572616C000000000000000000 PUSH1 0x44 DUP3 ADD MSTORE PUSH1 0x64 SWAP1 REVERT JUMPDEST PUSH1 0x40 MLOAD PUSH3 0x461BCD PUSH1 0xE5 SHL DUP2 MSTORE PUSH1 0x4 DUP2 ADD DUP4 SWAP1 MSTORE PUSH1 0x13 PUSH1 0x24 DUP3 ADD MSTORE PUSH19 0x477261636520706572696F6420616374697665 PUSH1 0x68 SHL PUSH1 0x44 DUP3 ADD MSTORE PUSH1 0x64 SWAP1 REVERT JUMPDEST POP PUSH1 0x5 DUP9 ADD SLOAD TIMESTAMP GT PUSH2 0xBEB JUMP JUMPDEST PUSH1 0x40 MLOAD PUSH4 0x32C9FEA9 PUSH1 0xE1 SHL DUP2 MSTORE PUSH1 0x4 SWAP1 REVERT JUMPDEST CALLVALUE PUSH2 0x1C1 JUMPI PUSH1 0x20 CALLDATASIZE PUSH1 0x3 NOT ADD SLT PUSH2 0x1C1 JUMPI PUSH2 0xDE7 PUSH2 0xDE2 PUSH2 0x19EA JUMP JUMPDEST PUSH2 0x238C JUMP JUMPDEST STOP JUMPDEST CALLVALUE PUSH2 0x1C1 JUMPI PUSH1 0x0 CALLDATASIZE PUSH1 0x3 NOT ADD SLT PUSH2 0x1C1 JUMPI PUSH2 0xE02 PUSH2 0x1BEA JUMP JUMPDEST PUSH1 0x1 DUP1 SLOAD PUSH1 0x1 PUSH1 0x1 PUSH1 0xA0 SHL SUB NOT DUP2 AND SWAP1 SWAP2 SSTORE PUSH1 0x0 SWAP1 PUSH1 0x1 PUSH1 0x1 PUSH1 0xA0 SHL SUB AND PUSH32 0x8BE0079C531659141344CD1FD0A4F28419497F9722A3DAAFE3B4186F6B6457E0 DUP3 DUP1 LOG3 STOP JUMPDEST CALLVALUE PUSH2 0x1C1 JUMPI PUSH1 0x20 CALLDATASIZE PUSH1 0x3 NOT ADD SLT PUSH2 0x1C1 JUMPI PUSH2 0xDE7 PUSH2 0xE62 PUSH2 0x19EA JUMP JUMPDEST PUSH2 0x211B JUMP JUMPDEST CALLVALUE PUSH2 0x1C1 JUMPI PUSH1 0x40 CALLDATASIZE PUSH1 0x3 NOT ADD SLT PUSH2 0x1C1 JUMPI PUSH2 0xE80 PUSH2 0x19EA JUMP JUMPDEST PUSH2 0xE88 PUSH2 0x1A00 JUMP JUMPDEST SWAP1 PUSH1 0x1 DUP1 PUSH1 0xA0 SHL SUB DUP1 SWAP2 AND PUSH1 0x0 MSTORE PUSH1 0x8 PUSH1 0x20 MSTORE PUSH1 0x40 PUSH1 0x0 KECCAK256 SWAP2 AND PUSH1 0x0 MSTORE PUSH1 0x20 MSTORE PUSH1 0x20 PUSH1 0x40 PUSH1 0x0 KECCAK256 SLOAD PUSH1 0x40 MLOAD SWAP1 DUP2 MSTORE RETURN JUMPDEST CALLVALUE PUSH2 0x1C1 JUMPI PUSH2 0x240 CALLDATASIZE PUSH1 0x3 NOT ADD SLT PUSH2 0x1C1 JUMPI PUSH2 0xED2 PUSH2 0x19EA JUMP JUMPDEST PUSH1 0x64 CALLDATALOAD PUSH8 0xFFFFFFFFFFFFFFFF DUP2 GT PUSH2 0x1C1 JUMPI PUSH2 0xEF2 SWAP1 CALLDATASIZE SWAP1 PUSH1 0x4 ADD PUSH2 0x1A55 JUMP JUMPDEST SWAP1 PUSH1 0x84 CALLDATALOAD DUP1 ISZERO ISZERO DUP2 SUB PUSH2 0x1C1 JUMPI PUSH1 0xA4 CALLDATALOAD SWAP3 DUP4 ISZERO ISZERO DUP5 SUB PUSH2 0x1C1 JUMPI PUSH2 0x180 CALLDATASIZE PUSH1 0xC3 NOT ADD SLT PUSH2 0x1C1 JUMPI PUSH1 0x40 MLOAD SWAP4 PUSH2 0xF26 DUP6 PUSH2 0x1A16 JUMP JUMPDEST PUSH1 0xC4 CALLDATALOAD DUP6 MSTORE PUSH1 0xE4 CALLDATALOAD PUSH1 0x20 DUP7 ADD MSTORE PUSH2 0x104 CALLDATALOAD PUSH1 0x40 DUP7 ADD MSTORE PUSH2 0x124 CALLDATALOAD PUSH1 0x60 DUP7 ADD MSTORE PUSH2 0x144 CALLDATALOAD PUSH1 0x80 DUP7 ADD MSTORE PUSH2 0x164 CALLDATALOAD PUSH1 0xA0 DUP7 ADD MSTORE PUSH2 0x184 CALLDATALOAD PUSH1 0xC0 DUP7 ADD MSTORE PUSH2 0x1A4 CALLDATALOAD PUSH1 0xE0 DUP7 ADD MSTORE PUSH2 0x1C4 CALLDATALOAD PUSH2 0x100 DUP7 ADD MSTORE PUSH2 0x1E4 CALLDATALOAD PUSH2 0x120 DUP7 ADD MSTORE PUSH2 0x204 CALLDATALOAD PUSH2 0x140 DUP7 ADD MSTORE PUSH2 0x224 CALLDATALOAD PUSH2 0x160 DUP7 ADD MSTORE PUSH2 0xF99 PUSH2 0x1BEA JUMP JUMPDEST PUSH1 0x44 CALLDATALOAD PUSH1 0x24 CALLDATALOAD GT PUSH2 0x146D JUMPI PUSH2 0x251C PUSH1 0x44 CALLDATALOAD GT PUSH2 0x1433 JUMPI DUP5 MLOAD PUSH1 0x60 DUP7 ADD MLOAD LT PUSH2 0x13F9 JUMPI PUSH1 0x80 DUP6 ADD MLOAD PUSH1 0xA0 DUP7 ADD MLOAD LT PUSH2 0x13BC JUMPI PUSH1 0xE0 DUP6 ADD MLOAD PUSH2 0x120 DUP7 ADD MLOAD LT PUSH2 0x137F JUMPI PUSH1 0x40 MLOAD SWAP3 DUP4 PUSH2 0x200 DUP2 ADD LT PUSH8 0xFFFFFFFFFFFFFFFF PUSH2 0x200 DUP7 ADD GT OR PUSH2 0x12A1 JUMPI PUSH2 0x200 DUP5 ADD PUSH1 0x40 MSTORE PUSH1 0x1 DUP5 MSTORE ISZERO ISZERO PUSH1 0x20 DUP5 ADD MSTORE ISZERO ISZERO PUSH1 0x40 DUP4 ADD MSTORE PUSH1 0x24 CALLDATALOAD PUSH1 0x60 DUP4 ADD MSTORE PUSH1 0x44 CALLDATALOAD PUSH1 0x80 DUP4 ADD MSTORE PUSH1 0xA0 DUP3 ADD MSTORE TIMESTAMP PUSH1 0xC0 DUP3 ADD MSTORE PUSH1 0x0 PUSH1 0xE0 DUP3 ADD MSTORE PUSH1 0x0 PUSH2 0x100 DUP3 ADD MSTORE PUSH1 0x0 PUSH2 0x120 DUP3 ADD MSTORE PUSH2 0x3E8 PUSH2 0x140 DUP3 ADD MSTORE DUP3 PUSH2 0x160 DUP3 ADD MSTORE PUSH8 0x16345785D8A0000 PUSH2 0x180 DUP3 ADD MSTORE TIMESTAMP PUSH2 0x1A0 DUP3 ADD MSTORE PUSH4 0x5F5E100 PUSH2 0x1C0 DUP3 ADD MSTORE PUSH4 0x5F5E100 PUSH2 0x1E0 DUP3 ADD MSTORE PUSH1 0x1 DUP1 PUSH1 0xA0 SHL SUB DUP3 AND PUSH1 0x0 MSTORE PUSH1 0x5 PUSH1 0x20 MSTORE PUSH1 0x40 PUSH1 0x0 KECCAK256 SWAP1 DUP1 MLOAD ISZERO ISZERO DUP3 SLOAD SWAP1 PUSH1 0x20 DUP4 ADD MLOAD ISZERO ISZERO SWAP2 PUSH1 0xFF PUSH2 0xFF00 PUSH3 0xFF0000 PUSH1 0x40 DUP8 ADD MLOAD ISZERO ISZERO PUSH1 0x10 SHL AND SWAP5 PUSH1 0x8 SHL AND SWAP3 AND SWAP1 PUSH3 0xFFFFFF NOT AND OR OR OR DUP3 SSTORE PUSH1 0x60 DUP2 ADD MLOAD PUSH1 0x1 DUP4 ADD SSTORE PUSH1 0x80 DUP2 ADD MLOAD PUSH1 0x2 DUP4 ADD SSTORE PUSH1 0xA0 DUP2 ADD MLOAD DUP1 MLOAD SWAP1 PUSH8 0xFFFFFFFFFFFFFFFF DUP3 GT PUSH2 0x12A1 JUMPI PUSH2 0x1106 PUSH1 0x3 DUP6 ADD SLOAD PUSH2 0x1AF9 JUMP JUMPDEST PUSH1 0x1F DUP2 GT PUSH2 0x1338 JUMPI JUMPDEST POP PUSH1 0x20 SWAP1 PUSH1 0x1F DUP4 GT PUSH1 0x1 EQ PUSH2 0x12C2 JUMPI SWAP2 DUP1 PUSH1 0x18 SWAP5 SWAP3 PUSH2 0x1E0 SWAP5 PUSH1 0x0 SWAP3 PUSH2 0x12B7 JUMPI JUMPDEST POP POP DUP2 PUSH1 0x1 SHL SWAP2 PUSH1 0x0 NOT SWAP1 PUSH1 0x3 SHL SHR NOT AND OR PUSH1 0x3 DUP6 ADD SSTORE JUMPDEST PUSH1 0xC0 DUP2 ADD MLOAD PUSH1 0x4 DUP6 ADD SSTORE PUSH1 0xE0 DUP2 ADD MLOAD PUSH1 0x5 DUP6 ADD SSTORE PUSH2 0x100 DUP2 ADD MLOAD PUSH1 0x6 DUP6 ADD SSTORE PUSH2 0x120 DUP2 ADD MLOAD PUSH1 0x7 DUP6 ADD SSTORE PUSH2 0x140 DUP2 ADD MLOAD PUSH1 0x8 DUP6 ADD SSTORE PUSH2 0x160 DUP1 DUP3 ADD MLOAD DUP1 MLOAD PUSH1 0x9 DUP8 ADD SSTORE PUSH1 0x20 DUP2 ADD MLOAD PUSH1 0xA DUP8 ADD SSTORE PUSH1 0x40 DUP2 ADD MLOAD PUSH1 0xB DUP8 ADD SSTORE PUSH1 0x60 DUP2 ADD MLOAD PUSH1 0xC DUP8 ADD SSTORE PUSH1 0x80 DUP2 ADD MLOAD PUSH1 0xD DUP8 ADD SSTORE PUSH1 0xA0 DUP2 ADD MLOAD PUSH1 0xE DUP8 ADD SSTORE PUSH1 0xC0 DUP2 ADD MLOAD PUSH1 0xF DUP8 ADD SSTORE PUSH1 0xE0 DUP2 ADD MLOAD PUSH1 0x10 DUP8 ADD SSTORE PUSH2 0x100 DUP2 ADD MLOAD PUSH1 0x11 DUP8 ADD SSTORE PUSH2 0x120 DUP2 ADD MLOAD PUSH1 0x12 DUP8 ADD SSTORE PUSH2 0x140 DUP2 ADD MLOAD PUSH1 0x13 DUP8 ADD SSTORE ADD MLOAD PUSH1 0x14 DUP6 ADD SSTORE PUSH2 0x180 DUP2 ADD MLOAD PUSH1 0x15 DUP6 ADD SSTORE PUSH2 0x1A0 DUP2 ADD MLOAD PUSH1 0x16 DUP6 ADD SSTORE PUSH2 0x1C0 DUP2 ADD MLOAD PUSH1 0x17 DUP6 ADD SSTORE ADD MLOAD SWAP2 ADD SSTORE PUSH1 0x7 SLOAD PUSH9 0x10000000000000000 DUP2 LT ISZERO PUSH2 0x12A1 JUMPI PUSH32 0x13C9FBD7B4C5E22C3D41C025934CEF3CE89026482DD3EDFF2C197B7337D3859A SWAP2 PUSH2 0x1268 DUP3 PUSH1 0x1 PUSH2 0x180 SWAP5 ADD PUSH1 0x7 SSTORE PUSH2 0x1AAC JUMP JUMPDEST DUP2 SLOAD PUSH1 0x1 PUSH1 0x1 PUSH1 0xA0 SHL SUB DUP5 DUP2 AND PUSH1 0x3 SWAP4 SWAP1 SWAP4 SHL SWAP3 DUP4 SHL SWAP3 SHL NOT AND OR SWAP1 SSTORE PUSH1 0x40 MLOAD SWAP4 PUSH2 0x1294 SWAP1 DUP6 SWAP1 PUSH2 0x1B73 JUMP JUMPDEST PUSH1 0x1 PUSH1 0x1 PUSH1 0xA0 SHL SUB AND SWAP3 LOG2 STOP JUMPDEST PUSH4 0x4E487B71 PUSH1 0xE0 SHL PUSH1 0x0 MSTORE PUSH1 0x41 PUSH1 0x4 MSTORE PUSH1 0x24 PUSH1 0x0 REVERT JUMPDEST ADD MLOAD SWAP1 POP DUP9 DUP1 PUSH2 0x1130 JUMP JUMPDEST SWAP1 PUSH1 0x3 DUP6 ADD PUSH1 0x0 MSTORE PUSH1 0x20 PUSH1 0x0 KECCAK256 SWAP2 PUSH1 0x0 JUMPDEST PUSH1 0x1F NOT DUP6 AND DUP2 LT PUSH2 0x1320 JUMPI POP SWAP3 PUSH1 0x18 SWAP5 SWAP3 PUSH1 0x1 SWAP3 PUSH2 0x1E0 SWAP6 DUP4 PUSH1 0x1F NOT DUP2 AND LT PUSH2 0x1307 JUMPI JUMPDEST POP POP POP DUP2 SHL ADD PUSH1 0x3 DUP6 ADD SSTORE PUSH2 0x1148 JUMP JUMPDEST ADD MLOAD PUSH1 0x0 NOT PUSH1 0xF8 DUP5 PUSH1 0x3 SHL AND SHR NOT AND SWAP1 SSTORE DUP9 DUP1 DUP1 PUSH2 0x12F7 JUMP JUMPDEST SWAP2 SWAP3 PUSH1 0x20 PUSH1 0x1 DUP2 SWAP3 DUP7 DUP6 ADD MLOAD DUP2 SSTORE ADD SWAP5 ADD SWAP3 ADD PUSH2 0x12D3 JUMP JUMPDEST PUSH1 0x3 DUP6 ADD PUSH1 0x0 MSTORE PUSH1 0x20 PUSH1 0x0 KECCAK256 PUSH1 0x1F DUP5 ADD PUSH1 0x5 SHR DUP2 ADD PUSH1 0x20 DUP6 LT PUSH2 0x1378 JUMPI JUMPDEST PUSH1 0x1F DUP4 ADD PUSH1 0x5 SHR DUP3 ADD DUP2 LT PUSH2 0x136C JUMPI POP POP PUSH2 0x110F JUMP JUMPDEST PUSH1 0x0 DUP2 SSTORE PUSH1 0x1 ADD PUSH2 0x1356 JUMP JUMPDEST POP DUP1 PUSH2 0x1356 JUMP JUMPDEST PUSH1 0x40 MLOAD PUSH3 0x461BCD PUSH1 0xE5 SHL DUP2 MSTORE PUSH1 0x20 PUSH1 0x4 DUP3 ADD MSTORE PUSH1 0x15 PUSH1 0x24 DUP3 ADD MSTORE PUSH21 0x496E76616C69642068616972637574206375727665 PUSH1 0x58 SHL PUSH1 0x44 DUP3 ADD MSTORE PUSH1 0x64 SWAP1 REVERT JUMPDEST PUSH1 0x40 MLOAD PUSH3 0x461BCD PUSH1 0xE5 SHL DUP2 MSTORE PUSH1 0x20 PUSH1 0x4 DUP3 ADD MSTORE PUSH1 0x15 PUSH1 0x24 DUP3 ADD MSTORE PUSH21 0x496E76616C69642070656E616C7479206375727665 PUSH1 0x58 SHL PUSH1 0x44 DUP3 ADD MSTORE PUSH1 0x64 SWAP1 REVERT JUMPDEST PUSH1 0x40 MLOAD PUSH3 0x461BCD PUSH1 0xE5 SHL DUP2 MSTORE PUSH1 0x20 PUSH1 0x4 DUP3 ADD MSTORE PUSH1 0x12 PUSH1 0x24 DUP3 ADD MSTORE PUSH18 0x496E76616C69642072617465206375727665 PUSH1 0x70 SHL PUSH1 0x44 DUP3 ADD MSTORE PUSH1 0x64 SWAP1 REVERT JUMPDEST PUSH1 0x40 MLOAD PUSH3 0x461BCD PUSH1 0xE5 SHL DUP2 MSTORE PUSH1 0x20 PUSH1 0x4 DUP3 ADD MSTORE PUSH1 0x12 PUSH1 0x24 DUP3 ADD MSTORE PUSH18 0xA8D0E4CAE6D0DED8C840E8DEDE40D0D2CED PUSH1 0x73 SHL PUSH1 0x44 DUP3 ADD MSTORE PUSH1 0x64 SWAP1 REVERT JUMPDEST PUSH1 0x40 MLOAD PUSH3 0x461BCD PUSH1 0xE5 SHL DUP2 MSTORE PUSH1 0x20 PUSH1 0x4 DUP3 ADD MSTORE PUSH1 0xB PUSH1 0x24 DUP3 ADD MSTORE PUSH11 0x24B73B30B634B210262A2B PUSH1 0xA9 SHL PUSH1 0x44 DUP3 ADD MSTORE PUSH1 0x64 SWAP1 REVERT JUMPDEST CALLVALUE PUSH2 0x1C1 JUMPI PUSH1 0x40 CALLDATASIZE PUSH1 0x3 NOT ADD SLT PUSH2 0x1C1 JUMPI PUSH2 0x14B9 PUSH2 0x19EA JUMP JUMPDEST PUSH1 0x24 CALLDATALOAD PUSH2 0x14C4 PUSH2 0x2319 JUMP JUMPDEST DUP1 ISZERO PUSH2 0x44C JUMPI PUSH1 0x1 DUP1 PUSH1 0xA0 SHL SUB DUP3 AND SWAP2 DUP3 PUSH1 0x0 MSTORE PUSH1 0x20 SWAP1 PUSH1 0x5 DUP3 MSTORE PUSH1 0x40 PUSH1 0x0 KECCAK256 SWAP1 DUP2 SLOAD PUSH1 0xFF DUP2 AND ISZERO SWAP1 DUP2 ISZERO PUSH2 0x1679 JUMPI JUMPDEST POP PUSH2 0x1667 JUMPI PUSH2 0x1502 DUP2 PUSH2 0x238C JUMP JUMPDEST PUSH2 0x150B DUP2 PUSH2 0x211B JUMP JUMPDEST PUSH2 0x1531 PUSH2 0x1517 CALLER PUSH2 0x24F2 JUMP JUMPDEST SWAP2 PUSH2 0x152B DUP7 PUSH2 0x1525 CALLER PUSH2 0x2677 JUMP JUMPDEST SWAP3 PUSH2 0x2927 JUMP JUMPDEST SWAP1 PUSH2 0x1C56 JUMP JUMPDEST SWAP2 DUP2 DUP4 GT PUSH2 0x41E JUMPI PUSH1 0x40 MLOAD PUSH4 0x70A08231 PUSH1 0xE0 SHL DUP2 MSTORE ADDRESS PUSH1 0x4 DUP3 ADD MSTORE DUP5 DUP2 PUSH1 0x24 DUP2 DUP11 GAS STATICCALL SWAP1 DUP2 ISZERO PUSH2 0x165B JUMPI PUSH1 0x0 SWAP2 PUSH2 0x162E JUMPI JUMPDEST POP DUP6 GT PUSH2 0x43A JUMPI PUSH1 0x6 SWAP1 CALLER PUSH1 0x0 MSTORE DUP2 DUP6 MSTORE PUSH1 0x1 PUSH1 0x40 PUSH1 0x0 KECCAK256 ADD DUP8 PUSH1 0x0 MSTORE DUP6 MSTORE PUSH1 0x40 PUSH1 0x0 KECCAK256 PUSH2 0x1592 DUP8 DUP3 SLOAD PUSH2 0x1C56 JUMP JUMPDEST SWAP1 SSTORE CALLER PUSH1 0x0 MSTORE DUP2 DUP6 MSTORE PUSH1 0x2 PUSH1 0x40 PUSH1 0x0 KECCAK256 ADD DUP8 PUSH1 0x0 MSTORE DUP6 MSTORE TIMESTAMP PUSH1 0x40 PUSH1 0x0 KECCAK256 SSTORE ADD PUSH2 0x15BC DUP6 DUP3 SLOAD PUSH2 0x1C56 JUMP JUMPDEST SWAP1 SSTORE DUP1 ISZERO PUSH2 0x1624 JUMPI PUSH2 0x2710 SWAP2 DUP3 DUP2 MUL SWAP3 DUP2 DUP5 DIV EQ SWAP1 ISZERO OR ISZERO PUSH2 0x29D JUMPI PUSH2 0x15E1 SWAP2 PUSH2 0x1C29 JUMP JUMPDEST SWAP1 JUMPDEST PUSH2 0x15EE DUP4 CALLER DUP7 PUSH2 0x233C JUMP JUMPDEST PUSH1 0x40 MLOAD SWAP3 DUP4 MSTORE DUP3 ADD MSTORE PUSH32 0xC14E9E6B4D98A542B05A0F6B64ACD5F4CBDB914BE88432D87486B664E97071A7 PUSH1 0x40 CALLER SWAP3 LOG3 PUSH1 0x1 PUSH1 0x0 SSTORE STOP JUMPDEST POP POP PUSH1 0x0 SWAP1 PUSH2 0x15E3 JUMP JUMPDEST SWAP1 POP DUP5 DUP2 DUP2 RETURNDATASIZE DUP4 GT PUSH2 0x1654 JUMPI JUMPDEST PUSH2 0x1645 DUP2 DUP4 PUSH2 0x1A33 JUMP JUMPDEST DUP2 ADD SUB SLT PUSH2 0x1C1 JUMPI MLOAD DUP8 PUSH2 0x1563 JUMP JUMPDEST POP RETURNDATASIZE PUSH2 0x163B JUMP JUMPDEST PUSH1 0x40 MLOAD RETURNDATASIZE PUSH1 0x0 DUP3 RETURNDATACOPY RETURNDATASIZE SWAP1 REVERT JUMPDEST PUSH1 0x40 MLOAD PUSH4 0x981A2A2B PUSH1 0xE0 SHL DUP2 MSTORE PUSH1 0x4 SWAP1 REVERT JUMPDEST PUSH1 0xFF SWAP2 POP PUSH1 0x8 SHR AND ISZERO DUP7 PUSH2 0x14F4 JUMP JUMPDEST CALLVALUE PUSH2 0x1C1 JUMPI PUSH1 0x40 CALLDATASIZE PUSH1 0x3 NOT ADD SLT PUSH2 0x1C1 JUMPI PUSH2 0x16A1 PUSH2 0x19EA JUMP JUMPDEST PUSH1 0x24 CALLDATALOAD PUSH2 0x16AC PUSH2 0x2319 JUMP JUMPDEST DUP1 ISZERO PUSH2 0x44C JUMPI PUSH1 0x1 DUP1 PUSH1 0xA0 SHL SUB DUP3 AND SWAP2 DUP3 PUSH1 0x0 MSTORE PUSH1 0x20 SWAP1 PUSH1 0x5 DUP3 MSTORE PUSH1 0x40 PUSH1 0x0 KECCAK256 PUSH1 0xFF DUP2 SLOAD AND ISZERO PUSH2 0x1667 JUMPI PUSH2 0x16E5 DUP3 PUSH2 0xE62 PUSH1 0x5 SWAP5 PUSH2 0x238C JUMP JUMPDEST PUSH2 0x16F1 DUP5 ADDRESS CALLER DUP9 PUSH2 0x2262 JUMP JUMPDEST CALLER PUSH1 0x0 MSTORE PUSH1 0x6 DUP4 MSTORE PUSH1 0x40 PUSH1 0x0 KECCAK256 DUP6 PUSH1 0x0 MSTORE DUP4 MSTORE PUSH1 0x40 PUSH1 0x0 KECCAK256 PUSH2 0x1714 DUP6 DUP3 SLOAD PUSH2 0x1C56 JUMP JUMPDEST SWAP1 SSTORE CALLER PUSH1 0x0 MSTORE PUSH1 0x6 DUP4 MSTORE PUSH1 0x3 PUSH1 0x40 PUSH1 0x0 KECCAK256 ADD DUP6 PUSH1 0x0 MSTORE DUP4 MSTORE PUSH1 0x40 PUSH1 0x0 KECCAK256 SLOAD ISZERO PUSH2 0x1796 JUMPI JUMPDEST ADD PUSH2 0x1744 DUP4 DUP3 SLOAD PUSH2 0x1C56 JUMP JUMPDEST SWAP1 SSTORE CALLER PUSH1 0x0 MSTORE PUSH1 0x6 DUP2 MSTORE PUSH1 0x40 PUSH1 0x0 KECCAK256 DUP4 PUSH1 0x0 MSTORE DUP2 MSTORE PUSH1 0x40 PUSH1 0x0 KECCAK256 SLOAD SWAP1 PUSH1 0x40 MLOAD SWAP3 DUP4 MSTORE DUP3 ADD MSTORE PUSH32 0xF5681F9D0DB1B911AC18EE83D515A1CF1051853A9EAE418316A2FDF7DEA427C5 PUSH1 0x40 CALLER SWAP3 LOG3 PUSH1 0x1 PUSH1 0x0 SSTORE STOP JUMPDEST CALLER PUSH1 0x0 MSTORE PUSH1 0x6 DUP4 MSTORE PUSH1 0x3 PUSH1 0x40 PUSH1 0x0 KECCAK256 ADD DUP6 PUSH1 0x0 MSTORE DUP4 MSTORE TIMESTAMP PUSH1 0x40 PUSH1 0x0 KECCAK256 SSTORE PUSH2 0x1738 JUMP JUMPDEST CALLVALUE PUSH2 0x1C1 JUMPI PUSH1 0x0 CALLDATASIZE PUSH1 0x3 NOT ADD SLT PUSH2 0x1C1 JUMPI PUSH1 0x2 SLOAD PUSH1 0x40 MLOAD PUSH1 0x1 PUSH1 0x1 PUSH1 0xA0 SHL SUB SWAP1 SWAP2 AND DUP2 MSTORE PUSH1 0x20 SWAP1 RETURN JUMPDEST CALLVALUE PUSH2 0x1C1 JUMPI PUSH1 0x0 CALLDATASIZE PUSH1 0x3 NOT ADD SLT PUSH2 0x1C1 JUMPI PUSH1 0x20 PUSH1 0x3 SLOAD PUSH1 0x40 MLOAD SWAP1 DUP2 MSTORE RETURN JUMPDEST CALLVALUE PUSH2 0x1C1 JUMPI PUSH1 0x40 CALLDATASIZE PUSH1 0x3 NOT ADD SLT PUSH2 0x1C1 JUMPI PUSH2 0x1818 PUSH2 0x19EA JUMP JUMPDEST PUSH1 0x24 CALLDATALOAD PUSH2 0x1823 PUSH2 0x2319 JUMP JUMPDEST DUP1 ISZERO PUSH2 0x44C JUMPI PUSH2 0x1832 DUP3 PUSH2 0x238C JUMP JUMPDEST CALLER PUSH1 0x0 MSTORE PUSH1 0x6 SWAP1 PUSH1 0x20 SWAP1 DUP3 DUP3 MSTORE PUSH1 0x1 PUSH1 0x40 PUSH1 0x0 KECCAK256 ADD SWAP4 PUSH1 0x1 DUP1 PUSH1 0xA0 SHL SUB AND SWAP4 DUP5 PUSH1 0x0 MSTORE DUP3 MSTORE PUSH1 0x40 PUSH1 0x0 KECCAK256 SLOAD SWAP1 DUP2 ISZERO PUSH2 0x43A JUMPI DUP2 DUP2 GT ISZERO PUSH2 0x1971 JUMPI POP SWAP2 JUMPDEST PUSH2 0x187B DUP4 ADDRESS CALLER DUP8 PUSH2 0x2262 JUMP JUMPDEST CALLER PUSH1 0x0 MSTORE DUP1 DUP3 MSTORE PUSH1 0x1 PUSH1 0x40 PUSH1 0x0 KECCAK256 ADD DUP5 PUSH1 0x0 MSTORE DUP3 MSTORE PUSH1 0x40 PUSH1 0x0 KECCAK256 PUSH2 0x18A0 DUP5 DUP3 SLOAD PUSH2 0x1C49 JUMP JUMPDEST SWAP1 SSTORE DUP4 PUSH1 0x0 MSTORE PUSH1 0x5 DUP3 MSTORE DUP1 PUSH1 0x40 PUSH1 0x0 KECCAK256 ADD PUSH2 0x18BC DUP5 DUP3 SLOAD PUSH2 0x1C49 JUMP JUMPDEST SWAP1 SSTORE CALLER PUSH1 0x0 MSTORE DUP1 DUP3 MSTORE PUSH1 0x1 PUSH1 0x40 PUSH1 0x0 KECCAK256 ADD DUP5 PUSH1 0x0 MSTORE DUP3 MSTORE PUSH1 0x40 PUSH1 0x0 KECCAK256 SLOAD ISZERO DUP1 PUSH2 0x1958 JUMPI JUMPDEST PUSH2 0x1936 JUMPI JUMPDEST CALLER PUSH1 0x0 MSTORE DUP2 MSTORE PUSH1 0x1 PUSH1 0x40 PUSH1 0x0 KECCAK256 ADD DUP4 PUSH1 0x0 MSTORE DUP2 MSTORE PUSH1 0x40 PUSH1 0x0 KECCAK256 SLOAD SWAP1 PUSH1 0x40 MLOAD SWAP3 DUP4 MSTORE DUP3 ADD MSTORE PUSH32 0xE62A777DBD48D3912F68A1B9445813EE02BC3AC18B97DC129CA462CC77BB641B PUSH1 0x40 CALLER SWAP3 LOG3 PUSH1 0x1 PUSH1 0x0 SSTORE STOP JUMPDEST CALLER PUSH1 0x0 MSTORE DUP1 DUP3 MSTORE PUSH1 0x0 PUSH1 0x5 PUSH1 0x40 DUP3 KECCAK256 PUSH1 0x4 DUP2 ADD PUSH1 0xFF NOT DUP2 SLOAD AND SWAP1 SSTORE ADD SSTORE PUSH2 0x18E5 JUMP JUMPDEST POP CALLER PUSH1 0x0 MSTORE DUP1 DUP3 MSTORE PUSH1 0xFF PUSH1 0x4 PUSH1 0x40 PUSH1 0x0 KECCAK256 ADD SLOAD AND PUSH2 0x18E0 JUMP JUMPDEST SWAP1 POP SWAP2 PUSH2 0x186F JUMP JUMPDEST CALLVALUE PUSH2 0x1C1 JUMPI PUSH1 0x0 CALLDATASIZE PUSH1 0x3 NOT ADD SLT PUSH2 0x1C1 JUMPI PUSH1 0x40 MLOAD PUSH32 0x0 PUSH1 0x1 PUSH1 0x1 PUSH1 0xA0 SHL SUB AND DUP2 MSTORE PUSH1 0x20 SWAP1 RETURN JUMPDEST CALLVALUE PUSH2 0x1C1 JUMPI PUSH1 0x40 CALLDATASIZE PUSH1 0x3 NOT ADD SLT PUSH2 0x1C1 JUMPI PUSH1 0x20 PUSH2 0x1B9 PUSH2 0x19DC PUSH2 0x19EA JUMP JUMPDEST PUSH2 0x19E4 PUSH2 0x1A00 JUMP JUMPDEST SWAP1 PUSH2 0x1F63 JUMP JUMPDEST PUSH1 0x4 CALLDATALOAD SWAP1 PUSH1 0x1 PUSH1 0x1 PUSH1 0xA0 SHL SUB DUP3 AND DUP3 SUB PUSH2 0x1C1 JUMPI JUMP JUMPDEST PUSH1 0x24 CALLDATALOAD SWAP1 PUSH1 0x1 PUSH1 0x1 PUSH1 0xA0 SHL SUB DUP3 AND DUP3 SUB PUSH2 0x1C1 JUMPI JUMP JUMPDEST PUSH2 0x180 DUP2 ADD SWAP1 DUP2 LT PUSH8 0xFFFFFFFFFFFFFFFF DUP3 GT OR PUSH2 0x12A1 JUMPI PUSH1 0x40 MSTORE JUMP JUMPDEST SWAP1 PUSH1 0x1F DUP1 NOT SWAP2 ADD AND DUP2 ADD SWAP1 DUP2 LT PUSH8 0xFFFFFFFFFFFFFFFF DUP3 GT OR PUSH2 0x12A1 JUMPI PUSH1 0x40 MSTORE JUMP JUMPDEST DUP2 PUSH1 0x1F DUP3 ADD SLT ISZERO PUSH2 0x1C1 JUMPI DUP1 CALLDATALOAD SWAP1 PUSH8 0xFFFFFFFFFFFFFFFF DUP3 GT PUSH2 0x12A1 JUMPI PUSH1 0x40 MLOAD SWAP3 PUSH2 0x1A8A PUSH1 0x1F DUP5 ADD PUSH1 0x1F NOT AND PUSH1 0x20 ADD DUP6 PUSH2 0x1A33 JUMP JUMPDEST DUP3 DUP5 MSTORE PUSH1 0x20 DUP4 DUP4 ADD ADD GT PUSH2 0x1C1 JUMPI DUP2 PUSH1 0x0 SWAP3 PUSH1 0x20 DUP1 SWAP4 ADD DUP4 DUP7 ADD CALLDATACOPY DUP4 ADD ADD MSTORE SWAP1 JUMP JUMPDEST PUSH1 0x7 SLOAD DUP2 LT ISZERO PUSH2 0x1AE3 JUMPI PUSH1 0x7 PUSH1 0x0 MSTORE PUSH32 0xA66CC928B5EDB82AF9BD49922954155AB7B0942694BEA4CE44661D9A8736C688 ADD SWAP1 PUSH1 0x0 SWAP1 JUMP JUMPDEST PUSH4 0x4E487B71 PUSH1 0xE0 SHL PUSH1 0x0 MSTORE PUSH1 0x32 PUSH1 0x4 MSTORE PUSH1 0x24 PUSH1 0x0 REVERT JUMPDEST SWAP1 PUSH1 0x1 DUP3 DUP2 SHR SWAP3 AND DUP1 ISZERO PUSH2 0x1B29 JUMPI JUMPDEST PUSH1 0x20 DUP4 LT EQ PUSH2 0x1B13 JUMPI JUMP JUMPDEST PUSH4 0x4E487B71 PUSH1 0xE0 SHL PUSH1 0x0 MSTORE PUSH1 0x22 PUSH1 0x4 MSTORE PUSH1 0x24 PUSH1 0x0 REVERT JUMPDEST SWAP2 PUSH1 0x7F AND SWAP2 PUSH2 0x1B08 JUMP JUMPDEST SWAP2 SWAP1 DUP3 MLOAD SWAP3 DUP4 DUP3 MSTORE PUSH1 0x0 JUMPDEST DUP5 DUP2 LT PUSH2 0x1B5F JUMPI POP POP DUP3 PUSH1 0x0 PUSH1 0x20 DUP1 SWAP5 SWAP6 DUP5 ADD ADD MSTORE PUSH1 0x1F DUP1 NOT SWAP2 ADD AND ADD ADD SWAP1 JUMP JUMPDEST PUSH1 0x20 DUP2 DUP4 ADD DUP2 ADD MLOAD DUP5 DUP4 ADD DUP3 ADD MSTORE ADD PUSH2 0x1B3E JUMP JUMPDEST DUP1 MLOAD DUP3 MSTORE PUSH1 0x20 DUP2 ADD MLOAD PUSH1 0x20 DUP4 ADD MSTORE PUSH1 0x40 DUP2 ADD MLOAD PUSH1 0x40 DUP4 ADD MSTORE PUSH1 0x60 DUP2 ADD MLOAD PUSH1 0x60 DUP4 ADD MSTORE PUSH1 0x80 DUP2 ADD MLOAD PUSH1 0x80 DUP4 ADD MSTORE PUSH1 0xA0 DUP2 ADD MLOAD PUSH1 0xA0 DUP4 ADD MSTORE PUSH1 0xC0 DUP2 ADD MLOAD PUSH1 0xC0 DUP4 ADD MSTORE PUSH1 0xE0 DUP2 ADD MLOAD PUSH1 0xE0 DUP4 ADD MSTORE PUSH2 0x100 DUP1 DUP3 ADD MLOAD SWAP1 DUP4 ADD MSTORE PUSH2 0x120 DUP1 DUP3 ADD MLOAD SWAP1 DUP4 ADD MSTORE PUSH2 0x140 DUP1 DUP3 ADD MLOAD SWAP1 DUP4 ADD MSTORE PUSH2 0x160 DUP1 SWAP2 ADD MLOAD SWAP2 ADD MSTORE JUMP JUMPDEST PUSH1 0x1 SLOAD PUSH1 0x1 PUSH1 0x1 PUSH1 0xA0 SHL SUB AND CALLER SUB PUSH2 0x1BFE JUMPI JUMP JUMPDEST PUSH1 0x40 MLOAD PUSH4 0x118CDAA7 PUSH1 0xE0 SHL DUP2 MSTORE CALLER PUSH1 0x4 DUP3 ADD MSTORE PUSH1 0x24 SWAP1 REVERT JUMPDEST DUP2 DUP2 MUL SWAP3 SWAP2 DUP2 ISZERO SWAP2 DUP5 DIV EQ OR ISZERO PUSH2 0x29D JUMPI JUMP JUMPDEST DUP2 ISZERO PUSH2 0x1C33 JUMPI DIV SWAP1 JUMP JUMPDEST PUSH4 0x4E487B71 PUSH1 0xE0 SHL PUSH1 0x0 MSTORE PUSH1 0x12 PUSH1 0x4 MSTORE PUSH1 0x24 PUSH1 0x0 REVERT JUMPDEST SWAP2 SWAP1 DUP3 SUB SWAP2 DUP3 GT PUSH2 0x29D JUMPI JUMP JUMPDEST SWAP2 SWAP1 DUP3 ADD DUP1 SWAP3 GT PUSH2 0x29D JUMPI JUMP JUMPDEST PUSH1 0x1 PUSH1 0x1 PUSH1 0xA0 SHL SUB AND PUSH1 0x0 SWAP1 DUP2 MSTORE PUSH1 0x5 PUSH1 0x20 DUP2 SWAP1 MSTORE PUSH1 0x40 DUP3 KECCAK256 SWAP1 DUP2 ADD SLOAD SWAP1 SWAP3 SWAP2 PUSH1 0x9 DUP5 ADD SWAP2 SWAP1 DUP2 ISZERO PUSH2 0x1DB4 JUMPI PUSH1 0x6 DUP6 ADD SLOAD SWAP2 PUSH8 0xDE0B6B3A7640000 SWAP3 DUP4 DUP2 MUL SWAP1 DUP1 DUP3 DIV DUP6 EQ SWAP1 ISZERO OR ISZERO PUSH2 0x1DA0 JUMPI SWAP1 PUSH2 0x1CBA SWAP2 PUSH2 0x1C29 JUMP JUMPDEST PUSH1 0xA DUP7 ADD SLOAD SWAP6 SWAP1 SWAP2 SWAP1 DUP7 DUP4 GT PUSH2 0x1D15 JUMPI POP DUP3 DUP3 MUL SWAP2 DUP1 DUP4 DIV DUP5 EQ SWAP1 ISZERO OR ISZERO PUSH2 0x1D01 JUMPI POP PUSH2 0x1CEE PUSH2 0x1CFE SWAP5 SWAP6 PUSH2 0x1CF7 SWAP3 PUSH2 0x1C29 JUMP JUMPDEST SWAP3 SLOAD SWAP3 DUP4 PUSH2 0x1C16 JUMP JUMPDEST DIV SWAP1 PUSH2 0x1C56 JUMP JUMPDEST SWAP1 JUMP JUMPDEST PUSH4 0x4E487B71 PUSH1 0xE0 SHL DUP2 MSTORE PUSH1 0x11 PUSH1 0x4 MSTORE PUSH1 0x24 SWAP1 REVERT JUMPDEST SWAP3 SWAP2 DUP7 PUSH2 0x1D26 SWAP2 SWAP8 SWAP3 SWAP6 SWAP7 SWAP8 PUSH2 0x1C49 JUMP JUMPDEST SWAP1 DUP3 SUB SWAP1 DUP3 DUP3 GT PUSH2 0x1D8C JUMPI DUP3 DUP2 MUL SWAP1 DUP1 DUP3 DIV DUP5 EQ SWAP1 ISZERO OR ISZERO PUSH2 0x1D8C JUMPI PUSH1 0xC PUSH2 0x1D64 PUSH2 0x1D59 PUSH2 0x1D79 SWAP7 SWAP6 SWAP5 PUSH2 0x1CF7 SWAP5 PUSH2 0x1C29 JUMP JUMPDEST PUSH1 0xB DUP7 ADD SLOAD SWAP1 PUSH2 0x2025 JUMP JUMPDEST SWAP7 SLOAD SWAP4 ADD SLOAD SWAP6 PUSH2 0x1D74 DUP5 DUP9 PUSH2 0x1C49 JUMP JUMPDEST PUSH2 0x1C16 JUMP JUMPDEST SWAP1 POP DUP2 DUP2 GT ISZERO PUSH2 0x1D87 JUMPI POP SWAP1 JUMP JUMPDEST SWAP1 POP SWAP1 JUMP JUMPDEST PUSH4 0x4E487B71 PUSH1 0xE0 SHL DUP6 MSTORE PUSH1 0x11 PUSH1 0x4 MSTORE PUSH1 0x24 DUP6 REVERT JUMPDEST PUSH4 0x4E487B71 PUSH1 0xE0 SHL DUP4 MSTORE PUSH1 0x11 PUSH1 0x4 MSTORE PUSH1 0x24 DUP4 REVERT JUMPDEST POP POP SLOAD SWAP2 POP JUMP JUMPDEST SWAP1 PUSH1 0x0 DUP1 DUP2 SWAP1 PUSH1 0x7 SLOAD SWAP2 JUMPDEST DUP3 DUP2 LT PUSH2 0x1E83 JUMPI POP PUSH1 0x1 PUSH1 0x1 PUSH1 0xA0 SHL SUB SWAP3 DUP4 AND SWAP2 POP POP DUP1 ISZERO PUSH2 0x1E79 JUMPI PUSH1 0x0 MSTORE PUSH1 0x5 PUSH1 0x20 MSTORE PUSH1 0x40 PUSH1 0x0 KECCAK256 SWAP3 AND PUSH1 0x0 MSTORE PUSH1 0x6 PUSH1 0x20 MSTORE PUSH1 0x40 PUSH1 0x0 KECCAK256 SWAP2 PUSH1 0x0 SWAP2 PUSH8 0xDE0B6B3A7640000 SWAP3 DUP4 DUP3 LT PUSH1 0x0 EQ PUSH2 0x1E6B JUMPI POP DUP3 SUB DUP3 DUP2 GT PUSH2 0x29D JUMPI PUSH1 0x7 PUSH2 0x1E35 SWAP2 SWAP5 JUMPDEST ADD SLOAD PUSH1 0xF DUP4 ADD SLOAD SWAP1 PUSH2 0x1C16 JUMP JUMPDEST DUP3 ADD DUP1 DUP4 GT PUSH2 0x29D JUMPI PUSH2 0x1D74 DUP3 DUP5 PUSH2 0x1CF7 PUSH1 0xE PUSH1 0xD PUSH2 0x1E5E SWAP8 ADD SLOAD SWAP4 ADD SLOAD SWAP8 PUSH2 0x1D74 DUP5 DUP11 PUSH2 0x1C49 JUMP JUMPDEST DIV DUP2 DUP2 GT ISZERO PUSH2 0x1D87 JUMPI POP SWAP1 JUMP JUMPDEST PUSH2 0x1E35 SWAP2 POP PUSH1 0x7 SWAP1 SWAP5 PUSH2 0x1E28 JUMP JUMPDEST POP POP POP POP PUSH2 0x3E8 SWAP1 JUMP JUMPDEST PUSH2 0x1E8C DUP2 PUSH2 0x1AAC JUMP JUMPDEST SWAP1 PUSH1 0x1 DUP1 PUSH1 0xA0 SHL SUB SWAP2 DUP3 SWAP2 SLOAD SWAP1 PUSH1 0x3 SHL SHR AND SWAP1 DUP2 PUSH1 0x0 MSTORE PUSH1 0x20 PUSH1 0x5 DUP2 MSTORE PUSH1 0x40 SWAP2 PUSH1 0xFF DUP4 PUSH1 0x0 KECCAK256 SLOAD PUSH1 0x10 SHR AND PUSH2 0x1ECE JUMPI JUMPDEST POP POP POP POP PUSH2 0x1EC9 SWAP1 PUSH2 0x2016 JUMP JUMPDEST PUSH2 0x1DC6 JUMP JUMPDEST DUP10 AND PUSH1 0x0 MSTORE PUSH1 0x6 DUP2 MSTORE DUP2 PUSH1 0x0 KECCAK256 SWAP1 DUP4 PUSH1 0x0 MSTORE MSTORE PUSH1 0x0 KECCAK256 SLOAD DUP1 PUSH2 0x1EF2 JUMPI JUMPDEST DUP1 DUP1 PUSH2 0x1EBC JUMP JUMPDEST PUSH2 0x1EFC SWAP1 DUP3 PUSH2 0x2927 JUMP JUMPDEST DUP4 DUP2 GT ISZERO PUSH2 0x1EEB JUMPI SWAP1 SWAP5 POP SWAP2 POP PUSH2 0x1EC9 CODESIZE PUSH2 0x1EEB JUMP JUMPDEST PUSH1 0x1 DUP1 PUSH1 0xA0 SHL SUB AND PUSH1 0x0 MSTORE PUSH1 0x5 PUSH1 0x20 MSTORE PUSH1 0x40 PUSH1 0x0 KECCAK256 PUSH1 0x12 PUSH2 0x1F53 PUSH8 0xDE0B6B3A7640000 PUSH2 0x1F48 PUSH1 0x15 DUP6 ADD SLOAD PUSH1 0x11 DUP7 ADD SLOAD SWAP1 PUSH2 0x1C16 JUMP JUMPDEST DIV PUSH1 0x10 DUP5 ADD SLOAD PUSH2 0x1C56 JUMP JUMPDEST SWAP2 ADD SLOAD SWAP1 DUP2 DUP2 GT ISZERO PUSH2 0x1D87 JUMPI POP SWAP1 JUMP JUMPDEST SWAP1 PUSH1 0x3 PUSH1 0x1 DUP1 PUSH1 0xA0 SHL SUB DUP1 SWAP3 AND PUSH1 0x0 SWAP3 DUP2 DUP5 MSTORE PUSH1 0x5 PUSH1 0x20 MSTORE PUSH1 0x40 DUP5 KECCAK256 SWAP5 AND DUP4 MSTORE PUSH1 0x6 PUSH1 0x20 MSTORE PUSH1 0x40 DUP4 KECCAK256 SWAP1 DUP4 MSTORE ADD PUSH1 0x20 MSTORE PUSH2 0x1FA1 PUSH1 0x40 DUP3 KECCAK256 SLOAD TIMESTAMP PUSH2 0x1C49 JUMP JUMPDEST DUP1 ISZERO PUSH2 0x200D JUMPI PUSH2 0x1FE9 PUSH1 0x1 PUSH2 0x1FDF PUSH8 0xDE0B6B3A7640000 SWAP4 PUSH1 0x14 DUP8 ADD SLOAD SWAP1 DUP2 DUP2 GT PUSH1 0x0 EQ PUSH2 0x2004 JUMPI POP PUSH2 0x1FDA DUP2 JUMPDEST PUSH1 0x13 DUP10 ADD SLOAD SWAP1 PUSH2 0x1C16 JUMP JUMPDEST PUSH2 0x1C29 JUMP JUMPDEST SWAP5 ADD SLOAD SWAP4 DUP5 PUSH2 0x1C16 JUMP JUMPDEST DIV SWAP1 POP DUP1 DUP3 GT ISZERO PUSH2 0x1FFD JUMPI PUSH2 0x1CFE SWAP2 PUSH2 0x1C49 JUMP JUMPDEST POP PUSH1 0x1 SHR SWAP1 JUMP JUMPDEST PUSH2 0x1FDA SWAP1 PUSH2 0x1FCF JUMP JUMPDEST POP POP PUSH1 0x1 ADD SLOAD SWAP1 JUMP JUMPDEST PUSH1 0x0 NOT DUP2 EQ PUSH2 0x29D JUMPI PUSH1 0x1 ADD SWAP1 JUMP JUMPDEST SWAP2 SWAP1 DUP3 ISZERO PUSH2 0x2114 JUMPI PUSH8 0xDE0B6B3A7640000 SWAP1 DUP2 DUP5 LT ISZERO PUSH2 0x210F JUMPI DUP2 DUP2 EQ PUSH2 0x210B JUMPI PUSH8 0x1BC16D674EC80000 DUP2 EQ PUSH2 0x20FA JUMPI DUP4 DUP1 DUP4 ADD DUP1 DUP5 GT PUSH2 0x29D JUMPI PUSH1 0x2 SWAP6 JUMPDEST PUSH1 0x4 SWAP1 DUP2 DUP9 GT ISZERO DUP1 PUSH2 0x20F1 JUMPI JUMPDEST ISZERO PUSH2 0x20DB JUMPI DUP5 PUSH2 0x1D74 DUP6 PUSH2 0x2084 SWAP4 PUSH2 0x1C16 JUMP JUMPDEST PUSH15 0xC097CE7BC90715B34B9F1000000000 SWAP2 DUP9 DUP4 MUL SWAP3 DUP4 DIV DUP10 SUB PUSH2 0x20C6 JUMPI POP PUSH2 0x20B2 PUSH2 0x20BF SWAP3 PUSH2 0x20B9 SWAP3 PUSH2 0x1C29 JUMP JUMPDEST DUP1 SWAP4 PUSH2 0x1C56 JUMP JUMPDEST SWAP7 PUSH2 0x2016 JUMP JUMPDEST SWAP6 SWAP1 PUSH2 0x2064 JUMP JUMPDEST PUSH1 0x24 SWAP1 PUSH1 0x11 PUSH1 0x0 SWAP2 PUSH4 0x4E487B71 PUSH1 0xE0 SHL DUP4 MSTORE MSTORE REVERT JUMPDEST POP POP SWAP3 SWAP4 SWAP5 POP POP POP DUP2 DUP2 GT PUSH1 0x0 EQ PUSH2 0x1D87 JUMPI POP SWAP1 JUMP JUMPDEST POP DUP1 ISZERO ISZERO PUSH2 0x2071 JUMP JUMPDEST POP SWAP1 SWAP2 DUP1 PUSH2 0x2107 SWAP2 PUSH2 0x1C16 JUMP JUMPDEST DIV SWAP1 JUMP JUMPDEST POP POP JUMP JUMPDEST POP SWAP2 POP JUMP JUMPDEST POP PUSH1 0x0 SWAP2 POP JUMP JUMPDEST PUSH1 0x1 PUSH1 0x1 PUSH1 0xA0 SHL SUB DUP2 AND PUSH1 0x0 DUP2 DUP2 MSTORE PUSH1 0x5 PUSH1 0x20 MSTORE PUSH1 0x40 DUP2 KECCAK256 SWAP2 SWAP3 SWAP2 SWAP1 PUSH2 0x2140 DUP4 PUSH2 0x26F6 JUMP JUMPDEST PUSH1 0x16 DUP4 ADD SWAP2 DUP3 SLOAD PUSH2 0x2151 DUP2 TIMESTAMP PUSH2 0x1C49 JUMP JUMPDEST SWAP1 ISZERO ISZERO SWAP1 DUP2 PUSH2 0x2258 JUMPI JUMPDEST POP PUSH2 0x21AA JUMPI JUMPDEST POP PUSH1 0x17 DUP4 ADD SSTORE TIMESTAMP SWAP1 SSTORE PUSH1 0x15 ADD SLOAD PUSH32 0x6AC2EB67D9E3D599B1121A86C7F4EB985D08AE8E5E5CA0B9A5C4E6A7206ED35A SWAP2 PUSH1 0x40 SWAP2 SWAP1 PUSH2 0x219D SWAP1 PUSH2 0x1F12 JUMP JUMPDEST DUP3 MLOAD SWAP2 DUP3 MSTORE PUSH1 0x20 DUP3 ADD MSTORE LOG2 JUMP JUMPDEST PUSH1 0x17 DUP5 ADD SLOAD DUP1 DUP4 GT ISZERO PUSH2 0x2249 JUMPI PUSH2 0x21C1 DUP2 DUP5 PUSH2 0x1C49 JUMP JUMPDEST PUSH8 0xDE0B6B3A7640000 SWAP1 DUP2 DUP2 MUL SWAP2 DUP2 DUP4 DIV EQ SWAP1 ISZERO OR ISZERO PUSH2 0x1DA0 JUMPI SWAP1 PUSH2 0x21E5 SWAP2 PUSH2 0x1C29 JUMP JUMPDEST PUSH1 0x15 DUP6 ADD SWAP2 DUP3 SLOAD SWAP1 PUSH1 0x9 DUP3 MUL SWAP2 DUP1 DUP4 DIV PUSH1 0x9 EQ SWAP1 ISZERO OR ISZERO PUSH2 0x1D01 JUMPI POP SWAP4 PUSH2 0x219D SWAP4 PUSH1 0x15 SWAP4 PUSH1 0xA PUSH2 0x223A PUSH1 0x40 SWAP10 SWAP6 PUSH32 0x6AC2EB67D9E3D599B1121A86C7F4EB985D08AE8E5E5CA0B9A5C4E6A7206ED35A SWAP12 SWAP10 PUSH2 0x1C56 JUMP JUMPDEST DIV SWAP1 SSTORE SWAP4 POP SWAP4 SWAP6 POP SWAP4 POP PUSH2 0x2161 JUMP JUMPDEST PUSH2 0x2253 DUP4 DUP3 PUSH2 0x1C49 JUMP JUMPDEST PUSH2 0x21C1 JUMP JUMPDEST SWAP1 POP ISZERO ISZERO CODESIZE PUSH2 0x215B JUMP JUMPDEST PUSH1 0x40 MLOAD PUSH4 0x23B872DD PUSH1 0xE0 SHL PUSH1 0x20 DUP3 ADD MSTORE PUSH1 0x1 PUSH1 0x1 PUSH1 0xA0 SHL SUB SWAP3 DUP4 AND PUSH1 0x24 DUP3 ADD MSTORE SWAP3 SWAP1 SWAP2 AND PUSH1 0x44 DUP4 ADD MSTORE PUSH1 0x64 DUP1 DUP4 ADD SWAP4 SWAP1 SWAP4 MSTORE SWAP2 DUP2 MSTORE PUSH1 0xA0 DUP2 ADD SWAP2 DUP2 DUP4 LT PUSH8 0xFFFFFFFFFFFFFFFF DUP5 GT OR PUSH2 0x12A1 JUMPI PUSH2 0x22BB SWAP3 PUSH1 0x40 MSTORE PUSH2 0x22BD JUMP JUMPDEST JUMP JUMPDEST SWAP1 PUSH1 0x0 PUSH1 0x20 SWAP2 DUP3 DUP2 MLOAD SWAP2 ADD DUP3 DUP6 GAS CALL ISZERO PUSH2 0x165B JUMPI PUSH1 0x0 MLOAD RETURNDATASIZE PUSH2 0x2310 JUMPI POP PUSH1 0x1 PUSH1 0x1 PUSH1 0xA0 SHL SUB DUP2 AND EXTCODESIZE ISZERO JUMPDEST PUSH2 0x22EE JUMPI POP JUMP JUMPDEST PUSH1 0x40 MLOAD PUSH4 0x5274AFE7 PUSH1 0xE0 SHL DUP2 MSTORE PUSH1 0x1 PUSH1 0x1 PUSH1 0xA0 SHL SUB SWAP1 SWAP2 AND PUSH1 0x4 DUP3 ADD MSTORE PUSH1 0x24 SWAP1 REVERT JUMPDEST PUSH1 0x1 EQ ISZERO PUSH2 0x22E7 JUMP JUMPDEST PUSH1 0x2 PUSH1 0x0 SLOAD EQ PUSH2 0x232A JUMPI PUSH1 0x2 PUSH1 0x0 SSTORE JUMP JUMPDEST PUSH1 0x40 MLOAD PUSH4 0x3EE5AEB5 PUSH1 0xE0 SHL DUP2 MSTORE PUSH1 0x4 SWAP1 REVERT JUMPDEST PUSH1 0x40 MLOAD PUSH4 0xA9059CBB PUSH1 0xE0 SHL PUSH1 0x20 DUP3 ADD MSTORE PUSH1 0x1 PUSH1 0x1 PUSH1 0xA0 SHL SUB SWAP1 SWAP3 AND PUSH1 0x24 DUP4 ADD MSTORE PUSH1 0x44 DUP1 DUP4 ADD SWAP4 SWAP1 SWAP4 MSTORE SWAP2 DUP2 MSTORE PUSH1 0x80 DUP2 ADD SWAP2 PUSH8 0xFFFFFFFFFFFFFFFF DUP4 GT DUP3 DUP5 LT OR PUSH2 0x12A1 JUMPI PUSH2 0x22BB SWAP3 PUSH1 0x40 MSTORE PUSH2 0x22BD JUMP JUMPDEST PUSH1 0x1 PUSH1 0x1 PUSH1 0xA0 SHL SUB DUP2 AND PUSH1 0x0 DUP2 DUP2 MSTORE PUSH1 0x5 PUSH1 0x20 MSTORE PUSH1 0x40 DUP2 KECCAK256 DUP1 SLOAD SWAP3 SWAP4 SWAP3 PUSH1 0xFF AND ISZERO PUSH2 0x1667 JUMPI PUSH1 0x4 DUP2 ADD SWAP3 PUSH2 0x23C1 DUP5 SLOAD TIMESTAMP PUSH2 0x1C49 JUMP JUMPDEST SWAP2 DUP3 ISZERO PUSH2 0x24EA JUMPI PUSH2 0x23D3 PUSH1 0x5 SWAP3 PUSH2 0x1C63 JUMP JUMPDEST SWAP5 PUSH5 0x496CEBB800 PUSH2 0x23ED PUSH1 0x6 DUP5 ADD SLOAD SWAP6 PUSH2 0x1D74 DUP10 DUP9 PUSH2 0x1C16 JUMP JUMPDEST DIV PUSH2 0x23FD PUSH1 0x7 DUP5 ADD SWAP2 DUP3 SLOAD PUSH2 0x1C56 JUMP JUMPDEST SWAP1 SSTORE TIMESTAMP SWAP1 SSTORE ADD SLOAD SWAP1 DUP2 ISZERO SWAP3 DUP4 PUSH1 0x0 EQ PUSH2 0x24B3 JUMPI DUP1 SWAP4 JUMPDEST PUSH2 0x2484 JUMPI PUSH8 0xDE0B6B3A7640000 SWAP2 DUP3 DUP2 MUL SWAP3 DUP2 DUP5 DIV EQ SWAP1 ISZERO OR ISZERO PUSH2 0x1D01 JUMPI POP PUSH2 0x2462 PUSH32 0x5A03DAA796EC548AD6DD0ED0A76E2B5197C4D37C20B10722B669FFA200D4A4BB SWAP5 SWAP4 SWAP3 PUSH2 0x247F SWAP3 PUSH2 0x1C29 JUMP JUMPDEST PUSH1 0x40 MLOAD SWAP4 DUP5 SWAP4 DUP5 PUSH1 0x40 SWAP2 SWAP5 SWAP4 SWAP3 PUSH1 0x60 DUP3 ADD SWAP6 DUP3 MSTORE PUSH1 0x20 DUP3 ADD MSTORE ADD MSTORE JUMP JUMPDEST SUB SWAP1 LOG2 JUMP JUMPDEST PUSH32 0x5A03DAA796EC548AD6DD0ED0A76E2B5197C4D37C20B10722B669FFA200D4A4BB SWAP5 SWAP4 SWAP3 POP PUSH2 0x247F SWAP2 POP PUSH2 0x2462 JUMP JUMPDEST PUSH2 0x2710 DUP1 DUP4 MUL SWAP1 DUP4 DUP3 DIV EQ DUP4 ISZERO OR ISZERO PUSH2 0x24D6 JUMPI DUP4 PUSH2 0x24D0 SWAP2 PUSH2 0x1C29 JUMP JUMPDEST SWAP4 PUSH2 0x2413 JUMP JUMPDEST PUSH4 0x4E487B71 PUSH1 0xE0 SHL DUP3 MSTORE PUSH1 0x11 PUSH1 0x4 MSTORE PUSH1 0x24 DUP3 REVERT JUMPDEST POP POP POP POP POP POP JUMP JUMPDEST PUSH1 0x7 SLOAD PUSH1 0x0 SWAP3 SWAP2 DUP4 DUP1 JUMPDEST DUP4 DUP2 LT PUSH2 0x2509 JUMPI POP POP POP POP JUMP JUMPDEST PUSH2 0x2512 DUP2 PUSH2 0x1AAC JUMP JUMPDEST SWAP1 PUSH1 0x1 DUP1 PUSH1 0xA0 SHL SUB SWAP2 DUP3 SWAP2 SLOAD SWAP1 PUSH1 0x3 SHL SHR AND SWAP1 DUP2 DUP5 MSTORE PUSH1 0x20 PUSH1 0x5 DUP2 MSTORE PUSH1 0x40 SWAP2 PUSH1 0xFF DUP4 DUP8 KECCAK256 SLOAD PUSH1 0x10 SHR AND PUSH2 0x2552 JUMPI JUMPDEST POP POP POP POP PUSH2 0x254D SWAP1 PUSH2 0x2016 JUMP JUMPDEST PUSH2 0x24FC JUMP JUMPDEST DUP7 AND DUP6 MSTORE PUSH1 0x6 DUP2 MSTORE DUP2 DUP6 KECCAK256 SWAP1 DUP4 DUP7 MSTORE MSTORE DUP4 KECCAK256 SLOAD DUP1 PUSH2 0x2572 JUMPI JUMPDEST DUP1 DUP1 PUSH2 0x2540 JUMP JUMPDEST PUSH2 0x2582 PUSH2 0x259C SWAP2 DUP4 SWAP10 SWAP5 SWAP10 PUSH2 0x2927 JUMP JUMPDEST SWAP2 PUSH2 0x2596 PUSH2 0x2590 DUP3 DUP9 PUSH2 0x1F63 JUMP JUMPDEST SWAP2 PUSH2 0x1F12 JUMP JUMPDEST SWAP3 PUSH2 0x1C16 JUMP JUMPDEST PUSH2 0x2710 SWAP2 DUP3 SUB SWAP2 DUP3 GT PUSH2 0x25C7 JUMPI SWAP2 PUSH4 0x5F5E100 PUSH2 0x1CF7 PUSH2 0x25BF SWAP4 PUSH2 0x254D SWAP6 PUSH2 0x1C16 JUMP JUMPDEST SWAP6 SWAP1 CODESIZE PUSH2 0x256B JUMP JUMPDEST PUSH4 0x4E487B71 PUSH1 0xE0 SHL DUP5 MSTORE PUSH1 0x11 PUSH1 0x4 MSTORE PUSH1 0x24 DUP5 REVERT JUMPDEST PUSH1 0x7 SLOAD PUSH1 0x0 SWAP3 SWAP2 DUP4 SWAP1 DUP2 JUMPDEST DUP4 DUP2 LT PUSH2 0x25F3 JUMPI POP POP POP POP JUMP JUMPDEST PUSH2 0x25FC DUP2 PUSH2 0x1AAC JUMP JUMPDEST SWAP1 PUSH1 0x1 DUP1 PUSH1 0xA0 SHL SUB SWAP2 DUP3 SWAP2 SLOAD SWAP1 PUSH1 0x3 SHL SHR AND SWAP1 DUP2 DUP6 MSTORE PUSH1 0x20 PUSH1 0x5 DUP2 MSTORE PUSH1 0x40 SWAP2 PUSH1 0xFF DUP4 DUP9 KECCAK256 SLOAD PUSH1 0x10 SHR AND PUSH2 0x263C JUMPI JUMPDEST POP POP POP POP PUSH2 0x2637 SWAP1 PUSH2 0x2016 JUMP JUMPDEST PUSH2 0x25E6 JUMP JUMPDEST DUP6 AND DUP7 MSTORE PUSH1 0x6 DUP2 MSTORE DUP2 DUP7 KECCAK256 SWAP1 DUP4 DUP8 MSTORE MSTORE DUP5 KECCAK256 SLOAD SWAP1 DUP2 PUSH2 0x265D JUMPI JUMPDEST DUP1 DUP1 PUSH2 0x262A JUMP JUMPDEST SWAP7 PUSH2 0x152B PUSH2 0x266F SWAP3 PUSH2 0x2637 SWAP5 SWAP10 PUSH2 0x2927 JUMP JUMPDEST SWAP6 SWAP1 CODESIZE PUSH2 0x2656 JUMP JUMPDEST PUSH1 0x7 SLOAD PUSH1 0x0 SWAP3 SWAP2 DUP4 DUP1 JUMPDEST DUP4 DUP2 LT PUSH2 0x268E JUMPI POP POP POP POP JUMP JUMPDEST PUSH2 0x2697 DUP2 PUSH2 0x1AAC JUMP JUMPDEST SWAP1 PUSH1 0x1 DUP1 PUSH1 0xA0 SHL SUB SWAP2 DUP3 SWAP2 SLOAD SWAP1 PUSH1 0x3 SHL SHR AND SWAP1 DUP5 AND DUP4 MSTORE PUSH1 0x20 PUSH1 0x6 DUP2 MSTORE PUSH1 0x40 SWAP1 PUSH1 0x1 DUP3 DUP7 KECCAK256 ADD SWAP1 DUP4 DUP7 MSTORE MSTORE DUP4 KECCAK256 SLOAD SWAP1 DUP2 PUSH2 0x26DC JUMPI JUMPDEST POP POP PUSH2 0x26D7 SWAP1 PUSH2 0x2016 JUMP JUMPDEST PUSH2 0x2681 JUMP JUMPDEST SWAP7 PUSH2 0x152B PUSH2 0x26EE SWAP3 PUSH2 0x26D7 SWAP5 SWAP10 PUSH2 0x2927 JUMP JUMPDEST SWAP6 SWAP1 CODESIZE PUSH2 0x26CC JUMP JUMPDEST PUSH1 0x1 DUP1 PUSH1 0xA0 SHL SUB SWAP1 DUP2 PUSH1 0x0 SWAP2 AND DUP2 MSTORE PUSH1 0x20 PUSH1 0x5 DUP2 MSTORE PUSH1 0x40 SWAP2 DUP3 DUP2 KECCAK256 SWAP4 PUSH1 0xFF DUP6 SLOAD AND ISZERO PUSH2 0x2916 JUMPI PUSH1 0x3 DUP6 ADD DUP4 DUP6 MLOAD DUP1 SWAP3 PUSH4 0xD12162D3 PUSH1 0xE0 SHL DUP3 MSTORE DUP3 PUSH1 0x4 DUP4 ADD MSTORE DUP6 SWAP1 DUP1 SLOAD PUSH2 0x2742 DUP2 PUSH2 0x1AF9 JUMP JUMPDEST SWAP2 DUP3 PUSH1 0x24 DUP7 ADD MSTORE PUSH1 0x1 SWAP2 DUP6 DUP4 DUP3 AND SWAP2 DUP3 PUSH1 0x0 EQ PUSH2 0x28F4 JUMPI POP POP PUSH1 0x1 EQ PUSH2 0x28BB JUMPI JUMPDEST POP POP POP DUP2 SWAP1 SUB DUP2 DUP6 PUSH32 0x0 AND GAS STATICCALL SWAP1 DUP2 ISZERO PUSH2 0x28B1 JUMPI DUP4 SWAP2 PUSH2 0x2877 JUMPI JUMPDEST POP AND SWAP4 DUP5 ISZERO PUSH2 0x286B JUMPI POP PUSH1 0x60 DUP4 SWAP5 PUSH1 0x4 SWAP5 MLOAD SWAP5 DUP6 DUP1 SWAP3 PUSH4 0x3FABE5A3 PUSH1 0xE2 SHL DUP3 MSTORE GAS STATICCALL DUP1 SWAP4 DUP3 SWAP5 PUSH2 0x2820 JUMPI JUMPDEST POP PUSH2 0x27DE JUMPI DUP4 MLOAD PUSH4 0x3B98B047 PUSH1 0xE2 SHL DUP2 MSTORE PUSH1 0x4 SWAP1 REVERT JUMPDEST DUP3 SWAP4 SWAP2 SWAP3 SGT ISZERO PUSH2 0x27ED JUMPI POP POP SWAP1 JUMP JUMPDEST PUSH1 0x64 SWAP3 POP MLOAD SWAP1 PUSH3 0x461BCD PUSH1 0xE5 SHL DUP3 MSTORE PUSH1 0x4 DUP3 ADD MSTORE PUSH1 0xD PUSH1 0x24 DUP3 ADD MSTORE PUSH13 0x496E76616C6964207072696365 PUSH1 0x98 SHL PUSH1 0x44 DUP3 ADD MSTORE REVERT JUMPDEST SWAP1 SWAP4 POP PUSH1 0x60 DUP2 RETURNDATASIZE DUP3 GT PUSH2 0x2863 JUMPI JUMPDEST DUP2 PUSH2 0x283B PUSH1 0x60 SWAP4 DUP4 PUSH2 0x1A33 JUMP JUMPDEST DUP2 ADD SUB SLT PUSH2 0x285F JUMPI DUP1 MLOAD PUSH8 0xFFFFFFFFFFFFFFFF DUP2 AND SUB PUSH2 0x285F JUMPI DUP3 ADD MLOAD SWAP3 CODESIZE PUSH2 0x27C8 JUMP JUMPDEST POP DUP1 REVERT JUMPDEST RETURNDATASIZE SWAP2 POP PUSH2 0x282E JUMP JUMPDEST PUSH1 0x18 ADD SLOAD SWAP5 SWAP4 POP POP POP POP JUMP JUMPDEST SWAP1 POP DUP4 DUP2 DUP2 RETURNDATASIZE DUP4 GT PUSH2 0x28AA JUMPI JUMPDEST PUSH2 0x288E DUP2 DUP4 PUSH2 0x1A33 JUMP JUMPDEST DUP2 ADD SUB SLT PUSH2 0x28A6 JUMPI MLOAD DUP2 DUP2 AND DUP2 SUB PUSH2 0x28A6 JUMPI CODESIZE PUSH2 0x279D JUMP JUMPDEST DUP3 DUP1 REVERT JUMPDEST POP RETURNDATASIZE PUSH2 0x2884 JUMP JUMPDEST DUP6 MLOAD RETURNDATASIZE DUP6 DUP3 RETURNDATACOPY RETURNDATASIZE SWAP1 REVERT JUMPDEST DUP9 MSTORE DUP5 DUP9 KECCAK256 DUP9 SWAP4 POP JUMPDEST DUP3 DUP5 LT PUSH2 0x28DB JUMPI POP POP POP DUP2 ADD PUSH1 0x44 ADD DUP2 CODESIZE DUP1 PUSH2 0x2763 JUMP JUMPDEST DUP1 SLOAD PUSH1 0x44 DUP6 DUP10 ADD ADD MSTORE DUP10 SWAP6 DUP8 SWAP6 POP SWAP1 SWAP4 ADD SWAP3 DUP2 ADD PUSH2 0x28C4 JUMP JUMPDEST SWAP3 POP SWAP5 POP POP PUSH1 0x44 SWAP3 SWAP2 POP PUSH1 0xFF NOT AND DUP3 DUP5 ADD MSTORE ISZERO ISZERO PUSH1 0x5 SHL DUP3 ADD ADD SWAP1 CODESIZE DUP1 PUSH2 0x2763 JUMP JUMPDEST DUP4 MLOAD PUSH4 0x981A2A2B PUSH1 0xE0 SHL DUP2 MSTORE PUSH1 0x4 SWAP1 REVERT JUMPDEST PUSH1 0x4 PUSH1 0x20 PUSH2 0x2934 DUP4 PUSH2 0x26F6 JUMP JUMPDEST PUSH1 0x40 MLOAD PUSH4 0x313CE567 PUSH1 0xE0 SHL DUP2 MSTORE SWAP1 SWAP4 SWAP1 SWAP3 DUP4 SWAP2 DUP3 SWAP1 PUSH1 0x1 PUSH1 0x1 PUSH1 0xA0 SHL SUB AND GAS STATICCALL SWAP1 DUP2 ISZERO PUSH2 0x165B JUMPI PUSH1 0x0 SWAP2 PUSH2 0x2987 JUMPI JUMPDEST POP SWAP1 PUSH1 0xFF PUSH2 0x2972 SWAP3 AND SWAP3 PUSH2 0x1C16 JUMP JUMPDEST PUSH1 0x4D DUP3 GT PUSH2 0x29D JUMPI PUSH2 0x1CFE SWAP2 PUSH1 0xA EXP SWAP1 PUSH2 0x1C29 JUMP JUMPDEST PUSH1 0x20 DUP2 RETURNDATASIZE DUP3 GT PUSH2 0x29BE JUMPI JUMPDEST DUP2 PUSH2 0x299F PUSH1 0x20 SWAP4 DUP4 PUSH2 0x1A33 JUMP JUMPDEST DUP2 ADD SUB SLT PUSH2 0x285F JUMPI MLOAD SWAP1 PUSH1 0xFF DUP3 AND DUP3 SUB PUSH2 0x29BB JUMPI POP PUSH1 0xFF PUSH2 0x2963 JUMP JUMPDEST DUP1 REVERT JUMPDEST RETURNDATASIZE SWAP2 POP PUSH2 0x2992 JUMP JUMPDEST PUSH2 0x29D8 PUSH2 0x29D2 DUP3 PUSH2 0x24F2 JUMP JUMPDEST SWAP2 PUSH2 0x2677 JUMP JUMPDEST SWAP1 DUP2 ISZERO PUSH2 0x2A09 JUMPI PUSH8 0xDE0B6B3A7640000 SWAP2 DUP3 DUP3 MUL SWAP2 DUP1 DUP4 DIV DUP5 EQ SWAP1 ISZERO OR ISZERO PUSH2 0x29D JUMPI PUSH2 0x2A03 SWAP2 PUSH2 0x1C29 JUMP JUMPDEST SWAP1 DUP2 LT SWAP2 JUMP JUMPDEST POP PUSH1 0x0 SWAP2 PUSH1 0x0 NOT SWAP2 POP JUMP INVALID LOG2 PUSH5 0x6970667358 0x22 SLT KECCAK256 NOT 0xBB SELFBALANCE 0xC2 PUSH18 0x6AAF428B92AD79D1A3C1893413BECD0C509B OR BALANCE SUB CALLVALUE 0x29 0xA7 BALANCE DUP7 0xD2 PUSH5 0x736F6C6343 STOP ADDMOD EQ STOP CALLER TIMESTAMP SWAP3 0xFC SWAP4 0x26 EXTCODECOPY SHL LOG1 PUSH17 0x43A80951D87739CEABD3B5981D863C911C 0x24 JUMP MSTORE 0xC1 0xBE DUP14 LOG2 PUSH5 0x6970667358 0x22 SLT KECCAK256 COINBASE 0xD7 DUP2 STATICCALL ADDRESS 0xCF DUP16 COINBASE PUSH8 0x88D92796F57B412F GASPRICE 0xAB DUP2 0xB8 SWAP7 BYTE EXTCODECOPY 0x24 SWAP1 0xC1 SELFBALANCE 0xB3 0xEC CREATE2 LOG1 PUSH5 0x736F6C6343 STOP ADDMOD EQ STOP CALLER "},"methodIdentifiers":{"KAIA_DUMMY_USDT()":"62894412","deployKaiaCompatiblePlatform(address,address)":"a98cb718","deployedContracts()":"c54a9588","getContracts()":"c3a2a93a"}}}}}