{"contracts/SplitBilling.sol":{"SplitBilling":{"abi":[{"inputs":[],"name":"AlreadyPaid","type":"error"},{"inputs":[],"name":"InvalidAmount","type":"error"},{"inputs":[],"name":"InvalidInput","type":"error"},{"inputs":[],"name":"NotAuthorized","type":"error"},{"inputs":[],"name":"ReentrancyGuardReentrantCall","type":"error"},{"inputs":[],"name":"SplitAlreadyCancelled","type":"error"},{"inputs":[],"name":"SplitExpired","type":"error"},{"inputs":[],"name":"SplitNotCompleted","type":"error"},{"inputs":[],"name":"SplitNotFound","type":"error"},{"inputs":[],"name":"TransferFailed","type":"error"},{"anonymous":false,"inputs":[{"indexed":true,"internalType":"uint256","name":"splitId","type":"uint256"},{"indexed":true,"internalType":"address","name":"debtor","type":"address"},{"indexed":false,"internalType":"uint256","name":"amountOwed","type":"uint256"},{"indexed":false,"internalType":"uint256","name":"deadline","type":"uint256"}],"name":"DeadlineAlert","type":"event"},{"anonymous":false,"inputs":[{"indexed":true,"internalType":"uint256","name":"splitId","type":"uint256"},{"indexed":true,"internalType":"address","name":"payee","type":"address"},{"indexed":false,"internalType":"address","name":"token","type":"address"},{"indexed":false,"internalType":"uint256","name":"amount","type":"uint256"}],"name":"FundsWithdrawn","type":"event"},{"anonymous":false,"inputs":[{"indexed":true,"internalType":"uint256","name":"splitId","type":"uint256"},{"indexed":true,"internalType":"address","name":"payer","type":"address"},{"indexed":false,"internalType":"address","name":"token","type":"address"},{"indexed":false,"internalType":"uint256","name":"amount","type":"uint256"},{"indexed":false,"internalType":"uint256","name":"totalPaid","type":"uint256"}],"name":"PaymentMade","type":"event"},{"anonymous":false,"inputs":[{"indexed":true,"internalType":"uint256","name":"splitId","type":"uint256"},{"indexed":true,"internalType":"address","name":"creator","type":"address"}],"name":"SplitCancelled","type":"event"},{"anonymous":false,"inputs":[{"indexed":true,"internalType":"uint256","name":"splitId","type":"uint256"},{"indexed":true,"internalType":"address","name":"payee","type":"address"},{"indexed":false,"internalType":"address","name":"token","type":"address"},{"indexed":false,"internalType":"uint256","name":"totalAmount","type":"uint256"}],"name":"SplitCompleted","type":"event"},{"anonymous":false,"inputs":[{"indexed":true,"internalType":"uint256","name":"splitId","type":"uint256"},{"indexed":true,"internalType":"address","name":"creator","type":"address"},{"indexed":true,"internalType":"address","name":"payee","type":"address"},{"indexed":false,"internalType":"address","name":"token","type":"address"},{"indexed":false,"internalType":"uint256","name":"totalAmount","type":"uint256"},{"indexed":false,"internalType":"uint256","name":"deadline","type":"uint256"},{"indexed":false,"internalType":"string","name":"description","type":"string"},{"indexed":false,"internalType":"address[]","name":"debtors","type":"address[]"},{"indexed":false,"internalType":"uint256[]","name":"amounts","type":"uint256[]"}],"name":"SplitCreated","type":"event"},{"inputs":[],"name":"ETH_TOKEN","outputs":[{"internalType":"address","name":"","type":"address"}],"stateMutability":"view","type":"function"},{"inputs":[],"name":"GAS_LIMIT","outputs":[{"internalType":"uint256","name":"","type":"uint256"}],"stateMutability":"view","type":"function"},{"inputs":[],"name":"MAX_RECIPIENTS","outputs":[{"internalType":"uint256","name":"","type":"uint256"}],"stateMutability":"view","type":"function"},{"inputs":[{"internalType":"uint256","name":"splitId","type":"uint256"}],"name":"cancelSplit","outputs":[],"stateMutability":"nonpayable","type":"function"},{"inputs":[{"internalType":"uint256","name":"splitId","type":"uint256"}],"name":"checkOverduePayments","outputs":[],"stateMutability":"nonpayable","type":"function"},{"inputs":[{"internalType":"address","name":"payee","type":"address"},{"internalType":"address[]","name":"debtors","type":"address[]"},{"internalType":"uint256[]","name":"amounts","type":"uint256[]"},{"internalType":"address","name":"token","type":"address"},{"internalType":"uint256","name":"deadline","type":"uint256"},{"internalType":"string","name":"description","type":"string"}],"name":"createSplit","outputs":[{"internalType":"uint256","name":"splitId","type":"uint256"}],"stateMutability":"nonpayable","type":"function"},{"inputs":[{"internalType":"uint256","name":"splitId","type":"uint256"},{"internalType":"address","name":"debtor","type":"address"}],"name":"getOwedAmount","outputs":[{"internalType":"uint256","name":"","type":"uint256"}],"stateMutability":"view","type":"function"},{"inputs":[{"internalType":"uint256","name":"splitId","type":"uint256"},{"internalType":"address","name":"debtor","type":"address"}],"name":"getPaidAmount","outputs":[{"internalType":"uint256","name":"","type":"uint256"}],"stateMutability":"view","type":"function"},{"inputs":[{"internalType":"uint256","name":"splitId","type":"uint256"}],"name":"getSplitDetails","outputs":[{"internalType":"address","name":"creator","type":"address"},{"internalType":"address","name":"payee","type":"address"},{"internalType":"address","name":"token","type":"address"},{"internalType":"uint256","name":"totalAmount","type":"uint256"},{"internalType":"uint256","name":"totalPaid","type":"uint256"},{"internalType":"uint256","name":"deadline","type":"uint256"},{"internalType":"bool","name":"cancelled","type":"bool"},{"internalType":"string","name":"description","type":"string"},{"internalType":"address[]","name":"debtors","type":"address[]"},{"internalType":"uint256[]","name":"amounts","type":"uint256[]"}],"stateMutability":"view","type":"function"},{"inputs":[{"internalType":"address","name":"user","type":"address"}],"name":"getUserSplits","outputs":[{"internalType":"uint256[]","name":"","type":"uint256[]"}],"stateMutability":"view","type":"function"},{"inputs":[{"internalType":"uint256","name":"splitId","type":"uint256"},{"internalType":"address","name":"debtor","type":"address"}],"name":"hasPaid","outputs":[{"internalType":"bool","name":"","type":"bool"}],"stateMutability":"view","type":"function"},{"inputs":[{"internalType":"uint256","name":"splitId","type":"uint256"}],"name":"isSplitComplete","outputs":[{"internalType":"bool","name":"","type":"bool"}],"stateMutability":"view","type":"function"},{"inputs":[{"internalType":"uint256","name":"splitId","type":"uint256"},{"internalType":"address","name":"debtor","type":"address"}],"name":"payForSomeone","outputs":[],"stateMutability":"payable","type":"function"},{"inputs":[{"internalType":"uint256","name":"splitId","type":"uint256"}],"name":"payShare","outputs":[],"stateMutability":"payable","type":"function"},{"inputs":[],"name":"splitCounter","outputs":[{"internalType":"uint256","name":"","type":"uint256"}],"stateMutability":"view","type":"function"},{"inputs":[{"internalType":"uint256","name":"","type":"uint256"}],"name":"splitRequests","outputs":[{"internalType":"address","name":"creator","type":"address"},{"internalType":"address","name":"payee","type":"address"},{"internalType":"address","name":"token","type":"address"},{"internalType":"uint256","name":"totalAmount","type":"uint256"},{"internalType":"uint256","name":"totalPaid","type":"uint256"},{"internalType":"uint256","name":"deadline","type":"uint256"},{"internalType":"bool","name":"cancelled","type":"bool"},{"internalType":"string","name":"description","type":"string"}],"stateMutability":"view","type":"function"},{"inputs":[{"internalType":"address","name":"","type":"address"},{"internalType":"uint256","name":"","type":"uint256"}],"name":"userSplits","outputs":[{"internalType":"uint256","name":"","type":"uint256"}],"stateMutability":"view","type":"function"},{"stateMutability":"payable","type":"receive"}],"evm":{"bytecode":{"linkReferences":{},"object":"60808060405234601a5760016000556114d090816100208239f35b600080fdfe608080604052600436101561001d575b50361561001b57600080fd5b005b60003560e01c908163091d278814611104575080631319afc31461105a5780631caf98031461100c5780634034156614610fa8578063446a7d7e14610dbc57806358bc833714610da057806368fcb6fd1461086f5780637284ba5e1461080b578063a6980ce2146107ef578063a8587f30146107a1578063b3a0ab9814610705578063c854a85d146106e7578063c97320a714610441578063ca5d6986146103e8578063d8bc7fff1461037f578063edb186a91461027f5763f6b30c60146100e5573861000f565b3461027a57602036600319011261027a576004358015801561026f575b61025e576000526001602052604060002060018060a01b0381541660018060a01b0360018301541660018060a01b03600284015416926003810154936004820154600583015460ff60068501541691600885019761016260078701611191565b946040519687809860208d54918281520190819d60005260206000209060005b81811061023c5750505060096020999795936101a96101e89a9896946101af94038d611159565b01611335565b996040519b8c52888c015260408b015260608a0152608089015260a0880152151560c087015261014060e0870152610140860190611235565b91848303610100860152519182815201939060005b81811061021d57848061021988878382036101208501526112a2565b0390f35b82516001600160a01b03168652602095860195909201916001016101fd565b82546001600160a01b031684528c945060209093019260019283019201610182565b6380df553960e01b60005260046000fd5b506003548111610102565b600080fd5b3461027a57602036600319011261027a5760043580158015610374575b61025e578060005260016020526040600020906005820154918242111561036357906000906008830193845493600c8101935b8581106102d857005b806102e560019289611307565b838060a01b0391549060031b1c1660ff60406000858060a01b03841681528960205220541615610317575b50016102cf565b857ffb414c1e49a5e80a0e590cf6ee7e1e62b859bd7848a7f6ee41fa681437f84c0a6040806000878060a01b0386168152600a890160205220548151908152886020820152a388610310565b63b4fa3fb360e01b60005260046000fd5b50600354811161029c565b3461027a57604036600319011261027a5760043561039b61128c565b90801580156103dd575b61025e576000526001602052600c6040600020019060018060a01b0316600052602052602060ff604060002054166040519015158152f35b5060035481116103a5565b3461027a57604036600319011261027a57610401611276565b6001600160a01b031660009081526002602052604090208054602435919082101561027a5760209161043291611307565b90549060031b1c604051908152f35b602036600319011261027a57600435610458611478565b801580156106dc575b61025e5780600052600160205260406000209060ff6006830154166106cb57600582015442116106ba57600c82019160018060a01b0333166000528260205260ff604060002054166106a957336000908152600a820160205260409020549283156103635760028201805490919085906001600160a01b03168061061e5750340361060d5760008080808860018060a01b0360018901541661c350f1610505611398565b50156105fc575b336000908152600b84016020908152604080832088905592905220805460ff191660011790556004820180549091906105469086906113d8565b9182905554604080516001600160a01b0390921680835260208301969096528101829052339084907f32aced27dfd49efcd31ceb0567a1ef533d2ab1481334c3f316047bf16fe1c8e89080606081015b0390a360038201548091146105ad575b6001600055005b60019190910154604080516001600160a01b03958616815260208101939093529316927fc266e3054119e82aac3bfcc5a06fd16aeee127178776516bf5ca8e19ec1b8e1291a3808080806105a6565b6312171d8360e31b60005260046000fd5b63162908e360e11b60005260046000fd5b60018501546040516323b872dd60e01b81523360048201526001600160a01b0390911660248201526044810192909252602090829060649082906000905af1801561069d5761066e575b5061050c565b61068f9060203d602011610696575b6106878183611159565b810190611380565b5085610668565b503d61067d565b6040513d6000823e3d90fd5b630d70a0e360e41b60005260046000fd5b63289e2d1b60e01b60005260046000fd5b63f5b7a1c960e01b60005260046000fd5b506003548111610461565b3461027a57600036600319011261027a576020600354604051908152f35b3461027a57602036600319011261027a5760043580158015610796575b61025e57600081815260016020526040902080546001600160a01b0316330361078557600481015461036357600601805460ff1916600117905533907fe36c68f2ed53eb36566ad9043cf70ab0cda525e429f1b778426393a95031dc2b600080a3005b63ea8e4eb560e01b60005260046000fd5b506003548111610722565b3461027a57602036600319011261027a57600435801580156107e4575b61025e576000526001602052602060406000206003600482015491015414604051908152f35b5060035481116107be565b3461027a57600036600319011261027a57602060405160148152f35b3461027a57604036600319011261027a5760043561082761128c565b9080158015610864575b61025e576000526001602052600b6040600020019060018060a01b03166000526020526020604060002054604051908152f35b506003548111610831565b3461027a5760c036600319011261027a57610888611276565b60243567ffffffffffffffff811161027a576108a89036906004016112d6565b909160443567ffffffffffffffff811161027a576108ca9036906004016112d6565b6064356001600160a01b0381169592919086900361027a576084359460a4359067ffffffffffffffff821161027a573660238301121561027a5781600401359567ffffffffffffffff871161027a57366024888501011161027a5781158015610d96575b610363578382036103635742881115610363576001600160a01b031695861561036357600092835b858110610d405750831561060d576003546000198114610d2a57600101988960035589600052600160205260406000209460018060a01b0333166001600160601b0360a01b875416178655600186018a6001600160601b0360a01b825416179055600286018c6001600160601b0360a01b82541617905580600387015581600587015560078601956000966109eb815461111f565b601f8111610cef575b508588601f8211600114610c86578991610c78575b508660011b906000198860031b1c19161790555b6008810167ffffffffffffffff8711610c4957600160401b8711610c4957610a4a87825481845583611420565b8752602087208a885b888110610c5d575050506009810167ffffffffffffffff8911610c4957600160401b8911610c4957859493929181610a918b8d945481845583611420565b895260208920828a5b8c8110610c2f575050508d8c898c600a8d9501955b828610610bba575050505050505033875260026020528b6040882090610ad491611443565b6040519c8d5260208d015260408c015260608b0160c090528160c08c015260240160e08b013782818a0160e00152601f1990601f011688018160e082018a830360e00160808c01525261010001949082905b808210610b8e5750505086840360a08801528184526001600160fb1b038211610b8b5750856020809787947fed90a990f524dc4368cb4ad0ea870a97cb853557a31b0ef237506d51026883499460051b809184890137339601030190a4604051908152f35b80fd5b909195863560018060a01b038116809103610bb6578152602090810196019160010190610b26565b8480fd5b6001969798999a5085610c1e959493610bda82610be695610be1956113e5565b35946113e5565b6113f5565b858060a01b03168c528560205260408c20558d610c0d610be1858d888060a01b03946113e5565b168b52600260205260408b20611443565b019085949392918d8c898c8e610aaf565b8135838201558998508d9450602090910190600101610a9a565b634e487b7160e01b88526041600452602488fd5b6001906020610c6b846113f5565b9301928185015501610a53565b60249150860101358f610a09565b828a5260208a20915087601f1981168b5b818110610cd1575010610cb4575b5050600186811b019055610a1d565b860160240135600019600389901b60f8161c191690558e80610ca5565b8984016024013585556001909401936020938401938b935001610c97565b610d1a90828a5260208a20601f890160051c81019160208a10610d20575b601f0160051c0190611409565b8e6109f4565b9091508190610d0d565b634e487b7160e01b600052601160045260246000fd5b936001600160a01b03610d57610be187878c6113e5565b16158015610d83575b61036357610d7c600191610d7587898b6113e5565b35906113d8565b9401610956565b50610d8f8587896113e5565b3515610d60565b506014821161092e565b3461027a57600036600319011261027a57602060405160008152f35b604036600319011261027a57600435610dd361128c565b90610ddc611478565b80158015610f9d575b61025e57806000526001602052604060002060ff6006820154166106cb57600581015442116106ba57600c810160018060a01b0384166000528060205260ff604060002054166106a9576001600160a01b0384166000908152600a8301602052604090205480156103635760028301805490929082906001600160a01b031680610f2e5750340361060d5760008080808560018060a01b0360018a01541661c350f1610e8f611398565b50156105fc575b6001600160a01b0386166000908152600b85016020908152604080832085905592905220805460ff1916600117905560048301805485917f32aced27dfd49efcd31ceb0567a1ef533d2ab1481334c3f316047bf16fe1c8e891610efa9085906113d8565b908190559354604080516001600160a01b039283168082526020820196909652908101869052939716928060608101610596565b60018601546040516323b872dd60e01b81523360048201526001600160a01b0390911660248201526044810192909252602090829060649082906000905af1801561069d57610f7e575b50610e96565b610f969060203d602011610696576106878183611159565b5086610f78565b506003548111610de5565b3461027a57604036600319011261027a57600435610fc461128c565b9080158015611001575b61025e576000526001602052600a6040600020019060018060a01b03166000526020526020604060002054604051908152f35b506003548111610fce565b3461027a57602036600319011261027a576001600160a01b0361102d611276565b1660005260026020526102196110466040600020611335565b6040519182916020835260208301906112a2565b3461027a57602036600319011261027a576004356000526001602052604060002060018060a01b0381541661021960018060a01b036001840154169260018060a01b0360028201541690600381015460048201546005830154916110c8600760ff6006870154169501611191565b946040519889988952602089015260408801526060870152608086015260a0850152151560c084015261010060e0840152610100830190611235565b3461027a57600036600319011261027a578061c35060209252f35b90600182811c9216801561114f575b602083101461113957565b634e487b7160e01b600052602260045260246000fd5b91607f169161112e565b90601f8019910116810190811067ffffffffffffffff82111761117b57604052565b634e487b7160e01b600052604160045260246000fd5b90604051918260008254926111a58461111f565b808452936001811690811561121357506001146111cc575b506111ca92500383611159565b565b90506000929192526020600020906000915b8183106111f75750509060206111ca92820101386111bd565b60209193508060019154838589010152019101909184926111de565b9050602092506111ca94915060ff191682840152151560051b820101386111bd565b919082519283825260005b848110611261575050826000602080949584010152601f8019910116010190565b80602080928401015182828601015201611240565b600435906001600160a01b038216820361027a57565b602435906001600160a01b038216820361027a57565b906020808351928381520192019060005b8181106112c05750505090565b82518452602093840193909201916001016112b3565b9181601f8401121561027a5782359167ffffffffffffffff831161027a576020808501948460051b01011161027a57565b805482101561131f5760005260206000200190600090565b634e487b7160e01b600052603260045260246000fd5b906040519182815491828252602082019060005260206000209260005b8181106113675750506111ca92500383611159565b8454835260019485019487945060209093019201611352565b9081602091031261027a5751801515810361027a5790565b3d156113d3573d9067ffffffffffffffff821161117b57604051916113c7601f8201601f191660200184611159565b82523d6000602084013e565b606090565b91908201809211610d2a57565b919081101561131f5760051b0190565b356001600160a01b038116810361027a5790565b818110611414575050565b60008155600101611409565b9181811061142d57505050565b6111ca9260005260206000209182019101611409565b8054600160401b81101561117b5761146091600182018155611307565b819291549060031b91821b91600019901b1916179055565b600260005414611489576002600055565b633ee5aeb560e01b60005260046000fdfea26469706673582212206a57d7ee8d151ee7d8e2db318afa049bea0f6465c1cc9bf2308e94f395981d4d64736f6c634300081c0033","opcodes":"PUSH1 0x80 DUP1 PUSH1 0x40 MSTORE CALLVALUE PUSH1 0x1A JUMPI PUSH1 0x1 PUSH1 0x0 SSTORE PUSH2 0x14D0 SWAP1 DUP2 PUSH2 0x20 DUP3 CODECOPY RETURN JUMPDEST PUSH1 0x0 DUP1 REVERT INVALID PUSH1 0x80 DUP1 PUSH1 0x40 MSTORE PUSH1 0x4 CALLDATASIZE LT ISZERO PUSH2 0x1D JUMPI JUMPDEST POP CALLDATASIZE ISZERO PUSH2 0x1B JUMPI PUSH1 0x0 DUP1 REVERT JUMPDEST STOP JUMPDEST PUSH1 0x0 CALLDATALOAD PUSH1 0xE0 SHR SWAP1 DUP2 PUSH4 0x91D2788 EQ PUSH2 0x1104 JUMPI POP DUP1 PUSH4 0x1319AFC3 EQ PUSH2 0x105A JUMPI DUP1 PUSH4 0x1CAF9803 EQ PUSH2 0x100C JUMPI DUP1 PUSH4 0x40341566 EQ PUSH2 0xFA8 JUMPI DUP1 PUSH4 0x446A7D7E EQ PUSH2 0xDBC JUMPI DUP1 PUSH4 0x58BC8337 EQ PUSH2 0xDA0 JUMPI DUP1 PUSH4 0x68FCB6FD EQ PUSH2 0x86F JUMPI DUP1 PUSH4 0x7284BA5E EQ PUSH2 0x80B JUMPI DUP1 PUSH4 0xA6980CE2 EQ PUSH2 0x7EF JUMPI DUP1 PUSH4 0xA8587F30 EQ PUSH2 0x7A1 JUMPI DUP1 PUSH4 0xB3A0AB98 EQ PUSH2 0x705 JUMPI DUP1 PUSH4 0xC854A85D EQ PUSH2 0x6E7 JUMPI DUP1 PUSH4 0xC97320A7 EQ PUSH2 0x441 JUMPI DUP1 PUSH4 0xCA5D6986 EQ PUSH2 0x3E8 JUMPI DUP1 PUSH4 0xD8BC7FFF EQ PUSH2 0x37F JUMPI DUP1 PUSH4 0xEDB186A9 EQ PUSH2 0x27F JUMPI PUSH4 0xF6B30C60 EQ PUSH2 0xE5 JUMPI CODESIZE PUSH2 0xF JUMP JUMPDEST CALLVALUE PUSH2 0x27A JUMPI PUSH1 0x20 CALLDATASIZE PUSH1 0x3 NOT ADD SLT PUSH2 0x27A JUMPI PUSH1 0x4 CALLDATALOAD DUP1 ISZERO DUP1 ISZERO PUSH2 0x26F JUMPI JUMPDEST PUSH2 0x25E JUMPI PUSH1 0x0 MSTORE PUSH1 0x1 PUSH1 0x20 MSTORE PUSH1 0x40 PUSH1 0x0 KECCAK256 PUSH1 0x1 DUP1 PUSH1 0xA0 SHL SUB DUP2 SLOAD AND PUSH1 0x1 DUP1 PUSH1 0xA0 SHL SUB PUSH1 0x1 DUP4 ADD SLOAD AND PUSH1 0x1 DUP1 PUSH1 0xA0 SHL SUB PUSH1 0x2 DUP5 ADD SLOAD AND SWAP3 PUSH1 0x3 DUP2 ADD SLOAD SWAP4 PUSH1 0x4 DUP3 ADD SLOAD PUSH1 0x5 DUP4 ADD SLOAD PUSH1 0xFF PUSH1 0x6 DUP6 ADD SLOAD AND SWAP2 PUSH1 0x8 DUP6 ADD SWAP8 PUSH2 0x162 PUSH1 0x7 DUP8 ADD PUSH2 0x1191 JUMP JUMPDEST SWAP5 PUSH1 0x40 MLOAD SWAP7 DUP8 DUP1 SWAP9 PUSH1 0x20 DUP14 SLOAD SWAP2 DUP3 DUP2 MSTORE ADD SWAP1 DUP2 SWAP14 PUSH1 0x0 MSTORE PUSH1 0x20 PUSH1 0x0 KECCAK256 SWAP1 PUSH1 0x0 JUMPDEST DUP2 DUP2 LT PUSH2 0x23C JUMPI POP POP POP PUSH1 0x9 PUSH1 0x20 SWAP10 SWAP8 SWAP6 SWAP4 PUSH2 0x1A9 PUSH2 0x1E8 SWAP11 SWAP9 SWAP7 SWAP5 PUSH2 0x1AF SWAP5 SUB DUP14 PUSH2 0x1159 JUMP JUMPDEST ADD PUSH2 0x1335 JUMP JUMPDEST SWAP10 PUSH1 0x40 MLOAD SWAP12 DUP13 MSTORE DUP9 DUP13 ADD MSTORE PUSH1 0x40 DUP12 ADD MSTORE PUSH1 0x60 DUP11 ADD MSTORE PUSH1 0x80 DUP10 ADD MSTORE PUSH1 0xA0 DUP9 ADD MSTORE ISZERO ISZERO PUSH1 0xC0 DUP8 ADD MSTORE PUSH2 0x140 PUSH1 0xE0 DUP8 ADD MSTORE PUSH2 0x140 DUP7 ADD SWAP1 PUSH2 0x1235 JUMP JUMPDEST SWAP2 DUP5 DUP4 SUB PUSH2 0x100 DUP7 ADD MSTORE MLOAD SWAP2 DUP3 DUP2 MSTORE ADD SWAP4 SWAP1 PUSH1 0x0 JUMPDEST DUP2 DUP2 LT PUSH2 0x21D JUMPI DUP5 DUP1 PUSH2 0x219 DUP9 DUP8 DUP4 DUP3 SUB PUSH2 0x120 DUP6 ADD MSTORE PUSH2 0x12A2 JUMP JUMPDEST SUB SWAP1 RETURN JUMPDEST DUP3 MLOAD PUSH1 0x1 PUSH1 0x1 PUSH1 0xA0 SHL SUB AND DUP7 MSTORE PUSH1 0x20 SWAP6 DUP7 ADD SWAP6 SWAP1 SWAP3 ADD SWAP2 PUSH1 0x1 ADD PUSH2 0x1FD JUMP JUMPDEST DUP3 SLOAD PUSH1 0x1 PUSH1 0x1 PUSH1 0xA0 SHL SUB AND DUP5 MSTORE DUP13 SWAP5 POP PUSH1 0x20 SWAP1 SWAP4 ADD SWAP3 PUSH1 0x1 SWAP3 DUP4 ADD SWAP3 ADD PUSH2 0x182 JUMP JUMPDEST PUSH4 0x80DF5539 PUSH1 0xE0 SHL PUSH1 0x0 MSTORE PUSH1 0x4 PUSH1 0x0 REVERT JUMPDEST POP PUSH1 0x3 SLOAD DUP2 GT PUSH2 0x102 JUMP JUMPDEST PUSH1 0x0 DUP1 REVERT JUMPDEST CALLVALUE PUSH2 0x27A JUMPI PUSH1 0x20 CALLDATASIZE PUSH1 0x3 NOT ADD SLT PUSH2 0x27A JUMPI PUSH1 0x4 CALLDATALOAD DUP1 ISZERO DUP1 ISZERO PUSH2 0x374 JUMPI JUMPDEST PUSH2 0x25E JUMPI DUP1 PUSH1 0x0 MSTORE PUSH1 0x1 PUSH1 0x20 MSTORE PUSH1 0x40 PUSH1 0x0 KECCAK256 SWAP1 PUSH1 0x5 DUP3 ADD SLOAD SWAP2 DUP3 TIMESTAMP GT ISZERO PUSH2 0x363 JUMPI SWAP1 PUSH1 0x0 SWAP1 PUSH1 0x8 DUP4 ADD SWAP4 DUP5 SLOAD SWAP4 PUSH1 0xC DUP2 ADD SWAP4 JUMPDEST DUP6 DUP2 LT PUSH2 0x2D8 JUMPI STOP JUMPDEST DUP1 PUSH2 0x2E5 PUSH1 0x1 SWAP3 DUP10 PUSH2 0x1307 JUMP JUMPDEST DUP4 DUP1 PUSH1 0xA0 SHL SUB SWAP2 SLOAD SWAP1 PUSH1 0x3 SHL SHR AND PUSH1 0xFF PUSH1 0x40 PUSH1 0x0 DUP6 DUP1 PUSH1 0xA0 SHL SUB DUP5 AND DUP2 MSTORE DUP10 PUSH1 0x20 MSTORE KECCAK256 SLOAD AND ISZERO PUSH2 0x317 JUMPI JUMPDEST POP ADD PUSH2 0x2CF JUMP JUMPDEST DUP6 PUSH32 0xFB414C1E49A5E80A0E590CF6EE7E1E62B859BD7848A7F6EE41FA681437F84C0A PUSH1 0x40 DUP1 PUSH1 0x0 DUP8 DUP1 PUSH1 0xA0 SHL SUB DUP7 AND DUP2 MSTORE PUSH1 0xA DUP10 ADD PUSH1 0x20 MSTORE KECCAK256 SLOAD DUP2 MLOAD SWAP1 DUP2 MSTORE DUP9 PUSH1 0x20 DUP3 ADD MSTORE LOG3 DUP9 PUSH2 0x310 JUMP JUMPDEST PUSH4 0xB4FA3FB3 PUSH1 0xE0 SHL PUSH1 0x0 MSTORE PUSH1 0x4 PUSH1 0x0 REVERT JUMPDEST POP PUSH1 0x3 SLOAD DUP2 GT PUSH2 0x29C JUMP JUMPDEST CALLVALUE PUSH2 0x27A JUMPI PUSH1 0x40 CALLDATASIZE PUSH1 0x3 NOT ADD SLT PUSH2 0x27A JUMPI PUSH1 0x4 CALLDATALOAD PUSH2 0x39B PUSH2 0x128C JUMP JUMPDEST SWAP1 DUP1 ISZERO DUP1 ISZERO PUSH2 0x3DD JUMPI JUMPDEST PUSH2 0x25E JUMPI PUSH1 0x0 MSTORE PUSH1 0x1 PUSH1 0x20 MSTORE PUSH1 0xC PUSH1 0x40 PUSH1 0x0 KECCAK256 ADD SWAP1 PUSH1 0x1 DUP1 PUSH1 0xA0 SHL SUB AND PUSH1 0x0 MSTORE PUSH1 0x20 MSTORE PUSH1 0x20 PUSH1 0xFF PUSH1 0x40 PUSH1 0x0 KECCAK256 SLOAD AND PUSH1 0x40 MLOAD SWAP1 ISZERO ISZERO DUP2 MSTORE RETURN JUMPDEST POP PUSH1 0x3 SLOAD DUP2 GT PUSH2 0x3A5 JUMP JUMPDEST CALLVALUE PUSH2 0x27A JUMPI PUSH1 0x40 CALLDATASIZE PUSH1 0x3 NOT ADD SLT PUSH2 0x27A JUMPI PUSH2 0x401 PUSH2 0x1276 JUMP JUMPDEST PUSH1 0x1 PUSH1 0x1 PUSH1 0xA0 SHL SUB AND PUSH1 0x0 SWAP1 DUP2 MSTORE PUSH1 0x2 PUSH1 0x20 MSTORE PUSH1 0x40 SWAP1 KECCAK256 DUP1 SLOAD PUSH1 0x24 CALLDATALOAD SWAP2 SWAP1 DUP3 LT ISZERO PUSH2 0x27A JUMPI PUSH1 0x20 SWAP2 PUSH2 0x432 SWAP2 PUSH2 0x1307 JUMP JUMPDEST SWAP1 SLOAD SWAP1 PUSH1 0x3 SHL SHR PUSH1 0x40 MLOAD SWAP1 DUP2 MSTORE RETURN JUMPDEST PUSH1 0x20 CALLDATASIZE PUSH1 0x3 NOT ADD SLT PUSH2 0x27A JUMPI PUSH1 0x4 CALLDATALOAD PUSH2 0x458 PUSH2 0x1478 JUMP JUMPDEST DUP1 ISZERO DUP1 ISZERO PUSH2 0x6DC JUMPI JUMPDEST PUSH2 0x25E JUMPI DUP1 PUSH1 0x0 MSTORE PUSH1 0x1 PUSH1 0x20 MSTORE PUSH1 0x40 PUSH1 0x0 KECCAK256 SWAP1 PUSH1 0xFF PUSH1 0x6 DUP4 ADD SLOAD AND PUSH2 0x6CB JUMPI PUSH1 0x5 DUP3 ADD SLOAD TIMESTAMP GT PUSH2 0x6BA JUMPI PUSH1 0xC DUP3 ADD SWAP2 PUSH1 0x1 DUP1 PUSH1 0xA0 SHL SUB CALLER AND PUSH1 0x0 MSTORE DUP3 PUSH1 0x20 MSTORE PUSH1 0xFF PUSH1 0x40 PUSH1 0x0 KECCAK256 SLOAD AND PUSH2 0x6A9 JUMPI CALLER PUSH1 0x0 SWAP1 DUP2 MSTORE PUSH1 0xA DUP3 ADD PUSH1 0x20 MSTORE PUSH1 0x40 SWAP1 KECCAK256 SLOAD SWAP3 DUP4 ISZERO PUSH2 0x363 JUMPI PUSH1 0x2 DUP3 ADD DUP1 SLOAD SWAP1 SWAP2 SWAP1 DUP6 SWAP1 PUSH1 0x1 PUSH1 0x1 PUSH1 0xA0 SHL SUB AND DUP1 PUSH2 0x61E JUMPI POP CALLVALUE SUB PUSH2 0x60D JUMPI PUSH1 0x0 DUP1 DUP1 DUP1 DUP9 PUSH1 0x1 DUP1 PUSH1 0xA0 SHL SUB PUSH1 0x1 DUP10 ADD SLOAD AND PUSH2 0xC350 CALL PUSH2 0x505 PUSH2 0x1398 JUMP JUMPDEST POP ISZERO PUSH2 0x5FC JUMPI JUMPDEST CALLER PUSH1 0x0 SWAP1 DUP2 MSTORE PUSH1 0xB DUP5 ADD PUSH1 0x20 SWAP1 DUP2 MSTORE PUSH1 0x40 DUP1 DUP4 KECCAK256 DUP9 SWAP1 SSTORE SWAP3 SWAP1 MSTORE KECCAK256 DUP1 SLOAD PUSH1 0xFF NOT AND PUSH1 0x1 OR SWAP1 SSTORE PUSH1 0x4 DUP3 ADD DUP1 SLOAD SWAP1 SWAP2 SWAP1 PUSH2 0x546 SWAP1 DUP7 SWAP1 PUSH2 0x13D8 JUMP JUMPDEST SWAP2 DUP3 SWAP1 SSTORE SLOAD PUSH1 0x40 DUP1 MLOAD PUSH1 0x1 PUSH1 0x1 PUSH1 0xA0 SHL SUB SWAP1 SWAP3 AND DUP1 DUP4 MSTORE PUSH1 0x20 DUP4 ADD SWAP7 SWAP1 SWAP7 MSTORE DUP2 ADD DUP3 SWAP1 MSTORE CALLER SWAP1 DUP5 SWAP1 PUSH32 0x32ACED27DFD49EFCD31CEB0567A1EF533D2AB1481334C3F316047BF16FE1C8E8 SWAP1 DUP1 PUSH1 0x60 DUP2 ADD JUMPDEST SUB SWAP1 LOG3 PUSH1 0x3 DUP3 ADD SLOAD DUP1 SWAP2 EQ PUSH2 0x5AD JUMPI JUMPDEST PUSH1 0x1 PUSH1 0x0 SSTORE STOP JUMPDEST PUSH1 0x1 SWAP2 SWAP1 SWAP2 ADD SLOAD PUSH1 0x40 DUP1 MLOAD PUSH1 0x1 PUSH1 0x1 PUSH1 0xA0 SHL SUB SWAP6 DUP7 AND DUP2 MSTORE PUSH1 0x20 DUP2 ADD SWAP4 SWAP1 SWAP4 MSTORE SWAP4 AND SWAP3 PUSH32 0xC266E3054119E82AAC3BFCC5A06FD16AEEE127178776516BF5CA8E19EC1B8E12 SWAP2 LOG3 DUP1 DUP1 DUP1 DUP1 PUSH2 0x5A6 JUMP JUMPDEST PUSH4 0x12171D83 PUSH1 0xE3 SHL PUSH1 0x0 MSTORE PUSH1 0x4 PUSH1 0x0 REVERT JUMPDEST PUSH4 0x162908E3 PUSH1 0xE1 SHL PUSH1 0x0 MSTORE PUSH1 0x4 PUSH1 0x0 REVERT JUMPDEST PUSH1 0x1 DUP6 ADD SLOAD PUSH1 0x40 MLOAD PUSH4 0x23B872DD PUSH1 0xE0 SHL DUP2 MSTORE CALLER PUSH1 0x4 DUP3 ADD MSTORE PUSH1 0x1 PUSH1 0x1 PUSH1 0xA0 SHL SUB SWAP1 SWAP2 AND PUSH1 0x24 DUP3 ADD MSTORE PUSH1 0x44 DUP2 ADD SWAP3 SWAP1 SWAP3 MSTORE PUSH1 0x20 SWAP1 DUP3 SWAP1 PUSH1 0x64 SWAP1 DUP3 SWAP1 PUSH1 0x0 SWAP1 GAS CALL DUP1 ISZERO PUSH2 0x69D JUMPI PUSH2 0x66E JUMPI JUMPDEST POP PUSH2 0x50C JUMP JUMPDEST PUSH2 0x68F SWAP1 PUSH1 0x20 RETURNDATASIZE PUSH1 0x20 GT PUSH2 0x696 JUMPI JUMPDEST PUSH2 0x687 DUP2 DUP4 PUSH2 0x1159 JUMP JUMPDEST DUP2 ADD SWAP1 PUSH2 0x1380 JUMP JUMPDEST POP DUP6 PUSH2 0x668 JUMP JUMPDEST POP RETURNDATASIZE PUSH2 0x67D JUMP JUMPDEST PUSH1 0x40 MLOAD RETURNDATASIZE PUSH1 0x0 DUP3 RETURNDATACOPY RETURNDATASIZE SWAP1 REVERT JUMPDEST PUSH4 0xD70A0E3 PUSH1 0xE4 SHL PUSH1 0x0 MSTORE PUSH1 0x4 PUSH1 0x0 REVERT JUMPDEST PUSH4 0x289E2D1B PUSH1 0xE0 SHL PUSH1 0x0 MSTORE PUSH1 0x4 PUSH1 0x0 REVERT JUMPDEST PUSH4 0xF5B7A1C9 PUSH1 0xE0 SHL PUSH1 0x0 MSTORE PUSH1 0x4 PUSH1 0x0 REVERT JUMPDEST POP PUSH1 0x3 SLOAD DUP2 GT PUSH2 0x461 JUMP JUMPDEST CALLVALUE PUSH2 0x27A JUMPI PUSH1 0x0 CALLDATASIZE PUSH1 0x3 NOT ADD SLT PUSH2 0x27A JUMPI PUSH1 0x20 PUSH1 0x3 SLOAD PUSH1 0x40 MLOAD SWAP1 DUP2 MSTORE RETURN JUMPDEST CALLVALUE PUSH2 0x27A JUMPI PUSH1 0x20 CALLDATASIZE PUSH1 0x3 NOT ADD SLT PUSH2 0x27A JUMPI PUSH1 0x4 CALLDATALOAD DUP1 ISZERO DUP1 ISZERO PUSH2 0x796 JUMPI JUMPDEST PUSH2 0x25E JUMPI PUSH1 0x0 DUP2 DUP2 MSTORE PUSH1 0x1 PUSH1 0x20 MSTORE PUSH1 0x40 SWAP1 KECCAK256 DUP1 SLOAD PUSH1 0x1 PUSH1 0x1 PUSH1 0xA0 SHL SUB AND CALLER SUB PUSH2 0x785 JUMPI PUSH1 0x4 DUP2 ADD SLOAD PUSH2 0x363 JUMPI PUSH1 0x6 ADD DUP1 SLOAD PUSH1 0xFF NOT AND PUSH1 0x1 OR SWAP1 SSTORE CALLER SWAP1 PUSH32 0xE36C68F2ED53EB36566AD9043CF70AB0CDA525E429F1B778426393A95031DC2B PUSH1 0x0 DUP1 LOG3 STOP JUMPDEST PUSH4 0xEA8E4EB5 PUSH1 0xE0 SHL PUSH1 0x0 MSTORE PUSH1 0x4 PUSH1 0x0 REVERT JUMPDEST POP PUSH1 0x3 SLOAD DUP2 GT PUSH2 0x722 JUMP JUMPDEST CALLVALUE PUSH2 0x27A JUMPI PUSH1 0x20 CALLDATASIZE PUSH1 0x3 NOT ADD SLT PUSH2 0x27A JUMPI PUSH1 0x4 CALLDATALOAD DUP1 ISZERO DUP1 ISZERO PUSH2 0x7E4 JUMPI JUMPDEST PUSH2 0x25E JUMPI PUSH1 0x0 MSTORE PUSH1 0x1 PUSH1 0x20 MSTORE PUSH1 0x20 PUSH1 0x40 PUSH1 0x0 KECCAK256 PUSH1 0x3 PUSH1 0x4 DUP3 ADD SLOAD SWAP2 ADD SLOAD EQ PUSH1 0x40 MLOAD SWAP1 DUP2 MSTORE RETURN JUMPDEST POP PUSH1 0x3 SLOAD DUP2 GT PUSH2 0x7BE JUMP JUMPDEST CALLVALUE PUSH2 0x27A JUMPI PUSH1 0x0 CALLDATASIZE PUSH1 0x3 NOT ADD SLT PUSH2 0x27A JUMPI PUSH1 0x20 PUSH1 0x40 MLOAD PUSH1 0x14 DUP2 MSTORE RETURN JUMPDEST CALLVALUE PUSH2 0x27A JUMPI PUSH1 0x40 CALLDATASIZE PUSH1 0x3 NOT ADD SLT PUSH2 0x27A JUMPI PUSH1 0x4 CALLDATALOAD PUSH2 0x827 PUSH2 0x128C JUMP JUMPDEST SWAP1 DUP1 ISZERO DUP1 ISZERO PUSH2 0x864 JUMPI JUMPDEST PUSH2 0x25E JUMPI PUSH1 0x0 MSTORE PUSH1 0x1 PUSH1 0x20 MSTORE PUSH1 0xB PUSH1 0x40 PUSH1 0x0 KECCAK256 ADD SWAP1 PUSH1 0x1 DUP1 PUSH1 0xA0 SHL SUB AND PUSH1 0x0 MSTORE PUSH1 0x20 MSTORE PUSH1 0x20 PUSH1 0x40 PUSH1 0x0 KECCAK256 SLOAD PUSH1 0x40 MLOAD SWAP1 DUP2 MSTORE RETURN JUMPDEST POP PUSH1 0x3 SLOAD DUP2 GT PUSH2 0x831 JUMP JUMPDEST CALLVALUE PUSH2 0x27A JUMPI PUSH1 0xC0 CALLDATASIZE PUSH1 0x3 NOT ADD SLT PUSH2 0x27A JUMPI PUSH2 0x888 PUSH2 0x1276 JUMP JUMPDEST PUSH1 0x24 CALLDATALOAD PUSH8 0xFFFFFFFFFFFFFFFF DUP2 GT PUSH2 0x27A JUMPI PUSH2 0x8A8 SWAP1 CALLDATASIZE SWAP1 PUSH1 0x4 ADD PUSH2 0x12D6 JUMP JUMPDEST SWAP1 SWAP2 PUSH1 0x44 CALLDATALOAD PUSH8 0xFFFFFFFFFFFFFFFF DUP2 GT PUSH2 0x27A JUMPI PUSH2 0x8CA SWAP1 CALLDATASIZE SWAP1 PUSH1 0x4 ADD PUSH2 0x12D6 JUMP JUMPDEST PUSH1 0x64 CALLDATALOAD PUSH1 0x1 PUSH1 0x1 PUSH1 0xA0 SHL SUB DUP2 AND SWAP6 SWAP3 SWAP2 SWAP1 DUP7 SWAP1 SUB PUSH2 0x27A JUMPI PUSH1 0x84 CALLDATALOAD SWAP5 PUSH1 0xA4 CALLDATALOAD SWAP1 PUSH8 0xFFFFFFFFFFFFFFFF DUP3 GT PUSH2 0x27A JUMPI CALLDATASIZE PUSH1 0x23 DUP4 ADD SLT ISZERO PUSH2 0x27A JUMPI DUP2 PUSH1 0x4 ADD CALLDATALOAD SWAP6 PUSH8 0xFFFFFFFFFFFFFFFF DUP8 GT PUSH2 0x27A JUMPI CALLDATASIZE PUSH1 0x24 DUP9 DUP6 ADD ADD GT PUSH2 0x27A JUMPI DUP2 ISZERO DUP1 ISZERO PUSH2 0xD96 JUMPI JUMPDEST PUSH2 0x363 JUMPI DUP4 DUP3 SUB PUSH2 0x363 JUMPI TIMESTAMP DUP9 GT ISZERO PUSH2 0x363 JUMPI PUSH1 0x1 PUSH1 0x1 PUSH1 0xA0 SHL SUB AND SWAP6 DUP7 ISZERO PUSH2 0x363 JUMPI PUSH1 0x0 SWAP3 DUP4 JUMPDEST DUP6 DUP2 LT PUSH2 0xD40 JUMPI POP DUP4 ISZERO PUSH2 0x60D JUMPI PUSH1 0x3 SLOAD PUSH1 0x0 NOT DUP2 EQ PUSH2 0xD2A JUMPI PUSH1 0x1 ADD SWAP9 DUP10 PUSH1 0x3 SSTORE DUP10 PUSH1 0x0 MSTORE PUSH1 0x1 PUSH1 0x20 MSTORE PUSH1 0x40 PUSH1 0x0 KECCAK256 SWAP5 PUSH1 0x1 DUP1 PUSH1 0xA0 SHL SUB CALLER AND PUSH1 0x1 PUSH1 0x1 PUSH1 0x60 SHL SUB PUSH1 0xA0 SHL DUP8 SLOAD AND OR DUP7 SSTORE PUSH1 0x1 DUP7 ADD DUP11 PUSH1 0x1 PUSH1 0x1 PUSH1 0x60 SHL SUB PUSH1 0xA0 SHL DUP3 SLOAD AND OR SWAP1 SSTORE PUSH1 0x2 DUP7 ADD DUP13 PUSH1 0x1 PUSH1 0x1 PUSH1 0x60 SHL SUB PUSH1 0xA0 SHL DUP3 SLOAD AND OR SWAP1 SSTORE DUP1 PUSH1 0x3 DUP8 ADD SSTORE DUP2 PUSH1 0x5 DUP8 ADD SSTORE PUSH1 0x7 DUP7 ADD SWAP6 PUSH1 0x0 SWAP7 PUSH2 0x9EB DUP2 SLOAD PUSH2 0x111F JUMP JUMPDEST PUSH1 0x1F DUP2 GT PUSH2 0xCEF JUMPI JUMPDEST POP DUP6 DUP9 PUSH1 0x1F DUP3 GT PUSH1 0x1 EQ PUSH2 0xC86 JUMPI DUP10 SWAP2 PUSH2 0xC78 JUMPI JUMPDEST POP DUP7 PUSH1 0x1 SHL SWAP1 PUSH1 0x0 NOT DUP9 PUSH1 0x3 SHL SHR NOT AND OR SWAP1 SSTORE JUMPDEST PUSH1 0x8 DUP2 ADD PUSH8 0xFFFFFFFFFFFFFFFF DUP8 GT PUSH2 0xC49 JUMPI PUSH1 0x1 PUSH1 0x40 SHL DUP8 GT PUSH2 0xC49 JUMPI PUSH2 0xA4A DUP8 DUP3 SLOAD DUP2 DUP5 SSTORE DUP4 PUSH2 0x1420 JUMP JUMPDEST DUP8 MSTORE PUSH1 0x20 DUP8 KECCAK256 DUP11 DUP9 JUMPDEST DUP9 DUP2 LT PUSH2 0xC5D JUMPI POP POP POP PUSH1 0x9 DUP2 ADD PUSH8 0xFFFFFFFFFFFFFFFF DUP10 GT PUSH2 0xC49 JUMPI PUSH1 0x1 PUSH1 0x40 SHL DUP10 GT PUSH2 0xC49 JUMPI DUP6 SWAP5 SWAP4 SWAP3 SWAP2 DUP2 PUSH2 0xA91 DUP12 DUP14 SWAP5 SLOAD DUP2 DUP5 SSTORE DUP4 PUSH2 0x1420 JUMP JUMPDEST DUP10 MSTORE PUSH1 0x20 DUP10 KECCAK256 DUP3 DUP11 JUMPDEST DUP13 DUP2 LT PUSH2 0xC2F JUMPI POP POP POP DUP14 DUP13 DUP10 DUP13 PUSH1 0xA DUP14 SWAP6 ADD SWAP6 JUMPDEST DUP3 DUP7 LT PUSH2 0xBBA JUMPI POP POP POP POP POP POP POP CALLER DUP8 MSTORE PUSH1 0x2 PUSH1 0x20 MSTORE DUP12 PUSH1 0x40 DUP9 KECCAK256 SWAP1 PUSH2 0xAD4 SWAP2 PUSH2 0x1443 JUMP JUMPDEST PUSH1 0x40 MLOAD SWAP13 DUP14 MSTORE PUSH1 0x20 DUP14 ADD MSTORE PUSH1 0x40 DUP13 ADD MSTORE PUSH1 0x60 DUP12 ADD PUSH1 0xC0 SWAP1 MSTORE DUP2 PUSH1 0xC0 DUP13 ADD MSTORE PUSH1 0x24 ADD PUSH1 0xE0 DUP12 ADD CALLDATACOPY DUP3 DUP2 DUP11 ADD PUSH1 0xE0 ADD MSTORE PUSH1 0x1F NOT SWAP1 PUSH1 0x1F ADD AND DUP9 ADD DUP2 PUSH1 0xE0 DUP3 ADD DUP11 DUP4 SUB PUSH1 0xE0 ADD PUSH1 0x80 DUP13 ADD MSTORE MSTORE PUSH2 0x100 ADD SWAP5 SWAP1 DUP3 SWAP1 JUMPDEST DUP1 DUP3 LT PUSH2 0xB8E JUMPI POP POP POP DUP7 DUP5 SUB PUSH1 0xA0 DUP9 ADD MSTORE DUP2 DUP5 MSTORE PUSH1 0x1 PUSH1 0x1 PUSH1 0xFB SHL SUB DUP3 GT PUSH2 0xB8B JUMPI POP DUP6 PUSH1 0x20 DUP1 SWAP8 DUP8 SWAP5 PUSH32 0xED90A990F524DC4368CB4AD0EA870A97CB853557A31B0EF237506D5102688349 SWAP5 PUSH1 0x5 SHL DUP1 SWAP2 DUP5 DUP10 ADD CALLDATACOPY CALLER SWAP7 ADD SUB ADD SWAP1 LOG4 PUSH1 0x40 MLOAD SWAP1 DUP2 MSTORE RETURN JUMPDEST DUP1 REVERT JUMPDEST SWAP1 SWAP2 SWAP6 DUP7 CALLDATALOAD PUSH1 0x1 DUP1 PUSH1 0xA0 SHL SUB DUP2 AND DUP1 SWAP2 SUB PUSH2 0xBB6 JUMPI DUP2 MSTORE PUSH1 0x20 SWAP1 DUP2 ADD SWAP7 ADD SWAP2 PUSH1 0x1 ADD SWAP1 PUSH2 0xB26 JUMP JUMPDEST DUP5 DUP1 REVERT JUMPDEST PUSH1 0x1 SWAP7 SWAP8 SWAP9 SWAP10 SWAP11 POP DUP6 PUSH2 0xC1E SWAP6 SWAP5 SWAP4 PUSH2 0xBDA DUP3 PUSH2 0xBE6 SWAP6 PUSH2 0xBE1 SWAP6 PUSH2 0x13E5 JUMP JUMPDEST CALLDATALOAD SWAP5 PUSH2 0x13E5 JUMP JUMPDEST PUSH2 0x13F5 JUMP JUMPDEST DUP6 DUP1 PUSH1 0xA0 SHL SUB AND DUP13 MSTORE DUP6 PUSH1 0x20 MSTORE PUSH1 0x40 DUP13 KECCAK256 SSTORE DUP14 PUSH2 0xC0D PUSH2 0xBE1 DUP6 DUP14 DUP9 DUP1 PUSH1 0xA0 SHL SUB SWAP5 PUSH2 0x13E5 JUMP JUMPDEST AND DUP12 MSTORE PUSH1 0x2 PUSH1 0x20 MSTORE PUSH1 0x40 DUP12 KECCAK256 PUSH2 0x1443 JUMP JUMPDEST ADD SWAP1 DUP6 SWAP5 SWAP4 SWAP3 SWAP2 DUP14 DUP13 DUP10 DUP13 DUP15 PUSH2 0xAAF JUMP JUMPDEST DUP2 CALLDATALOAD DUP4 DUP3 ADD SSTORE DUP10 SWAP9 POP DUP14 SWAP5 POP PUSH1 0x20 SWAP1 SWAP2 ADD SWAP1 PUSH1 0x1 ADD PUSH2 0xA9A JUMP JUMPDEST PUSH4 0x4E487B71 PUSH1 0xE0 SHL DUP9 MSTORE PUSH1 0x41 PUSH1 0x4 MSTORE PUSH1 0x24 DUP9 REVERT JUMPDEST PUSH1 0x1 SWAP1 PUSH1 0x20 PUSH2 0xC6B DUP5 PUSH2 0x13F5 JUMP JUMPDEST SWAP4 ADD SWAP3 DUP2 DUP6 ADD SSTORE ADD PUSH2 0xA53 JUMP JUMPDEST PUSH1 0x24 SWAP2 POP DUP7 ADD ADD CALLDATALOAD DUP16 PUSH2 0xA09 JUMP JUMPDEST DUP3 DUP11 MSTORE PUSH1 0x20 DUP11 KECCAK256 SWAP2 POP DUP8 PUSH1 0x1F NOT DUP2 AND DUP12 JUMPDEST DUP2 DUP2 LT PUSH2 0xCD1 JUMPI POP LT PUSH2 0xCB4 JUMPI JUMPDEST POP POP PUSH1 0x1 DUP7 DUP2 SHL ADD SWAP1 SSTORE PUSH2 0xA1D JUMP JUMPDEST DUP7 ADD PUSH1 0x24 ADD CALLDATALOAD PUSH1 0x0 NOT PUSH1 0x3 DUP10 SWAP1 SHL PUSH1 0xF8 AND SHR NOT AND SWAP1 SSTORE DUP15 DUP1 PUSH2 0xCA5 JUMP JUMPDEST DUP10 DUP5 ADD PUSH1 0x24 ADD CALLDATALOAD DUP6 SSTORE PUSH1 0x1 SWAP1 SWAP5 ADD SWAP4 PUSH1 0x20 SWAP4 DUP5 ADD SWAP4 DUP12 SWAP4 POP ADD PUSH2 0xC97 JUMP JUMPDEST PUSH2 0xD1A SWAP1 DUP3 DUP11 MSTORE PUSH1 0x20 DUP11 KECCAK256 PUSH1 0x1F DUP10 ADD PUSH1 0x5 SHR DUP2 ADD SWAP2 PUSH1 0x20 DUP11 LT PUSH2 0xD20 JUMPI JUMPDEST PUSH1 0x1F ADD PUSH1 0x5 SHR ADD SWAP1 PUSH2 0x1409 JUMP JUMPDEST DUP15 PUSH2 0x9F4 JUMP JUMPDEST SWAP1 SWAP2 POP DUP2 SWAP1 PUSH2 0xD0D JUMP JUMPDEST PUSH4 0x4E487B71 PUSH1 0xE0 SHL PUSH1 0x0 MSTORE PUSH1 0x11 PUSH1 0x4 MSTORE PUSH1 0x24 PUSH1 0x0 REVERT JUMPDEST SWAP4 PUSH1 0x1 PUSH1 0x1 PUSH1 0xA0 SHL SUB PUSH2 0xD57 PUSH2 0xBE1 DUP8 DUP8 DUP13 PUSH2 0x13E5 JUMP JUMPDEST AND ISZERO DUP1 ISZERO PUSH2 0xD83 JUMPI JUMPDEST PUSH2 0x363 JUMPI PUSH2 0xD7C PUSH1 0x1 SWAP2 PUSH2 0xD75 DUP8 DUP10 DUP12 PUSH2 0x13E5 JUMP JUMPDEST CALLDATALOAD SWAP1 PUSH2 0x13D8 JUMP JUMPDEST SWAP5 ADD PUSH2 0x956 JUMP JUMPDEST POP PUSH2 0xD8F DUP6 DUP8 DUP10 PUSH2 0x13E5 JUMP JUMPDEST CALLDATALOAD ISZERO PUSH2 0xD60 JUMP JUMPDEST POP PUSH1 0x14 DUP3 GT PUSH2 0x92E JUMP JUMPDEST CALLVALUE PUSH2 0x27A JUMPI PUSH1 0x0 CALLDATASIZE PUSH1 0x3 NOT ADD SLT PUSH2 0x27A JUMPI PUSH1 0x20 PUSH1 0x40 MLOAD PUSH1 0x0 DUP2 MSTORE RETURN JUMPDEST PUSH1 0x40 CALLDATASIZE PUSH1 0x3 NOT ADD SLT PUSH2 0x27A JUMPI PUSH1 0x4 CALLDATALOAD PUSH2 0xDD3 PUSH2 0x128C JUMP JUMPDEST SWAP1 PUSH2 0xDDC PUSH2 0x1478 JUMP JUMPDEST DUP1 ISZERO DUP1 ISZERO PUSH2 0xF9D JUMPI JUMPDEST PUSH2 0x25E JUMPI DUP1 PUSH1 0x0 MSTORE PUSH1 0x1 PUSH1 0x20 MSTORE PUSH1 0x40 PUSH1 0x0 KECCAK256 PUSH1 0xFF PUSH1 0x6 DUP3 ADD SLOAD AND PUSH2 0x6CB JUMPI PUSH1 0x5 DUP2 ADD SLOAD TIMESTAMP GT PUSH2 0x6BA JUMPI PUSH1 0xC DUP2 ADD PUSH1 0x1 DUP1 PUSH1 0xA0 SHL SUB DUP5 AND PUSH1 0x0 MSTORE DUP1 PUSH1 0x20 MSTORE PUSH1 0xFF PUSH1 0x40 PUSH1 0x0 KECCAK256 SLOAD AND PUSH2 0x6A9 JUMPI PUSH1 0x1 PUSH1 0x1 PUSH1 0xA0 SHL SUB DUP5 AND PUSH1 0x0 SWAP1 DUP2 MSTORE PUSH1 0xA DUP4 ADD PUSH1 0x20 MSTORE PUSH1 0x40 SWAP1 KECCAK256 SLOAD DUP1 ISZERO PUSH2 0x363 JUMPI PUSH1 0x2 DUP4 ADD DUP1 SLOAD SWAP1 SWAP3 SWAP1 DUP3 SWAP1 PUSH1 0x1 PUSH1 0x1 PUSH1 0xA0 SHL SUB AND DUP1 PUSH2 0xF2E JUMPI POP CALLVALUE SUB PUSH2 0x60D JUMPI PUSH1 0x0 DUP1 DUP1 DUP1 DUP6 PUSH1 0x1 DUP1 PUSH1 0xA0 SHL SUB PUSH1 0x1 DUP11 ADD SLOAD AND PUSH2 0xC350 CALL PUSH2 0xE8F PUSH2 0x1398 JUMP JUMPDEST POP ISZERO PUSH2 0x5FC JUMPI JUMPDEST PUSH1 0x1 PUSH1 0x1 PUSH1 0xA0 SHL SUB DUP7 AND PUSH1 0x0 SWAP1 DUP2 MSTORE PUSH1 0xB DUP6 ADD PUSH1 0x20 SWAP1 DUP2 MSTORE PUSH1 0x40 DUP1 DUP4 KECCAK256 DUP6 SWAP1 SSTORE SWAP3 SWAP1 MSTORE KECCAK256 DUP1 SLOAD PUSH1 0xFF NOT AND PUSH1 0x1 OR SWAP1 SSTORE PUSH1 0x4 DUP4 ADD DUP1 SLOAD DUP6 SWAP2 PUSH32 0x32ACED27DFD49EFCD31CEB0567A1EF533D2AB1481334C3F316047BF16FE1C8E8 SWAP2 PUSH2 0xEFA SWAP1 DUP6 SWAP1 PUSH2 0x13D8 JUMP JUMPDEST SWAP1 DUP2 SWAP1 SSTORE SWAP4 SLOAD PUSH1 0x40 DUP1 MLOAD PUSH1 0x1 PUSH1 0x1 PUSH1 0xA0 SHL SUB SWAP3 DUP4 AND DUP1 DUP3 MSTORE PUSH1 0x20 DUP3 ADD SWAP7 SWAP1 SWAP7 MSTORE SWAP1 DUP2 ADD DUP7 SWAP1 MSTORE SWAP4 SWAP8 AND SWAP3 DUP1 PUSH1 0x60 DUP2 ADD PUSH2 0x596 JUMP JUMPDEST PUSH1 0x1 DUP7 ADD SLOAD PUSH1 0x40 MLOAD PUSH4 0x23B872DD PUSH1 0xE0 SHL DUP2 MSTORE CALLER PUSH1 0x4 DUP3 ADD MSTORE PUSH1 0x1 PUSH1 0x1 PUSH1 0xA0 SHL SUB SWAP1 SWAP2 AND PUSH1 0x24 DUP3 ADD MSTORE PUSH1 0x44 DUP2 ADD SWAP3 SWAP1 SWAP3 MSTORE PUSH1 0x20 SWAP1 DUP3 SWAP1 PUSH1 0x64 SWAP1 DUP3 SWAP1 PUSH1 0x0 SWAP1 GAS CALL DUP1 ISZERO PUSH2 0x69D JUMPI PUSH2 0xF7E JUMPI JUMPDEST POP PUSH2 0xE96 JUMP JUMPDEST PUSH2 0xF96 SWAP1 PUSH1 0x20 RETURNDATASIZE PUSH1 0x20 GT PUSH2 0x696 JUMPI PUSH2 0x687 DUP2 DUP4 PUSH2 0x1159 JUMP JUMPDEST POP DUP7 PUSH2 0xF78 JUMP JUMPDEST POP PUSH1 0x3 SLOAD DUP2 GT PUSH2 0xDE5 JUMP JUMPDEST CALLVALUE PUSH2 0x27A JUMPI PUSH1 0x40 CALLDATASIZE PUSH1 0x3 NOT ADD SLT PUSH2 0x27A JUMPI PUSH1 0x4 CALLDATALOAD PUSH2 0xFC4 PUSH2 0x128C JUMP JUMPDEST SWAP1 DUP1 ISZERO DUP1 ISZERO PUSH2 0x1001 JUMPI JUMPDEST PUSH2 0x25E JUMPI PUSH1 0x0 MSTORE PUSH1 0x1 PUSH1 0x20 MSTORE PUSH1 0xA PUSH1 0x40 PUSH1 0x0 KECCAK256 ADD SWAP1 PUSH1 0x1 DUP1 PUSH1 0xA0 SHL SUB AND PUSH1 0x0 MSTORE PUSH1 0x20 MSTORE PUSH1 0x20 PUSH1 0x40 PUSH1 0x0 KECCAK256 SLOAD PUSH1 0x40 MLOAD SWAP1 DUP2 MSTORE RETURN JUMPDEST POP PUSH1 0x3 SLOAD DUP2 GT PUSH2 0xFCE JUMP JUMPDEST CALLVALUE PUSH2 0x27A JUMPI PUSH1 0x20 CALLDATASIZE PUSH1 0x3 NOT ADD SLT PUSH2 0x27A JUMPI PUSH1 0x1 PUSH1 0x1 PUSH1 0xA0 SHL SUB PUSH2 0x102D PUSH2 0x1276 JUMP JUMPDEST AND PUSH1 0x0 MSTORE PUSH1 0x2 PUSH1 0x20 MSTORE PUSH2 0x219 PUSH2 0x1046 PUSH1 0x40 PUSH1 0x0 KECCAK256 PUSH2 0x1335 JUMP JUMPDEST PUSH1 0x40 MLOAD SWAP2 DUP3 SWAP2 PUSH1 0x20 DUP4 MSTORE PUSH1 0x20 DUP4 ADD SWAP1 PUSH2 0x12A2 JUMP JUMPDEST CALLVALUE PUSH2 0x27A JUMPI PUSH1 0x20 CALLDATASIZE PUSH1 0x3 NOT ADD SLT PUSH2 0x27A JUMPI PUSH1 0x4 CALLDATALOAD PUSH1 0x0 MSTORE PUSH1 0x1 PUSH1 0x20 MSTORE PUSH1 0x40 PUSH1 0x0 KECCAK256 PUSH1 0x1 DUP1 PUSH1 0xA0 SHL SUB DUP2 SLOAD AND PUSH2 0x219 PUSH1 0x1 DUP1 PUSH1 0xA0 SHL SUB PUSH1 0x1 DUP5 ADD SLOAD AND SWAP3 PUSH1 0x1 DUP1 PUSH1 0xA0 SHL SUB PUSH1 0x2 DUP3 ADD SLOAD AND SWAP1 PUSH1 0x3 DUP2 ADD SLOAD PUSH1 0x4 DUP3 ADD SLOAD PUSH1 0x5 DUP4 ADD SLOAD SWAP2 PUSH2 0x10C8 PUSH1 0x7 PUSH1 0xFF PUSH1 0x6 DUP8 ADD SLOAD AND SWAP6 ADD PUSH2 0x1191 JUMP JUMPDEST SWAP5 PUSH1 0x40 MLOAD SWAP9 DUP10 SWAP9 DUP10 MSTORE PUSH1 0x20 DUP10 ADD MSTORE PUSH1 0x40 DUP9 ADD MSTORE PUSH1 0x60 DUP8 ADD MSTORE PUSH1 0x80 DUP7 ADD MSTORE PUSH1 0xA0 DUP6 ADD MSTORE ISZERO ISZERO PUSH1 0xC0 DUP5 ADD MSTORE PUSH2 0x100 PUSH1 0xE0 DUP5 ADD MSTORE PUSH2 0x100 DUP4 ADD SWAP1 PUSH2 0x1235 JUMP JUMPDEST CALLVALUE PUSH2 0x27A JUMPI PUSH1 0x0 CALLDATASIZE PUSH1 0x3 NOT ADD SLT PUSH2 0x27A JUMPI DUP1 PUSH2 0xC350 PUSH1 0x20 SWAP3 MSTORE RETURN JUMPDEST SWAP1 PUSH1 0x1 DUP3 DUP2 SHR SWAP3 AND DUP1 ISZERO PUSH2 0x114F JUMPI JUMPDEST PUSH1 0x20 DUP4 LT EQ PUSH2 0x1139 JUMPI JUMP JUMPDEST PUSH4 0x4E487B71 PUSH1 0xE0 SHL PUSH1 0x0 MSTORE PUSH1 0x22 PUSH1 0x4 MSTORE PUSH1 0x24 PUSH1 0x0 REVERT JUMPDEST SWAP2 PUSH1 0x7F AND SWAP2 PUSH2 0x112E JUMP JUMPDEST SWAP1 PUSH1 0x1F DUP1 NOT SWAP2 ADD AND DUP2 ADD SWAP1 DUP2 LT PUSH8 0xFFFFFFFFFFFFFFFF DUP3 GT OR PUSH2 0x117B JUMPI PUSH1 0x40 MSTORE JUMP JUMPDEST PUSH4 0x4E487B71 PUSH1 0xE0 SHL PUSH1 0x0 MSTORE PUSH1 0x41 PUSH1 0x4 MSTORE PUSH1 0x24 PUSH1 0x0 REVERT JUMPDEST SWAP1 PUSH1 0x40 MLOAD SWAP2 DUP3 PUSH1 0x0 DUP3 SLOAD SWAP3 PUSH2 0x11A5 DUP5 PUSH2 0x111F JUMP JUMPDEST DUP1 DUP5 MSTORE SWAP4 PUSH1 0x1 DUP2 AND SWAP1 DUP2 ISZERO PUSH2 0x1213 JUMPI POP PUSH1 0x1 EQ PUSH2 0x11CC JUMPI JUMPDEST POP PUSH2 0x11CA SWAP3 POP SUB DUP4 PUSH2 0x1159 JUMP JUMPDEST JUMP JUMPDEST SWAP1 POP PUSH1 0x0 SWAP3 SWAP2 SWAP3 MSTORE PUSH1 0x20 PUSH1 0x0 KECCAK256 SWAP1 PUSH1 0x0 SWAP2 JUMPDEST DUP2 DUP4 LT PUSH2 0x11F7 JUMPI POP POP SWAP1 PUSH1 0x20 PUSH2 0x11CA SWAP3 DUP3 ADD ADD CODESIZE PUSH2 0x11BD JUMP JUMPDEST PUSH1 0x20 SWAP2 SWAP4 POP DUP1 PUSH1 0x1 SWAP2 SLOAD DUP4 DUP6 DUP10 ADD ADD MSTORE ADD SWAP2 ADD SWAP1 SWAP2 DUP5 SWAP3 PUSH2 0x11DE JUMP JUMPDEST SWAP1 POP PUSH1 0x20 SWAP3 POP PUSH2 0x11CA SWAP5 SWAP2 POP PUSH1 0xFF NOT AND DUP3 DUP5 ADD MSTORE ISZERO ISZERO PUSH1 0x5 SHL DUP3 ADD ADD CODESIZE PUSH2 0x11BD JUMP JUMPDEST SWAP2 SWAP1 DUP3 MLOAD SWAP3 DUP4 DUP3 MSTORE PUSH1 0x0 JUMPDEST DUP5 DUP2 LT PUSH2 0x1261 JUMPI POP POP DUP3 PUSH1 0x0 PUSH1 0x20 DUP1 SWAP5 SWAP6 DUP5 ADD ADD MSTORE PUSH1 0x1F DUP1 NOT SWAP2 ADD AND ADD ADD SWAP1 JUMP JUMPDEST DUP1 PUSH1 0x20 DUP1 SWAP3 DUP5 ADD ADD MLOAD DUP3 DUP3 DUP7 ADD ADD MSTORE ADD PUSH2 0x1240 JUMP JUMPDEST PUSH1 0x4 CALLDATALOAD SWAP1 PUSH1 0x1 PUSH1 0x1 PUSH1 0xA0 SHL SUB DUP3 AND DUP3 SUB PUSH2 0x27A JUMPI JUMP JUMPDEST PUSH1 0x24 CALLDATALOAD SWAP1 PUSH1 0x1 PUSH1 0x1 PUSH1 0xA0 SHL SUB DUP3 AND DUP3 SUB PUSH2 0x27A JUMPI JUMP JUMPDEST SWAP1 PUSH1 0x20 DUP1 DUP4 MLOAD SWAP3 DUP4 DUP2 MSTORE ADD SWAP3 ADD SWAP1 PUSH1 0x0 JUMPDEST DUP2 DUP2 LT PUSH2 0x12C0 JUMPI POP POP POP SWAP1 JUMP JUMPDEST DUP3 MLOAD DUP5 MSTORE PUSH1 0x20 SWAP4 DUP5 ADD SWAP4 SWAP1 SWAP3 ADD SWAP2 PUSH1 0x1 ADD PUSH2 0x12B3 JUMP JUMPDEST SWAP2 DUP2 PUSH1 0x1F DUP5 ADD SLT ISZERO PUSH2 0x27A JUMPI DUP3 CALLDATALOAD SWAP2 PUSH8 0xFFFFFFFFFFFFFFFF DUP4 GT PUSH2 0x27A JUMPI PUSH1 0x20 DUP1 DUP6 ADD SWAP5 DUP5 PUSH1 0x5 SHL ADD ADD GT PUSH2 0x27A JUMPI JUMP JUMPDEST DUP1 SLOAD DUP3 LT ISZERO PUSH2 0x131F JUMPI PUSH1 0x0 MSTORE PUSH1 0x20 PUSH1 0x0 KECCAK256 ADD SWAP1 PUSH1 0x0 SWAP1 JUMP JUMPDEST PUSH4 0x4E487B71 PUSH1 0xE0 SHL PUSH1 0x0 MSTORE PUSH1 0x32 PUSH1 0x4 MSTORE PUSH1 0x24 PUSH1 0x0 REVERT JUMPDEST SWAP1 PUSH1 0x40 MLOAD SWAP2 DUP3 DUP2 SLOAD SWAP2 DUP3 DUP3 MSTORE PUSH1 0x20 DUP3 ADD SWAP1 PUSH1 0x0 MSTORE PUSH1 0x20 PUSH1 0x0 KECCAK256 SWAP3 PUSH1 0x0 JUMPDEST DUP2 DUP2 LT PUSH2 0x1367 JUMPI POP POP PUSH2 0x11CA SWAP3 POP SUB DUP4 PUSH2 0x1159 JUMP JUMPDEST DUP5 SLOAD DUP4 MSTORE PUSH1 0x1 SWAP5 DUP6 ADD SWAP5 DUP8 SWAP5 POP PUSH1 0x20 SWAP1 SWAP4 ADD SWAP3 ADD PUSH2 0x1352 JUMP JUMPDEST SWAP1 DUP2 PUSH1 0x20 SWAP2 SUB SLT PUSH2 0x27A JUMPI MLOAD DUP1 ISZERO ISZERO DUP2 SUB PUSH2 0x27A JUMPI SWAP1 JUMP JUMPDEST RETURNDATASIZE ISZERO PUSH2 0x13D3 JUMPI RETURNDATASIZE SWAP1 PUSH8 0xFFFFFFFFFFFFFFFF DUP3 GT PUSH2 0x117B JUMPI PUSH1 0x40 MLOAD SWAP2 PUSH2 0x13C7 PUSH1 0x1F DUP3 ADD PUSH1 0x1F NOT AND PUSH1 0x20 ADD DUP5 PUSH2 0x1159 JUMP JUMPDEST DUP3 MSTORE RETURNDATASIZE PUSH1 0x0 PUSH1 0x20 DUP5 ADD RETURNDATACOPY JUMP JUMPDEST PUSH1 0x60 SWAP1 JUMP JUMPDEST SWAP2 SWAP1 DUP3 ADD DUP1 SWAP3 GT PUSH2 0xD2A JUMPI JUMP JUMPDEST SWAP2 SWAP1 DUP2 LT ISZERO PUSH2 0x131F JUMPI PUSH1 0x5 SHL ADD SWAP1 JUMP JUMPDEST CALLDATALOAD PUSH1 0x1 PUSH1 0x1 PUSH1 0xA0 SHL SUB DUP2 AND DUP2 SUB PUSH2 0x27A JUMPI SWAP1 JUMP JUMPDEST DUP2 DUP2 LT PUSH2 0x1414 JUMPI POP POP JUMP JUMPDEST PUSH1 0x0 DUP2 SSTORE PUSH1 0x1 ADD PUSH2 0x1409 JUMP JUMPDEST SWAP2 DUP2 DUP2 LT PUSH2 0x142D JUMPI POP POP POP JUMP JUMPDEST PUSH2 0x11CA SWAP3 PUSH1 0x0 MSTORE PUSH1 0x20 PUSH1 0x0 KECCAK256 SWAP2 DUP3 ADD SWAP2 ADD PUSH2 0x1409 JUMP JUMPDEST DUP1 SLOAD PUSH1 0x1 PUSH1 0x40 SHL DUP2 LT ISZERO PUSH2 0x117B JUMPI PUSH2 0x1460 SWAP2 PUSH1 0x1 DUP3 ADD DUP2 SSTORE PUSH2 0x1307 JUMP JUMPDEST DUP2 SWAP3 SWAP2 SLOAD SWAP1 PUSH1 0x3 SHL SWAP2 DUP3 SHL SWAP2 PUSH1 0x0 NOT SWAP1 SHL NOT AND OR SWAP1 SSTORE JUMP JUMPDEST PUSH1 0x2 PUSH1 0x0 SLOAD EQ PUSH2 0x1489 JUMPI PUSH1 0x2 PUSH1 0x0 SSTORE JUMP JUMPDEST PUSH4 0x3EE5AEB5 PUSH1 0xE0 SHL PUSH1 0x0 MSTORE PUSH1 0x4 PUSH1 0x0 REVERT INVALID LOG2 PUSH5 0x6970667358 0x22 SLT KECCAK256 PUSH11 0x57D7EE8D151EE7D8E2DB31 DUP11 STATICCALL DIV SWAP12 0xEA 0xF PUSH5 0x65C1CC9BF2 ADDRESS DUP15 SWAP5 RETURN SWAP6 SWAP9 SAR 0x4D PUSH5 0x736F6C6343 STOP ADDMOD SHR STOP CALLER "},"methodIdentifiers":{"ETH_TOKEN()":"58bc8337","GAS_LIMIT()":"091d2788","MAX_RECIPIENTS()":"a6980ce2","cancelSplit(uint256)":"b3a0ab98","checkOverduePayments(uint256)":"edb186a9","createSplit(address,address[],uint256[],address,uint256,string)":"68fcb6fd","getOwedAmount(uint256,address)":"40341566","getPaidAmount(uint256,address)":"7284ba5e","getSplitDetails(uint256)":"f6b30c60","getUserSplits(address)":"1caf9803","hasPaid(uint256,address)":"d8bc7fff","isSplitComplete(uint256)":"a8587f30","payForSomeone(uint256,address)":"446a7d7e","payShare(uint256)":"c97320a7","splitCounter()":"c854a85d","splitRequests(uint256)":"1319afc3","userSplits(address,uint256)":"ca5d6986"}}}}}