{"contracts/USDY.sol":{"USDY":{"abi":[{"inputs":[],"stateMutability":"nonpayable","type":"constructor"},{"inputs":[{"internalType":"address","name":"spender","type":"address"},{"internalType":"uint256","name":"allowance","type":"uint256"},{"internalType":"uint256","name":"needed","type":"uint256"}],"name":"ERC20InsufficientAllowance","type":"error"},{"inputs":[{"internalType":"address","name":"sender","type":"address"},{"internalType":"uint256","name":"balance","type":"uint256"},{"internalType":"uint256","name":"needed","type":"uint256"}],"name":"ERC20InsufficientBalance","type":"error"},{"inputs":[{"internalType":"address","name":"approver","type":"address"}],"name":"ERC20InvalidApprover","type":"error"},{"inputs":[{"internalType":"address","name":"receiver","type":"address"}],"name":"ERC20InvalidReceiver","type":"error"},{"inputs":[{"internalType":"address","name":"sender","type":"address"}],"name":"ERC20InvalidSender","type":"error"},{"inputs":[{"internalType":"address","name":"spender","type":"address"}],"name":"ERC20InvalidSpender","type":"error"},{"inputs":[{"internalType":"uint256","name":"timeRemaining","type":"uint256"}],"name":"FaucetCooldownNotMet","type":"error"},{"inputs":[],"name":"FaucetSupplyExhausted","type":"error"},{"inputs":[],"name":"InvalidAmount","type":"error"},{"inputs":[],"name":"MaxSupplyExceeded","type":"error"},{"inputs":[{"internalType":"address","name":"owner","type":"address"}],"name":"OwnableInvalidOwner","type":"error"},{"inputs":[{"internalType":"address","name":"account","type":"address"}],"name":"OwnableUnauthorizedAccount","type":"error"},{"inputs":[],"name":"ReentrancyGuardReentrantCall","type":"error"},{"anonymous":false,"inputs":[{"indexed":true,"internalType":"address","name":"owner","type":"address"},{"indexed":true,"internalType":"address","name":"spender","type":"address"},{"indexed":false,"internalType":"uint256","name":"value","type":"uint256"}],"name":"Approval","type":"event"},{"anonymous":false,"inputs":[{"indexed":true,"internalType":"address","name":"user","type":"address"},{"indexed":false,"internalType":"uint256","name":"amount","type":"uint256"},{"indexed":false,"internalType":"uint256","name":"timestamp","type":"uint256"}],"name":"FaucetClaimed","type":"event"},{"anonymous":false,"inputs":[{"indexed":false,"internalType":"uint256","name":"newAmount","type":"uint256"},{"indexed":false,"internalType":"uint256","name":"newCooldown","type":"uint256"}],"name":"FaucetConfigured","type":"event"},{"anonymous":false,"inputs":[{"indexed":true,"internalType":"address","name":"previousOwner","type":"address"},{"indexed":true,"internalType":"address","name":"newOwner","type":"address"}],"name":"OwnershipTransferred","type":"event"},{"anonymous":false,"inputs":[{"indexed":true,"internalType":"address","name":"to","type":"address"},{"indexed":false,"internalType":"uint256","name":"amount","type":"uint256"},{"indexed":false,"internalType":"string","name":"reason","type":"string"}],"name":"RWATokenMinted","type":"event"},{"anonymous":false,"inputs":[{"indexed":true,"internalType":"address","name":"from","type":"address"},{"indexed":true,"internalType":"address","name":"to","type":"address"},{"indexed":false,"internalType":"uint256","name":"value","type":"uint256"}],"name":"Transfer","type":"event"},{"inputs":[],"name":"ASSET_VALUE_USD","outputs":[{"internalType":"uint256","name":"","type":"uint256"}],"stateMutability":"view","type":"function"},{"inputs":[],"name":"BACKING_ASSET","outputs":[{"internalType":"string","name":"","type":"string"}],"stateMutability":"view","type":"function"},{"inputs":[],"name":"FAUCET_AMOUNT","outputs":[{"internalType":"uint256","name":"","type":"uint256"}],"stateMutability":"view","type":"function"},{"inputs":[],"name":"FAUCET_COOLDOWN","outputs":[{"internalType":"uint256","name":"","type":"uint256"}],"stateMutability":"view","type":"function"},{"inputs":[],"name":"MAX_SUPPLY","outputs":[{"internalType":"uint256","name":"","type":"uint256"}],"stateMutability":"view","type":"function"},{"inputs":[],"name":"RWA_TYPE","outputs":[{"internalType":"string","name":"","type":"string"}],"stateMutability":"view","type":"function"},{"inputs":[{"internalType":"address","name":"owner","type":"address"},{"internalType":"address","name":"spender","type":"address"}],"name":"allowance","outputs":[{"internalType":"uint256","name":"","type":"uint256"}],"stateMutability":"view","type":"function"},{"inputs":[{"internalType":"address","name":"spender","type":"address"},{"internalType":"uint256","name":"value","type":"uint256"}],"name":"approve","outputs":[{"internalType":"bool","name":"","type":"bool"}],"stateMutability":"nonpayable","type":"function"},{"inputs":[{"internalType":"address","name":"account","type":"address"}],"name":"balanceOf","outputs":[{"internalType":"uint256","name":"","type":"uint256"}],"stateMutability":"view","type":"function"},{"inputs":[{"internalType":"uint256","name":"amount","type":"uint256"}],"name":"burn","outputs":[],"stateMutability":"nonpayable","type":"function"},{"inputs":[{"internalType":"address","name":"from","type":"address"},{"internalType":"uint256","name":"amount","type":"uint256"}],"name":"burnFrom","outputs":[],"stateMutability":"nonpayable","type":"function"},{"inputs":[{"internalType":"address","name":"user","type":"address"}],"name":"canClaimFromFaucet","outputs":[{"internalType":"bool","name":"","type":"bool"}],"stateMutability":"view","type":"function"},{"inputs":[],"name":"claimFromFaucet","outputs":[],"stateMutability":"nonpayable","type":"function"},{"inputs":[],"name":"decimals","outputs":[{"internalType":"uint8","name":"","type":"uint8"}],"stateMutability":"pure","type":"function"},{"inputs":[{"internalType":"address","name":"to","type":"address"},{"internalType":"uint256","name":"amount","type":"uint256"},{"internalType":"string","name":"reason","type":"string"}],"name":"emergencyMint","outputs":[],"stateMutability":"nonpayable","type":"function"},{"inputs":[],"name":"getFaucetInfo","outputs":[{"internalType":"uint256","name":"amount","type":"uint256"},{"internalType":"uint256","name":"cooldown","type":"uint256"},{"internalType":"uint256","name":"totalClaimed","type":"uint256"},{"internalType":"uint256","name":"remainingSupply","type":"uint256"}],"stateMutability":"view","type":"function"},{"inputs":[],"name":"getRWAMetadata","outputs":[{"internalType":"string","name":"rwaType","type":"string"},{"internalType":"string","name":"backingAsset","type":"string"},{"internalType":"uint256","name":"valueUSD","type":"uint256"},{"internalType":"uint256","name":"maxSupply","type":"uint256"}],"stateMutability":"pure","type":"function"},{"inputs":[{"internalType":"address","name":"","type":"address"}],"name":"lastFaucetClaim","outputs":[{"internalType":"uint256","name":"","type":"uint256"}],"stateMutability":"view","type":"function"},{"inputs":[],"name":"name","outputs":[{"internalType":"string","name":"","type":"string"}],"stateMutability":"view","type":"function"},{"inputs":[],"name":"owner","outputs":[{"internalType":"address","name":"","type":"address"}],"stateMutability":"view","type":"function"},{"inputs":[],"name":"renounceOwnership","outputs":[],"stateMutability":"nonpayable","type":"function"},{"inputs":[],"name":"symbol","outputs":[{"internalType":"string","name":"","type":"string"}],"stateMutability":"view","type":"function"},{"inputs":[{"internalType":"address","name":"user","type":"address"}],"name":"timeUntilNextClaim","outputs":[{"internalType":"uint256","name":"","type":"uint256"}],"stateMutability":"view","type":"function"},{"inputs":[],"name":"totalFaucetClaimed","outputs":[{"internalType":"uint256","name":"","type":"uint256"}],"stateMutability":"view","type":"function"},{"inputs":[],"name":"totalSupply","outputs":[{"internalType":"uint256","name":"","type":"uint256"}],"stateMutability":"view","type":"function"},{"inputs":[{"internalType":"address","name":"to","type":"address"},{"internalType":"uint256","name":"value","type":"uint256"}],"name":"transfer","outputs":[{"internalType":"bool","name":"","type":"bool"}],"stateMutability":"nonpayable","type":"function"},{"inputs":[{"internalType":"address","name":"from","type":"address"},{"internalType":"address","name":"to","type":"address"},{"internalType":"uint256","name":"value","type":"uint256"}],"name":"transferFrom","outputs":[{"internalType":"bool","name":"","type":"bool"}],"stateMutability":"nonpayable","type":"function"},{"inputs":[{"internalType":"address","name":"newOwner","type":"address"}],"name":"transferOwnership","outputs":[],"stateMutability":"nonpayable","type":"function"}],"evm":{"bytecode":{"linkReferences":{},"object":"60806040523461041857604080519081016001600160401b03811182821017610323576040908152600f82526e2aa9a2102cb4b2b632102a37b5b2b760891b602083015280519081016001600160401b038111828210176103235760405260048152635553445960e01b602082015281516001600160401b03811161032357600354600181811c9116801561040e575b602082101461030357601f81116103a9575b50602092601f82116001146103445792819293600092610339575b50508160011b916000199060031b1c1916176003555b80516001600160401b03811161032357600454600181811c91168015610319575b602082101461030357601f811161029e575b50602091601f821160011461023a5791819260009261022f575b50508160011b916000199060031b1c1916176004555b33156102195760058054336001600160a01b0319821681179092556001600160a01b03167f8be0079c531659141344cd1fd0a4f28419497f9722a3daafe3b4186f6b6457e0600080a36001600655600060025469152d02c7e14af680000081018091116102055760025550336000526000602052604060002069152d02c7e14af6800000815401905560405169152d02c7e14af6800000815260007fddf252ad1be2c89b69c2b068fc378daa952ba7f163c4a11628f55a4df523b3ef60203393a36040516110d0908161041e8239f35b634e487b7160e01b82526011600452602482fd5b631e4fbdf760e01b600052600060045260246000fd5b01519050388061011f565b601f198216926004600052806000209160005b8581106102865750836001951061026d575b505050811b01600455610135565b015160001960f88460031b161c1916905538808061025f565b9192602060018192868501518155019401920161024d565b60046000527f8a35acfbc15ff81a39ae7d344fd709f28e8600b4aa8c65c6b64bfe7fe36bd19b601f830160051c810191602084106102f9575b601f0160051c01905b8181106102ed5750610105565b600081556001016102e0565b90915081906102d7565b634e487b7160e01b600052602260045260246000fd5b90607f16906100f3565b634e487b7160e01b600052604160045260246000fd5b0151905038806100bc565b601f198216936003600052806000209160005b8681106103915750836001959610610378575b505050811b016003556100d2565b015160001960f88460031b161c1916905538808061036a565b91926020600181928685015181550194019201610357565b60036000527fc2575a0e9e593c00f959f8c92f12db2869c3395a3b0502d05e2516446f71f85b601f830160051c81019160208410610404575b601f0160051c01905b8181106103f857506100a1565b600081556001016103eb565b90915081906103e2565b90607f169061008f565b600080fdfe608080604052600436101561001357600080fd5b60003560e01c90816306fdde0314610c8e57508063095ea7b314610c6857806314da925314610be757806318160ddd14610bc957806323b872dd14610adc5780632edb855a146109c6578063313ce567146109aa578063324169c91461098757806332cb6b0c1461096257806342966c681461093e5780634fb7d9de146108ea57806370a08231146108b0578063715018a614610853578063766976401461082f57806379cc6790146107615780637d1d5d19146107435780638a877205146107095780638da5cb5b146106e057806392d82dbe146106b557806395d89b41146105a9578063a9059cbb14610578578063dca3d4d614610520578063dd62ed3e146104cf578063df8431a91461041c578063ef68f47b146103fe578063efc10bc41461035f578063f2fde38b146102d55763fbbfb7821461015357600080fd5b346102d05760003660031901126102d05761016c610f22565b33600052600760205260406000205462015180810180911161026e57421061029557600854683635c9adc5dea0000081019081811161026e5760025469d3c21bcecceda1000000039069d3c21bcecceda1000000821161026e576101cf91610dfc565b106102845733600052600760205242604060002055600854683635c9adc5dea00000810180911161026e57600855331561025857610216683635c9adc5dea000003361102c565b604051683635c9adc5dea0000081524260208201527fa19a7d2b5bf6a987a66e0eac8a6eb2dbd34ae6a43285849af788b224268ec02260403392a26001600655005b63ec442f0560e01b600052600060045260246000fd5b634e487b7160e01b600052601160045260246000fd5b635f887ecd60e01b60005260046000fd5b33600052600760205260406000205462015180810180911161026e576102bc904290610def565b6303e091f160e11b60005260045260246000fd5b600080fd5b346102d05760203660031901126102d0576102ee610d8b565b6102f6610ef9565b6001600160a01b0316801561034957600580546001600160a01b0319811683179091556001600160a01b03167f8be0079c531659141344cd1fd0a4f28419497f9722a3daafe3b4186f6b6457e0600080a3005b631e4fbdf760e01b600052600060045260246000fd5b346102d05760203660031901126102d0576001600160a01b03610380610d8b565b16600052600760205260406000205462015180810180911161026e57421015806103b2575b6020906040519015158152f35b50600854683635c9adc5dea00000810180821161026e5760025469d3c21bcecceda10000000369d3c21bcecceda1000000811161026e576020926103f591610dfc565b101590506103a5565b346102d05760003660031901126102d0576020600854604051908152f35b346102d05760003660031901126102d05761049f60405161043e604082610db7565b60118152705553445f5949454c445f42454152494e4760781b60208201526104ad60405161046d604082610db7565b601181527055535f54524541535552595f424f4e445360781b6020820152604051938493608085526080850190610d4a565b908382036020850152610d4a565b670de0b6b3a7640000604083015269d3c21bcecceda100000060608301520390f35b346102d05760403660031901126102d0576104e8610d8b565b6104f0610da1565b6001600160a01b039182166000908152600160209081526040808320949093168252928352819020549051908152f35b346102d05760003660031901126102d057610574604051610542604082610db7565b601181527055535f54524541535552595f424f4e445360781b6020820152604051918291602083526020830190610d4a565b0390f35b346102d05760403660031901126102d05761059e610594610d8b565b6024359033610e4a565b602060405160018152f35b346102d05760003660031901126102d05760405160006004548060011c906001811680156106ab575b602083108114610697578285529081156106735750600114610613575b610574836105ff81850382610db7565b604051918291602083526020830190610d4a565b91905060046000527f8a35acfbc15ff81a39ae7d344fd709f28e8600b4aa8c65c6b64bfe7fe36bd19b916000905b808210610659575090915081016020016105ff6105ef565b919260018160209254838588010152019101909291610641565b60ff191660208086019190915291151560051b840190910191506105ff90506105ef565b634e487b7160e01b84526022600452602484fd5b91607f16916105d2565b346102d05760203660031901126102d05760206106d86106d3610d8b565b610e09565b604051908152f35b346102d05760003660031901126102d0576005546040516001600160a01b039091168152602090f35b346102d05760203660031901126102d0576001600160a01b0361072a610d8b565b1660005260076020526020604060002054604051908152f35b346102d05760003660031901126102d0576020604051620151808152f35b346102d05760403660031901126102d05761077a610d8b565b602435801561081e576001600160a01b0382166000908152600160209081526040808320338452909152902054918183106107cd576107c66107bf836107cb95610def565b3383610fc5565b610f44565b005b60405162461bcd60e51b8152602060048201526024808201527f45524332303a206275726e20616d6f756e74206578636565647320616c6c6f77604482015263616e636560e01b6064820152608490fd5b63162908e360e11b60005260046000fd5b346102d05760003660031901126102d0576020604051683635c9adc5dea000008152f35b346102d05760003660031901126102d05761086c610ef9565b600580546001600160a01b031981169091556000906001600160a01b03167f8be0079c531659141344cd1fd0a4f28419497f9722a3daafe3b4186f6b6457e08280a3005b346102d05760203660031901126102d0576001600160a01b036108d1610d8b565b1660005260006020526020604060002054604051908152f35b346102d05760003660031901126102d05761057460405161090c604082610db7565b60118152705553445f5949454c445f42454152494e4760781b6020820152604051918291602083526020830190610d4a565b346102d05760203660031901126102d057600435801561081e576107cb9033610f44565b346102d05760003660031901126102d057602060405169d3c21bcecceda10000008152f35b346102d05760003660031901126102d0576020604051670de0b6b3a76400008152f35b346102d05760003660031901126102d057602060405160128152f35b346102d05760603660031901126102d0576109df610d8b565b6024359060443567ffffffffffffffff81116102d057366023820112156102d05780600401359167ffffffffffffffff83116102d05736602484840101116102d057610a29610ef9565b610a31610f22565b831561081e5769d3c21bcecceda1000000610a4e85600254610dfc565b11610acb576001600160a01b038116938415610258577fc94895568aeb8223e1ff4d6209dae01ed3bd79026d4df96400bba10513fdbc0393610a928260609461102c565b80602460405195869485526040602086015282604086015201848401376000828201840152601f01601f19168101030190a26001600655005b638a164f6360e01b60005260046000fd5b346102d05760603660031901126102d057610af5610d8b565b610afd610da1565b6001600160a01b0382166000818152600160209081526040808320338452909152902054909260443592916000198110610b3d575b5061059e9350610e4a565b838110610bac578415610b96573315610b805761059e946000526001602052604060002060018060a01b0333166000526020528360406000209103905584610b32565b634a1406b160e11b600052600060045260246000fd5b63e602df0560e01b600052600060045260246000fd5b8390637dc7a0d960e11b6000523360045260245260445260646000fd5b346102d05760003660031901126102d0576020600254604051908152f35b346102d05760003660031901126102d057600854610c0781600254610def565b69d3c21bcecceda1000000039069d3c21bcecceda1000000821161026e576080918180821115610c5f57610c3a91610def565b60405191683635c9adc5dea00000835262015180602084015260408301526060820152f35b50506000610c3a565b346102d05760403660031901126102d05761059e610c84610d8b565b6024359033610fc5565b346102d05760003660031901126102d05760006003548060011c90600181168015610d40575b602083108114610697578285529081156106735750600114610ce057610574836105ff81850382610db7565b91905060036000527fc2575a0e9e593c00f959f8c92f12db2869c3395a3b0502d05e2516446f71f85b916000905b808210610d26575090915081016020016105ff6105ef565b919260018160209254838588010152019101909291610d0e565b91607f1691610cb4565b919082519283825260005b848110610d76575050826000602080949584010152601f8019910116010190565b80602080928401015182828601015201610d55565b600435906001600160a01b03821682036102d057565b602435906001600160a01b03821682036102d057565b90601f8019910116810190811067ffffffffffffffff821117610dd957604052565b634e487b7160e01b600052604160045260246000fd5b9190820391821161026e57565b9190820180921161026e57565b6001600160a01b031660009081526007602052604090205462015180810190811061026e5780421015610e4457610e41904290610def565b90565b50600090565b6001600160a01b0316908115610ee3576001600160a01b0316918215610258576000828152806020526040812054828110610ec95791604082827fddf252ad1be2c89b69c2b068fc378daa952ba7f163c4a11628f55a4df523b3ef958760209652828652038282205586815280845220818154019055604051908152a3565b916064928463391434e360e21b8452600452602452604452fd5b634b637e8f60e11b600052600060045260246000fd5b6005546001600160a01b03163303610f0d57565b63118cdaa760e01b6000523360045260246000fd5b600260065414610f33576002600655565b633ee5aeb560e01b60005260046000fd5b6001600160a01b03168015610ee357600091818352826020526040832054818110610fac57817fddf252ad1be2c89b69c2b068fc378daa952ba7f163c4a11628f55a4df523b3ef926020928587528684520360408620558060025403600255604051908152a3565b6064939263391434e360e21b8452600452602452604452fd5b6001600160a01b0316908115610b96576001600160a01b0316918215610b805760207f8c5be1e5ebec7d5bd14f71427d1e84f3dd0314c0f7b2291e5b200ac8c7c3b925918360005260018252604060002085600052825280604060002055604051908152a3565b7fddf252ad1be2c89b69c2b068fc378daa952ba7f163c4a11628f55a4df523b3ef602060009261105e85600254610dfc565b6002556001600160a01b031693841584146110855780600254036002555b604051908152a3565b8484528382526040842081815401905561107c56fea264697066735822122058ead74299b459edbfa03f79a23c63d71ec74b4609b92a542b60a669ce90fc7964736f6c634300081c0033","opcodes":"PUSH1 0x80 PUSH1 0x40 MSTORE CALLVALUE PUSH2 0x418 JUMPI PUSH1 0x40 DUP1 MLOAD SWAP1 DUP2 ADD PUSH1 0x1 PUSH1 0x1 PUSH1 0x40 SHL SUB DUP2 GT DUP3 DUP3 LT OR PUSH2 0x323 JUMPI PUSH1 0x40 SWAP1 DUP2 MSTORE PUSH1 0xF DUP3 MSTORE PUSH15 0x2AA9A2102CB4B2B632102A37B5B2B7 PUSH1 0x89 SHL PUSH1 0x20 DUP4 ADD MSTORE DUP1 MLOAD SWAP1 DUP2 ADD PUSH1 0x1 PUSH1 0x1 PUSH1 0x40 SHL SUB DUP2 GT DUP3 DUP3 LT OR PUSH2 0x323 JUMPI PUSH1 0x40 MSTORE PUSH1 0x4 DUP2 MSTORE PUSH4 0x55534459 PUSH1 0xE0 SHL PUSH1 0x20 DUP3 ADD MSTORE DUP2 MLOAD PUSH1 0x1 PUSH1 0x1 PUSH1 0x40 SHL SUB DUP2 GT PUSH2 0x323 JUMPI PUSH1 0x3 SLOAD PUSH1 0x1 DUP2 DUP2 SHR SWAP2 AND DUP1 ISZERO PUSH2 0x40E JUMPI JUMPDEST PUSH1 0x20 DUP3 LT EQ PUSH2 0x303 JUMPI PUSH1 0x1F DUP2 GT PUSH2 0x3A9 JUMPI JUMPDEST POP PUSH1 0x20 SWAP3 PUSH1 0x1F DUP3 GT PUSH1 0x1 EQ PUSH2 0x344 JUMPI SWAP3 DUP2 SWAP3 SWAP4 PUSH1 0x0 SWAP3 PUSH2 0x339 JUMPI JUMPDEST POP POP DUP2 PUSH1 0x1 SHL SWAP2 PUSH1 0x0 NOT SWAP1 PUSH1 0x3 SHL SHR NOT AND OR PUSH1 0x3 SSTORE JUMPDEST DUP1 MLOAD PUSH1 0x1 PUSH1 0x1 PUSH1 0x40 SHL SUB DUP2 GT PUSH2 0x323 JUMPI PUSH1 0x4 SLOAD PUSH1 0x1 DUP2 DUP2 SHR SWAP2 AND DUP1 ISZERO PUSH2 0x319 JUMPI JUMPDEST PUSH1 0x20 DUP3 LT EQ PUSH2 0x303 JUMPI PUSH1 0x1F DUP2 GT PUSH2 0x29E JUMPI JUMPDEST POP PUSH1 0x20 SWAP2 PUSH1 0x1F DUP3 GT PUSH1 0x1 EQ PUSH2 0x23A JUMPI SWAP2 DUP2 SWAP3 PUSH1 0x0 SWAP3 PUSH2 0x22F JUMPI JUMPDEST POP POP DUP2 PUSH1 0x1 SHL SWAP2 PUSH1 0x0 NOT SWAP1 PUSH1 0x3 SHL SHR NOT AND OR PUSH1 0x4 SSTORE JUMPDEST CALLER ISZERO PUSH2 0x219 JUMPI PUSH1 0x5 DUP1 SLOAD CALLER PUSH1 0x1 PUSH1 0x1 PUSH1 0xA0 SHL SUB NOT DUP3 AND DUP2 OR SWAP1 SWAP3 SSTORE PUSH1 0x1 PUSH1 0x1 PUSH1 0xA0 SHL SUB AND PUSH32 0x8BE0079C531659141344CD1FD0A4F28419497F9722A3DAAFE3B4186F6B6457E0 PUSH1 0x0 DUP1 LOG3 PUSH1 0x1 PUSH1 0x6 SSTORE PUSH1 0x0 PUSH1 0x2 SLOAD PUSH10 0x152D02C7E14AF6800000 DUP2 ADD DUP1 SWAP2 GT PUSH2 0x205 JUMPI PUSH1 0x2 SSTORE POP CALLER PUSH1 0x0 MSTORE PUSH1 0x0 PUSH1 0x20 MSTORE PUSH1 0x40 PUSH1 0x0 KECCAK256 PUSH10 0x152D02C7E14AF6800000 DUP2 SLOAD ADD SWAP1 SSTORE PUSH1 0x40 MLOAD PUSH10 0x152D02C7E14AF6800000 DUP2 MSTORE PUSH1 0x0 PUSH32 0xDDF252AD1BE2C89B69C2B068FC378DAA952BA7F163C4A11628F55A4DF523B3EF PUSH1 0x20 CALLER SWAP4 LOG3 PUSH1 0x40 MLOAD PUSH2 0x10D0 SWAP1 DUP2 PUSH2 0x41E DUP3 CODECOPY RETURN JUMPDEST PUSH4 0x4E487B71 PUSH1 0xE0 SHL DUP3 MSTORE PUSH1 0x11 PUSH1 0x4 MSTORE PUSH1 0x24 DUP3 REVERT JUMPDEST PUSH4 0x1E4FBDF7 PUSH1 0xE0 SHL PUSH1 0x0 MSTORE PUSH1 0x0 PUSH1 0x4 MSTORE PUSH1 0x24 PUSH1 0x0 REVERT JUMPDEST ADD MLOAD SWAP1 POP CODESIZE DUP1 PUSH2 0x11F JUMP JUMPDEST PUSH1 0x1F NOT DUP3 AND SWAP3 PUSH1 0x4 PUSH1 0x0 MSTORE DUP1 PUSH1 0x0 KECCAK256 SWAP2 PUSH1 0x0 JUMPDEST DUP6 DUP2 LT PUSH2 0x286 JUMPI POP DUP4 PUSH1 0x1 SWAP6 LT PUSH2 0x26D JUMPI JUMPDEST POP POP POP DUP2 SHL ADD PUSH1 0x4 SSTORE PUSH2 0x135 JUMP JUMPDEST ADD MLOAD PUSH1 0x0 NOT PUSH1 0xF8 DUP5 PUSH1 0x3 SHL AND SHR NOT AND SWAP1 SSTORE CODESIZE DUP1 DUP1 PUSH2 0x25F JUMP JUMPDEST SWAP2 SWAP3 PUSH1 0x20 PUSH1 0x1 DUP2 SWAP3 DUP7 DUP6 ADD MLOAD DUP2 SSTORE ADD SWAP5 ADD SWAP3 ADD PUSH2 0x24D JUMP JUMPDEST PUSH1 0x4 PUSH1 0x0 MSTORE PUSH32 0x8A35ACFBC15FF81A39AE7D344FD709F28E8600B4AA8C65C6B64BFE7FE36BD19B PUSH1 0x1F DUP4 ADD PUSH1 0x5 SHR DUP2 ADD SWAP2 PUSH1 0x20 DUP5 LT PUSH2 0x2F9 JUMPI JUMPDEST PUSH1 0x1F ADD PUSH1 0x5 SHR ADD SWAP1 JUMPDEST DUP2 DUP2 LT PUSH2 0x2ED JUMPI POP PUSH2 0x105 JUMP JUMPDEST PUSH1 0x0 DUP2 SSTORE PUSH1 0x1 ADD PUSH2 0x2E0 JUMP JUMPDEST SWAP1 SWAP2 POP DUP2 SWAP1 PUSH2 0x2D7 JUMP JUMPDEST PUSH4 0x4E487B71 PUSH1 0xE0 SHL PUSH1 0x0 MSTORE PUSH1 0x22 PUSH1 0x4 MSTORE PUSH1 0x24 PUSH1 0x0 REVERT JUMPDEST SWAP1 PUSH1 0x7F AND SWAP1 PUSH2 0xF3 JUMP JUMPDEST PUSH4 0x4E487B71 PUSH1 0xE0 SHL PUSH1 0x0 MSTORE PUSH1 0x41 PUSH1 0x4 MSTORE PUSH1 0x24 PUSH1 0x0 REVERT JUMPDEST ADD MLOAD SWAP1 POP CODESIZE DUP1 PUSH2 0xBC JUMP JUMPDEST PUSH1 0x1F NOT DUP3 AND SWAP4 PUSH1 0x3 PUSH1 0x0 MSTORE DUP1 PUSH1 0x0 KECCAK256 SWAP2 PUSH1 0x0 JUMPDEST DUP7 DUP2 LT PUSH2 0x391 JUMPI POP DUP4 PUSH1 0x1 SWAP6 SWAP7 LT PUSH2 0x378 JUMPI JUMPDEST POP POP POP DUP2 SHL ADD PUSH1 0x3 SSTORE PUSH2 0xD2 JUMP JUMPDEST ADD MLOAD PUSH1 0x0 NOT PUSH1 0xF8 DUP5 PUSH1 0x3 SHL AND SHR NOT AND SWAP1 SSTORE CODESIZE DUP1 DUP1 PUSH2 0x36A JUMP JUMPDEST SWAP2 SWAP3 PUSH1 0x20 PUSH1 0x1 DUP2 SWAP3 DUP7 DUP6 ADD MLOAD DUP2 SSTORE ADD SWAP5 ADD SWAP3 ADD PUSH2 0x357 JUMP JUMPDEST PUSH1 0x3 PUSH1 0x0 MSTORE PUSH32 0xC2575A0E9E593C00F959F8C92F12DB2869C3395A3B0502D05E2516446F71F85B PUSH1 0x1F DUP4 ADD PUSH1 0x5 SHR DUP2 ADD SWAP2 PUSH1 0x20 DUP5 LT PUSH2 0x404 JUMPI JUMPDEST PUSH1 0x1F ADD PUSH1 0x5 SHR ADD SWAP1 JUMPDEST DUP2 DUP2 LT PUSH2 0x3F8 JUMPI POP PUSH2 0xA1 JUMP JUMPDEST PUSH1 0x0 DUP2 SSTORE PUSH1 0x1 ADD PUSH2 0x3EB JUMP JUMPDEST SWAP1 SWAP2 POP DUP2 SWAP1 PUSH2 0x3E2 JUMP JUMPDEST SWAP1 PUSH1 0x7F AND SWAP1 PUSH2 0x8F JUMP JUMPDEST PUSH1 0x0 DUP1 REVERT INVALID PUSH1 0x80 DUP1 PUSH1 0x40 MSTORE PUSH1 0x4 CALLDATASIZE LT ISZERO PUSH2 0x13 JUMPI PUSH1 0x0 DUP1 REVERT JUMPDEST PUSH1 0x0 CALLDATALOAD PUSH1 0xE0 SHR SWAP1 DUP2 PUSH4 0x6FDDE03 EQ PUSH2 0xC8E JUMPI POP DUP1 PUSH4 0x95EA7B3 EQ PUSH2 0xC68 JUMPI DUP1 PUSH4 0x14DA9253 EQ PUSH2 0xBE7 JUMPI DUP1 PUSH4 0x18160DDD EQ PUSH2 0xBC9 JUMPI DUP1 PUSH4 0x23B872DD EQ PUSH2 0xADC JUMPI DUP1 PUSH4 0x2EDB855A EQ PUSH2 0x9C6 JUMPI DUP1 PUSH4 0x313CE567 EQ PUSH2 0x9AA JUMPI DUP1 PUSH4 0x324169C9 EQ PUSH2 0x987 JUMPI DUP1 PUSH4 0x32CB6B0C EQ PUSH2 0x962 JUMPI DUP1 PUSH4 0x42966C68 EQ PUSH2 0x93E JUMPI DUP1 PUSH4 0x4FB7D9DE EQ PUSH2 0x8EA JUMPI DUP1 PUSH4 0x70A08231 EQ PUSH2 0x8B0 JUMPI DUP1 PUSH4 0x715018A6 EQ PUSH2 0x853 JUMPI DUP1 PUSH4 0x76697640 EQ PUSH2 0x82F JUMPI DUP1 PUSH4 0x79CC6790 EQ PUSH2 0x761 JUMPI DUP1 PUSH4 0x7D1D5D19 EQ PUSH2 0x743 JUMPI DUP1 PUSH4 0x8A877205 EQ PUSH2 0x709 JUMPI DUP1 PUSH4 0x8DA5CB5B EQ PUSH2 0x6E0 JUMPI DUP1 PUSH4 0x92D82DBE EQ PUSH2 0x6B5 JUMPI DUP1 PUSH4 0x95D89B41 EQ PUSH2 0x5A9 JUMPI DUP1 PUSH4 0xA9059CBB EQ PUSH2 0x578 JUMPI DUP1 PUSH4 0xDCA3D4D6 EQ PUSH2 0x520 JUMPI DUP1 PUSH4 0xDD62ED3E EQ PUSH2 0x4CF JUMPI DUP1 PUSH4 0xDF8431A9 EQ PUSH2 0x41C JUMPI DUP1 PUSH4 0xEF68F47B EQ PUSH2 0x3FE JUMPI DUP1 PUSH4 0xEFC10BC4 EQ PUSH2 0x35F JUMPI DUP1 PUSH4 0xF2FDE38B EQ PUSH2 0x2D5 JUMPI PUSH4 0xFBBFB782 EQ PUSH2 0x153 JUMPI PUSH1 0x0 DUP1 REVERT JUMPDEST CALLVALUE PUSH2 0x2D0 JUMPI PUSH1 0x0 CALLDATASIZE PUSH1 0x3 NOT ADD SLT PUSH2 0x2D0 JUMPI PUSH2 0x16C PUSH2 0xF22 JUMP JUMPDEST CALLER PUSH1 0x0 MSTORE PUSH1 0x7 PUSH1 0x20 MSTORE PUSH1 0x40 PUSH1 0x0 KECCAK256 SLOAD PUSH3 0x15180 DUP2 ADD DUP1 SWAP2 GT PUSH2 0x26E JUMPI TIMESTAMP LT PUSH2 0x295 JUMPI PUSH1 0x8 SLOAD PUSH9 0x3635C9ADC5DEA00000 DUP2 ADD SWAP1 DUP2 DUP2 GT PUSH2 0x26E JUMPI PUSH1 0x2 SLOAD PUSH10 0xD3C21BCECCEDA1000000 SUB SWAP1 PUSH10 0xD3C21BCECCEDA1000000 DUP3 GT PUSH2 0x26E JUMPI PUSH2 0x1CF SWAP2 PUSH2 0xDFC JUMP JUMPDEST LT PUSH2 0x284 JUMPI CALLER PUSH1 0x0 MSTORE PUSH1 0x7 PUSH1 0x20 MSTORE TIMESTAMP PUSH1 0x40 PUSH1 0x0 KECCAK256 SSTORE PUSH1 0x8 SLOAD PUSH9 0x3635C9ADC5DEA00000 DUP2 ADD DUP1 SWAP2 GT PUSH2 0x26E JUMPI PUSH1 0x8 SSTORE CALLER ISZERO PUSH2 0x258 JUMPI PUSH2 0x216 PUSH9 0x3635C9ADC5DEA00000 CALLER PUSH2 0x102C JUMP JUMPDEST PUSH1 0x40 MLOAD PUSH9 0x3635C9ADC5DEA00000 DUP2 MSTORE TIMESTAMP PUSH1 0x20 DUP3 ADD MSTORE PUSH32 0xA19A7D2B5BF6A987A66E0EAC8A6EB2DBD34AE6A43285849AF788B224268EC022 PUSH1 0x40 CALLER SWAP3 LOG2 PUSH1 0x1 PUSH1 0x6 SSTORE STOP JUMPDEST PUSH4 0xEC442F05 PUSH1 0xE0 SHL PUSH1 0x0 MSTORE PUSH1 0x0 PUSH1 0x4 MSTORE PUSH1 0x24 PUSH1 0x0 REVERT JUMPDEST PUSH4 0x4E487B71 PUSH1 0xE0 SHL PUSH1 0x0 MSTORE PUSH1 0x11 PUSH1 0x4 MSTORE PUSH1 0x24 PUSH1 0x0 REVERT JUMPDEST PUSH4 0x5F887ECD PUSH1 0xE0 SHL PUSH1 0x0 MSTORE PUSH1 0x4 PUSH1 0x0 REVERT JUMPDEST CALLER PUSH1 0x0 MSTORE PUSH1 0x7 PUSH1 0x20 MSTORE PUSH1 0x40 PUSH1 0x0 KECCAK256 SLOAD PUSH3 0x15180 DUP2 ADD DUP1 SWAP2 GT PUSH2 0x26E JUMPI PUSH2 0x2BC SWAP1 TIMESTAMP SWAP1 PUSH2 0xDEF JUMP JUMPDEST PUSH4 0x3E091F1 PUSH1 0xE1 SHL PUSH1 0x0 MSTORE PUSH1 0x4 MSTORE PUSH1 0x24 PUSH1 0x0 REVERT JUMPDEST PUSH1 0x0 DUP1 REVERT JUMPDEST CALLVALUE PUSH2 0x2D0 JUMPI PUSH1 0x20 CALLDATASIZE PUSH1 0x3 NOT ADD SLT PUSH2 0x2D0 JUMPI PUSH2 0x2EE PUSH2 0xD8B JUMP JUMPDEST PUSH2 0x2F6 PUSH2 0xEF9 JUMP JUMPDEST PUSH1 0x1 PUSH1 0x1 PUSH1 0xA0 SHL SUB AND DUP1 ISZERO PUSH2 0x349 JUMPI PUSH1 0x5 DUP1 SLOAD PUSH1 0x1 PUSH1 0x1 PUSH1 0xA0 SHL SUB NOT DUP2 AND DUP4 OR SWAP1 SWAP2 SSTORE PUSH1 0x1 PUSH1 0x1 PUSH1 0xA0 SHL SUB AND PUSH32 0x8BE0079C531659141344CD1FD0A4F28419497F9722A3DAAFE3B4186F6B6457E0 PUSH1 0x0 DUP1 LOG3 STOP JUMPDEST PUSH4 0x1E4FBDF7 PUSH1 0xE0 SHL PUSH1 0x0 MSTORE PUSH1 0x0 PUSH1 0x4 MSTORE PUSH1 0x24 PUSH1 0x0 REVERT JUMPDEST CALLVALUE PUSH2 0x2D0 JUMPI PUSH1 0x20 CALLDATASIZE PUSH1 0x3 NOT ADD SLT PUSH2 0x2D0 JUMPI PUSH1 0x1 PUSH1 0x1 PUSH1 0xA0 SHL SUB PUSH2 0x380 PUSH2 0xD8B JUMP JUMPDEST AND PUSH1 0x0 MSTORE PUSH1 0x7 PUSH1 0x20 MSTORE PUSH1 0x40 PUSH1 0x0 KECCAK256 SLOAD PUSH3 0x15180 DUP2 ADD DUP1 SWAP2 GT PUSH2 0x26E JUMPI TIMESTAMP LT ISZERO DUP1 PUSH2 0x3B2 JUMPI JUMPDEST PUSH1 0x20 SWAP1 PUSH1 0x40 MLOAD SWAP1 ISZERO ISZERO DUP2 MSTORE RETURN JUMPDEST POP PUSH1 0x8 SLOAD PUSH9 0x3635C9ADC5DEA00000 DUP2 ADD DUP1 DUP3 GT PUSH2 0x26E JUMPI PUSH1 0x2 SLOAD PUSH10 0xD3C21BCECCEDA1000000 SUB PUSH10 0xD3C21BCECCEDA1000000 DUP2 GT PUSH2 0x26E JUMPI PUSH1 0x20 SWAP3 PUSH2 0x3F5 SWAP2 PUSH2 0xDFC JUMP JUMPDEST LT ISZERO SWAP1 POP PUSH2 0x3A5 JUMP JUMPDEST CALLVALUE PUSH2 0x2D0 JUMPI PUSH1 0x0 CALLDATASIZE PUSH1 0x3 NOT ADD SLT PUSH2 0x2D0 JUMPI PUSH1 0x20 PUSH1 0x8 SLOAD PUSH1 0x40 MLOAD SWAP1 DUP2 MSTORE RETURN JUMPDEST CALLVALUE PUSH2 0x2D0 JUMPI PUSH1 0x0 CALLDATASIZE PUSH1 0x3 NOT ADD SLT PUSH2 0x2D0 JUMPI PUSH2 0x49F PUSH1 0x40 MLOAD PUSH2 0x43E PUSH1 0x40 DUP3 PUSH2 0xDB7 JUMP JUMPDEST PUSH1 0x11 DUP2 MSTORE PUSH17 0x5553445F5949454C445F42454152494E47 PUSH1 0x78 SHL PUSH1 0x20 DUP3 ADD MSTORE PUSH2 0x4AD PUSH1 0x40 MLOAD PUSH2 0x46D PUSH1 0x40 DUP3 PUSH2 0xDB7 JUMP JUMPDEST PUSH1 0x11 DUP2 MSTORE PUSH17 0x55535F54524541535552595F424F4E4453 PUSH1 0x78 SHL PUSH1 0x20 DUP3 ADD MSTORE PUSH1 0x40 MLOAD SWAP4 DUP5 SWAP4 PUSH1 0x80 DUP6 MSTORE PUSH1 0x80 DUP6 ADD SWAP1 PUSH2 0xD4A JUMP JUMPDEST SWAP1 DUP4 DUP3 SUB PUSH1 0x20 DUP6 ADD MSTORE PUSH2 0xD4A JUMP JUMPDEST PUSH8 0xDE0B6B3A7640000 PUSH1 0x40 DUP4 ADD MSTORE PUSH10 0xD3C21BCECCEDA1000000 PUSH1 0x60 DUP4 ADD MSTORE SUB SWAP1 RETURN JUMPDEST CALLVALUE PUSH2 0x2D0 JUMPI PUSH1 0x40 CALLDATASIZE PUSH1 0x3 NOT ADD SLT PUSH2 0x2D0 JUMPI PUSH2 0x4E8 PUSH2 0xD8B JUMP JUMPDEST PUSH2 0x4F0 PUSH2 0xDA1 JUMP JUMPDEST PUSH1 0x1 PUSH1 0x1 PUSH1 0xA0 SHL SUB SWAP2 DUP3 AND PUSH1 0x0 SWAP1 DUP2 MSTORE PUSH1 0x1 PUSH1 0x20 SWAP1 DUP2 MSTORE PUSH1 0x40 DUP1 DUP4 KECCAK256 SWAP5 SWAP1 SWAP4 AND DUP3 MSTORE SWAP3 DUP4 MSTORE DUP2 SWAP1 KECCAK256 SLOAD SWAP1 MLOAD SWAP1 DUP2 MSTORE RETURN JUMPDEST CALLVALUE PUSH2 0x2D0 JUMPI PUSH1 0x0 CALLDATASIZE PUSH1 0x3 NOT ADD SLT PUSH2 0x2D0 JUMPI PUSH2 0x574 PUSH1 0x40 MLOAD PUSH2 0x542 PUSH1 0x40 DUP3 PUSH2 0xDB7 JUMP JUMPDEST PUSH1 0x11 DUP2 MSTORE PUSH17 0x55535F54524541535552595F424F4E4453 PUSH1 0x78 SHL PUSH1 0x20 DUP3 ADD MSTORE PUSH1 0x40 MLOAD SWAP2 DUP3 SWAP2 PUSH1 0x20 DUP4 MSTORE PUSH1 0x20 DUP4 ADD SWAP1 PUSH2 0xD4A JUMP JUMPDEST SUB SWAP1 RETURN JUMPDEST CALLVALUE PUSH2 0x2D0 JUMPI PUSH1 0x40 CALLDATASIZE PUSH1 0x3 NOT ADD SLT PUSH2 0x2D0 JUMPI PUSH2 0x59E PUSH2 0x594 PUSH2 0xD8B JUMP JUMPDEST PUSH1 0x24 CALLDATALOAD SWAP1 CALLER PUSH2 0xE4A JUMP JUMPDEST PUSH1 0x20 PUSH1 0x40 MLOAD PUSH1 0x1 DUP2 MSTORE RETURN JUMPDEST CALLVALUE PUSH2 0x2D0 JUMPI PUSH1 0x0 CALLDATASIZE PUSH1 0x3 NOT ADD SLT PUSH2 0x2D0 JUMPI PUSH1 0x40 MLOAD PUSH1 0x0 PUSH1 0x4 SLOAD DUP1 PUSH1 0x1 SHR SWAP1 PUSH1 0x1 DUP2 AND DUP1 ISZERO PUSH2 0x6AB JUMPI JUMPDEST PUSH1 0x20 DUP4 LT DUP2 EQ PUSH2 0x697 JUMPI DUP3 DUP6 MSTORE SWAP1 DUP2 ISZERO PUSH2 0x673 JUMPI POP PUSH1 0x1 EQ PUSH2 0x613 JUMPI JUMPDEST PUSH2 0x574 DUP4 PUSH2 0x5FF DUP2 DUP6 SUB DUP3 PUSH2 0xDB7 JUMP JUMPDEST PUSH1 0x40 MLOAD SWAP2 DUP3 SWAP2 PUSH1 0x20 DUP4 MSTORE PUSH1 0x20 DUP4 ADD SWAP1 PUSH2 0xD4A JUMP JUMPDEST SWAP2 SWAP1 POP PUSH1 0x4 PUSH1 0x0 MSTORE PUSH32 0x8A35ACFBC15FF81A39AE7D344FD709F28E8600B4AA8C65C6B64BFE7FE36BD19B SWAP2 PUSH1 0x0 SWAP1 JUMPDEST DUP1 DUP3 LT PUSH2 0x659 JUMPI POP SWAP1 SWAP2 POP DUP2 ADD PUSH1 0x20 ADD PUSH2 0x5FF PUSH2 0x5EF JUMP JUMPDEST SWAP2 SWAP3 PUSH1 0x1 DUP2 PUSH1 0x20 SWAP3 SLOAD DUP4 DUP6 DUP9 ADD ADD MSTORE ADD SWAP2 ADD SWAP1 SWAP3 SWAP2 PUSH2 0x641 JUMP JUMPDEST PUSH1 0xFF NOT AND PUSH1 0x20 DUP1 DUP7 ADD SWAP2 SWAP1 SWAP2 MSTORE SWAP2 ISZERO ISZERO PUSH1 0x5 SHL DUP5 ADD SWAP1 SWAP2 ADD SWAP2 POP PUSH2 0x5FF SWAP1 POP PUSH2 0x5EF JUMP JUMPDEST PUSH4 0x4E487B71 PUSH1 0xE0 SHL DUP5 MSTORE PUSH1 0x22 PUSH1 0x4 MSTORE PUSH1 0x24 DUP5 REVERT JUMPDEST SWAP2 PUSH1 0x7F AND SWAP2 PUSH2 0x5D2 JUMP JUMPDEST CALLVALUE PUSH2 0x2D0 JUMPI PUSH1 0x20 CALLDATASIZE PUSH1 0x3 NOT ADD SLT PUSH2 0x2D0 JUMPI PUSH1 0x20 PUSH2 0x6D8 PUSH2 0x6D3 PUSH2 0xD8B JUMP JUMPDEST PUSH2 0xE09 JUMP JUMPDEST PUSH1 0x40 MLOAD SWAP1 DUP2 MSTORE RETURN JUMPDEST CALLVALUE PUSH2 0x2D0 JUMPI PUSH1 0x0 CALLDATASIZE PUSH1 0x3 NOT ADD SLT PUSH2 0x2D0 JUMPI PUSH1 0x5 SLOAD PUSH1 0x40 MLOAD PUSH1 0x1 PUSH1 0x1 PUSH1 0xA0 SHL SUB SWAP1 SWAP2 AND DUP2 MSTORE PUSH1 0x20 SWAP1 RETURN JUMPDEST CALLVALUE PUSH2 0x2D0 JUMPI PUSH1 0x20 CALLDATASIZE PUSH1 0x3 NOT ADD SLT PUSH2 0x2D0 JUMPI PUSH1 0x1 PUSH1 0x1 PUSH1 0xA0 SHL SUB PUSH2 0x72A PUSH2 0xD8B JUMP JUMPDEST AND PUSH1 0x0 MSTORE PUSH1 0x7 PUSH1 0x20 MSTORE PUSH1 0x20 PUSH1 0x40 PUSH1 0x0 KECCAK256 SLOAD PUSH1 0x40 MLOAD SWAP1 DUP2 MSTORE RETURN JUMPDEST CALLVALUE PUSH2 0x2D0 JUMPI PUSH1 0x0 CALLDATASIZE PUSH1 0x3 NOT ADD SLT PUSH2 0x2D0 JUMPI PUSH1 0x20 PUSH1 0x40 MLOAD PUSH3 0x15180 DUP2 MSTORE RETURN JUMPDEST CALLVALUE PUSH2 0x2D0 JUMPI PUSH1 0x40 CALLDATASIZE PUSH1 0x3 NOT ADD SLT PUSH2 0x2D0 JUMPI PUSH2 0x77A PUSH2 0xD8B JUMP JUMPDEST PUSH1 0x24 CALLDATALOAD DUP1 ISZERO PUSH2 0x81E JUMPI PUSH1 0x1 PUSH1 0x1 PUSH1 0xA0 SHL SUB DUP3 AND PUSH1 0x0 SWAP1 DUP2 MSTORE PUSH1 0x1 PUSH1 0x20 SWAP1 DUP2 MSTORE PUSH1 0x40 DUP1 DUP4 KECCAK256 CALLER DUP5 MSTORE SWAP1 SWAP2 MSTORE SWAP1 KECCAK256 SLOAD SWAP2 DUP2 DUP4 LT PUSH2 0x7CD JUMPI PUSH2 0x7C6 PUSH2 0x7BF DUP4 PUSH2 0x7CB SWAP6 PUSH2 0xDEF JUMP JUMPDEST CALLER DUP4 PUSH2 0xFC5 JUMP JUMPDEST PUSH2 0xF44 JUMP JUMPDEST STOP JUMPDEST PUSH1 0x40 MLOAD PUSH3 0x461BCD PUSH1 0xE5 SHL DUP2 MSTORE PUSH1 0x20 PUSH1 0x4 DUP3 ADD MSTORE PUSH1 0x24 DUP1 DUP3 ADD MSTORE PUSH32 0x45524332303A206275726E20616D6F756E74206578636565647320616C6C6F77 PUSH1 0x44 DUP3 ADD MSTORE PUSH4 0x616E6365 PUSH1 0xE0 SHL PUSH1 0x64 DUP3 ADD MSTORE PUSH1 0x84 SWAP1 REVERT JUMPDEST PUSH4 0x162908E3 PUSH1 0xE1 SHL PUSH1 0x0 MSTORE PUSH1 0x4 PUSH1 0x0 REVERT JUMPDEST CALLVALUE PUSH2 0x2D0 JUMPI PUSH1 0x0 CALLDATASIZE PUSH1 0x3 NOT ADD SLT PUSH2 0x2D0 JUMPI PUSH1 0x20 PUSH1 0x40 MLOAD PUSH9 0x3635C9ADC5DEA00000 DUP2 MSTORE RETURN JUMPDEST CALLVALUE PUSH2 0x2D0 JUMPI PUSH1 0x0 CALLDATASIZE PUSH1 0x3 NOT ADD SLT PUSH2 0x2D0 JUMPI PUSH2 0x86C PUSH2 0xEF9 JUMP JUMPDEST PUSH1 0x5 DUP1 SLOAD PUSH1 0x1 PUSH1 0x1 PUSH1 0xA0 SHL SUB NOT DUP2 AND SWAP1 SWAP2 SSTORE PUSH1 0x0 SWAP1 PUSH1 0x1 PUSH1 0x1 PUSH1 0xA0 SHL SUB AND PUSH32 0x8BE0079C531659141344CD1FD0A4F28419497F9722A3DAAFE3B4186F6B6457E0 DUP3 DUP1 LOG3 STOP JUMPDEST CALLVALUE PUSH2 0x2D0 JUMPI PUSH1 0x20 CALLDATASIZE PUSH1 0x3 NOT ADD SLT PUSH2 0x2D0 JUMPI PUSH1 0x1 PUSH1 0x1 PUSH1 0xA0 SHL SUB PUSH2 0x8D1 PUSH2 0xD8B JUMP JUMPDEST AND PUSH1 0x0 MSTORE PUSH1 0x0 PUSH1 0x20 MSTORE PUSH1 0x20 PUSH1 0x40 PUSH1 0x0 KECCAK256 SLOAD PUSH1 0x40 MLOAD SWAP1 DUP2 MSTORE RETURN JUMPDEST CALLVALUE PUSH2 0x2D0 JUMPI PUSH1 0x0 CALLDATASIZE PUSH1 0x3 NOT ADD SLT PUSH2 0x2D0 JUMPI PUSH2 0x574 PUSH1 0x40 MLOAD PUSH2 0x90C PUSH1 0x40 DUP3 PUSH2 0xDB7 JUMP JUMPDEST PUSH1 0x11 DUP2 MSTORE PUSH17 0x5553445F5949454C445F42454152494E47 PUSH1 0x78 SHL PUSH1 0x20 DUP3 ADD MSTORE PUSH1 0x40 MLOAD SWAP2 DUP3 SWAP2 PUSH1 0x20 DUP4 MSTORE PUSH1 0x20 DUP4 ADD SWAP1 PUSH2 0xD4A JUMP JUMPDEST CALLVALUE PUSH2 0x2D0 JUMPI PUSH1 0x20 CALLDATASIZE PUSH1 0x3 NOT ADD SLT PUSH2 0x2D0 JUMPI PUSH1 0x4 CALLDATALOAD DUP1 ISZERO PUSH2 0x81E JUMPI PUSH2 0x7CB SWAP1 CALLER PUSH2 0xF44 JUMP JUMPDEST CALLVALUE PUSH2 0x2D0 JUMPI PUSH1 0x0 CALLDATASIZE PUSH1 0x3 NOT ADD SLT PUSH2 0x2D0 JUMPI PUSH1 0x20 PUSH1 0x40 MLOAD PUSH10 0xD3C21BCECCEDA1000000 DUP2 MSTORE RETURN JUMPDEST CALLVALUE PUSH2 0x2D0 JUMPI PUSH1 0x0 CALLDATASIZE PUSH1 0x3 NOT ADD SLT PUSH2 0x2D0 JUMPI PUSH1 0x20 PUSH1 0x40 MLOAD PUSH8 0xDE0B6B3A7640000 DUP2 MSTORE RETURN JUMPDEST CALLVALUE PUSH2 0x2D0 JUMPI PUSH1 0x0 CALLDATASIZE PUSH1 0x3 NOT ADD SLT PUSH2 0x2D0 JUMPI PUSH1 0x20 PUSH1 0x40 MLOAD PUSH1 0x12 DUP2 MSTORE RETURN JUMPDEST CALLVALUE PUSH2 0x2D0 JUMPI PUSH1 0x60 CALLDATASIZE PUSH1 0x3 NOT ADD SLT PUSH2 0x2D0 JUMPI PUSH2 0x9DF PUSH2 0xD8B JUMP JUMPDEST PUSH1 0x24 CALLDATALOAD SWAP1 PUSH1 0x44 CALLDATALOAD PUSH8 0xFFFFFFFFFFFFFFFF DUP2 GT PUSH2 0x2D0 JUMPI CALLDATASIZE PUSH1 0x23 DUP3 ADD SLT ISZERO PUSH2 0x2D0 JUMPI DUP1 PUSH1 0x4 ADD CALLDATALOAD SWAP2 PUSH8 0xFFFFFFFFFFFFFFFF DUP4 GT PUSH2 0x2D0 JUMPI CALLDATASIZE PUSH1 0x24 DUP5 DUP5 ADD ADD GT PUSH2 0x2D0 JUMPI PUSH2 0xA29 PUSH2 0xEF9 JUMP JUMPDEST PUSH2 0xA31 PUSH2 0xF22 JUMP JUMPDEST DUP4 ISZERO PUSH2 0x81E JUMPI PUSH10 0xD3C21BCECCEDA1000000 PUSH2 0xA4E DUP6 PUSH1 0x2 SLOAD PUSH2 0xDFC JUMP JUMPDEST GT PUSH2 0xACB JUMPI PUSH1 0x1 PUSH1 0x1 PUSH1 0xA0 SHL SUB DUP2 AND SWAP4 DUP5 ISZERO PUSH2 0x258 JUMPI PUSH32 0xC94895568AEB8223E1FF4D6209DAE01ED3BD79026D4DF96400BBA10513FDBC03 SWAP4 PUSH2 0xA92 DUP3 PUSH1 0x60 SWAP5 PUSH2 0x102C JUMP JUMPDEST DUP1 PUSH1 0x24 PUSH1 0x40 MLOAD SWAP6 DUP7 SWAP5 DUP6 MSTORE PUSH1 0x40 PUSH1 0x20 DUP7 ADD MSTORE DUP3 PUSH1 0x40 DUP7 ADD MSTORE ADD DUP5 DUP5 ADD CALLDATACOPY PUSH1 0x0 DUP3 DUP3 ADD DUP5 ADD MSTORE PUSH1 0x1F ADD PUSH1 0x1F NOT AND DUP2 ADD SUB ADD SWAP1 LOG2 PUSH1 0x1 PUSH1 0x6 SSTORE STOP JUMPDEST PUSH4 0x8A164F63 PUSH1 0xE0 SHL PUSH1 0x0 MSTORE PUSH1 0x4 PUSH1 0x0 REVERT JUMPDEST CALLVALUE PUSH2 0x2D0 JUMPI PUSH1 0x60 CALLDATASIZE PUSH1 0x3 NOT ADD SLT PUSH2 0x2D0 JUMPI PUSH2 0xAF5 PUSH2 0xD8B JUMP JUMPDEST PUSH2 0xAFD PUSH2 0xDA1 JUMP JUMPDEST PUSH1 0x1 PUSH1 0x1 PUSH1 0xA0 SHL SUB DUP3 AND PUSH1 0x0 DUP2 DUP2 MSTORE PUSH1 0x1 PUSH1 0x20 SWAP1 DUP2 MSTORE PUSH1 0x40 DUP1 DUP4 KECCAK256 CALLER DUP5 MSTORE SWAP1 SWAP2 MSTORE SWAP1 KECCAK256 SLOAD SWAP1 SWAP3 PUSH1 0x44 CALLDATALOAD SWAP3 SWAP2 PUSH1 0x0 NOT DUP2 LT PUSH2 0xB3D JUMPI JUMPDEST POP PUSH2 0x59E SWAP4 POP PUSH2 0xE4A JUMP JUMPDEST DUP4 DUP2 LT PUSH2 0xBAC JUMPI DUP5 ISZERO PUSH2 0xB96 JUMPI CALLER ISZERO PUSH2 0xB80 JUMPI PUSH2 0x59E SWAP5 PUSH1 0x0 MSTORE PUSH1 0x1 PUSH1 0x20 MSTORE PUSH1 0x40 PUSH1 0x0 KECCAK256 PUSH1 0x1 DUP1 PUSH1 0xA0 SHL SUB CALLER AND PUSH1 0x0 MSTORE PUSH1 0x20 MSTORE DUP4 PUSH1 0x40 PUSH1 0x0 KECCAK256 SWAP2 SUB SWAP1 SSTORE DUP5 PUSH2 0xB32 JUMP JUMPDEST PUSH4 0x4A1406B1 PUSH1 0xE1 SHL PUSH1 0x0 MSTORE PUSH1 0x0 PUSH1 0x4 MSTORE PUSH1 0x24 PUSH1 0x0 REVERT JUMPDEST PUSH4 0xE602DF05 PUSH1 0xE0 SHL PUSH1 0x0 MSTORE PUSH1 0x0 PUSH1 0x4 MSTORE PUSH1 0x24 PUSH1 0x0 REVERT JUMPDEST DUP4 SWAP1 PUSH4 0x7DC7A0D9 PUSH1 0xE1 SHL PUSH1 0x0 MSTORE CALLER PUSH1 0x4 MSTORE PUSH1 0x24 MSTORE PUSH1 0x44 MSTORE PUSH1 0x64 PUSH1 0x0 REVERT JUMPDEST CALLVALUE PUSH2 0x2D0 JUMPI PUSH1 0x0 CALLDATASIZE PUSH1 0x3 NOT ADD SLT PUSH2 0x2D0 JUMPI PUSH1 0x20 PUSH1 0x2 SLOAD PUSH1 0x40 MLOAD SWAP1 DUP2 MSTORE RETURN JUMPDEST CALLVALUE PUSH2 0x2D0 JUMPI PUSH1 0x0 CALLDATASIZE PUSH1 0x3 NOT ADD SLT PUSH2 0x2D0 JUMPI PUSH1 0x8 SLOAD PUSH2 0xC07 DUP2 PUSH1 0x2 SLOAD PUSH2 0xDEF JUMP JUMPDEST PUSH10 0xD3C21BCECCEDA1000000 SUB SWAP1 PUSH10 0xD3C21BCECCEDA1000000 DUP3 GT PUSH2 0x26E JUMPI PUSH1 0x80 SWAP2 DUP2 DUP1 DUP3 GT ISZERO PUSH2 0xC5F JUMPI PUSH2 0xC3A SWAP2 PUSH2 0xDEF JUMP JUMPDEST PUSH1 0x40 MLOAD SWAP2 PUSH9 0x3635C9ADC5DEA00000 DUP4 MSTORE PUSH3 0x15180 PUSH1 0x20 DUP5 ADD MSTORE PUSH1 0x40 DUP4 ADD MSTORE PUSH1 0x60 DUP3 ADD MSTORE RETURN JUMPDEST POP POP PUSH1 0x0 PUSH2 0xC3A JUMP JUMPDEST CALLVALUE PUSH2 0x2D0 JUMPI PUSH1 0x40 CALLDATASIZE PUSH1 0x3 NOT ADD SLT PUSH2 0x2D0 JUMPI PUSH2 0x59E PUSH2 0xC84 PUSH2 0xD8B JUMP JUMPDEST PUSH1 0x24 CALLDATALOAD SWAP1 CALLER PUSH2 0xFC5 JUMP JUMPDEST CALLVALUE PUSH2 0x2D0 JUMPI PUSH1 0x0 CALLDATASIZE PUSH1 0x3 NOT ADD SLT PUSH2 0x2D0 JUMPI PUSH1 0x0 PUSH1 0x3 SLOAD DUP1 PUSH1 0x1 SHR SWAP1 PUSH1 0x1 DUP2 AND DUP1 ISZERO PUSH2 0xD40 JUMPI JUMPDEST PUSH1 0x20 DUP4 LT DUP2 EQ PUSH2 0x697 JUMPI DUP3 DUP6 MSTORE SWAP1 DUP2 ISZERO PUSH2 0x673 JUMPI POP PUSH1 0x1 EQ PUSH2 0xCE0 JUMPI PUSH2 0x574 DUP4 PUSH2 0x5FF DUP2 DUP6 SUB DUP3 PUSH2 0xDB7 JUMP JUMPDEST SWAP2 SWAP1 POP PUSH1 0x3 PUSH1 0x0 MSTORE PUSH32 0xC2575A0E9E593C00F959F8C92F12DB2869C3395A3B0502D05E2516446F71F85B SWAP2 PUSH1 0x0 SWAP1 JUMPDEST DUP1 DUP3 LT PUSH2 0xD26 JUMPI POP SWAP1 SWAP2 POP DUP2 ADD PUSH1 0x20 ADD PUSH2 0x5FF PUSH2 0x5EF JUMP JUMPDEST SWAP2 SWAP3 PUSH1 0x1 DUP2 PUSH1 0x20 SWAP3 SLOAD DUP4 DUP6 DUP9 ADD ADD MSTORE ADD SWAP2 ADD SWAP1 SWAP3 SWAP2 PUSH2 0xD0E JUMP JUMPDEST SWAP2 PUSH1 0x7F AND SWAP2 PUSH2 0xCB4 JUMP JUMPDEST SWAP2 SWAP1 DUP3 MLOAD SWAP3 DUP4 DUP3 MSTORE PUSH1 0x0 JUMPDEST DUP5 DUP2 LT PUSH2 0xD76 JUMPI POP POP DUP3 PUSH1 0x0 PUSH1 0x20 DUP1 SWAP5 SWAP6 DUP5 ADD ADD MSTORE PUSH1 0x1F DUP1 NOT SWAP2 ADD AND ADD ADD SWAP1 JUMP JUMPDEST DUP1 PUSH1 0x20 DUP1 SWAP3 DUP5 ADD ADD MLOAD DUP3 DUP3 DUP7 ADD ADD MSTORE ADD PUSH2 0xD55 JUMP JUMPDEST PUSH1 0x4 CALLDATALOAD SWAP1 PUSH1 0x1 PUSH1 0x1 PUSH1 0xA0 SHL SUB DUP3 AND DUP3 SUB PUSH2 0x2D0 JUMPI JUMP JUMPDEST PUSH1 0x24 CALLDATALOAD SWAP1 PUSH1 0x1 PUSH1 0x1 PUSH1 0xA0 SHL SUB DUP3 AND DUP3 SUB PUSH2 0x2D0 JUMPI JUMP JUMPDEST SWAP1 PUSH1 0x1F DUP1 NOT SWAP2 ADD AND DUP2 ADD SWAP1 DUP2 LT PUSH8 0xFFFFFFFFFFFFFFFF DUP3 GT OR PUSH2 0xDD9 JUMPI PUSH1 0x40 MSTORE JUMP JUMPDEST PUSH4 0x4E487B71 PUSH1 0xE0 SHL PUSH1 0x0 MSTORE PUSH1 0x41 PUSH1 0x4 MSTORE PUSH1 0x24 PUSH1 0x0 REVERT JUMPDEST SWAP2 SWAP1 DUP3 SUB SWAP2 DUP3 GT PUSH2 0x26E JUMPI JUMP JUMPDEST SWAP2 SWAP1 DUP3 ADD DUP1 SWAP3 GT PUSH2 0x26E JUMPI JUMP JUMPDEST PUSH1 0x1 PUSH1 0x1 PUSH1 0xA0 SHL SUB AND PUSH1 0x0 SWAP1 DUP2 MSTORE PUSH1 0x7 PUSH1 0x20 MSTORE PUSH1 0x40 SWAP1 KECCAK256 SLOAD PUSH3 0x15180 DUP2 ADD SWAP1 DUP2 LT PUSH2 0x26E JUMPI DUP1 TIMESTAMP LT ISZERO PUSH2 0xE44 JUMPI PUSH2 0xE41 SWAP1 TIMESTAMP SWAP1 PUSH2 0xDEF JUMP JUMPDEST SWAP1 JUMP JUMPDEST POP PUSH1 0x0 SWAP1 JUMP JUMPDEST PUSH1 0x1 PUSH1 0x1 PUSH1 0xA0 SHL SUB AND SWAP1 DUP2 ISZERO PUSH2 0xEE3 JUMPI PUSH1 0x1 PUSH1 0x1 PUSH1 0xA0 SHL SUB AND SWAP2 DUP3 ISZERO PUSH2 0x258 JUMPI PUSH1 0x0 DUP3 DUP2 MSTORE DUP1 PUSH1 0x20 MSTORE PUSH1 0x40 DUP2 KECCAK256 SLOAD DUP3 DUP2 LT PUSH2 0xEC9 JUMPI SWAP2 PUSH1 0x40 DUP3 DUP3 PUSH32 0xDDF252AD1BE2C89B69C2B068FC378DAA952BA7F163C4A11628F55A4DF523B3EF SWAP6 DUP8 PUSH1 0x20 SWAP7 MSTORE DUP3 DUP7 MSTORE SUB DUP3 DUP3 KECCAK256 SSTORE DUP7 DUP2 MSTORE DUP1 DUP5 MSTORE KECCAK256 DUP2 DUP2 SLOAD ADD SWAP1 SSTORE PUSH1 0x40 MLOAD SWAP1 DUP2 MSTORE LOG3 JUMP JUMPDEST SWAP2 PUSH1 0x64 SWAP3 DUP5 PUSH4 0x391434E3 PUSH1 0xE2 SHL DUP5 MSTORE PUSH1 0x4 MSTORE PUSH1 0x24 MSTORE PUSH1 0x44 MSTORE REVERT JUMPDEST PUSH4 0x4B637E8F PUSH1 0xE1 SHL PUSH1 0x0 MSTORE PUSH1 0x0 PUSH1 0x4 MSTORE PUSH1 0x24 PUSH1 0x0 REVERT JUMPDEST PUSH1 0x5 SLOAD PUSH1 0x1 PUSH1 0x1 PUSH1 0xA0 SHL SUB AND CALLER SUB PUSH2 0xF0D JUMPI JUMP JUMPDEST PUSH4 0x118CDAA7 PUSH1 0xE0 SHL PUSH1 0x0 MSTORE CALLER PUSH1 0x4 MSTORE PUSH1 0x24 PUSH1 0x0 REVERT JUMPDEST PUSH1 0x2 PUSH1 0x6 SLOAD EQ PUSH2 0xF33 JUMPI PUSH1 0x2 PUSH1 0x6 SSTORE JUMP JUMPDEST PUSH4 0x3EE5AEB5 PUSH1 0xE0 SHL PUSH1 0x0 MSTORE PUSH1 0x4 PUSH1 0x0 REVERT JUMPDEST PUSH1 0x1 PUSH1 0x1 PUSH1 0xA0 SHL SUB AND DUP1 ISZERO PUSH2 0xEE3 JUMPI PUSH1 0x0 SWAP2 DUP2 DUP4 MSTORE DUP3 PUSH1 0x20 MSTORE PUSH1 0x40 DUP4 KECCAK256 SLOAD DUP2 DUP2 LT PUSH2 0xFAC JUMPI DUP2 PUSH32 0xDDF252AD1BE2C89B69C2B068FC378DAA952BA7F163C4A11628F55A4DF523B3EF SWAP3 PUSH1 0x20 SWAP3 DUP6 DUP8 MSTORE DUP7 DUP5 MSTORE SUB PUSH1 0x40 DUP7 KECCAK256 SSTORE DUP1 PUSH1 0x2 SLOAD SUB PUSH1 0x2 SSTORE PUSH1 0x40 MLOAD SWAP1 DUP2 MSTORE LOG3 JUMP JUMPDEST PUSH1 0x64 SWAP4 SWAP3 PUSH4 0x391434E3 PUSH1 0xE2 SHL DUP5 MSTORE PUSH1 0x4 MSTORE PUSH1 0x24 MSTORE PUSH1 0x44 MSTORE REVERT JUMPDEST PUSH1 0x1 PUSH1 0x1 PUSH1 0xA0 SHL SUB AND SWAP1 DUP2 ISZERO PUSH2 0xB96 JUMPI PUSH1 0x1 PUSH1 0x1 PUSH1 0xA0 SHL SUB AND SWAP2 DUP3 ISZERO PUSH2 0xB80 JUMPI PUSH1 0x20 PUSH32 0x8C5BE1E5EBEC7D5BD14F71427D1E84F3DD0314C0F7B2291E5B200AC8C7C3B925 SWAP2 DUP4 PUSH1 0x0 MSTORE PUSH1 0x1 DUP3 MSTORE PUSH1 0x40 PUSH1 0x0 KECCAK256 DUP6 PUSH1 0x0 MSTORE DUP3 MSTORE DUP1 PUSH1 0x40 PUSH1 0x0 KECCAK256 SSTORE PUSH1 0x40 MLOAD SWAP1 DUP2 MSTORE LOG3 JUMP JUMPDEST PUSH32 0xDDF252AD1BE2C89B69C2B068FC378DAA952BA7F163C4A11628F55A4DF523B3EF PUSH1 0x20 PUSH1 0x0 SWAP3 PUSH2 0x105E DUP6 PUSH1 0x2 SLOAD PUSH2 0xDFC JUMP JUMPDEST PUSH1 0x2 SSTORE PUSH1 0x1 PUSH1 0x1 PUSH1 0xA0 SHL SUB AND SWAP4 DUP5 ISZERO DUP5 EQ PUSH2 0x1085 JUMPI DUP1 PUSH1 0x2 SLOAD SUB PUSH1 0x2 SSTORE JUMPDEST PUSH1 0x40 MLOAD SWAP1 DUP2 MSTORE LOG3 JUMP JUMPDEST DUP5 DUP5 MSTORE DUP4 DUP3 MSTORE PUSH1 0x40 DUP5 KECCAK256 DUP2 DUP2 SLOAD ADD SWAP1 SSTORE PUSH2 0x107C JUMP INVALID LOG2 PUSH5 0x6970667358 0x22 SLT KECCAK256 PC 0xEA 0xD7 TIMESTAMP SWAP10 0xB4 MSIZE 0xED 0xBF LOG0 EXTCODEHASH PUSH26 0xA23C63D71EC74B4609B92A542B60A669CE90FC7964736F6C6343 STOP ADDMOD SHR STOP CALLER "},"methodIdentifiers":{"ASSET_VALUE_USD()":"324169c9","BACKING_ASSET()":"dca3d4d6","FAUCET_AMOUNT()":"76697640","FAUCET_COOLDOWN()":"7d1d5d19","MAX_SUPPLY()":"32cb6b0c","RWA_TYPE()":"4fb7d9de","allowance(address,address)":"dd62ed3e","approve(address,uint256)":"095ea7b3","balanceOf(address)":"70a08231","burn(uint256)":"42966c68","burnFrom(address,uint256)":"79cc6790","canClaimFromFaucet(address)":"efc10bc4","claimFromFaucet()":"fbbfb782","decimals()":"313ce567","emergencyMint(address,uint256,string)":"2edb855a","getFaucetInfo()":"14da9253","getRWAMetadata()":"df8431a9","lastFaucetClaim(address)":"8a877205","name()":"06fdde03","owner()":"8da5cb5b","renounceOwnership()":"715018a6","symbol()":"95d89b41","timeUntilNextClaim(address)":"92d82dbe","totalFaucetClaimed()":"ef68f47b","totalSupply()":"18160ddd","transfer(address,uint256)":"a9059cbb","transferFrom(address,address,uint256)":"23b872dd","transferOwnership(address)":"f2fde38b"}}}}}