{"contracts/BulkPayroll.sol":{"BulkPayroll":{"abi":[{"inputs":[],"stateMutability":"nonpayable","type":"constructor"},{"inputs":[],"name":"InsufficientAllowance","type":"error"},{"inputs":[],"name":"InsufficientBalance","type":"error"},{"inputs":[],"name":"InvalidInput","type":"error"},{"inputs":[],"name":"LengthMismatch","type":"error"},{"inputs":[{"internalType":"address","name":"owner","type":"address"}],"name":"OwnableInvalidOwner","type":"error"},{"inputs":[{"internalType":"address","name":"account","type":"address"}],"name":"OwnableUnauthorizedAccount","type":"error"},{"inputs":[],"name":"ReentrancyGuardReentrantCall","type":"error"},{"inputs":[],"name":"RefundFailed","type":"error"},{"inputs":[{"internalType":"address","name":"token","type":"address"}],"name":"SafeERC20FailedOperation","type":"error"},{"inputs":[],"name":"TooManyRecipients","type":"error"},{"inputs":[],"name":"TransferError","type":"error"},{"anonymous":false,"inputs":[{"indexed":true,"internalType":"address","name":"sender","type":"address"},{"indexed":true,"internalType":"address","name":"token","type":"address"},{"indexed":false,"internalType":"uint256","name":"totalRecipients","type":"uint256"},{"indexed":false,"internalType":"uint256","name":"totalAmount","type":"uint256"},{"indexed":false,"internalType":"uint256","name":"successCount","type":"uint256"},{"indexed":false,"internalType":"uint256","name":"failCount","type":"uint256"}],"name":"BulkTransferExecuted","type":"event"},{"anonymous":false,"inputs":[{"indexed":true,"internalType":"address","name":"recipient","type":"address"},{"indexed":false,"internalType":"address","name":"token","type":"address"},{"indexed":false,"internalType":"uint256","name":"amount","type":"uint256"}],"name":"FailedTransferClaimed","type":"event"},{"anonymous":false,"inputs":[{"indexed":true,"internalType":"address","name":"previousOwner","type":"address"},{"indexed":true,"internalType":"address","name":"newOwner","type":"address"}],"name":"OwnershipTransferred","type":"event"},{"anonymous":false,"inputs":[{"indexed":true,"internalType":"address","name":"recipient","type":"address"},{"indexed":true,"internalType":"address","name":"token","type":"address"},{"indexed":false,"internalType":"uint256","name":"amount","type":"uint256"}],"name":"TransferFailed","type":"event"},{"inputs":[],"name":"GAS_LIMIT","outputs":[{"internalType":"uint256","name":"","type":"uint256"}],"stateMutability":"view","type":"function"},{"inputs":[],"name":"MAX_RECIPIENTS","outputs":[{"internalType":"uint256","name":"","type":"uint256"}],"stateMutability":"view","type":"function"},{"inputs":[{"internalType":"address","name":"token","type":"address"},{"internalType":"address[]","name":"recipients","type":"address[]"},{"internalType":"uint256[]","name":"amounts","type":"uint256[]"}],"name":"bulkTransfer","outputs":[],"stateMutability":"payable","type":"function"},{"inputs":[{"internalType":"address","name":"token","type":"address"}],"name":"claimFailedTransfer","outputs":[],"stateMutability":"nonpayable","type":"function"},{"inputs":[{"internalType":"address","name":"token","type":"address"}],"name":"emergencyWithdraw","outputs":[],"stateMutability":"nonpayable","type":"function"},{"inputs":[{"internalType":"address","name":"","type":"address"},{"internalType":"address","name":"","type":"address"}],"name":"failedTransfers","outputs":[{"internalType":"uint256","name":"","type":"uint256"}],"stateMutability":"view","type":"function"},{"inputs":[{"internalType":"address","name":"recipient","type":"address"},{"internalType":"address","name":"token","type":"address"}],"name":"getFailedAmount","outputs":[{"internalType":"uint256","name":"","type":"uint256"}],"stateMutability":"view","type":"function"},{"inputs":[],"name":"owner","outputs":[{"internalType":"address","name":"","type":"address"}],"stateMutability":"view","type":"function"},{"inputs":[],"name":"renounceOwnership","outputs":[],"stateMutability":"nonpayable","type":"function"},{"inputs":[{"internalType":"address","name":"newOwner","type":"address"}],"name":"transferOwnership","outputs":[],"stateMutability":"nonpayable","type":"function"},{"stateMutability":"payable","type":"receive"}],"evm":{"bytecode":{"linkReferences":{},"object":"6080806040523461007f57600160005533156100695760018054336001600160a01b03198216811790925560405191906001600160a01b03167f8be0079c531659141344cd1fd0a4f28419497f9722a3daafe3b4186f6b6457e0600080a3610c6390816100858239f35b631e4fbdf760e01b815260006004820152602490fd5b600080fdfe60806040818152600480361015610021575b505050361561001f57600080fd5b005b600092833560e01c908163091d27881461096c5750806309ae54be146108835780631b60f2661461066c578381636ff1c9bc1461075e57508063715018a6146106fe5780638da5cb5b146106d5578063a6980ce2146106b9578063e65c31c41461066c578063e886dade1461012c5763f2fde38b036100115734610128576020366003190112610128576100b3610988565b906100bc6109ea565b6001600160a01b03918216928315610112575050600154826bffffffffffffffffffffffff60a01b821617600155167f8be0079c531659141344cd1fd0a4f28419497f9722a3daafe3b4186f6b6457e08380a380f35b51631e4fbdf760e01b8152908101849052602490fd5b8280fd5b5090606036600319011261012857610142610988565b67ffffffffffffffff906024358281116106685761016390369086016109b9565b916044358481116106645761017b90369088016109b9565b929091610186610a73565b84156106545760c8851161064457838503610631578895895b8681106105cb57506001600160a01b03918083169182610387575050508534106103775790928894938592869487935b8785106102785750508851958652505050602083018590526040830152606082015233907f692e83d8616474b42f4087ee207b152ab184c8c509d2c1ee03ffebb618f8e10090608090a38034039034821161026557908491340361023a575b505050505b6001815580f35b818080923361c350f161024b610b45565b501561025857828161022e565b51633c31275160e21b8152fd5b634e487b7160e01b855260118452602485fd5b91939596978080806102966102918b8e8a9c989a610a16565b610a3c565b6102a18b888a610a16565b359061c350f16102af610b45565b50156102d1576102c0600191610a96565b955b0193918b9796959493916101cf565b94956102dc90610a96565b958b6102e9828486610a16565b35856102f6848c8a610a16565b6102ff90610a3c565b168252602090600282528c832083805282528c83209081549061032191610a50565b90558b86610330858d8b610a16565b61033990610a3c565b61034486888a610a16565b35925192835216917fbf182be802245e8ed88e4b8d3e4344c0863dd2a70334f089fd07265389306fcf91a36001906102c2565b8651631e9acf1760e31b81528890fd5b92919989959194969897995193636eb1769f60e11b855233828601523060248601528c858d8160446020998a935afa9182156105c057908b9261058b575b501061057c5786516323b872dd60e01b8682015233602482015230604482015260648082018b905281529160a08301918211838310176105695750865290979593929190610413908b610add565b8a978b968c955b8d8d8d808a1061047557505097519b8c52505050506020880195909552505050604084019290925250606082015233907f692e83d8616474b42f4087ee207b152ab184c8c509d2c1ee03ffebb618f8e10090608090a3610233565b6104a28a9e9495969798999a8b61049b61049361029184878c610a16565b928a8c610a16565b3591610b85565b156104c3575050506104b5600191610a96565b9a5b0195949392919061041a565b8d6104d3949e948a93949d610a96565b9c8c6104e0838a8c610a16565b35918b6104ee85878c610a16565b6104f790610a3c565b168152600286528181208782528652209081549061051491610a50565b90556105209186610a16565b61052990610a3c565b8761053585888a610a16565b35918c5192835216917fbf182be802245e8ed88e4b8d3e4344c0863dd2a70334f089fd07265389306fcf91a36001906104b7565b634e487b7160e01b8e526041905260248dfd5b5085516313be252b60e01b8152fd5b809250878092503d83116105b9575b6105a48183610aa5565b810103126105b557899051386103c5565b8d80fd5b503d61059a565b8951903d90823e3d90fd5b966001600160a01b036105e26102918a8a88610a16565b1615801561061e575b61060e576106076001916106008a8989610a16565b3590610a50565b970161019f565b885163b4fa3fb360e01b81528a90fd5b5061062a888787610a16565b35156105eb565b86516001621398b960e31b031981528890fd5b8651635531b49560e01b81528890fd5b865163b4fa3fb360e01b81528890fd5b8780fd5b8580fd5b5050346106b557806003193601126106b5578060209261068a610988565b6106926109a3565b6001600160a01b0391821683526002865283832091168252845220549051908152f35b5080fd5b5050346106b557816003193601126106b5576020905160c88152f35b5050346106b557816003193601126106b55760015490516001600160a01b039091168152602090f35b833461075b578060031936011261075b576107176109ea565b600180546001600160a01b0319811690915581906001600160a01b03167f8be0079c531659141344cd1fd0a4f28419497f9722a3daafe3b4186f6b6457e08280a380f35b80fd5b919050346106b557602090816003193601126101285761077c610988565b916107856109ea565b6001600160a01b0392831690816107c857505050818080926001541647908282156107bf575bf1156107b5575080f35b51903d90823e3d90fd5b506108fc6107ab565b919493509160015416928051946370a0823160e01b865230908601528185602481865afa948515610879578695610846575b505163a9059cbb60e01b918101919091526001600160a01b03909216602483015260448201929092526108439161083e82606481015b03601f198101845283610aa5565b610add565b80f35b9450908085813d8311610872575b61085e8183610aa5565b8101031261066857935193906108306107fa565b503d610854565b81513d88823e3d90fd5b5090346101285760209081600319360112610968576108a0610988565b926108a9610a73565b338552600283528185206001600160a01b03851680875290845282862054939084156109585733875260028252838720818852825286848120556108ee858733610b85565b1561093a57505090516001600160a01b0393909316835250602082015233907f6f65559b767bf231652bb6bbc613c03da1500c2af09834b0c638fc41d4b2161690604090a26001815580f35b8692945033835260028252838320925252516313ff771f60e21b8152fd5b835163b4fa3fb360e01b81528390fd5b8380fd5b8490346106b557816003193601126106b5578061c35060209252f35b600435906001600160a01b038216820361099e57565b600080fd5b602435906001600160a01b038216820361099e57565b9181601f8401121561099e5782359167ffffffffffffffff831161099e576020808501948460051b01011161099e57565b6001546001600160a01b031633036109fe57565b60405163118cdaa760e01b8152336004820152602490fd5b9190811015610a265760051b0190565b634e487b7160e01b600052603260045260246000fd5b356001600160a01b038116810361099e5790565b91908201809211610a5d57565b634e487b7160e01b600052601160045260246000fd5b600260005414610a84576002600055565b604051633ee5aeb560e01b8152600490fd5b6000198114610a5d5760010190565b90601f8019910116810190811067ffffffffffffffff821117610ac757604052565b634e487b7160e01b600052604160045260246000fd5b906000602091828151910182855af115610b39576000513d610b3057506001600160a01b0381163b155b610b0e5750565b604051635274afe760e01b81526001600160a01b039091166004820152602490fd5b60011415610b07565b6040513d6000823e3d90fd5b3d15610b80573d9067ffffffffffffffff8211610ac75760405191610b74601f8201601f191660200184610aa5565b82523d6000602084013e565b606090565b906001600160a01b031680610bac57506000808093819361c350f1610ba8610b45565b5090565b60405163a9059cbb60e01b81526001600160a01b039092166004830152602482019290925260208180604481010381600080965af19081610bf6575b50610bf05790565b50600190565b6020813d8211610c25575b81610c0e60209383610aa5565b810103126101285751801515036106b55738610be8565b3d9150610c0156fea2646970667358221220ff00ef0acc20e30a78bc249f139ffef3404c574ca0a91fbb031dab912a42602164736f6c63430008140033","opcodes":"PUSH1 0x80 DUP1 PUSH1 0x40 MSTORE CALLVALUE PUSH2 0x7F JUMPI PUSH1 0x1 PUSH1 0x0 SSTORE CALLER ISZERO PUSH2 0x69 JUMPI PUSH1 0x1 DUP1 SLOAD CALLER PUSH1 0x1 PUSH1 0x1 PUSH1 0xA0 SHL SUB NOT DUP3 AND DUP2 OR SWAP1 SWAP3 SSTORE PUSH1 0x40 MLOAD SWAP2 SWAP1 PUSH1 0x1 PUSH1 0x1 PUSH1 0xA0 SHL SUB AND PUSH32 0x8BE0079C531659141344CD1FD0A4F28419497F9722A3DAAFE3B4186F6B6457E0 PUSH1 0x0 DUP1 LOG3 PUSH2 0xC63 SWAP1 DUP2 PUSH2 0x85 DUP3 CODECOPY RETURN JUMPDEST PUSH4 0x1E4FBDF7 PUSH1 0xE0 SHL DUP2 MSTORE PUSH1 0x0 PUSH1 0x4 DUP3 ADD MSTORE PUSH1 0x24 SWAP1 REVERT JUMPDEST PUSH1 0x0 DUP1 REVERT INVALID PUSH1 0x80 PUSH1 0x40 DUP2 DUP2 MSTORE PUSH1 0x4 DUP1 CALLDATASIZE LT ISZERO PUSH2 0x21 JUMPI JUMPDEST POP POP POP CALLDATASIZE ISZERO PUSH2 0x1F JUMPI PUSH1 0x0 DUP1 REVERT JUMPDEST STOP JUMPDEST PUSH1 0x0 SWAP3 DUP4 CALLDATALOAD PUSH1 0xE0 SHR SWAP1 DUP2 PUSH4 0x91D2788 EQ PUSH2 0x96C JUMPI POP DUP1 PUSH4 0x9AE54BE EQ PUSH2 0x883 JUMPI DUP1 PUSH4 0x1B60F266 EQ PUSH2 0x66C JUMPI DUP4 DUP2 PUSH4 0x6FF1C9BC EQ PUSH2 0x75E JUMPI POP DUP1 PUSH4 0x715018A6 EQ PUSH2 0x6FE JUMPI DUP1 PUSH4 0x8DA5CB5B EQ PUSH2 0x6D5 JUMPI DUP1 PUSH4 0xA6980CE2 EQ PUSH2 0x6B9 JUMPI DUP1 PUSH4 0xE65C31C4 EQ PUSH2 0x66C JUMPI DUP1 PUSH4 0xE886DADE EQ PUSH2 0x12C JUMPI PUSH4 0xF2FDE38B SUB PUSH2 0x11 JUMPI CALLVALUE PUSH2 0x128 JUMPI PUSH1 0x20 CALLDATASIZE PUSH1 0x3 NOT ADD SLT PUSH2 0x128 JUMPI PUSH2 0xB3 PUSH2 0x988 JUMP JUMPDEST SWAP1 PUSH2 0xBC PUSH2 0x9EA JUMP JUMPDEST PUSH1 0x1 PUSH1 0x1 PUSH1 0xA0 SHL SUB SWAP2 DUP3 AND SWAP3 DUP4 ISZERO PUSH2 0x112 JUMPI POP POP PUSH1 0x1 SLOAD DUP3 PUSH12 0xFFFFFFFFFFFFFFFFFFFFFFFF PUSH1 0xA0 SHL DUP3 AND OR PUSH1 0x1 SSTORE AND PUSH32 0x8BE0079C531659141344CD1FD0A4F28419497F9722A3DAAFE3B4186F6B6457E0 DUP4 DUP1 LOG3 DUP1 RETURN JUMPDEST MLOAD PUSH4 0x1E4FBDF7 PUSH1 0xE0 SHL DUP2 MSTORE SWAP1 DUP2 ADD DUP5 SWAP1 MSTORE PUSH1 0x24 SWAP1 REVERT JUMPDEST DUP3 DUP1 REVERT JUMPDEST POP SWAP1 PUSH1 0x60 CALLDATASIZE PUSH1 0x3 NOT ADD SLT PUSH2 0x128 JUMPI PUSH2 0x142 PUSH2 0x988 JUMP JUMPDEST PUSH8 0xFFFFFFFFFFFFFFFF SWAP1 PUSH1 0x24 CALLDATALOAD DUP3 DUP2 GT PUSH2 0x668 JUMPI PUSH2 0x163 SWAP1 CALLDATASIZE SWAP1 DUP7 ADD PUSH2 0x9B9 JUMP JUMPDEST SWAP2 PUSH1 0x44 CALLDATALOAD DUP5 DUP2 GT PUSH2 0x664 JUMPI PUSH2 0x17B SWAP1 CALLDATASIZE SWAP1 DUP9 ADD PUSH2 0x9B9 JUMP JUMPDEST SWAP3 SWAP1 SWAP2 PUSH2 0x186 PUSH2 0xA73 JUMP JUMPDEST DUP5 ISZERO PUSH2 0x654 JUMPI PUSH1 0xC8 DUP6 GT PUSH2 0x644 JUMPI DUP4 DUP6 SUB PUSH2 0x631 JUMPI DUP9 SWAP6 DUP10 JUMPDEST DUP7 DUP2 LT PUSH2 0x5CB JUMPI POP PUSH1 0x1 PUSH1 0x1 PUSH1 0xA0 SHL SUB SWAP2 DUP1 DUP4 AND SWAP2 DUP3 PUSH2 0x387 JUMPI POP POP POP DUP6 CALLVALUE LT PUSH2 0x377 JUMPI SWAP1 SWAP3 DUP9 SWAP5 SWAP4 DUP6 SWAP3 DUP7 SWAP5 DUP8 SWAP4 JUMPDEST DUP8 DUP6 LT PUSH2 0x278 JUMPI POP POP DUP9 MLOAD SWAP6 DUP7 MSTORE POP POP POP PUSH1 0x20 DUP4 ADD DUP6 SWAP1 MSTORE PUSH1 0x40 DUP4 ADD MSTORE PUSH1 0x60 DUP3 ADD MSTORE CALLER SWAP1 PUSH32 0x692E83D8616474B42F4087EE207B152AB184C8C509D2C1EE03FFEBB618F8E100 SWAP1 PUSH1 0x80 SWAP1 LOG3 DUP1 CALLVALUE SUB SWAP1 CALLVALUE DUP3 GT PUSH2 0x265 JUMPI SWAP1 DUP5 SWAP2 CALLVALUE SUB PUSH2 0x23A JUMPI JUMPDEST POP POP POP POP JUMPDEST PUSH1 0x1 DUP2 SSTORE DUP1 RETURN JUMPDEST DUP2 DUP1 DUP1 SWAP3 CALLER PUSH2 0xC350 CALL PUSH2 0x24B PUSH2 0xB45 JUMP JUMPDEST POP ISZERO PUSH2 0x258 JUMPI DUP3 DUP2 PUSH2 0x22E JUMP JUMPDEST MLOAD PUSH4 0x3C312751 PUSH1 0xE2 SHL DUP2 MSTORE REVERT JUMPDEST PUSH4 0x4E487B71 PUSH1 0xE0 SHL DUP6 MSTORE PUSH1 0x11 DUP5 MSTORE PUSH1 0x24 DUP6 REVERT JUMPDEST SWAP2 SWAP4 SWAP6 SWAP7 SWAP8 DUP1 DUP1 DUP1 PUSH2 0x296 PUSH2 0x291 DUP12 DUP15 DUP11 SWAP13 SWAP9 SWAP11 PUSH2 0xA16 JUMP JUMPDEST PUSH2 0xA3C JUMP JUMPDEST PUSH2 0x2A1 DUP12 DUP9 DUP11 PUSH2 0xA16 JUMP JUMPDEST CALLDATALOAD SWAP1 PUSH2 0xC350 CALL PUSH2 0x2AF PUSH2 0xB45 JUMP JUMPDEST POP ISZERO PUSH2 0x2D1 JUMPI PUSH2 0x2C0 PUSH1 0x1 SWAP2 PUSH2 0xA96 JUMP JUMPDEST SWAP6 JUMPDEST ADD SWAP4 SWAP2 DUP12 SWAP8 SWAP7 SWAP6 SWAP5 SWAP4 SWAP2 PUSH2 0x1CF JUMP JUMPDEST SWAP5 SWAP6 PUSH2 0x2DC SWAP1 PUSH2 0xA96 JUMP JUMPDEST SWAP6 DUP12 PUSH2 0x2E9 DUP3 DUP5 DUP7 PUSH2 0xA16 JUMP JUMPDEST CALLDATALOAD DUP6 PUSH2 0x2F6 DUP5 DUP13 DUP11 PUSH2 0xA16 JUMP JUMPDEST PUSH2 0x2FF SWAP1 PUSH2 0xA3C JUMP JUMPDEST AND DUP3 MSTORE PUSH1 0x20 SWAP1 PUSH1 0x2 DUP3 MSTORE DUP13 DUP4 KECCAK256 DUP4 DUP1 MSTORE DUP3 MSTORE DUP13 DUP4 KECCAK256 SWAP1 DUP2 SLOAD SWAP1 PUSH2 0x321 SWAP2 PUSH2 0xA50 JUMP JUMPDEST SWAP1 SSTORE DUP12 DUP7 PUSH2 0x330 DUP6 DUP14 DUP12 PUSH2 0xA16 JUMP JUMPDEST PUSH2 0x339 SWAP1 PUSH2 0xA3C JUMP JUMPDEST PUSH2 0x344 DUP7 DUP9 DUP11 PUSH2 0xA16 JUMP JUMPDEST CALLDATALOAD SWAP3 MLOAD SWAP3 DUP4 MSTORE AND SWAP2 PUSH32 0xBF182BE802245E8ED88E4B8D3E4344C0863DD2A70334F089FD07265389306FCF SWAP2 LOG3 PUSH1 0x1 SWAP1 PUSH2 0x2C2 JUMP JUMPDEST DUP7 MLOAD PUSH4 0x1E9ACF17 PUSH1 0xE3 SHL DUP2 MSTORE DUP9 SWAP1 REVERT JUMPDEST SWAP3 SWAP2 SWAP10 DUP10 SWAP6 SWAP2 SWAP5 SWAP7 SWAP9 SWAP8 SWAP10 MLOAD SWAP4 PUSH4 0x6EB1769F PUSH1 0xE1 SHL DUP6 MSTORE CALLER DUP3 DUP7 ADD MSTORE ADDRESS PUSH1 0x24 DUP7 ADD MSTORE DUP13 DUP6 DUP14 DUP2 PUSH1 0x44 PUSH1 0x20 SWAP10 DUP11 SWAP4 GAS STATICCALL SWAP2 DUP3 ISZERO PUSH2 0x5C0 JUMPI SWAP1 DUP12 SWAP3 PUSH2 0x58B JUMPI JUMPDEST POP LT PUSH2 0x57C JUMPI DUP7 MLOAD PUSH4 0x23B872DD PUSH1 0xE0 SHL DUP7 DUP3 ADD MSTORE CALLER PUSH1 0x24 DUP3 ADD MSTORE ADDRESS PUSH1 0x44 DUP3 ADD MSTORE PUSH1 0x64 DUP1 DUP3 ADD DUP12 SWAP1 MSTORE DUP2 MSTORE SWAP2 PUSH1 0xA0 DUP4 ADD SWAP2 DUP3 GT DUP4 DUP4 LT OR PUSH2 0x569 JUMPI POP DUP7 MSTORE SWAP1 SWAP8 SWAP6 SWAP4 SWAP3 SWAP2 SWAP1 PUSH2 0x413 SWAP1 DUP12 PUSH2 0xADD JUMP JUMPDEST DUP11 SWAP8 DUP12 SWAP7 DUP13 SWAP6 JUMPDEST DUP14 DUP14 DUP14 DUP1 DUP11 LT PUSH2 0x475 JUMPI POP POP SWAP8 MLOAD SWAP12 DUP13 MSTORE POP POP POP POP PUSH1 0x20 DUP9 ADD SWAP6 SWAP1 SWAP6 MSTORE POP POP POP PUSH1 0x40 DUP5 ADD SWAP3 SWAP1 SWAP3 MSTORE POP PUSH1 0x60 DUP3 ADD MSTORE CALLER SWAP1 PUSH32 0x692E83D8616474B42F4087EE207B152AB184C8C509D2C1EE03FFEBB618F8E100 SWAP1 PUSH1 0x80 SWAP1 LOG3 PUSH2 0x233 JUMP JUMPDEST PUSH2 0x4A2 DUP11 SWAP15 SWAP5 SWAP6 SWAP7 SWAP8 SWAP9 SWAP10 SWAP11 DUP12 PUSH2 0x49B PUSH2 0x493 PUSH2 0x291 DUP5 DUP8 DUP13 PUSH2 0xA16 JUMP JUMPDEST SWAP3 DUP11 DUP13 PUSH2 0xA16 JUMP JUMPDEST CALLDATALOAD SWAP2 PUSH2 0xB85 JUMP JUMPDEST ISZERO PUSH2 0x4C3 JUMPI POP POP POP PUSH2 0x4B5 PUSH1 0x1 SWAP2 PUSH2 0xA96 JUMP JUMPDEST SWAP11 JUMPDEST ADD SWAP6 SWAP5 SWAP4 SWAP3 SWAP2 SWAP1 PUSH2 0x41A JUMP JUMPDEST DUP14 PUSH2 0x4D3 SWAP5 SWAP15 SWAP5 DUP11 SWAP4 SWAP5 SWAP14 PUSH2 0xA96 JUMP JUMPDEST SWAP13 DUP13 PUSH2 0x4E0 DUP4 DUP11 DUP13 PUSH2 0xA16 JUMP JUMPDEST CALLDATALOAD SWAP2 DUP12 PUSH2 0x4EE DUP6 DUP8 DUP13 PUSH2 0xA16 JUMP JUMPDEST PUSH2 0x4F7 SWAP1 PUSH2 0xA3C JUMP JUMPDEST AND DUP2 MSTORE PUSH1 0x2 DUP7 MSTORE DUP2 DUP2 KECCAK256 DUP8 DUP3 MSTORE DUP7 MSTORE KECCAK256 SWAP1 DUP2 SLOAD SWAP1 PUSH2 0x514 SWAP2 PUSH2 0xA50 JUMP JUMPDEST SWAP1 SSTORE PUSH2 0x520 SWAP2 DUP7 PUSH2 0xA16 JUMP JUMPDEST PUSH2 0x529 SWAP1 PUSH2 0xA3C JUMP JUMPDEST DUP8 PUSH2 0x535 DUP6 DUP9 DUP11 PUSH2 0xA16 JUMP JUMPDEST CALLDATALOAD SWAP2 DUP13 MLOAD SWAP3 DUP4 MSTORE AND SWAP2 PUSH32 0xBF182BE802245E8ED88E4B8D3E4344C0863DD2A70334F089FD07265389306FCF SWAP2 LOG3 PUSH1 0x1 SWAP1 PUSH2 0x4B7 JUMP JUMPDEST PUSH4 0x4E487B71 PUSH1 0xE0 SHL DUP15 MSTORE PUSH1 0x41 SWAP1 MSTORE PUSH1 0x24 DUP14 REVERT JUMPDEST POP DUP6 MLOAD PUSH4 0x13BE252B PUSH1 0xE0 SHL DUP2 MSTORE REVERT JUMPDEST DUP1 SWAP3 POP DUP8 DUP1 SWAP3 POP RETURNDATASIZE DUP4 GT PUSH2 0x5B9 JUMPI JUMPDEST PUSH2 0x5A4 DUP2 DUP4 PUSH2 0xAA5 JUMP JUMPDEST DUP2 ADD SUB SLT PUSH2 0x5B5 JUMPI DUP10 SWAP1 MLOAD CODESIZE PUSH2 0x3C5 JUMP JUMPDEST DUP14 DUP1 REVERT JUMPDEST POP RETURNDATASIZE PUSH2 0x59A JUMP JUMPDEST DUP10 MLOAD SWAP1 RETURNDATASIZE SWAP1 DUP3 RETURNDATACOPY RETURNDATASIZE SWAP1 REVERT JUMPDEST SWAP7 PUSH1 0x1 PUSH1 0x1 PUSH1 0xA0 SHL SUB PUSH2 0x5E2 PUSH2 0x291 DUP11 DUP11 DUP9 PUSH2 0xA16 JUMP JUMPDEST AND ISZERO DUP1 ISZERO PUSH2 0x61E JUMPI JUMPDEST PUSH2 0x60E JUMPI PUSH2 0x607 PUSH1 0x1 SWAP2 PUSH2 0x600 DUP11 DUP10 DUP10 PUSH2 0xA16 JUMP JUMPDEST CALLDATALOAD SWAP1 PUSH2 0xA50 JUMP JUMPDEST SWAP8 ADD PUSH2 0x19F JUMP JUMPDEST DUP9 MLOAD PUSH4 0xB4FA3FB3 PUSH1 0xE0 SHL DUP2 MSTORE DUP11 SWAP1 REVERT JUMPDEST POP PUSH2 0x62A DUP9 DUP8 DUP8 PUSH2 0xA16 JUMP JUMPDEST CALLDATALOAD ISZERO PUSH2 0x5EB JUMP JUMPDEST DUP7 MLOAD PUSH1 0x1 PUSH3 0x1398B9 PUSH1 0xE3 SHL SUB NOT DUP2 MSTORE DUP9 SWAP1 REVERT JUMPDEST DUP7 MLOAD PUSH4 0x5531B495 PUSH1 0xE0 SHL DUP2 MSTORE DUP9 SWAP1 REVERT JUMPDEST DUP7 MLOAD PUSH4 0xB4FA3FB3 PUSH1 0xE0 SHL DUP2 MSTORE DUP9 SWAP1 REVERT JUMPDEST DUP8 DUP1 REVERT JUMPDEST DUP6 DUP1 REVERT JUMPDEST POP POP CALLVALUE PUSH2 0x6B5 JUMPI DUP1 PUSH1 0x3 NOT CALLDATASIZE ADD SLT PUSH2 0x6B5 JUMPI DUP1 PUSH1 0x20 SWAP3 PUSH2 0x68A PUSH2 0x988 JUMP JUMPDEST PUSH2 0x692 PUSH2 0x9A3 JUMP JUMPDEST PUSH1 0x1 PUSH1 0x1 PUSH1 0xA0 SHL SUB SWAP2 DUP3 AND DUP4 MSTORE PUSH1 0x2 DUP7 MSTORE DUP4 DUP4 KECCAK256 SWAP2 AND DUP3 MSTORE DUP5 MSTORE KECCAK256 SLOAD SWAP1 MLOAD SWAP1 DUP2 MSTORE RETURN JUMPDEST POP DUP1 REVERT JUMPDEST POP POP CALLVALUE PUSH2 0x6B5 JUMPI DUP2 PUSH1 0x3 NOT CALLDATASIZE ADD SLT PUSH2 0x6B5 JUMPI PUSH1 0x20 SWAP1 MLOAD PUSH1 0xC8 DUP2 MSTORE RETURN JUMPDEST POP POP CALLVALUE PUSH2 0x6B5 JUMPI DUP2 PUSH1 0x3 NOT CALLDATASIZE ADD SLT PUSH2 0x6B5 JUMPI PUSH1 0x1 SLOAD SWAP1 MLOAD PUSH1 0x1 PUSH1 0x1 PUSH1 0xA0 SHL SUB SWAP1 SWAP2 AND DUP2 MSTORE PUSH1 0x20 SWAP1 RETURN JUMPDEST DUP4 CALLVALUE PUSH2 0x75B JUMPI DUP1 PUSH1 0x3 NOT CALLDATASIZE ADD SLT PUSH2 0x75B JUMPI PUSH2 0x717 PUSH2 0x9EA JUMP JUMPDEST PUSH1 0x1 DUP1 SLOAD PUSH1 0x1 PUSH1 0x1 PUSH1 0xA0 SHL SUB NOT DUP2 AND SWAP1 SWAP2 SSTORE DUP2 SWAP1 PUSH1 0x1 PUSH1 0x1 PUSH1 0xA0 SHL SUB AND PUSH32 0x8BE0079C531659141344CD1FD0A4F28419497F9722A3DAAFE3B4186F6B6457E0 DUP3 DUP1 LOG3 DUP1 RETURN JUMPDEST DUP1 REVERT JUMPDEST SWAP2 SWAP1 POP CALLVALUE PUSH2 0x6B5 JUMPI PUSH1 0x20 SWAP1 DUP2 PUSH1 0x3 NOT CALLDATASIZE ADD SLT PUSH2 0x128 JUMPI PUSH2 0x77C PUSH2 0x988 JUMP JUMPDEST SWAP2 PUSH2 0x785 PUSH2 0x9EA JUMP JUMPDEST PUSH1 0x1 PUSH1 0x1 PUSH1 0xA0 SHL SUB SWAP3 DUP4 AND SWAP1 DUP2 PUSH2 0x7C8 JUMPI POP POP POP DUP2 DUP1 DUP1 SWAP3 PUSH1 0x1 SLOAD AND SELFBALANCE SWAP1 DUP3 DUP3 ISZERO PUSH2 0x7BF JUMPI JUMPDEST CALL ISZERO PUSH2 0x7B5 JUMPI POP DUP1 RETURN JUMPDEST MLOAD SWAP1 RETURNDATASIZE SWAP1 DUP3 RETURNDATACOPY RETURNDATASIZE SWAP1 REVERT JUMPDEST POP PUSH2 0x8FC PUSH2 0x7AB JUMP JUMPDEST SWAP2 SWAP5 SWAP4 POP SWAP2 PUSH1 0x1 SLOAD AND SWAP3 DUP1 MLOAD SWAP5 PUSH4 0x70A08231 PUSH1 0xE0 SHL DUP7 MSTORE ADDRESS SWAP1 DUP7 ADD MSTORE DUP2 DUP6 PUSH1 0x24 DUP2 DUP7 GAS STATICCALL SWAP5 DUP6 ISZERO PUSH2 0x879 JUMPI DUP7 SWAP6 PUSH2 0x846 JUMPI JUMPDEST POP MLOAD PUSH4 0xA9059CBB PUSH1 0xE0 SHL SWAP2 DUP2 ADD SWAP2 SWAP1 SWAP2 MSTORE PUSH1 0x1 PUSH1 0x1 PUSH1 0xA0 SHL SUB SWAP1 SWAP3 AND PUSH1 0x24 DUP4 ADD MSTORE PUSH1 0x44 DUP3 ADD SWAP3 SWAP1 SWAP3 MSTORE PUSH2 0x843 SWAP2 PUSH2 0x83E DUP3 PUSH1 0x64 DUP2 ADD JUMPDEST SUB PUSH1 0x1F NOT DUP2 ADD DUP5 MSTORE DUP4 PUSH2 0xAA5 JUMP JUMPDEST PUSH2 0xADD JUMP JUMPDEST DUP1 RETURN JUMPDEST SWAP5 POP SWAP1 DUP1 DUP6 DUP2 RETURNDATASIZE DUP4 GT PUSH2 0x872 JUMPI JUMPDEST PUSH2 0x85E DUP2 DUP4 PUSH2 0xAA5 JUMP JUMPDEST DUP2 ADD SUB SLT PUSH2 0x668 JUMPI SWAP4 MLOAD SWAP4 SWAP1 PUSH2 0x830 PUSH2 0x7FA JUMP JUMPDEST POP RETURNDATASIZE PUSH2 0x854 JUMP JUMPDEST DUP2 MLOAD RETURNDATASIZE DUP9 DUP3 RETURNDATACOPY RETURNDATASIZE SWAP1 REVERT JUMPDEST POP SWAP1 CALLVALUE PUSH2 0x128 JUMPI PUSH1 0x20 SWAP1 DUP2 PUSH1 0x3 NOT CALLDATASIZE ADD SLT PUSH2 0x968 JUMPI PUSH2 0x8A0 PUSH2 0x988 JUMP JUMPDEST SWAP3 PUSH2 0x8A9 PUSH2 0xA73 JUMP JUMPDEST CALLER DUP6 MSTORE PUSH1 0x2 DUP4 MSTORE DUP2 DUP6 KECCAK256 PUSH1 0x1 PUSH1 0x1 PUSH1 0xA0 SHL SUB DUP6 AND DUP1 DUP8 MSTORE SWAP1 DUP5 MSTORE DUP3 DUP7 KECCAK256 SLOAD SWAP4 SWAP1 DUP5 ISZERO PUSH2 0x958 JUMPI CALLER DUP8 MSTORE PUSH1 0x2 DUP3 MSTORE DUP4 DUP8 KECCAK256 DUP2 DUP9 MSTORE DUP3 MSTORE DUP7 DUP5 DUP2 KECCAK256 SSTORE PUSH2 0x8EE DUP6 DUP8 CALLER PUSH2 0xB85 JUMP JUMPDEST ISZERO PUSH2 0x93A JUMPI POP POP SWAP1 MLOAD PUSH1 0x1 PUSH1 0x1 PUSH1 0xA0 SHL SUB SWAP4 SWAP1 SWAP4 AND DUP4 MSTORE POP PUSH1 0x20 DUP3 ADD MSTORE CALLER SWAP1 PUSH32 0x6F65559B767BF231652BB6BBC613C03DA1500C2AF09834B0C638FC41D4B21616 SWAP1 PUSH1 0x40 SWAP1 LOG2 PUSH1 0x1 DUP2 SSTORE DUP1 RETURN JUMPDEST DUP7 SWAP3 SWAP5 POP CALLER DUP4 MSTORE PUSH1 0x2 DUP3 MSTORE DUP4 DUP4 KECCAK256 SWAP3 MSTORE MSTORE MLOAD PUSH4 0x13FF771F PUSH1 0xE2 SHL DUP2 MSTORE REVERT JUMPDEST DUP4 MLOAD PUSH4 0xB4FA3FB3 PUSH1 0xE0 SHL DUP2 MSTORE DUP4 SWAP1 REVERT JUMPDEST DUP4 DUP1 REVERT JUMPDEST DUP5 SWAP1 CALLVALUE PUSH2 0x6B5 JUMPI DUP2 PUSH1 0x3 NOT CALLDATASIZE ADD SLT PUSH2 0x6B5 JUMPI DUP1 PUSH2 0xC350 PUSH1 0x20 SWAP3 MSTORE RETURN JUMPDEST PUSH1 0x4 CALLDATALOAD SWAP1 PUSH1 0x1 PUSH1 0x1 PUSH1 0xA0 SHL SUB DUP3 AND DUP3 SUB PUSH2 0x99E JUMPI JUMP JUMPDEST PUSH1 0x0 DUP1 REVERT JUMPDEST PUSH1 0x24 CALLDATALOAD SWAP1 PUSH1 0x1 PUSH1 0x1 PUSH1 0xA0 SHL SUB DUP3 AND DUP3 SUB PUSH2 0x99E JUMPI JUMP JUMPDEST SWAP2 DUP2 PUSH1 0x1F DUP5 ADD SLT ISZERO PUSH2 0x99E JUMPI DUP3 CALLDATALOAD SWAP2 PUSH8 0xFFFFFFFFFFFFFFFF DUP4 GT PUSH2 0x99E JUMPI PUSH1 0x20 DUP1 DUP6 ADD SWAP5 DUP5 PUSH1 0x5 SHL ADD ADD GT PUSH2 0x99E JUMPI JUMP JUMPDEST PUSH1 0x1 SLOAD PUSH1 0x1 PUSH1 0x1 PUSH1 0xA0 SHL SUB AND CALLER SUB PUSH2 0x9FE JUMPI JUMP JUMPDEST PUSH1 0x40 MLOAD PUSH4 0x118CDAA7 PUSH1 0xE0 SHL DUP2 MSTORE CALLER PUSH1 0x4 DUP3 ADD MSTORE PUSH1 0x24 SWAP1 REVERT JUMPDEST SWAP2 SWAP1 DUP2 LT ISZERO PUSH2 0xA26 JUMPI PUSH1 0x5 SHL ADD SWAP1 JUMP JUMPDEST PUSH4 0x4E487B71 PUSH1 0xE0 SHL PUSH1 0x0 MSTORE PUSH1 0x32 PUSH1 0x4 MSTORE PUSH1 0x24 PUSH1 0x0 REVERT JUMPDEST CALLDATALOAD PUSH1 0x1 PUSH1 0x1 PUSH1 0xA0 SHL SUB DUP2 AND DUP2 SUB PUSH2 0x99E JUMPI SWAP1 JUMP JUMPDEST SWAP2 SWAP1 DUP3 ADD DUP1 SWAP3 GT PUSH2 0xA5D JUMPI JUMP JUMPDEST PUSH4 0x4E487B71 PUSH1 0xE0 SHL PUSH1 0x0 MSTORE PUSH1 0x11 PUSH1 0x4 MSTORE PUSH1 0x24 PUSH1 0x0 REVERT JUMPDEST PUSH1 0x2 PUSH1 0x0 SLOAD EQ PUSH2 0xA84 JUMPI PUSH1 0x2 PUSH1 0x0 SSTORE JUMP JUMPDEST PUSH1 0x40 MLOAD PUSH4 0x3EE5AEB5 PUSH1 0xE0 SHL DUP2 MSTORE PUSH1 0x4 SWAP1 REVERT JUMPDEST PUSH1 0x0 NOT DUP2 EQ PUSH2 0xA5D JUMPI PUSH1 0x1 ADD SWAP1 JUMP JUMPDEST SWAP1 PUSH1 0x1F DUP1 NOT SWAP2 ADD AND DUP2 ADD SWAP1 DUP2 LT PUSH8 0xFFFFFFFFFFFFFFFF DUP3 GT OR PUSH2 0xAC7 JUMPI PUSH1 0x40 MSTORE JUMP JUMPDEST PUSH4 0x4E487B71 PUSH1 0xE0 SHL PUSH1 0x0 MSTORE PUSH1 0x41 PUSH1 0x4 MSTORE PUSH1 0x24 PUSH1 0x0 REVERT JUMPDEST SWAP1 PUSH1 0x0 PUSH1 0x20 SWAP2 DUP3 DUP2 MLOAD SWAP2 ADD DUP3 DUP6 GAS CALL ISZERO PUSH2 0xB39 JUMPI PUSH1 0x0 MLOAD RETURNDATASIZE PUSH2 0xB30 JUMPI POP PUSH1 0x1 PUSH1 0x1 PUSH1 0xA0 SHL SUB DUP2 AND EXTCODESIZE ISZERO JUMPDEST PUSH2 0xB0E JUMPI POP JUMP JUMPDEST PUSH1 0x40 MLOAD PUSH4 0x5274AFE7 PUSH1 0xE0 SHL DUP2 MSTORE PUSH1 0x1 PUSH1 0x1 PUSH1 0xA0 SHL SUB SWAP1 SWAP2 AND PUSH1 0x4 DUP3 ADD MSTORE PUSH1 0x24 SWAP1 REVERT JUMPDEST PUSH1 0x1 EQ ISZERO PUSH2 0xB07 JUMP JUMPDEST PUSH1 0x40 MLOAD RETURNDATASIZE PUSH1 0x0 DUP3 RETURNDATACOPY RETURNDATASIZE SWAP1 REVERT JUMPDEST RETURNDATASIZE ISZERO PUSH2 0xB80 JUMPI RETURNDATASIZE SWAP1 PUSH8 0xFFFFFFFFFFFFFFFF DUP3 GT PUSH2 0xAC7 JUMPI PUSH1 0x40 MLOAD SWAP2 PUSH2 0xB74 PUSH1 0x1F DUP3 ADD PUSH1 0x1F NOT AND PUSH1 0x20 ADD DUP5 PUSH2 0xAA5 JUMP JUMPDEST DUP3 MSTORE RETURNDATASIZE PUSH1 0x0 PUSH1 0x20 DUP5 ADD RETURNDATACOPY JUMP JUMPDEST PUSH1 0x60 SWAP1 JUMP JUMPDEST SWAP1 PUSH1 0x1 PUSH1 0x1 PUSH1 0xA0 SHL SUB AND DUP1 PUSH2 0xBAC JUMPI POP PUSH1 0x0 DUP1 DUP1 SWAP4 DUP2 SWAP4 PUSH2 0xC350 CALL PUSH2 0xBA8 PUSH2 0xB45 JUMP JUMPDEST POP SWAP1 JUMP JUMPDEST PUSH1 0x40 MLOAD PUSH4 0xA9059CBB PUSH1 0xE0 SHL DUP2 MSTORE PUSH1 0x1 PUSH1 0x1 PUSH1 0xA0 SHL SUB SWAP1 SWAP3 AND PUSH1 0x4 DUP4 ADD MSTORE PUSH1 0x24 DUP3 ADD SWAP3 SWAP1 SWAP3 MSTORE PUSH1 0x20 DUP2 DUP1 PUSH1 0x44 DUP2 ADD SUB DUP2 PUSH1 0x0 DUP1 SWAP7 GAS CALL SWAP1 DUP2 PUSH2 0xBF6 JUMPI JUMPDEST POP PUSH2 0xBF0 JUMPI SWAP1 JUMP JUMPDEST POP PUSH1 0x1 SWAP1 JUMP JUMPDEST PUSH1 0x20 DUP2 RETURNDATASIZE DUP3 GT PUSH2 0xC25 JUMPI JUMPDEST DUP2 PUSH2 0xC0E PUSH1 0x20 SWAP4 DUP4 PUSH2 0xAA5 JUMP JUMPDEST DUP2 ADD SUB SLT PUSH2 0x128 JUMPI MLOAD DUP1 ISZERO ISZERO SUB PUSH2 0x6B5 JUMPI CODESIZE PUSH2 0xBE8 JUMP JUMPDEST RETURNDATASIZE SWAP2 POP PUSH2 0xC01 JUMP INVALID LOG2 PUSH5 0x6970667358 0x22 SLT KECCAK256 SELFDESTRUCT STOP 0xEF EXP 0xCC KECCAK256 0xE3 EXP PUSH25 0xBC249F139FFEF3404C574CA0A91FBB031DAB912A4260216473 PUSH16 0x6C634300081400330000000000000000 "},"methodIdentifiers":{"GAS_LIMIT()":"091d2788","MAX_RECIPIENTS()":"a6980ce2","bulkTransfer(address,address[],uint256[])":"e886dade","claimFailedTransfer(address)":"09ae54be","emergencyWithdraw(address)":"6ff1c9bc","failedTransfers(address,address)":"1b60f266","getFailedAmount(address,address)":"e65c31c4","owner()":"8da5cb5b","renounceOwnership()":"715018a6","transferOwnership(address)":"f2fde38b"}}}}}