{"contracts/InvoiceSubscription.sol":{"InvoiceSubscription":{"abi":[{"inputs":[],"stateMutability":"nonpayable","type":"constructor"},{"inputs":[],"name":"ECDSAInvalidSignature","type":"error"},{"inputs":[{"internalType":"uint256","name":"length","type":"uint256"}],"name":"ECDSAInvalidSignatureLength","type":"error"},{"inputs":[{"internalType":"bytes32","name":"s","type":"bytes32"}],"name":"ECDSAInvalidSignatureS","type":"error"},{"inputs":[],"name":"EnforcedPause","type":"error"},{"inputs":[],"name":"ExpectedPause","type":"error"},{"inputs":[],"name":"InvalidAmount","type":"error"},{"inputs":[],"name":"InvalidConsent","type":"error"},{"inputs":[],"name":"InvalidInvoice","type":"error"},{"inputs":[],"name":"InvalidShortString","type":"error"},{"inputs":[],"name":"InvalidSignature","type":"error"},{"inputs":[],"name":"InvoiceAlreadyReleased","type":"error"},{"inputs":[],"name":"InvoiceExpired","type":"error"},{"inputs":[],"name":"InvoiceNotExpired","type":"error"},{"inputs":[],"name":"NoContribution","type":"error"},{"inputs":[],"name":"NonceUsed","type":"error"},{"inputs":[{"internalType":"address","name":"owner","type":"address"}],"name":"OwnableInvalidOwner","type":"error"},{"inputs":[{"internalType":"address","name":"account","type":"address"}],"name":"OwnableUnauthorizedAccount","type":"error"},{"inputs":[],"name":"ReentrancyGuardReentrantCall","type":"error"},{"inputs":[{"internalType":"address","name":"token","type":"address"}],"name":"SafeERC20FailedOperation","type":"error"},{"inputs":[{"internalType":"string","name":"str","type":"string"}],"name":"StringTooLong","type":"error"},{"inputs":[],"name":"SubscriptionExpired","type":"error"},{"inputs":[],"name":"SubscriptionNotDue","type":"error"},{"inputs":[],"name":"TransferFailed","type":"error"},{"anonymous":false,"inputs":[{"indexed":true,"internalType":"bytes32","name":"invoiceId","type":"bytes32"},{"indexed":false,"internalType":"uint256","name":"timestamp","type":"uint256"}],"name":"AutomationTriggered","type":"event"},{"anonymous":false,"inputs":[],"name":"EIP712DomainChanged","type":"event"},{"anonymous":false,"inputs":[{"indexed":true,"internalType":"bytes32","name":"invoiceId","type":"bytes32"},{"indexed":true,"internalType":"address","name":"seller","type":"address"},{"indexed":false,"internalType":"uint256","name":"invoiceAmount","type":"uint256"},{"indexed":false,"internalType":"address","name":"token","type":"address"},{"indexed":false,"internalType":"uint256","name":"deadline","type":"uint256"}],"name":"InvoiceCreated","type":"event"},{"anonymous":false,"inputs":[{"indexed":true,"internalType":"bytes32","name":"invoiceId","type":"bytes32"},{"indexed":true,"internalType":"address","name":"contributor","type":"address"},{"indexed":false,"internalType":"uint256","name":"amount","type":"uint256"},{"indexed":false,"internalType":"uint256","name":"totalContributed","type":"uint256"}],"name":"InvoiceFunded","type":"event"},{"anonymous":false,"inputs":[{"indexed":true,"internalType":"bytes32","name":"invoiceId","type":"bytes32"},{"indexed":true,"internalType":"address","name":"contributor","type":"address"},{"indexed":false,"internalType":"uint256","name":"amount","type":"uint256"}],"name":"InvoiceRefunded","type":"event"},{"anonymous":false,"inputs":[{"indexed":true,"internalType":"bytes32","name":"invoiceId","type":"bytes32"},{"indexed":true,"internalType":"address","name":"seller","type":"address"},{"indexed":false,"internalType":"uint256","name":"amount","type":"uint256"}],"name":"InvoiceReleased","type":"event"},{"anonymous":false,"inputs":[{"indexed":true,"internalType":"address","name":"previousOwner","type":"address"},{"indexed":true,"internalType":"address","name":"newOwner","type":"address"}],"name":"OwnershipTransferred","type":"event"},{"anonymous":false,"inputs":[{"indexed":false,"internalType":"address","name":"account","type":"address"}],"name":"Paused","type":"event"},{"anonymous":false,"inputs":[{"indexed":true,"internalType":"bytes32","name":"subscriptionKey","type":"bytes32"},{"indexed":true,"internalType":"address","name":"buyer","type":"address"},{"indexed":true,"internalType":"address","name":"seller","type":"address"},{"indexed":false,"internalType":"uint256","name":"amountPerInterval","type":"uint256"},{"indexed":false,"internalType":"uint256","name":"intervalSeconds","type":"uint256"}],"name":"SubscriptionCreated","type":"event"},{"anonymous":false,"inputs":[{"indexed":true,"internalType":"bytes32","name":"subscriptionKey","type":"bytes32"},{"indexed":true,"internalType":"address","name":"buyer","type":"address"},{"indexed":true,"internalType":"address","name":"seller","type":"address"},{"indexed":false,"internalType":"uint256","name":"amount","type":"uint256"},{"indexed":false,"internalType":"uint256","name":"nextDue","type":"uint256"}],"name":"SubscriptionPayment","type":"event"},{"anonymous":false,"inputs":[{"indexed":false,"internalType":"address","name":"account","type":"address"}],"name":"Unpaused","type":"event"},{"inputs":[],"name":"SUBSCRIPTION_CONSENT_TYPEHASH","outputs":[{"internalType":"bytes32","name":"","type":"bytes32"}],"stateMutability":"view","type":"function"},{"inputs":[{"internalType":"uint256","name":"","type":"uint256"}],"name":"allInvoiceIds","outputs":[{"internalType":"bytes32","name":"","type":"bytes32"}],"stateMutability":"view","type":"function"},{"inputs":[{"internalType":"bytes","name":"checkData","type":"bytes"}],"name":"checkUpkeep","outputs":[{"internalType":"bool","name":"upkeepNeeded","type":"bool"},{"internalType":"bytes","name":"performData","type":"bytes"}],"stateMutability":"view","type":"function"},{"inputs":[{"internalType":"address","name":"seller","type":"address"},{"internalType":"uint256","name":"invoiceAmount","type":"uint256"},{"internalType":"address","name":"token","type":"address"},{"internalType":"uint256","name":"deadline","type":"uint256"}],"name":"createInvoice","outputs":[{"internalType":"bytes32","name":"invoiceId","type":"bytes32"}],"stateMutability":"nonpayable","type":"function"},{"inputs":[{"components":[{"internalType":"address","name":"buyer","type":"address"},{"internalType":"address","name":"seller","type":"address"},{"internalType":"address","name":"token","type":"address"},{"internalType":"uint256","name":"amountPerInterval","type":"uint256"},{"internalType":"uint256","name":"intervalSeconds","type":"uint256"},{"internalType":"uint256","name":"startTimestamp","type":"uint256"},{"internalType":"uint256","name":"endTimestamp","type":"uint256"},{"internalType":"uint256","name":"nonce","type":"uint256"}],"internalType":"struct InvoiceSubscription.SubscriptionConsent","name":"consent","type":"tuple"},{"internalType":"bytes","name":"signature","type":"bytes"}],"name":"createSubscriptionWithConsent","outputs":[],"stateMutability":"nonpayable","type":"function"},{"inputs":[],"name":"eip712Domain","outputs":[{"internalType":"bytes1","name":"fields","type":"bytes1"},{"internalType":"string","name":"name","type":"string"},{"internalType":"string","name":"version","type":"string"},{"internalType":"uint256","name":"chainId","type":"uint256"},{"internalType":"address","name":"verifyingContract","type":"address"},{"internalType":"bytes32","name":"salt","type":"bytes32"},{"internalType":"uint256[]","name":"extensions","type":"uint256[]"}],"stateMutability":"view","type":"function"},{"inputs":[{"internalType":"bytes32","name":"invoiceId","type":"bytes32"}],"name":"fundInvoice","outputs":[],"stateMutability":"payable","type":"function"},{"inputs":[{"internalType":"bytes32","name":"invoiceId","type":"bytes32"},{"internalType":"address","name":"contributor","type":"address"}],"name":"getContribution","outputs":[{"internalType":"uint256","name":"","type":"uint256"}],"stateMutability":"view","type":"function"},{"inputs":[{"internalType":"bytes32","name":"invoiceId","type":"bytes32"}],"name":"getInvoice","outputs":[{"internalType":"address","name":"seller","type":"address"},{"internalType":"uint256","name":"invoiceAmount","type":"uint256"},{"internalType":"address","name":"token","type":"address"},{"internalType":"uint256","name":"deadline","type":"uint256"},{"internalType":"uint256","name":"totalContributed","type":"uint256"},{"internalType":"bool","name":"released","type":"bool"},{"internalType":"bool","name":"refunded","type":"bool"}],"stateMutability":"view","type":"function"},{"inputs":[{"internalType":"uint256","name":"index","type":"uint256"}],"name":"getInvoiceIdAtIndex","outputs":[{"internalType":"bytes32","name":"","type":"bytes32"}],"stateMutability":"view","type":"function"},{"inputs":[],"name":"getTotalInvoiceCount","outputs":[{"internalType":"uint256","name":"","type":"uint256"}],"stateMutability":"view","type":"function"},{"inputs":[{"internalType":"bytes32","name":"","type":"bytes32"}],"name":"invoiceTracked","outputs":[{"internalType":"bool","name":"","type":"bool"}],"stateMutability":"view","type":"function"},{"inputs":[{"internalType":"bytes32","name":"","type":"bytes32"}],"name":"invoices","outputs":[{"internalType":"address","name":"seller","type":"address"},{"internalType":"uint256","name":"invoiceAmount","type":"uint256"},{"internalType":"address","name":"token","type":"address"},{"internalType":"uint256","name":"deadline","type":"uint256"},{"internalType":"uint256","name":"totalContributed","type":"uint256"},{"internalType":"bool","name":"released","type":"bool"},{"internalType":"bool","name":"refunded","type":"bool"}],"stateMutability":"view","type":"function"},{"inputs":[],"name":"owner","outputs":[{"internalType":"address","name":"","type":"address"}],"stateMutability":"view","type":"function"},{"inputs":[],"name":"pause","outputs":[],"stateMutability":"nonpayable","type":"function"},{"inputs":[],"name":"paused","outputs":[{"internalType":"bool","name":"","type":"bool"}],"stateMutability":"view","type":"function"},{"inputs":[{"internalType":"bytes","name":"performData","type":"bytes"}],"name":"performUpkeep","outputs":[],"stateMutability":"nonpayable","type":"function"},{"inputs":[{"internalType":"bytes32","name":"subscriptionKey","type":"bytes32"}],"name":"pullSubscriptionPayment","outputs":[],"stateMutability":"payable","type":"function"},{"inputs":[],"name":"renounceOwnership","outputs":[],"stateMutability":"nonpayable","type":"function"},{"inputs":[{"internalType":"bytes32","name":"invoiceId","type":"bytes32"}],"name":"requestRefund","outputs":[],"stateMutability":"nonpayable","type":"function"},{"inputs":[{"internalType":"bytes32","name":"","type":"bytes32"}],"name":"subscriptions","outputs":[{"internalType":"address","name":"buyer","type":"address"},{"internalType":"address","name":"seller","type":"address"},{"internalType":"address","name":"token","type":"address"},{"internalType":"uint256","name":"amountPerInterval","type":"uint256"},{"internalType":"uint256","name":"intervalSeconds","type":"uint256"},{"internalType":"uint256","name":"nextDue","type":"uint256"},{"internalType":"uint256","name":"endTimestamp","type":"uint256"},{"internalType":"bool","name":"active","type":"bool"},{"internalType":"uint256","name":"totalPaid","type":"uint256"}],"stateMutability":"view","type":"function"},{"inputs":[{"internalType":"address","name":"newOwner","type":"address"}],"name":"transferOwnership","outputs":[],"stateMutability":"nonpayable","type":"function"},{"inputs":[],"name":"unpause","outputs":[],"stateMutability":"nonpayable","type":"function"},{"inputs":[{"internalType":"address","name":"","type":"address"},{"internalType":"uint256","name":"","type":"uint256"}],"name":"usedNonces","outputs":[{"internalType":"bool","name":"","type":"bool"}],"stateMutability":"view","type":"function"}],"evm":{"bytecode":{"linkReferences":{},"object":"61016060409080825234620001c8576200001981620001cd565b6013815260208101907f496e766f696365537562736372697074696f6e0000000000000000000000000082528251916200005383620001cd565b600183526020830192603160f81b8452600093600185553315620001b05760018054336001600160a01b0319821681179092556001600160a01b03167f8be0079c531659141344cd1fd0a4f28419497f9722a3daafe3b4186f6b6457e08780a3620000be84620001ff565b92610120938452620000d083620003dc565b94610140958652519020918260e052519020610100958187524660a05280519160208301937f8b73c3c69bb8fe3d512ecc4cf759cc79239f7b179b0ffacaa9a75d522b39400f85528284015260608301524660808301523060a083015260a0825260c082019582871060018060401b038811176200019c57508590525190206080523060c052611eb8938462000592853960805184611be1015260a05184611c9c015260c05184611bab015260e05184611c3001525183611c56015251826106b3015251816106dc0152f35b634e487b7160e01b81526041600452602490fd5b8551631e4fbdf760e01b815260048101869052602490fd5b600080fd5b604081019081106001600160401b03821117620001e957604052565b634e487b7160e01b600052604160045260246000fd5b8051602090818110156200029c5750601f8251116200023b57808251920151908083106200022c57501790565b82600019910360031b1b161790565b90604051809263305a27a960e01b82528060048301528251908160248401526000935b82851062000282575050604492506000838284010152601f80199101168101030190fd5b84810182015186860160440152938101938593506200025e565b906001600160401b038211620001e957600254926001938481811c91168015620003d1575b83821014620003bb57601f811162000381575b5081601f841160011462000315575092829391839260009462000309575b50501b916000199060031b1c19161760025560ff90565b015192503880620002f2565b919083601f198116600260005284600020946000905b888383106200036657505050106200034c575b505050811b0160025560ff90565b015160001960f88460031b161c191690553880806200033e565b8587015188559096019594850194879350908101906200032b565b600260005284601f84600020920160051c820191601f860160051c015b828110620003ae575050620002d4565b600081550185906200039e565b634e487b7160e01b600052602260045260246000fd5b90607f1690620002c1565b805160209190828110156200046c575090601f8251116200040b57808251920151908083106200022c57501790565b90604051809263305a27a960e01b82528060048301528251908160248401526000935b82851062000452575050604492506000838284010152601f80199101168101030190fd5b84810182015186860160440152938101938593506200042e565b6001600160401b038111620001e9576003928354926001938481811c9116801562000586575b83821014620003bb57601f81116200054d575b5081601f8411600114620004e45750928293918392600094620004d8575b50501b9160001990841b1c191617905560ff90565b015192503880620004c3565b919083601f1981168760005284600020946000905b8883831062000532575050501062000519575b505050811b01905560ff90565b015160001983861b60f8161c191690553880806200050c565b858701518855909601959485019487935090810190620004f9565b8560005284601f84600020920160051c820191601f860160051c015b82811062000579575050620004a5565b6000815501859062000569565b90607f16906200049256fe608060408181526004918236101561001657600080fd5b600090813560e01c90816329433dea146114f1575080633d478ba9146111c65780633f4ba83a1461115657806341508efa14610f7957806342f144be14610f4c5780634585e33b14610de15780634dd9d95514610c145780635c975abb14610bed5780636693643f14610ba15780636a8a689414610b5a5780636e04ff0d1461099e578063715018a614610941578063775274a1146107f15780638456cb591461079057806384b0196e1461069b5780638da5cb5b1461067257806394259c6c146105df578063cb802c8b1461055a578063dc93ed781461051b578063dedc0b04146104b4578063e739d90d1461047b578063e9c9bd9914610246578063f2fde38b146101b75763f8a8a0761461012c57600080fd5b346101b45760203660031901126101b4578235815260208381529082902080546001820154600283015460038401549684015460059094015495516001600160a01b039384168152948501919091521660408301526060820193909352608081019290925260ff808216151560a084015260089190911c16151560c082015260e090f35b0390f35b80fd5b509134610242576020366003190112610242576101d2611540565b906101db6115e3565b6001600160a01b0391821692831561022c575050600154826001600160601b0360a01b821617600155167f8be0079c531659141344cd1fd0a4f28419497f9722a3daafe3b4186f6b6457e08380a380f35b51631e4fbdf760e01b8152908101849052602490fd5b8280fd5b5090602080600319360112610242578335916102606119f2565b6102686118eb565b82845284825280842080549091906001600160a01b039081161561046b57600583015460ff811690811561045d575b5061044d576003830154421161043d57600283015416806103be575034905b81156103af5760068301338752808552818720541561034d575b8596979160019596927f86823b9f3f8a793cb18f1212a5fe5661d166ffe64228e2e3c43dc38959fba8dc92338b528852818a2061030e86825461190c565b9055850161031d85825461190c565b978880925582519586528501523393a30154111561033e575b506001815580f35b61034790611d30565b38610336565b60078401805490600160401b82101561039c57600182018082558210156103895788528588200180546001600160a01b031916331790556102d0565b634e487b7160e01b895260328a52602489fd5b634e487b7160e01b895260418a52602489fd5b5163162908e360e11b81528690fd5b908051636eb1769f60e11b815233888201523060248201528481604481865afa8015610433578790610400575b6103fb915080933090339061192f565b6102b6565b508481813d831161042c575b6104168183611695565b81010312610428576103fb90516103eb565b8680fd5b503d61040c565b82513d89823e3d90fd5b8151630f04e9cf60e41b81528790fd5b815163087f421960e41b81528790fd5b60ff915060081c1638610297565b81516349ff0c8f60e11b81528790fd5b5091346102425760203660031901126102425735916007548310156101b457506104a6602092611596565b91905490519160031b1c8152f35b508290346101b45760203660031901126101b457508035906007548210156104e2576020836104a684611596565b606490602084519162461bcd60e51b83528201526013602482015272496e646578206f7574206f6620626f756e647360681b6044820152fd5b509034610556578160031936011261055657602090517f3bf6a96bd439aeccfa0ae079debeafbd20876716bd2e43b00c4f4b95712102818152f35b5080fd5b50346101b45760203660031901126101b4578235815260208381529082902080546001820154600283015460038401549684015460059094015495516001600160a01b039384168152948501919091521660408301526060820193909352608081019290925260ff808216151560a084015260089190911c16151560c082015260e090f35b509190346102425760203660031901126102425780610120938335815260066020522060018060a01b0391828254169383600184015416936002840154169060038401549084015490600585015492600686015494600860ff600789015416970154978151998a5260208a01528801526060870152608086015260a085015260c0840152151560e0830152610100820152f35b50903461055657816003193601126105565760015490516001600160a01b039091168152602090f35b509034610556578160031936011261055657906106d77f00000000000000000000000000000000000000000000000000000000000000006116cf565b6107007f00000000000000000000000000000000000000000000000000000000000000006117f9565b9183519161070d8361165d565b8183526107428551958695600f60f81b875261073560209460e0868a015260e0890190611556565b9187830390880152611556565b904660608601523060808601528260a086015284820360c08601528080855193848152019401925b82811061077957505050500390f35b83518552869550938101939281019260010161076a565b50903461055657816003193601126105565760207f62e78cea01bee320cd4e420270b5ea74000d11b0c9f74754ebdbfc544b05a258916107ce6115e3565b6107d66118eb565b6001805460ff60a01b1916600160a01b17905551338152a180f35b50919034610242576020366003190112610242578135906108106119f2565b818452826020528084209260018060a01b038085541615610932576005850194855460ff8116908115610924575b5061091457600381015442111561090457600681019533885286602052848820549687156108f457338952602052848820889055805461ff00191661010017905560020154859116806108e357508580808093335af161089c611cc2565b50156108d557505b519182527fef652412e5d49b8285c2154153b00be5e175328caf6225b8a37db5712fb62a1a60203393a36001815580f35b90516312171d8360e31b8152fd5b6108ef92503390611cf2565b6108a4565b8551631971fbf360e21b81528590fd5b83516330f53a1f60e01b81528390fd5b835163087f421960e41b81528390fd5b60ff915060081c163861083e565b5090516349ff0c8f60e11b8152fd5b50346101b457806003193601126101b45761095a6115e3565b600180546001600160a01b0319811690915581906001600160a01b03167f8be0079c531659141344cd1fd0a4f28419497f9722a3daafe3b4186f6b6457e08280a380f35b5091903461024257602092836003193601126101b457823567ffffffffffffffff8111610556576109d2903690850161150d565b50506007546109e081611e2d565b908294835b828110610abf57505084159050610aa3576001918294610a0481611e2d565b92825b828110610a79575050508351928484018780860152835180915287606086019401925b88828210610a6657505050505090610a4f816101b0949303601f198101835282611695565b905b80805195869515158652850152830190611556565b8451865294850194909301928201610a2a565b80610a8a610a9b9284989698611e6e565b51610a958288611e6e565b52611e5f565b949294610a07565b5091506101b09082815190610ab78261165d565b815290610a51565b610ac881611596565b9054600391821b1c90818752838a528787209060058201549160ff808416159384610b4c575b505082610b3a575b82610b2c575b5050610b12575b50610b0d90611e5f565b6109e5565b87610b2591610a95610b0d949a88611e6e565b9690610b03565b015442111590503880610afc565b85810154600182015411159250610af6565b60081c161592503880610aee565b50903461055657806003193601126105565760209160ff9082906001600160a01b03610b84611540565b168152600585528181206024358252855220541690519015158152f35b5091346102425781600319360112610242576024356001600160a01b0381169190829003610be957928291846020953583528552600683832001908252845220549051908152f35b8380fd5b50903461055657816003193601126105565760209060ff60015460a01c1690519015158152f35b50903461055657608036600319011261055657610c2f611540565b92604435906024356001600160a01b038084168085036104285760643591610c556118eb565b88169485158015610dd9575b610dc95742831115610dc95786516020998a8201926001600160601b0319809260601b16845286603484015260601b16605482015283606882015242608882015260888152610caf81611641565b519020968794858252808a528360038984206001600160601b0360a01b8a81835416178255886001830155866002830191825416179055015560088a5260ff888320541615610d34575b5050855192835287830152818501527f8f26321c4618ec8c97913b89682571e04749f4b1788dba40abd70fdcee9a600590606090a351908152f35b90919293945060075490600160401b821015610db657509260609287899693610d848760017f8f26321c4618ec8c97913b89682571e04749f4b1788dba40abd70fdcee9a60059901600755611596565b81549060031b908a821b91600019901b191617905587815260088c5220600160ff198254161790559193819350610cf9565b634e487b7160e01b835260419052602482fd5b86516349ff0c8f60e11b81528590fd5b508315610c61565b50346101b457602091826003193601126105565767ffffffffffffffff928435848111610be957610e15903690870161150d565b81959101948281870312610f48578035918211610f4857019484601f87011215610be957853594610e45866116b7565b96610e5285519889611695565b8688528388019084600598891b8201019283116104285784809101915b838310610f385750505050835b8651811015610f345780610e93610ec99289611e6e565b51808752838552858720888101549060ff808316159283610f26575b505081610f14575b81610f05575b50610ece575b50611e5f565b610e7c565b610ed781611d30565b7f1295fc1476ea13733f3084effff7a9178daf713e97031b21ed33bf8f4e71a452858751428152a238610ec3565b60039150015442111538610ebd565b85810154600182015411159150610eb7565b60081c161591503880610eaf565b8480f35b8235815291810191859101610e6f565b8480fd5b509134610242576020366003190112610242578160209360ff923581526008855220541690519015158152f35b5091906020366003190112610242578135610f926119f2565b610f9a6118eb565b80845260066020528184209160ff6007840154161561114757600683015442116111385760058301938454421061112a5760028401546001600160a01b0391908216806110e357506003850180548034106110d35788808080938760018c0154165af1611005611cc2565b50156110c4575480341161107e575b50906110477f3c383309b20dfae2b367289760fd90de73b4fce8f3a3667600a9a66b6adef5bc93925b860154875461190c565b8096556003850154906008860161105f83825461190c565b9055600181875416960154169582519182526020820152a46001815580f35b34033481116110b1578780808093335af1611097611cc2565b50156110a35738611014565b82516312171d8360e31b8152fd5b634e487b7160e01b885260118252602488fd5b5082516312171d8360e31b8152fd5b845163162908e360e11b81528390fd5b8291611125611047927f3c383309b20dfae2b367289760fd90de73b4fce8f3a3667600a9a66b6adef5bc96958954168560018b0154169060038b01549261192f565b61103d565b905163856a757760e01b8152fd5b5163893dcecf60e01b81528390fd5b51630df0f4e960e41b81528390fd5b5091346102425782600319360112610242576111706115e3565b6001549060ff8260a01c16156111b8575060ff60a01b1916600155513381527f5db9ee0a495bf2e6ff9c91a7834c1ba4fdd244a5e8aa4e537bd38aeae4b073aa90602090a180f35b8251638dfc202b60e01b8152fd5b5091346102425736600319016101208112610be957610100136102425767ffffffffffffffff9161010435838111610f4857611205903690840161150d565b909361120f6119f2565b6112176118eb565b61121f611a15565b611227611a2b565b92611230611a41565b92606435966084359860c4359360e4359589518a6020998a8301937f3bf6a96bd439aeccfa0ae079debeafbd20876716bd2e43b00c4f4b9571210281855260018060a01b039c8d9384809316908601521660608401521660808201528b60a08201528c60c082015260a435958660e083015287610100830152886101208301526101208252610140820190828210908211176114de578b525190206042906112d6611ba8565b908b519161190160f01b835260028301526022820152206112f6826118cf565b906113038b519283611695565b8282528d36848601116101b457898461132795611330978387013784010152611a57565b90929192611b23565b868061133a611a15565b169116036114d0578561134b611a15565b168a5260058552868a20848b52855260ff878b2054166114c2578242116114b4579260016007898896958a98958d8f9c98898b9a8f7f50994af435709064071e6160587eb110aee99f876e414493ea76df89d06e1b4d9f6113aa611a15565b16815260058c528181208b82528c52209860ff1999898b8254161790558a6113d0611a15565b916113d9611a2b565b6113e1611a41565b8551938401946001600160601b03199283809260601b16875260601b16603485015260601b166048830152605c820152605c815261141e8161160f565b5190209e8f815260068b5220948a611434611a15565b166001600160601b0360a01b9081885416178755611450611a2b565b8c8a8901911682825416179055611465611a41565b908c600289019216908254161790556003860155840155600583015560068201550191825416179055611496611a15565b9761149f611a2b565b91855198895288015216951693a46001815580f35b865163893dcecf60e01b8152fd5b8651631f6d5aef60e01b8152fd5b8651638baa579f60e01b8152fd5b634e487b7160e01b8f526041865260248ffd5b9050346105565781600319360112610556576020906007548152f35b9181601f8401121561153b5782359167ffffffffffffffff831161153b576020838186019501011161153b57565b600080fd5b600435906001600160a01b038216820361153b57565b919082519283825260005b848110611582575050826000602080949584010152601f8019910116010190565b602081830181015184830182015201611561565b6007548110156115cd5760076000527fa66cc928b5edb82af9bd49922954155ab7b0942694bea4ce44661d9a8736c6880190600090565b634e487b7160e01b600052603260045260246000fd5b6001546001600160a01b031633036115f757565b60405163118cdaa760e01b8152336004820152602490fd5b6080810190811067ffffffffffffffff82111761162b57604052565b634e487b7160e01b600052604160045260246000fd5b60c0810190811067ffffffffffffffff82111761162b57604052565b6020810190811067ffffffffffffffff82111761162b57604052565b6040810190811067ffffffffffffffff82111761162b57604052565b90601f8019910116810190811067ffffffffffffffff82111761162b57604052565b67ffffffffffffffff811161162b5760051b60200190565b60ff811461170d5760ff811690601f82116116fb57604051916116f183611679565b8252602082015290565b604051632cd44ac360e21b8152600490fd5b50604051600060025490600182811c908084169384156117ef575b60209485841081146117db57838752869493929181156117bb575060011461175c575b505061175992500382611695565b90565b9093915060026000527f405787fa12a823e0f2b7631cc41b3ba8828b3321ca811111fa75cd3aa3bb5ace936000915b8183106117a35750506117599350820101388061174b565b8554878401850152948501948694509183019161178b565b91505061175994925060ff191682840152151560051b820101388061174b565b634e487b7160e01b85526022600452602485fd5b91607f1691611728565b60ff811461181b5760ff811690601f82116116fb57604051916116f183611679565b50604051600060035490600182811c908084169384156118c5575b60209485841081146117db57838752869493929181156117bb575060011461186657505061175992500382611695565b9093915060036000527fc2575a0e9e593c00f959f8c92f12db2869c3395a3b0502d05e2516446f71f85b936000915b8183106118ad5750506117599350820101388061174b565b85548784018501529485019486945091830191611895565b91607f1691611836565b67ffffffffffffffff811161162b57601f01601f191660200190565b60ff60015460a01c166118fa57565b60405163d93c066560e01b8152600490fd5b9190820180921161191957565b634e487b7160e01b600052601160045260246000fd5b6040516323b872dd60e01b60208201526001600160a01b03928316602482015292909116604483015260648083019390935291815260a081019181831067ffffffffffffffff84111761162b576119889260405261198a565b565b906000602091828151910182855af1156119e6576000513d6119dd57506001600160a01b0381163b155b6119bb5750565b604051635274afe760e01b81526001600160a01b039091166004820152602490fd5b600114156119b4565b6040513d6000823e3d90fd5b600260005414611a03576002600055565b604051633ee5aeb560e01b8152600490fd5b6004356001600160a01b038116810361153b5790565b6024356001600160a01b038116810361153b5790565b6044356001600160a01b038116810361153b5790565b8151919060418303611a8857611a8192506020820151906060604084015193015160001a90611a93565b9192909190565b505060009160029190565b91907f7fffffffffffffffffffffffffffffff5d576e7357a4501ddfe92f46681b20a08411611b1757926020929160ff608095604051948552168484015260408301526060820152600092839182805260015afa15611b0b5780516001600160a01b03811615611b0257918190565b50809160019190565b604051903d90823e3d90fd5b50505060009160039190565b6004811015611b925780611b35575050565b60018103611b4f5760405163f645eedf60e01b8152600490fd5b60028103611b705760405163fce698f760e01b815260048101839052602490fd5b600314611b7a5750565b602490604051906335e2f38360e21b82526004820152fd5b634e487b7160e01b600052602160045260246000fd5b307f00000000000000000000000000000000000000000000000000000000000000006001600160a01b03161480611c99575b15611c03577f000000000000000000000000000000000000000000000000000000000000000090565b60405160208101907f8b73c3c69bb8fe3d512ecc4cf759cc79239f7b179b0ffacaa9a75d522b39400f82527f000000000000000000000000000000000000000000000000000000000000000060408201527f000000000000000000000000000000000000000000000000000000000000000060608201524660808201523060a082015260a08152611c9381611641565b51902090565b507f00000000000000000000000000000000000000000000000000000000000000004614611bda565b3d15611ced573d90611cd3826118cf565b91611ce16040519384611695565b82523d6000602084013e565b606090565b60405163a9059cbb60e01b60208201526001600160a01b03909216602483015260448083019390935291815261198891611d2b8261160f565b61198a565b6000908082526004602052604082209160058301805460ff81168015611e20575b611e195760ff1916600117905560028301546001600160a01b039190821680611dda5750808080848754166004880154905af1611d8c611cc2565b5015611dc857602060047f133405e74fa883cc1e7a54282140c2473da655a05387dae06a5c0da4c7565829925b855416940154604051908152a3565b6040516312171d8360e31b8152600490fd5b6020915082611e146004927f133405e74fa883cc1e7a54282140c2473da655a05387dae06a5c0da4c7565829958854168489015491611cf2565b611db9565b5050505050565b5060ff8160081c16611d51565b90611e37826116b7565b611e446040519182611695565b8281528092611e55601f19916116b7565b0190602036910137565b60001981146119195760010190565b80518210156115cd5760209160051b01019056fea2646970667358221220995f2ed8ae44ccaf1baf185cb1c6bed7c0f928fea99818f8b8e189c5d99c244164736f6c63430008140033","opcodes":"PUSH2 0x160 PUSH1 0x40 SWAP1 DUP1 DUP3 MSTORE CALLVALUE PUSH3 0x1C8 JUMPI PUSH3 0x19 DUP2 PUSH3 0x1CD JUMP JUMPDEST PUSH1 0x13 DUP2 MSTORE PUSH1 0x20 DUP2 ADD SWAP1 PUSH32 0x496E766F696365537562736372697074696F6E00000000000000000000000000 DUP3 MSTORE DUP3 MLOAD SWAP2 PUSH3 0x53 DUP4 PUSH3 0x1CD JUMP JUMPDEST PUSH1 0x1 DUP4 MSTORE PUSH1 0x20 DUP4 ADD SWAP3 PUSH1 0x31 PUSH1 0xF8 SHL DUP5 MSTORE PUSH1 0x0 SWAP4 PUSH1 0x1 DUP6 SSTORE CALLER ISZERO PUSH3 0x1B0 JUMPI PUSH1 0x1 DUP1 SLOAD CALLER PUSH1 0x1 PUSH1 0x1 PUSH1 0xA0 SHL SUB NOT DUP3 AND DUP2 OR SWAP1 SWAP3 SSTORE PUSH1 0x1 PUSH1 0x1 PUSH1 0xA0 SHL SUB AND PUSH32 0x8BE0079C531659141344CD1FD0A4F28419497F9722A3DAAFE3B4186F6B6457E0 DUP8 DUP1 LOG3 PUSH3 0xBE DUP5 PUSH3 0x1FF JUMP JUMPDEST SWAP3 PUSH2 0x120 SWAP4 DUP5 MSTORE PUSH3 0xD0 DUP4 PUSH3 0x3DC JUMP JUMPDEST SWAP5 PUSH2 0x140 SWAP6 DUP7 MSTORE MLOAD SWAP1 KECCAK256 SWAP2 DUP3 PUSH1 0xE0 MSTORE MLOAD SWAP1 KECCAK256 PUSH2 0x100 SWAP6 DUP2 DUP8 MSTORE CHAINID PUSH1 0xA0 MSTORE DUP1 MLOAD SWAP2 PUSH1 0x20 DUP4 ADD SWAP4 PUSH32 0x8B73C3C69BB8FE3D512ECC4CF759CC79239F7B179B0FFACAA9A75D522B39400F DUP6 MSTORE DUP3 DUP5 ADD MSTORE PUSH1 0x60 DUP4 ADD MSTORE CHAINID PUSH1 0x80 DUP4 ADD MSTORE ADDRESS PUSH1 0xA0 DUP4 ADD MSTORE PUSH1 0xA0 DUP3 MSTORE PUSH1 0xC0 DUP3 ADD SWAP6 DUP3 DUP8 LT PUSH1 0x1 DUP1 PUSH1 0x40 SHL SUB DUP9 GT OR PUSH3 0x19C JUMPI POP DUP6 SWAP1 MSTORE MLOAD SWAP1 KECCAK256 PUSH1 0x80 MSTORE ADDRESS PUSH1 0xC0 MSTORE PUSH2 0x1EB8 SWAP4 DUP5 PUSH3 0x592 DUP6 CODECOPY PUSH1 0x80 MLOAD DUP5 PUSH2 0x1BE1 ADD MSTORE PUSH1 0xA0 MLOAD DUP5 PUSH2 0x1C9C ADD MSTORE PUSH1 0xC0 MLOAD DUP5 PUSH2 0x1BAB ADD MSTORE PUSH1 0xE0 MLOAD DUP5 PUSH2 0x1C30 ADD MSTORE MLOAD DUP4 PUSH2 0x1C56 ADD MSTORE MLOAD DUP3 PUSH2 0x6B3 ADD MSTORE MLOAD DUP2 PUSH2 0x6DC ADD MSTORE RETURN JUMPDEST PUSH4 0x4E487B71 PUSH1 0xE0 SHL DUP2 MSTORE PUSH1 0x41 PUSH1 0x4 MSTORE PUSH1 0x24 SWAP1 REVERT JUMPDEST DUP6 MLOAD PUSH4 0x1E4FBDF7 PUSH1 0xE0 SHL DUP2 MSTORE PUSH1 0x4 DUP2 ADD DUP7 SWAP1 MSTORE PUSH1 0x24 SWAP1 REVERT JUMPDEST PUSH1 0x0 DUP1 REVERT JUMPDEST PUSH1 0x40 DUP2 ADD SWAP1 DUP2 LT PUSH1 0x1 PUSH1 0x1 PUSH1 0x40 SHL SUB DUP3 GT OR PUSH3 0x1E9 JUMPI PUSH1 0x40 MSTORE JUMP JUMPDEST PUSH4 0x4E487B71 PUSH1 0xE0 SHL PUSH1 0x0 MSTORE PUSH1 0x41 PUSH1 0x4 MSTORE PUSH1 0x24 PUSH1 0x0 REVERT JUMPDEST DUP1 MLOAD PUSH1 0x20 SWAP1 DUP2 DUP2 LT ISZERO PUSH3 0x29C JUMPI POP PUSH1 0x1F DUP3 MLOAD GT PUSH3 0x23B JUMPI DUP1 DUP3 MLOAD SWAP3 ADD MLOAD SWAP1 DUP1 DUP4 LT PUSH3 0x22C JUMPI POP OR SWAP1 JUMP JUMPDEST DUP3 PUSH1 0x0 NOT SWAP2 SUB PUSH1 0x3 SHL SHL AND OR SWAP1 JUMP JUMPDEST SWAP1 PUSH1 0x40 MLOAD DUP1 SWAP3 PUSH4 0x305A27A9 PUSH1 0xE0 SHL DUP3 MSTORE DUP1 PUSH1 0x4 DUP4 ADD MSTORE DUP3 MLOAD SWAP1 DUP2 PUSH1 0x24 DUP5 ADD MSTORE PUSH1 0x0 SWAP4 JUMPDEST DUP3 DUP6 LT PUSH3 0x282 JUMPI POP POP PUSH1 0x44 SWAP3 POP PUSH1 0x0 DUP4 DUP3 DUP5 ADD ADD MSTORE PUSH1 0x1F DUP1 NOT SWAP2 ADD AND DUP2 ADD SUB ADD SWAP1 REVERT JUMPDEST DUP5 DUP2 ADD DUP3 ADD MLOAD DUP7 DUP7 ADD PUSH1 0x44 ADD MSTORE SWAP4 DUP2 ADD SWAP4 DUP6 SWAP4 POP PUSH3 0x25E JUMP JUMPDEST SWAP1 PUSH1 0x1 PUSH1 0x1 PUSH1 0x40 SHL SUB DUP3 GT PUSH3 0x1E9 JUMPI PUSH1 0x2 SLOAD SWAP3 PUSH1 0x1 SWAP4 DUP5 DUP2 DUP2 SHR SWAP2 AND DUP1 ISZERO PUSH3 0x3D1 JUMPI JUMPDEST DUP4 DUP3 LT EQ PUSH3 0x3BB JUMPI PUSH1 0x1F DUP2 GT PUSH3 0x381 JUMPI JUMPDEST POP DUP2 PUSH1 0x1F DUP5 GT PUSH1 0x1 EQ PUSH3 0x315 JUMPI POP SWAP3 DUP3 SWAP4 SWAP2 DUP4 SWAP3 PUSH1 0x0 SWAP5 PUSH3 0x309 JUMPI JUMPDEST POP POP SHL SWAP2 PUSH1 0x0 NOT SWAP1 PUSH1 0x3 SHL SHR NOT AND OR PUSH1 0x2 SSTORE PUSH1 0xFF SWAP1 JUMP JUMPDEST ADD MLOAD SWAP3 POP CODESIZE DUP1 PUSH3 0x2F2 JUMP JUMPDEST SWAP2 SWAP1 DUP4 PUSH1 0x1F NOT DUP2 AND PUSH1 0x2 PUSH1 0x0 MSTORE DUP5 PUSH1 0x0 KECCAK256 SWAP5 PUSH1 0x0 SWAP1 JUMPDEST DUP9 DUP4 DUP4 LT PUSH3 0x366 JUMPI POP POP POP LT PUSH3 0x34C JUMPI JUMPDEST POP POP POP DUP2 SHL ADD PUSH1 0x2 SSTORE PUSH1 0xFF SWAP1 JUMP JUMPDEST ADD MLOAD PUSH1 0x0 NOT PUSH1 0xF8 DUP5 PUSH1 0x3 SHL AND SHR NOT AND SWAP1 SSTORE CODESIZE DUP1 DUP1 PUSH3 0x33E JUMP JUMPDEST DUP6 DUP8 ADD MLOAD DUP9 SSTORE SWAP1 SWAP7 ADD SWAP6 SWAP5 DUP6 ADD SWAP5 DUP8 SWAP4 POP SWAP1 DUP2 ADD SWAP1 PUSH3 0x32B JUMP JUMPDEST PUSH1 0x2 PUSH1 0x0 MSTORE DUP5 PUSH1 0x1F DUP5 PUSH1 0x0 KECCAK256 SWAP3 ADD PUSH1 0x5 SHR DUP3 ADD SWAP2 PUSH1 0x1F DUP7 ADD PUSH1 0x5 SHR ADD JUMPDEST DUP3 DUP2 LT PUSH3 0x3AE JUMPI POP POP PUSH3 0x2D4 JUMP JUMPDEST PUSH1 0x0 DUP2 SSTORE ADD DUP6 SWAP1 PUSH3 0x39E JUMP JUMPDEST PUSH4 0x4E487B71 PUSH1 0xE0 SHL PUSH1 0x0 MSTORE PUSH1 0x22 PUSH1 0x4 MSTORE PUSH1 0x24 PUSH1 0x0 REVERT JUMPDEST SWAP1 PUSH1 0x7F AND SWAP1 PUSH3 0x2C1 JUMP JUMPDEST DUP1 MLOAD PUSH1 0x20 SWAP2 SWAP1 DUP3 DUP2 LT ISZERO PUSH3 0x46C JUMPI POP SWAP1 PUSH1 0x1F DUP3 MLOAD GT PUSH3 0x40B JUMPI DUP1 DUP3 MLOAD SWAP3 ADD MLOAD SWAP1 DUP1 DUP4 LT PUSH3 0x22C JUMPI POP OR SWAP1 JUMP JUMPDEST SWAP1 PUSH1 0x40 MLOAD DUP1 SWAP3 PUSH4 0x305A27A9 PUSH1 0xE0 SHL DUP3 MSTORE DUP1 PUSH1 0x4 DUP4 ADD MSTORE DUP3 MLOAD SWAP1 DUP2 PUSH1 0x24 DUP5 ADD MSTORE PUSH1 0x0 SWAP4 JUMPDEST DUP3 DUP6 LT PUSH3 0x452 JUMPI POP POP PUSH1 0x44 SWAP3 POP PUSH1 0x0 DUP4 DUP3 DUP5 ADD ADD MSTORE PUSH1 0x1F DUP1 NOT SWAP2 ADD AND DUP2 ADD SUB ADD SWAP1 REVERT JUMPDEST DUP5 DUP2 ADD DUP3 ADD MLOAD DUP7 DUP7 ADD PUSH1 0x44 ADD MSTORE SWAP4 DUP2 ADD SWAP4 DUP6 SWAP4 POP PUSH3 0x42E JUMP JUMPDEST PUSH1 0x1 PUSH1 0x1 PUSH1 0x40 SHL SUB DUP2 GT PUSH3 0x1E9 JUMPI PUSH1 0x3 SWAP3 DUP4 SLOAD SWAP3 PUSH1 0x1 SWAP4 DUP5 DUP2 DUP2 SHR SWAP2 AND DUP1 ISZERO PUSH3 0x586 JUMPI JUMPDEST DUP4 DUP3 LT EQ PUSH3 0x3BB JUMPI PUSH1 0x1F DUP2 GT PUSH3 0x54D JUMPI JUMPDEST POP DUP2 PUSH1 0x1F DUP5 GT PUSH1 0x1 EQ PUSH3 0x4E4 JUMPI POP SWAP3 DUP3 SWAP4 SWAP2 DUP4 SWAP3 PUSH1 0x0 SWAP5 PUSH3 0x4D8 JUMPI JUMPDEST POP POP SHL SWAP2 PUSH1 0x0 NOT SWAP1 DUP5 SHL SHR NOT AND OR SWAP1 SSTORE PUSH1 0xFF SWAP1 JUMP JUMPDEST ADD MLOAD SWAP3 POP CODESIZE DUP1 PUSH3 0x4C3 JUMP JUMPDEST SWAP2 SWAP1 DUP4 PUSH1 0x1F NOT DUP2 AND DUP8 PUSH1 0x0 MSTORE DUP5 PUSH1 0x0 KECCAK256 SWAP5 PUSH1 0x0 SWAP1 JUMPDEST DUP9 DUP4 DUP4 LT PUSH3 0x532 JUMPI POP POP POP LT PUSH3 0x519 JUMPI JUMPDEST POP POP POP DUP2 SHL ADD SWAP1 SSTORE PUSH1 0xFF SWAP1 JUMP JUMPDEST ADD MLOAD PUSH1 0x0 NOT DUP4 DUP7 SHL PUSH1 0xF8 AND SHR NOT AND SWAP1 SSTORE CODESIZE DUP1 DUP1 PUSH3 0x50C JUMP JUMPDEST DUP6 DUP8 ADD MLOAD DUP9 SSTORE SWAP1 SWAP7 ADD SWAP6 SWAP5 DUP6 ADD SWAP5 DUP8 SWAP4 POP SWAP1 DUP2 ADD SWAP1 PUSH3 0x4F9 JUMP JUMPDEST DUP6 PUSH1 0x0 MSTORE DUP5 PUSH1 0x1F DUP5 PUSH1 0x0 KECCAK256 SWAP3 ADD PUSH1 0x5 SHR DUP3 ADD SWAP2 PUSH1 0x1F DUP7 ADD PUSH1 0x5 SHR ADD JUMPDEST DUP3 DUP2 LT PUSH3 0x579 JUMPI POP POP PUSH3 0x4A5 JUMP JUMPDEST PUSH1 0x0 DUP2 SSTORE ADD DUP6 SWAP1 PUSH3 0x569 JUMP JUMPDEST SWAP1 PUSH1 0x7F AND SWAP1 PUSH3 0x492 JUMP INVALID PUSH1 0x80 PUSH1 0x40 DUP2 DUP2 MSTORE PUSH1 0x4 SWAP2 DUP3 CALLDATASIZE LT ISZERO PUSH2 0x16 JUMPI PUSH1 0x0 DUP1 REVERT JUMPDEST PUSH1 0x0 SWAP1 DUP2 CALLDATALOAD PUSH1 0xE0 SHR SWAP1 DUP2 PUSH4 0x29433DEA EQ PUSH2 0x14F1 JUMPI POP DUP1 PUSH4 0x3D478BA9 EQ PUSH2 0x11C6 JUMPI DUP1 PUSH4 0x3F4BA83A EQ PUSH2 0x1156 JUMPI DUP1 PUSH4 0x41508EFA EQ PUSH2 0xF79 JUMPI DUP1 PUSH4 0x42F144BE EQ PUSH2 0xF4C JUMPI DUP1 PUSH4 0x4585E33B EQ PUSH2 0xDE1 JUMPI DUP1 PUSH4 0x4DD9D955 EQ PUSH2 0xC14 JUMPI DUP1 PUSH4 0x5C975ABB EQ PUSH2 0xBED JUMPI DUP1 PUSH4 0x6693643F EQ PUSH2 0xBA1 JUMPI DUP1 PUSH4 0x6A8A6894 EQ PUSH2 0xB5A JUMPI DUP1 PUSH4 0x6E04FF0D EQ PUSH2 0x99E JUMPI DUP1 PUSH4 0x715018A6 EQ PUSH2 0x941 JUMPI DUP1 PUSH4 0x775274A1 EQ PUSH2 0x7F1 JUMPI DUP1 PUSH4 0x8456CB59 EQ PUSH2 0x790 JUMPI DUP1 PUSH4 0x84B0196E EQ PUSH2 0x69B JUMPI DUP1 PUSH4 0x8DA5CB5B EQ PUSH2 0x672 JUMPI DUP1 PUSH4 0x94259C6C EQ PUSH2 0x5DF JUMPI DUP1 PUSH4 0xCB802C8B EQ PUSH2 0x55A JUMPI DUP1 PUSH4 0xDC93ED78 EQ PUSH2 0x51B JUMPI DUP1 PUSH4 0xDEDC0B04 EQ PUSH2 0x4B4 JUMPI DUP1 PUSH4 0xE739D90D EQ PUSH2 0x47B JUMPI DUP1 PUSH4 0xE9C9BD99 EQ PUSH2 0x246 JUMPI DUP1 PUSH4 0xF2FDE38B EQ PUSH2 0x1B7 JUMPI PUSH4 0xF8A8A076 EQ PUSH2 0x12C JUMPI PUSH1 0x0 DUP1 REVERT JUMPDEST CALLVALUE PUSH2 0x1B4 JUMPI PUSH1 0x20 CALLDATASIZE PUSH1 0x3 NOT ADD SLT PUSH2 0x1B4 JUMPI DUP3 CALLDATALOAD DUP2 MSTORE PUSH1 0x20 DUP4 DUP2 MSTORE SWAP1 DUP3 SWAP1 KECCAK256 DUP1 SLOAD PUSH1 0x1 DUP3 ADD SLOAD PUSH1 0x2 DUP4 ADD SLOAD PUSH1 0x3 DUP5 ADD SLOAD SWAP7 DUP5 ADD SLOAD PUSH1 0x5 SWAP1 SWAP5 ADD SLOAD SWAP6 MLOAD PUSH1 0x1 PUSH1 0x1 PUSH1 0xA0 SHL SUB SWAP4 DUP5 AND DUP2 MSTORE SWAP5 DUP6 ADD SWAP2 SWAP1 SWAP2 MSTORE AND PUSH1 0x40 DUP4 ADD MSTORE PUSH1 0x60 DUP3 ADD SWAP4 SWAP1 SWAP4 MSTORE PUSH1 0x80 DUP2 ADD SWAP3 SWAP1 SWAP3 MSTORE PUSH1 0xFF DUP1 DUP3 AND ISZERO ISZERO PUSH1 0xA0 DUP5 ADD MSTORE PUSH1 0x8 SWAP2 SWAP1 SWAP2 SHR AND ISZERO ISZERO PUSH1 0xC0 DUP3 ADD MSTORE PUSH1 0xE0 SWAP1 RETURN JUMPDEST SUB SWAP1 RETURN JUMPDEST DUP1 REVERT JUMPDEST POP SWAP2 CALLVALUE PUSH2 0x242 JUMPI PUSH1 0x20 CALLDATASIZE PUSH1 0x3 NOT ADD SLT PUSH2 0x242 JUMPI PUSH2 0x1D2 PUSH2 0x1540 JUMP JUMPDEST SWAP1 PUSH2 0x1DB PUSH2 0x15E3 JUMP JUMPDEST PUSH1 0x1 PUSH1 0x1 PUSH1 0xA0 SHL SUB SWAP2 DUP3 AND SWAP3 DUP4 ISZERO PUSH2 0x22C JUMPI POP POP PUSH1 0x1 SLOAD DUP3 PUSH1 0x1 PUSH1 0x1 PUSH1 0x60 SHL SUB PUSH1 0xA0 SHL DUP3 AND OR PUSH1 0x1 SSTORE AND PUSH32 0x8BE0079C531659141344CD1FD0A4F28419497F9722A3DAAFE3B4186F6B6457E0 DUP4 DUP1 LOG3 DUP1 RETURN JUMPDEST MLOAD PUSH4 0x1E4FBDF7 PUSH1 0xE0 SHL DUP2 MSTORE SWAP1 DUP2 ADD DUP5 SWAP1 MSTORE PUSH1 0x24 SWAP1 REVERT JUMPDEST DUP3 DUP1 REVERT JUMPDEST POP SWAP1 PUSH1 0x20 DUP1 PUSH1 0x3 NOT CALLDATASIZE ADD SLT PUSH2 0x242 JUMPI DUP4 CALLDATALOAD SWAP2 PUSH2 0x260 PUSH2 0x19F2 JUMP JUMPDEST PUSH2 0x268 PUSH2 0x18EB JUMP JUMPDEST DUP3 DUP5 MSTORE DUP5 DUP3 MSTORE DUP1 DUP5 KECCAK256 DUP1 SLOAD SWAP1 SWAP2 SWAP1 PUSH1 0x1 PUSH1 0x1 PUSH1 0xA0 SHL SUB SWAP1 DUP2 AND ISZERO PUSH2 0x46B JUMPI PUSH1 0x5 DUP4 ADD SLOAD PUSH1 0xFF DUP2 AND SWAP1 DUP2 ISZERO PUSH2 0x45D JUMPI JUMPDEST POP PUSH2 0x44D JUMPI PUSH1 0x3 DUP4 ADD SLOAD TIMESTAMP GT PUSH2 0x43D JUMPI PUSH1 0x2 DUP4 ADD SLOAD AND DUP1 PUSH2 0x3BE JUMPI POP CALLVALUE SWAP1 JUMPDEST DUP2 ISZERO PUSH2 0x3AF JUMPI PUSH1 0x6 DUP4 ADD CALLER DUP8 MSTORE DUP1 DUP6 MSTORE DUP2 DUP8 KECCAK256 SLOAD ISZERO PUSH2 0x34D JUMPI JUMPDEST DUP6 SWAP7 SWAP8 SWAP2 PUSH1 0x1 SWAP6 SWAP7 SWAP3 PUSH32 0x86823B9F3F8A793CB18F1212A5FE5661D166FFE64228E2E3C43DC38959FBA8DC SWAP3 CALLER DUP12 MSTORE DUP9 MSTORE DUP2 DUP11 KECCAK256 PUSH2 0x30E DUP7 DUP3 SLOAD PUSH2 0x190C JUMP JUMPDEST SWAP1 SSTORE DUP6 ADD PUSH2 0x31D DUP6 DUP3 SLOAD PUSH2 0x190C JUMP JUMPDEST SWAP8 DUP9 DUP1 SWAP3 SSTORE DUP3 MLOAD SWAP6 DUP7 MSTORE DUP6 ADD MSTORE CALLER SWAP4 LOG3 ADD SLOAD GT ISZERO PUSH2 0x33E JUMPI JUMPDEST POP PUSH1 0x1 DUP2 SSTORE DUP1 RETURN JUMPDEST PUSH2 0x347 SWAP1 PUSH2 0x1D30 JUMP JUMPDEST CODESIZE PUSH2 0x336 JUMP JUMPDEST PUSH1 0x7 DUP5 ADD DUP1 SLOAD SWAP1 PUSH1 0x1 PUSH1 0x40 SHL DUP3 LT ISZERO PUSH2 0x39C JUMPI PUSH1 0x1 DUP3 ADD DUP1 DUP3 SSTORE DUP3 LT ISZERO PUSH2 0x389 JUMPI DUP9 MSTORE DUP6 DUP9 KECCAK256 ADD DUP1 SLOAD PUSH1 0x1 PUSH1 0x1 PUSH1 0xA0 SHL SUB NOT AND CALLER OR SWAP1 SSTORE PUSH2 0x2D0 JUMP JUMPDEST PUSH4 0x4E487B71 PUSH1 0xE0 SHL DUP10 MSTORE PUSH1 0x32 DUP11 MSTORE PUSH1 0x24 DUP10 REVERT JUMPDEST PUSH4 0x4E487B71 PUSH1 0xE0 SHL DUP10 MSTORE PUSH1 0x41 DUP11 MSTORE PUSH1 0x24 DUP10 REVERT JUMPDEST MLOAD PUSH4 0x162908E3 PUSH1 0xE1 SHL DUP2 MSTORE DUP7 SWAP1 REVERT JUMPDEST SWAP1 DUP1 MLOAD PUSH4 0x6EB1769F PUSH1 0xE1 SHL DUP2 MSTORE CALLER DUP9 DUP3 ADD MSTORE ADDRESS PUSH1 0x24 DUP3 ADD MSTORE DUP5 DUP2 PUSH1 0x44 DUP2 DUP7 GAS STATICCALL DUP1 ISZERO PUSH2 0x433 JUMPI DUP8 SWAP1 PUSH2 0x400 JUMPI JUMPDEST PUSH2 0x3FB SWAP2 POP DUP1 SWAP4 ADDRESS SWAP1 CALLER SWAP1 PUSH2 0x192F JUMP JUMPDEST PUSH2 0x2B6 JUMP JUMPDEST POP DUP5 DUP2 DUP2 RETURNDATASIZE DUP4 GT PUSH2 0x42C JUMPI JUMPDEST PUSH2 0x416 DUP2 DUP4 PUSH2 0x1695 JUMP JUMPDEST DUP2 ADD SUB SLT PUSH2 0x428 JUMPI PUSH2 0x3FB SWAP1 MLOAD PUSH2 0x3EB JUMP JUMPDEST DUP7 DUP1 REVERT JUMPDEST POP RETURNDATASIZE PUSH2 0x40C JUMP JUMPDEST DUP3 MLOAD RETURNDATASIZE DUP10 DUP3 RETURNDATACOPY RETURNDATASIZE SWAP1 REVERT JUMPDEST DUP2 MLOAD PUSH4 0xF04E9CF PUSH1 0xE4 SHL DUP2 MSTORE DUP8 SWAP1 REVERT JUMPDEST DUP2 MLOAD PUSH4 0x87F4219 PUSH1 0xE4 SHL DUP2 MSTORE DUP8 SWAP1 REVERT JUMPDEST PUSH1 0xFF SWAP2 POP PUSH1 0x8 SHR AND CODESIZE PUSH2 0x297 JUMP JUMPDEST DUP2 MLOAD PUSH4 0x49FF0C8F PUSH1 0xE1 SHL DUP2 MSTORE DUP8 SWAP1 REVERT JUMPDEST POP SWAP2 CALLVALUE PUSH2 0x242 JUMPI PUSH1 0x20 CALLDATASIZE PUSH1 0x3 NOT ADD SLT PUSH2 0x242 JUMPI CALLDATALOAD SWAP2 PUSH1 0x7 SLOAD DUP4 LT ISZERO PUSH2 0x1B4 JUMPI POP PUSH2 0x4A6 PUSH1 0x20 SWAP3 PUSH2 0x1596 JUMP JUMPDEST SWAP2 SWAP1 SLOAD SWAP1 MLOAD SWAP2 PUSH1 0x3 SHL SHR DUP2 MSTORE RETURN JUMPDEST POP DUP3 SWAP1 CALLVALUE PUSH2 0x1B4 JUMPI PUSH1 0x20 CALLDATASIZE PUSH1 0x3 NOT ADD SLT PUSH2 0x1B4 JUMPI POP DUP1 CALLDATALOAD SWAP1 PUSH1 0x7 SLOAD DUP3 LT ISZERO PUSH2 0x4E2 JUMPI PUSH1 0x20 DUP4 PUSH2 0x4A6 DUP5 PUSH2 0x1596 JUMP JUMPDEST PUSH1 0x64 SWAP1 PUSH1 0x20 DUP5 MLOAD SWAP2 PUSH3 0x461BCD PUSH1 0xE5 SHL DUP4 MSTORE DUP3 ADD MSTORE PUSH1 0x13 PUSH1 0x24 DUP3 ADD MSTORE PUSH19 0x496E646578206F7574206F6620626F756E6473 PUSH1 0x68 SHL PUSH1 0x44 DUP3 ADD MSTORE REVERT JUMPDEST POP SWAP1 CALLVALUE PUSH2 0x556 JUMPI DUP2 PUSH1 0x3 NOT CALLDATASIZE ADD SLT PUSH2 0x556 JUMPI PUSH1 0x20 SWAP1 MLOAD PUSH32 0x3BF6A96BD439AECCFA0AE079DEBEAFBD20876716BD2E43B00C4F4B9571210281 DUP2 MSTORE RETURN JUMPDEST POP DUP1 REVERT JUMPDEST POP CALLVALUE PUSH2 0x1B4 JUMPI PUSH1 0x20 CALLDATASIZE PUSH1 0x3 NOT ADD SLT PUSH2 0x1B4 JUMPI DUP3 CALLDATALOAD DUP2 MSTORE PUSH1 0x20 DUP4 DUP2 MSTORE SWAP1 DUP3 SWAP1 KECCAK256 DUP1 SLOAD PUSH1 0x1 DUP3 ADD SLOAD PUSH1 0x2 DUP4 ADD SLOAD PUSH1 0x3 DUP5 ADD SLOAD SWAP7 DUP5 ADD SLOAD PUSH1 0x5 SWAP1 SWAP5 ADD SLOAD SWAP6 MLOAD PUSH1 0x1 PUSH1 0x1 PUSH1 0xA0 SHL SUB SWAP4 DUP5 AND DUP2 MSTORE SWAP5 DUP6 ADD SWAP2 SWAP1 SWAP2 MSTORE AND PUSH1 0x40 DUP4 ADD MSTORE PUSH1 0x60 DUP3 ADD SWAP4 SWAP1 SWAP4 MSTORE PUSH1 0x80 DUP2 ADD SWAP3 SWAP1 SWAP3 MSTORE PUSH1 0xFF DUP1 DUP3 AND ISZERO ISZERO PUSH1 0xA0 DUP5 ADD MSTORE PUSH1 0x8 SWAP2 SWAP1 SWAP2 SHR AND ISZERO ISZERO PUSH1 0xC0 DUP3 ADD MSTORE PUSH1 0xE0 SWAP1 RETURN JUMPDEST POP SWAP2 SWAP1 CALLVALUE PUSH2 0x242 JUMPI PUSH1 0x20 CALLDATASIZE PUSH1 0x3 NOT ADD SLT PUSH2 0x242 JUMPI DUP1 PUSH2 0x120 SWAP4 DUP4 CALLDATALOAD DUP2 MSTORE PUSH1 0x6 PUSH1 0x20 MSTORE KECCAK256 PUSH1 0x1 DUP1 PUSH1 0xA0 SHL SUB SWAP2 DUP3 DUP3 SLOAD AND SWAP4 DUP4 PUSH1 0x1 DUP5 ADD SLOAD AND SWAP4 PUSH1 0x2 DUP5 ADD SLOAD AND SWAP1 PUSH1 0x3 DUP5 ADD SLOAD SWAP1 DUP5 ADD SLOAD SWAP1 PUSH1 0x5 DUP6 ADD SLOAD SWAP3 PUSH1 0x6 DUP7 ADD SLOAD SWAP5 PUSH1 0x8 PUSH1 0xFF PUSH1 0x7 DUP10 ADD SLOAD AND SWAP8 ADD SLOAD SWAP8 DUP2 MLOAD SWAP10 DUP11 MSTORE PUSH1 0x20 DUP11 ADD MSTORE DUP9 ADD MSTORE PUSH1 0x60 DUP8 ADD MSTORE PUSH1 0x80 DUP7 ADD MSTORE PUSH1 0xA0 DUP6 ADD MSTORE PUSH1 0xC0 DUP5 ADD MSTORE ISZERO ISZERO PUSH1 0xE0 DUP4 ADD MSTORE PUSH2 0x100 DUP3 ADD MSTORE RETURN JUMPDEST POP SWAP1 CALLVALUE PUSH2 0x556 JUMPI DUP2 PUSH1 0x3 NOT CALLDATASIZE ADD SLT PUSH2 0x556 JUMPI PUSH1 0x1 SLOAD SWAP1 MLOAD PUSH1 0x1 PUSH1 0x1 PUSH1 0xA0 SHL SUB SWAP1 SWAP2 AND DUP2 MSTORE PUSH1 0x20 SWAP1 RETURN JUMPDEST POP SWAP1 CALLVALUE PUSH2 0x556 JUMPI DUP2 PUSH1 0x3 NOT CALLDATASIZE ADD SLT PUSH2 0x556 JUMPI SWAP1 PUSH2 0x6D7 PUSH32 0x0 PUSH2 0x16CF JUMP JUMPDEST PUSH2 0x700 PUSH32 0x0 PUSH2 0x17F9 JUMP JUMPDEST SWAP2 DUP4 MLOAD SWAP2 PUSH2 0x70D DUP4 PUSH2 0x165D JUMP JUMPDEST DUP2 DUP4 MSTORE PUSH2 0x742 DUP6 MLOAD SWAP6 DUP7 SWAP6 PUSH1 0xF PUSH1 0xF8 SHL DUP8 MSTORE PUSH2 0x735 PUSH1 0x20 SWAP5 PUSH1 0xE0 DUP7 DUP11 ADD MSTORE PUSH1 0xE0 DUP10 ADD SWAP1 PUSH2 0x1556 JUMP JUMPDEST SWAP2 DUP8 DUP4 SUB SWAP1 DUP9 ADD MSTORE PUSH2 0x1556 JUMP JUMPDEST SWAP1 CHAINID PUSH1 0x60 DUP7 ADD MSTORE ADDRESS PUSH1 0x80 DUP7 ADD MSTORE DUP3 PUSH1 0xA0 DUP7 ADD MSTORE DUP5 DUP3 SUB PUSH1 0xC0 DUP7 ADD MSTORE DUP1 DUP1 DUP6 MLOAD SWAP4 DUP5 DUP2 MSTORE ADD SWAP5 ADD SWAP3 JUMPDEST DUP3 DUP2 LT PUSH2 0x779 JUMPI POP POP POP POP SUB SWAP1 RETURN JUMPDEST DUP4 MLOAD DUP6 MSTORE DUP7 SWAP6 POP SWAP4 DUP2 ADD SWAP4 SWAP3 DUP2 ADD SWAP3 PUSH1 0x1 ADD PUSH2 0x76A JUMP JUMPDEST POP SWAP1 CALLVALUE PUSH2 0x556 JUMPI DUP2 PUSH1 0x3 NOT CALLDATASIZE ADD SLT PUSH2 0x556 JUMPI PUSH1 0x20 PUSH32 0x62E78CEA01BEE320CD4E420270B5EA74000D11B0C9F74754EBDBFC544B05A258 SWAP2 PUSH2 0x7CE PUSH2 0x15E3 JUMP JUMPDEST PUSH2 0x7D6 PUSH2 0x18EB JUMP JUMPDEST PUSH1 0x1 DUP1 SLOAD PUSH1 0xFF PUSH1 0xA0 SHL NOT AND PUSH1 0x1 PUSH1 0xA0 SHL OR SWAP1 SSTORE MLOAD CALLER DUP2 MSTORE LOG1 DUP1 RETURN JUMPDEST POP SWAP2 SWAP1 CALLVALUE PUSH2 0x242 JUMPI PUSH1 0x20 CALLDATASIZE PUSH1 0x3 NOT ADD SLT PUSH2 0x242 JUMPI DUP2 CALLDATALOAD SWAP1 PUSH2 0x810 PUSH2 0x19F2 JUMP JUMPDEST DUP2 DUP5 MSTORE DUP3 PUSH1 0x20 MSTORE DUP1 DUP5 KECCAK256 SWAP3 PUSH1 0x1 DUP1 PUSH1 0xA0 SHL SUB DUP1 DUP6 SLOAD AND ISZERO PUSH2 0x932 JUMPI PUSH1 0x5 DUP6 ADD SWAP5 DUP6 SLOAD PUSH1 0xFF DUP2 AND SWAP1 DUP2 ISZERO PUSH2 0x924 JUMPI JUMPDEST POP PUSH2 0x914 JUMPI PUSH1 0x3 DUP2 ADD SLOAD TIMESTAMP GT ISZERO PUSH2 0x904 JUMPI PUSH1 0x6 DUP2 ADD SWAP6 CALLER DUP9 MSTORE DUP7 PUSH1 0x20 MSTORE DUP5 DUP9 KECCAK256 SLOAD SWAP7 DUP8 ISZERO PUSH2 0x8F4 JUMPI CALLER DUP10 MSTORE PUSH1 0x20 MSTORE DUP5 DUP9 KECCAK256 DUP9 SWAP1 SSTORE DUP1 SLOAD PUSH2 0xFF00 NOT AND PUSH2 0x100 OR SWAP1 SSTORE PUSH1 0x2 ADD SLOAD DUP6 SWAP2 AND DUP1 PUSH2 0x8E3 JUMPI POP DUP6 DUP1 DUP1 DUP1 SWAP4 CALLER GAS CALL PUSH2 0x89C PUSH2 0x1CC2 JUMP JUMPDEST POP ISZERO PUSH2 0x8D5 JUMPI POP JUMPDEST MLOAD SWAP2 DUP3 MSTORE PUSH32 0xEF652412E5D49B8285C2154153B00BE5E175328CAF6225B8A37DB5712FB62A1A PUSH1 0x20 CALLER SWAP4 LOG3 PUSH1 0x1 DUP2 SSTORE DUP1 RETURN JUMPDEST SWAP1 MLOAD PUSH4 0x12171D83 PUSH1 0xE3 SHL DUP2 MSTORE REVERT JUMPDEST PUSH2 0x8EF SWAP3 POP CALLER SWAP1 PUSH2 0x1CF2 JUMP JUMPDEST PUSH2 0x8A4 JUMP JUMPDEST DUP6 MLOAD PUSH4 0x1971FBF3 PUSH1 0xE2 SHL DUP2 MSTORE DUP6 SWAP1 REVERT JUMPDEST DUP4 MLOAD PUSH4 0x30F53A1F PUSH1 0xE0 SHL DUP2 MSTORE DUP4 SWAP1 REVERT JUMPDEST DUP4 MLOAD PUSH4 0x87F4219 PUSH1 0xE4 SHL DUP2 MSTORE DUP4 SWAP1 REVERT JUMPDEST PUSH1 0xFF SWAP2 POP PUSH1 0x8 SHR AND CODESIZE PUSH2 0x83E JUMP JUMPDEST POP SWAP1 MLOAD PUSH4 0x49FF0C8F PUSH1 0xE1 SHL DUP2 MSTORE REVERT JUMPDEST POP CALLVALUE PUSH2 0x1B4 JUMPI DUP1 PUSH1 0x3 NOT CALLDATASIZE ADD SLT PUSH2 0x1B4 JUMPI PUSH2 0x95A PUSH2 0x15E3 JUMP JUMPDEST PUSH1 0x1 DUP1 SLOAD PUSH1 0x1 PUSH1 0x1 PUSH1 0xA0 SHL SUB NOT DUP2 AND SWAP1 SWAP2 SSTORE DUP2 SWAP1 PUSH1 0x1 PUSH1 0x1 PUSH1 0xA0 SHL SUB AND PUSH32 0x8BE0079C531659141344CD1FD0A4F28419497F9722A3DAAFE3B4186F6B6457E0 DUP3 DUP1 LOG3 DUP1 RETURN JUMPDEST POP SWAP2 SWAP1 CALLVALUE PUSH2 0x242 JUMPI PUSH1 0x20 SWAP3 DUP4 PUSH1 0x3 NOT CALLDATASIZE ADD SLT PUSH2 0x1B4 JUMPI DUP3 CALLDATALOAD PUSH8 0xFFFFFFFFFFFFFFFF DUP2 GT PUSH2 0x556 JUMPI PUSH2 0x9D2 SWAP1 CALLDATASIZE SWAP1 DUP6 ADD PUSH2 0x150D JUMP JUMPDEST POP POP PUSH1 0x7 SLOAD PUSH2 0x9E0 DUP2 PUSH2 0x1E2D JUMP JUMPDEST SWAP1 DUP3 SWAP5 DUP4 JUMPDEST DUP3 DUP2 LT PUSH2 0xABF JUMPI POP POP DUP5 ISZERO SWAP1 POP PUSH2 0xAA3 JUMPI PUSH1 0x1 SWAP2 DUP3 SWAP5 PUSH2 0xA04 DUP2 PUSH2 0x1E2D JUMP JUMPDEST SWAP3 DUP3 JUMPDEST DUP3 DUP2 LT PUSH2 0xA79 JUMPI POP POP POP DUP4 MLOAD SWAP3 DUP5 DUP5 ADD DUP8 DUP1 DUP7 ADD MSTORE DUP4 MLOAD DUP1 SWAP2 MSTORE DUP8 PUSH1 0x60 DUP7 ADD SWAP5 ADD SWAP3 JUMPDEST DUP9 DUP3 DUP3 LT PUSH2 0xA66 JUMPI POP POP POP POP POP SWAP1 PUSH2 0xA4F DUP2 PUSH2 0x1B0 SWAP5 SWAP4 SUB PUSH1 0x1F NOT DUP2 ADD DUP4 MSTORE DUP3 PUSH2 0x1695 JUMP JUMPDEST SWAP1 JUMPDEST DUP1 DUP1 MLOAD SWAP6 DUP7 SWAP6 ISZERO ISZERO DUP7 MSTORE DUP6 ADD MSTORE DUP4 ADD SWAP1 PUSH2 0x1556 JUMP JUMPDEST DUP5 MLOAD DUP7 MSTORE SWAP5 DUP6 ADD SWAP5 SWAP1 SWAP4 ADD SWAP3 DUP3 ADD PUSH2 0xA2A JUMP JUMPDEST DUP1 PUSH2 0xA8A PUSH2 0xA9B SWAP3 DUP5 SWAP9 SWAP7 SWAP9 PUSH2 0x1E6E JUMP JUMPDEST MLOAD PUSH2 0xA95 DUP3 DUP9 PUSH2 0x1E6E JUMP JUMPDEST MSTORE PUSH2 0x1E5F JUMP JUMPDEST SWAP5 SWAP3 SWAP5 PUSH2 0xA07 JUMP JUMPDEST POP SWAP2 POP PUSH2 0x1B0 SWAP1 DUP3 DUP2 MLOAD SWAP1 PUSH2 0xAB7 DUP3 PUSH2 0x165D JUMP JUMPDEST DUP2 MSTORE SWAP1 PUSH2 0xA51 JUMP JUMPDEST PUSH2 0xAC8 DUP2 PUSH2 0x1596 JUMP JUMPDEST SWAP1 SLOAD PUSH1 0x3 SWAP2 DUP3 SHL SHR SWAP1 DUP2 DUP8 MSTORE DUP4 DUP11 MSTORE DUP8 DUP8 KECCAK256 SWAP1 PUSH1 0x5 DUP3 ADD SLOAD SWAP2 PUSH1 0xFF DUP1 DUP5 AND ISZERO SWAP4 DUP5 PUSH2 0xB4C JUMPI JUMPDEST POP POP DUP3 PUSH2 0xB3A JUMPI JUMPDEST DUP3 PUSH2 0xB2C JUMPI JUMPDEST POP POP PUSH2 0xB12 JUMPI JUMPDEST POP PUSH2 0xB0D SWAP1 PUSH2 0x1E5F JUMP JUMPDEST PUSH2 0x9E5 JUMP JUMPDEST DUP8 PUSH2 0xB25 SWAP2 PUSH2 0xA95 PUSH2 0xB0D SWAP5 SWAP11 DUP9 PUSH2 0x1E6E JUMP JUMPDEST SWAP7 SWAP1 PUSH2 0xB03 JUMP JUMPDEST ADD SLOAD TIMESTAMP GT ISZERO SWAP1 POP CODESIZE DUP1 PUSH2 0xAFC JUMP JUMPDEST DUP6 DUP2 ADD SLOAD PUSH1 0x1 DUP3 ADD SLOAD GT ISZERO SWAP3 POP PUSH2 0xAF6 JUMP JUMPDEST PUSH1 0x8 SHR AND ISZERO SWAP3 POP CODESIZE DUP1 PUSH2 0xAEE JUMP JUMPDEST POP SWAP1 CALLVALUE PUSH2 0x556 JUMPI DUP1 PUSH1 0x3 NOT CALLDATASIZE ADD SLT PUSH2 0x556 JUMPI PUSH1 0x20 SWAP2 PUSH1 0xFF SWAP1 DUP3 SWAP1 PUSH1 0x1 PUSH1 0x1 PUSH1 0xA0 SHL SUB PUSH2 0xB84 PUSH2 0x1540 JUMP JUMPDEST AND DUP2 MSTORE PUSH1 0x5 DUP6 MSTORE DUP2 DUP2 KECCAK256 PUSH1 0x24 CALLDATALOAD DUP3 MSTORE DUP6 MSTORE KECCAK256 SLOAD AND SWAP1 MLOAD SWAP1 ISZERO ISZERO DUP2 MSTORE RETURN JUMPDEST POP SWAP2 CALLVALUE PUSH2 0x242 JUMPI DUP2 PUSH1 0x3 NOT CALLDATASIZE ADD SLT PUSH2 0x242 JUMPI PUSH1 0x24 CALLDATALOAD PUSH1 0x1 PUSH1 0x1 PUSH1 0xA0 SHL SUB DUP2 AND SWAP2 SWAP1 DUP3 SWAP1 SUB PUSH2 0xBE9 JUMPI SWAP3 DUP3 SWAP2 DUP5 PUSH1 0x20 SWAP6 CALLDATALOAD DUP4 MSTORE DUP6 MSTORE PUSH1 0x6 DUP4 DUP4 KECCAK256 ADD SWAP1 DUP3 MSTORE DUP5 MSTORE KECCAK256 SLOAD SWAP1 MLOAD SWAP1 DUP2 MSTORE RETURN JUMPDEST DUP4 DUP1 REVERT JUMPDEST POP SWAP1 CALLVALUE PUSH2 0x556 JUMPI DUP2 PUSH1 0x3 NOT CALLDATASIZE ADD SLT PUSH2 0x556 JUMPI PUSH1 0x20 SWAP1 PUSH1 0xFF PUSH1 0x1 SLOAD PUSH1 0xA0 SHR AND SWAP1 MLOAD SWAP1 ISZERO ISZERO DUP2 MSTORE RETURN JUMPDEST POP SWAP1 CALLVALUE PUSH2 0x556 JUMPI PUSH1 0x80 CALLDATASIZE PUSH1 0x3 NOT ADD SLT PUSH2 0x556 JUMPI PUSH2 0xC2F PUSH2 0x1540 JUMP JUMPDEST SWAP3 PUSH1 0x44 CALLDATALOAD SWAP1 PUSH1 0x24 CALLDATALOAD PUSH1 0x1 PUSH1 0x1 PUSH1 0xA0 SHL SUB DUP1 DUP5 AND DUP1 DUP6 SUB PUSH2 0x428 JUMPI PUSH1 0x64 CALLDATALOAD SWAP2 PUSH2 0xC55 PUSH2 0x18EB JUMP JUMPDEST DUP9 AND SWAP5 DUP6 ISZERO DUP1 ISZERO PUSH2 0xDD9 JUMPI JUMPDEST PUSH2 0xDC9 JUMPI TIMESTAMP DUP4 GT ISZERO PUSH2 0xDC9 JUMPI DUP7 MLOAD PUSH1 0x20 SWAP10 DUP11 DUP3 ADD SWAP3 PUSH1 0x1 PUSH1 0x1 PUSH1 0x60 SHL SUB NOT DUP1 SWAP3 PUSH1 0x60 SHL AND DUP5 MSTORE DUP7 PUSH1 0x34 DUP5 ADD MSTORE PUSH1 0x60 SHL AND PUSH1 0x54 DUP3 ADD MSTORE DUP4 PUSH1 0x68 DUP3 ADD MSTORE TIMESTAMP PUSH1 0x88 DUP3 ADD MSTORE PUSH1 0x88 DUP2 MSTORE PUSH2 0xCAF DUP2 PUSH2 0x1641 JUMP JUMPDEST MLOAD SWAP1 KECCAK256 SWAP7 DUP8 SWAP5 DUP6 DUP3 MSTORE DUP1 DUP11 MSTORE DUP4 PUSH1 0x3 DUP10 DUP5 KECCAK256 PUSH1 0x1 PUSH1 0x1 PUSH1 0x60 SHL SUB PUSH1 0xA0 SHL DUP11 DUP2 DUP4 SLOAD AND OR DUP3 SSTORE DUP9 PUSH1 0x1 DUP4 ADD SSTORE DUP7 PUSH1 0x2 DUP4 ADD SWAP2 DUP3 SLOAD AND OR SWAP1 SSTORE ADD SSTORE PUSH1 0x8 DUP11 MSTORE PUSH1 0xFF DUP9 DUP4 KECCAK256 SLOAD AND ISZERO PUSH2 0xD34 JUMPI JUMPDEST POP POP DUP6 MLOAD SWAP3 DUP4 MSTORE DUP8 DUP4 ADD MSTORE DUP2 DUP6 ADD MSTORE PUSH32 0x8F26321C4618EC8C97913B89682571E04749F4B1788DBA40ABD70FDCEE9A6005 SWAP1 PUSH1 0x60 SWAP1 LOG3 MLOAD SWAP1 DUP2 MSTORE RETURN JUMPDEST SWAP1 SWAP2 SWAP3 SWAP4 SWAP5 POP PUSH1 0x7 SLOAD SWAP1 PUSH1 0x1 PUSH1 0x40 SHL DUP3 LT ISZERO PUSH2 0xDB6 JUMPI POP SWAP3 PUSH1 0x60 SWAP3 DUP8 DUP10 SWAP7 SWAP4 PUSH2 0xD84 DUP8 PUSH1 0x1 PUSH32 0x8F26321C4618EC8C97913B89682571E04749F4B1788DBA40ABD70FDCEE9A6005 SWAP10 ADD PUSH1 0x7 SSTORE PUSH2 0x1596 JUMP JUMPDEST DUP2 SLOAD SWAP1 PUSH1 0x3 SHL SWAP1 DUP11 DUP3 SHL SWAP2 PUSH1 0x0 NOT SWAP1 SHL NOT AND OR SWAP1 SSTORE DUP8 DUP2 MSTORE PUSH1 0x8 DUP13 MSTORE KECCAK256 PUSH1 0x1 PUSH1 0xFF NOT DUP3 SLOAD AND OR SWAP1 SSTORE SWAP2 SWAP4 DUP2 SWAP4 POP PUSH2 0xCF9 JUMP JUMPDEST PUSH4 0x4E487B71 PUSH1 0xE0 SHL DUP4 MSTORE PUSH1 0x41 SWAP1 MSTORE PUSH1 0x24 DUP3 REVERT JUMPDEST DUP7 MLOAD PUSH4 0x49FF0C8F PUSH1 0xE1 SHL DUP2 MSTORE DUP6 SWAP1 REVERT JUMPDEST POP DUP4 ISZERO PUSH2 0xC61 JUMP JUMPDEST POP CALLVALUE PUSH2 0x1B4 JUMPI PUSH1 0x20 SWAP2 DUP3 PUSH1 0x3 NOT CALLDATASIZE ADD SLT PUSH2 0x556 JUMPI PUSH8 0xFFFFFFFFFFFFFFFF SWAP3 DUP5 CALLDATALOAD DUP5 DUP2 GT PUSH2 0xBE9 JUMPI PUSH2 0xE15 SWAP1 CALLDATASIZE SWAP1 DUP8 ADD PUSH2 0x150D JUMP JUMPDEST DUP2 SWAP6 SWAP2 ADD SWAP5 DUP3 DUP2 DUP8 SUB SLT PUSH2 0xF48 JUMPI DUP1 CALLDATALOAD SWAP2 DUP3 GT PUSH2 0xF48 JUMPI ADD SWAP5 DUP5 PUSH1 0x1F DUP8 ADD SLT ISZERO PUSH2 0xBE9 JUMPI DUP6 CALLDATALOAD SWAP5 PUSH2 0xE45 DUP7 PUSH2 0x16B7 JUMP JUMPDEST SWAP7 PUSH2 0xE52 DUP6 MLOAD SWAP9 DUP10 PUSH2 0x1695 JUMP JUMPDEST DUP7 DUP9 MSTORE DUP4 DUP9 ADD SWAP1 DUP5 PUSH1 0x5 SWAP9 DUP10 SHL DUP3 ADD ADD SWAP3 DUP4 GT PUSH2 0x428 JUMPI DUP5 DUP1 SWAP2 ADD SWAP2 JUMPDEST DUP4 DUP4 LT PUSH2 0xF38 JUMPI POP POP POP POP DUP4 JUMPDEST DUP7 MLOAD DUP2 LT ISZERO PUSH2 0xF34 JUMPI DUP1 PUSH2 0xE93 PUSH2 0xEC9 SWAP3 DUP10 PUSH2 0x1E6E JUMP JUMPDEST MLOAD DUP1 DUP8 MSTORE DUP4 DUP6 MSTORE DUP6 DUP8 KECCAK256 DUP9 DUP2 ADD SLOAD SWAP1 PUSH1 0xFF DUP1 DUP4 AND ISZERO SWAP3 DUP4 PUSH2 0xF26 JUMPI JUMPDEST POP POP DUP2 PUSH2 0xF14 JUMPI JUMPDEST DUP2 PUSH2 0xF05 JUMPI JUMPDEST POP PUSH2 0xECE JUMPI JUMPDEST POP PUSH2 0x1E5F JUMP JUMPDEST PUSH2 0xE7C JUMP JUMPDEST PUSH2 0xED7 DUP2 PUSH2 0x1D30 JUMP JUMPDEST PUSH32 0x1295FC1476EA13733F3084EFFFF7A9178DAF713E97031B21ED33BF8F4E71A452 DUP6 DUP8 MLOAD TIMESTAMP DUP2 MSTORE LOG2 CODESIZE PUSH2 0xEC3 JUMP JUMPDEST PUSH1 0x3 SWAP2 POP ADD SLOAD TIMESTAMP GT ISZERO CODESIZE PUSH2 0xEBD JUMP JUMPDEST DUP6 DUP2 ADD SLOAD PUSH1 0x1 DUP3 ADD SLOAD GT ISZERO SWAP2 POP PUSH2 0xEB7 JUMP JUMPDEST PUSH1 0x8 SHR AND ISZERO SWAP2 POP CODESIZE DUP1 PUSH2 0xEAF JUMP JUMPDEST DUP5 DUP1 RETURN JUMPDEST DUP3 CALLDATALOAD DUP2 MSTORE SWAP2 DUP2 ADD SWAP2 DUP6 SWAP2 ADD PUSH2 0xE6F JUMP JUMPDEST DUP5 DUP1 REVERT JUMPDEST POP SWAP2 CALLVALUE PUSH2 0x242 JUMPI PUSH1 0x20 CALLDATASIZE PUSH1 0x3 NOT ADD SLT PUSH2 0x242 JUMPI DUP2 PUSH1 0x20 SWAP4 PUSH1 0xFF SWAP3 CALLDATALOAD DUP2 MSTORE PUSH1 0x8 DUP6 MSTORE KECCAK256 SLOAD AND SWAP1 MLOAD SWAP1 ISZERO ISZERO DUP2 MSTORE RETURN JUMPDEST POP SWAP2 SWAP1 PUSH1 0x20 CALLDATASIZE PUSH1 0x3 NOT ADD SLT PUSH2 0x242 JUMPI DUP2 CALLDATALOAD PUSH2 0xF92 PUSH2 0x19F2 JUMP JUMPDEST PUSH2 0xF9A PUSH2 0x18EB JUMP JUMPDEST DUP1 DUP5 MSTORE PUSH1 0x6 PUSH1 0x20 MSTORE DUP2 DUP5 KECCAK256 SWAP2 PUSH1 0xFF PUSH1 0x7 DUP5 ADD SLOAD AND ISZERO PUSH2 0x1147 JUMPI PUSH1 0x6 DUP4 ADD SLOAD TIMESTAMP GT PUSH2 0x1138 JUMPI PUSH1 0x5 DUP4 ADD SWAP4 DUP5 SLOAD TIMESTAMP LT PUSH2 0x112A JUMPI PUSH1 0x2 DUP5 ADD SLOAD PUSH1 0x1 PUSH1 0x1 PUSH1 0xA0 SHL SUB SWAP2 SWAP1 DUP3 AND DUP1 PUSH2 0x10E3 JUMPI POP PUSH1 0x3 DUP6 ADD DUP1 SLOAD DUP1 CALLVALUE LT PUSH2 0x10D3 JUMPI DUP9 DUP1 DUP1 DUP1 SWAP4 DUP8 PUSH1 0x1 DUP13 ADD SLOAD AND GAS CALL PUSH2 0x1005 PUSH2 0x1CC2 JUMP JUMPDEST POP ISZERO PUSH2 0x10C4 JUMPI SLOAD DUP1 CALLVALUE GT PUSH2 0x107E JUMPI JUMPDEST POP SWAP1 PUSH2 0x1047 PUSH32 0x3C383309B20DFAE2B367289760FD90DE73B4FCE8F3A3667600A9A66B6ADEF5BC SWAP4 SWAP3 JUMPDEST DUP7 ADD SLOAD DUP8 SLOAD PUSH2 0x190C JUMP JUMPDEST DUP1 SWAP7 SSTORE PUSH1 0x3 DUP6 ADD SLOAD SWAP1 PUSH1 0x8 DUP7 ADD PUSH2 0x105F DUP4 DUP3 SLOAD PUSH2 0x190C JUMP JUMPDEST SWAP1 SSTORE PUSH1 0x1 DUP2 DUP8 SLOAD AND SWAP7 ADD SLOAD AND SWAP6 DUP3 MLOAD SWAP2 DUP3 MSTORE PUSH1 0x20 DUP3 ADD MSTORE LOG4 PUSH1 0x1 DUP2 SSTORE DUP1 RETURN JUMPDEST CALLVALUE SUB CALLVALUE DUP2 GT PUSH2 0x10B1 JUMPI DUP8 DUP1 DUP1 DUP1 SWAP4 CALLER GAS CALL PUSH2 0x1097 PUSH2 0x1CC2 JUMP JUMPDEST POP ISZERO PUSH2 0x10A3 JUMPI CODESIZE PUSH2 0x1014 JUMP JUMPDEST DUP3 MLOAD PUSH4 0x12171D83 PUSH1 0xE3 SHL DUP2 MSTORE REVERT JUMPDEST PUSH4 0x4E487B71 PUSH1 0xE0 SHL DUP9 MSTORE PUSH1 0x11 DUP3 MSTORE PUSH1 0x24 DUP9 REVERT JUMPDEST POP DUP3 MLOAD PUSH4 0x12171D83 PUSH1 0xE3 SHL DUP2 MSTORE REVERT JUMPDEST DUP5 MLOAD PUSH4 0x162908E3 PUSH1 0xE1 SHL DUP2 MSTORE DUP4 SWAP1 REVERT JUMPDEST DUP3 SWAP2 PUSH2 0x1125 PUSH2 0x1047 SWAP3 PUSH32 0x3C383309B20DFAE2B367289760FD90DE73B4FCE8F3A3667600A9A66B6ADEF5BC SWAP7 SWAP6 DUP10 SLOAD AND DUP6 PUSH1 0x1 DUP12 ADD SLOAD AND SWAP1 PUSH1 0x3 DUP12 ADD SLOAD SWAP3 PUSH2 0x192F JUMP JUMPDEST PUSH2 0x103D JUMP JUMPDEST SWAP1 MLOAD PUSH4 0x856A7577 PUSH1 0xE0 SHL DUP2 MSTORE REVERT JUMPDEST MLOAD PUSH4 0x893DCECF PUSH1 0xE0 SHL DUP2 MSTORE DUP4 SWAP1 REVERT JUMPDEST MLOAD PUSH4 0xDF0F4E9 PUSH1 0xE4 SHL DUP2 MSTORE DUP4 SWAP1 REVERT JUMPDEST POP SWAP2 CALLVALUE PUSH2 0x242 JUMPI DUP3 PUSH1 0x3 NOT CALLDATASIZE ADD SLT PUSH2 0x242 JUMPI PUSH2 0x1170 PUSH2 0x15E3 JUMP JUMPDEST PUSH1 0x1 SLOAD SWAP1 PUSH1 0xFF DUP3 PUSH1 0xA0 SHR AND ISZERO PUSH2 0x11B8 JUMPI POP PUSH1 0xFF PUSH1 0xA0 SHL NOT AND PUSH1 0x1 SSTORE MLOAD CALLER DUP2 MSTORE PUSH32 0x5DB9EE0A495BF2E6FF9C91A7834C1BA4FDD244A5E8AA4E537BD38AEAE4B073AA SWAP1 PUSH1 0x20 SWAP1 LOG1 DUP1 RETURN JUMPDEST DUP3 MLOAD PUSH4 0x8DFC202B PUSH1 0xE0 SHL DUP2 MSTORE REVERT JUMPDEST POP SWAP2 CALLVALUE PUSH2 0x242 JUMPI CALLDATASIZE PUSH1 0x3 NOT ADD PUSH2 0x120 DUP2 SLT PUSH2 0xBE9 JUMPI PUSH2 0x100 SGT PUSH2 0x242 JUMPI PUSH8 0xFFFFFFFFFFFFFFFF SWAP2 PUSH2 0x104 CALLDATALOAD DUP4 DUP2 GT PUSH2 0xF48 JUMPI PUSH2 0x1205 SWAP1 CALLDATASIZE SWAP1 DUP5 ADD PUSH2 0x150D JUMP JUMPDEST SWAP1 SWAP4 PUSH2 0x120F PUSH2 0x19F2 JUMP JUMPDEST PUSH2 0x1217 PUSH2 0x18EB JUMP JUMPDEST PUSH2 0x121F PUSH2 0x1A15 JUMP JUMPDEST PUSH2 0x1227 PUSH2 0x1A2B JUMP JUMPDEST SWAP3 PUSH2 0x1230 PUSH2 0x1A41 JUMP JUMPDEST SWAP3 PUSH1 0x64 CALLDATALOAD SWAP7 PUSH1 0x84 CALLDATALOAD SWAP9 PUSH1 0xC4 CALLDATALOAD SWAP4 PUSH1 0xE4 CALLDATALOAD SWAP6 DUP10 MLOAD DUP11 PUSH1 0x20 SWAP10 DUP11 DUP4 ADD SWAP4 PUSH32 0x3BF6A96BD439AECCFA0AE079DEBEAFBD20876716BD2E43B00C4F4B9571210281 DUP6 MSTORE PUSH1 0x1 DUP1 PUSH1 0xA0 SHL SUB SWAP13 DUP14 SWAP4 DUP5 DUP1 SWAP4 AND SWAP1 DUP7 ADD MSTORE AND PUSH1 0x60 DUP5 ADD MSTORE AND PUSH1 0x80 DUP3 ADD MSTORE DUP12 PUSH1 0xA0 DUP3 ADD MSTORE DUP13 PUSH1 0xC0 DUP3 ADD MSTORE PUSH1 0xA4 CALLDATALOAD SWAP6 DUP7 PUSH1 0xE0 DUP4 ADD MSTORE DUP8 PUSH2 0x100 DUP4 ADD MSTORE DUP9 PUSH2 0x120 DUP4 ADD MSTORE PUSH2 0x120 DUP3 MSTORE PUSH2 0x140 DUP3 ADD SWAP1 DUP3 DUP3 LT SWAP1 DUP3 GT OR PUSH2 0x14DE JUMPI DUP12 MSTORE MLOAD SWAP1 KECCAK256 PUSH1 0x42 SWAP1 PUSH2 0x12D6 PUSH2 0x1BA8 JUMP JUMPDEST SWAP1 DUP12 MLOAD SWAP2 PUSH2 0x1901 PUSH1 0xF0 SHL DUP4 MSTORE PUSH1 0x2 DUP4 ADD MSTORE PUSH1 0x22 DUP3 ADD MSTORE KECCAK256 PUSH2 0x12F6 DUP3 PUSH2 0x18CF JUMP JUMPDEST SWAP1 PUSH2 0x1303 DUP12 MLOAD SWAP3 DUP4 PUSH2 0x1695 JUMP JUMPDEST DUP3 DUP3 MSTORE DUP14 CALLDATASIZE DUP5 DUP7 ADD GT PUSH2 0x1B4 JUMPI DUP10 DUP5 PUSH2 0x1327 SWAP6 PUSH2 0x1330 SWAP8 DUP4 DUP8 ADD CALLDATACOPY DUP5 ADD ADD MSTORE PUSH2 0x1A57 JUMP JUMPDEST SWAP1 SWAP3 SWAP2 SWAP3 PUSH2 0x1B23 JUMP JUMPDEST DUP7 DUP1 PUSH2 0x133A PUSH2 0x1A15 JUMP JUMPDEST AND SWAP2 AND SUB PUSH2 0x14D0 JUMPI DUP6 PUSH2 0x134B PUSH2 0x1A15 JUMP JUMPDEST AND DUP11 MSTORE PUSH1 0x5 DUP6 MSTORE DUP7 DUP11 KECCAK256 DUP5 DUP12 MSTORE DUP6 MSTORE PUSH1 0xFF DUP8 DUP12 KECCAK256 SLOAD AND PUSH2 0x14C2 JUMPI DUP3 TIMESTAMP GT PUSH2 0x14B4 JUMPI SWAP3 PUSH1 0x1 PUSH1 0x7 DUP10 DUP9 SWAP7 SWAP6 DUP11 SWAP9 SWAP6 DUP14 DUP16 SWAP13 SWAP9 DUP10 DUP12 SWAP11 DUP16 PUSH32 0x50994AF435709064071E6160587EB110AEE99F876E414493EA76DF89D06E1B4D SWAP16 PUSH2 0x13AA PUSH2 0x1A15 JUMP JUMPDEST AND DUP2 MSTORE PUSH1 0x5 DUP13 MSTORE DUP2 DUP2 KECCAK256 DUP12 DUP3 MSTORE DUP13 MSTORE KECCAK256 SWAP9 PUSH1 0xFF NOT SWAP10 DUP10 DUP12 DUP3 SLOAD AND OR SWAP1 SSTORE DUP11 PUSH2 0x13D0 PUSH2 0x1A15 JUMP JUMPDEST SWAP2 PUSH2 0x13D9 PUSH2 0x1A2B JUMP JUMPDEST PUSH2 0x13E1 PUSH2 0x1A41 JUMP JUMPDEST DUP6 MLOAD SWAP4 DUP5 ADD SWAP5 PUSH1 0x1 PUSH1 0x1 PUSH1 0x60 SHL SUB NOT SWAP3 DUP4 DUP1 SWAP3 PUSH1 0x60 SHL AND DUP8 MSTORE PUSH1 0x60 SHL AND PUSH1 0x34 DUP6 ADD MSTORE PUSH1 0x60 SHL AND PUSH1 0x48 DUP4 ADD MSTORE PUSH1 0x5C DUP3 ADD MSTORE PUSH1 0x5C DUP2 MSTORE PUSH2 0x141E DUP2 PUSH2 0x160F JUMP JUMPDEST MLOAD SWAP1 KECCAK256 SWAP15 DUP16 DUP2 MSTORE PUSH1 0x6 DUP12 MSTORE KECCAK256 SWAP5 DUP11 PUSH2 0x1434 PUSH2 0x1A15 JUMP JUMPDEST AND PUSH1 0x1 PUSH1 0x1 PUSH1 0x60 SHL SUB PUSH1 0xA0 SHL SWAP1 DUP2 DUP9 SLOAD AND OR DUP8 SSTORE PUSH2 0x1450 PUSH2 0x1A2B JUMP JUMPDEST DUP13 DUP11 DUP10 ADD SWAP2 AND DUP3 DUP3 SLOAD AND OR SWAP1 SSTORE PUSH2 0x1465 PUSH2 0x1A41 JUMP JUMPDEST SWAP1 DUP13 PUSH1 0x2 DUP10 ADD SWAP3 AND SWAP1 DUP3 SLOAD AND OR SWAP1 SSTORE PUSH1 0x3 DUP7 ADD SSTORE DUP5 ADD SSTORE PUSH1 0x5 DUP4 ADD SSTORE PUSH1 0x6 DUP3 ADD SSTORE ADD SWAP2 DUP3 SLOAD AND OR SWAP1 SSTORE PUSH2 0x1496 PUSH2 0x1A15 JUMP JUMPDEST SWAP8 PUSH2 0x149F PUSH2 0x1A2B JUMP JUMPDEST SWAP2 DUP6 MLOAD SWAP9 DUP10 MSTORE DUP9 ADD MSTORE AND SWAP6 AND SWAP4 LOG4 PUSH1 0x1 DUP2 SSTORE DUP1 RETURN JUMPDEST DUP7 MLOAD PUSH4 0x893DCECF PUSH1 0xE0 SHL DUP2 MSTORE REVERT JUMPDEST DUP7 MLOAD PUSH4 0x1F6D5AEF PUSH1 0xE0 SHL DUP2 MSTORE REVERT JUMPDEST DUP7 MLOAD PUSH4 0x8BAA579F PUSH1 0xE0 SHL DUP2 MSTORE REVERT JUMPDEST PUSH4 0x4E487B71 PUSH1 0xE0 SHL DUP16 MSTORE PUSH1 0x41 DUP7 MSTORE PUSH1 0x24 DUP16 REVERT JUMPDEST SWAP1 POP CALLVALUE PUSH2 0x556 JUMPI DUP2 PUSH1 0x3 NOT CALLDATASIZE ADD SLT PUSH2 0x556 JUMPI PUSH1 0x20 SWAP1 PUSH1 0x7 SLOAD DUP2 MSTORE RETURN JUMPDEST SWAP2 DUP2 PUSH1 0x1F DUP5 ADD SLT ISZERO PUSH2 0x153B JUMPI DUP3 CALLDATALOAD SWAP2 PUSH8 0xFFFFFFFFFFFFFFFF DUP4 GT PUSH2 0x153B JUMPI PUSH1 0x20 DUP4 DUP2 DUP7 ADD SWAP6 ADD ADD GT PUSH2 0x153B JUMPI JUMP JUMPDEST PUSH1 0x0 DUP1 REVERT JUMPDEST PUSH1 0x4 CALLDATALOAD SWAP1 PUSH1 0x1 PUSH1 0x1 PUSH1 0xA0 SHL SUB DUP3 AND DUP3 SUB PUSH2 0x153B JUMPI JUMP JUMPDEST SWAP2 SWAP1 DUP3 MLOAD SWAP3 DUP4 DUP3 MSTORE PUSH1 0x0 JUMPDEST DUP5 DUP2 LT PUSH2 0x1582 JUMPI POP POP DUP3 PUSH1 0x0 PUSH1 0x20 DUP1 SWAP5 SWAP6 DUP5 ADD ADD MSTORE PUSH1 0x1F DUP1 NOT SWAP2 ADD AND ADD ADD SWAP1 JUMP JUMPDEST PUSH1 0x20 DUP2 DUP4 ADD DUP2 ADD MLOAD DUP5 DUP4 ADD DUP3 ADD MSTORE ADD PUSH2 0x1561 JUMP JUMPDEST PUSH1 0x7 SLOAD DUP2 LT ISZERO PUSH2 0x15CD JUMPI PUSH1 0x7 PUSH1 0x0 MSTORE PUSH32 0xA66CC928B5EDB82AF9BD49922954155AB7B0942694BEA4CE44661D9A8736C688 ADD SWAP1 PUSH1 0x0 SWAP1 JUMP JUMPDEST PUSH4 0x4E487B71 PUSH1 0xE0 SHL PUSH1 0x0 MSTORE PUSH1 0x32 PUSH1 0x4 MSTORE PUSH1 0x24 PUSH1 0x0 REVERT JUMPDEST PUSH1 0x1 SLOAD PUSH1 0x1 PUSH1 0x1 PUSH1 0xA0 SHL SUB AND CALLER SUB PUSH2 0x15F7 JUMPI JUMP JUMPDEST PUSH1 0x40 MLOAD PUSH4 0x118CDAA7 PUSH1 0xE0 SHL DUP2 MSTORE CALLER PUSH1 0x4 DUP3 ADD MSTORE PUSH1 0x24 SWAP1 REVERT JUMPDEST PUSH1 0x80 DUP2 ADD SWAP1 DUP2 LT PUSH8 0xFFFFFFFFFFFFFFFF DUP3 GT OR PUSH2 0x162B JUMPI PUSH1 0x40 MSTORE JUMP JUMPDEST PUSH4 0x4E487B71 PUSH1 0xE0 SHL PUSH1 0x0 MSTORE PUSH1 0x41 PUSH1 0x4 MSTORE PUSH1 0x24 PUSH1 0x0 REVERT JUMPDEST PUSH1 0xC0 DUP2 ADD SWAP1 DUP2 LT PUSH8 0xFFFFFFFFFFFFFFFF DUP3 GT OR PUSH2 0x162B JUMPI PUSH1 0x40 MSTORE JUMP JUMPDEST PUSH1 0x20 DUP2 ADD SWAP1 DUP2 LT PUSH8 0xFFFFFFFFFFFFFFFF DUP3 GT OR PUSH2 0x162B JUMPI PUSH1 0x40 MSTORE JUMP JUMPDEST PUSH1 0x40 DUP2 ADD SWAP1 DUP2 LT PUSH8 0xFFFFFFFFFFFFFFFF DUP3 GT OR PUSH2 0x162B JUMPI PUSH1 0x40 MSTORE JUMP JUMPDEST SWAP1 PUSH1 0x1F DUP1 NOT SWAP2 ADD AND DUP2 ADD SWAP1 DUP2 LT PUSH8 0xFFFFFFFFFFFFFFFF DUP3 GT OR PUSH2 0x162B JUMPI PUSH1 0x40 MSTORE JUMP JUMPDEST PUSH8 0xFFFFFFFFFFFFFFFF DUP2 GT PUSH2 0x162B JUMPI PUSH1 0x5 SHL PUSH1 0x20 ADD SWAP1 JUMP JUMPDEST PUSH1 0xFF DUP2 EQ PUSH2 0x170D JUMPI PUSH1 0xFF DUP2 AND SWAP1 PUSH1 0x1F DUP3 GT PUSH2 0x16FB JUMPI PUSH1 0x40 MLOAD SWAP2 PUSH2 0x16F1 DUP4 PUSH2 0x1679 JUMP JUMPDEST DUP3 MSTORE PUSH1 0x20 DUP3 ADD MSTORE SWAP1 JUMP JUMPDEST PUSH1 0x40 MLOAD PUSH4 0x2CD44AC3 PUSH1 0xE2 SHL DUP2 MSTORE PUSH1 0x4 SWAP1 REVERT JUMPDEST POP PUSH1 0x40 MLOAD PUSH1 0x0 PUSH1 0x2 SLOAD SWAP1 PUSH1 0x1 DUP3 DUP2 SHR SWAP1 DUP1 DUP5 AND SWAP4 DUP5 ISZERO PUSH2 0x17EF JUMPI JUMPDEST PUSH1 0x20 SWAP5 DUP6 DUP5 LT DUP2 EQ PUSH2 0x17DB JUMPI DUP4 DUP8 MSTORE DUP7 SWAP5 SWAP4 SWAP3 SWAP2 DUP2 ISZERO PUSH2 0x17BB JUMPI POP PUSH1 0x1 EQ PUSH2 0x175C JUMPI JUMPDEST POP POP PUSH2 0x1759 SWAP3 POP SUB DUP3 PUSH2 0x1695 JUMP JUMPDEST SWAP1 JUMP JUMPDEST SWAP1 SWAP4 SWAP2 POP PUSH1 0x2 PUSH1 0x0 MSTORE PUSH32 0x405787FA12A823E0F2B7631CC41B3BA8828B3321CA811111FA75CD3AA3BB5ACE SWAP4 PUSH1 0x0 SWAP2 JUMPDEST DUP2 DUP4 LT PUSH2 0x17A3 JUMPI POP POP PUSH2 0x1759 SWAP4 POP DUP3 ADD ADD CODESIZE DUP1 PUSH2 0x174B JUMP JUMPDEST DUP6 SLOAD DUP8 DUP5 ADD DUP6 ADD MSTORE SWAP5 DUP6 ADD SWAP5 DUP7 SWAP5 POP SWAP2 DUP4 ADD SWAP2 PUSH2 0x178B JUMP JUMPDEST SWAP2 POP POP PUSH2 0x1759 SWAP5 SWAP3 POP PUSH1 0xFF NOT AND DUP3 DUP5 ADD MSTORE ISZERO ISZERO PUSH1 0x5 SHL DUP3 ADD ADD CODESIZE DUP1 PUSH2 0x174B JUMP JUMPDEST PUSH4 0x4E487B71 PUSH1 0xE0 SHL DUP6 MSTORE PUSH1 0x22 PUSH1 0x4 MSTORE PUSH1 0x24 DUP6 REVERT JUMPDEST SWAP2 PUSH1 0x7F AND SWAP2 PUSH2 0x1728 JUMP JUMPDEST PUSH1 0xFF DUP2 EQ PUSH2 0x181B JUMPI PUSH1 0xFF DUP2 AND SWAP1 PUSH1 0x1F DUP3 GT PUSH2 0x16FB JUMPI PUSH1 0x40 MLOAD SWAP2 PUSH2 0x16F1 DUP4 PUSH2 0x1679 JUMP JUMPDEST POP PUSH1 0x40 MLOAD PUSH1 0x0 PUSH1 0x3 SLOAD SWAP1 PUSH1 0x1 DUP3 DUP2 SHR SWAP1 DUP1 DUP5 AND SWAP4 DUP5 ISZERO PUSH2 0x18C5 JUMPI JUMPDEST PUSH1 0x20 SWAP5 DUP6 DUP5 LT DUP2 EQ PUSH2 0x17DB JUMPI DUP4 DUP8 MSTORE DUP7 SWAP5 SWAP4 SWAP3 SWAP2 DUP2 ISZERO PUSH2 0x17BB JUMPI POP PUSH1 0x1 EQ PUSH2 0x1866 JUMPI POP POP PUSH2 0x1759 SWAP3 POP SUB DUP3 PUSH2 0x1695 JUMP JUMPDEST SWAP1 SWAP4 SWAP2 POP PUSH1 0x3 PUSH1 0x0 MSTORE PUSH32 0xC2575A0E9E593C00F959F8C92F12DB2869C3395A3B0502D05E2516446F71F85B SWAP4 PUSH1 0x0 SWAP2 JUMPDEST DUP2 DUP4 LT PUSH2 0x18AD JUMPI POP POP PUSH2 0x1759 SWAP4 POP DUP3 ADD ADD CODESIZE DUP1 PUSH2 0x174B JUMP JUMPDEST DUP6 SLOAD DUP8 DUP5 ADD DUP6 ADD MSTORE SWAP5 DUP6 ADD SWAP5 DUP7 SWAP5 POP SWAP2 DUP4 ADD SWAP2 PUSH2 0x1895 JUMP JUMPDEST SWAP2 PUSH1 0x7F AND SWAP2 PUSH2 0x1836 JUMP JUMPDEST PUSH8 0xFFFFFFFFFFFFFFFF DUP2 GT PUSH2 0x162B JUMPI PUSH1 0x1F ADD PUSH1 0x1F NOT AND PUSH1 0x20 ADD SWAP1 JUMP JUMPDEST PUSH1 0xFF PUSH1 0x1 SLOAD PUSH1 0xA0 SHR AND PUSH2 0x18FA JUMPI JUMP JUMPDEST PUSH1 0x40 MLOAD PUSH4 0xD93C0665 PUSH1 0xE0 SHL DUP2 MSTORE PUSH1 0x4 SWAP1 REVERT JUMPDEST SWAP2 SWAP1 DUP3 ADD DUP1 SWAP3 GT PUSH2 0x1919 JUMPI JUMP JUMPDEST PUSH4 0x4E487B71 PUSH1 0xE0 SHL PUSH1 0x0 MSTORE PUSH1 0x11 PUSH1 0x4 MSTORE PUSH1 0x24 PUSH1 0x0 REVERT JUMPDEST PUSH1 0x40 MLOAD PUSH4 0x23B872DD PUSH1 0xE0 SHL PUSH1 0x20 DUP3 ADD MSTORE PUSH1 0x1 PUSH1 0x1 PUSH1 0xA0 SHL SUB SWAP3 DUP4 AND PUSH1 0x24 DUP3 ADD MSTORE SWAP3 SWAP1 SWAP2 AND PUSH1 0x44 DUP4 ADD MSTORE PUSH1 0x64 DUP1 DUP4 ADD SWAP4 SWAP1 SWAP4 MSTORE SWAP2 DUP2 MSTORE PUSH1 0xA0 DUP2 ADD SWAP2 DUP2 DUP4 LT PUSH8 0xFFFFFFFFFFFFFFFF DUP5 GT OR PUSH2 0x162B JUMPI PUSH2 0x1988 SWAP3 PUSH1 0x40 MSTORE PUSH2 0x198A JUMP JUMPDEST JUMP JUMPDEST SWAP1 PUSH1 0x0 PUSH1 0x20 SWAP2 DUP3 DUP2 MLOAD SWAP2 ADD DUP3 DUP6 GAS CALL ISZERO PUSH2 0x19E6 JUMPI PUSH1 0x0 MLOAD RETURNDATASIZE PUSH2 0x19DD JUMPI POP PUSH1 0x1 PUSH1 0x1 PUSH1 0xA0 SHL SUB DUP2 AND EXTCODESIZE ISZERO JUMPDEST PUSH2 0x19BB JUMPI POP JUMP JUMPDEST PUSH1 0x40 MLOAD PUSH4 0x5274AFE7 PUSH1 0xE0 SHL DUP2 MSTORE PUSH1 0x1 PUSH1 0x1 PUSH1 0xA0 SHL SUB SWAP1 SWAP2 AND PUSH1 0x4 DUP3 ADD MSTORE PUSH1 0x24 SWAP1 REVERT JUMPDEST PUSH1 0x1 EQ ISZERO PUSH2 0x19B4 JUMP JUMPDEST PUSH1 0x40 MLOAD RETURNDATASIZE PUSH1 0x0 DUP3 RETURNDATACOPY RETURNDATASIZE SWAP1 REVERT JUMPDEST PUSH1 0x2 PUSH1 0x0 SLOAD EQ PUSH2 0x1A03 JUMPI PUSH1 0x2 PUSH1 0x0 SSTORE JUMP JUMPDEST PUSH1 0x40 MLOAD PUSH4 0x3EE5AEB5 PUSH1 0xE0 SHL DUP2 MSTORE PUSH1 0x4 SWAP1 REVERT JUMPDEST PUSH1 0x4 CALLDATALOAD PUSH1 0x1 PUSH1 0x1 PUSH1 0xA0 SHL SUB DUP2 AND DUP2 SUB PUSH2 0x153B JUMPI SWAP1 JUMP JUMPDEST PUSH1 0x24 CALLDATALOAD PUSH1 0x1 PUSH1 0x1 PUSH1 0xA0 SHL SUB DUP2 AND DUP2 SUB PUSH2 0x153B JUMPI SWAP1 JUMP JUMPDEST PUSH1 0x44 CALLDATALOAD PUSH1 0x1 PUSH1 0x1 PUSH1 0xA0 SHL SUB DUP2 AND DUP2 SUB PUSH2 0x153B JUMPI SWAP1 JUMP JUMPDEST DUP2 MLOAD SWAP2 SWAP1 PUSH1 0x41 DUP4 SUB PUSH2 0x1A88 JUMPI PUSH2 0x1A81 SWAP3 POP PUSH1 0x20 DUP3 ADD MLOAD SWAP1 PUSH1 0x60 PUSH1 0x40 DUP5 ADD MLOAD SWAP4 ADD MLOAD PUSH1 0x0 BYTE SWAP1 PUSH2 0x1A93 JUMP JUMPDEST SWAP2 SWAP3 SWAP1 SWAP2 SWAP1 JUMP JUMPDEST POP POP PUSH1 0x0 SWAP2 PUSH1 0x2 SWAP2 SWAP1 JUMP JUMPDEST SWAP2 SWAP1 PUSH32 0x7FFFFFFFFFFFFFFFFFFFFFFFFFFFFFFF5D576E7357A4501DDFE92F46681B20A0 DUP5 GT PUSH2 0x1B17 JUMPI SWAP3 PUSH1 0x20 SWAP3 SWAP2 PUSH1 0xFF PUSH1 0x80 SWAP6 PUSH1 0x40 MLOAD SWAP5 DUP6 MSTORE AND DUP5 DUP5 ADD MSTORE PUSH1 0x40 DUP4 ADD MSTORE PUSH1 0x60 DUP3 ADD MSTORE PUSH1 0x0 SWAP3 DUP4 SWAP2 DUP3 DUP1 MSTORE PUSH1 0x1 GAS STATICCALL ISZERO PUSH2 0x1B0B JUMPI DUP1 MLOAD PUSH1 0x1 PUSH1 0x1 PUSH1 0xA0 SHL SUB DUP2 AND ISZERO PUSH2 0x1B02 JUMPI SWAP2 DUP2 SWAP1 JUMP JUMPDEST POP DUP1 SWAP2 PUSH1 0x1 SWAP2 SWAP1 JUMP JUMPDEST PUSH1 0x40 MLOAD SWAP1 RETURNDATASIZE SWAP1 DUP3 RETURNDATACOPY RETURNDATASIZE SWAP1 REVERT JUMPDEST POP POP POP PUSH1 0x0 SWAP2 PUSH1 0x3 SWAP2 SWAP1 JUMP JUMPDEST PUSH1 0x4 DUP2 LT ISZERO PUSH2 0x1B92 JUMPI DUP1 PUSH2 0x1B35 JUMPI POP POP JUMP JUMPDEST PUSH1 0x1 DUP2 SUB PUSH2 0x1B4F JUMPI PUSH1 0x40 MLOAD PUSH4 0xF645EEDF PUSH1 0xE0 SHL DUP2 MSTORE PUSH1 0x4 SWAP1 REVERT JUMPDEST PUSH1 0x2 DUP2 SUB PUSH2 0x1B70 JUMPI PUSH1 0x40 MLOAD PUSH4 0xFCE698F7 PUSH1 0xE0 SHL DUP2 MSTORE PUSH1 0x4 DUP2 ADD DUP4 SWAP1 MSTORE PUSH1 0x24 SWAP1 REVERT JUMPDEST PUSH1 0x3 EQ PUSH2 0x1B7A JUMPI POP JUMP JUMPDEST PUSH1 0x24 SWAP1 PUSH1 0x40 MLOAD SWAP1 PUSH4 0x35E2F383 PUSH1 0xE2 SHL DUP3 MSTORE PUSH1 0x4 DUP3 ADD MSTORE REVERT JUMPDEST PUSH4 0x4E487B71 PUSH1 0xE0 SHL PUSH1 0x0 MSTORE PUSH1 0x21 PUSH1 0x4 MSTORE PUSH1 0x24 PUSH1 0x0 REVERT JUMPDEST ADDRESS PUSH32 0x0 PUSH1 0x1 PUSH1 0x1 PUSH1 0xA0 SHL SUB AND EQ DUP1 PUSH2 0x1C99 JUMPI JUMPDEST ISZERO PUSH2 0x1C03 JUMPI PUSH32 0x0 SWAP1 JUMP JUMPDEST PUSH1 0x40 MLOAD PUSH1 0x20 DUP2 ADD SWAP1 PUSH32 0x8B73C3C69BB8FE3D512ECC4CF759CC79239F7B179B0FFACAA9A75D522B39400F DUP3 MSTORE PUSH32 0x0 PUSH1 0x40 DUP3 ADD MSTORE PUSH32 0x0 PUSH1 0x60 DUP3 ADD MSTORE CHAINID PUSH1 0x80 DUP3 ADD MSTORE ADDRESS PUSH1 0xA0 DUP3 ADD MSTORE PUSH1 0xA0 DUP2 MSTORE PUSH2 0x1C93 DUP2 PUSH2 0x1641 JUMP JUMPDEST MLOAD SWAP1 KECCAK256 SWAP1 JUMP JUMPDEST POP PUSH32 0x0 CHAINID EQ PUSH2 0x1BDA JUMP JUMPDEST RETURNDATASIZE ISZERO PUSH2 0x1CED JUMPI RETURNDATASIZE SWAP1 PUSH2 0x1CD3 DUP3 PUSH2 0x18CF JUMP JUMPDEST SWAP2 PUSH2 0x1CE1 PUSH1 0x40 MLOAD SWAP4 DUP5 PUSH2 0x1695 JUMP JUMPDEST DUP3 MSTORE RETURNDATASIZE PUSH1 0x0 PUSH1 0x20 DUP5 ADD RETURNDATACOPY JUMP JUMPDEST PUSH1 0x60 SWAP1 JUMP JUMPDEST PUSH1 0x40 MLOAD PUSH4 0xA9059CBB PUSH1 0xE0 SHL PUSH1 0x20 DUP3 ADD MSTORE PUSH1 0x1 PUSH1 0x1 PUSH1 0xA0 SHL SUB SWAP1 SWAP3 AND PUSH1 0x24 DUP4 ADD MSTORE PUSH1 0x44 DUP1 DUP4 ADD SWAP4 SWAP1 SWAP4 MSTORE SWAP2 DUP2 MSTORE PUSH2 0x1988 SWAP2 PUSH2 0x1D2B DUP3 PUSH2 0x160F JUMP JUMPDEST PUSH2 0x198A JUMP JUMPDEST PUSH1 0x0 SWAP1 DUP1 DUP3 MSTORE PUSH1 0x4 PUSH1 0x20 MSTORE PUSH1 0x40 DUP3 KECCAK256 SWAP2 PUSH1 0x5 DUP4 ADD DUP1 SLOAD PUSH1 0xFF DUP2 AND DUP1 ISZERO PUSH2 0x1E20 JUMPI JUMPDEST PUSH2 0x1E19 JUMPI PUSH1 0xFF NOT AND PUSH1 0x1 OR SWAP1 SSTORE PUSH1 0x2 DUP4 ADD SLOAD PUSH1 0x1 PUSH1 0x1 PUSH1 0xA0 SHL SUB SWAP2 SWAP1 DUP3 AND DUP1 PUSH2 0x1DDA JUMPI POP DUP1 DUP1 DUP1 DUP5 DUP8 SLOAD AND PUSH1 0x4 DUP9 ADD SLOAD SWAP1 GAS CALL PUSH2 0x1D8C PUSH2 0x1CC2 JUMP JUMPDEST POP ISZERO PUSH2 0x1DC8 JUMPI PUSH1 0x20 PUSH1 0x4 PUSH32 0x133405E74FA883CC1E7A54282140C2473DA655A05387DAE06A5C0DA4C7565829 SWAP3 JUMPDEST DUP6 SLOAD AND SWAP5 ADD SLOAD PUSH1 0x40 MLOAD SWAP1 DUP2 MSTORE LOG3 JUMP JUMPDEST PUSH1 0x40 MLOAD PUSH4 0x12171D83 PUSH1 0xE3 SHL DUP2 MSTORE PUSH1 0x4 SWAP1 REVERT JUMPDEST PUSH1 0x20 SWAP2 POP DUP3 PUSH2 0x1E14 PUSH1 0x4 SWAP3 PUSH32 0x133405E74FA883CC1E7A54282140C2473DA655A05387DAE06A5C0DA4C7565829 SWAP6 DUP9 SLOAD AND DUP5 DUP10 ADD SLOAD SWAP2 PUSH2 0x1CF2 JUMP JUMPDEST PUSH2 0x1DB9 JUMP JUMPDEST POP POP POP POP POP JUMP JUMPDEST POP PUSH1 0xFF DUP2 PUSH1 0x8 SHR AND PUSH2 0x1D51 JUMP JUMPDEST SWAP1 PUSH2 0x1E37 DUP3 PUSH2 0x16B7 JUMP JUMPDEST PUSH2 0x1E44 PUSH1 0x40 MLOAD SWAP2 DUP3 PUSH2 0x1695 JUMP JUMPDEST DUP3 DUP2 MSTORE DUP1 SWAP3 PUSH2 0x1E55 PUSH1 0x1F NOT SWAP2 PUSH2 0x16B7 JUMP JUMPDEST ADD SWAP1 PUSH1 0x20 CALLDATASIZE SWAP2 ADD CALLDATACOPY JUMP JUMPDEST PUSH1 0x0 NOT DUP2 EQ PUSH2 0x1919 JUMPI PUSH1 0x1 ADD SWAP1 JUMP JUMPDEST DUP1 MLOAD DUP3 LT ISZERO PUSH2 0x15CD JUMPI PUSH1 0x20 SWAP2 PUSH1 0x5 SHL ADD ADD SWAP1 JUMP INVALID LOG2 PUSH5 0x6970667358 0x22 SLT KECCAK256 SWAP10 PUSH0 0x2E 0xD8 0xAE PREVRANDAO 0xCC 0xAF SHL 0xAF XOR 0x5C 0xB1 0xC6 0xBE 0xD7 0xC0 0xF9 0x28 INVALID 0xA9 SWAP9 XOR 0xF8 0xB8 0xE1 DUP10 0xC5 0xD9 SWAP13 0x24 COINBASE PUSH5 0x736F6C6343 STOP ADDMOD EQ STOP CALLER "},"methodIdentifiers":{"SUBSCRIPTION_CONSENT_TYPEHASH()":"dc93ed78","allInvoiceIds(uint256)":"e739d90d","checkUpkeep(bytes)":"6e04ff0d","createInvoice(address,uint256,address,uint256)":"4dd9d955","createSubscriptionWithConsent((address,address,address,uint256,uint256,uint256,uint256,uint256),bytes)":"3d478ba9","eip712Domain()":"84b0196e","fundInvoice(bytes32)":"e9c9bd99","getContribution(bytes32,address)":"6693643f","getInvoice(bytes32)":"cb802c8b","getInvoiceIdAtIndex(uint256)":"dedc0b04","getTotalInvoiceCount()":"29433dea","invoiceTracked(bytes32)":"42f144be","invoices(bytes32)":"f8a8a076","owner()":"8da5cb5b","pause()":"8456cb59","paused()":"5c975abb","performUpkeep(bytes)":"4585e33b","pullSubscriptionPayment(bytes32)":"41508efa","renounceOwnership()":"715018a6","requestRefund(bytes32)":"775274a1","subscriptions(bytes32)":"94259c6c","transferOwnership(address)":"f2fde38b","unpause()":"3f4ba83a","usedNonces(address,uint256)":"6a8a6894"}}}}}