{"contracts/SplitBilling.sol":{"SplitBilling":{"abi":[{"inputs":[],"name":"AlreadyPaid","type":"error"},{"inputs":[],"name":"ClaimTransferFailed","type":"error"},{"inputs":[],"name":"InvalidAmount","type":"error"},{"inputs":[],"name":"InvalidInput","type":"error"},{"inputs":[],"name":"ReentrancyGuardReentrantCall","type":"error"},{"inputs":[],"name":"SplitExpired","type":"error"},{"inputs":[],"name":"SplitNotFound","type":"error"},{"anonymous":false,"inputs":[{"indexed":true,"internalType":"address","name":"recipient","type":"address"},{"indexed":false,"internalType":"address","name":"token","type":"address"},{"indexed":false,"internalType":"uint256","name":"amount","type":"uint256"}],"name":"FailedTransferClaimed","type":"event"},{"anonymous":false,"inputs":[{"indexed":true,"internalType":"uint256","name":"splitId","type":"uint256"},{"indexed":true,"internalType":"address","name":"recipient","type":"address"},{"indexed":false,"internalType":"address","name":"token","type":"address"},{"indexed":false,"internalType":"uint256","name":"amount","type":"uint256"}],"name":"RecipientPaid","type":"event"},{"anonymous":false,"inputs":[{"indexed":true,"internalType":"uint256","name":"splitId","type":"uint256"},{"indexed":true,"internalType":"address","name":"payer","type":"address"},{"indexed":false,"internalType":"address","name":"token","type":"address"},{"indexed":false,"internalType":"uint256","name":"totalAmount","type":"uint256"},{"indexed":false,"internalType":"uint256","name":"deadline","type":"uint256"},{"indexed":false,"internalType":"address[]","name":"recipients","type":"address[]"},{"indexed":false,"internalType":"uint256[]","name":"shares","type":"uint256[]"}],"name":"SplitCreated","type":"event"},{"anonymous":false,"inputs":[{"indexed":true,"internalType":"uint256","name":"splitId","type":"uint256"},{"indexed":true,"internalType":"address","name":"payer","type":"address"},{"indexed":false,"internalType":"address","name":"token","type":"address"},{"indexed":false,"internalType":"uint256","name":"totalAmount","type":"uint256"},{"indexed":false,"internalType":"uint256","name":"successCount","type":"uint256"},{"indexed":false,"internalType":"uint256","name":"failCount","type":"uint256"}],"name":"SplitExecuted","type":"event"},{"anonymous":false,"inputs":[{"indexed":true,"internalType":"uint256","name":"splitId","type":"uint256"},{"indexed":true,"internalType":"address","name":"recipient","type":"address"},{"indexed":false,"internalType":"address","name":"token","type":"address"},{"indexed":false,"internalType":"uint256","name":"amount","type":"uint256"}],"name":"TransferFailed","type":"event"},{"anonymous":false,"inputs":[{"indexed":true,"internalType":"uint256","name":"splitId","type":"uint256"},{"indexed":true,"internalType":"address","name":"recipient","type":"address"},{"indexed":false,"internalType":"uint256","name":"deadline","type":"uint256"}],"name":"UnpaidRecipientAlert","type":"event"},{"inputs":[],"name":"BASIS_POINTS","outputs":[{"internalType":"uint256","name":"","type":"uint256"}],"stateMutability":"view","type":"function"},{"inputs":[],"name":"ETH_TOKEN","outputs":[{"internalType":"address","name":"","type":"address"}],"stateMutability":"view","type":"function"},{"inputs":[],"name":"GAS_LIMIT","outputs":[{"internalType":"uint256","name":"","type":"uint256"}],"stateMutability":"view","type":"function"},{"inputs":[],"name":"MAX_RECIPIENTS","outputs":[{"internalType":"uint256","name":"","type":"uint256"}],"stateMutability":"view","type":"function"},{"inputs":[{"internalType":"uint256","name":"splitId","type":"uint256"}],"name":"checkUnpaidRecipients","outputs":[],"stateMutability":"nonpayable","type":"function"},{"inputs":[{"internalType":"address","name":"token","type":"address"}],"name":"claimFailedTransfer","outputs":[],"stateMutability":"nonpayable","type":"function"},{"inputs":[{"internalType":"address[]","name":"recipients","type":"address[]"},{"internalType":"uint256[]","name":"shares","type":"uint256[]"},{"internalType":"address","name":"token","type":"address"},{"internalType":"uint256","name":"deadline","type":"uint256"}],"name":"createSplit","outputs":[{"internalType":"uint256","name":"splitId","type":"uint256"}],"stateMutability":"payable","type":"function"},{"inputs":[{"internalType":"uint256","name":"splitId","type":"uint256"}],"name":"executeSplit","outputs":[],"stateMutability":"nonpayable","type":"function"},{"inputs":[{"internalType":"address","name":"","type":"address"},{"internalType":"address","name":"","type":"address"}],"name":"failedTransfers","outputs":[{"internalType":"uint256","name":"","type":"uint256"}],"stateMutability":"view","type":"function"},{"inputs":[{"internalType":"address","name":"recipient","type":"address"},{"internalType":"address","name":"token","type":"address"}],"name":"getFailedAmount","outputs":[{"internalType":"uint256","name":"","type":"uint256"}],"stateMutability":"view","type":"function"},{"inputs":[{"internalType":"uint256","name":"splitId","type":"uint256"}],"name":"getSplitDetails","outputs":[{"internalType":"address","name":"payer","type":"address"},{"internalType":"address","name":"token","type":"address"},{"internalType":"uint256","name":"totalAmount","type":"uint256"},{"internalType":"uint256","name":"deadline","type":"uint256"},{"internalType":"bool","name":"completed","type":"bool"},{"internalType":"uint256","name":"successCount","type":"uint256"},{"internalType":"uint256","name":"failCount","type":"uint256"},{"internalType":"address[]","name":"recipients","type":"address[]"},{"internalType":"uint256[]","name":"shares","type":"uint256[]"}],"stateMutability":"view","type":"function"},{"inputs":[{"internalType":"uint256","name":"splitId","type":"uint256"},{"internalType":"address","name":"recipient","type":"address"}],"name":"hasRecipientPaid","outputs":[{"internalType":"bool","name":"","type":"bool"}],"stateMutability":"view","type":"function"},{"inputs":[],"name":"splitCounter","outputs":[{"internalType":"uint256","name":"","type":"uint256"}],"stateMutability":"view","type":"function"},{"inputs":[{"internalType":"uint256","name":"","type":"uint256"}],"name":"splitRequests","outputs":[{"internalType":"address","name":"payer","type":"address"},{"internalType":"address","name":"token","type":"address"},{"internalType":"uint256","name":"totalAmount","type":"uint256"},{"internalType":"uint256","name":"deadline","type":"uint256"},{"internalType":"bool","name":"completed","type":"bool"},{"internalType":"uint256","name":"successCount","type":"uint256"},{"internalType":"uint256","name":"failCount","type":"uint256"}],"stateMutability":"view","type":"function"},{"stateMutability":"payable","type":"receive"}],"evm":{"bytecode":{"linkReferences":{},"object":"6080806040523461001b5760016000556110bb90816100218239f35b600080fdfe608080604052600436101561001d575b50361561001b57600080fd5b005b60003560e01c908163091d278814610bc85750806309ae54be14610a7e5780631319afc314610a015780631b60f266146102a05780634bbffcb11461096857806358bc83371461094c5780637bee3c0f146108e35780639d71463a1461042e578063a24e6e0414610348578063a6980ce21461032c578063c854a85d1461030e578063e1f1c4a7146102f1578063e65c31c4146102a05763f6b30c60146100c4573861000f565b3461029b57602036600319011261029b5760043580158015610290575b61027e576000526002602052604060002060018060a01b038154169060018060a01b036001820154169060028101549160038201549360ff6004840154169060058401546006850154936007860194604051928360208854918281520190819860005260206000209060005b81811061025f5750505084610163910385610c96565b6040519586602060088b01549182815201906008829b0160005260206000209060005b818110610249575050508761019c910388610c96565b6040519a8b9a61012095868d01988d5260208d015260408c015260608b0152151560808a015260a089015260c088015260e0870152518091526101408501929060005b81811061022757505050602090848303610100860152519182815201919060005b81811061020e575050500390f35b8251845285945060209384019390920191600101610200565b82516001600160a01b03168552879650602094850194909201916001016101df565b8254845260209093019260019283019201610186565b82546001600160a01b031684526020909301926001928301920161014d565b6040516380df553960e01b8152600490fd5b5060035481116100e1565b600080fd5b3461029b57604036600319011261029b576102b9610be3565b6102c1610bf9565b9060018060a01b038091166000526001602052604060002091166000526020526020604060002054604051908152f35b3461029b57600036600319011261029b5760206040516127108152f35b3461029b57600036600319011261029b576020600354604051908152f35b3461029b57600036600319011261029b57602060405160148152f35b3461029b5760208060031936011261029b576004359081158015610423575b61027e57816000526002815260406000206003928382015480421115610411576000939293926007850195600987549601945b8681106103a357005b806103b16103dc928a610d27565b905490841b1c6001600160a01b03166000818152888652604090205460ff16156103e1575b50610c40565b61039a565b867fc944e3c30d2006adf5afb37e5fe589410b4ae34dad46f311007daac3720ee96086604051898152a3896103d6565b60405163b4fa3fb360e01b8152600490fd5b506003548211610367565b608036600319011261029b5760043567ffffffffffffffff811161029b5761045a903690600401610c0f565b9060243567ffffffffffffffff811161029b5761047b903690600401610c0f565b6044359291906001600160a01b038416840361029b57610499610d04565b841580156108d9575b6104115780850361041157426064351115610411576001600160a01b038416159485156108d15734955b8615806108ca575b610411576000805b84821061086f576127109150036104115715610783575b6104fe600354610c40565b94856003558560005260026020526040600020336bffffffffffffffffffffffff60a01b8254161781556001810160018060a01b0383166bffffffffffffffffffffffff60a01b825416179055876002820155606435600382015567ffffffffffffffff831161075257600160401b8311610752576007810161058684825481845583610cd0565b869060005260206000209060005b8581106107685750505067ffffffffffffffff841161075257600160401b841161075257908160088493016105ce86825481845583610cd0565b869060005260206000209060005b87811061073b5750505060005b8381106106c05750506040519760a089019160018060a01b031689526020890152606435604089015260a060608901525260c0860193906000905b8082106106965750505084830360808601528083526001600160fb1b03811161029b57846020809686947fb010e520439ff6123538d2bf911123dce8a3c0e4007bc029fb3373d9d3bdf8b49460051b809184890137339601030190a361068981610d7f565b6001600055604051908152f35b90919485359060018060a01b03821680920361029b57602081600193829352019601920190610624565b909192506106cf818688610c4f565b3590898281020482148a1517156107255761071c91612710906001600160a01b036107036106fe858a8e610c4f565b610c75565b16600052600a85016020528b0204604060002055610c40565b908392916105e9565b634e487b7160e01b600052601160045260246000fd5b8135818401558695506020909101906001016105dc565b634e487b7160e01b600052604160045260246000fd5b600190602061077684610c75565b9301928185015501610594565b604051636eb1769f60e11b81523360048201523060248201529550602080876044816001600160a01b038a165afa96871561083457600097610840575b506040516323b872dd60e01b815233600482015230602482015260448101889052818160648160006001600160a01b038c165af1801561083457610806575b50506104f3565b8161082592903d1061082d575b61081d8183610c96565b810190610cb8565b5086806107ff565b503d610813565b6040513d6000823e3d90fd5b9080975081813d8311610868575b6108588183610c96565b8101031261029b575195876107c0565b503d61084e565b6001600160a01b036108856106fe84878b610c4f565b161580156108b7575b610411576108ab6108b1916108a484888a610c4f565b3590610c89565b91610c40565b906104dc565b506108c3828688610c4f565b351561088e565b50806104d4565b6000956104cc565b50601485116104a2565b3461029b57604036600319011261029b576004356108ff610bf9565b9080158015610941575b61027e57600052600260205260096040600020019060018060a01b0316600052602052602060ff604060002054166040519015158152f35b506003548111610909565b3461029b57600036600319011261029b57602060405160008152f35b3461029b57602036600319011261029b57600435610984610d04565b801580156109f6575b61027e5780600052600260205260ff600460406000200154166109e45780600052600260205260036040600020015442116109d2576109cb90610d7f565b6001600055005b60405163289e2d1b60e01b8152600490fd5b604051630d70a0e360e41b8152600490fd5b50600354811161098d565b3461029b57602036600319011261029b57600435600052600260205260e0604060002060018060a01b03908181541691600182015416906002810154600382015460ff6004840154169160066005850154940154946040519687526020870152604086015260608501521515608084015260a083015260c0820152f35b3461029b5760208060031936011261029b57610a98610be3565b90610aa1610d04565b3360009081526001825260408082206001600160a01b0385168084529084529120549182156104115733600052600181526040600020826000528152600060408120558115600014610b6d576000808080863361c350f1610b00610d3f565b505b15610b4a57604080516001600160a01b03861681526020810185905233917f6f65559b767bf231652bb6bbc613c03da1500c2af09834b0c638fc41d4b2161691a26001600055005b3360005260018152604060002091600052526004604051633811692560e11b8152fd5b60405163a9059cbb60e01b81523360048201526024810184905281816044816000875af19081610bab575b50610ba4576000610b02565b6001610b02565b610bc190833d851161082d5761081d8183610c96565b5085610b98565b3461029b57600036600319011261029b578061c35060209252f35b600435906001600160a01b038216820361029b57565b602435906001600160a01b038216820361029b57565b9181601f8401121561029b5782359167ffffffffffffffff831161029b576020808501948460051b01011161029b57565b60001981146107255760010190565b9190811015610c5f5760051b0190565b634e487b7160e01b600052603260045260246000fd5b356001600160a01b038116810361029b5790565b9190820180921161072557565b90601f8019910116810190811067ffffffffffffffff82111761075257604052565b9081602091031261029b5751801515810361029b5790565b9091828110610cde57505050565b60009182526020822092830192015b828110610cf957505050565b818155600101610ced565b600260005414610d15576002600055565b604051633ee5aeb560e01b8152600490fd5b8054821015610c5f5760005260206000200190600090565b3d15610d7a573d9067ffffffffffffffff82116107525760405191610d6e601f8201601f191660200184610c96565b82523d6000602084013e565b606090565b6000908082526020600281526040908184209184908592600285019485548890600783019960019a8b938486019c5b610e1f575b50505050918185937fd2afa6c26b683e76d6a420af12cb290fb3fd4f25c412e8275ba2d41ac70da1c69896600560809997950155856006830155600482019060ff1982541617905560018060a01b038091541699541694549082519586528501528301526060820152a3565b909192939495969782548083101561107a57610e3b8385610d27565b90546001600160a01b0360039290921b1c8116926000198301928311611066578f9b9a99989796959493928f9290918583036110535788925b8610611010575b878c8f8f908587915416898115600014610fa7578594508493508392915061c350f1610ea5610d3f565b505b15610f265790610ebd8a98979695949392610c40565b84885260098c018d528d8820805460ff19168a1790559d548d5191166001600160a01b0316815260208101919091528060408101037fe1e3cfb155281894efb6d6350898a96e1bbb0b3518440f9e92342c5fd6f4be0991a3610f1e90610c40565b909192610dae565b9c9d90610f398a98979695949392610c40565b9e848852888d528d88208282541689528d528d882083815490610f5b91610c89565b9055548d5191166001600160a01b0316815260208101919091528060408101037fd7e0fd52becd56b3d1eb5c8bb25f88a58351ad495ad2b43f0897c755e81ed50991a3610f1e90610c40565b925163a9059cbb60e01b81526001600160a01b03909316600484015260248301919091529092829184916044918391905af19182610ff2575b5050610fec5787610ea7565b89610ea7565b8161100892903d1061082d5761081d8183610c96565b508c38610fe0565b92509294969080949698999a9b9c50810390811161103f578f9b9a999897909690959094909390928f92610e7b565b634e487b7160e01b88526011600452602488fd5b848852600a8b018c528c88205492610e74565b634e487b7160e01b87526011600452602487fd5b509796959493610db356fea26469706673582212206fe10c589649a0b7e4a8fcb2b4b0cecc2ec0ef2501c55647bc88c17ba08e91be64736f6c63430008140033","opcodes":"PUSH1 0x80 DUP1 PUSH1 0x40 MSTORE CALLVALUE PUSH2 0x1B JUMPI PUSH1 0x1 PUSH1 0x0 SSTORE PUSH2 0x10BB SWAP1 DUP2 PUSH2 0x21 DUP3 CODECOPY RETURN JUMPDEST PUSH1 0x0 DUP1 REVERT INVALID PUSH1 0x80 DUP1 PUSH1 0x40 MSTORE PUSH1 0x4 CALLDATASIZE LT ISZERO PUSH2 0x1D JUMPI JUMPDEST POP CALLDATASIZE ISZERO PUSH2 0x1B JUMPI PUSH1 0x0 DUP1 REVERT JUMPDEST STOP JUMPDEST PUSH1 0x0 CALLDATALOAD PUSH1 0xE0 SHR SWAP1 DUP2 PUSH4 0x91D2788 EQ PUSH2 0xBC8 JUMPI POP DUP1 PUSH4 0x9AE54BE EQ PUSH2 0xA7E JUMPI DUP1 PUSH4 0x1319AFC3 EQ PUSH2 0xA01 JUMPI DUP1 PUSH4 0x1B60F266 EQ PUSH2 0x2A0 JUMPI DUP1 PUSH4 0x4BBFFCB1 EQ PUSH2 0x968 JUMPI DUP1 PUSH4 0x58BC8337 EQ PUSH2 0x94C JUMPI DUP1 PUSH4 0x7BEE3C0F EQ PUSH2 0x8E3 JUMPI DUP1 PUSH4 0x9D71463A EQ PUSH2 0x42E JUMPI DUP1 PUSH4 0xA24E6E04 EQ PUSH2 0x348 JUMPI DUP1 PUSH4 0xA6980CE2 EQ PUSH2 0x32C JUMPI DUP1 PUSH4 0xC854A85D EQ PUSH2 0x30E JUMPI DUP1 PUSH4 0xE1F1C4A7 EQ PUSH2 0x2F1 JUMPI DUP1 PUSH4 0xE65C31C4 EQ PUSH2 0x2A0 JUMPI PUSH4 0xF6B30C60 EQ PUSH2 0xC4 JUMPI CODESIZE PUSH2 0xF JUMP JUMPDEST CALLVALUE PUSH2 0x29B JUMPI PUSH1 0x20 CALLDATASIZE PUSH1 0x3 NOT ADD SLT PUSH2 0x29B JUMPI PUSH1 0x4 CALLDATALOAD DUP1 ISZERO DUP1 ISZERO PUSH2 0x290 JUMPI JUMPDEST PUSH2 0x27E JUMPI PUSH1 0x0 MSTORE PUSH1 0x2 PUSH1 0x20 MSTORE PUSH1 0x40 PUSH1 0x0 KECCAK256 PUSH1 0x1 DUP1 PUSH1 0xA0 SHL SUB DUP2 SLOAD AND SWAP1 PUSH1 0x1 DUP1 PUSH1 0xA0 SHL SUB PUSH1 0x1 DUP3 ADD SLOAD AND SWAP1 PUSH1 0x2 DUP2 ADD SLOAD SWAP2 PUSH1 0x3 DUP3 ADD SLOAD SWAP4 PUSH1 0xFF PUSH1 0x4 DUP5 ADD SLOAD AND SWAP1 PUSH1 0x5 DUP5 ADD SLOAD PUSH1 0x6 DUP6 ADD SLOAD SWAP4 PUSH1 0x7 DUP7 ADD SWAP5 PUSH1 0x40 MLOAD SWAP3 DUP4 PUSH1 0x20 DUP9 SLOAD SWAP2 DUP3 DUP2 MSTORE ADD SWAP1 DUP2 SWAP9 PUSH1 0x0 MSTORE PUSH1 0x20 PUSH1 0x0 KECCAK256 SWAP1 PUSH1 0x0 JUMPDEST DUP2 DUP2 LT PUSH2 0x25F JUMPI POP POP POP DUP5 PUSH2 0x163 SWAP2 SUB DUP6 PUSH2 0xC96 JUMP JUMPDEST PUSH1 0x40 MLOAD SWAP6 DUP7 PUSH1 0x20 PUSH1 0x8 DUP12 ADD SLOAD SWAP2 DUP3 DUP2 MSTORE ADD SWAP1 PUSH1 0x8 DUP3 SWAP12 ADD PUSH1 0x0 MSTORE PUSH1 0x20 PUSH1 0x0 KECCAK256 SWAP1 PUSH1 0x0 JUMPDEST DUP2 DUP2 LT PUSH2 0x249 JUMPI POP POP POP DUP8 PUSH2 0x19C SWAP2 SUB DUP9 PUSH2 0xC96 JUMP JUMPDEST PUSH1 0x40 MLOAD SWAP11 DUP12 SWAP11 PUSH2 0x120 SWAP6 DUP7 DUP14 ADD SWAP9 DUP14 MSTORE PUSH1 0x20 DUP14 ADD MSTORE PUSH1 0x40 DUP13 ADD MSTORE PUSH1 0x60 DUP12 ADD MSTORE ISZERO ISZERO PUSH1 0x80 DUP11 ADD MSTORE PUSH1 0xA0 DUP10 ADD MSTORE PUSH1 0xC0 DUP9 ADD MSTORE PUSH1 0xE0 DUP8 ADD MSTORE MLOAD DUP1 SWAP2 MSTORE PUSH2 0x140 DUP6 ADD SWAP3 SWAP1 PUSH1 0x0 JUMPDEST DUP2 DUP2 LT PUSH2 0x227 JUMPI POP POP POP PUSH1 0x20 SWAP1 DUP5 DUP4 SUB PUSH2 0x100 DUP7 ADD MSTORE MLOAD SWAP2 DUP3 DUP2 MSTORE ADD SWAP2 SWAP1 PUSH1 0x0 JUMPDEST DUP2 DUP2 LT PUSH2 0x20E JUMPI POP POP POP SUB SWAP1 RETURN JUMPDEST DUP3 MLOAD DUP5 MSTORE DUP6 SWAP5 POP PUSH1 0x20 SWAP4 DUP5 ADD SWAP4 SWAP1 SWAP3 ADD SWAP2 PUSH1 0x1 ADD PUSH2 0x200 JUMP JUMPDEST DUP3 MLOAD PUSH1 0x1 PUSH1 0x1 PUSH1 0xA0 SHL SUB AND DUP6 MSTORE DUP8 SWAP7 POP PUSH1 0x20 SWAP5 DUP6 ADD SWAP5 SWAP1 SWAP3 ADD SWAP2 PUSH1 0x1 ADD PUSH2 0x1DF JUMP JUMPDEST DUP3 SLOAD DUP5 MSTORE PUSH1 0x20 SWAP1 SWAP4 ADD SWAP3 PUSH1 0x1 SWAP3 DUP4 ADD SWAP3 ADD PUSH2 0x186 JUMP JUMPDEST DUP3 SLOAD PUSH1 0x1 PUSH1 0x1 PUSH1 0xA0 SHL SUB AND DUP5 MSTORE PUSH1 0x20 SWAP1 SWAP4 ADD SWAP3 PUSH1 0x1 SWAP3 DUP4 ADD SWAP3 ADD PUSH2 0x14D JUMP JUMPDEST PUSH1 0x40 MLOAD PUSH4 0x80DF5539 PUSH1 0xE0 SHL DUP2 MSTORE PUSH1 0x4 SWAP1 REVERT JUMPDEST POP PUSH1 0x3 SLOAD DUP2 GT PUSH2 0xE1 JUMP JUMPDEST PUSH1 0x0 DUP1 REVERT JUMPDEST CALLVALUE PUSH2 0x29B JUMPI PUSH1 0x40 CALLDATASIZE PUSH1 0x3 NOT ADD SLT PUSH2 0x29B JUMPI PUSH2 0x2B9 PUSH2 0xBE3 JUMP JUMPDEST PUSH2 0x2C1 PUSH2 0xBF9 JUMP JUMPDEST SWAP1 PUSH1 0x1 DUP1 PUSH1 0xA0 SHL SUB DUP1 SWAP2 AND PUSH1 0x0 MSTORE PUSH1 0x1 PUSH1 0x20 MSTORE PUSH1 0x40 PUSH1 0x0 KECCAK256 SWAP2 AND PUSH1 0x0 MSTORE PUSH1 0x20 MSTORE PUSH1 0x20 PUSH1 0x40 PUSH1 0x0 KECCAK256 SLOAD PUSH1 0x40 MLOAD SWAP1 DUP2 MSTORE RETURN JUMPDEST CALLVALUE PUSH2 0x29B JUMPI PUSH1 0x0 CALLDATASIZE PUSH1 0x3 NOT ADD SLT PUSH2 0x29B JUMPI PUSH1 0x20 PUSH1 0x40 MLOAD PUSH2 0x2710 DUP2 MSTORE RETURN JUMPDEST CALLVALUE PUSH2 0x29B JUMPI PUSH1 0x0 CALLDATASIZE PUSH1 0x3 NOT ADD SLT PUSH2 0x29B JUMPI PUSH1 0x20 PUSH1 0x3 SLOAD PUSH1 0x40 MLOAD SWAP1 DUP2 MSTORE RETURN JUMPDEST CALLVALUE PUSH2 0x29B JUMPI PUSH1 0x0 CALLDATASIZE PUSH1 0x3 NOT ADD SLT PUSH2 0x29B JUMPI PUSH1 0x20 PUSH1 0x40 MLOAD PUSH1 0x14 DUP2 MSTORE RETURN JUMPDEST CALLVALUE PUSH2 0x29B JUMPI PUSH1 0x20 DUP1 PUSH1 0x3 NOT CALLDATASIZE ADD SLT PUSH2 0x29B JUMPI PUSH1 0x4 CALLDATALOAD SWAP1 DUP2 ISZERO DUP1 ISZERO PUSH2 0x423 JUMPI JUMPDEST PUSH2 0x27E JUMPI DUP2 PUSH1 0x0 MSTORE PUSH1 0x2 DUP2 MSTORE PUSH1 0x40 PUSH1 0x0 KECCAK256 PUSH1 0x3 SWAP3 DUP4 DUP3 ADD SLOAD DUP1 TIMESTAMP GT ISZERO PUSH2 0x411 JUMPI PUSH1 0x0 SWAP4 SWAP3 SWAP4 SWAP3 PUSH1 0x7 DUP6 ADD SWAP6 PUSH1 0x9 DUP8 SLOAD SWAP7 ADD SWAP5 JUMPDEST DUP7 DUP2 LT PUSH2 0x3A3 JUMPI STOP JUMPDEST DUP1 PUSH2 0x3B1 PUSH2 0x3DC SWAP3 DUP11 PUSH2 0xD27 JUMP JUMPDEST SWAP1 SLOAD SWAP1 DUP5 SHL SHR PUSH1 0x1 PUSH1 0x1 PUSH1 0xA0 SHL SUB AND PUSH1 0x0 DUP2 DUP2 MSTORE DUP9 DUP7 MSTORE PUSH1 0x40 SWAP1 KECCAK256 SLOAD PUSH1 0xFF AND ISZERO PUSH2 0x3E1 JUMPI JUMPDEST POP PUSH2 0xC40 JUMP JUMPDEST PUSH2 0x39A JUMP JUMPDEST DUP7 PUSH32 0xC944E3C30D2006ADF5AFB37E5FE589410B4AE34DAD46F311007DAAC3720EE960 DUP7 PUSH1 0x40 MLOAD DUP10 DUP2 MSTORE LOG3 DUP10 PUSH2 0x3D6 JUMP JUMPDEST PUSH1 0x40 MLOAD PUSH4 0xB4FA3FB3 PUSH1 0xE0 SHL DUP2 MSTORE PUSH1 0x4 SWAP1 REVERT JUMPDEST POP PUSH1 0x3 SLOAD DUP3 GT PUSH2 0x367 JUMP JUMPDEST PUSH1 0x80 CALLDATASIZE PUSH1 0x3 NOT ADD SLT PUSH2 0x29B JUMPI PUSH1 0x4 CALLDATALOAD PUSH8 0xFFFFFFFFFFFFFFFF DUP2 GT PUSH2 0x29B JUMPI PUSH2 0x45A SWAP1 CALLDATASIZE SWAP1 PUSH1 0x4 ADD PUSH2 0xC0F JUMP JUMPDEST SWAP1 PUSH1 0x24 CALLDATALOAD PUSH8 0xFFFFFFFFFFFFFFFF DUP2 GT PUSH2 0x29B JUMPI PUSH2 0x47B SWAP1 CALLDATASIZE SWAP1 PUSH1 0x4 ADD PUSH2 0xC0F JUMP JUMPDEST PUSH1 0x44 CALLDATALOAD SWAP3 SWAP2 SWAP1 PUSH1 0x1 PUSH1 0x1 PUSH1 0xA0 SHL SUB DUP5 AND DUP5 SUB PUSH2 0x29B JUMPI PUSH2 0x499 PUSH2 0xD04 JUMP JUMPDEST DUP5 ISZERO DUP1 ISZERO PUSH2 0x8D9 JUMPI JUMPDEST PUSH2 0x411 JUMPI DUP1 DUP6 SUB PUSH2 0x411 JUMPI TIMESTAMP PUSH1 0x64 CALLDATALOAD GT ISZERO PUSH2 0x411 JUMPI PUSH1 0x1 PUSH1 0x1 PUSH1 0xA0 SHL SUB DUP5 AND ISZERO SWAP5 DUP6 ISZERO PUSH2 0x8D1 JUMPI CALLVALUE SWAP6 JUMPDEST DUP7 ISZERO DUP1 PUSH2 0x8CA JUMPI JUMPDEST PUSH2 0x411 JUMPI PUSH1 0x0 DUP1 JUMPDEST DUP5 DUP3 LT PUSH2 0x86F JUMPI PUSH2 0x2710 SWAP2 POP SUB PUSH2 0x411 JUMPI ISZERO PUSH2 0x783 JUMPI JUMPDEST PUSH2 0x4FE PUSH1 0x3 SLOAD PUSH2 0xC40 JUMP JUMPDEST SWAP5 DUP6 PUSH1 0x3 SSTORE DUP6 PUSH1 0x0 MSTORE PUSH1 0x2 PUSH1 0x20 MSTORE PUSH1 0x40 PUSH1 0x0 KECCAK256 CALLER PUSH12 0xFFFFFFFFFFFFFFFFFFFFFFFF PUSH1 0xA0 SHL DUP3 SLOAD AND OR DUP2 SSTORE PUSH1 0x1 DUP2 ADD PUSH1 0x1 DUP1 PUSH1 0xA0 SHL SUB DUP4 AND PUSH12 0xFFFFFFFFFFFFFFFFFFFFFFFF PUSH1 0xA0 SHL DUP3 SLOAD AND OR SWAP1 SSTORE DUP8 PUSH1 0x2 DUP3 ADD SSTORE PUSH1 0x64 CALLDATALOAD PUSH1 0x3 DUP3 ADD SSTORE PUSH8 0xFFFFFFFFFFFFFFFF DUP4 GT PUSH2 0x752 JUMPI PUSH1 0x1 PUSH1 0x40 SHL DUP4 GT PUSH2 0x752 JUMPI PUSH1 0x7 DUP2 ADD PUSH2 0x586 DUP5 DUP3 SLOAD DUP2 DUP5 SSTORE DUP4 PUSH2 0xCD0 JUMP JUMPDEST DUP7 SWAP1 PUSH1 0x0 MSTORE PUSH1 0x20 PUSH1 0x0 KECCAK256 SWAP1 PUSH1 0x0 JUMPDEST DUP6 DUP2 LT PUSH2 0x768 JUMPI POP POP POP PUSH8 0xFFFFFFFFFFFFFFFF DUP5 GT PUSH2 0x752 JUMPI PUSH1 0x1 PUSH1 0x40 SHL DUP5 GT PUSH2 0x752 JUMPI SWAP1 DUP2 PUSH1 0x8 DUP5 SWAP4 ADD PUSH2 0x5CE DUP7 DUP3 SLOAD DUP2 DUP5 SSTORE DUP4 PUSH2 0xCD0 JUMP JUMPDEST DUP7 SWAP1 PUSH1 0x0 MSTORE PUSH1 0x20 PUSH1 0x0 KECCAK256 SWAP1 PUSH1 0x0 JUMPDEST DUP8 DUP2 LT PUSH2 0x73B JUMPI POP POP POP PUSH1 0x0 JUMPDEST DUP4 DUP2 LT PUSH2 0x6C0 JUMPI POP POP PUSH1 0x40 MLOAD SWAP8 PUSH1 0xA0 DUP10 ADD SWAP2 PUSH1 0x1 DUP1 PUSH1 0xA0 SHL SUB AND DUP10 MSTORE PUSH1 0x20 DUP10 ADD MSTORE PUSH1 0x64 CALLDATALOAD PUSH1 0x40 DUP10 ADD MSTORE PUSH1 0xA0 PUSH1 0x60 DUP10 ADD MSTORE MSTORE PUSH1 0xC0 DUP7 ADD SWAP4 SWAP1 PUSH1 0x0 SWAP1 JUMPDEST DUP1 DUP3 LT PUSH2 0x696 JUMPI POP POP POP DUP5 DUP4 SUB PUSH1 0x80 DUP7 ADD MSTORE DUP1 DUP4 MSTORE PUSH1 0x1 PUSH1 0x1 PUSH1 0xFB SHL SUB DUP2 GT PUSH2 0x29B JUMPI DUP5 PUSH1 0x20 DUP1 SWAP7 DUP7 SWAP5 PUSH32 0xB010E520439FF6123538D2BF911123DCE8A3C0E4007BC029FB3373D9D3BDF8B4 SWAP5 PUSH1 0x5 SHL DUP1 SWAP2 DUP5 DUP10 ADD CALLDATACOPY CALLER SWAP7 ADD SUB ADD SWAP1 LOG3 PUSH2 0x689 DUP2 PUSH2 0xD7F JUMP JUMPDEST PUSH1 0x1 PUSH1 0x0 SSTORE PUSH1 0x40 MLOAD SWAP1 DUP2 MSTORE RETURN JUMPDEST SWAP1 SWAP2 SWAP5 DUP6 CALLDATALOAD SWAP1 PUSH1 0x1 DUP1 PUSH1 0xA0 SHL SUB DUP3 AND DUP1 SWAP3 SUB PUSH2 0x29B JUMPI PUSH1 0x20 DUP2 PUSH1 0x1 SWAP4 DUP3 SWAP4 MSTORE ADD SWAP7 ADD SWAP3 ADD SWAP1 PUSH2 0x624 JUMP JUMPDEST SWAP1 SWAP2 SWAP3 POP PUSH2 0x6CF DUP2 DUP7 DUP9 PUSH2 0xC4F JUMP JUMPDEST CALLDATALOAD SWAP1 DUP10 DUP3 DUP2 MUL DIV DUP3 EQ DUP11 ISZERO OR ISZERO PUSH2 0x725 JUMPI PUSH2 0x71C SWAP2 PUSH2 0x2710 SWAP1 PUSH1 0x1 PUSH1 0x1 PUSH1 0xA0 SHL SUB PUSH2 0x703 PUSH2 0x6FE DUP6 DUP11 DUP15 PUSH2 0xC4F JUMP JUMPDEST PUSH2 0xC75 JUMP JUMPDEST AND PUSH1 0x0 MSTORE PUSH1 0xA DUP6 ADD PUSH1 0x20 MSTORE DUP12 MUL DIV PUSH1 0x40 PUSH1 0x0 KECCAK256 SSTORE PUSH2 0xC40 JUMP JUMPDEST SWAP1 DUP4 SWAP3 SWAP2 PUSH2 0x5E9 JUMP JUMPDEST PUSH4 0x4E487B71 PUSH1 0xE0 SHL PUSH1 0x0 MSTORE PUSH1 0x11 PUSH1 0x4 MSTORE PUSH1 0x24 PUSH1 0x0 REVERT JUMPDEST DUP2 CALLDATALOAD DUP2 DUP5 ADD SSTORE DUP7 SWAP6 POP PUSH1 0x20 SWAP1 SWAP2 ADD SWAP1 PUSH1 0x1 ADD PUSH2 0x5DC JUMP JUMPDEST PUSH4 0x4E487B71 PUSH1 0xE0 SHL PUSH1 0x0 MSTORE PUSH1 0x41 PUSH1 0x4 MSTORE PUSH1 0x24 PUSH1 0x0 REVERT JUMPDEST PUSH1 0x1 SWAP1 PUSH1 0x20 PUSH2 0x776 DUP5 PUSH2 0xC75 JUMP JUMPDEST SWAP4 ADD SWAP3 DUP2 DUP6 ADD SSTORE ADD PUSH2 0x594 JUMP JUMPDEST PUSH1 0x40 MLOAD PUSH4 0x6EB1769F PUSH1 0xE1 SHL DUP2 MSTORE CALLER PUSH1 0x4 DUP3 ADD MSTORE ADDRESS PUSH1 0x24 DUP3 ADD MSTORE SWAP6 POP PUSH1 0x20 DUP1 DUP8 PUSH1 0x44 DUP2 PUSH1 0x1 PUSH1 0x1 PUSH1 0xA0 SHL SUB DUP11 AND GAS STATICCALL SWAP7 DUP8 ISZERO PUSH2 0x834 JUMPI PUSH1 0x0 SWAP8 PUSH2 0x840 JUMPI JUMPDEST POP PUSH1 0x40 MLOAD PUSH4 0x23B872DD PUSH1 0xE0 SHL DUP2 MSTORE CALLER PUSH1 0x4 DUP3 ADD MSTORE ADDRESS PUSH1 0x24 DUP3 ADD MSTORE PUSH1 0x44 DUP2 ADD DUP9 SWAP1 MSTORE DUP2 DUP2 PUSH1 0x64 DUP2 PUSH1 0x0 PUSH1 0x1 PUSH1 0x1 PUSH1 0xA0 SHL SUB DUP13 AND GAS CALL DUP1 ISZERO PUSH2 0x834 JUMPI PUSH2 0x806 JUMPI JUMPDEST POP POP PUSH2 0x4F3 JUMP JUMPDEST DUP2 PUSH2 0x825 SWAP3 SWAP1 RETURNDATASIZE LT PUSH2 0x82D JUMPI JUMPDEST PUSH2 0x81D DUP2 DUP4 PUSH2 0xC96 JUMP JUMPDEST DUP2 ADD SWAP1 PUSH2 0xCB8 JUMP JUMPDEST POP DUP7 DUP1 PUSH2 0x7FF JUMP JUMPDEST POP RETURNDATASIZE PUSH2 0x813 JUMP JUMPDEST PUSH1 0x40 MLOAD RETURNDATASIZE PUSH1 0x0 DUP3 RETURNDATACOPY RETURNDATASIZE SWAP1 REVERT JUMPDEST SWAP1 DUP1 SWAP8 POP DUP2 DUP2 RETURNDATASIZE DUP4 GT PUSH2 0x868 JUMPI JUMPDEST PUSH2 0x858 DUP2 DUP4 PUSH2 0xC96 JUMP JUMPDEST DUP2 ADD SUB SLT PUSH2 0x29B JUMPI MLOAD SWAP6 DUP8 PUSH2 0x7C0 JUMP JUMPDEST POP RETURNDATASIZE PUSH2 0x84E JUMP JUMPDEST PUSH1 0x1 PUSH1 0x1 PUSH1 0xA0 SHL SUB PUSH2 0x885 PUSH2 0x6FE DUP5 DUP8 DUP12 PUSH2 0xC4F JUMP JUMPDEST AND ISZERO DUP1 ISZERO PUSH2 0x8B7 JUMPI JUMPDEST PUSH2 0x411 JUMPI PUSH2 0x8AB PUSH2 0x8B1 SWAP2 PUSH2 0x8A4 DUP5 DUP9 DUP11 PUSH2 0xC4F JUMP JUMPDEST CALLDATALOAD SWAP1 PUSH2 0xC89 JUMP JUMPDEST SWAP2 PUSH2 0xC40 JUMP JUMPDEST SWAP1 PUSH2 0x4DC JUMP JUMPDEST POP PUSH2 0x8C3 DUP3 DUP7 DUP9 PUSH2 0xC4F JUMP JUMPDEST CALLDATALOAD ISZERO PUSH2 0x88E JUMP JUMPDEST POP DUP1 PUSH2 0x4D4 JUMP JUMPDEST PUSH1 0x0 SWAP6 PUSH2 0x4CC JUMP JUMPDEST POP PUSH1 0x14 DUP6 GT PUSH2 0x4A2 JUMP JUMPDEST CALLVALUE PUSH2 0x29B JUMPI PUSH1 0x40 CALLDATASIZE PUSH1 0x3 NOT ADD SLT PUSH2 0x29B JUMPI PUSH1 0x4 CALLDATALOAD PUSH2 0x8FF PUSH2 0xBF9 JUMP JUMPDEST SWAP1 DUP1 ISZERO DUP1 ISZERO PUSH2 0x941 JUMPI JUMPDEST PUSH2 0x27E JUMPI PUSH1 0x0 MSTORE PUSH1 0x2 PUSH1 0x20 MSTORE PUSH1 0x9 PUSH1 0x40 PUSH1 0x0 KECCAK256 ADD SWAP1 PUSH1 0x1 DUP1 PUSH1 0xA0 SHL SUB AND PUSH1 0x0 MSTORE PUSH1 0x20 MSTORE PUSH1 0x20 PUSH1 0xFF PUSH1 0x40 PUSH1 0x0 KECCAK256 SLOAD AND PUSH1 0x40 MLOAD SWAP1 ISZERO ISZERO DUP2 MSTORE RETURN JUMPDEST POP PUSH1 0x3 SLOAD DUP2 GT PUSH2 0x909 JUMP JUMPDEST CALLVALUE PUSH2 0x29B JUMPI PUSH1 0x0 CALLDATASIZE PUSH1 0x3 NOT ADD SLT PUSH2 0x29B JUMPI PUSH1 0x20 PUSH1 0x40 MLOAD PUSH1 0x0 DUP2 MSTORE RETURN JUMPDEST CALLVALUE PUSH2 0x29B JUMPI PUSH1 0x20 CALLDATASIZE PUSH1 0x3 NOT ADD SLT PUSH2 0x29B JUMPI PUSH1 0x4 CALLDATALOAD PUSH2 0x984 PUSH2 0xD04 JUMP JUMPDEST DUP1 ISZERO DUP1 ISZERO PUSH2 0x9F6 JUMPI JUMPDEST PUSH2 0x27E JUMPI DUP1 PUSH1 0x0 MSTORE PUSH1 0x2 PUSH1 0x20 MSTORE PUSH1 0xFF PUSH1 0x4 PUSH1 0x40 PUSH1 0x0 KECCAK256 ADD SLOAD AND PUSH2 0x9E4 JUMPI DUP1 PUSH1 0x0 MSTORE PUSH1 0x2 PUSH1 0x20 MSTORE PUSH1 0x3 PUSH1 0x40 PUSH1 0x0 KECCAK256 ADD SLOAD TIMESTAMP GT PUSH2 0x9D2 JUMPI PUSH2 0x9CB SWAP1 PUSH2 0xD7F JUMP JUMPDEST PUSH1 0x1 PUSH1 0x0 SSTORE STOP JUMPDEST PUSH1 0x40 MLOAD PUSH4 0x289E2D1B PUSH1 0xE0 SHL DUP2 MSTORE PUSH1 0x4 SWAP1 REVERT JUMPDEST PUSH1 0x40 MLOAD PUSH4 0xD70A0E3 PUSH1 0xE4 SHL DUP2 MSTORE PUSH1 0x4 SWAP1 REVERT JUMPDEST POP PUSH1 0x3 SLOAD DUP2 GT PUSH2 0x98D JUMP JUMPDEST CALLVALUE PUSH2 0x29B JUMPI PUSH1 0x20 CALLDATASIZE PUSH1 0x3 NOT ADD SLT PUSH2 0x29B JUMPI PUSH1 0x4 CALLDATALOAD PUSH1 0x0 MSTORE PUSH1 0x2 PUSH1 0x20 MSTORE PUSH1 0xE0 PUSH1 0x40 PUSH1 0x0 KECCAK256 PUSH1 0x1 DUP1 PUSH1 0xA0 SHL SUB SWAP1 DUP2 DUP2 SLOAD AND SWAP2 PUSH1 0x1 DUP3 ADD SLOAD AND SWAP1 PUSH1 0x2 DUP2 ADD SLOAD PUSH1 0x3 DUP3 ADD SLOAD PUSH1 0xFF PUSH1 0x4 DUP5 ADD SLOAD AND SWAP2 PUSH1 0x6 PUSH1 0x5 DUP6 ADD SLOAD SWAP5 ADD SLOAD SWAP5 PUSH1 0x40 MLOAD SWAP7 DUP8 MSTORE PUSH1 0x20 DUP8 ADD MSTORE PUSH1 0x40 DUP7 ADD MSTORE PUSH1 0x60 DUP6 ADD MSTORE ISZERO ISZERO PUSH1 0x80 DUP5 ADD MSTORE PUSH1 0xA0 DUP4 ADD MSTORE PUSH1 0xC0 DUP3 ADD MSTORE RETURN JUMPDEST CALLVALUE PUSH2 0x29B JUMPI PUSH1 0x20 DUP1 PUSH1 0x3 NOT CALLDATASIZE ADD SLT PUSH2 0x29B JUMPI PUSH2 0xA98 PUSH2 0xBE3 JUMP JUMPDEST SWAP1 PUSH2 0xAA1 PUSH2 0xD04 JUMP JUMPDEST CALLER PUSH1 0x0 SWAP1 DUP2 MSTORE PUSH1 0x1 DUP3 MSTORE PUSH1 0x40 DUP1 DUP3 KECCAK256 PUSH1 0x1 PUSH1 0x1 PUSH1 0xA0 SHL SUB DUP6 AND DUP1 DUP5 MSTORE SWAP1 DUP5 MSTORE SWAP2 KECCAK256 SLOAD SWAP2 DUP3 ISZERO PUSH2 0x411 JUMPI CALLER PUSH1 0x0 MSTORE PUSH1 0x1 DUP2 MSTORE PUSH1 0x40 PUSH1 0x0 KECCAK256 DUP3 PUSH1 0x0 MSTORE DUP2 MSTORE PUSH1 0x0 PUSH1 0x40 DUP2 KECCAK256 SSTORE DUP2 ISZERO PUSH1 0x0 EQ PUSH2 0xB6D JUMPI PUSH1 0x0 DUP1 DUP1 DUP1 DUP7 CALLER PUSH2 0xC350 CALL PUSH2 0xB00 PUSH2 0xD3F JUMP JUMPDEST POP JUMPDEST ISZERO PUSH2 0xB4A JUMPI PUSH1 0x40 DUP1 MLOAD PUSH1 0x1 PUSH1 0x1 PUSH1 0xA0 SHL SUB DUP7 AND DUP2 MSTORE PUSH1 0x20 DUP2 ADD DUP6 SWAP1 MSTORE CALLER SWAP2 PUSH32 0x6F65559B767BF231652BB6BBC613C03DA1500C2AF09834B0C638FC41D4B21616 SWAP2 LOG2 PUSH1 0x1 PUSH1 0x0 SSTORE STOP JUMPDEST CALLER PUSH1 0x0 MSTORE PUSH1 0x1 DUP2 MSTORE PUSH1 0x40 PUSH1 0x0 KECCAK256 SWAP2 PUSH1 0x0 MSTORE MSTORE PUSH1 0x4 PUSH1 0x40 MLOAD PUSH4 0x38116925 PUSH1 0xE1 SHL DUP2 MSTORE REVERT JUMPDEST PUSH1 0x40 MLOAD PUSH4 0xA9059CBB PUSH1 0xE0 SHL DUP2 MSTORE CALLER PUSH1 0x4 DUP3 ADD MSTORE PUSH1 0x24 DUP2 ADD DUP5 SWAP1 MSTORE DUP2 DUP2 PUSH1 0x44 DUP2 PUSH1 0x0 DUP8 GAS CALL SWAP1 DUP2 PUSH2 0xBAB JUMPI JUMPDEST POP PUSH2 0xBA4 JUMPI PUSH1 0x0 PUSH2 0xB02 JUMP JUMPDEST PUSH1 0x1 PUSH2 0xB02 JUMP JUMPDEST PUSH2 0xBC1 SWAP1 DUP4 RETURNDATASIZE DUP6 GT PUSH2 0x82D JUMPI PUSH2 0x81D DUP2 DUP4 PUSH2 0xC96 JUMP JUMPDEST POP DUP6 PUSH2 0xB98 JUMP JUMPDEST CALLVALUE PUSH2 0x29B JUMPI PUSH1 0x0 CALLDATASIZE PUSH1 0x3 NOT ADD SLT PUSH2 0x29B JUMPI DUP1 PUSH2 0xC350 PUSH1 0x20 SWAP3 MSTORE RETURN JUMPDEST PUSH1 0x4 CALLDATALOAD SWAP1 PUSH1 0x1 PUSH1 0x1 PUSH1 0xA0 SHL SUB DUP3 AND DUP3 SUB PUSH2 0x29B JUMPI JUMP JUMPDEST PUSH1 0x24 CALLDATALOAD SWAP1 PUSH1 0x1 PUSH1 0x1 PUSH1 0xA0 SHL SUB DUP3 AND DUP3 SUB PUSH2 0x29B JUMPI JUMP JUMPDEST SWAP2 DUP2 PUSH1 0x1F DUP5 ADD SLT ISZERO PUSH2 0x29B JUMPI DUP3 CALLDATALOAD SWAP2 PUSH8 0xFFFFFFFFFFFFFFFF DUP4 GT PUSH2 0x29B JUMPI PUSH1 0x20 DUP1 DUP6 ADD SWAP5 DUP5 PUSH1 0x5 SHL ADD ADD GT PUSH2 0x29B JUMPI JUMP JUMPDEST PUSH1 0x0 NOT DUP2 EQ PUSH2 0x725 JUMPI PUSH1 0x1 ADD SWAP1 JUMP JUMPDEST SWAP2 SWAP1 DUP2 LT ISZERO PUSH2 0xC5F JUMPI PUSH1 0x5 SHL ADD SWAP1 JUMP JUMPDEST PUSH4 0x4E487B71 PUSH1 0xE0 SHL PUSH1 0x0 MSTORE PUSH1 0x32 PUSH1 0x4 MSTORE PUSH1 0x24 PUSH1 0x0 REVERT JUMPDEST CALLDATALOAD PUSH1 0x1 PUSH1 0x1 PUSH1 0xA0 SHL SUB DUP2 AND DUP2 SUB PUSH2 0x29B JUMPI SWAP1 JUMP JUMPDEST SWAP2 SWAP1 DUP3 ADD DUP1 SWAP3 GT PUSH2 0x725 JUMPI JUMP JUMPDEST SWAP1 PUSH1 0x1F DUP1 NOT SWAP2 ADD AND DUP2 ADD SWAP1 DUP2 LT PUSH8 0xFFFFFFFFFFFFFFFF DUP3 GT OR PUSH2 0x752 JUMPI PUSH1 0x40 MSTORE JUMP JUMPDEST SWAP1 DUP2 PUSH1 0x20 SWAP2 SUB SLT PUSH2 0x29B JUMPI MLOAD DUP1 ISZERO ISZERO DUP2 SUB PUSH2 0x29B JUMPI SWAP1 JUMP JUMPDEST SWAP1 SWAP2 DUP3 DUP2 LT PUSH2 0xCDE JUMPI POP POP POP JUMP JUMPDEST PUSH1 0x0 SWAP2 DUP3 MSTORE PUSH1 0x20 DUP3 KECCAK256 SWAP3 DUP4 ADD SWAP3 ADD JUMPDEST DUP3 DUP2 LT PUSH2 0xCF9 JUMPI POP POP POP JUMP JUMPDEST DUP2 DUP2 SSTORE PUSH1 0x1 ADD PUSH2 0xCED JUMP JUMPDEST PUSH1 0x2 PUSH1 0x0 SLOAD EQ PUSH2 0xD15 JUMPI PUSH1 0x2 PUSH1 0x0 SSTORE JUMP JUMPDEST PUSH1 0x40 MLOAD PUSH4 0x3EE5AEB5 PUSH1 0xE0 SHL DUP2 MSTORE PUSH1 0x4 SWAP1 REVERT JUMPDEST DUP1 SLOAD DUP3 LT ISZERO PUSH2 0xC5F JUMPI PUSH1 0x0 MSTORE PUSH1 0x20 PUSH1 0x0 KECCAK256 ADD SWAP1 PUSH1 0x0 SWAP1 JUMP JUMPDEST RETURNDATASIZE ISZERO PUSH2 0xD7A JUMPI RETURNDATASIZE SWAP1 PUSH8 0xFFFFFFFFFFFFFFFF DUP3 GT PUSH2 0x752 JUMPI PUSH1 0x40 MLOAD SWAP2 PUSH2 0xD6E PUSH1 0x1F DUP3 ADD PUSH1 0x1F NOT AND PUSH1 0x20 ADD DUP5 PUSH2 0xC96 JUMP JUMPDEST DUP3 MSTORE RETURNDATASIZE PUSH1 0x0 PUSH1 0x20 DUP5 ADD RETURNDATACOPY JUMP JUMPDEST PUSH1 0x60 SWAP1 JUMP JUMPDEST PUSH1 0x0 SWAP1 DUP1 DUP3 MSTORE PUSH1 0x20 PUSH1 0x2 DUP2 MSTORE PUSH1 0x40 SWAP1 DUP2 DUP5 KECCAK256 SWAP2 DUP5 SWAP1 DUP6 SWAP3 PUSH1 0x2 DUP6 ADD SWAP5 DUP6 SLOAD DUP9 SWAP1 PUSH1 0x7 DUP4 ADD SWAP10 PUSH1 0x1 SWAP11 DUP12 SWAP4 DUP5 DUP7 ADD SWAP13 JUMPDEST PUSH2 0xE1F JUMPI JUMPDEST POP POP POP POP SWAP2 DUP2 DUP6 SWAP4 PUSH32 0xD2AFA6C26B683E76D6A420AF12CB290FB3FD4F25C412E8275BA2D41AC70DA1C6 SWAP9 SWAP7 PUSH1 0x5 PUSH1 0x80 SWAP10 SWAP8 SWAP6 ADD SSTORE DUP6 PUSH1 0x6 DUP4 ADD SSTORE PUSH1 0x4 DUP3 ADD SWAP1 PUSH1 0xFF NOT DUP3 SLOAD AND OR SWAP1 SSTORE PUSH1 0x1 DUP1 PUSH1 0xA0 SHL SUB DUP1 SWAP2 SLOAD AND SWAP10 SLOAD AND SWAP5 SLOAD SWAP1 DUP3 MLOAD SWAP6 DUP7 MSTORE DUP6 ADD MSTORE DUP4 ADD MSTORE PUSH1 0x60 DUP3 ADD MSTORE LOG3 JUMP JUMPDEST SWAP1 SWAP2 SWAP3 SWAP4 SWAP5 SWAP6 SWAP7 SWAP8 DUP3 SLOAD DUP1 DUP4 LT ISZERO PUSH2 0x107A JUMPI PUSH2 0xE3B DUP4 DUP6 PUSH2 0xD27 JUMP JUMPDEST SWAP1 SLOAD PUSH1 0x1 PUSH1 0x1 PUSH1 0xA0 SHL SUB PUSH1 0x3 SWAP3 SWAP1 SWAP3 SHL SHR DUP2 AND SWAP3 PUSH1 0x0 NOT DUP4 ADD SWAP3 DUP4 GT PUSH2 0x1066 JUMPI DUP16 SWAP12 SWAP11 SWAP10 SWAP9 SWAP8 SWAP7 SWAP6 SWAP5 SWAP4 SWAP3 DUP16 SWAP3 SWAP1 SWAP2 DUP6 DUP4 SUB PUSH2 0x1053 JUMPI DUP9 SWAP3 JUMPDEST DUP7 LT PUSH2 0x1010 JUMPI JUMPDEST DUP8 DUP13 DUP16 DUP16 SWAP1 DUP6 DUP8 SWAP2 SLOAD AND DUP10 DUP2 ISZERO PUSH1 0x0 EQ PUSH2 0xFA7 JUMPI DUP6 SWAP5 POP DUP5 SWAP4 POP DUP4 SWAP3 SWAP2 POP PUSH2 0xC350 CALL PUSH2 0xEA5 PUSH2 0xD3F JUMP JUMPDEST POP JUMPDEST ISZERO PUSH2 0xF26 JUMPI SWAP1 PUSH2 0xEBD DUP11 SWAP9 SWAP8 SWAP7 SWAP6 SWAP5 SWAP4 SWAP3 PUSH2 0xC40 JUMP JUMPDEST DUP5 DUP9 MSTORE PUSH1 0x9 DUP13 ADD DUP14 MSTORE DUP14 DUP9 KECCAK256 DUP1 SLOAD PUSH1 0xFF NOT AND DUP11 OR SWAP1 SSTORE SWAP14 SLOAD DUP14 MLOAD SWAP2 AND PUSH1 0x1 PUSH1 0x1 PUSH1 0xA0 SHL SUB AND DUP2 MSTORE PUSH1 0x20 DUP2 ADD SWAP2 SWAP1 SWAP2 MSTORE DUP1 PUSH1 0x40 DUP2 ADD SUB PUSH32 0xE1E3CFB155281894EFB6D6350898A96E1BBB0B3518440F9E92342C5FD6F4BE09 SWAP2 LOG3 PUSH2 0xF1E SWAP1 PUSH2 0xC40 JUMP JUMPDEST SWAP1 SWAP2 SWAP3 PUSH2 0xDAE JUMP JUMPDEST SWAP13 SWAP14 SWAP1 PUSH2 0xF39 DUP11 SWAP9 SWAP8 SWAP7 SWAP6 SWAP5 SWAP4 SWAP3 PUSH2 0xC40 JUMP JUMPDEST SWAP15 DUP5 DUP9 MSTORE DUP9 DUP14 MSTORE DUP14 DUP9 KECCAK256 DUP3 DUP3 SLOAD AND DUP10 MSTORE DUP14 MSTORE DUP14 DUP9 KECCAK256 DUP4 DUP2 SLOAD SWAP1 PUSH2 0xF5B SWAP2 PUSH2 0xC89 JUMP JUMPDEST SWAP1 SSTORE SLOAD DUP14 MLOAD SWAP2 AND PUSH1 0x1 PUSH1 0x1 PUSH1 0xA0 SHL SUB AND DUP2 MSTORE PUSH1 0x20 DUP2 ADD SWAP2 SWAP1 SWAP2 MSTORE DUP1 PUSH1 0x40 DUP2 ADD SUB PUSH32 0xD7E0FD52BECD56B3D1EB5C8BB25F88A58351AD495AD2B43F0897C755E81ED509 SWAP2 LOG3 PUSH2 0xF1E SWAP1 PUSH2 0xC40 JUMP JUMPDEST SWAP3 MLOAD PUSH4 0xA9059CBB PUSH1 0xE0 SHL DUP2 MSTORE PUSH1 0x1 PUSH1 0x1 PUSH1 0xA0 SHL SUB SWAP1 SWAP4 AND PUSH1 0x4 DUP5 ADD MSTORE PUSH1 0x24 DUP4 ADD SWAP2 SWAP1 SWAP2 MSTORE SWAP1 SWAP3 DUP3 SWAP2 DUP5 SWAP2 PUSH1 0x44 SWAP2 DUP4 SWAP2 SWAP1 GAS CALL SWAP2 DUP3 PUSH2 0xFF2 JUMPI JUMPDEST POP POP PUSH2 0xFEC JUMPI DUP8 PUSH2 0xEA7 JUMP JUMPDEST DUP10 PUSH2 0xEA7 JUMP JUMPDEST DUP2 PUSH2 0x1008 SWAP3 SWAP1 RETURNDATASIZE LT PUSH2 0x82D JUMPI PUSH2 0x81D DUP2 DUP4 PUSH2 0xC96 JUMP JUMPDEST POP DUP13 CODESIZE PUSH2 0xFE0 JUMP JUMPDEST SWAP3 POP SWAP3 SWAP5 SWAP7 SWAP1 DUP1 SWAP5 SWAP7 SWAP9 SWAP10 SWAP11 SWAP12 SWAP13 POP DUP2 SUB SWAP1 DUP2 GT PUSH2 0x103F JUMPI DUP16 SWAP12 SWAP11 SWAP10 SWAP9 SWAP8 SWAP1 SWAP7 SWAP1 SWAP6 SWAP1 SWAP5 SWAP1 SWAP4 SWAP1 SWAP3 DUP16 SWAP3 PUSH2 0xE7B JUMP JUMPDEST PUSH4 0x4E487B71 PUSH1 0xE0 SHL DUP9 MSTORE PUSH1 0x11 PUSH1 0x4 MSTORE PUSH1 0x24 DUP9 REVERT JUMPDEST DUP5 DUP9 MSTORE PUSH1 0xA DUP12 ADD DUP13 MSTORE DUP13 DUP9 KECCAK256 SLOAD SWAP3 PUSH2 0xE74 JUMP JUMPDEST PUSH4 0x4E487B71 PUSH1 0xE0 SHL DUP8 MSTORE PUSH1 0x11 PUSH1 0x4 MSTORE PUSH1 0x24 DUP8 REVERT JUMPDEST POP SWAP8 SWAP7 SWAP6 SWAP5 SWAP4 PUSH2 0xDB3 JUMP INVALID LOG2 PUSH5 0x6970667358 0x22 SLT KECCAK256 PUSH16 0xE10C589649A0B7E4A8FCB2B4B0CECC2E 0xC0 0xEF 0x25 ADD 0xC5 JUMP SELFBALANCE 0xBC DUP9 0xC1 PUSH28 0xA08E91BE64736F6C6343000814003300000000000000000000000000 "},"methodIdentifiers":{"BASIS_POINTS()":"e1f1c4a7","ETH_TOKEN()":"58bc8337","GAS_LIMIT()":"091d2788","MAX_RECIPIENTS()":"a6980ce2","checkUnpaidRecipients(uint256)":"a24e6e04","claimFailedTransfer(address)":"09ae54be","createSplit(address[],uint256[],address,uint256)":"9d71463a","executeSplit(uint256)":"4bbffcb1","failedTransfers(address,address)":"1b60f266","getFailedAmount(address,address)":"e65c31c4","getSplitDetails(uint256)":"f6b30c60","hasRecipientPaid(uint256,address)":"7bee3c0f","splitCounter()":"c854a85d","splitRequests(uint256)":"1319afc3"}}}}}