{
  "_format": "hh-sol-artifact-1",
  "contractName": "InvoiceSubscriptionService",
  "sourceName": "contracts/InvoiceSubscription.sol",
  "abi": [
    {
      "inputs": [
        {
          "internalType": "address",
          "name": "_feeCollector",
          "type": "address"
        }
      ],
      "stateMutability": "nonpayable",
      "type": "constructor"
    },
    {
      "inputs": [
        {
          "internalType": "address",
          "name": "owner",
          "type": "address"
        }
      ],
      "name": "OwnableInvalidOwner",
      "type": "error"
    },
    {
      "inputs": [
        {
          "internalType": "address",
          "name": "account",
          "type": "address"
        }
      ],
      "name": "OwnableUnauthorizedAccount",
      "type": "error"
    },
    {
      "inputs": [],
      "name": "ReentrancyGuardReentrantCall",
      "type": "error"
    },
    {
      "anonymous": false,
      "inputs": [
        {
          "indexed": true,
          "internalType": "uint256",
          "name": "invoiceId",
          "type": "uint256"
        },
        {
          "indexed": true,
          "internalType": "uint256",
          "name": "serviceId",
          "type": "uint256"
        },
        {
          "indexed": true,
          "internalType": "address",
          "name": "buyer",
          "type": "address"
        },
        {
          "indexed": false,
          "internalType": "address",
          "name": "seller",
          "type": "address"
        },
        {
          "indexed": false,
          "internalType": "uint256",
          "name": "totalAmount",
          "type": "uint256"
        },
        {
          "indexed": false,
          "internalType": "string",
          "name": "couponCode",
          "type": "string"
        }
      ],
      "name": "InvoiceCreated",
      "type": "event"
    },
    {
      "anonymous": false,
      "inputs": [
        {
          "indexed": true,
          "internalType": "uint256",
          "name": "invoiceId",
          "type": "uint256"
        },
        {
          "indexed": true,
          "internalType": "address",
          "name": "payer",
          "type": "address"
        },
        {
          "indexed": false,
          "internalType": "uint256",
          "name": "amount",
          "type": "uint256"
        },
        {
          "indexed": false,
          "internalType": "enum InvoiceSubscriptionService.InvoiceStatus",
          "name": "newStatus",
          "type": "uint8"
        }
      ],
      "name": "InvoicePayment",
      "type": "event"
    },
    {
      "anonymous": false,
      "inputs": [
        {
          "indexed": true,
          "internalType": "address",
          "name": "previousOwner",
          "type": "address"
        },
        {
          "indexed": true,
          "internalType": "address",
          "name": "newOwner",
          "type": "address"
        }
      ],
      "name": "OwnershipTransferred",
      "type": "event"
    },
    {
      "anonymous": false,
      "inputs": [
        {
          "indexed": true,
          "internalType": "uint256",
          "name": "serviceId",
          "type": "uint256"
        },
        {
          "indexed": true,
          "internalType": "address",
          "name": "seller",
          "type": "address"
        },
        {
          "indexed": false,
          "internalType": "string",
          "name": "serviceName",
          "type": "string"
        },
        {
          "indexed": false,
          "internalType": "uint256",
          "name": "price",
          "type": "uint256"
        },
        {
          "indexed": false,
          "internalType": "address",
          "name": "paymentToken",
          "type": "address"
        }
      ],
      "name": "ServiceListed",
      "type": "event"
    },
    {
      "anonymous": false,
      "inputs": [
        {
          "indexed": true,
          "internalType": "uint256",
          "name": "invoiceId",
          "type": "uint256"
        },
        {
          "indexed": true,
          "internalType": "address",
          "name": "contributor",
          "type": "address"
        },
        {
          "indexed": false,
          "internalType": "uint256",
          "name": "amount",
          "type": "uint256"
        }
      ],
      "name": "SplitPaymentContribution",
      "type": "event"
    },
    {
      "inputs": [
        {
          "internalType": "uint256",
          "name": "_invoiceId",
          "type": "uint256"
        },
        {
          "internalType": "uint256",
          "name": "_discountAmount",
          "type": "uint256"
        }
      ],
      "name": "applyCouponDiscount",
      "outputs": [],
      "stateMutability": "nonpayable",
      "type": "function"
    },
    {
      "inputs": [
        {
          "internalType": "address",
          "name": "",
          "type": "address"
        },
        {
          "internalType": "uint256",
          "name": "",
          "type": "uint256"
        }
      ],
      "name": "buyerInvoices",
      "outputs": [
        {
          "internalType": "uint256",
          "name": "",
          "type": "uint256"
        }
      ],
      "stateMutability": "view",
      "type": "function"
    },
    {
      "inputs": [
        {
          "internalType": "uint256",
          "name": "_invoiceId",
          "type": "uint256"
        },
        {
          "internalType": "uint256",
          "name": "_amount",
          "type": "uint256"
        }
      ],
      "name": "contributeToSplitPayment",
      "outputs": [],
      "stateMutability": "payable",
      "type": "function"
    },
    {
      "inputs": [],
      "name": "feeCollector",
      "outputs": [
        {
          "internalType": "address",
          "name": "",
          "type": "address"
        }
      ],
      "stateMutability": "view",
      "type": "function"
    },
    {
      "inputs": [
        {
          "internalType": "address",
          "name": "_buyer",
          "type": "address"
        }
      ],
      "name": "getBuyerInvoices",
      "outputs": [
        {
          "internalType": "uint256[]",
          "name": "",
          "type": "uint256[]"
        }
      ],
      "stateMutability": "view",
      "type": "function"
    },
    {
      "inputs": [
        {
          "internalType": "uint256",
          "name": "_invoiceId",
          "type": "uint256"
        }
      ],
      "name": "getInvoice",
      "outputs": [
        {
          "components": [
            {
              "internalType": "uint256",
              "name": "invoiceId",
              "type": "uint256"
            },
            {
              "internalType": "uint256",
              "name": "serviceId",
              "type": "uint256"
            },
            {
              "internalType": "address",
              "name": "seller",
              "type": "address"
            },
            {
              "internalType": "address",
              "name": "buyer",
              "type": "address"
            },
            {
              "internalType": "string",
              "name": "invoiceNumber",
              "type": "string"
            },
            {
              "internalType": "uint256",
              "name": "issueDate",
              "type": "uint256"
            },
            {
              "internalType": "uint256",
              "name": "dueDate",
              "type": "uint256"
            },
            {
              "internalType": "uint256",
              "name": "subtotal",
              "type": "uint256"
            },
            {
              "internalType": "uint256",
              "name": "discount",
              "type": "uint256"
            },
            {
              "internalType": "uint256",
              "name": "platformFee",
              "type": "uint256"
            },
            {
              "internalType": "uint256",
              "name": "totalAmount",
              "type": "uint256"
            },
            {
              "internalType": "address",
              "name": "paymentToken",
              "type": "address"
            },
            {
              "internalType": "enum InvoiceSubscriptionService.InvoiceStatus",
              "name": "status",
              "type": "uint8"
            },
            {
              "internalType": "string",
              "name": "couponCode",
              "type": "string"
            },
            {
              "internalType": "bool",
              "name": "allowsSplitPayment",
              "type": "bool"
            },
            {
              "internalType": "uint256",
              "name": "createdAt",
              "type": "uint256"
            }
          ],
          "internalType": "struct InvoiceSubscriptionService.Invoice",
          "name": "",
          "type": "tuple"
        }
      ],
      "stateMutability": "view",
      "type": "function"
    },
    {
      "inputs": [
        {
          "internalType": "address",
          "name": "_seller",
          "type": "address"
        }
      ],
      "name": "getSellerServices",
      "outputs": [
        {
          "internalType": "uint256[]",
          "name": "",
          "type": "uint256[]"
        }
      ],
      "stateMutability": "view",
      "type": "function"
    },
    {
      "inputs": [
        {
          "internalType": "uint256",
          "name": "_serviceId",
          "type": "uint256"
        }
      ],
      "name": "getService",
      "outputs": [
        {
          "components": [
            {
              "internalType": "uint256",
              "name": "serviceId",
              "type": "uint256"
            },
            {
              "internalType": "address",
              "name": "seller",
              "type": "address"
            },
            {
              "internalType": "string",
              "name": "serviceName",
              "type": "string"
            },
            {
              "internalType": "string",
              "name": "description",
              "type": "string"
            },
            {
              "internalType": "string",
              "name": "imageUrl",
              "type": "string"
            },
            {
              "internalType": "uint256",
              "name": "priceInWei",
              "type": "uint256"
            },
            {
              "internalType": "address",
              "name": "paymentToken",
              "type": "address"
            },
            {
              "internalType": "bool",
              "name": "isActive",
              "type": "bool"
            },
            {
              "internalType": "uint256",
              "name": "createdAt",
              "type": "uint256"
            }
          ],
          "internalType": "struct InvoiceSubscriptionService.ServiceListing",
          "name": "",
          "type": "tuple"
        }
      ],
      "stateMutability": "view",
      "type": "function"
    },
    {
      "inputs": [
        {
          "internalType": "uint256",
          "name": "_invoiceId",
          "type": "uint256"
        }
      ],
      "name": "getSplitPaymentDetails",
      "outputs": [
        {
          "internalType": "address[]",
          "name": "contributors",
          "type": "address[]"
        },
        {
          "internalType": "uint256",
          "name": "totalCollected",
          "type": "uint256"
        },
        {
          "internalType": "uint256",
          "name": "contributorCount",
          "type": "uint256"
        }
      ],
      "stateMutability": "view",
      "type": "function"
    },
    {
      "inputs": [
        {
          "internalType": "uint256",
          "name": "",
          "type": "uint256"
        }
      ],
      "name": "invoices",
      "outputs": [
        {
          "internalType": "uint256",
          "name": "invoiceId",
          "type": "uint256"
        },
        {
          "internalType": "uint256",
          "name": "serviceId",
          "type": "uint256"
        },
        {
          "internalType": "address",
          "name": "seller",
          "type": "address"
        },
        {
          "internalType": "address",
          "name": "buyer",
          "type": "address"
        },
        {
          "internalType": "string",
          "name": "invoiceNumber",
          "type": "string"
        },
        {
          "internalType": "uint256",
          "name": "issueDate",
          "type": "uint256"
        },
        {
          "internalType": "uint256",
          "name": "dueDate",
          "type": "uint256"
        },
        {
          "internalType": "uint256",
          "name": "subtotal",
          "type": "uint256"
        },
        {
          "internalType": "uint256",
          "name": "discount",
          "type": "uint256"
        },
        {
          "internalType": "uint256",
          "name": "platformFee",
          "type": "uint256"
        },
        {
          "internalType": "uint256",
          "name": "totalAmount",
          "type": "uint256"
        },
        {
          "internalType": "address",
          "name": "paymentToken",
          "type": "address"
        },
        {
          "internalType": "enum InvoiceSubscriptionService.InvoiceStatus",
          "name": "status",
          "type": "uint8"
        },
        {
          "internalType": "string",
          "name": "couponCode",
          "type": "string"
        },
        {
          "internalType": "bool",
          "name": "allowsSplitPayment",
          "type": "bool"
        },
        {
          "internalType": "uint256",
          "name": "createdAt",
          "type": "uint256"
        }
      ],
      "stateMutability": "view",
      "type": "function"
    },
    {
      "inputs": [
        {
          "internalType": "string",
          "name": "_serviceName",
          "type": "string"
        },
        {
          "internalType": "string",
          "name": "_description",
          "type": "string"
        },
        {
          "internalType": "string",
          "name": "_imageUrl",
          "type": "string"
        },
        {
          "internalType": "uint256",
          "name": "_priceInWei",
          "type": "uint256"
        },
        {
          "internalType": "address",
          "name": "_paymentToken",
          "type": "address"
        }
      ],
      "name": "listService",
      "outputs": [
        {
          "internalType": "uint256",
          "name": "",
          "type": "uint256"
        }
      ],
      "stateMutability": "nonpayable",
      "type": "function"
    },
    {
      "inputs": [
        {
          "internalType": "uint256",
          "name": "_invoiceId",
          "type": "uint256"
        }
      ],
      "name": "markInvoiceOverdue",
      "outputs": [],
      "stateMutability": "nonpayable",
      "type": "function"
    },
    {
      "inputs": [],
      "name": "owner",
      "outputs": [
        {
          "internalType": "address",
          "name": "",
          "type": "address"
        }
      ],
      "stateMutability": "view",
      "type": "function"
    },
    {
      "inputs": [
        {
          "internalType": "uint256",
          "name": "_invoiceId",
          "type": "uint256"
        }
      ],
      "name": "payInvoice",
      "outputs": [],
      "stateMutability": "payable",
      "type": "function"
    },
    {
      "inputs": [],
      "name": "platformFeeRate",
      "outputs": [
        {
          "internalType": "uint256",
          "name": "",
          "type": "uint256"
        }
      ],
      "stateMutability": "view",
      "type": "function"
    },
    {
      "inputs": [
        {
          "internalType": "uint256",
          "name": "_serviceId",
          "type": "uint256"
        },
        {
          "internalType": "bool",
          "name": "_allowSplitPayment",
          "type": "bool"
        },
        {
          "internalType": "uint256",
          "name": "_daysUntilDue",
          "type": "uint256"
        }
      ],
      "name": "purchaseService",
      "outputs": [
        {
          "internalType": "uint256",
          "name": "",
          "type": "uint256"
        }
      ],
      "stateMutability": "nonpayable",
      "type": "function"
    },
    {
      "inputs": [],
      "name": "renounceOwnership",
      "outputs": [],
      "stateMutability": "nonpayable",
      "type": "function"
    },
    {
      "inputs": [
        {
          "internalType": "address",
          "name": "",
          "type": "address"
        },
        {
          "internalType": "uint256",
          "name": "",
          "type": "uint256"
        }
      ],
      "name": "sellerServices",
      "outputs": [
        {
          "internalType": "uint256",
          "name": "",
          "type": "uint256"
        }
      ],
      "stateMutability": "view",
      "type": "function"
    },
    {
      "inputs": [
        {
          "internalType": "uint256",
          "name": "",
          "type": "uint256"
        }
      ],
      "name": "services",
      "outputs": [
        {
          "internalType": "uint256",
          "name": "serviceId",
          "type": "uint256"
        },
        {
          "internalType": "address",
          "name": "seller",
          "type": "address"
        },
        {
          "internalType": "string",
          "name": "serviceName",
          "type": "string"
        },
        {
          "internalType": "string",
          "name": "description",
          "type": "string"
        },
        {
          "internalType": "string",
          "name": "imageUrl",
          "type": "string"
        },
        {
          "internalType": "uint256",
          "name": "priceInWei",
          "type": "uint256"
        },
        {
          "internalType": "address",
          "name": "paymentToken",
          "type": "address"
        },
        {
          "internalType": "bool",
          "name": "isActive",
          "type": "bool"
        },
        {
          "internalType": "uint256",
          "name": "createdAt",
          "type": "uint256"
        }
      ],
      "stateMutability": "view",
      "type": "function"
    },
    {
      "inputs": [
        {
          "internalType": "uint256",
          "name": "",
          "type": "uint256"
        }
      ],
      "name": "splitPayments",
      "outputs": [
        {
          "internalType": "uint256",
          "name": "invoiceId",
          "type": "uint256"
        },
        {
          "internalType": "uint256",
          "name": "totalCollected",
          "type": "uint256"
        },
        {
          "internalType": "uint256",
          "name": "contributorCount",
          "type": "uint256"
        }
      ],
      "stateMutability": "view",
      "type": "function"
    },
    {
      "inputs": [
        {
          "internalType": "address",
          "name": "newOwner",
          "type": "address"
        }
      ],
      "name": "transferOwnership",
      "outputs": [],
      "stateMutability": "nonpayable",
      "type": "function"
    },
    {
      "inputs": [
        {
          "internalType": "address",
          "name": "_newFeeCollector",
          "type": "address"
        }
      ],
      "name": "updateFeeCollector",
      "outputs": [],
      "stateMutability": "nonpayable",
      "type": "function"
    },
    {
      "inputs": [
        {
          "internalType": "uint256",
          "name": "_newFeeRate",
          "type": "uint256"
        }
      ],
      "name": "updatePlatformFee",
      "outputs": [],
      "stateMutability": "nonpayable",
      "type": "function"
    },
    {
      "inputs": [
        {
          "internalType": "uint256",
          "name": "_serviceId",
          "type": "uint256"
        },
        {
          "internalType": "bool",
          "name": "_isActive",
          "type": "bool"
        }
      ],
      "name": "updateServiceStatus",
      "outputs": [],
      "stateMutability": "nonpayable",
      "type": "function"
    },
    {
      "inputs": [
        {
          "internalType": "string",
          "name": "",
          "type": "string"
        }
      ],
      "name": "usedCouponCodes",
      "outputs": [
        {
          "internalType": "bool",
          "name": "",
          "type": "bool"
        }
      ],
      "stateMutability": "view",
      "type": "function"
    }
  ],
  "bytecode": "0x6080346100e057601f612bfd38819003918201601f19168301916001600160401b038311848410176100e5578084926020946040528339810103126100e057516001600160a01b038116908190036100e057600160005533156100ca5760018054336001600160a01b0319821681179092556040519291906001600160a01b03167f8be0079c531659141344cd1fd0a4f28419497f9722a3daafe3b4186f6b6457e0600080a360fa600455600580546001600160a01b031916919091179055612b0190816100fc8239f35b631e4fbdf760e01b600052600060045260246000fd5b600080fd5b634e487b7160e01b600052604160045260246000fdfe608080604052600436101561001357600080fd5b60003560e01c9081631c41f041146125c45750806335c3c1e11461257a5780633a23cc0a146123095780634064b7081461222d5780634e6d1405146120fa57806350d58c1314611b8a5780635131ae7b14611b0357806362fb581314611314578063715018a6146112b75780637325c82114610ca0578063866c887814610bf25780638da5cb5b14610bc9578063aa0b598814610b62578063ac60a6cd146107f7578063b095a4f11461079e578063b882bacb1461075b578063bbede8ab146106b1578063bd375eb514610552578063c22c4f4314610476578063c415b95c1461044d578063cf608837146103ec578063d2c35ce81461036d578063eeca08f01461034f578063ef0e239b146101c15763f2fde38b1461013257600080fd5b346101bc5760203660031901126101bc5761014b612636565b610153612aa2565b6001600160a01b031680156101a657600180546001600160a01b0319811683179091556001600160a01b03167f8be0079c531659141344cd1fd0a4f28419497f9722a3daafe3b4186f6b6457e0600080a3005b631e4fbdf760e01b600052600060045260246000fd5b600080fd5b346101bc5760203660031901126101bc5760006101006040516101e38161275f565b82815282602082015260606040820152606080820152606060808201528260a08201528260c08201528260e08201520152600435600052600660205260406000206040516102308161275f565b8154815260018201546001600160a01b031660208201908152916102566002820161279c565b604083019081526102696003830161279c565b6060840190815261027c6004840161279c565b926080850193845261032560058201549460a087019586526103126006840154946102ff600760c08b019660018060a01b038916885260ff60e08d019960a01c16151589520154976101008b019889526040519b8c9b60208d525160208d015260018060a01b0390511660408c01525161012060608c01526101408b01906126d7565b9051898203601f190160808b01526126d7565b9051878203601f190160a08901526126d7565b935160c0860152516001600160a01b031660e0850152511515610100840152516101208301520390f35b346101bc5760003660031901126101bc576020600454604051908152f35b346101bc5760203660031901126101bc57610386612636565b61038e612aa2565b6001600160a01b031680156103b5576001600160601b0360a01b6005541617600555600080f35b60405162461bcd60e51b815260206004820152600f60248201526e496e76616c6964206164647265737360881b6044820152606490fd5b346101bc5760203660031901126101bc576004356001600160401b0381116101bc5760ff610437602061042481943690600401612880565b81604051938285809451938492016126b4565b8101600981520301902054166040519015158152f35b346101bc5760003660031901126101bc576005546040516001600160a01b039091168152602090f35b346101bc5760203660031901126101bc576004356000908152600660205260409020805460018201546001600160a01b0316916104b56002820161279c565b60ff6104c36003840161279c565b926105266104d36004830161279c565b61051860058401549661050a60076006870154960154976040519b8c9b8c5260208c015261012060408c01526101208b01906126d7565b9089820360608b01526126d7565b9087820360808901526126d7565b60a0868101959095526001600160a01b03821660c0870152931c16151560e08401526101008301520390f35b346101bc5761056036612840565b90600052600760205260406000209060018060a01b03600283015416330361066c5760ff600b83015460a01c16600581101561065657610606576007820154908181116105cc576105bc81600a936105c7936008870155612976565b600984015490612969565b910155005b60405162461bcd60e51b8152602060048201526012602482015271446973636f756e7420746f6f206c6172676560701b6044820152606490fd5b60405162461bcd60e51b815260206004820152602260248201527f43616e206f6e6c7920646973636f756e742070656e64696e6720696e766f6963604482015261657360f01b6064820152608490fd5b634e487b7160e01b600052602160045260246000fd5b60405162461bcd60e51b815260206004820152601e60248201527f4f6e6c792073656c6c65722063616e206170706c7920646973636f756e7400006044820152606490fd5b346101bc5760203660031901126101bc5760043560005260076020526040600020600681015442111561072457600b0160ff815460a01c16600581101561065657806107069115908115610719575b506128c7565b805460ff60a01b1916600360a01b179055005b600191501483610700565b60405162461bcd60e51b815260206004820152600f60248201526e4e6f7420796574206f76657264756560881b6044820152606490fd5b346101bc5760203660031901126101bc57600435600052600860205260606040600020805490600560048201549101549060405192835260208301526040820152f35b346101bc5760403660031901126101bc576107b7612636565b6001600160a01b03166000908152600a60205260409020805460243591908210156101bc576020916107e891612686565b90549060031b1c604051908152f35b60203660031901126101bc5760043561080e6129b8565b806000526007602052604060002090600b820180549260ff8460a01c16600581101561065657610b27576108486006820154421115612904565b600a810154936001600160a01b03168061098f575083341061095757600080808060018060a01b036002860154166108896007870154600888015490612976565b9082821561094e575bf11561093057600080808093600960018060a01b036005541691015490828215610945575bf11561093057823411610911575b805460ff60a01b1916600160a11b179055604080519283526002602084015233927f4ee8001cd50e41811b2500760eee42ca639430b5ccf1c6bf563c6922e09643f19190a36001600055005b60008080806109208734612976565b81811561093c575b3390f16108c5575b6040513d6000823e3d90fd5b506108fc610928565b506108fc6108b7565b506108fc610892565b60405162461bcd60e51b815260206004820152601060248201526f092dce6eaccccd2c6d2cadce8408aa8960831b6044820152606490fd5b6109e8602060018060a01b036002850154166109b46007860154600887015490612976565b6040516323b872dd60e01b81523360048201526001600160a01b039092166024830152604482015291829081906064820190565b03816000865af190811561093057600091610b08575b5015610ac357600554600992909201546040516323b872dd60e01b81523360048201526001600160a01b0390931660248401526044830152602090829060649082906000905af190811561093057600091610a94575b506108c55760405162461bcd60e51b8152602060048201526013602482015272119959481d1c985b9cd9995c8819985a5b1959606a1b6044820152606490fd5b610ab6915060203d602011610abc575b610aae818361277b565b810190612942565b84610a54565b503d610aa4565b60405162461bcd60e51b815260206004820152601960248201527f5472616e7366657220746f2073656c6c6572206661696c6564000000000000006044820152606490fd5b610b21915060203d602011610abc57610aae818361277b565b866109fe565b60405162461bcd60e51b8152602060048201526013602482015272496e766f696365206e6f742070656e64696e6760681b6044820152606490fd5b346101bc5760203660031901126101bc57600435610b7e612aa2565b6103e88111610b8c57600455005b60405162461bcd60e51b81526020600482015260156024820152744665652063616e6e6f74206578636565642031302560581b6044820152606490fd5b346101bc5760003660031901126101bc576001546040516001600160a01b039091168152602090f35b346101bc5760403660031901126101bc57600435610c0e612856565b6000828152600660205260409020600101546001600160a01b03163303610c6257610c6091600052600660205260066040600020019081549060ff60a01b90151560a01b169060ff60a01b1916179055565b005b60405162461bcd60e51b81526020600482015260166024820152754f6e6c792073656c6c65722063616e2075706461746560501b6044820152606490fd5b346101bc5760a03660031901126101bc576004356001600160401b0381116101bc57610cd0903690600401612880565b6024356001600160401b0381116101bc57610cef903690600401612880565b6044356001600160401b0381116101bc57610d0e903690600401612880565b606435906084356001600160a01b038116908190036101bc5784511561127a57821561123557610d3f60025461295a565b938460025560405190610d518261275f565b85825260208201933385526040830190888252606084019283526080840190815260a084019087825260c085019386855260e086019360018552610100870198428a528b600052600660205260406000209751885560018060a01b03905116600188019060018060a01b03166001600160601b0360a01b8254161790556002870190518051906001600160401b038211611099578190610df18454612709565b601f81116111e2575b50602090601f831160011461117d57600092611172575b50508160011b916000199060031b1c19161790555b51805160038701916001600160401b038211611099578190610e488454612709565b601f811161111f575b50602090601f83116001146110ba576000926110af575b50508160011b916000199060031b1c19161790555b51805160048601916001600160401b03821161109957610e9d8354612709565b601f8111611051575b50918a9795939160209c9795938d90601f8311600114610f9b5792827fb082fcc9e795b00e07c1c2033b86bd8c702032f9fd30d032f72eb86d5c6c63199b9c9693610f49969360079996600092610f90575b50508160011b916000199060031b1c19161790555b5160058701559051600686018054925160ff60a01b90151560a01b166001600160a01b039092166001600160a81b031990931692909217179055565b5191015533600052600a8752610f63846040600020612983565b610f78604051926060845260608401906126d7565b948783015260408201528033940390a3604051908152f35b015190503880610ef8565b601f9b9695949392919b19821690836000528c6000209160005b81811061101d575092610f499694927fb082fcc9e795b00e07c1c2033b86bd8c702032f9fd30d032f72eb86d5c6c63199d9e6001938360079c9b999710611004575b505050811b019055610f0d565b015160001960f88460031b161c19169055388080610ff7565b939597999b9d9496989a9c5090916020600181928786015181550195019301908f9c9a98969492919d9b999795939d610fb5565b836000526020600020601f840160051c8101916020851061108f575b601f0160051c01905b8181106110835750610ea6565b60008155600101611076565b909150819061106d565b634e487b7160e01b600052604160045260246000fd5b015190508d80610e68565b60008581528281209350601f198516905b81811061110757509084600195949392106110ee575b505050811b019055610e7d565b015160001960f88460031b161c191690558d80806110e1565b929360206001819287860151815501950193016110cb565b909150836000526020600020601f840160051c81019160208510611168575b90601f859493920160051c01905b8181106111595750610e51565b6000815584935060010161114c565b909150819061113e565b015190508e80610e11565b60008581528281209350601f198516905b8181106111ca57509084600195949392106111b1575b505050811b019055610e26565b015160001960f88460031b161c191690558e80806111a4565b9293602060018192878601518155019501930161118e565b909150836000526020600020601f840160051c8101916020851061122b575b90601f859493920160051c01905b81811061121c5750610dfa565b6000815584935060010161120f565b9091508190611201565b60405162461bcd60e51b815260206004820152601c60248201527f5072696365206d7573742062652067726561746572207468616e2030000000006044820152606490fd5b60405162461bcd60e51b815260206004820152601560248201527414d95c9d9a58d9481b985b59481c995c5d5a5c9959605a1b6044820152606490fd5b346101bc5760003660031901126101bc576112d0612aa2565b600180546001600160a01b031981169091556000906001600160a01b03167f8be0079c531659141344cd1fd0a4f28419497f9722a3daafe3b4186f6b6457e08280a3005b346101bc5760603660031901126101bc5761132d612856565b6044359060043560005260066020526040600020916040519161134f8361275f565b8354835260018401546001600160a01b031660208401526113726002850161279c565b60408401526113836003850161279c565b60608401526113946004850161279c565b6080840152600584015460a0840152600684015493600760ff60c086019660018060a01b038116885260a01c161591821560e08701520154610100850152611ac95760208301516001600160a01b03163314611a8b57600182101580611a80575b15611a3b5761140560035461295a565b928360035560a08101519160045492838102938185041490151715611a2557611436612710840460a0840151612969565b936114456201518042046129da565b906114ad6001611454896129da565b93602460405195869263494e562d60e01b602085015261147d81518092602086880191016126b4565b8301602d60f81b8382015261149c8251809360206025850191016126b4565b01010301601f19810184528361277b565b6114b6876129da565b9461152560016114c961271042066129da565b976027604051998a9266434f55504f4e2d60c81b60208501526114f581518092602086880191016126b4565b8301602d60f81b838201526115148251809360206028850191016126b4565b01010301601f19810188528761277b565b60208501516001600160a01b031698620151808381029380159085049091141715611a25576115576127109342612969565b60a087015191516040519b6001600160a01b0390911695906115788d612743565b8b8d528c602060043591015260408d01523360608d015260808c01524260a08c015260c08b015260e08a015260006101008a015204610120880152846101408801526101608701526000610180870152826101a08701528015156101c0870152426101e08701528460005260076020526040600020865181556020870151600182015560018060a01b03604088015116600282019060018060a01b03166001600160601b0360a01b82541617905560018060a01b03606088015116600382019060018060a01b03166001600160601b0360a01b8254161790556004810160808801518051906001600160401b0382116110995781906116778454612709565b601f81116119d2575b50602090601f831160011461196d57600092611962575b50508160011b916000199060031b1c19161790555b60a087015160058281019190915560c0880151600683015560e0880151600783015561010088015160088301556101208801516009830155610140880151600a830155610160880151600b830180546001600160a01b0319166001600160a01b0392909216919091178155610180890151989189101561065657805460ff60a01b191660a09990991b60ff60a01b16989098179097556101a08701518051600098916001600160401b03821161194e57611769600c850154612709565b601f8111611906575b509189939189959360209b508b90601f8311600114611892579180600e94926101e0948992611887575b50508160011b916000199060031b1c191617600c8501555b600d84016101c0820151151560ff801983541691161790550151910155338252600b88526117e58360408420612983565b604051888187516117f98183858c016126b4565b81016009815203019020600160ff19825416179055611874575b50508460018060a01b0391015116916040519283528483015260606040830152827f584bd3578888085b851dfab04bfb892969bea083d5853339680013d9d88408873393806118696004359560608301906126d7565b0390a4604051908152f35b8082604092526008885220558386611813565b015190508e8061179c565b90600c8501875280872091875b601f19851681106118ec575092600e94926001926101e09583601f198116106118d3575b505050811b01600c8501556117b4565b015160001960f88460031b161c191690558e80806118c3565b8183015184558d9950600190930192918e01918e0161189f565b600c85018b5260208b20601f840160051c81019160208510611944575b601f0160051c01905b8181106119395750611772565b8b815560010161192c565b9091508190611923565b634e487b7160e01b8a52604160045260248afd5b015190508a80611697565b60008581528281209350601f198516905b8181106119ba57509084600195949392106119a1575b505050811b0190556116ac565b015160001960f88460031b161c191690558a8080611994565b9293602060018192878601518155019501930161197e565b909150836000526020600020601f840160051c81019160208510611a1b575b90601f859493920160051c01905b818110611a0c5750611680565b600081558493506001016119ff565b90915081906119f1565b634e487b7160e01b600052601160045260246000fd5b60405162461bcd60e51b815260206004820152601a60248201527f4475652064617465206d75737420626520312d393020646179730000000000006044820152606490fd5b50605a8211156113f5565b60405162461bcd60e51b815260206004820152601660248201527543616e6e6f7420627579206f776e207365727669636560501b6044820152606490fd5b60405162461bcd60e51b815260206004820152601260248201527153657276696365206e6f742061637469766560701b6044820152606490fd5b346101bc5760203660031901126101bc576001600160a01b03611b24612636565b16600052600b602052604060002060405190816020825491828152019160005260206000209060005b818110611b7457611b7085611b648187038261277b565b6040519182918261264c565b0390f35b8254845260209093019260019283019201611b4d565b611b9336612840565b90611b9c6129b8565b806000526007602052604060002060ff600d82015416156120b557600b81019081549060ff8260a01c1660058110156106565780611be291159081156120aa57506128c7565b611bf26006820154421115612904565b836000526008602052604060002094600386019260018060a01b0333166000528360205260ff6040600020541661206f576001600160a01b03169081611fcc57505034943415611f97575b600281019060018060a01b0333166000528160205260406000205415611f3d575b60049160018060a01b0333166000526020526040600020611c80888254612969565b90550191611c8f868454612969565b835533600090815260209190915260409020805460ff191660011790558154600a8201805490949110611eef57805460ff60a01b198116600160a11b179091556001600160a01b031680611def5750600080808060018060a01b03600286015416611d036007870154600888015490612976565b90828215611de6575bf11561093057600080808093600960018060a01b036005541691015490828215611ddd575bf11561093057549054808211611dad575b50505b60405182815260026020820152817f4ee8001cd50e41811b2500760eee42ca639430b5ccf1c6bf563c6922e09643f160403393a35b6040519182527ffdf15f17a0bc254fcf840407d9d52e5a60a36224dc7e6a62a6c7863ca876115560203393a36001600055005b600080611dbd8194938294612976565b818115611dd4575b3390f115610930578280611d42565b506108fc611dc5565b506108fc611d31565b506108fc611d0c565b9150611e469250602060018060a01b03600283015416611e186007840154600885015490612976565b60405163a9059cbb60e01b81526001600160a01b039092166004830152602482015293849081906044820190565b03816000865af191821561093057611ea093602093611ed4575b506005546009929092015460405163a9059cbb60e01b81526001600160a01b03909316600484015260248301529092839190829060009082906044820190565b03925af1801561093057611eb5575b50611d45565b611ecd9060203d602011610abc57610aae818361277b565b5082611eaf565b611eea90843d8611610abc57610aae818361277b565b611e60565b805460ff60a01b1916600160a01b1790555050604080518481526001602082015233925083917f4ee8001cd50e41811b2500760eee42ca639430b5ccf1c6bf563c6922e09643f191a3611d7a565b6001810191825492600160401b8410156110995783611f63916001600496018155612686565b81546001600160a01b0360039290921b91821b19163390911b179055600582018054611f8e9061295a565b90559150611c5e565b60405162461bcd60e51b815260206004820152600d60248201526c09aeae6e840e6cadcc8408aa89609b1b6044820152606490fd5b8096918115612035576040516323b872dd60e01b81523360048201523060248201526044810192909252602090829060649082906000905af1801561093057612016575b50611c3d565b61202e9060203d602011610abc57610aae818361277b565b5086612010565b60405162461bcd60e51b81526020600482015260126024820152710416d6f756e74206d757374206265203e20360741b6044820152606490fd5b60405162461bcd60e51b8152602060048201526013602482015272105b1c9958591e4818dbdb9d1c9a589d5d1959606a1b6044820152606490fd5b600191501487610700565b60405162461bcd60e51b815260206004820152601960248201527f53706c6974207061796d656e74206e6f7420616c6c6f776564000000000000006044820152606490fd5b346101bc5760203660031901126101bc57600480356000908152600760205260409020805460018201546002830154600384015492949193926001600160a01b039182169291169061214d90840161279c565b600584015490600685015460078601546008870154600988015491600a89015493600b8a015495600c8b016121819061279c565b98600d8c015460ff169b600e01549a6040519e8f9e8f91825260208201526040015260608d015260808c0161020090526102008c016121bf916126d7565b9660a08c015260c08b015260e08a0152610100890152610120880152610140870152600160a01b60019003811661016087015261018086019060a01c60ff1690612208916126fc565b8481036101a086015261221a916126d7565b9115156101c08401526101e08301520390f35b346101bc5760203660031901126101bc576004356000526008602052604060002060018101906005600482015491015491604051928384602084549283815201809460005260206000209260005b8181106122e75750506122909250038561277b565b604051926060840194606085525180955260808401926000955b8087106122c4575050839450602084015260408301520390f35b81516001600160a01b0316855260019690960195602094850194909101906122aa565b84546001600160a01b031683526001948501948994506020909301920161227b565b346101bc5760203660031901126101bc5760006101e060405161232b81612743565b828152826020820152826040820152826060820152606060808201528260a08201528260c08201528260e0820152826101008201528261012082015282610140820152826101608201528261018082015260606101a0820152826101c0820152015260043560005260076020526040600020604051906123aa82612743565b805482526001810154602083015260028101546001600160a01b03908116604084015260038201541660608301526123e46004820161279c565b6080830152600581015460a0830152600681015460c0830152600781015460e083015260088101546101008301526009810154610120830152600a81015461014083015260ff600b82015460018060a01b03811661016085015260a01c1690600582101561065657600e91610180840152612461600c820161279c565b6101a084015260ff600d8201541615156101c084015201546101e0820152604051809160208252805160208301526020810151604083015260018060a01b03604082015116606083015260018060a01b0360608201511660808301526101e06125616124de608084015161020060a08701526102208601906126d7565b60a084015160c086015260c084015160e086015260e084015161010086015261010084015161012086015261012084015161014086015261014084015161016086015260018060a01b03610160850151166101808601526125496101808501516101a08701906126fc565b6101a0840151858203601f19016101c08701526126d7565b916101c081015115158285015201516102008301520390f35b346101bc5760403660031901126101bc57612593612636565b6001600160a01b03166000908152600b60205260409020805460243591908210156101bc576020916107e891612686565b346101bc5760203660031901126101bc576001600160a01b036125e5612636565b16600052600a60205260406000208054808352602083019160005260206000209060005b81811061262057611b7085611b648187038261277b565b8254845260209093019260019283019201612609565b600435906001600160a01b03821682036101bc57565b602060408183019282815284518094520192019060005b8181106126705750505090565b8251845260209384019390920191600101612663565b805482101561269e5760005260206000200190600090565b634e487b7160e01b600052603260045260246000fd5b60005b8381106126c75750506000910152565b81810151838201526020016126b7565b906020916126f0815180928185528580860191016126b4565b601f01601f1916010190565b9060058210156106565752565b90600182811c92168015612739575b602083101461272357565b634e487b7160e01b600052602260045260246000fd5b91607f1691612718565b61020081019081106001600160401b0382111761109957604052565b61012081019081106001600160401b0382111761109957604052565b90601f801991011681019081106001600160401b0382111761109957604052565b90604051918260008254926127b084612709565b808452936001811690811561281e57506001146127d7575b506127d59250038361277b565b565b90506000929192526020600020906000915b8183106128025750509060206127d592820101386127c8565b60209193508060019154838589010152019101909184926127e9565b9050602092506127d594915060ff191682840152151560051b820101386127c8565b60409060031901126101bc576004359060243590565b6024359081151582036101bc57565b6001600160401b03811161109957601f01601f191660200190565b81601f820112156101bc5780359061289782612865565b926128a5604051948561277b565b828452602083830101116101bc57816000926020809301838601378301015290565b156128ce57565b60405162461bcd60e51b815260206004820152600e60248201526d496e76616c69642073746174757360901b6044820152606490fd5b1561290b57565b60405162461bcd60e51b815260206004820152600f60248201526e496e766f696365206f76657264756560881b6044820152606490fd5b908160209103126101bc575180151581036101bc5790565b6000198114611a255760010190565b91908201809211611a2557565b91908203918211611a2557565b8054600160401b811015611099576129a091600182018155612686565b819291549060031b91821b91600019901b1916179055565b6002600054146129c9576002600055565b633ee5aeb560e01b60005260046000fd5b8015612a8257600081805b612a6e57506129f381612865565b90612a01604051928361277b565b808252601f19612a1082612865565b013660208401375b80928015612a67576000198201918211611a25578193600a82066030019283603011611a25578451111561269e57600a9260f81b6001600160f81b03191660001a908401601f01530491612a18565b5050905090565b90612a7a600a9161295a565b9104806129e5565b50604051612a9160408261277b565b60018152600360fc1b602082015290565b6001546001600160a01b03163303612ab657565b63118cdaa760e01b6000523360045260246000fdfea2646970667358221220bc912e04eeffc1c594dea61762dc68d418519c8be0a82a7d66ee3b64bb48026a64736f6c634300081c0033",
  "linkReferences": {},
  "deployedLinkReferences": {}
}