{
  "_format": "hh-sol-artifact-1",
  "contractName": "USDY",
  "sourceName": "contracts/USDY.sol",
  "abi": [
    {
      "inputs": [],
      "stateMutability": "nonpayable",
      "type": "constructor"
    },
    {
      "inputs": [
        {
          "internalType": "address",
          "name": "spender",
          "type": "address"
        },
        {
          "internalType": "uint256",
          "name": "allowance",
          "type": "uint256"
        },
        {
          "internalType": "uint256",
          "name": "needed",
          "type": "uint256"
        }
      ],
      "name": "ERC20InsufficientAllowance",
      "type": "error"
    },
    {
      "inputs": [
        {
          "internalType": "address",
          "name": "sender",
          "type": "address"
        },
        {
          "internalType": "uint256",
          "name": "balance",
          "type": "uint256"
        },
        {
          "internalType": "uint256",
          "name": "needed",
          "type": "uint256"
        }
      ],
      "name": "ERC20InsufficientBalance",
      "type": "error"
    },
    {
      "inputs": [
        {
          "internalType": "address",
          "name": "approver",
          "type": "address"
        }
      ],
      "name": "ERC20InvalidApprover",
      "type": "error"
    },
    {
      "inputs": [
        {
          "internalType": "address",
          "name": "receiver",
          "type": "address"
        }
      ],
      "name": "ERC20InvalidReceiver",
      "type": "error"
    },
    {
      "inputs": [
        {
          "internalType": "address",
          "name": "sender",
          "type": "address"
        }
      ],
      "name": "ERC20InvalidSender",
      "type": "error"
    },
    {
      "inputs": [
        {
          "internalType": "address",
          "name": "spender",
          "type": "address"
        }
      ],
      "name": "ERC20InvalidSpender",
      "type": "error"
    },
    {
      "inputs": [
        {
          "internalType": "uint256",
          "name": "timeRemaining",
          "type": "uint256"
        }
      ],
      "name": "FaucetCooldownNotMet",
      "type": "error"
    },
    {
      "inputs": [],
      "name": "FaucetSupplyExhausted",
      "type": "error"
    },
    {
      "inputs": [],
      "name": "InvalidAmount",
      "type": "error"
    },
    {
      "inputs": [],
      "name": "MaxSupplyExceeded",
      "type": "error"
    },
    {
      "inputs": [
        {
          "internalType": "address",
          "name": "owner",
          "type": "address"
        }
      ],
      "name": "OwnableInvalidOwner",
      "type": "error"
    },
    {
      "inputs": [
        {
          "internalType": "address",
          "name": "account",
          "type": "address"
        }
      ],
      "name": "OwnableUnauthorizedAccount",
      "type": "error"
    },
    {
      "inputs": [],
      "name": "ReentrancyGuardReentrantCall",
      "type": "error"
    },
    {
      "anonymous": false,
      "inputs": [
        {
          "indexed": true,
          "internalType": "address",
          "name": "owner",
          "type": "address"
        },
        {
          "indexed": true,
          "internalType": "address",
          "name": "spender",
          "type": "address"
        },
        {
          "indexed": false,
          "internalType": "uint256",
          "name": "value",
          "type": "uint256"
        }
      ],
      "name": "Approval",
      "type": "event"
    },
    {
      "anonymous": false,
      "inputs": [
        {
          "indexed": true,
          "internalType": "address",
          "name": "user",
          "type": "address"
        },
        {
          "indexed": false,
          "internalType": "uint256",
          "name": "amount",
          "type": "uint256"
        },
        {
          "indexed": false,
          "internalType": "uint256",
          "name": "timestamp",
          "type": "uint256"
        }
      ],
      "name": "FaucetClaimed",
      "type": "event"
    },
    {
      "anonymous": false,
      "inputs": [
        {
          "indexed": false,
          "internalType": "uint256",
          "name": "newAmount",
          "type": "uint256"
        },
        {
          "indexed": false,
          "internalType": "uint256",
          "name": "newCooldown",
          "type": "uint256"
        }
      ],
      "name": "FaucetConfigured",
      "type": "event"
    },
    {
      "anonymous": false,
      "inputs": [
        {
          "indexed": true,
          "internalType": "address",
          "name": "previousOwner",
          "type": "address"
        },
        {
          "indexed": true,
          "internalType": "address",
          "name": "newOwner",
          "type": "address"
        }
      ],
      "name": "OwnershipTransferred",
      "type": "event"
    },
    {
      "anonymous": false,
      "inputs": [
        {
          "indexed": true,
          "internalType": "address",
          "name": "to",
          "type": "address"
        },
        {
          "indexed": false,
          "internalType": "uint256",
          "name": "amount",
          "type": "uint256"
        },
        {
          "indexed": false,
          "internalType": "string",
          "name": "reason",
          "type": "string"
        }
      ],
      "name": "RWATokenMinted",
      "type": "event"
    },
    {
      "anonymous": false,
      "inputs": [
        {
          "indexed": true,
          "internalType": "address",
          "name": "from",
          "type": "address"
        },
        {
          "indexed": true,
          "internalType": "address",
          "name": "to",
          "type": "address"
        },
        {
          "indexed": false,
          "internalType": "uint256",
          "name": "value",
          "type": "uint256"
        }
      ],
      "name": "Transfer",
      "type": "event"
    },
    {
      "inputs": [],
      "name": "ASSET_VALUE_USD",
      "outputs": [
        {
          "internalType": "uint256",
          "name": "",
          "type": "uint256"
        }
      ],
      "stateMutability": "view",
      "type": "function"
    },
    {
      "inputs": [],
      "name": "BACKING_ASSET",
      "outputs": [
        {
          "internalType": "string",
          "name": "",
          "type": "string"
        }
      ],
      "stateMutability": "view",
      "type": "function"
    },
    {
      "inputs": [],
      "name": "FAUCET_AMOUNT",
      "outputs": [
        {
          "internalType": "uint256",
          "name": "",
          "type": "uint256"
        }
      ],
      "stateMutability": "view",
      "type": "function"
    },
    {
      "inputs": [],
      "name": "FAUCET_COOLDOWN",
      "outputs": [
        {
          "internalType": "uint256",
          "name": "",
          "type": "uint256"
        }
      ],
      "stateMutability": "view",
      "type": "function"
    },
    {
      "inputs": [],
      "name": "MAX_SUPPLY",
      "outputs": [
        {
          "internalType": "uint256",
          "name": "",
          "type": "uint256"
        }
      ],
      "stateMutability": "view",
      "type": "function"
    },
    {
      "inputs": [],
      "name": "RWA_TYPE",
      "outputs": [
        {
          "internalType": "string",
          "name": "",
          "type": "string"
        }
      ],
      "stateMutability": "view",
      "type": "function"
    },
    {
      "inputs": [
        {
          "internalType": "address",
          "name": "owner",
          "type": "address"
        },
        {
          "internalType": "address",
          "name": "spender",
          "type": "address"
        }
      ],
      "name": "allowance",
      "outputs": [
        {
          "internalType": "uint256",
          "name": "",
          "type": "uint256"
        }
      ],
      "stateMutability": "view",
      "type": "function"
    },
    {
      "inputs": [
        {
          "internalType": "address",
          "name": "spender",
          "type": "address"
        },
        {
          "internalType": "uint256",
          "name": "value",
          "type": "uint256"
        }
      ],
      "name": "approve",
      "outputs": [
        {
          "internalType": "bool",
          "name": "",
          "type": "bool"
        }
      ],
      "stateMutability": "nonpayable",
      "type": "function"
    },
    {
      "inputs": [
        {
          "internalType": "address",
          "name": "account",
          "type": "address"
        }
      ],
      "name": "balanceOf",
      "outputs": [
        {
          "internalType": "uint256",
          "name": "",
          "type": "uint256"
        }
      ],
      "stateMutability": "view",
      "type": "function"
    },
    {
      "inputs": [
        {
          "internalType": "uint256",
          "name": "amount",
          "type": "uint256"
        }
      ],
      "name": "burn",
      "outputs": [],
      "stateMutability": "nonpayable",
      "type": "function"
    },
    {
      "inputs": [
        {
          "internalType": "address",
          "name": "from",
          "type": "address"
        },
        {
          "internalType": "uint256",
          "name": "amount",
          "type": "uint256"
        }
      ],
      "name": "burnFrom",
      "outputs": [],
      "stateMutability": "nonpayable",
      "type": "function"
    },
    {
      "inputs": [
        {
          "internalType": "address",
          "name": "user",
          "type": "address"
        }
      ],
      "name": "canClaimFromFaucet",
      "outputs": [
        {
          "internalType": "bool",
          "name": "",
          "type": "bool"
        }
      ],
      "stateMutability": "view",
      "type": "function"
    },
    {
      "inputs": [],
      "name": "claimFromFaucet",
      "outputs": [],
      "stateMutability": "nonpayable",
      "type": "function"
    },
    {
      "inputs": [],
      "name": "decimals",
      "outputs": [
        {
          "internalType": "uint8",
          "name": "",
          "type": "uint8"
        }
      ],
      "stateMutability": "pure",
      "type": "function"
    },
    {
      "inputs": [
        {
          "internalType": "address",
          "name": "to",
          "type": "address"
        },
        {
          "internalType": "uint256",
          "name": "amount",
          "type": "uint256"
        },
        {
          "internalType": "string",
          "name": "reason",
          "type": "string"
        }
      ],
      "name": "emergencyMint",
      "outputs": [],
      "stateMutability": "nonpayable",
      "type": "function"
    },
    {
      "inputs": [],
      "name": "getFaucetInfo",
      "outputs": [
        {
          "internalType": "uint256",
          "name": "amount",
          "type": "uint256"
        },
        {
          "internalType": "uint256",
          "name": "cooldown",
          "type": "uint256"
        },
        {
          "internalType": "uint256",
          "name": "totalClaimed",
          "type": "uint256"
        },
        {
          "internalType": "uint256",
          "name": "remainingSupply",
          "type": "uint256"
        }
      ],
      "stateMutability": "view",
      "type": "function"
    },
    {
      "inputs": [],
      "name": "getRWAMetadata",
      "outputs": [
        {
          "internalType": "string",
          "name": "rwaType",
          "type": "string"
        },
        {
          "internalType": "string",
          "name": "backingAsset",
          "type": "string"
        },
        {
          "internalType": "uint256",
          "name": "valueUSD",
          "type": "uint256"
        },
        {
          "internalType": "uint256",
          "name": "maxSupply",
          "type": "uint256"
        }
      ],
      "stateMutability": "pure",
      "type": "function"
    },
    {
      "inputs": [
        {
          "internalType": "address",
          "name": "",
          "type": "address"
        }
      ],
      "name": "lastFaucetClaim",
      "outputs": [
        {
          "internalType": "uint256",
          "name": "",
          "type": "uint256"
        }
      ],
      "stateMutability": "view",
      "type": "function"
    },
    {
      "inputs": [],
      "name": "name",
      "outputs": [
        {
          "internalType": "string",
          "name": "",
          "type": "string"
        }
      ],
      "stateMutability": "view",
      "type": "function"
    },
    {
      "inputs": [],
      "name": "owner",
      "outputs": [
        {
          "internalType": "address",
          "name": "",
          "type": "address"
        }
      ],
      "stateMutability": "view",
      "type": "function"
    },
    {
      "inputs": [],
      "name": "renounceOwnership",
      "outputs": [],
      "stateMutability": "nonpayable",
      "type": "function"
    },
    {
      "inputs": [],
      "name": "symbol",
      "outputs": [
        {
          "internalType": "string",
          "name": "",
          "type": "string"
        }
      ],
      "stateMutability": "view",
      "type": "function"
    },
    {
      "inputs": [
        {
          "internalType": "address",
          "name": "user",
          "type": "address"
        }
      ],
      "name": "timeUntilNextClaim",
      "outputs": [
        {
          "internalType": "uint256",
          "name": "",
          "type": "uint256"
        }
      ],
      "stateMutability": "view",
      "type": "function"
    },
    {
      "inputs": [],
      "name": "totalFaucetClaimed",
      "outputs": [
        {
          "internalType": "uint256",
          "name": "",
          "type": "uint256"
        }
      ],
      "stateMutability": "view",
      "type": "function"
    },
    {
      "inputs": [],
      "name": "totalSupply",
      "outputs": [
        {
          "internalType": "uint256",
          "name": "",
          "type": "uint256"
        }
      ],
      "stateMutability": "view",
      "type": "function"
    },
    {
      "inputs": [
        {
          "internalType": "address",
          "name": "to",
          "type": "address"
        },
        {
          "internalType": "uint256",
          "name": "value",
          "type": "uint256"
        }
      ],
      "name": "transfer",
      "outputs": [
        {
          "internalType": "bool",
          "name": "",
          "type": "bool"
        }
      ],
      "stateMutability": "nonpayable",
      "type": "function"
    },
    {
      "inputs": [
        {
          "internalType": "address",
          "name": "from",
          "type": "address"
        },
        {
          "internalType": "address",
          "name": "to",
          "type": "address"
        },
        {
          "internalType": "uint256",
          "name": "value",
          "type": "uint256"
        }
      ],
      "name": "transferFrom",
      "outputs": [
        {
          "internalType": "bool",
          "name": "",
          "type": "bool"
        }
      ],
      "stateMutability": "nonpayable",
      "type": "function"
    },
    {
      "inputs": [
        {
          "internalType": "address",
          "name": "newOwner",
          "type": "address"
        }
      ],
      "name": "transferOwnership",
      "outputs": [],
      "stateMutability": "nonpayable",
      "type": "function"
    }
  ],
  "bytecode": "0x60806040523461041857604080519081016001600160401b03811182821017610323576040908152600f82526e2aa9a2102cb4b2b632102a37b5b2b760891b602083015280519081016001600160401b038111828210176103235760405260048152635553445960e01b602082015281516001600160401b03811161032357600354600181811c9116801561040e575b602082101461030357601f81116103a9575b50602092601f82116001146103445792819293600092610339575b50508160011b916000199060031b1c1916176003555b80516001600160401b03811161032357600454600181811c91168015610319575b602082101461030357601f811161029e575b50602091601f821160011461023a5791819260009261022f575b50508160011b916000199060031b1c1916176004555b33156102195760058054336001600160a01b0319821681179092556001600160a01b03167f8be0079c531659141344cd1fd0a4f28419497f9722a3daafe3b4186f6b6457e0600080a36001600655600060025469152d02c7e14af680000081018091116102055760025550336000526000602052604060002069152d02c7e14af6800000815401905560405169152d02c7e14af6800000815260007fddf252ad1be2c89b69c2b068fc378daa952ba7f163c4a11628f55a4df523b3ef60203393a36040516110d0908161041e8239f35b634e487b7160e01b82526011600452602482fd5b631e4fbdf760e01b600052600060045260246000fd5b01519050388061011f565b601f198216926004600052806000209160005b8581106102865750836001951061026d575b505050811b01600455610135565b015160001960f88460031b161c1916905538808061025f565b9192602060018192868501518155019401920161024d565b60046000527f8a35acfbc15ff81a39ae7d344fd709f28e8600b4aa8c65c6b64bfe7fe36bd19b601f830160051c810191602084106102f9575b601f0160051c01905b8181106102ed5750610105565b600081556001016102e0565b90915081906102d7565b634e487b7160e01b600052602260045260246000fd5b90607f16906100f3565b634e487b7160e01b600052604160045260246000fd5b0151905038806100bc565b601f198216936003600052806000209160005b8681106103915750836001959610610378575b505050811b016003556100d2565b015160001960f88460031b161c1916905538808061036a565b91926020600181928685015181550194019201610357565b60036000527fc2575a0e9e593c00f959f8c92f12db2869c3395a3b0502d05e2516446f71f85b601f830160051c81019160208410610404575b601f0160051c01905b8181106103f857506100a1565b600081556001016103eb565b90915081906103e2565b90607f169061008f565b600080fdfe608080604052600436101561001357600080fd5b60003560e01c90816306fdde0314610c8e57508063095ea7b314610c6857806314da925314610be757806318160ddd14610bc957806323b872dd14610adc5780632edb855a146109c6578063313ce567146109aa578063324169c91461098757806332cb6b0c1461096257806342966c681461093e5780634fb7d9de146108ea57806370a08231146108b0578063715018a614610853578063766976401461082f57806379cc6790146107615780637d1d5d19146107435780638a877205146107095780638da5cb5b146106e057806392d82dbe146106b557806395d89b41146105a9578063a9059cbb14610578578063dca3d4d614610520578063dd62ed3e146104cf578063df8431a91461041c578063ef68f47b146103fe578063efc10bc41461035f578063f2fde38b146102d55763fbbfb7821461015357600080fd5b346102d05760003660031901126102d05761016c610f22565b33600052600760205260406000205462015180810180911161026e57421061029557600854683635c9adc5dea0000081019081811161026e5760025469d3c21bcecceda1000000039069d3c21bcecceda1000000821161026e576101cf91610dfc565b106102845733600052600760205242604060002055600854683635c9adc5dea00000810180911161026e57600855331561025857610216683635c9adc5dea000003361102c565b604051683635c9adc5dea0000081524260208201527fa19a7d2b5bf6a987a66e0eac8a6eb2dbd34ae6a43285849af788b224268ec02260403392a26001600655005b63ec442f0560e01b600052600060045260246000fd5b634e487b7160e01b600052601160045260246000fd5b635f887ecd60e01b60005260046000fd5b33600052600760205260406000205462015180810180911161026e576102bc904290610def565b6303e091f160e11b60005260045260246000fd5b600080fd5b346102d05760203660031901126102d0576102ee610d8b565b6102f6610ef9565b6001600160a01b0316801561034957600580546001600160a01b0319811683179091556001600160a01b03167f8be0079c531659141344cd1fd0a4f28419497f9722a3daafe3b4186f6b6457e0600080a3005b631e4fbdf760e01b600052600060045260246000fd5b346102d05760203660031901126102d0576001600160a01b03610380610d8b565b16600052600760205260406000205462015180810180911161026e57421015806103b2575b6020906040519015158152f35b50600854683635c9adc5dea00000810180821161026e5760025469d3c21bcecceda10000000369d3c21bcecceda1000000811161026e576020926103f591610dfc565b101590506103a5565b346102d05760003660031901126102d0576020600854604051908152f35b346102d05760003660031901126102d05761049f60405161043e604082610db7565b60118152705553445f5949454c445f42454152494e4760781b60208201526104ad60405161046d604082610db7565b601181527055535f54524541535552595f424f4e445360781b6020820152604051938493608085526080850190610d4a565b908382036020850152610d4a565b670de0b6b3a7640000604083015269d3c21bcecceda100000060608301520390f35b346102d05760403660031901126102d0576104e8610d8b565b6104f0610da1565b6001600160a01b039182166000908152600160209081526040808320949093168252928352819020549051908152f35b346102d05760003660031901126102d057610574604051610542604082610db7565b601181527055535f54524541535552595f424f4e445360781b6020820152604051918291602083526020830190610d4a565b0390f35b346102d05760403660031901126102d05761059e610594610d8b565b6024359033610e4a565b602060405160018152f35b346102d05760003660031901126102d05760405160006004548060011c906001811680156106ab575b602083108114610697578285529081156106735750600114610613575b610574836105ff81850382610db7565b604051918291602083526020830190610d4a565b91905060046000527f8a35acfbc15ff81a39ae7d344fd709f28e8600b4aa8c65c6b64bfe7fe36bd19b916000905b808210610659575090915081016020016105ff6105ef565b919260018160209254838588010152019101909291610641565b60ff191660208086019190915291151560051b840190910191506105ff90506105ef565b634e487b7160e01b84526022600452602484fd5b91607f16916105d2565b346102d05760203660031901126102d05760206106d86106d3610d8b565b610e09565b604051908152f35b346102d05760003660031901126102d0576005546040516001600160a01b039091168152602090f35b346102d05760203660031901126102d0576001600160a01b0361072a610d8b565b1660005260076020526020604060002054604051908152f35b346102d05760003660031901126102d0576020604051620151808152f35b346102d05760403660031901126102d05761077a610d8b565b602435801561081e576001600160a01b0382166000908152600160209081526040808320338452909152902054918183106107cd576107c66107bf836107cb95610def565b3383610fc5565b610f44565b005b60405162461bcd60e51b8152602060048201526024808201527f45524332303a206275726e20616d6f756e74206578636565647320616c6c6f77604482015263616e636560e01b6064820152608490fd5b63162908e360e11b60005260046000fd5b346102d05760003660031901126102d0576020604051683635c9adc5dea000008152f35b346102d05760003660031901126102d05761086c610ef9565b600580546001600160a01b031981169091556000906001600160a01b03167f8be0079c531659141344cd1fd0a4f28419497f9722a3daafe3b4186f6b6457e08280a3005b346102d05760203660031901126102d0576001600160a01b036108d1610d8b565b1660005260006020526020604060002054604051908152f35b346102d05760003660031901126102d05761057460405161090c604082610db7565b60118152705553445f5949454c445f42454152494e4760781b6020820152604051918291602083526020830190610d4a565b346102d05760203660031901126102d057600435801561081e576107cb9033610f44565b346102d05760003660031901126102d057602060405169d3c21bcecceda10000008152f35b346102d05760003660031901126102d0576020604051670de0b6b3a76400008152f35b346102d05760003660031901126102d057602060405160128152f35b346102d05760603660031901126102d0576109df610d8b565b6024359060443567ffffffffffffffff81116102d057366023820112156102d05780600401359167ffffffffffffffff83116102d05736602484840101116102d057610a29610ef9565b610a31610f22565b831561081e5769d3c21bcecceda1000000610a4e85600254610dfc565b11610acb576001600160a01b038116938415610258577fc94895568aeb8223e1ff4d6209dae01ed3bd79026d4df96400bba10513fdbc0393610a928260609461102c565b80602460405195869485526040602086015282604086015201848401376000828201840152601f01601f19168101030190a26001600655005b638a164f6360e01b60005260046000fd5b346102d05760603660031901126102d057610af5610d8b565b610afd610da1565b6001600160a01b0382166000818152600160209081526040808320338452909152902054909260443592916000198110610b3d575b5061059e9350610e4a565b838110610bac578415610b96573315610b805761059e946000526001602052604060002060018060a01b0333166000526020528360406000209103905584610b32565b634a1406b160e11b600052600060045260246000fd5b63e602df0560e01b600052600060045260246000fd5b8390637dc7a0d960e11b6000523360045260245260445260646000fd5b346102d05760003660031901126102d0576020600254604051908152f35b346102d05760003660031901126102d057600854610c0781600254610def565b69d3c21bcecceda1000000039069d3c21bcecceda1000000821161026e576080918180821115610c5f57610c3a91610def565b60405191683635c9adc5dea00000835262015180602084015260408301526060820152f35b50506000610c3a565b346102d05760403660031901126102d05761059e610c84610d8b565b6024359033610fc5565b346102d05760003660031901126102d05760006003548060011c90600181168015610d40575b602083108114610697578285529081156106735750600114610ce057610574836105ff81850382610db7565b91905060036000527fc2575a0e9e593c00f959f8c92f12db2869c3395a3b0502d05e2516446f71f85b916000905b808210610d26575090915081016020016105ff6105ef565b919260018160209254838588010152019101909291610d0e565b91607f1691610cb4565b919082519283825260005b848110610d76575050826000602080949584010152601f8019910116010190565b80602080928401015182828601015201610d55565b600435906001600160a01b03821682036102d057565b602435906001600160a01b03821682036102d057565b90601f8019910116810190811067ffffffffffffffff821117610dd957604052565b634e487b7160e01b600052604160045260246000fd5b9190820391821161026e57565b9190820180921161026e57565b6001600160a01b031660009081526007602052604090205462015180810190811061026e5780421015610e4457610e41904290610def565b90565b50600090565b6001600160a01b0316908115610ee3576001600160a01b0316918215610258576000828152806020526040812054828110610ec95791604082827fddf252ad1be2c89b69c2b068fc378daa952ba7f163c4a11628f55a4df523b3ef958760209652828652038282205586815280845220818154019055604051908152a3565b916064928463391434e360e21b8452600452602452604452fd5b634b637e8f60e11b600052600060045260246000fd5b6005546001600160a01b03163303610f0d57565b63118cdaa760e01b6000523360045260246000fd5b600260065414610f33576002600655565b633ee5aeb560e01b60005260046000fd5b6001600160a01b03168015610ee357600091818352826020526040832054818110610fac57817fddf252ad1be2c89b69c2b068fc378daa952ba7f163c4a11628f55a4df523b3ef926020928587528684520360408620558060025403600255604051908152a3565b6064939263391434e360e21b8452600452602452604452fd5b6001600160a01b0316908115610b96576001600160a01b0316918215610b805760207f8c5be1e5ebec7d5bd14f71427d1e84f3dd0314c0f7b2291e5b200ac8c7c3b925918360005260018252604060002085600052825280604060002055604051908152a3565b7fddf252ad1be2c89b69c2b068fc378daa952ba7f163c4a11628f55a4df523b3ef602060009261105e85600254610dfc565b6002556001600160a01b031693841584146110855780600254036002555b604051908152a3565b8484528382526040842081815401905561107c56fea264697066735822122058ead74299b459edbfa03f79a23c63d71ec74b4609b92a542b60a669ce90fc7964736f6c634300081c0033",
  "linkReferences": {},
  "deployedLinkReferences": {}
}